{
  "contractName": "SimpleAdjudicator",
  "abi": [
    {
      "constant": true,
      "inputs": [],
      "name": "fundedChannelId",
      "outputs": [
        {
          "name": "",
          "type": "bytes32"
        }
      ],
      "payable": false,
      "stateMutability": "view",
      "type": "function"
    },
    {
      "inputs": [
        {
          "name": "_fundedChannelId",
          "type": "bytes32"
        },
        {
          "name": "_challengeDurationMinutes",
          "type": "uint256"
        }
      ],
      "payable": true,
      "stateMutability": "payable",
      "type": "constructor"
    },
    {
      "payable": true,
      "stateMutability": "payable",
      "type": "fallback"
    },
    {
      "anonymous": false,
      "inputs": [
        {
          "indexed": false,
          "name": "amountReceived",
          "type": "uint256"
        },
        {
          "indexed": false,
          "name": "sender",
          "type": "address"
        },
        {
          "indexed": false,
          "name": "adjudicatorBalance",
          "type": "uint256"
        }
      ],
      "name": "FundsReceived",
      "type": "event"
    },
    {
      "anonymous": false,
      "inputs": [],
      "name": "GameConcluded",
      "type": "event"
    },
    {
      "anonymous": false,
      "inputs": [
        {
          "indexed": false,
          "name": "refutation",
          "type": "bytes"
        }
      ],
      "name": "Refuted",
      "type": "event"
    },
    {
      "anonymous": false,
      "inputs": [
        {
          "indexed": false,
          "name": "response",
          "type": "bytes"
        }
      ],
      "name": "RespondedWithMove",
      "type": "event"
    },
    {
      "anonymous": false,
      "inputs": [
        {
          "indexed": false,
          "name": "alternativeResponse",
          "type": "bytes"
        }
      ],
      "name": "RespondedWithAlternativeMove",
      "type": "event"
    },
    {
      "anonymous": false,
      "inputs": [
        {
          "indexed": false,
          "name": "channelId",
          "type": "bytes32"
        },
        {
          "indexed": false,
          "name": "state",
          "type": "bytes"
        },
        {
          "indexed": false,
          "name": "expirationTime",
          "type": "uint32"
        },
        {
          "indexed": false,
          "name": "payouts",
          "type": "uint256[]"
        }
      ],
      "name": "ChallengeCreated",
      "type": "event"
    },
    {
      "constant": false,
      "inputs": [
        {
          "name": "_fromState",
          "type": "bytes"
        },
        {
          "name": "_toState",
          "type": "bytes"
        },
        {
          "name": "_v",
          "type": "uint8[]"
        },
        {
          "name": "_r",
          "type": "bytes32[]"
        },
        {
          "name": "_s",
          "type": "bytes32[]"
        }
      ],
      "name": "forceMove",
      "outputs": [],
      "payable": false,
      "stateMutability": "nonpayable",
      "type": "function"
    },
    {
      "constant": false,
      "inputs": [
        {
          "name": "_penultimateState",
          "type": "bytes"
        },
        {
          "name": "_ultimateState",
          "type": "bytes"
        },
        {
          "name": "participant",
          "type": "address"
        },
        {
          "name": "destination",
          "type": "address"
        },
        {
          "name": "_channelId",
          "type": "bytes32"
        },
        {
          "name": "_v",
          "type": "uint8[]"
        },
        {
          "name": "_r",
          "type": "bytes32[]"
        },
        {
          "name": "_s",
          "type": "bytes32[]"
        }
      ],
      "name": "concludeAndWithdraw",
      "outputs": [],
      "payable": false,
      "stateMutability": "nonpayable",
      "type": "function"
    },
    {
      "constant": false,
      "inputs": [
        {
          "name": "_penultimateState",
          "type": "bytes"
        },
        {
          "name": "_ultimateState",
          "type": "bytes"
        },
        {
          "name": "_v",
          "type": "uint8[]"
        },
        {
          "name": "_r",
          "type": "bytes32[]"
        },
        {
          "name": "_s",
          "type": "bytes32[]"
        }
      ],
      "name": "conclude",
      "outputs": [],
      "payable": false,
      "stateMutability": "nonpayable",
      "type": "function"
    },
    {
      "constant": false,
      "inputs": [
        {
          "name": "_refutationState",
          "type": "bytes"
        },
        {
          "name": "v",
          "type": "uint8"
        },
        {
          "name": "r",
          "type": "bytes32"
        },
        {
          "name": "s",
          "type": "bytes32"
        }
      ],
      "name": "refute",
      "outputs": [],
      "payable": false,
      "stateMutability": "nonpayable",
      "type": "function"
    },
    {
      "constant": false,
      "inputs": [
        {
          "name": "_nextState",
          "type": "bytes"
        },
        {
          "name": "v",
          "type": "uint8"
        },
        {
          "name": "r",
          "type": "bytes32"
        },
        {
          "name": "s",
          "type": "bytes32"
        }
      ],
      "name": "respondWithMove",
      "outputs": [],
      "payable": false,
      "stateMutability": "nonpayable",
      "type": "function"
    },
    {
      "constant": false,
      "inputs": [
        {
          "name": "_alternativeState",
          "type": "bytes"
        },
        {
          "name": "_nextState",
          "type": "bytes"
        },
        {
          "name": "_v",
          "type": "uint8[]"
        },
        {
          "name": "_r",
          "type": "bytes32[]"
        },
        {
          "name": "_s",
          "type": "bytes32[]"
        }
      ],
      "name": "alternativeRespondWithMove",
      "outputs": [],
      "payable": false,
      "stateMutability": "nonpayable",
      "type": "function"
    },
    {
      "constant": false,
      "inputs": [
        {
          "name": "participant",
          "type": "address"
        },
        {
          "name": "destination",
          "type": "address"
        },
        {
          "name": "_channelId",
          "type": "bytes32"
        },
        {
          "name": "v",
          "type": "uint8"
        },
        {
          "name": "r",
          "type": "bytes32"
        },
        {
          "name": "s",
          "type": "bytes32"
        }
      ],
      "name": "withdraw",
      "outputs": [],
      "payable": false,
      "stateMutability": "nonpayable",
      "type": "function"
    },
    {
      "constant": true,
      "inputs": [
        {
          "name": "_fromState",
          "type": "bytes"
        },
        {
          "name": "_toState",
          "type": "bytes"
        }
      ],
      "name": "validTransition",
      "outputs": [
        {
          "name": "",
          "type": "bool"
        }
      ],
      "payable": false,
      "stateMutability": "pure",
      "type": "function"
    },
    {
      "constant": true,
      "inputs": [],
      "name": "currentChallengePresent",
      "outputs": [
        {
          "name": "",
          "type": "bool"
        }
      ],
      "payable": false,
      "stateMutability": "view",
      "type": "function"
    },
    {
      "constant": true,
      "inputs": [],
      "name": "activeChallengePresent",
      "outputs": [
        {
          "name": "",
          "type": "bool"
        }
      ],
      "payable": false,
      "stateMutability": "view",
      "type": "function"
    },
    {
      "constant": true,
      "inputs": [],
      "name": "expiredChallengePresent",
      "outputs": [
        {
          "name": "",
          "type": "bool"
        }
      ],
      "payable": false,
      "stateMutability": "view",
      "type": "function"
    }
  ],
  "bytecode": "0x6080604052604051604080612ab783398101806040528101908080519060200190929190805190602001909291905050508160008160001916905550603c81026005819055507ffb932f39cc5ea177af75a4f1502d59d13404be49a2edb139943b43e4fb3fe45b34333073ffffffffffffffffffffffffffffffffffffffff1631604051808481526020018373ffffffffffffffffffffffffffffffffffffffff1673ffffffffffffffffffffffffffffffffffffffff168152602001828152602001935050505060405180910390a150506129d7806100e06000396000f3006080604052600436106100ba576000357c0100000000000000000000000000000000000000000000000000000000900463ffffffff16806302fd670814610146578063234cae0e146101755780634350a91c146101a85780634eb30269146101d757806365a7c9d1146102c05780639207bf961461035a578063a0d44a4114610421578063b9b19cb214610450578063c830c29e146104eb578063d0d2df691461054f578063d626a7fe146105ea578063f20e10fd14610685575b7ffb932f39cc5ea177af75a4f1502d59d13404be49a2edb139943b43e4fb3fe45b34333073ffffffffffffffffffffffffffffffffffffffff1631604051808481526020018373ffffffffffffffffffffffffffffffffffffffff1673ffffffffffffffffffffffffffffffffffffffff168152602001828152602001935050505060405180910390a1005b34801561015257600080fd5b5061015b6106e9565b604051808215151515815260200191505060405180910390f35b34801561018157600080fd5b5061018a610709565b60405180826000191660001916815260200191505060405180910390f35b3480156101b457600080fd5b506101bd61070f565b604051808215151515815260200191505060405180910390f35b3480156101e357600080fd5b506102be600480360381019080803590602001908201803590602001919091929391929390803590602001908201803590602001919091929391929390803573ffffffffffffffffffffffffffffffffffffffff169060200190929190803573ffffffffffffffffffffffffffffffffffffffff1690602001909291908035600019169060200190929190803590602001908201803590602001919091929391929390803590602001908201803590602001919091929391929390803590602001908201803590602001919091929391929390505050610734565b005b3480156102cc57600080fd5b50610358600480360381019080803573ffffffffffffffffffffffffffffffffffffffff169060200190929190803573ffffffffffffffffffffffffffffffffffffffff1690602001909291908035600019169060200190929190803560ff169060200190929190803560001916906020019092919080356000191690602001909291905050506109d4565b005b34801561036657600080fd5b50610407600480360381019080803590602001908201803590602001908080601f0160208091040260200160405190810160405280939291908181526020018383808284378201915050505050509192919290803590602001908201803590602001908080601f01602080910402602001604051908101604052809392919081815260200183838082843782019150505050505091929192905050506109ea565b604051808215151515815260200191505060405180910390f35b34801561042d57600080fd5b50610436610b6c565b604051808215151515815260200191505060405180910390f35b34801561045c57600080fd5b506104e9600480360381019080803590602001908201803590602001919091929391929390803590602001908201803590602001919091929391929390803590602001908201803590602001919091929391929390803590602001908201803590602001919091929391929390803590602001908201803590602001919091929391929390505050610b91565b005b3480156104f757600080fd5b5061054d600480360381019080803590602001908201803590602001919091929391929390803560ff16906020019092919080356000191690602001909291908035600019169060200190929190505050610fad565b005b34801561055b57600080fd5b506105e86004803603810190808035906020019082018035906020019190919293919293908035906020019082018035906020019190919293919293908035906020019082018035906020019190919293919293908035906020019082018035906020019190919293919293908035906020019082018035906020019190919293919293905050506111a6565b005b3480156105f657600080fd5b506106836004803603810190808035906020019082018035906020019190919293919293908035906020019082018035906020019190919293919293908035906020019082018035906020019190919293919293908035906020019082018035906020019190919293919293908035906020019082018035906020019190919293919293905050506112c4565b005b34801561069157600080fd5b506106e7600480360381019080803590602001908201803590602001919091929391929390803560ff1690602001909291908035600019169060200190929190803560001916906020019092919050505061162f565b005b60006106f361070f565b80156107045750610702610b6c565b155b905090565b60005481565b600080600160020160009054906101000a900463ffffffff1663ffffffff1611905090565b61073c6106e9565b1515610841576108408d8d8080601f0160208091040260200160405190810160405280939291908181526020018383808284378201915050505050508c8c8080601f01602080910402602001604051908101604052809392919081815260200183838082843782019150505050505088888080602002602001604051908101604052809392919081815260200183836020028082843782019150505050505087878080602002602001604051908101604052809392919081815260200183836020028082843782019150505050505086868080602002602001604051908101604052809392919081815260200183836020028082843782019150505050505061197e565b5b6001800160405180828054600181600116156101000203166002900480156108a05780601f1061087e5761010080835404028352918201916108a0565b820191906000526020600020905b81548152906001019060200180831161088c575b50509150506040518091039020600019168b8b6040518083838082843782019150509250505060405180910390206000191614151561096d576040517f08c379a00000000000000000000000000000000000000000000000000000000081526004018080602001828103825260388152602001807f47616d6520616c726561647920636f6e636c756465642077697468206120646981526020017f66666572656e7420636f6e636c7573696f6e2070726f6f66000000000000000081525060400191505060405180910390fd5b6109c589898989896002818110151561098257fe5b9050602002013560ff1688886002818110151561099b57fe5b90506020020135600019168787600281811015156109b557fe5b9050602002013560001916611d4e565b50505050505050505050505050565b6109e2868686868686611d4e565b505050505050565b600073__Rules_________________________________639207bf9684846040518363ffffffff167c0100000000000000000000000000000000000000000000000000000000028152600401808060200180602001838103835285818151815260200191508051906020019080838360005b83811015610a77578082015181840152602081019050610a5c565b50505050905090810190601f168015610aa45780820380516001836020036101000a031916815260200191505b50838103825284818151815260200191508051906020019080838360005b83811015610add578082015181840152602081019050610ac2565b50505050905090810190601f168015610b0a5780820380516001836020036101000a031916815260200191505b5094505050505060206040518083038186803b158015610b2957600080fd5b505af4158015610b3d573d6000803e3d6000fd5b505050506040513d6020811015610b5357600080fd5b8101908080519060200190929190505050905092915050565b600042600160020160009054906101000a900463ffffffff1663ffffffff1611905090565b6060806060610b9e61070f565b151515610baa57600080fd5b600054600019168d8d8080601f01602080910402602001604051908101604052809392919081815260200183838082843782019150505050505073__State_________________________________639c0717e390916040518263ffffffff167c01000000000000000000000000000000000000000000000000000000000281526004018080602001828103825283818151815260200191508051906020019080838360005b83811015610c6b578082015181840152602081019050610c50565b50505050905090810190601f168015610c985780820380516001836020036101000a031916815260200191505b509250505060206040518083038186803b158015610cb557600080fd5b505af4158015610cc9573d6000803e3d6000fd5b505050506040513d6020811015610cdf57600080fd5b810190808051906020019092919050505060001916141515610d0057600080fd5b88888080602002602001604051908101604052809392919081815260200183836020028082843782019150505050505092508686808060200260200160405190810160405280939291908181526020018383602002808284378201915050505050509150848480806020026020016040519081016040528093929190818152602001838360200280828437820191505050505050905073__Rules_________________________________63d997535f8e8e8e8e8888886040518863ffffffff167c010000000000000000000000000000000000000000000000000000000002815260040180806020018060200180602001806020018060200186810386528d8d82818152602001925080828437820191505086810385528b8b828181526020019250808284378201915050868103845289818151815260200191508051906020019060200280838360005b83811015610e67578082015181840152602081019050610e4c565b50505050905001868103835288818151815260200191508051906020019060200280838360005b83811015610ea9578082015181840152602081019050610e8e565b50505050905001868103825287818151815260200191508051906020019060200280838360005b83811015610eeb578082015181840152602081019050610ed0565b505050509050019c5050505050505050505050505060206040518083038186803b158015610f1857600080fd5b505af4158015610f2c573d6000803e3d6000fd5b505050506040513d6020811015610f4257600080fd5b81019080805190602001909291905050501515610f5e57600080fd5b610f9e60055442018c8c8080601f016020809104026020016040519081016040528093929190818152602001838380828437820191505050505050611fa0565b50505050505050505050505050565b610fb5610b6c565b1515610fc057600080fd5b73__Rules_________________________________6359b3fb496001800187878787876040518763ffffffff167c01000000000000000000000000000000000000000000000000000000000281526004018080602001806020018660ff1660ff168152602001856000191660001916815260200184600019166000191681526020018381038352898181546001816001161561010002031660029004815260200191508054600181600116156101000203166002900480156110c35780601f10611098576101008083540402835291602001916110c3565b820191906000526020600020905b8154815290600101906020018083116110a657829003601f168201915b5050838103825288888281815260200192508082843782019150509850505050505050505060206040518083038186803b15801561110057600080fd5b505af4158015611114573d6000803e3d6000fd5b505050506040513d602081101561112a57600080fd5b8101908080519060200190929190505050151561114657600080fd5b61114e6122af565b7f769677437a2aba4b228111e9543e19cf6d812abd1cb819a22e02c9809e244de58585604051808060200182810382528484828181526020019250808284378201915050935050505060405180910390a15050505050565b6111ae6106e9565b1515156111ba57600080fd5b6112b88a8a8080601f01602080910402602001604051908101604052809392919081815260200183838082843782019150505050505089898080601f01602080910402602001604051908101604052809392919081815260200183838082843782019150505050505088888080602002602001604051908101604052809392919081815260200183836020028082843782019150505050505087878080602002602001604051908101604052809392919081815260200183836020028082843782019150505050505086868080602002602001604051908101604052809392919081815260200183836020028082843782019150505050505061197e565b50505050505050505050565b60608060606112d1610b6c565b15156112dc57600080fd5b88888080602002602001604051908101604052809392919081815260200183836020028082843782019150505050505092508686808060200260200160405190810160405280939291908181526020018383602002808284378201915050505050509150848480806020026020016040519081016040528093929190818152602001838360200280828437820191505050505050905073__Rules_________________________________63a483eb1d600180018f8f8f8f8989896040518963ffffffff167c01000000000000000000000000000000000000000000000000000000000281526004018080602001806020018060200180602001806020018060200187810387528f81815460018160011615610100020316600290048152602001915080546001816001161561010002031660029004801561145f5780601f106114345761010080835404028352916020019161145f565b820191906000526020600020905b81548152906001019060200180831161144257829003601f168201915b505087810386528e8e82818152602001925080828437820191505087810385528c8c82818152602001925080828437820191505087810384528a818151815260200191508051906020019060200280838360005b838110156114ce5780820151818401526020810190506114b3565b50505050905001878103835289818151815260200191508051906020019060200280838360005b838110156115105780820151818401526020810190506114f5565b50505050905001878103825288818151815260200191508051906020019060200280838360005b83811015611552578082015181840152602081019050611537565b505050509050019e50505050505050505050505050505060206040518083038186803b15801561158157600080fd5b505af4158015611595573d6000803e3d6000fd5b505050506040513d60208110156115ab57600080fd5b810190808051906020019092919050505015156115c757600080fd5b6115cf6122af565b7f304f56a1dd9f0afdc06f47cc8de2c6e6f7614bd319b14ab2074a31e84340addb8b8b604051808060200182810382528484828181526020019250808284378201915050935050505060405180910390a150505050505050505050505050565b611637610b6c565b151561164257600080fd5b84848080601f01602080910402602001604051908101604052809392919081815260200183838082843782019150505050505073__State_________________________________639c0717e390916040518263ffffffff167c01000000000000000000000000000000000000000000000000000000000281526004018080602001828103825283818151815260200191508051906020019080838360005b838110156116fc5780820151818401526020810190506116e1565b50505050905090810190601f1680156117295780820380516001836020036101000a031916815260200191505b509250505060206040518083038186803b15801561174657600080fd5b505af415801561175a573d6000803e3d6000fd5b505050506040513d602081101561177057600080fd5b8101908080519060200190929190505050600019166000546000191614151561179857600080fd5b73__Rules_________________________________63f788ea186001800187878787876040518763ffffffff167c01000000000000000000000000000000000000000000000000000000000281526004018080602001806020018660ff1660ff1681526020018560001916600019168152602001846000191660001916815260200183810383528981815460018160011615610100020316600290048152602001915080546001816001161561010002031660029004801561189b5780601f106118705761010080835404028352916020019161189b565b820191906000526020600020905b81548152906001019060200180831161187e57829003601f168201915b5050838103825288888281815260200192508082843782019150509850505050505050505060206040518083038186803b1580156118d857600080fd5b505af41580156118ec573d6000803e3d6000fd5b505050506040513d602081101561190257600080fd5b8101908080519060200190929190505050151561191e57600080fd5b6119266122af565b7fadf610ac3b3a479ddd85f0b6d56b7cfb7f2f892356c9151876d4a9c5ac725de28585604051808060200182810382528484828181526020019250808284378201915050935050505060405180910390a15050505050565b6060806060600054600019168873__State_________________________________639c0717e390916040518263ffffffff167c01000000000000000000000000000000000000000000000000000000000281526004018080602001828103825283818151815260200191508051906020019080838360005b83811015611a125780820151818401526020810190506119f7565b50505050905090810190601f168015611a3f5780820380516001836020036101000a031916815260200191505b509250505060206040518083038186803b158015611a5c57600080fd5b505af4158015611a70573d6000803e3d6000fd5b505050506040513d6020811015611a8657600080fd5b810190808051906020019092919050505060001916141515611aa757600080fd5b85925084915083905073__Rules_________________________________6351d6d79489898686866040518663ffffffff167c010000000000000000000000000000000000000000000000000000000002815260040180806020018060200180602001806020018060200186810386528b818151815260200191508051906020019080838360005b83811015611b4a578082015181840152602081019050611b2f565b50505050905090810190601f168015611b775780820380516001836020036101000a031916815260200191505b5086810385528a818151815260200191508051906020019080838360005b83811015611bb0578082015181840152602081019050611b95565b50505050905090810190601f168015611bdd5780820380516001836020036101000a031916815260200191505b50868103845289818151815260200191508051906020019060200280838360005b83811015611c19578082015181840152602081019050611bfe565b50505050905001868103835288818151815260200191508051906020019060200280838360005b83811015611c5b578082015181840152602081019050611c40565b50505050905001868103825287818151815260200191508051906020019060200280838360005b83811015611c9d578082015181840152602081019050611c82565b505050509050019a505050505050505050505060206040518083038186803b158015611cc857600080fd5b505af4158015611cdc573d6000803e3d6000fd5b505050506040513d6020811015611cf257600080fd5b81019080805190602001909291905050501515611d0e57600080fd5b611d184288611fa0565b7ff18bf04ef7607440082c9c8b6e87f1959c5f5c5e3ff201a910647cc6e230d39e60405160405180910390a15050505050505050565b600080600080600080611d5f6106e9565b1515611d6a57600080fd5b611d788c8c8c8c8c8c6122d6565b73ffffffffffffffffffffffffffffffffffffffff168c73ffffffffffffffffffffffffffffffffffffffff16141515611e40576040517f08c379a00000000000000000000000000000000000000000000000000000000081526004018080602001828103825260308152602001807f5061727469636970616e74206d757374207369676e206f6666206f6e2064657381526020017f74696e6174696f6e20616464726573730000000000000000000000000000000081525060400191505060405180910390fd5b611e498c61259a565b955060066000600281101515611e5b57fe5b015460016003016000815481101515611e7057fe5b9060005260206000200154039450611e9f3073ffffffffffffffffffffffffffffffffffffffff1631866128a0565b935060008660ff161415611eb557839250611f1e565b60018660ff161415611f1d5760066001600281101515611ed157fe5b015460016003016001815481101515611ee657fe5b9060005260206000200154039150611f17843073ffffffffffffffffffffffffffffffffffffffff163103836128a0565b90508092505b5b8a73ffffffffffffffffffffffffffffffffffffffff166108fc849081150290604051600060405180830381858888f19350505050158015611f64573d6000803e3d6000fd5b508260068760ff16600281101515611f7857fe5b01540160068760ff16600281101515611f8d57fe5b0181905550505050505050505050505050565b6000546001600001816000191690555080600180019080519060200190611fc89291906128b9565b5081600160020160006101000a81548163ffffffff021916908363ffffffff16021790555073__State_________________________________632e6f220c826040518263ffffffff167c01000000000000000000000000000000000000000000000000000000000281526004018080602001828103825283818151815260200191508051906020019080838360005b83811015612073578082015181840152602081019050612058565b50505050905090810190601f1680156120a05780820380516001836020036101000a031916815260200191505b509250505060006040518083038186803b1580156120bd57600080fd5b505af41580156120d1573d6000803e3d6000fd5b505050506040513d6000823e3d601f19601f8201168201806040525060208110156120fb57600080fd5b81019080805164010000000081111561211357600080fd5b8281019050602081018481111561212957600080fd5b815185602082028301116401000000008211171561214657600080fd5b505092919050505060016003019080519060200190612166929190612939565b507f0dcaa5dd7d6f4b963b65eb51a19e330900fe0a4df673b3114d8f0bde82f7822a60016000015460018001600160020160009054906101000a900463ffffffff166001600301604051808560001916600019168152602001806020018463ffffffff1663ffffffff1681526020018060200183810383528681815460018160011615610100020316600290048152602001915080546001816001161561010002031660029004801561225a5780601f1061222f5761010080835404028352916020019161225a565b820191906000526020600020905b81548152906001019060200180831161223d57829003601f168201915b5050838103825284818154815260200191508054801561229957602002820191906000526020600020905b815481526020019060010190808311612285575b5050965050505050505060405180910390a15050565b6000600160020160006101000a81548163ffffffff021916908363ffffffff160217905550565b600080606060008989600054604051602001808473ffffffffffffffffffffffffffffffffffffffff1673ffffffffffffffffffffffffffffffffffffffff166c010000000000000000000000000281526014018373ffffffffffffffffffffffffffffffffffffffff1673ffffffffffffffffffffffffffffffffffffffff166c01000000000000000000000000028152601401826000191660001916815260200193505050506040516020818303038152906040526040518082805190602001908083835b6020831015156123c2578051825260208201915060208101905060208303925061239d565b6001836020036101000a038019825116818451168082178552505050505050905001915050604051809103902092506040805190810160405280601c81526020017f19457468657265756d205369676e6564204d6573736167653a0a333200000000815250915081836040516020018083805190602001908083835b602083101515612463578051825260208201915060208101905060208303925061243e565b6001836020036101000a0380198251168184511680821785525050505050509050018260001916600019168152602001925050506040516020818303038152906040526040518082805190602001908083835b6020831015156124db57805182526020820191506020810190506020830392506124b6565b6001836020036101000a03801982511681845116808217855250505050505090500191505060405180910390209050600181888888604051600081526020016040526040518085600019166000191681526020018460ff1660ff1681526020018360001916600019168152602001826000191660001916815260200194505050505060206040516020810390808403906000865af1158015612581573d6000803e3d6000fd5b5050506020604051035193505050509695505050505050565b600060608060006125a961070f565b15156125b457600080fd5b600180018054600181600116156101000203166002900480601f01602080910402602001604051908101604052809291908181526020018280546001816001161561010002031660029004801561264c5780601f106126215761010080835404028352916020019161264c565b820191906000526020600020905b81548152906001019060200180831161262f57829003601f168201915b5050505050925073__State_________________________________6321990b9c846040518263ffffffff167c01000000000000000000000000000000000000000000000000000000000281526004018080602001828103825283818151815260200191508051906020019080838360005b838110156126d95780820151818401526020810190506126be565b50505050905090810190601f1680156127065780820380516001836020036101000a031916815260200191505b509250505060006040518083038186803b15801561272357600080fd5b505af4158015612737573d6000803e3d6000fd5b505050506040513d6000823e3d601f19601f82011682018060405250602081101561276157600080fd5b81019080805164010000000081111561277957600080fd5b8281019050602081018481111561278f57600080fd5b81518560208202830111640100000000821117156127ac57600080fd5b50509291905050509150600090505b60028160ff16101561282a578473ffffffffffffffffffffffffffffffffffffffff16828260ff168151811015156127ef57fe5b9060200190602002015173ffffffffffffffffffffffffffffffffffffffff16141561281d57809350612898565b80806001019150506127bb565b6040517f08c379a00000000000000000000000000000000000000000000000000000000081526004018080602001828103825260188152602001807f5061727469636970616e74206e6f7420696e2067616d652e000000000000000081525060200191505060405180910390fd5b505050919050565b60008183106128af57816128b1565b825b905092915050565b828054600181600116156101000203166002900490600052602060002090601f016020900481019282601f106128fa57805160ff1916838001178555612928565b82800160010185558215612928579182015b8281111561292757825182559160200191906001019061290c565b5b5090506129359190612986565b5090565b828054828255906000526020600020908101928215612975579160200282015b82811115612974578251825591602001919060010190612959565b5b5090506129829190612986565b5090565b6129a891905b808211156129a457600081600090555060010161298c565b5090565b905600a165627a7a72305820584d0ee7f5552a452f5e0289b74a16bd1e20a005dbf752065473ffbe7f6c00c20029",
  "source": "pragma solidity ^0.4.23;\n\nimport \"fmg-core/contracts/State.sol\";\nimport \"fmg-core/contracts/Rules.sol\";\nimport \"fmg-core/contracts/ForceMoveGame.sol\";\n\ncontract SimpleAdjudicator {\n    // SimpleAdjudicator can support exactly one force move game channel\n    // between exactly two players.\n    using State for bytes;\n\n    bytes32 public fundedChannelId;\n\n    Rules.Challenge currentChallenge;\n    uint challengeDuration;\n    uint[2] withdrawnAmount;\n\n    event FundsReceived(\n        uint amountReceived,\n        address sender,\n        uint adjudicatorBalance\n    );\n\n    constructor(bytes32 _fundedChannelId, uint256 _challengeDurationMinutes) public payable {\n        fundedChannelId = _fundedChannelId;\n        challengeDuration = _challengeDurationMinutes * 1 minutes;\n\n        emit FundsReceived(\n            msg.value,\n            msg.sender,\n            address(this).balance\n        );\n    }\n\n    // allow funds to be sent to the contract\n    function () public payable {\n        emit FundsReceived(\n            msg.value,\n            msg.sender,\n            address(this).balance\n        );\n    }\n\n    function forceMove (\n        bytes _fromState,\n        bytes _toState,\n        uint8[] _v,\n        bytes32[] _r,\n        bytes32[] _s\n      )\n        external\n        onlyWhenCurrentChallengeNotPresent\n      {\n        // channelId must match the game supported by the channel\n        require(_fromState.channelId() == fundedChannelId);\n\n        // passing _v, _r, _s directly to validForceMove gives a \"Stack too deep\" error\n        uint8[] memory v = _v;\n        bytes32[] memory r = _r;\n        bytes32[] memory s = _s;\n\n        // must be a valid force move\n        require(Rules.validForceMove(_fromState, _toState, v, r, s));\n\n        createChallenge(uint32(now + challengeDuration), _toState);\n    }\n\n    function concludeAndWithdraw(\n        bytes _penultimateState,\n        bytes _ultimateState,\n        address participant,\n        address destination,\n        bytes32 _channelId,\n        uint8[] _v,\n        bytes32[] _r,\n        bytes32[] _s\n    ) external{\n        if (!expiredChallengePresent()){\n            _conclude(\n                _penultimateState,\n                _ultimateState,\n                _v,\n                _r,\n                _s\n            );\n        }\n\n        require(\n            // You can't compare calldata bytes (eg _ultimateState) with\n            // storage bytes (eg. currentChallenge.state)\n            keccak256(_ultimateState) == keccak256(currentChallenge.state),\n            \"Game already concluded with a different conclusion proof\"\n        );\n\n        _withdraw(participant, destination,_channelId,_v[2],_r[2],_s[2]);\n\n    }\n\n    function conclude(\n        bytes _penultimateState,\n        bytes _ultimateState,\n        uint8[] _v,\n        bytes32[] _r,\n        bytes32[] _s)\n    external onlyWhenGameOngoing \n    {\n        _conclude(_penultimateState,_ultimateState,_v,_r,_s);\n    }\n    event GameConcluded();\n    function _conclude(\n        bytes _penultimateState,\n        bytes _ultimateState,\n        uint8[] _v,\n        bytes32[] _r,\n        bytes32[] _s\n    )\n      internal\n    {\n        // channelId must match the game supported by the channel\n        require(_penultimateState.channelId() == fundedChannelId);\n\n        // passing _v, _r, _s directly to validConclusionProof gives a \"Stack too deep\" error\n        uint8[] memory v = _v;\n        bytes32[] memory r = _r;\n        bytes32[] memory s = _s;\n\n        // must be a valid conclusion proof according to framework rules\n        require(Rules.validConclusionProof(_penultimateState, _ultimateState, v, r, s));\n\n        // Create an expired challenge, (possibly) overwriting any existing challenge\n        createChallenge(uint32(now), _ultimateState);\n        emit GameConcluded();\n        \n    }\n\n    event Refuted(bytes refutation);\n    function refute(bytes _refutationState, uint8 v, bytes32 r, bytes32 s)\n      external\n      onlyWhenCurrentChallengeActive\n    {\n        // channelId must match the game supported by the channel\n        require(fundedChannelId == _refutationState.channelId());\n\n        // must be a valid refute according to framework rules\n        require(Rules.validRefute(currentChallenge.state, _refutationState, v, r, s));\n\n        cancelCurrentChallenge();\n\n        emit Refuted(_refutationState);\n    }\n\n    event RespondedWithMove(bytes response);\n    function respondWithMove(bytes _nextState, uint8 v, bytes32 r, bytes32 s)\n      external\n      onlyWhenCurrentChallengeActive\n    {\n        // must be valid respond with move according to the framework rules\n        require(Rules.validRespondWithMove(currentChallenge.state, _nextState, v, r, s));\n\n        cancelCurrentChallenge();\n        emit RespondedWithMove(_nextState);\n    }\n\n    event RespondedWithAlternativeMove(bytes alternativeResponse);\n    function alternativeRespondWithMove(\n        bytes _alternativeState,\n        bytes _nextState,\n        uint8[] _v,\n        bytes32[] _r,\n        bytes32[] _s\n    )\n      external\n      onlyWhenCurrentChallengeActive\n    {\n        // passing _v, _r, _s directly to validAlternativeRespondWithMove gives a \"Stack too deep\" error\n        uint8[] memory v = _v;\n        bytes32[] memory r = _r;\n        bytes32[] memory s = _s;\n\n        // must be valid alternative respond with move according to the framework rules\n        require(Rules.validAlternativeRespondWithMove(currentChallenge.state, _alternativeState, _nextState, v, r, s));\n\n        cancelCurrentChallenge();\n        emit RespondedWithAlternativeMove(_nextState);\n    }\n\n    event ChallengeCreated(\n        bytes32 channelId,\n        bytes state,\n        uint32 expirationTime,\n        uint256[] payouts\n    );\n\n    function createChallenge(uint32 expirationTime, bytes _state) private {\n        currentChallenge.channelId = fundedChannelId;\n        currentChallenge.state = _state;\n        currentChallenge.expirationTime = expirationTime;\n        currentChallenge.payouts = State.resolution(_state);\n\n        emit ChallengeCreated(\n            currentChallenge.channelId,\n            currentChallenge.state,\n            currentChallenge.expirationTime,\n            currentChallenge.payouts\n        );\n    }\n\n    function recoverParticipant(\n        address participant,\n        address destination,\n        bytes32 _channelId,\n        uint8 v,\n        bytes32 r,\n        bytes32 s\n    ) internal view returns (address) {\n        bytes32 h = keccak256(abi.encodePacked(participant, destination, fundedChannelId)); \n        bytes memory prefix = \"\\x19Ethereum Signed Message:\\n32\";\n\n        bytes32 prefixedHash = keccak256(\n            abi.encodePacked(prefix, h)\n        );\n\n        return ecrecover(prefixedHash, v, r, s);\n    }\n\n\n    function withdraw(\n        address participant,\n        address destination,\n        bytes32 _channelId, // not needed for the simple adjudicator, which only supports one channel\n        uint8 v,\n        bytes32 r,\n        bytes32 s\n    )\n      public\n    {\n        return _withdraw(participant, destination, _channelId,v,r,s);\n    }\n\n    function _withdraw(\n        address participant,\n        address destination,\n        bytes32 _channelId, // not needed for the simple adjudicator, which only supports one channel\n        uint8 v,\n        bytes32 r,\n        bytes32 s\n    )\n      internal\n      onlyWhenGameTerminated\n    {\n\n        // check that the participant has signed off on the destination\n        // address for the funds\n        require(\n            participant == recoverParticipant(participant, destination, _channelId, v, r, s),\n            \"Participant must sign off on destination address\"\n        );\n\n        uint8 idx = participantIdx(participant);\n\n        uint owedToA = currentChallenge.payouts[0] - withdrawnAmount[0];\n        uint aPending = min(address(this).balance, owedToA);\n\n        uint amount;\n        if (idx == 0) {\n            amount = aPending;\n        } else if (idx == 1) {\n            uint owedToB = currentChallenge.payouts[1] - withdrawnAmount[1];\n            uint bPending = min(address(this).balance - aPending, owedToB);\n            amount = bPending;\n        }\n\n        destination.transfer(amount);\n        withdrawnAmount[idx] = withdrawnAmount[idx] + amount;\n    }\n\n    function validTransition(bytes _fromState, bytes _toState) public pure returns(bool) {\n        return Rules.validTransition(_fromState, _toState);\n    }\n\n    function min(uint256 a, uint256 b) private pure returns (uint256) {\n        return a < b ? a : b;\n    }\n\n    function cancelCurrentChallenge() private{\n        // TODO: zero out everything(?)\n        currentChallenge.expirationTime = 0;\n    }\n\n    function currentChallengePresent() public view returns (bool) {\n        return currentChallenge.expirationTime > 0;\n    }\n\n    function activeChallengePresent() public view returns (bool) {\n        return (currentChallenge.expirationTime > now);\n    }\n\n    function expiredChallengePresent() public view returns (bool) {\n        return currentChallengePresent() && !activeChallengePresent();\n    }\n\n    function participantIdx(address participant)\n      private view\n      onlyWhenCurrentChallengePresent // otherwise, we don't know that we've seen a valid game state yet\n      returns (uint8) {\n        bytes memory endState = currentChallenge.state;\n        address[] memory p = State.participants(endState);\n        for(uint8 i = 0; i < 2; i++) {\n            if (p[i] == participant) {\n                return i;\n            }\n        }\n        revert(\"Participant not in game.\");\n    }\n\n    // Modifiers\n    modifier onlyWhenCurrentChallengePresent() {\n        require(currentChallengePresent());\n        _;\n    }\n\n    modifier onlyWhenCurrentChallengeNotPresent() {\n        require(!currentChallengePresent());\n        _;\n    }\n\n    modifier onlyWhenGameTerminated() {\n        require(expiredChallengePresent());\n        _;\n    }\n\n    modifier onlyWhenGameOngoing() {\n        require(!expiredChallengePresent());\n        _;\n    }\n\n    modifier onlyWhenCurrentChallengeActive() {\n        require(activeChallengePresent());\n        _;\n    }\n}\n",
  "sourcePath": "fmg-simple-adjudicator/contracts/SimpleAdjudicator.sol",
  "compiler": {
    "name": "solc",
    "version": "0.4.24+commit.e67f0147.Emscripten.clang"
  },
  "schemaVersion": "3.0.0-beta.0",
  "updatedAt": "2018-10-29T18:31:13.340Z"
}