{
  "contractName": "RockPaperScissorsState",
  "abi": [
    {
      "constant": true,
      "inputs": [
        {
          "name": "_state",
          "type": "bytes"
        }
      ],
      "name": "positionType",
      "outputs": [
        {
          "name": "_positionType",
          "type": "RockPaperScissorsState.PositionType"
        }
      ],
      "payable": false,
      "stateMutability": "pure",
      "type": "function",
      "signature": "0x8a0cc0ed"
    },
    {
      "constant": true,
      "inputs": [
        {
          "name": "_state",
          "type": "bytes"
        }
      ],
      "name": "stake",
      "outputs": [
        {
          "name": "_stake",
          "type": "uint256"
        }
      ],
      "payable": false,
      "stateMutability": "pure",
      "type": "function",
      "signature": "0x2d1e0c02"
    },
    {
      "constant": true,
      "inputs": [
        {
          "name": "_state",
          "type": "bytes"
        }
      ],
      "name": "preCommit",
      "outputs": [
        {
          "name": "_preCommit",
          "type": "bytes32"
        }
      ],
      "payable": false,
      "stateMutability": "pure",
      "type": "function",
      "signature": "0x8b5b5b32"
    },
    {
      "constant": true,
      "inputs": [
        {
          "name": "_state",
          "type": "bytes"
        }
      ],
      "name": "bPlay",
      "outputs": [
        {
          "name": "_aPlay",
          "type": "RockPaperScissorsState.Play"
        }
      ],
      "payable": false,
      "stateMutability": "pure",
      "type": "function",
      "signature": "0x16666c70"
    },
    {
      "constant": true,
      "inputs": [
        {
          "name": "_state",
          "type": "bytes"
        }
      ],
      "name": "aPlay",
      "outputs": [
        {
          "name": "_bPlay",
          "type": "RockPaperScissorsState.Play"
        }
      ],
      "payable": false,
      "stateMutability": "pure",
      "type": "function",
      "signature": "0x259b0d33"
    },
    {
      "constant": true,
      "inputs": [
        {
          "name": "_state",
          "type": "bytes"
        }
      ],
      "name": "salt",
      "outputs": [
        {
          "name": "_salt",
          "type": "bytes32"
        }
      ],
      "payable": false,
      "stateMutability": "pure",
      "type": "function",
      "signature": "0xf7487e06"
    },
    {
      "constant": true,
      "inputs": [
        {
          "name": "_state",
          "type": "bytes"
        }
      ],
      "name": "roundNum",
      "outputs": [
        {
          "name": "_roundNum",
          "type": "uint256"
        }
      ],
      "payable": false,
      "stateMutability": "pure",
      "type": "function",
      "signature": "0x373ab314"
    },
    {
      "constant": true,
      "inputs": [
        {
          "name": "_state",
          "type": "bytes"
        }
      ],
      "name": "aResolution",
      "outputs": [
        {
          "name": "",
          "type": "uint256"
        }
      ],
      "payable": false,
      "stateMutability": "pure",
      "type": "function",
      "signature": "0x4c291ecd"
    },
    {
      "constant": true,
      "inputs": [
        {
          "name": "_state",
          "type": "bytes"
        }
      ],
      "name": "bResolution",
      "outputs": [
        {
          "name": "_bBal",
          "type": "uint256"
        }
      ],
      "payable": false,
      "stateMutability": "pure",
      "type": "function",
      "signature": "0x4e77b063"
    }
  ],
  "bytecode": "0x610fe5610030600b82828239805160001a6073146000811461002057610022565bfe5b5030600052607381538281f30073000000000000000000000000000000000000000030146080604052600436106100b0576000357c0100000000000000000000000000000000000000000000000000000000900463ffffffff16806316666c70146100b5578063259b0d33146101335780632d1e0c02146101b1578063373ab314146102215780634c291ecd146102915780634e77b063146103015780638a0cc0ed146103715780638b5b5b32146103ef578063f7487e0614610467575b600080fd5b61010f600480360381019080803590602001908201803590602001908080601f01602080910402602001604051908101604052809392919081815260200183838082843782019150505050505091929192905050506104df565b6040518082600281111561011f57fe5b60ff16815260200191505060405180910390f35b61018d600480360381019080803590602001908201803590602001908080601f01602080910402602001604051908101604052809392919081815260200183838082843782019150505050505091929192905050506105fe565b6040518082600281111561019d57fe5b60ff16815260200191505060405180910390f35b61020b600480360381019080803590602001908201803590602001908080601f016020809104026020016040519081016040528093929190818152602001838380828437820191505050505050919291929050505061071d565b6040518082815260200191505060405180910390f35b61027b600480360381019080803590602001908201803590602001908080601f016020809104026020016040519081016040528093929190818152602001838380828437820191505050505050919291929050505061083c565b6040518082815260200191505060405180910390f35b6102eb600480360381019080803590602001908201803590602001908080601f016020809104026020016040519081016040528093929190818152602001838380828437820191505050505050919291929050505061095b565b6040518082815260200191505060405180910390f35b61035b600480360381019080803590602001908201803590602001908080601f0160208091040260200160405190810160405280939291908181526020018383808284378201915050505050509192919290505050610add565b6040518082815260200191505060405180910390f35b6103cb600480360381019080803590602001908201803590602001908080601f0160208091040260200160405190810160405280939291908181526020018383808284378201915050505050509192919290505050610c5f565b604051808260048111156103db57fe5b60ff16815260200191505060405180910390f35b610449600480360381019080803590602001908201803590602001908080601f0160208091040260200160405190810160405280939291908181526020018383808284378201915050505050509192919290505050610d7b565b60405180826000191660001916815260200191505060405180910390f35b6104c1600480360381019080803590602001908201803590602001908080601f0160208091040260200160405190810160405280939291908181526020018383808284378201915050505050509192919290505050610e9a565b60405180826000191660001916815260200191505060405180910390f35b600080606073__State_________________________________63c586f63b856040518263ffffffff167c01000000000000000000000000000000000000000000000000000000000281526004018080602001828103825283818151815260200191508051906020019080838360005b8381101561056a57808201518184015260208101905061054f565b50505050905090810190601f1680156105975780820380516001836020036101000a031916815260200191505b509250505060206040518083038186803b1580156105b457600080fd5b505af41580156105c8573d6000803e3d6000fd5b505050506040513d60208110156105de57600080fd5b810190808051906020019092919050505001905080830151915050919050565b600080608073__State_________________________________63c586f63b856040518263ffffffff167c01000000000000000000000000000000000000000000000000000000000281526004018080602001828103825283818151815260200191508051906020019080838360005b8381101561068957808201518184015260208101905061066e565b50505050905090810190601f1680156106b65780820380516001836020036101000a031916815260200191505b509250505060206040518083038186803b1580156106d357600080fd5b505af41580156106e7573d6000803e3d6000fd5b505050506040513d60208110156106fd57600080fd5b810190808051906020019092919050505001905080830151915050919050565b600080602073__State_________________________________63c586f63b856040518263ffffffff167c01000000000000000000000000000000000000000000000000000000000281526004018080602001828103825283818151815260200191508051906020019080838360005b838110156107a857808201518184015260208101905061078d565b50505050905090810190601f1680156107d55780820380516001836020036101000a031916815260200191505b509250505060206040518083038186803b1580156107f257600080fd5b505af4158015610806573d6000803e3d6000fd5b505050506040513d602081101561081c57600080fd5b810190808051906020019092919050505001905080830151915050919050565b60008060c073__State_________________________________63c586f63b856040518263ffffffff167c01000000000000000000000000000000000000000000000000000000000281526004018080602001828103825283818151815260200191508051906020019080838360005b838110156108c75780820151818401526020810190506108ac565b50505050905090810190601f1680156108f45780820380516001836020036101000a031916815260200191505b509250505060206040518083038186803b15801561091157600080fd5b505af4158015610925573d6000803e3d6000fd5b505050506040513d602081101561093b57600080fd5b810190808051906020019092919050505001905080830151915050919050565b600073__State_________________________________632e6f220c836040518263ffffffff167c01000000000000000000000000000000000000000000000000000000000281526004018080602001828103825283818151815260200191508051906020019080838360005b838110156109e35780820151818401526020810190506109c8565b50505050905090810190601f168015610a105780820380516001836020036101000a031916815260200191505b509250505060006040518083038186803b158015610a2d57600080fd5b505af4158015610a41573d6000803e3d6000fd5b505050506040513d6000823e3d601f19601f820116820180604052506020811015610a6b57600080fd5b810190808051640100000000811115610a8357600080fd5b82810190506020810184811115610a9957600080fd5b8151856020820283011164010000000082111715610ab657600080fd5b50509291905050506000815181101515610acc57fe5b906020019060200201519050919050565b600073__State_________________________________632e6f220c836040518263ffffffff167c01000000000000000000000000000000000000000000000000000000000281526004018080602001828103825283818151815260200191508051906020019080838360005b83811015610b65578082015181840152602081019050610b4a565b50505050905090810190601f168015610b925780820380516001836020036101000a031916815260200191505b509250505060006040518083038186803b158015610baf57600080fd5b505af4158015610bc3573d6000803e3d6000fd5b505050506040513d6000823e3d601f19601f820116820180604052506020811015610bed57600080fd5b810190808051640100000000811115610c0557600080fd5b82810190506020810184811115610c1b57600080fd5b8151856020820283011164010000000082111715610c3857600080fd5b50509291905050506001815181101515610c4e57fe5b906020019060200201519050919050565b60008073__State_________________________________63c586f63b846040518263ffffffff167c01000000000000000000000000000000000000000000000000000000000281526004018080602001828103825283818151815260200191508051906020019080838360005b83811015610ce8578082015181840152602081019050610ccd565b50505050905090810190601f168015610d155780820380516001836020036101000a031916815260200191505b509250505060206040518083038186803b158015610d3257600080fd5b505af4158015610d46573d6000803e3d6000fd5b505050506040513d6020811015610d5c57600080fd5b8101908080519060200190929190505050905080830151915050919050565b600080604073__State_________________________________63c586f63b856040518263ffffffff167c01000000000000000000000000000000000000000000000000000000000281526004018080602001828103825283818151815260200191508051906020019080838360005b83811015610e06578082015181840152602081019050610deb565b50505050905090810190601f168015610e335780820380516001836020036101000a031916815260200191505b509250505060206040518083038186803b158015610e5057600080fd5b505af4158015610e64573d6000803e3d6000fd5b505050506040513d6020811015610e7a57600080fd5b810190808051906020019092919050505001905080830151915050919050565b60008060a073__State_________________________________63c586f63b856040518263ffffffff167c01000000000000000000000000000000000000000000000000000000000281526004018080602001828103825283818151815260200191508051906020019080838360005b83811015610f25578082015181840152602081019050610f0a565b50505050905090810190601f168015610f525780820380516001836020036101000a031916815260200191505b509250505060206040518083038186803b158015610f6f57600080fd5b505af4158015610f83573d6000803e3d6000fd5b505050506040513d6020811015610f9957600080fd5b8101908080519060200190929190505050019050808301519150509190505600a165627a7a723058204d83507a62cf271bcd120c89eeec8a3c56ed44c780bb7d2eb1ba3f5ea7eace5c0029",
  "source": "pragma solidity ^0.4.18;\n\nimport \"fmg-core/contracts/State.sol\";\n\nlibrary RockPaperScissorsState {\n    enum PositionType { Start, RoundProposed, RoundAccepted, Reveal, Concluded }\n    enum Play { Rock, Paper, Scissors }\n\n    // RockPaperScissors State Fields\n    // (relative to gamestate offset)\n    // ==============================\n    // [  0 -  31] enum positionType\n    // [ 32 -  63] uint256 stake\n    // [ 64 -  95] bytes32 preCommit\n    // [ 96 - 127] enum bPlay\n    // [128 - 159] enum aPlay\n    // [160 - 191] bytes32 salt\n    // [192 - 223] uint256 roundNum\n\n    function positionType(bytes _state) public pure returns (PositionType _positionType) {\n        uint offset = State.gameStateOffset(_state);\n        assembly {\n            _positionType := mload(add(_state, offset))\n        }\n    }\n\n    function stake(bytes _state) public pure returns (uint256 _stake) {\n        uint offset = State.gameStateOffset(_state) + 32;\n        assembly {\n            _stake := mload(add(_state, offset))\n        }\n    }\n\n    function preCommit(bytes _state) public pure returns (bytes32 _preCommit) {\n        uint offset = State.gameStateOffset(_state) + 64;\n        assembly {\n            _preCommit := mload(add(_state, offset))\n        }\n    }\n\n    function bPlay(bytes _state) public pure returns (Play _aPlay) {\n        uint offset = State.gameStateOffset(_state) + 96;\n        assembly {\n            _aPlay := mload(add(_state, offset))\n        }\n    }\n\n    function aPlay(bytes _state) public pure returns (Play _bPlay) {\n        uint offset = State.gameStateOffset(_state) + 128;\n        assembly {\n            _bPlay := mload(add(_state, offset))\n        }\n    }\n\n    function salt(bytes _state) public pure returns (bytes32 _salt) {\n        uint offset = State.gameStateOffset(_state) + 160;\n        assembly {\n            _salt := mload(add(_state, offset))\n        }\n    }\n\n    function roundNum(bytes _state) public pure returns (uint256 _roundNum) {\n        uint offset = State.gameStateOffset(_state) + 192;\n        assembly {\n            _roundNum := mload(add(_state, offset))\n        }\n    }\n\n    // utility functions\n    function aResolution(bytes _state) public pure returns (uint256) {\n        return State.resolution(_state)[0];\n    }\n\n    function bResolution(bytes _state) public pure returns (uint256 _bBal) {\n        return State.resolution(_state)[1];\n    }\n}\n",
  "sourcePath": "/Users/alexgap/code/rps-poc/contracts/RockPaperScissorsState.sol",
  "compiler": {
    "name": "solc",
    "version": "0.4.24+commit.e67f0147.Emscripten.clang"
  },
  "schemaVersion": "3.0.0-beta.0",
  "updatedAt": "2018-10-17T17:54:10.711Z"
}