{
  "contractName": "RockPaperScissors",
  "abi": [
    {
      "constant": true,
      "inputs": [
        {
          "components": [
            {
              "internalType": "bytes",
              "name": "outcome",
              "type": "bytes"
            },
            {
              "internalType": "bytes",
              "name": "appData",
              "type": "bytes"
            }
          ],
          "internalType": "struct ForceMoveApp.VariablePart",
          "name": "fromPart",
          "type": "tuple"
        },
        {
          "components": [
            {
              "internalType": "bytes",
              "name": "outcome",
              "type": "bytes"
            },
            {
              "internalType": "bytes",
              "name": "appData",
              "type": "bytes"
            }
          ],
          "internalType": "struct ForceMoveApp.VariablePart",
          "name": "toPart",
          "type": "tuple"
        },
        {
          "internalType": "uint256",
          "name": "turnNumB",
          "type": "uint256"
        },
        {
          "internalType": "uint256",
          "name": "nParticipants",
          "type": "uint256"
        }
      ],
      "name": "validTransition",
      "outputs": [
        {
          "internalType": "bool",
          "name": "",
          "type": "bool"
        }
      ],
      "payable": false,
      "stateMutability": "pure",
      "type": "function"
    }
  ],
  "bytecode": "0x608060405234801561001057600080fd5b506125c8806100206000396000f3fe608060405234801561001057600080fd5b506004361061002b5760003560e01c806395127f9914610030575b600080fd5b61004a600480360361004591908101906116c3565b610060565b6040516100579190612056565b60405180910390f35b6000606061006d86610398565b9050606061007a86610398565b90506100868282610412565b61008e6110ff565b61009b88602001516104fa565b90506100a56110ff565b6100b288602001516104fa565b9050600060038111156100c157fe5b826000015160038111156100d157fe5b141561014f57600160038111156100e457fe5b816000015160038111156100f457fe5b14610134576040517f08c379a000000000000000000000000000000000000000000000000000000000815260040161012b906120b3565b60405180910390fd5b61014289898686868661051d565b6001945050505050610390565b6001600381111561015c57fe5b8260000151600381111561016c57fe5b1415610225576000600381111561017f57fe5b8160000151600381111561018f57fe5b14156101ae576101a1848484846106b1565b6001945050505050610390565b600260038111156101bb57fe5b816000015160038111156101cb57fe5b14156101ea576101dd848484846108d1565b6001945050505050610390565b6040517f08c379a000000000000000000000000000000000000000000000000000000000815260040161021c90612133565b60405180910390fd5b6002600381111561023257fe5b8260000151600381111561024257fe5b14156102bd5760038081111561025457fe5b8160000151600381111561026457fe5b146102a4576040517f08c379a000000000000000000000000000000000000000000000000000000000815260040161029b906121f3565b60405180910390fd5b6102b084848484610a7f565b6001945050505050610390565b6003808111156102c957fe5b826000015160038111156102d957fe5b141561035557600060038111156102ec57fe5b816000015160038111156102fc57fe5b1461033c576040517f08c379a000000000000000000000000000000000000000000000000000000000815260040161033390612293565b60405180910390fd5b61034884848484610cc1565b6001945050505050610390565b6040517f08c379a0000000000000000000000000000000000000000000000000000000008152600401610387906120f3565b60405180910390fd5b949350505050565b60608082600001518060200190516103b39190810190611618565b90506103bd61115c565b816000815181106103ca57fe5b6020026020010151602001518060200190516103e99190810190611659565b90506060816020015180602001905161040591908101906115d7565b9050809350505050919050565b8160008151811061041f57fe5b6020026020010151600001518160008151811061043857fe5b60200260200101516000015114610484576040517f08c379a000000000000000000000000000000000000000000000000000000000815260040161047b906120d3565b60405180910390fd5b8160018151811061049157fe5b602002602001015160000151816001815181106104aa57fe5b602002602001015160000151146104f6576040517f08c379a00000000000000000000000000000000000000000000000000000000081526004016104ed90612213565b60405180910390fd5b5050565b6105026110ff565b81806020019051610516919081019061169a565b9050919050565b85858160000151604051610531919061203f565b6040518091039020816000015160405161054b919061203f565b604051809103902014610593576040517f08c379a000000000000000000000000000000000000000000000000000000000815260040161058a90612173565b60405180910390fd5b838380602001518260200151146105df576040517f08c379a00000000000000000000000000000000000000000000000000000000081526004016105d690612273565b60405180910390fd5b878787878060200151846000815181106105f557fe5b6020026020010151602001511015610642576040517f08c379a000000000000000000000000000000000000000000000000000000000815260040161063990612193565b60405180910390fd5b80602001518460018151811061065457fe5b60200260200101516020015110156106a1576040517f08c379a000000000000000000000000000000000000000000000000000000000815260040161069890612093565b60405180910390fd5b5050505050505050505050505050565b8383816000815181106106c057fe5b602002602001015160000151816000815181106106d957fe5b60200260200101516000015114610725576040517f08c379a000000000000000000000000000000000000000000000000000000000815260040161071c906120d3565b60405180910390fd5b8160018151811061073257fe5b6020026020010151600001518160018151811061074b57fe5b60200260200101516000015114610797576040517f08c379a000000000000000000000000000000000000000000000000000000000815260040161078e90612213565b60405180910390fd5b816000815181106107a457fe5b602002602001015160200151816000815181106107bd57fe5b60200260200101516020015114610809576040517f08c379a000000000000000000000000000000000000000000000000000000000815260040161080090612153565b60405180910390fd5b8160018151811061081657fe5b6020026020010151602001518160018151811061082f57fe5b6020026020010151602001511461087b576040517f08c379a0000000000000000000000000000000000000000000000000000000008152600401610872906122d3565b60405180910390fd5b838380602001518260200151146108c7576040517f08c379a00000000000000000000000000000000000000000000000000000000081526004016108be90612273565b60405180910390fd5b5050505050505050565b8181806020015182602001511461091d576040517f08c379a000000000000000000000000000000000000000000000000000000000815260040161091490612273565b60405180910390fd5b8260400151846040015114610967576040517f08c379a000000000000000000000000000000000000000000000000000000000815260040161095e90612253565b60405180910390fd5b61099683602001518760008151811061097c57fe5b602002602001015160200151610ee190919063ffffffff16565b856000815181106109a357fe5b602002602001015160200151146109ef576040517f08c379a00000000000000000000000000000000000000000000000000000000081526004016109e690612313565b60405180910390fd5b610a1e836020015187600181518110610a0457fe5b602002602001015160200151610f2b90919063ffffffff16565b85600181518110610a2b57fe5b60200260200101516020015114610a77576040517f08c379a0000000000000000000000000000000000000000000000000000000008152600401610a6e906121b3565b60405180910390fd5b505050505050565b60008083608001516002811115610a9257fe5b83608001516002811115610aa257fe5b14610ae2576040517f08c379a0000000000000000000000000000000000000000000000000000000008152600401610ad9906122f3565b60405180910390fd5b600083606001516002811115610af457fe5b8460a00151604051602001610b0a929190612353565b60405160208183030381529060405280519060200120905084604001518114610b68576040517f08c379a0000000000000000000000000000000000000000000000000000000008152600401610b5f906122b3565b60405180910390fd5b610b7f846060015185608001518660200151610f80565b8093508194505050610bb28388600081518110610b9857fe5b602002602001015160200151610f2b90919063ffffffff16565b86600081518110610bbf57fe5b60200260200101516020015114610c0b576040517f08c379a0000000000000000000000000000000000000000000000000000000008152600401610c0290612333565b60405180910390fd5b610c5f82610c51610c2a6002896020015161103490919063ffffffff16565b8a600181518110610c3757fe5b602002602001015160200151610ee190919063ffffffff16565b610f2b90919063ffffffff16565b86600181518110610c6c57fe5b60200260200101516020015114610cb8576040517f08c379a0000000000000000000000000000000000000000000000000000000008152600401610caf906121d3565b60405180910390fd5b50505050505050565b838381600081518110610cd057fe5b60200260200101516000015181600081518110610ce957fe5b60200260200101516000015114610d35576040517f08c379a0000000000000000000000000000000000000000000000000000000008152600401610d2c906120d3565b60405180910390fd5b81600181518110610d4257fe5b60200260200101516000015181600181518110610d5b57fe5b60200260200101516000015114610da7576040517f08c379a0000000000000000000000000000000000000000000000000000000008152600401610d9e90612213565b60405180910390fd5b81600081518110610db457fe5b60200260200101516020015181600081518110610dcd57fe5b60200260200101516020015114610e19576040517f08c379a0000000000000000000000000000000000000000000000000000000008152600401610e1090612153565b60405180910390fd5b81600181518110610e2657fe5b60200260200101516020015181600181518110610e3f57fe5b60200260200101516020015114610e8b576040517f08c379a0000000000000000000000000000000000000000000000000000000008152600401610e82906122d3565b60405180910390fd5b83838060200151826020015114610ed7576040517f08c379a0000000000000000000000000000000000000000000000000000000008152600401610ece90612273565b60405180910390fd5b5050505050505050565b6000610f2383836040518060400160405280601e81526020017f536166654d6174683a207375627472616374696f6e206f766572666c6f7700008152506110a4565b905092915050565b600080828401905083811015610f76576040517f08c379a0000000000000000000000000000000000000000000000000000000008152600401610f6d90612113565b60405180910390fd5b8091505092915050565b600080836002811115610f8f57fe5b856002811115610f9b57fe5b1415610fac5782839150915061102c565b60006002811115610fb957fe5b856002811115610fc557fe5b148015610fe75750600280811115610fd957fe5b846002811115610fe557fe5b145b806110075750836002811115610ff957fe5b85600281111561100557fe5b115b1561101e578260020260008090509150915061102c565b600083600202819150915091505b935093915050565b600080831415611047576000905061109e565b600082840290508284828161105857fe5b0414611099576040517f08c379a000000000000000000000000000000000000000000000000000000000815260040161109090612233565b60405180910390fd5b809150505b92915050565b60008383111582906110ec576040517f08c379a00000000000000000000000000000000000000000000000000000000081526004016110e39190612071565b60405180910390fd5b5060008385039050809150509392505050565b6040518060c001604052806000600381111561111757fe5b815260200160008152602001600080191681526020016000600281111561113a57fe5b81526020016000600281111561114c57fe5b8152602001600080191681525090565b6040518060400160405280600060ff168152602001606081525090565b60008151905061118881612509565b92915050565b600082601f83011261119f57600080fd5b81516111b26111ad826123a9565b61237c565b915081818352602084019350602081019050838560408402820111156111d757600080fd5b60005b8381101561120757816111ed888261136c565b8452602084019350604083019250506001810190506111da565b5050505092915050565b600082601f83011261122257600080fd5b8151611235611230826123d1565b61237c565b9150818183526020840193506020810190508360005b8381101561127b5781518601611261888261141c565b84526020840193506020830192505060018101905061124b565b5050505092915050565b60008151905061129481612520565b92915050565b600082601f8301126112ab57600080fd5b81356112be6112b9826123f9565b61237c565b915080825260208301602083018583830111156112da57600080fd5b6112e58382846124b6565b50505092915050565b600082601f8301126112ff57600080fd5b815161131261130d826123f9565b61237c565b9150808252602083016020830185838301111561132e57600080fd5b6113398382846124c5565b50505092915050565b60008151905061135181612537565b92915050565b60008151905061136681612547565b92915050565b60006040828403121561137e57600080fd5b611388604061237c565b9050600061139884828501611285565b60008301525060206113ac848285016115ad565b60208301525092915050565b6000604082840312156113ca57600080fd5b6113d4604061237c565b905060006113e4848285016115c2565b600083015250602082015167ffffffffffffffff81111561140457600080fd5b611410848285016112ee565b60208301525092915050565b60006040828403121561142e57600080fd5b611438604061237c565b9050600061144884828501611179565b600083015250602082015167ffffffffffffffff81111561146857600080fd5b611474848285016112ee565b60208301525092915050565b600060c0828403121561149257600080fd5b61149c60c061237c565b905060006114ac84828501611342565b60008301525060206114c0848285016115ad565b60208301525060406114d484828501611285565b60408301525060606114e884828501611357565b60608301525060806114fc84828501611357565b60808301525060a061151084828501611285565b60a08301525092915050565b60006040828403121561152e57600080fd5b611538604061237c565b9050600082013567ffffffffffffffff81111561155457600080fd5b6115608482850161129a565b600083015250602082013567ffffffffffffffff81111561158057600080fd5b61158c8482850161129a565b60208301525092915050565b6000813590506115a781612557565b92915050565b6000815190506115bc81612557565b92915050565b6000815190506115d18161256e565b92915050565b6000602082840312156115e957600080fd5b600082015167ffffffffffffffff81111561160357600080fd5b61160f8482850161118e565b91505092915050565b60006020828403121561162a57600080fd5b600082015167ffffffffffffffff81111561164457600080fd5b61165084828501611211565b91505092915050565b60006020828403121561166b57600080fd5b600082015167ffffffffffffffff81111561168557600080fd5b611691848285016113b8565b91505092915050565b600060c082840312156116ac57600080fd5b60006116ba84828501611480565b91505092915050565b600080600080608085870312156116d957600080fd5b600085013567ffffffffffffffff8111156116f357600080fd5b6116ff8782880161151c565b945050602085013567ffffffffffffffff81111561171c57600080fd5b6117288782880161151c565b935050604061173987828801611598565b925050606061174a87828801611598565b91505092959194509250565b61175f81612469565b82525050565b61176e81612475565b82525050565b600061177f82612425565b611789818561243b565b93506117998185602086016124c5565b80840191505092915050565b60006117b082612430565b6117ba8185612446565b93506117ca8185602086016124c5565b6117d3816124f8565b840191505092915050565b60006117eb603a83612446565b91507f54686520616c6c6f636174696f6e20666f7220706c617965722042206d75737460008301527f206e6f742066616c6c2062656c6f7720746865207374616b652e0000000000006020830152604082019050919050565b6000611851602a83612446565b91507f5374617274206d6179206f6e6c79207472616e736974696f6e20746f20526f7560008301527f6e6450726f706f736564000000000000000000000000000000000000000000006020830152604082019050919050565b60006118b7603583612446565b91507f526f636b506170657253636973736f72733a2044657374696d6174696f6e207060008301527f6c6179657241206d6179206e6f74206368616e676500000000000000000000006020830152604082019050919050565b600061191d601983612446565b91507f4e6f2076616c6964207472616e736974696f6e20666f756e64000000000000006000830152602082019050919050565b600061195d601b83612446565b91507f536166654d6174683a206164646974696f6e206f766572666c6f7700000000006000830152602082019050919050565b600061199d603683612446565b91507f50726f706f736564206d6179206f6e6c79207472616e736974696f6e20746f2060008301527f5374617274206f7220526f756e644163636570746564000000000000000000006020830152604082019050919050565b6000611a03603083612446565b91507f526f636b506170657253636973736f72733a20416d6f756e7420706c6179657260008301527f41206d6179206e6f74206368616e6765000000000000000000000000000000006020830152604082019050919050565b6000611a69602a83612446565b91507f526f636b506170657253636973736f72733a204f7574636f6d65206d7573742060008301527f6e6f74206368616e6765000000000000000000000000000000000000000000006020830152604082019050919050565b6000611acf603a83612446565b91507f54686520616c6c6f636174696f6e20666f7220706c617965722041206d75737460008301527f206e6f742066616c6c2062656c6f7720746865207374616b652e0000000000006020830152604082019050919050565b6000611b35603a83612446565b91507f416c6c6f636174696f6e20666f7220706c6179657220422073686f756c64206260008301527f6520696e6372656d656e746564206279203178207374616b652e0000000000006020830152604082019050919050565b6000611b9b603a83612446565b91507f506c617965722042277320616c6c6f636174696f6e2073686f756c642062652060008301527f757064617465642077697468207468652077696e6e696e67732e0000000000006020830152604082019050919050565b6000611c01602b83612446565b91507f526f756e644163636570746564206d6179206f6e6c79207472616e736974696f60008301527f6e20746f2052657665616c0000000000000000000000000000000000000000006020830152604082019050919050565b6000611c67603583612446565b91507f526f636b506170657253636973736f72733a2044657374696d6174696f6e207060008301527f6c6179657242206d6179206e6f74206368616e676500000000000000000000006020830152604082019050919050565b6000611ccd602183612446565b91507f536166654d6174683a206d756c7469706c69636174696f6e206f766572666c6f60008301527f77000000000000000000000000000000000000000000000000000000000000006020830152604082019050919050565b6000611d33601d83612446565b91507f507265636f6d6d69742073686f756c64206265207468652073616d652e0000006000830152602082019050919050565b6000611d73603083612446565b91507f546865207374616b652073686f756c64206265207468652073616d652062657460008301527f7765656e20636f6d6d69746d656e7473000000000000000000000000000000006020830152604082019050919050565b6000611dd9602383612446565b91507f52657665616c206d6179206f6e6c79207472616e736974696f6e20746f20537460008301527f61727400000000000000000000000000000000000000000000000000000000006020830152604082019050919050565b6000611e3f602583612446565b91507f5468652068617368206e6565647320746f206d6174636820746865207072656360008301527f6f6d6d69740000000000000000000000000000000000000000000000000000006020830152604082019050919050565b6000611ea5603083612446565b91507f526f636b506170657253636973736f72733a20416d6f756e7420706c6179657260008301527f42206d6179206e6f74206368616e6765000000000000000000000000000000006020830152604082019050919050565b6000611f0b603e83612446565b91507f506c61796572205365636f6e64277320776561706f6e2073686f756c6420626560008301527f207468652073616d65206265747765656e20636f6d6d69746d656e74732e00006020830152604082019050919050565b6000611f71603983612446565b91507f416c6c6f636174696f6e20666f7220706c6179657220412073686f756c64206260008301527f652064656372656d656e746564206279203178207374616b65000000000000006020830152604082019050919050565b6000611fd7603a83612446565b91507f506c617965722041277320616c6c6f636174696f6e2073686f756c642062652060008301527f757064617465642077697468207468652077696e6e696e67732e0000000000006020830152604082019050919050565b6120398161249f565b82525050565b600061204b8284611774565b915081905092915050565b600060208201905061206b6000830184611756565b92915050565b6000602082019050818103600083015261208b81846117a5565b905092915050565b600060208201905081810360008301526120ac816117de565b9050919050565b600060208201905081810360008301526120cc81611844565b9050919050565b600060208201905081810360008301526120ec816118aa565b9050919050565b6000602082019050818103600083015261210c81611910565b9050919050565b6000602082019050818103600083015261212c81611950565b9050919050565b6000602082019050818103600083015261214c81611990565b9050919050565b6000602082019050818103600083015261216c816119f6565b9050919050565b6000602082019050818103600083015261218c81611a5c565b9050919050565b600060208201905081810360008301526121ac81611ac2565b9050919050565b600060208201905081810360008301526121cc81611b28565b9050919050565b600060208201905081810360008301526121ec81611b8e565b9050919050565b6000602082019050818103600083015261220c81611bf4565b9050919050565b6000602082019050818103600083015261222c81611c5a565b9050919050565b6000602082019050818103600083015261224c81611cc0565b9050919050565b6000602082019050818103600083015261226c81611d26565b9050919050565b6000602082019050818103600083015261228c81611d66565b9050919050565b600060208201905081810360008301526122ac81611dcc565b9050919050565b600060208201905081810360008301526122cc81611e32565b9050919050565b600060208201905081810360008301526122ec81611e98565b9050919050565b6000602082019050818103600083015261230c81611efe565b9050919050565b6000602082019050818103600083015261232c81611f64565b9050919050565b6000602082019050818103600083015261234c81611fca565b9050919050565b60006040820190506123686000830185612030565b6123756020830184611765565b9392505050565b6000604051905081810181811067ffffffffffffffff8211171561239f57600080fd5b8060405250919050565b600067ffffffffffffffff8211156123c057600080fd5b602082029050602081019050919050565b600067ffffffffffffffff8211156123e857600080fd5b602082029050602081019050919050565b600067ffffffffffffffff82111561241057600080fd5b601f19601f8301169050602081019050919050565b600081519050919050565b600081519050919050565b600081905092915050565b600082825260208201905092915050565b60006124628261247f565b9050919050565b60008115159050919050565b6000819050919050565b600073ffffffffffffffffffffffffffffffffffffffff82169050919050565b6000819050919050565b600060ff82169050919050565b82818337600083830152505050565b60005b838110156124e35780820151818401526020810190506124c8565b838111156124f2576000848401525b50505050565b6000601f19601f8301169050919050565b61251281612457565b811461251d57600080fd5b50565b61252981612475565b811461253457600080fd5b50565b6004811061254457600080fd5b50565b6003811061255457600080fd5b50565b6125608161249f565b811461256b57600080fd5b50565b612577816124a9565b811461258257600080fd5b5056fea365627a7a723158208986e7f0f74406e192803df88826ea7230abe1983321db257ae28d9e230975e16c6578706572696d656e74616cf564736f6c634300050b0040",
  "source": "pragma solidity ^0.5.11;\npragma experimental ABIEncoderV2;\n\nimport '@statechannels/nitro-protocol/contracts/interfaces/ForceMoveApp.sol';\nimport '@statechannels/nitro-protocol/contracts/Outcome.sol';\nimport 'openzeppelin-solidity/contracts/math/SafeMath.sol';\n\n/**\n  * @dev The RockPaperScissors contract complies with the ForceMoveApp interface and implements a commit-reveal game of Rock Paper Scissors (henceforth RPS).\n  * The following transitions are allowed:\n  *\n  * Start -> RoundProposed  [ PROPOSE ]\n  * RoundProposed -> Start  [ REJECT ]\n  * RoundProposed -> RoundAccepted [ ACCEPT ]\n  * RoundAccepted -> Reveal [ REVEAL ]\n  * Reveal -> Start [ FINISH ]\n  *\n*/\ncontract RockPaperScissors is ForceMoveApp {\n    using SafeMath for uint256;\n\n    enum PositionType {Start, RoundProposed, RoundAccepted, Reveal}\n    enum Weapon {Rock, Paper, Scissors}\n\n    struct RPSData {\n        PositionType positionType;\n        uint256 stake;\n        bytes32 preCommit;\n        Weapon aWeapon; // playerOneWeapon\n        Weapon bWeapon; // playerTwoWeapon\n        bytes32 salt;\n    }\n\n    /**\n    * @notice Decodes the appData.\n    * @dev Decodes the appData.\n    * @param appDataBytes The abi.encode of a RPSData struct describing the application-specific data.\n    * @return An RPSData struct containing the application-specific data.\n    */\n    function appData(bytes memory appDataBytes) internal pure returns (RPSData memory) {\n        return abi.decode(appDataBytes, (RPSData));\n    }\n\n    /**\n    * @notice Encodes the RPS update rules.\n    * @dev Encodes the RPS update rules.\n    * @param fromPart State being transitioned from.\n    * @param toPart State being transitioned to.\n    * @param turnNumB Turn number being transitioned to.\n    * @param nParticipants Number of participants in this state channel.\n    * @return true if the transition conforms to the rules, false otherwise.\n    */\n    function validTransition(\n        VariablePart memory fromPart,\n        VariablePart memory toPart,\n        uint256 turnNumB,\n        uint256 nParticipants\n    ) public pure returns (bool) {\n        Outcome.AllocationItem[] memory fromAllocation = extractAllocation(fromPart);\n        Outcome.AllocationItem[] memory toAllocation = extractAllocation(toPart);\n        _requireDestinationsUnchanged(fromAllocation, toAllocation);\n        // decode application-specific data\n        RPSData memory fromGameData = appData(fromPart.appData);\n        RPSData memory toGameData = appData(toPart.appData);\n\n\n        // deduce action\n        if (fromGameData.positionType == PositionType.Start) {\n            require(\n                toGameData.positionType == PositionType.RoundProposed,\n                'Start may only transition to RoundProposed'\n            );\n            requireValidPROPOSE(fromPart, toPart, fromAllocation, toAllocation, fromGameData, toGameData);\n            return true;\n        } else if (fromGameData.positionType == PositionType.RoundProposed) {\n            if (toGameData.positionType == PositionType.Start) {\n                requireValidREJECT(fromAllocation, toAllocation, fromGameData, toGameData);\n                return true;\n            } else if (toGameData.positionType == PositionType.RoundAccepted) {\n                requireValidACCEPT(fromAllocation, toAllocation, fromGameData, toGameData);\n                return true;\n            }\n            revert('Proposed may only transition to Start or RoundAccepted');\n        } else if (fromGameData.positionType == PositionType.RoundAccepted) {\n            require(\n                toGameData.positionType == PositionType.Reveal,\n                'RoundAccepted may only transition to Reveal'\n            );\n            requireValidREVEAL(fromAllocation, toAllocation, fromGameData, toGameData);\n            return true;\n        } else if (fromGameData.positionType == PositionType.Reveal) {\n            require(\n                toGameData.positionType == PositionType.Start,\n                'Reveal may only transition to Start'\n            );\n            requireValidFINISH(fromAllocation, toAllocation, fromGameData, toGameData);\n            return true;\n        }\n        revert('No valid transition found');\n    }\n\n    // action requirements\n\n    function requireValidPROPOSE(\n        VariablePart memory fromPart,\n        VariablePart memory toPart,\n        Outcome.AllocationItem[] memory fromAllocation,\n        Outcome.AllocationItem[] memory toAllocation,\n        RPSData memory fromGameData,\n        RPSData memory toGameData\n    )\n        private\n        pure\n        outcomeUnchanged(fromPart, toPart)\n        stakeUnchanged(fromGameData, toGameData)\n        allocationsNotLessThanStake(fromAllocation, toAllocation, fromGameData, toGameData)\n    {}\n\n    function requireValidREJECT(\n        Outcome.AllocationItem[] memory fromAllocation,\n        Outcome.AllocationItem[] memory toAllocation,\n        RPSData memory fromGameData,\n        RPSData memory toGameData\n    ) private pure \n    allocationUnchanged(fromAllocation, toAllocation)\n    stakeUnchanged(fromGameData, toGameData)\n    { }\n\n    function requireValidACCEPT(\n        Outcome.AllocationItem[] memory fromAllocation,\n        Outcome.AllocationItem[] memory toAllocation,\n        RPSData memory fromGameData,\n        RPSData memory toGameData\n    ) private pure \n    stakeUnchanged(fromGameData, toGameData)\n    {\n\n        require(fromGameData.preCommit == toGameData.preCommit,\"Precommit should be the same.\");\n        \n        // a will have to reveal, so remove the stake beforehand\n        require(toAllocation[0].amount == fromAllocation[0].amount.sub(toGameData.stake), \"Allocation for player A should be decremented by 1x stake\");\n        require(toAllocation[1].amount == fromAllocation[1].amount.add(toGameData.stake), \"Allocation for player B should be incremented by 1x stake.\");\n\n    }\n\n    function requireValidREVEAL(\n        Outcome.AllocationItem[] memory fromAllocation,\n        Outcome.AllocationItem[] memory toAllocation,\n        RPSData memory fromGameData,\n        RPSData memory toGameData\n    ) private pure {\n        uint256 playerAWinnings; // playerOneWinnings\n        uint256 playerBWinnings; // playerTwoWinnings\n        require(\n            toGameData.bWeapon == fromGameData.bWeapon,\n            \"Player Second's weapon should be the same between commitments.\"\n        );\n\n        // check hash matches\n        // need to convert Weapon -> uint256 to get hash to work\n        bytes32 hashed = keccak256(\n            abi.encode(uint256(toGameData.aWeapon), toGameData.salt)\n        );\n        require(hashed == fromGameData.preCommit, 'The hash needs to match the precommit');\n\n        // calculate winnings\n        (playerAWinnings, playerBWinnings) = winnings(\n            toGameData.aWeapon,\n            toGameData.bWeapon,\n            toGameData.stake\n        );\n\n        require(\n            toAllocation[0].amount == fromAllocation[0].amount.add(playerAWinnings),\n            \"Player A's allocation should be updated with the winnings.\"\n        );\n        require(\n            toAllocation[1].amount ==\n                fromAllocation[1].amount.sub(fromGameData.stake.mul(2)).add(playerBWinnings),\n            \"Player B's allocation should be updated with the winnings.\"\n        );\n    }\n\n    function requireValidFINISH(\n        Outcome.AllocationItem[] memory fromAllocation,\n        Outcome.AllocationItem[] memory toAllocation,\n        RPSData memory fromGameData,\n        RPSData memory toGameData\n    ) private pure\n    allocationUnchanged(fromAllocation, toAllocation)\n    stakeUnchanged(fromGameData, toGameData)\n    {  }\n\n    function extractAllocation(VariablePart memory variablePart) private pure returns (Outcome.AllocationItem[] memory) {\n        Outcome.OutcomeItem[] memory outcome = abi.decode(variablePart.outcome, (Outcome.OutcomeItem[]));\n\n        Outcome.AssetOutcome memory assetOutcome = abi.decode(\n            outcome[0].assetOutcomeBytes,\n            (Outcome.AssetOutcome)\n        );\n\n        Outcome.AllocationItem[] memory allocation = abi.decode(\n            assetOutcome.allocationOrGuaranteeBytes,\n            (Outcome.AllocationItem[])\n        );\n\n        return allocation;\n    }\n\n    function winnings(\n        Weapon aWeapon,\n        Weapon bWeapon,\n        uint256 stake\n    ) private pure returns (uint256, uint256) {\n        if (aWeapon == bWeapon) {\n            return (stake, stake);\n        } else if (\n            (aWeapon == Weapon.Rock && bWeapon == Weapon.Scissors) ||\n            (aWeapon > bWeapon)\n        ) {\n            // first player won\n            return (2 * stake, 0);\n        } else {\n            // second player won\n            return (0, 2 * stake);\n        }\n    }\n\n    function _requireDestinationsUnchanged (\n        Outcome.AllocationItem[] memory fromAllocation,\n        Outcome.AllocationItem[] memory toAllocation\n    ) private pure {\n        require(toAllocation[0].destination == fromAllocation[0].destination,'RockPaperScissors: Destimation playerA may not change');\n        require(toAllocation[1].destination == fromAllocation[1].destination,'RockPaperScissors: Destimation playerB may not change');\n    }\n\n    // modifiers\n    modifier outcomeUnchanged(VariablePart memory a, VariablePart memory b) {\n        require(\n            keccak256(b.outcome) == keccak256(a.outcome),\n            'RockPaperScissors: Outcome must not change'\n        );\n        _;\n    }\n\n    modifier stakeUnchanged(RPSData memory fromGameData, RPSData memory toGameData) {\n        require(\n            fromGameData.stake == toGameData.stake,\n            'The stake should be the same between commitments'\n        );\n        _;\n    }\n\n    modifier allocationsNotLessThanStake(\n        Outcome.AllocationItem[] memory fromAllocation,\n        Outcome.AllocationItem[] memory toAllocation,\n        RPSData memory fromGameData,\n        RPSData memory toGameData\n    ) {\n        require(fromAllocation[0].amount >= toGameData.stake,\"The allocation for player A must not fall below the stake.\");\n        require(fromAllocation[1].amount >= toGameData.stake ,\"The allocation for player B must not fall below the stake.\");\n        _;\n    }\n\n    modifier allocationUnchanged(\n        Outcome.AllocationItem[] memory fromAllocation,\n        Outcome.AllocationItem[] memory toAllocation\n    ) {\n        require(toAllocation[0].destination == fromAllocation[0].destination,'RockPaperScissors: Destimation playerA may not change');\n        require(toAllocation[1].destination == fromAllocation[1].destination,'RockPaperScissors: Destimation playerB may not change');\n        require(toAllocation[0].amount == fromAllocation[0].amount,'RockPaperScissors: Amount playerA may not change');\n        require(toAllocation[1].amount == fromAllocation[1].amount,'RockPaperScissors: Amount playerB may not change');\n        _;\n    }\n\n    // TODO modifiers below here are currently unused and possibly belong in a Library\n\n    modifier oneAssetType(\n        VariablePart memory a,\n        VariablePart memory b\n    ) {\n        Outcome.OutcomeItem[] memory outcomeA = abi.decode(a.outcome, (Outcome.OutcomeItem[]));\n        Outcome.OutcomeItem[] memory outcomeB = abi.decode(b.outcome, (Outcome.OutcomeItem[]));\n\n        // Throws if more than one asset\n        require(outcomeA.length == 1, 'RockPaperScissors: outcomeA: Only one asset allowed');\n        require(outcomeB.length == 1, 'RockPaperScissors: outcomeB: Only one asset allowed');\n        _;\n    }\n\n    modifier assetOutcomeIsAllocation(\n        VariablePart memory a,\n        VariablePart memory b\n    ) {\n        Outcome.OutcomeItem[] memory outcomeA = abi.decode(a.outcome, (Outcome.OutcomeItem[]));\n        Outcome.OutcomeItem[] memory outcomeB = abi.decode(b.outcome, (Outcome.OutcomeItem[]));\n\n        // Throws unless the assetOutcome is an allocation\n        Outcome.AssetOutcome memory assetOutcomeA = abi.decode(outcomeA[0].assetOutcomeBytes, (Outcome.AssetOutcome));\n        Outcome.AssetOutcome memory assetOutcomeB = abi.decode(outcomeB[0].assetOutcomeBytes, (Outcome.AssetOutcome));\n        require(assetOutcomeA.assetOutcomeType == uint8(Outcome.AssetOutcomeType.Allocation),'RockPaperScissors: outcomeA: AssetOutcomeType must be Allocation');\n        require(assetOutcomeB.assetOutcomeType == uint8(Outcome.AssetOutcomeType.Allocation),'RockPaperScissors: outcomeB: AssetOutcomeType must be Allocation');\n        _;\n    }\n\n    modifier allocationLengthIsCorrect(\n        VariablePart memory a,\n        VariablePart memory b,\n        uint256 nParticipants\n    ) {\n        Outcome.OutcomeItem[] memory outcomeA = abi.decode(a.outcome, (Outcome.OutcomeItem[]));\n        Outcome.OutcomeItem[] memory outcomeB = abi.decode(b.outcome, (Outcome.OutcomeItem[]));\n        Outcome.AssetOutcome memory assetOutcomeA = abi.decode(outcomeA[0].assetOutcomeBytes, (Outcome.AssetOutcome));\n        Outcome.AssetOutcome memory assetOutcomeB = abi.decode(outcomeB[0].assetOutcomeBytes, (Outcome.AssetOutcome));\n\n        // Throws unless that allocation has exactly n outcomes\n        Outcome.AllocationItem[] memory allocationA = abi.decode(\n            assetOutcomeA.allocationOrGuaranteeBytes,\n            (Outcome.AllocationItem[])\n        );\n        Outcome.AllocationItem[] memory allocationB = abi.decode(\n            assetOutcomeB.allocationOrGuaranteeBytes,\n            (Outcome.AllocationItem[])\n        );\n        require(allocationA.length == nParticipants,'RockPaperScissors: outcomeA: Allocation length must equal number of participants');\n        require(allocationB.length == nParticipants,'RockPaperScissors: outcomeB: Allocation length must equal number of participants');\n        _;\n    }\n}\n",
  "sourcePath": "/Users/georgeknee/statechannels/monorepo/packages/rps/contracts/RockPaperScissors.sol",
  "compiler": {
    "name": "solc",
    "version": "0.5.11+commit.c082d0b4.Emscripten.clang",
    "optimizer": false,
    "runs": 200
  },
  "schemaVersion": "2.2.4",
  "updatedAt": "2019-11-13T11:51:12.513Z"
}