{
  "contractName": "SimpleAdjudicator",
  "abi": [
    {
      "constant": true,
      "inputs": [],
      "name": "fundedChannelId",
      "outputs": [
        {
          "name": "",
          "type": "bytes32"
        }
      ],
      "payable": false,
      "stateMutability": "view",
      "type": "function"
    },
    {
      "inputs": [
        {
          "name": "_fundedChannelId",
          "type": "bytes32"
        }
      ],
      "payable": true,
      "stateMutability": "payable",
      "type": "constructor"
    },
    {
      "payable": true,
      "stateMutability": "payable",
      "type": "fallback"
    },
    {
      "anonymous": false,
      "inputs": [
        {
          "indexed": false,
          "name": "amountReceived",
          "type": "uint256"
        },
        {
          "indexed": false,
          "name": "sender",
          "type": "address"
        },
        {
          "indexed": false,
          "name": "adjudicatorBalance",
          "type": "uint256"
        }
      ],
      "name": "FundsReceived",
      "type": "event"
    },
    {
      "anonymous": false,
      "inputs": [
        {
          "indexed": false,
          "name": "refutation",
          "type": "bytes"
        }
      ],
      "name": "Refuted",
      "type": "event"
    },
    {
      "anonymous": false,
      "inputs": [
        {
          "indexed": false,
          "name": "response",
          "type": "bytes"
        }
      ],
      "name": "RespondedWithMove",
      "type": "event"
    },
    {
      "anonymous": false,
      "inputs": [
        {
          "indexed": false,
          "name": "alternativeResponse",
          "type": "bytes"
        }
      ],
      "name": "RespondedWithAlternativeMove",
      "type": "event"
    },
    {
      "anonymous": false,
      "inputs": [
        {
          "indexed": false,
          "name": "channelId",
          "type": "bytes32"
        },
        {
          "indexed": false,
          "name": "state",
          "type": "bytes"
        },
        {
          "indexed": false,
          "name": "expirationTime",
          "type": "uint32"
        },
        {
          "indexed": false,
          "name": "payouts",
          "type": "uint256[]"
        }
      ],
      "name": "ChallengeCreated",
      "type": "event"
    },
    {
      "constant": false,
      "inputs": [
        {
          "name": "_yourState",
          "type": "bytes"
        },
        {
          "name": "_myState",
          "type": "bytes"
        },
        {
          "name": "_v",
          "type": "uint8[]"
        },
        {
          "name": "_r",
          "type": "bytes32[]"
        },
        {
          "name": "_s",
          "type": "bytes32[]"
        }
      ],
      "name": "forceMove",
      "outputs": [],
      "payable": false,
      "stateMutability": "nonpayable",
      "type": "function"
    },
    {
      "constant": false,
      "inputs": [
        {
          "name": "_yourState",
          "type": "bytes"
        },
        {
          "name": "_myState",
          "type": "bytes"
        },
        {
          "name": "_v",
          "type": "uint8[]"
        },
        {
          "name": "_r",
          "type": "bytes32[]"
        },
        {
          "name": "_s",
          "type": "bytes32[]"
        }
      ],
      "name": "conclude",
      "outputs": [],
      "payable": false,
      "stateMutability": "nonpayable",
      "type": "function"
    },
    {
      "constant": false,
      "inputs": [
        {
          "name": "_refutationState",
          "type": "bytes"
        },
        {
          "name": "v",
          "type": "uint8"
        },
        {
          "name": "r",
          "type": "bytes32"
        },
        {
          "name": "s",
          "type": "bytes32"
        }
      ],
      "name": "refute",
      "outputs": [],
      "payable": false,
      "stateMutability": "nonpayable",
      "type": "function"
    },
    {
      "constant": false,
      "inputs": [
        {
          "name": "_nextState",
          "type": "bytes"
        },
        {
          "name": "v",
          "type": "uint8"
        },
        {
          "name": "r",
          "type": "bytes32"
        },
        {
          "name": "s",
          "type": "bytes32"
        }
      ],
      "name": "respondWithMove",
      "outputs": [],
      "payable": false,
      "stateMutability": "nonpayable",
      "type": "function"
    },
    {
      "constant": false,
      "inputs": [
        {
          "name": "_alternativeState",
          "type": "bytes"
        },
        {
          "name": "_nextState",
          "type": "bytes"
        },
        {
          "name": "_v",
          "type": "uint8[]"
        },
        {
          "name": "_r",
          "type": "bytes32[]"
        },
        {
          "name": "_s",
          "type": "bytes32[]"
        }
      ],
      "name": "alternativeRespondWithMove",
      "outputs": [],
      "payable": false,
      "stateMutability": "nonpayable",
      "type": "function"
    },
    {
      "constant": false,
      "inputs": [
        {
          "name": "participant",
          "type": "address"
        }
      ],
      "name": "withdraw",
      "outputs": [],
      "payable": false,
      "stateMutability": "nonpayable",
      "type": "function"
    },
    {
      "constant": true,
      "inputs": [
        {
          "name": "_fromState",
          "type": "bytes"
        },
        {
          "name": "_toState",
          "type": "bytes"
        }
      ],
      "name": "validTransition",
      "outputs": [
        {
          "name": "",
          "type": "bool"
        }
      ],
      "payable": false,
      "stateMutability": "pure",
      "type": "function"
    },
    {
      "constant": true,
      "inputs": [],
      "name": "currentChallengePresent",
      "outputs": [
        {
          "name": "",
          "type": "bool"
        }
      ],
      "payable": false,
      "stateMutability": "view",
      "type": "function"
    },
    {
      "constant": true,
      "inputs": [],
      "name": "activeChallengePresent",
      "outputs": [
        {
          "name": "",
          "type": "bool"
        }
      ],
      "payable": false,
      "stateMutability": "view",
      "type": "function"
    },
    {
      "constant": true,
      "inputs": [],
      "name": "expiredChallengePresent",
      "outputs": [
        {
          "name": "",
          "type": "bool"
        }
      ],
      "payable": false,
      "stateMutability": "view",
      "type": "function"
    }
  ],
  "bytecode": "0x6080604052620151806005556040516020806122338339810180604052810190808051906020019092919050505080600081600019169055507ffb932f39cc5ea177af75a4f1502d59d13404be49a2edb139943b43e4fb3fe45b34333073ffffffffffffffffffffffffffffffffffffffff1631604051808481526020018373ffffffffffffffffffffffffffffffffffffffff1673ffffffffffffffffffffffffffffffffffffffff168152602001828152602001935050505060405180910390a150612161806100d26000396000f3006080604052600436106100af576000357c0100000000000000000000000000000000000000000000000000000000900463ffffffff16806302fd67081461013b578063234cae0e1461016a5780634350a91c1461019d57806351cff8d9146101cc5780639207bf961461020f578063a0d44a41146102d6578063b9b19cb214610305578063c830c29e146103a0578063d0d2df6914610404578063d626a7fe1461049f578063f20e10fd1461053a575b7ffb932f39cc5ea177af75a4f1502d59d13404be49a2edb139943b43e4fb3fe45b34333073ffffffffffffffffffffffffffffffffffffffff1631604051808481526020018373ffffffffffffffffffffffffffffffffffffffff1673ffffffffffffffffffffffffffffffffffffffff168152602001828152602001935050505060405180910390a1005b34801561014757600080fd5b5061015061059e565b604051808215151515815260200191505060405180910390f35b34801561017657600080fd5b5061017f6105be565b60405180826000191660001916815260200191505060405180910390f35b3480156101a957600080fd5b506101b26105c4565b604051808215151515815260200191505060405180910390f35b3480156101d857600080fd5b5061020d600480360381019080803573ffffffffffffffffffffffffffffffffffffffff1690602001909291905050506105e9565b005b34801561021b57600080fd5b506102bc600480360381019080803590602001908201803590602001908080601f0160208091040260200160405190810160405280939291908181526020018383808284378201915050505050509192919290803590602001908201803590602001908080601f0160208091040260200160405190810160405280939291908181526020018383808284378201915050505050509192919290505050610760565b604051808215151515815260200191505060405180910390f35b3480156102e257600080fd5b506102eb6108e2565b604051808215151515815260200191505060405180910390f35b34801561031157600080fd5b5061039e600480360381019080803590602001908201803590602001919091929391929390803590602001908201803590602001919091929391929390803590602001908201803590602001919091929391929390803590602001908201803590602001919091929391929390803590602001908201803590602001919091929391929390505050610907565b005b3480156103ac57600080fd5b50610402600480360381019080803590602001908201803590602001919091929391929390803560ff16906020019092919080356000191690602001909291908035600019169060200190929190505050610d23565b005b34801561041057600080fd5b5061049d600480360381019080803590602001908201803590602001919091929391929390803590602001908201803590602001919091929391929390803590602001908201803590602001919091929391929390803590602001908201803590602001919091929391929390803590602001908201803590602001919091929391929390505050610f1c565b005b3480156104ab57600080fd5b50610538600480360381019080803590602001908201803590602001919091929391929390803590602001908201803590602001919091929391929390803590602001908201803590602001919091929391929390803590602001908201803590602001919091929391929390803590602001908201803590602001919091929391929390505050611334565b005b34801561054657600080fd5b5061059c600480360381019080803590602001908201803590602001919091929391929390803560ff1690602001909291908035600019169060200190929190803560001916906020019092919050505061169f565b005b60006105a86105c4565b80156105b957506105b76108e2565b155b905090565b60005481565b600080600160020160009054906101000a900463ffffffff1663ffffffff1611905090565b6000806000806000806105fa61059e565b151561060557600080fd5b61060e876119ee565b95506006600060028110151561062057fe5b01546001600301600081548110151561063557fe5b90600052602060002001540394506106643073ffffffffffffffffffffffffffffffffffffffff163186611cf4565b935060008660ff16141561067a578392506106e3565b60018660ff1614156106e2576006600160028110151561069657fe5b0154600160030160018154811015156106ab57fe5b90600052602060002001540391506106dc843073ffffffffffffffffffffffffffffffffffffffff16310383611cf4565b90508092505b5b8673ffffffffffffffffffffffffffffffffffffffff166108fc849081150290604051600060405180830381858888f19350505050158015610729573d6000803e3d6000fd5b508260068760ff1660028110151561073d57fe5b01540160068760ff1660028110151561075257fe5b018190555050505050505050565b600073__Rules_________________________________639207bf9684846040518363ffffffff167c0100000000000000000000000000000000000000000000000000000000028152600401808060200180602001838103835285818151815260200191508051906020019080838360005b838110156107ed5780820151818401526020810190506107d2565b50505050905090810190601f16801561081a5780820380516001836020036101000a031916815260200191505b50838103825284818151815260200191508051906020019080838360005b83811015610853578082015181840152602081019050610838565b50505050905090810190601f1680156108805780820380516001836020036101000a031916815260200191505b5094505050505060206040518083038186803b15801561089f57600080fd5b505af41580156108b3573d6000803e3d6000fd5b505050506040513d60208110156108c957600080fd5b8101908080519060200190929190505050905092915050565b600042600160020160009054906101000a900463ffffffff1663ffffffff1611905090565b60608060606109146105c4565b15151561092057600080fd5b600054600019168d8d8080601f01602080910402602001604051908101604052809392919081815260200183838082843782019150505050505073__State_________________________________639c0717e390916040518263ffffffff167c01000000000000000000000000000000000000000000000000000000000281526004018080602001828103825283818151815260200191508051906020019080838360005b838110156109e15780820151818401526020810190506109c6565b50505050905090810190601f168015610a0e5780820380516001836020036101000a031916815260200191505b509250505060206040518083038186803b158015610a2b57600080fd5b505af4158015610a3f573d6000803e3d6000fd5b505050506040513d6020811015610a5557600080fd5b810190808051906020019092919050505060001916141515610a7657600080fd5b88888080602002602001604051908101604052809392919081815260200183836020028082843782019150505050505092508686808060200260200160405190810160405280939291908181526020018383602002808284378201915050505050509150848480806020026020016040519081016040528093929190818152602001838360200280828437820191505050505050905073__Rules_________________________________63d997535f8e8e8e8e8888886040518863ffffffff167c010000000000000000000000000000000000000000000000000000000002815260040180806020018060200180602001806020018060200186810386528d8d82818152602001925080828437820191505086810385528b8b828181526020019250808284378201915050868103845289818151815260200191508051906020019060200280838360005b83811015610bdd578082015181840152602081019050610bc2565b50505050905001868103835288818151815260200191508051906020019060200280838360005b83811015610c1f578082015181840152602081019050610c04565b50505050905001868103825287818151815260200191508051906020019060200280838360005b83811015610c61578082015181840152602081019050610c46565b505050509050019c5050505050505050505050505060206040518083038186803b158015610c8e57600080fd5b505af4158015610ca2573d6000803e3d6000fd5b505050506040513d6020811015610cb857600080fd5b81019080805190602001909291905050501515610cd457600080fd5b610d1460055442018c8c8080601f016020809104026020016040519081016040528093929190818152602001838380828437820191505050505050611d0d565b50505050505050505050505050565b610d2b6108e2565b1515610d3657600080fd5b73__Rules_________________________________6359b3fb496001800187878787876040518763ffffffff167c01000000000000000000000000000000000000000000000000000000000281526004018080602001806020018660ff1660ff16815260200185600019166000191681526020018460001916600019168152602001838103835289818154600181600116156101000203166002900481526020019150805460018160011615610100020316600290048015610e395780601f10610e0e57610100808354040283529160200191610e39565b820191906000526020600020905b815481529060010190602001808311610e1c57829003601f168201915b5050838103825288888281815260200192508082843782019150509850505050505050505060206040518083038186803b158015610e7657600080fd5b505af4158015610e8a573d6000803e3d6000fd5b505050506040513d6020811015610ea057600080fd5b81019080805190602001909291905050501515610ebc57600080fd5b610ec461201c565b7f769677437a2aba4b228111e9543e19cf6d812abd1cb819a22e02c9809e244de58585604051808060200182810382528484828181526020019250808284378201915050935050505060405180910390a15050505050565b6060806060610f2961059e565b151515610f3557600080fd5b600054600019168d8d8080601f01602080910402602001604051908101604052809392919081815260200183838082843782019150505050505073__State_________________________________639c0717e390916040518263ffffffff167c01000000000000000000000000000000000000000000000000000000000281526004018080602001828103825283818151815260200191508051906020019080838360005b83811015610ff6578082015181840152602081019050610fdb565b50505050905090810190601f1680156110235780820380516001836020036101000a031916815260200191505b509250505060206040518083038186803b15801561104057600080fd5b505af4158015611054573d6000803e3d6000fd5b505050506040513d602081101561106a57600080fd5b81019080805190602001909291905050506000191614151561108b57600080fd5b88888080602002602001604051908101604052809392919081815260200183836020028082843782019150505050505092508686808060200260200160405190810160405280939291908181526020018383602002808284378201915050505050509150848480806020026020016040519081016040528093929190818152602001838360200280828437820191505050505050905073__Rules_________________________________6351d6d7948e8e8e8e8888886040518863ffffffff167c010000000000000000000000000000000000000000000000000000000002815260040180806020018060200180602001806020018060200186810386528d8d82818152602001925080828437820191505086810385528b8b828181526020019250808284378201915050868103845289818151815260200191508051906020019060200280838360005b838110156111f25780820151818401526020810190506111d7565b50505050905001868103835288818151815260200191508051906020019060200280838360005b83811015611234578082015181840152602081019050611219565b50505050905001868103825287818151815260200191508051906020019060200280838360005b8381101561127657808201518184015260208101905061125b565b505050509050019c5050505050505050505050505060206040518083038186803b1580156112a357600080fd5b505af41580156112b7573d6000803e3d6000fd5b505050506040513d60208110156112cd57600080fd5b810190808051906020019092919050505015156112e957600080fd5b611325428c8c8080601f016020809104026020016040519081016040528093929190818152602001838380828437820191505050505050611d0d565b50505050505050505050505050565b60608060606113416108e2565b151561134c57600080fd5b88888080602002602001604051908101604052809392919081815260200183836020028082843782019150505050505092508686808060200260200160405190810160405280939291908181526020018383602002808284378201915050505050509150848480806020026020016040519081016040528093929190818152602001838360200280828437820191505050505050905073__Rules_________________________________63a483eb1d600180018f8f8f8f8989896040518963ffffffff167c01000000000000000000000000000000000000000000000000000000000281526004018080602001806020018060200180602001806020018060200187810387528f8181546001816001161561010002031660029004815260200191508054600181600116156101000203166002900480156114cf5780601f106114a4576101008083540402835291602001916114cf565b820191906000526020600020905b8154815290600101906020018083116114b257829003601f168201915b505087810386528e8e82818152602001925080828437820191505087810385528c8c82818152602001925080828437820191505087810384528a818151815260200191508051906020019060200280838360005b8381101561153e578082015181840152602081019050611523565b50505050905001878103835289818151815260200191508051906020019060200280838360005b83811015611580578082015181840152602081019050611565565b50505050905001878103825288818151815260200191508051906020019060200280838360005b838110156115c25780820151818401526020810190506115a7565b505050509050019e50505050505050505050505050505060206040518083038186803b1580156115f157600080fd5b505af4158015611605573d6000803e3d6000fd5b505050506040513d602081101561161b57600080fd5b8101908080519060200190929190505050151561163757600080fd5b61163f61201c565b7f304f56a1dd9f0afdc06f47cc8de2c6e6f7614bd319b14ab2074a31e84340addb8b8b604051808060200182810382528484828181526020019250808284378201915050935050505060405180910390a150505050505050505050505050565b6116a76108e2565b15156116b257600080fd5b84848080601f01602080910402602001604051908101604052809392919081815260200183838082843782019150505050505073__State_________________________________639c0717e390916040518263ffffffff167c01000000000000000000000000000000000000000000000000000000000281526004018080602001828103825283818151815260200191508051906020019080838360005b8381101561176c578082015181840152602081019050611751565b50505050905090810190601f1680156117995780820380516001836020036101000a031916815260200191505b509250505060206040518083038186803b1580156117b657600080fd5b505af41580156117ca573d6000803e3d6000fd5b505050506040513d60208110156117e057600080fd5b8101908080519060200190929190505050600019166000546000191614151561180857600080fd5b73__Rules_________________________________63f788ea186001800187878787876040518763ffffffff167c01000000000000000000000000000000000000000000000000000000000281526004018080602001806020018660ff1660ff1681526020018560001916600019168152602001846000191660001916815260200183810383528981815460018160011615610100020316600290048152602001915080546001816001161561010002031660029004801561190b5780601f106118e05761010080835404028352916020019161190b565b820191906000526020600020905b8154815290600101906020018083116118ee57829003601f168201915b5050838103825288888281815260200192508082843782019150509850505050505050505060206040518083038186803b15801561194857600080fd5b505af415801561195c573d6000803e3d6000fd5b505050506040513d602081101561197257600080fd5b8101908080519060200190929190505050151561198e57600080fd5b61199661201c565b7fadf610ac3b3a479ddd85f0b6d56b7cfb7f2f892356c9151876d4a9c5ac725de28585604051808060200182810382528484828181526020019250808284378201915050935050505060405180910390a15050505050565b600060608060006119fd6105c4565b1515611a0857600080fd5b600180018054600181600116156101000203166002900480601f016020809104026020016040519081016040528092919081815260200182805460018160011615610100020316600290048015611aa05780601f10611a7557610100808354040283529160200191611aa0565b820191906000526020600020905b815481529060010190602001808311611a8357829003601f168201915b5050505050925073__State_________________________________6321990b9c846040518263ffffffff167c01000000000000000000000000000000000000000000000000000000000281526004018080602001828103825283818151815260200191508051906020019080838360005b83811015611b2d578082015181840152602081019050611b12565b50505050905090810190601f168015611b5a5780820380516001836020036101000a031916815260200191505b509250505060006040518083038186803b158015611b7757600080fd5b505af4158015611b8b573d6000803e3d6000fd5b505050506040513d6000823e3d601f19601f820116820180604052506020811015611bb557600080fd5b810190808051640100000000811115611bcd57600080fd5b82810190506020810184811115611be357600080fd5b8151856020820283011164010000000082111715611c0057600080fd5b50509291905050509150600090505b60028160ff161015611c7e578473ffffffffffffffffffffffffffffffffffffffff16828260ff16815181101515611c4357fe5b9060200190602002015173ffffffffffffffffffffffffffffffffffffffff161415611c7157809350611cec565b8080600101915050611c0f565b6040517f08c379a00000000000000000000000000000000000000000000000000000000081526004018080602001828103825260188152602001807f5061727469636970616e74206e6f7420696e2067616d652e000000000000000081525060200191505060405180910390fd5b505050919050565b6000818310611d035781611d05565b825b905092915050565b6000546001600001816000191690555080600180019080519060200190611d35929190612043565b5081600160020160006101000a81548163ffffffff021916908363ffffffff16021790555073__State_________________________________632e6f220c826040518263ffffffff167c01000000000000000000000000000000000000000000000000000000000281526004018080602001828103825283818151815260200191508051906020019080838360005b83811015611de0578082015181840152602081019050611dc5565b50505050905090810190601f168015611e0d5780820380516001836020036101000a031916815260200191505b509250505060006040518083038186803b158015611e2a57600080fd5b505af4158015611e3e573d6000803e3d6000fd5b505050506040513d6000823e3d601f19601f820116820180604052506020811015611e6857600080fd5b810190808051640100000000811115611e8057600080fd5b82810190506020810184811115611e9657600080fd5b8151856020820283011164010000000082111715611eb357600080fd5b505092919050505060016003019080519060200190611ed39291906120c3565b507f0dcaa5dd7d6f4b963b65eb51a19e330900fe0a4df673b3114d8f0bde82f7822a60016000015460018001600160020160009054906101000a900463ffffffff166001600301604051808560001916600019168152602001806020018463ffffffff1663ffffffff16815260200180602001838103835286818154600181600116156101000203166002900481526020019150805460018160011615610100020316600290048015611fc75780601f10611f9c57610100808354040283529160200191611fc7565b820191906000526020600020905b815481529060010190602001808311611faa57829003601f168201915b5050838103825284818154815260200191508054801561200657602002820191906000526020600020905b815481526020019060010190808311611ff2575b5050965050505050505060405180910390a15050565b6000600160020160006101000a81548163ffffffff021916908363ffffffff160217905550565b828054600181600116156101000203166002900490600052602060002090601f016020900481019282601f1061208457805160ff19168380011785556120b2565b828001600101855582156120b2579182015b828111156120b1578251825591602001919060010190612096565b5b5090506120bf9190612110565b5090565b8280548282559060005260206000209081019282156120ff579160200282015b828111156120fe5782518255916020019190600101906120e3565b5b50905061210c9190612110565b5090565b61213291905b8082111561212e576000816000905550600101612116565b5090565b905600a165627a7a723058209e9edd77cd2d64f596063a3eac23b6170414eef66234bf7677bb994fe2a920b10029",
  "source": "pragma solidity ^0.4.23;\r\n\r\nimport \"fmg-core/contracts/State.sol\";\r\nimport \"fmg-core/contracts/Rules.sol\";\r\nimport \"fmg-core/contracts/ForceMoveGame.sol\";\r\n\r\ncontract SimpleAdjudicator {\r\n    // SimpleAdjudicator can support exactly one force move game channel\r\n    // between exactly two players.\r\n    using State for bytes;\r\n\r\n    bytes32 public fundedChannelId;\r\n\r\n    Rules.Challenge currentChallenge;\r\n    uint challengeDuration = 1 days;\r\n    uint[2] withdrawnAmount;\r\n\r\n    event FundsReceived(\r\n        uint amountReceived,\r\n        address sender,\r\n        uint adjudicatorBalance\r\n    );\r\n\r\n    constructor(bytes32 _fundedChannelId) public payable {\r\n        fundedChannelId = _fundedChannelId;\r\n\r\n        emit FundsReceived(\r\n            msg.value,\r\n            msg.sender,\r\n            address(this).balance\r\n        );\r\n    }\r\n\r\n    // allow funds to be sent to the contract\r\n    function () public payable {\r\n        emit FundsReceived(\r\n            msg.value,\r\n            msg.sender,\r\n            address(this).balance\r\n        );\r\n    }\r\n\r\n    function forceMove (\r\n        bytes _yourState,\r\n        bytes _myState,\r\n        uint8[] _v,\r\n        bytes32[] _r,\r\n        bytes32[] _s\r\n      )\r\n        external\r\n        onlyWhenCurrentChallengeNotPresent\r\n      {\r\n        // channelId must match the game supported by the channel\r\n        require(_yourState.channelId() == fundedChannelId);\r\n\r\n        // passing _v, _r, _s directly to validForceMove gives a \"Stack too deep\" error\r\n        uint8[] memory v = _v;\r\n        bytes32[] memory r = _r;\r\n        bytes32[] memory s = _s;\r\n\r\n        // must be a valid force move\r\n        require(Rules.validForceMove(_yourState, _myState, v, r, s));\r\n\r\n        createChallenge(uint32(now + challengeDuration), _myState);\r\n    }\r\n\r\n    function conclude(\r\n        bytes _yourState,\r\n        bytes _myState,\r\n        uint8[] _v,\r\n        bytes32[] _r,\r\n        bytes32[] _s\r\n    )\r\n      external\r\n      onlyWhenGameOngoing\r\n    {\r\n        // channelId must match the game supported by the channel\r\n        require(_yourState.channelId() == fundedChannelId);\r\n\r\n        // passing _v, _r, _s directly to validConclusionProof gives a \"Stack too deep\" error\r\n        uint8[] memory v = _v;\r\n        bytes32[] memory r = _r;\r\n        bytes32[] memory s = _s;\r\n\r\n        // must be a valid conclusion proof according to framework rules\r\n        require(Rules.validConclusionProof(_yourState, _myState, v, r, s));\r\n\r\n        // Create an expired challenge, (possibly) overwriting any existing challenge\r\n        createChallenge(uint32(now), _myState);\r\n    }\r\n\r\n    event Refuted(bytes refutation);\r\n    function refute(bytes _refutationState, uint8 v, bytes32 r, bytes32 s)\r\n      external\r\n      onlyWhenCurrentChallengeActive\r\n    {\r\n        // channelId must match the game supported by the channel\r\n        require(fundedChannelId == _refutationState.channelId());\r\n\r\n        // must be a valid refute according to framework rules\r\n        require(Rules.validRefute(currentChallenge.state, _refutationState, v, r, s));\r\n\r\n        cancelCurrentChallenge();\r\n        emit Refuted(_refutationState);\r\n    }\r\n\r\n    event RespondedWithMove(bytes response);\r\n    function respondWithMove(bytes _nextState, uint8 v, bytes32 r, bytes32 s)\r\n      external\r\n      onlyWhenCurrentChallengeActive\r\n    {\r\n        // must be valid respond with move according to the framework rules\r\n        require(Rules.validRespondWithMove(currentChallenge.state, _nextState, v, r, s));\r\n\r\n        cancelCurrentChallenge();\r\n        emit RespondedWithMove(_nextState);\r\n    }\r\n\r\n    event RespondedWithAlternativeMove(bytes alternativeResponse);\r\n    function alternativeRespondWithMove(\r\n        bytes _alternativeState,\r\n        bytes _nextState,\r\n        uint8[] _v,\r\n        bytes32[] _r,\r\n        bytes32[] _s\r\n    )\r\n      external\r\n      onlyWhenCurrentChallengeActive\r\n    {\r\n        // passing _v, _r, _s directly to validAlternativeRespondWithMove gives a \"Stack too deep\" error\r\n        uint8[] memory v = _v;\r\n        bytes32[] memory r = _r;\r\n        bytes32[] memory s = _s;\r\n\r\n        // must be valid alternative respond with move according to the framework rules\r\n        require(Rules.validAlternativeRespondWithMove(currentChallenge.state, _alternativeState, _nextState, v, r, s));\r\n\r\n        cancelCurrentChallenge();\r\n        emit RespondedWithAlternativeMove(_nextState);\r\n    }\r\n\r\n    event ChallengeCreated(\r\n        bytes32 channelId,\r\n        bytes state,\r\n        uint32 expirationTime,\r\n        uint256[] payouts\r\n    );\r\n\r\n    function createChallenge(uint32 expirationTime, bytes _state) private {\r\n        currentChallenge.channelId = fundedChannelId;\r\n        currentChallenge.state = _state;\r\n        currentChallenge.expirationTime = expirationTime;\r\n        currentChallenge.payouts = State.resolution(_state);\r\n\r\n        emit ChallengeCreated(\r\n            currentChallenge.channelId,\r\n            currentChallenge.state,\r\n            currentChallenge.expirationTime,\r\n            currentChallenge.payouts\r\n        );\r\n    }\r\n\r\n    function withdraw(address participant)\r\n      public\r\n      onlyWhenGameTerminated\r\n    {\r\n        uint8 idx = participantIdx(participant);\r\n        uint owedToA = currentChallenge.payouts[0] - withdrawnAmount[0];\r\n        uint aPending = min(address(this).balance, owedToA);\r\n\r\n        uint amount;\r\n        if (idx == 0) {\r\n            amount = aPending;\r\n        } else if (idx == 1) {\r\n            uint owedToB = currentChallenge.payouts[1] - withdrawnAmount[1];\r\n            uint bPending = min(address(this).balance - aPending, owedToB);\r\n            amount = bPending;\r\n        }\r\n\r\n        participant.transfer(amount);\r\n        withdrawnAmount[idx] = withdrawnAmount[idx] + amount;\r\n    }\r\n\r\n    function validTransition(bytes _fromState, bytes _toState) public pure returns(bool) {\r\n        return Rules.validTransition(_fromState, _toState);\r\n    }\r\n\r\n    function min(uint256 a, uint256 b) private pure returns (uint256) {\r\n        return a < b ? a : b;\r\n    }\r\n\r\n    function cancelCurrentChallenge() private{\r\n        // TODO: zero out everything(?)\r\n        currentChallenge.expirationTime = 0;\r\n    }\r\n\r\n    function currentChallengePresent() public view returns (bool) {\r\n        return currentChallenge.expirationTime > 0;\r\n    }\r\n\r\n    function activeChallengePresent() public view returns (bool) {\r\n        return (currentChallenge.expirationTime > now);\r\n    }\r\n\r\n    function expiredChallengePresent() public view returns (bool) {\r\n        return currentChallengePresent() && !activeChallengePresent();\r\n    }\r\n\r\n    function participantIdx(address participant)\r\n      private view\r\n      onlyWhenCurrentChallengePresent // otherwise, we don't know that we've seen a valid game state yet\r\n      returns (uint8) {\r\n        bytes memory endState = currentChallenge.state;\r\n        address[] memory p = State.participants(endState);\r\n        for(uint8 i = 0; i < 2; i++) {\r\n            if (p[i] == participant) {\r\n                return i;\r\n            }\r\n        }\r\n        revert(\"Participant not in game.\");\r\n    }\r\n\r\n    // Modifiers\r\n    modifier onlyWhenCurrentChallengePresent() {\r\n        require(currentChallengePresent());\r\n        _;\r\n    }\r\n\r\n    modifier onlyWhenCurrentChallengeNotPresent() {\r\n        require(!currentChallengePresent());\r\n        _;\r\n    }\r\n\r\n    modifier onlyWhenGameTerminated() {\r\n        require(expiredChallengePresent());\r\n        _;\r\n    }\r\n\r\n    modifier onlyWhenGameOngoing() {\r\n        require(!expiredChallengePresent());\r\n        _;\r\n    }\r\n\r\n    modifier onlyWhenCurrentChallengeActive() {\r\n        require(activeChallengePresent());\r\n        _;\r\n    }\r\n}\r\n",
  "sourcePath": "fmg-simple-adjudicator/contracts/SimpleAdjudicator.sol",
  "compiler": {
    "name": "solc",
    "version": "0.4.24+commit.e67f0147.Emscripten.clang"
  },
  "schemaVersion": "3.0.0-beta.0",
  "updatedAt": "2018-09-06T19:20:42.227Z"
}