{
  "contractName": "State",
  "abi": [
    {
      "constant": true,
      "inputs": [
        {
          "name": "_state",
          "type": "bytes"
        }
      ],
      "name": "channelType",
      "outputs": [
        {
          "name": "_channelType",
          "type": "address"
        }
      ],
      "payable": false,
      "stateMutability": "pure",
      "type": "function"
    },
    {
      "constant": true,
      "inputs": [
        {
          "name": "_state",
          "type": "bytes"
        }
      ],
      "name": "channelNonce",
      "outputs": [
        {
          "name": "_channelNonce",
          "type": "uint256"
        }
      ],
      "payable": false,
      "stateMutability": "pure",
      "type": "function"
    },
    {
      "constant": true,
      "inputs": [
        {
          "name": "_state",
          "type": "bytes"
        }
      ],
      "name": "numberOfParticipants",
      "outputs": [
        {
          "name": "_numberOfParticipants",
          "type": "uint256"
        }
      ],
      "payable": false,
      "stateMutability": "pure",
      "type": "function"
    },
    {
      "constant": true,
      "inputs": [
        {
          "name": "_state",
          "type": "bytes"
        }
      ],
      "name": "participants",
      "outputs": [
        {
          "name": "",
          "type": "address[]"
        }
      ],
      "payable": false,
      "stateMutability": "pure",
      "type": "function"
    },
    {
      "constant": true,
      "inputs": [
        {
          "name": "_state",
          "type": "bytes"
        },
        {
          "name": "_index",
          "type": "uint256"
        }
      ],
      "name": "participant",
      "outputs": [
        {
          "name": "_participant",
          "type": "address"
        }
      ],
      "payable": false,
      "stateMutability": "pure",
      "type": "function"
    },
    {
      "constant": true,
      "inputs": [
        {
          "name": "_state",
          "type": "bytes"
        }
      ],
      "name": "stateType",
      "outputs": [
        {
          "name": "_stateType",
          "type": "State.StateType"
        }
      ],
      "payable": false,
      "stateMutability": "pure",
      "type": "function"
    },
    {
      "constant": true,
      "inputs": [
        {
          "name": "_state",
          "type": "bytes"
        }
      ],
      "name": "turnNum",
      "outputs": [
        {
          "name": "_turnNum",
          "type": "uint256"
        }
      ],
      "payable": false,
      "stateMutability": "pure",
      "type": "function"
    },
    {
      "constant": true,
      "inputs": [
        {
          "name": "_state",
          "type": "bytes"
        }
      ],
      "name": "stateCount",
      "outputs": [
        {
          "name": "_stateCount",
          "type": "uint256"
        }
      ],
      "payable": false,
      "stateMutability": "pure",
      "type": "function"
    },
    {
      "constant": true,
      "inputs": [
        {
          "name": "_state",
          "type": "bytes"
        }
      ],
      "name": "resolution",
      "outputs": [
        {
          "name": "",
          "type": "uint256[]"
        }
      ],
      "payable": false,
      "stateMutability": "pure",
      "type": "function"
    },
    {
      "constant": true,
      "inputs": [
        {
          "name": "_state",
          "type": "bytes"
        }
      ],
      "name": "channelId",
      "outputs": [
        {
          "name": "",
          "type": "bytes32"
        }
      ],
      "payable": false,
      "stateMutability": "pure",
      "type": "function"
    },
    {
      "constant": true,
      "inputs": [
        {
          "name": "_state",
          "type": "bytes"
        }
      ],
      "name": "mover",
      "outputs": [
        {
          "name": "",
          "type": "address"
        }
      ],
      "payable": false,
      "stateMutability": "pure",
      "type": "function"
    },
    {
      "constant": true,
      "inputs": [
        {
          "name": "_state",
          "type": "bytes"
        }
      ],
      "name": "indexOfMover",
      "outputs": [
        {
          "name": "",
          "type": "uint256"
        }
      ],
      "payable": false,
      "stateMutability": "pure",
      "type": "function"
    },
    {
      "constant": true,
      "inputs": [
        {
          "name": "_state",
          "type": "bytes"
        },
        {
          "name": "_v",
          "type": "uint8"
        },
        {
          "name": "_r",
          "type": "bytes32"
        },
        {
          "name": "_s",
          "type": "bytes32"
        }
      ],
      "name": "requireSignature",
      "outputs": [],
      "payable": false,
      "stateMutability": "pure",
      "type": "function"
    },
    {
      "constant": true,
      "inputs": [
        {
          "name": "_state",
          "type": "bytes"
        },
        {
          "name": "_v",
          "type": "uint8[]"
        },
        {
          "name": "_r",
          "type": "bytes32[]"
        },
        {
          "name": "_s",
          "type": "bytes32[]"
        }
      ],
      "name": "requireFullySigned",
      "outputs": [],
      "payable": false,
      "stateMutability": "pure",
      "type": "function"
    },
    {
      "constant": true,
      "inputs": [
        {
          "name": "_state",
          "type": "bytes"
        }
      ],
      "name": "gameStateOffset",
      "outputs": [
        {
          "name": "",
          "type": "uint256"
        }
      ],
      "payable": false,
      "stateMutability": "pure",
      "type": "function"
    },
    {
      "constant": true,
      "inputs": [
        {
          "name": "_state",
          "type": "bytes"
        },
        {
          "name": "_otherState",
          "type": "bytes"
        }
      ],
      "name": "gameAttributesEqual",
      "outputs": [
        {
          "name": "",
          "type": "bool"
        }
      ],
      "payable": false,
      "stateMutability": "pure",
      "type": "function"
    },
    {
      "constant": true,
      "inputs": [
        {
          "name": "_state",
          "type": "bytes"
        },
        {
          "name": "_otherState",
          "type": "bytes"
        }
      ],
      "name": "resolutionsEqual",
      "outputs": [
        {
          "name": "",
          "type": "bool"
        }
      ],
      "payable": false,
      "stateMutability": "pure",
      "type": "function"
    }
  ],
  "bytecode": "0x6110c2610030600b82828239805160001a6073146000811461002057610022565bfe5b5030600052607381538281f30073000000000000000000000000000000000000000030146080604052600436106101075763ffffffff7c01000000000000000000000000000000000000000000000000000000006000350416631242d128811461010c57806321990b9c146102055780632e6f220c146102a157806334e08cd7146102ed5780633d5151fa146103555780635b56b3ee146103a15780639567151d146103ff5780639c0717e31461049d578063a845776d146104e9578063b28400c214610537578063b53430ee146105a7578063c084ac8d14610631578063c586f63b1461067d578063caabcf4a146106c9578063ce4338e214610715578063dcf58e2c14610770578063f92bdcb1146107bc575b600080fd5b6040805160206004803580820135601f8101849004840285018401909552848452610203943694929360249392840191908190840183828082843750506040805187358901803560208181028481018201909552818452989b9a998901989297509082019550935083925085019084908082843750506040805187358901803560208181028481018201909552818452989b9a998901989297509082019550935083925085019084908082843750506040805187358901803560208181028481018201909552818452989b9a9989019892975090820195509350839250850190849080828437509497506108089650505050505050565b005b6040805160206004803580820135601f81018490048402850184019095528484526102519436949293602493928401919081908401838280828437509497506108c79650505050505050565b60408051602080825283518183015283519192839290830191858101910280838360005b8381101561028d578181015183820152602001610275565b505050509050019250505060405180910390f35b6040805160206004803580820135601f81018490048402850184019095528484526102519436949293602493928401919081908401838280828437509497506109589650505050505050565b6040805160206004803580820135601f81018490048402850184019095528484526103399436949293602493928401919081908401838280828437509497506109d59650505050505050565b60408051600160a060020a039092168252519081900360200190f35b6040805160206004803580820135601f8101849004840285018401909552848452610339943694929360249392840191908190840183828082843750949750610a1a9650505050505050565b6040805160206004803580820135601f81018490048402850184019095528484526103ed943694929360249392840191908190840183828082843750949750610a219650505050505050565b60408051918252519081900360200190f35b6040805160206004803580820135601f810184900484028501840190955284845261048994369492936024939284019190819084018382808284375050604080516020601f89358b018035918201839004830284018301909452808352979a999881019791965091820194509250829150840183828082843750949750610a459650505050505050565b604080519115158252519081900360200190f35b6040805160206004803580820135601f81018490048402850184019095528484526103ed943694929360249392840191908190840183828082843750949750610b4d9650505050505050565b6040805160206004803580820135601f81018490048402850184019095528484526103399436949293602493928401919081908401838280828437509497505093359450610c439350505050565b6040805160206004803580820135601f8101849004840285018401909552848452610583943694929360249392840191908190840183828082843750949750610c6a9650505050505050565b6040518082600381111561059357fe5b60ff16815260200191505060405180910390f35b6040805160206004803580820135601f810184900484028501840190955284845261048994369492936024939284019190819084018382808284375050604080516020601f89358b018035918201839004830284018301909452808352979a999881019791965091820194509250829150840183828082843750949750610c879650505050505050565b6040805160206004803580820135601f81018490048402850184019095528484526103ed943694929360249392840191908190840183828082843750949750610e029650505050505050565b6040805160206004803580820135601f81018490048402850184019095528484526103ed943694929360249392840191908190840183828082843750949750610e1f9650505050505050565b6040805160206004803580820135601f81018490048402850184019095528484526103ed943694929360249392840191908190840183828082843750949750610e379650505050505050565b6040805160206004803580820135601f81018490048402850184019095528484526102039436949293602493928401919081908401838280828437509497505050833560ff1694505050602082013591604001359050610e54565b6040805160206004803580820135601f81018490048402850184019095528484526103ed943694929360249392840191908190840183828082843750949750610e8b9650505050505050565b6040805160206004803580820135601f81018490048402850184019095528484526103ed943694929360249392840191908190840183828082843750949750610e929650505050505050565b60006060600061081787610e92565b9250610822876108c7565b9150600090505b828110156108be5761088287878381518110151561084357fe5b90602001906020020151878481518110151561085b57fe5b90602001906020020151878581518110151561087357fe5b90602001906020020151610ea4565b600160a060020a0316828281518110151561089957fe5b60209081029091010151600160a060020a0316146108b657600080fd5b600101610829565b50505050505050565b6060600080606060006108d986610e92565b925082604051908082528060200260200182016040528015610905578160200160208202803883390190505b509150600090505b8281101561094f5780602002608001860151935083828281518110151561093057fe5b600160a060020a0390921660209283029091019091015260010161090d565b50949350505050565b60606000806060600061096a86610e92565b925082604051908082528060200260200182016040528015610996578160200160208202803883390190505b509150600090505b8281101561094f5782810160200260e00186015193508382828151811015156109c357fe5b6020908102909101015260010161099e565b60006109e0826108c7565b6109e983610e92565b6109f284610e02565b8115156109fb57fe5b06815181101515610a0857fe5b9060200190602002015190505b919050565b6020015190565b6000610a2c82610e92565b610a3583610e02565b811515610a3e57fe5b0692915050565b600080600080600080600087518951141515610ae857604080517f08c379a000000000000000000000000000000000000000000000000000000000815260206004820152603c60248201527f537461746573206d757374206265207468652073616d65206c656e677468207460448201527f6f206861766520657175616c2067616d65206174747269627574657300000000606482015290519081900360840190fd5b8851601f1615610af757600080fd5b610b0089610e1f565b9550858951602001039450600090505b84811015610b3e57858101898101518982015190955093509150828414610b3657600080fd5b602001610b10565b50600198975050505050505050565b6000610b5882610a1a565b610b6183610e8b565b610b6a846108c7565b6040516020018084600160a060020a0316600160a060020a03166c01000000000000000000000000028152601401838152602001828051906020019060200280838360005b83811015610bc7578181015183820152602001610baf565b5050505090500193505050506040516020818303038152906040526040518082805190602001908083835b60208310610c115780518252601f199092019160209182019101610bf2565b5181516020939093036101000a6000190180199091169216919091179052604051920182900390912095945050505050565b600080610c4f84610e92565b9050808310610c5d57600080fd5b5050602002016080015190565b600080610c7683610e92565b602002929092016080015192915050565b6000610c9282610958565b60405160200180828051906020019060200280838360005b83811015610cc2578181015183820152602001610caa565b505050509050019150506040516020818303038152906040526040518082805190602001908083835b60208310610d0a5780518252601f199092019160209182019101610ceb565b6001836020036101000a038019825116818451168082178552505050505050905001915050604051809103902060001916610d4484610958565b60405160200180828051906020019060200280838360005b83811015610d74578181015183820152602001610d5c565b505050509050019150506040516020818303038152906040526040518082805190602001908083835b60208310610dbc5780518252601f199092019160209182019101610d9d565b6001836020036101000a038019825116818451168082178552505050505050905001915050604051809103902060001916141515610df957600080fd5b50600192915050565b600080610e0e83610e92565b6020029290920160a0015192915050565b6000610e2a82610e92565b60400260e0019050919050565b600080610e4383610e92565b6020029290920160c0015192915050565b610e6084848484610ea4565b600160a060020a0316610e72856109d5565b600160a060020a031614610e8557600080fd5b50505050565b6040015190565b606081015160028114610a1557600080fd5b6000606060008060006040805190810160405280601c81526020017f19457468657265756d205369676e6564204d6573736167653a0a3332000000008152509350886040518082805190602001908083835b60208310610f155780518252601f199092019160209182019101610ef6565b6001836020036101000a0380198251168184511680821785525050505050509050019150506040518091039020925083836040516020018083805190602001908083835b60208310610f785780518252601f199092019160209182019101610f59565b51815160209384036101000a600019018019909216911617905292019384525060408051808503815293820190819052835193945092839250908401908083835b60208310610fd85780518252601f199092019160209182019101610fb9565b6001836020036101000a03801982511681845116808217855250505050505090500191505060405180910390209150600182898989604051600081526020016040526040518085600019166000191681526020018460ff1660ff1681526020018360001916600019168152602001826000191660001916815260200194505050505060206040516020810390808403906000865af115801561107e573d6000803e3d6000fd5b5050604051601f1901519a99505050505050505050505600a165627a7a723058205932fc206f7ee0b1ddc86d5a653c9d52d3ce1fe108d5f70e399ca57f880bf4750029",
  "source": "pragma solidity ^0.4.24;\n\nlibrary State {\n    enum StateType { PreFundSetup, PostFundSetup, Game, Conclude }\n\n    // State Fields\n    // ===================\n    // [  0 -  31] (bytestring meta info)\n    // [ 32 -  63] address channelType\n    // [ 64 -  95] uint256 channelNonce\n    // [ 96 - 127] uint256 numberOfParticipants\n    // [128 - x-1] address[] participants\n    // ----------- where x = 128 + 32 * numberOfParticipants\n    // x + [ 0 - 31] uint256 stateType\n    // x + [32 - 63] uint256 turnNum\n    // x + [64 - 95] uint256 stateCount // only relevant for PreFundSetup and PostFundSetup states\n    // x + [96 - y-1] uint256[] resolution\n    // ----------- where y = 224 + 64 * numberOfParticipants\n    // y + [0 -  ?] bytes gameState\n\n    function channelType(bytes _state) public pure returns (address _channelType) {\n        assembly {\n            _channelType := mload(add(_state, 32))\n        }\n    }\n\n    function channelNonce(bytes _state) public pure returns (uint _channelNonce) {\n        assembly {\n            _channelNonce := mload(add(_state, 64))\n        }\n    }\n\n    function numberOfParticipants(bytes _state) public pure returns (uint _numberOfParticipants) {\n        assembly {\n            _numberOfParticipants := mload(add(_state, 96))\n        }\n\n        require(_numberOfParticipants == 2); // for now\n    }\n\n    function participants(bytes _state) public pure returns (address[] ) {\n        address currentParticipant;\n        uint256 n = numberOfParticipants(_state);\n        address[] memory extractedParticipants = new address[](n);\n\n        for(uint i = 0; i < n; i++) {\n            assembly {\n                currentParticipant := mload(add(_state, add(128, mul(32, i))))\n            }\n\n            extractedParticipants[i] = currentParticipant;\n        }\n        return extractedParticipants;\n    }\n\n    function participant(bytes _state, uint _index) public pure returns (address _participant) {\n        uint256 n = numberOfParticipants(_state);\n        require(_index < n);\n\n        assembly {\n            _participant := mload(add(_state, add(128, mul(32, _index))))\n        }\n    }\n\n    function stateType(bytes _state) public pure returns (StateType _stateType) {\n        uint256 offset = numberOfParticipants(_state) * 32 + 128;\n        assembly {\n            _stateType := mload(add(_state, offset))\n        }\n    }\n\n    function turnNum(bytes _state) public pure returns (uint _turnNum) {\n        uint256 offset = 32 + numberOfParticipants(_state) * 32 + 128;\n        assembly {\n            _turnNum := mload(add(_state, offset))\n        }\n    }\n\n    function stateCount(bytes _state) public pure returns (uint _stateCount) {\n        uint256 offset = 64 + numberOfParticipants(_state) * 32 + 128;\n        assembly {\n            _stateCount := mload(add(_state, offset))\n        }\n    }\n\n    function resolution(bytes _state) public pure returns (uint256[] ) {\n        uint256 currentResolutionValue;\n        uint256 n = numberOfParticipants(_state);\n        uint256[] memory extractedResolution = new uint256[](n);\n\n        for(uint i = 0; i < n; i++) {\n            assembly {\n                currentResolutionValue := mload(add(_state, add(224, mul(32, add(i, n)))))\n            }\n\n            extractedResolution[i] = currentResolutionValue;\n        }\n        return extractedResolution;\n    }\n\n    function channelId(bytes _state) public pure returns (bytes32) {\n        return keccak256(\n            abi.encodePacked(channelType(_state), channelNonce(_state), participants(_state))\n        );\n    }\n\n    function mover(bytes _state) public pure returns (address) {\n        return participants(_state)[turnNum(_state) % numberOfParticipants(_state)];\n    }\n\n    function indexOfMover(bytes _state) public pure returns (uint) {\n        return turnNum(_state) % numberOfParticipants(_state);\n    }\n\n    function requireSignature(bytes _state, uint8 _v, bytes32 _r, bytes32 _s) public pure {\n        require(mover(_state) == recoverSigner(_state, _v, _r, _s));\n    }\n\n    function requireFullySigned(bytes _state, uint8[] _v, bytes32[] _r, bytes32[] _s) public pure {\n        uint256 n = numberOfParticipants(_state);\n        address[] memory p = participants(_state);\n\n        for(uint i = 0; i < n; i++) {\n            require(p[i] == recoverSigner(_state, _v[i], _r[i], _s[i]));\n        }\n    }\n\n    function gameStateOffset(bytes _state) public pure returns (uint) {\n        return 224 + 64 * numberOfParticipants(_state);\n    }\n\n\n    function gameAttributesEqual(bytes _state, bytes _otherState) public pure returns (bool) {\n        require(_state.length == _otherState.length, \"States must be the same length to have equal game attributes\");\n        require(_state.length % 32 == 0);\n\n        uint256 gameOffset = gameStateOffset(_state);\n        // need to add 32 because _state.length doesn't include the meta info\n        uint256 attributesLength = _state.length + 32 - gameOffset;\n\n        bytes32 chunk;\n        bytes32 otherChunk;\n        uint256 offset;\n\n        // we require that _state.length is a multiple of 32, so this is ok\n        // this is nasty - there's probably a better way of checking equality\n        // todo: fix this\n        for(uint i = 0; i < attributesLength; i += 32) {\n            assembly {\n                offset := add(gameOffset, i)\n                chunk := mload(add(_state, offset))\n                otherChunk := mload(add(_otherState, offset))\n            }\n            require(chunk == otherChunk);\n        }\n\n        return true;\n    }\n\n    function resolutionsEqual(bytes _state, bytes _otherState) public pure returns (bool) {\n        require(keccak256(abi.encodePacked(resolution(_state))) == keccak256(abi.encodePacked(resolution(_otherState))));\n        return true;\n    }\n\n    // utilities\n    // =========\n\n    function recoverSigner(bytes _d, uint8 _v, bytes32 _r, bytes32 _s) internal pure returns(address) {\n        bytes memory prefix = \"\\x19Ethereum Signed Message:\\n32\";\n        bytes32 h = keccak256(_d);\n\n        bytes32 prefixedHash = keccak256(abi.encodePacked(prefix, h));\n\n        address a = ecrecover(prefixedHash, _v, _r, _s);\n\n        return(a);\n    }\n}\n",
  "sourcePath": "fmg-core/contracts/State.sol",
  "compiler": {
    "name": "solc",
    "version": "0.4.24+commit.e67f0147.Emscripten.clang"
  },
  "schemaVersion": "2.0.1",
  "updatedAt": "2018-12-13T17:46:01.200Z"
}