{
  "contractName": "TicTacToeGame",
  "abi": [
    {
      "constant": true,
      "inputs": [
        {
          "name": "_old",
          "type": "bytes"
        },
        {
          "name": "_new",
          "type": "bytes"
        }
      ],
      "name": "validTransition",
      "outputs": [
        {
          "name": "",
          "type": "bool"
        }
      ],
      "payable": false,
      "stateMutability": "pure",
      "type": "function"
    }
  ],
  "bytecode": "0x608060405234801561001057600080fd5b50615cf780620000216000396000f3006080604052600436106100275763ffffffff60e060020a6000350416639207bf96811461002c575b600080fd5b34801561003857600080fd5b506040805160206004803580820135601f81018490048402850184019095528484526100c394369492936024939284019190819084018382808284375050604080516020601f89358b018035918201839004830284018301909452808352979a9998810197919650918201945092508291508401838280828437509497506100d79650505050505050565b604080519115158252519081900360200190f35b60008060405160e060020a638a0cc0ed02815260206004820181815286516024840152865173__TicTacToeState________________________93638a0cc0ed9389939283926044019185019080838360005b8381101561014257818101518382015260200161012a565b50505050905090810190601f16801561016f5780820380516001836020036101000a031916815260200191505b509250505060206040518083038186803b15801561018c57600080fd5b505af41580156101a0573d6000803e3d6000fd5b505050506040513d60208110156101b657600080fd5b505160048111156101c357fe5b14156102d157600160405160e060020a638a0cc0ed02815260206004820181815285516024840152855173__TicTacToeState________________________93638a0cc0ed9388939283926044019185019080838360005b8381101561023357818101518382015260200161021b565b50505050905090810190601f1680156102605780820380516001836020036101000a031916815260200191505b509250505060206040518083038186803b15801561027d57600080fd5b505af4158015610291573d6000803e3d6000fd5b505050506040513d60208110156102a757600080fd5b505160048111156102b457fe5b14156102cc576102c483836110f6565b5060016110f0565b611063565b600160405160e060020a638a0cc0ed02815260206004820181815286516024840152865173__TicTacToeState________________________93638a0cc0ed9389939283926044019185019080838360005b8381101561033b578181015183820152602001610323565b50505050905090810190601f1680156103685780820380516001836020036101000a031916815260200191505b509250505060206040518083038186803b15801561038557600080fd5b505af4158015610399573d6000803e3d6000fd5b505050506040513d60208110156103af57600080fd5b505160048111156103bc57fe5b14156106b357600260405160e060020a638a0cc0ed02815260206004820181815285516024840152855173__TicTacToeState________________________93638a0cc0ed9388939283926044019185019080838360005b8381101561042c578181015183820152602001610414565b50505050905090810190601f1680156104595780820380516001836020036101000a031916815260200191505b509250505060206040518083038186803b15801561047657600080fd5b505af415801561048a573d6000803e3d6000fd5b505050506040513d60208110156104a057600080fd5b505160048111156104ad57fe5b14156104bd576102c483836121a3565b600360405160e060020a638a0cc0ed02815260206004820181815285516024840152855173__TicTacToeState________________________93638a0cc0ed9388939283926044019185019080838360005b8381101561052757818101518382015260200161050f565b50505050905090810190601f1680156105545780820380516001836020036101000a031916815260200191505b509250505060206040518083038186803b15801561057157600080fd5b505af4158015610585573d6000803e3d6000fd5b505050506040513d602081101561059b57600080fd5b505160048111156105a857fe5b14156105b8576102c48383613156565b600060405160e060020a638a0cc0ed02815260206004820181815285516024840152855173__TicTacToeState________________________93638a0cc0ed9388939283926044019185019080838360005b8381101561062257818101518382015260200161060a565b50505050905090810190601f16801561064f5780820380516001836020036101000a031916815260200191505b509250505060206040518083038186803b15801561066c57600080fd5b505af4158015610680573d6000803e3d6000fd5b505050506040513d602081101561069657600080fd5b505160048111156106a357fe5b14156102cc576102c483836132c7565b600260405160e060020a638a0cc0ed02815260206004820181815286516024840152865173__TicTacToeState________________________93638a0cc0ed9389939283926044019185019080838360005b8381101561071d578181015183820152602001610705565b50505050905090810190601f16801561074a5780820380516001836020036101000a031916815260200191505b509250505060206040518083038186803b15801561076757600080fd5b505af415801561077b573d6000803e3d6000fd5b505050506040513d602081101561079157600080fd5b5051600481111561079e57fe5b1415610a9557600160405160e060020a638a0cc0ed02815260206004820181815285516024840152855173__TicTacToeState________________________93638a0cc0ed9388939283926044019185019080838360005b8381101561080e5781810151838201526020016107f6565b50505050905090810190601f16801561083b5780820380516001836020036101000a031916815260200191505b509250505060206040518083038186803b15801561085857600080fd5b505af415801561086c573d6000803e3d6000fd5b505050506040513d602081101561088257600080fd5b5051600481111561088f57fe5b141561089f576102c48383613ba3565b600360405160e060020a638a0cc0ed02815260206004820181815285516024840152855173__TicTacToeState________________________93638a0cc0ed9388939283926044019185019080838360005b838110156109095781810151838201526020016108f1565b50505050905090810190601f1680156109365780820380516001836020036101000a031916815260200191505b509250505060206040518083038186803b15801561095357600080fd5b505af4158015610967573d6000803e3d6000fd5b505050506040513d602081101561097d57600080fd5b5051600481111561098a57fe5b141561099a576102c48383613f47565b600460405160e060020a638a0cc0ed02815260206004820181815285516024840152855173__TicTacToeState________________________93638a0cc0ed9388939283926044019185019080838360005b83811015610a045781810151838201526020016109ec565b50505050905090810190601f168015610a315780820380516001836020036101000a031916815260200191505b509250505060206040518083038186803b158015610a4e57600080fd5b505af4158015610a62573d6000803e3d6000fd5b505050506040513d6020811015610a7857600080fd5b50516004811115610a8557fe5b14156102cc576102c483836140b8565b600360405160e060020a638a0cc0ed02815260206004820181815286516024840152865173__TicTacToeState________________________93638a0cc0ed9389939283926044019185019080838360005b83811015610aff578181015183820152602001610ae7565b50505050905090810190601f168015610b2c5780820380516001836020036101000a031916815260200191505b509250505060206040518083038186803b158015610b4957600080fd5b505af4158015610b5d573d6000803e3d6000fd5b505050506040513d6020811015610b7357600080fd5b50516004811115610b8057fe5b1415610d7c57600060405160e060020a638a0cc0ed02815260206004820181815285516024840152855173__TicTacToeState________________________93638a0cc0ed9388939283926044019185019080838360005b83811015610bf0578181015183820152602001610bd8565b50505050905090810190601f168015610c1d5780820380516001836020036101000a031916815260200191505b509250505060206040518083038186803b158015610c3a57600080fd5b505af4158015610c4e573d6000803e3d6000fd5b505050506040513d6020811015610c6457600080fd5b50516004811115610c7157fe5b1415610c81576102c483836153d0565b600160405160e060020a638a0cc0ed02815260206004820181815285516024840152855173__TicTacToeState________________________93638a0cc0ed9388939283926044019185019080838360005b83811015610ceb578181015183820152602001610cd3565b50505050905090810190601f168015610d185780820380516001836020036101000a031916815260200191505b509250505060206040518083038186803b158015610d3557600080fd5b505af4158015610d49573d6000803e3d6000fd5b505050506040513d6020811015610d5f57600080fd5b50516004811115610d6c57fe5b14156102cc576102c483836156db565b600460405160e060020a638a0cc0ed02815260206004820181815286516024840152865173__TicTacToeState________________________93638a0cc0ed9389939283926044019185019080838360005b83811015610de6578181015183820152602001610dce565b50505050905090810190601f168015610e135780820380516001836020036101000a031916815260200191505b509250505060206040518083038186803b158015610e3057600080fd5b505af4158015610e44573d6000803e3d6000fd5b505050506040513d6020811015610e5a57600080fd5b50516004811115610e6757fe5b141561106357600060405160e060020a638a0cc0ed02815260206004820181815285516024840152855173__TicTacToeState________________________93638a0cc0ed9388939283926044019185019080838360005b83811015610ed7578181015183820152602001610ebf565b50505050905090810190601f168015610f045780820380516001836020036101000a031916815260200191505b509250505060206040518083038186803b158015610f2157600080fd5b505af4158015610f35573d6000803e3d6000fd5b505050506040513d6020811015610f4b57600080fd5b50516004811115610f5857fe5b1415610f68576102c483836153d0565b600160405160e060020a638a0cc0ed02815260206004820181815285516024840152855173__TicTacToeState________________________93638a0cc0ed9388939283926044019185019080838360005b83811015610fd2578181015183820152602001610fba565b50505050905090810190601f168015610fff5780820380516001836020036101000a031916815260200191505b509250505060206040518083038186803b15801561101c57600080fd5b505af4158015611030573d6000803e3d6000fd5b505050506040513d602081101561104657600080fd5b5051600481111561105357fe5b1415611063576102c483836156db565b604080517f08c379a000000000000000000000000000000000000000000000000000000000815260206004820152602660248201527f436f756c64206e6f74206d6174636820746f20612076616c6964207472616e7360448201527f6974696f6e2e0000000000000000000000000000000000000000000000000000606482015290519081900360840190fd5b92915050565b60405160e060020a63bc53a0b902815260206004820181815283516024840152835173__TicTacToeState________________________9363bc53a0b99386939283926044019185019080838360005b8381101561115e578181015183820152602001611146565b50505050905090810190601f16801561118b5780820380516001836020036101000a031916815260200191505b509250505060206040518083038186803b1580156111a857600080fd5b505af41580156111bc573d6000803e3d6000fd5b505050506040513d60208110156111d257600080fd5b505161ffff16156111e257600080fd5b60405160e160020a6324fe539702815260206004820181815283516024840152835173__TicTacToeHelpers______________________93630fe61fb59373__TicTacToeState________________________936349fca72e93889391928392604401919085019080838360005b83811015611268578181015183820152602001611250565b50505050905090810190601f1680156112955780820380516001836020036101000a031916815260200191505b509250505060206040518083038186803b1580156112b257600080fd5b505af41580156112c6573d6000803e3d6000fd5b505050506040513d60208110156112dc57600080fd5b50516040805160e060020a63ffffffff851602815261ffff909216600483015260006024830152516044808301926020929190829003018186803b15801561132357600080fd5b505af4158015611337573d6000803e3d6000fd5b505050506040513d602081101561134d57600080fd5b5051151561135a57600080fd5b60405160e160020a63168f060102815260206004820181815284516024840152845173__TicTacToeState________________________93632d1e0c029387939283926044019185019080838360005b838110156113c25781810151838201526020016113aa565b50505050905090810190601f1680156113ef5780820380516001836020036101000a031916815260200191505b509250505060206040518083038186803b15801561140c57600080fd5b505af4158015611420573d6000803e3d6000fd5b505050506040513d602081101561143657600080fd5b505160405160e160020a63168f060102815260206004820181815284516024840152845173__TicTacToeState________________________93632d1e0c029387939283926044019185019080838360005b838110156114a0578181015183820152602001611488565b50505050905090810190601f1680156114cd5780820380516001836020036101000a031916815260200191505b509250505060206040518083038186803b1580156114ea57600080fd5b505af41580156114fe573d6000803e3d6000fd5b505050506040513d602081101561151457600080fd5b50511461152057600080fd5b60405160e160020a632dab59f702815260206004820181815283516024840152835173__State_________________________________93635b56b3ee9386939283926044019185019080838360005b83811015611588578181015183820152602001611570565b50505050905090810190601f1680156115b55780820380516001836020036101000a031916815260200191505b509250505060206040518083038186803b1580156115d257600080fd5b505af41580156115e6573d6000803e3d6000fd5b505050506040513d60208110156115fc57600080fd5b50511515611b615760405160e160020a63168f060102815260206004820181815283516024840152835173__TicTacToeState________________________93632d1e0c029386939283926044019185019080838360005b8381101561166c578181015183820152602001611654565b50505050905090810190601f1680156116995780820380516001836020036101000a031916815260200191505b509250505060206040518083038186803b1580156116b657600080fd5b505af41580156116ca573d6000803e3d6000fd5b505050506040513d60208110156116e057600080fd5b505160405160e060020a634c291ecd02815260206004820181815285516024840152855173__TicTacToeState________________________93634c291ecd9388939283926044019185019080838360005b8381101561174a578181015183820152602001611732565b50505050905090810190601f1680156117775780820380516001836020036101000a031916815260200191505b509250505060206040518083038186803b15801561179457600080fd5b505af41580156117a8573d6000803e3d6000fd5b505050506040513d60208110156117be57600080fd5b505160405160e060020a634c291ecd028152602060048201818152855160248401528551949093019373__TicTacToeState________________________93634c291ecd9387939192839260449092019185019080838360005b83811015611830578181015183820152602001611818565b50505050905090810190601f16801561185d5780820380516001836020036101000a031916815260200191505b509250505060206040518083038186803b15801561187a57600080fd5b505af415801561188e573d6000803e3d6000fd5b505050506040513d60208110156118a457600080fd5b5051146118b057600080fd5b60405160e160020a63168f060102815260206004820181815283516024840152835173__TicTacToeState________________________93632d1e0c029386939283926044019185019080838360005b83811015611918578181015183820152602001611900565b50505050905090810190601f1680156119455780820380516001836020036101000a031916815260200191505b509250505060206040518083038186803b15801561196257600080fd5b505af4158015611976573d6000803e3d6000fd5b505050506040513d602081101561198c57600080fd5b505160405160e060020a634e77b06302815260206004820181815285516024840152855173__TicTacToeState________________________93634e77b0639388939283926044019185019080838360005b838110156119f65781810151838201526020016119de565b50505050905090810190601f168015611a235780820380516001836020036101000a031916815260200191505b509250505060206040518083038186803b158015611a4057600080fd5b505af4158015611a54573d6000803e3d6000fd5b505050506040513d6020811015611a6a57600080fd5b505160405160e060020a634e77b063028152602060048201818152855160248401528551949093039373__TicTacToeState________________________93634e77b0639387939192839260449092019185019080838360005b83811015611adc578181015183820152602001611ac4565b50505050905090810190601f168015611b095780820380516001836020036101000a031916815260200191505b509250505060206040518083038186803b158015611b2657600080fd5b505af4158015611b3a573d6000803e3d6000fd5b505050506040513d6020811015611b5057600080fd5b505114611b5c57600080fd5b61219f565b60405160e160020a632dab59f702815260206004820181815283516024840152835173__State_________________________________93635b56b3ee9386939283926044019185019080838360005b83811015611bc9578181015183820152602001611bb1565b50505050905090810190601f168015611bf65780820380516001836020036101000a031916815260200191505b509250505060206040518083038186803b158015611c1357600080fd5b505af4158015611c27573d6000803e3d6000fd5b505050506040513d6020811015611c3d57600080fd5b50516001141561219f5760405160e160020a63168f060102815260206004820181815283516024840152835173__TicTacToeState________________________93632d1e0c029386939283926044019185019080838360005b83811015611caf578181015183820152602001611c97565b50505050905090810190601f168015611cdc5780820380516001836020036101000a031916815260200191505b509250505060206040518083038186803b158015611cf957600080fd5b505af4158015611d0d573d6000803e3d6000fd5b505050506040513d6020811015611d2357600080fd5b505160405160e060020a634c291ecd02815260206004820181815285516024840152855173__TicTacToeState________________________93634c291ecd9388939283926044019185019080838360005b83811015611d8d578181015183820152602001611d75565b50505050905090810190601f168015611dba5780820380516001836020036101000a031916815260200191505b509250505060206040518083038186803b158015611dd757600080fd5b505af4158015611deb573d6000803e3d6000fd5b505050506040513d6020811015611e0157600080fd5b505160405160e060020a634c291ecd028152602060048201818152855160248401528551949093039373__TicTacToeState________________________93634c291ecd9387939192839260449092019185019080838360005b83811015611e73578181015183820152602001611e5b565b50505050905090810190601f168015611ea05780820380516001836020036101000a031916815260200191505b509250505060206040518083038186803b158015611ebd57600080fd5b505af4158015611ed1573d6000803e3d6000fd5b505050506040513d6020811015611ee757600080fd5b505114611ef357600080fd5b60405160e160020a63168f060102815260206004820181815283516024840152835173__TicTacToeState________________________93632d1e0c029386939283926044019185019080838360005b83811015611f5b578181015183820152602001611f43565b50505050905090810190601f168015611f885780820380516001836020036101000a031916815260200191505b509250505060206040518083038186803b158015611fa557600080fd5b505af4158015611fb9573d6000803e3d6000fd5b505050506040513d6020811015611fcf57600080fd5b505160405160e060020a634e77b06302815260206004820181815285516024840152855173__TicTacToeState________________________93634e77b0639388939283926044019185019080838360005b83811015612039578181015183820152602001612021565b50505050905090810190601f1680156120665780820380516001836020036101000a031916815260200191505b509250505060206040518083038186803b15801561208357600080fd5b505af4158015612097573d6000803e3d6000fd5b505050506040513d60208110156120ad57600080fd5b505160405160e060020a634e77b063028152602060048201818152855160248401528551949093019373__TicTacToeState________________________93634e77b0639387939192839260449092019185019080838360005b8381101561211f578181015183820152602001612107565b50505050905090810190601f16801561214c5780820380516001836020036101000a031916815260200191505b509250505060206040518083038186803b15801561216957600080fd5b505af415801561217d573d6000803e3d6000fd5b505050506040513d602081101561219357600080fd5b50511461219f57600080fd5b5050565b60405160e160020a63168f060102815260206004820181815284516024840152845173__TicTacToeState________________________93632d1e0c029387939283926044019185019080838360005b8381101561220b5781810151838201526020016121f3565b50505050905090810190601f1680156122385780820380516001836020036101000a031916815260200191505b509250505060206040518083038186803b15801561225557600080fd5b505af4158015612269573d6000803e3d6000fd5b505050506040513d602081101561227f57600080fd5b505160405160e160020a63168f060102815260206004820181815284516024840152845173__TicTacToeState________________________93632d1e0c029387939283926044019185019080838360005b838110156122e95781810151838201526020016122d1565b50505050905090810190601f1680156123165780820380516001836020036101000a031916815260200191505b509250505060206040518083038186803b15801561233357600080fd5b505af4158015612347573d6000803e3d6000fd5b505050506040513d602081101561235d57600080fd5b50511461236957600080fd5b60405160e060020a63bc53a0b902815260206004820181815283516024840152835173__TicTacToeHelpers______________________93630fe61fb59373__TicTacToeState________________________9363bc53a0b993889391928392604401919085019080838360005b838110156123ef5781810151838201526020016123d7565b50505050905090810190601f16801561241c5780820380516001836020036101000a031916815260200191505b509250505060206040518083038186803b15801561243957600080fd5b505af415801561244d573d6000803e3d6000fd5b505050506040513d602081101561246357600080fd5b505160405160e060020a63bc53a0b902815260206004820181815287516024840152875173__TicTacToeState________________________9363bc53a0b9938a939283926044019185019080838360005b838110156124cd5781810151838201526020016124b5565b50505050905090810190601f1680156124fa5780820380516001836020036101000a031916815260200191505b509250505060206040518083038186803b15801561251757600080fd5b505af415801561252b573d6000803e3d6000fd5b505050506040513d602081101561254157600080fd5b50516040805160e060020a63ffffffff861602815261ffff9384166004820152929091166024830152516044808301926020929190829003018186803b15801561258a57600080fd5b505af415801561259e573d6000803e3d6000fd5b505050506040513d60208110156125b457600080fd5b505115156125c157600080fd5b60405160e160020a6324fe539702815260206004820181815284516024840152845173__TicTacToeState________________________936349fca72e9387939283926044019185019080838360005b83811015612629578181015183820152602001612611565b50505050905090810190601f1680156126565780820380516001836020036101000a031916815260200191505b509250505060206040518083038186803b15801561267357600080fd5b505af4158015612687573d6000803e3d6000fd5b505050506040513d602081101561269d57600080fd5b505160405160e160020a6324fe539702815260206004820181815284516024840152845161ffff9094169373__TicTacToeState________________________936349fca72e9387939283926044019185019080838360005b8381101561270e5781810151838201526020016126f6565b50505050905090810190601f16801561273b5780820380516001836020036101000a031916815260200191505b509250505060206040518083038186803b15801561275857600080fd5b505af415801561276c573d6000803e3d6000fd5b505050506040513d602081101561278257600080fd5b505161ffff161461279257600080fd5b60405160e160020a632dab59f702815260206004820181815283516024840152835173__State_________________________________93635b56b3ee9386939283926044019185019080838360005b838110156127fa5781810151838201526020016127e2565b50505050905090810190601f1680156128275780820380516001836020036101000a031916815260200191505b509250505060206040518083038186803b15801561284457600080fd5b505af4158015612858573d6000803e3d6000fd5b505050506040513d602081101561286e57600080fd5b50511515612c735760405160e160020a63168f060102815260206004820181815283516024840152835173__TicTacToeState________________________93632d1e0c029386939283926044019185019080838360005b838110156128de5781810151838201526020016128c6565b50505050905090810190601f16801561290b5780820380516001836020036101000a031916815260200191505b509250505060206040518083038186803b15801561292857600080fd5b505af415801561293c573d6000803e3d6000fd5b505050506040513d602081101561295257600080fd5b505160405160e060020a634c291ecd02815260206004820181815285516024840152855160029094029373__TicTacToeState________________________93634c291ecd9388939283926044019185019080838360005b838110156129c25781810151838201526020016129aa565b50505050905090810190601f1680156129ef5780820380516001836020036101000a031916815260200191505b509250505060206040518083038186803b158015612a0c57600080fd5b505af4158015612a20573d6000803e3d6000fd5b505050506040513d6020811015612a3657600080fd5b505160405160e060020a634c291ecd028152602060048201818152855160248401528551949093019373__TicTacToeState________________________93634c291ecd9387939192839260449092019185019080838360005b83811015612aa8578181015183820152602001612a90565b50505050905090810190601f168015612ad55780820380516001836020036101000a031916815260200191505b509250505060206040518083038186803b158015612af257600080fd5b505af4158015612b06573d6000803e3d6000fd5b505050506040513d6020811015612b1c57600080fd5b505114612b2857600080fd5b60405160e160020a63168f060102815260206004820181815283516024840152835173__TicTacToeState________________________93632d1e0c029386939283926044019185019080838360005b83811015612b90578181015183820152602001612b78565b50505050905090810190601f168015612bbd5780820380516001836020036101000a031916815260200191505b509250505060206040518083038186803b158015612bda57600080fd5b505af4158015612bee573d6000803e3d6000fd5b505050506040513d6020811015612c0457600080fd5b505160405160e060020a634e77b06302815260206004820181815285516024840152855160029094029373__TicTacToeState________________________93634e77b063938893928392604401918501908083836000838110156119f65781810151838201526020016119de565b60405160e160020a632dab59f702815260206004820181815283516024840152835173__State_________________________________93635b56b3ee9386939283926044019185019080838360005b83811015612cdb578181015183820152602001612cc3565b50505050905090810190601f168015612d085780820380516001836020036101000a031916815260200191505b509250505060206040518083038186803b158015612d2557600080fd5b505af4158015612d39573d6000803e3d6000fd5b505050506040513d6020811015612d4f57600080fd5b50516001141561219f5760405160e160020a63168f060102815260206004820181815283516024840152835173__TicTacToeState________________________93632d1e0c029386939283926044019185019080838360005b83811015612dc1578181015183820152602001612da9565b50505050905090810190601f168015612dee5780820380516001836020036101000a031916815260200191505b509250505060206040518083038186803b158015612e0b57600080fd5b505af4158015612e1f573d6000803e3d6000fd5b505050506040513d6020811015612e3557600080fd5b505160405160e060020a634c291ecd02815260206004820181815285516024840152855160029094029373__TicTacToeState________________________93634c291ecd9388939283926044019185019080838360005b83811015612ea5578181015183820152602001612e8d565b50505050905090810190601f168015612ed25780820380516001836020036101000a031916815260200191505b509250505060206040518083038186803b158015612eef57600080fd5b505af4158015612f03573d6000803e3d6000fd5b505050506040513d6020811015612f1957600080fd5b505160405160e060020a634c291ecd028152602060048201818152855160248401528551949093039373__TicTacToeState________________________93634c291ecd9387939192839260449092019185019080838360005b83811015612f8b578181015183820152602001612f73565b50505050905090810190601f168015612fb85780820380516001836020036101000a031916815260200191505b509250505060206040518083038186803b158015612fd557600080fd5b505af4158015612fe9573d6000803e3d6000fd5b505050506040513d6020811015612fff57600080fd5b50511461300b57600080fd5b60405160e160020a63168f060102815260206004820181815283516024840152835173__TicTacToeState________________________93632d1e0c029386939283926044019185019080838360005b8381101561307357818101518382015260200161305b565b50505050905090810190601f1680156130a05780820380516001836020036101000a031916815260200191505b509250505060206040518083038186803b1580156130bd57600080fd5b505af41580156130d1573d6000803e3d6000fd5b505050506040513d60208110156130e757600080fd5b505160405160e060020a634e77b06302815260206004820181815285516024840152855160029094029373__TicTacToeState________________________93634e77b06393889392839260440191850190808383600083811015612039578181015183820152602001612021565b60405160e060020a63bc53a0b902815260206004820181815283516024840152835173__TicTacToeHelpers______________________93634b45b73f9373__TicTacToeState________________________9363bc53a0b993889391928392604401919085019080838360005b838110156131dc5781810151838201526020016131c4565b50505050905090810190601f1680156132095780820380516001836020036101000a031916815260200191505b509250505060206040518083038186803b15801561322657600080fd5b505af415801561323a573d6000803e3d6000fd5b505050506040513d602081101561325057600080fd5b50516040805160e060020a63ffffffff851602815261ffff9092166004830152516024808301926020929190829003018186803b15801561329057600080fd5b505af41580156132a4573d6000803e3d6000fd5b505050506040513d60208110156132ba57600080fd5b5051151561236957600080fd5b60405160e060020a63bc53a0b902815260206004820181815284516024840152845173__TicTacToeState________________________9363bc53a0b99387939283926044019185019080838360005b8381101561332f578181015183820152602001613317565b50505050905090810190601f16801561335c5780820380516001836020036101000a031916815260200191505b509250505060206040518083038186803b15801561337957600080fd5b505af415801561338d573d6000803e3d6000fd5b505050506040513d60208110156133a357600080fd5b505161ffff16156133b357600080fd5b60405160e160020a632dab59f702815260206004820181815283516024840152835173__State_________________________________93635b56b3ee9386939283926044019185019080838360005b8381101561341b578181015183820152602001613403565b50505050905090810190601f1680156134485780820380516001836020036101000a031916815260200191505b509250505060206040518083038186803b15801561346557600080fd5b505af4158015613479573d6000803e3d6000fd5b505050506040513d602081101561348f57600080fd5b505115156137aa5760405160e160020a63168f060102815260206004820181815284516024840152845173__TicTacToeState________________________93632d1e0c029387939283926044019185019080838360005b838110156134ff5781810151838201526020016134e7565b50505050905090810190601f16801561352c5780820380516001836020036101000a031916815260200191505b509250505060206040518083038186803b15801561354957600080fd5b505af415801561355d573d6000803e3d6000fd5b505050506040513d602081101561357357600080fd5b505160405160e060020a634c291ecd02815260206004820181815285516024840152855173__TicTacToeState________________________93634c291ecd9388939283926044019185019080838360005b838110156135dd5781810151838201526020016135c5565b50505050905090810190601f16801561360a5780820380516001836020036101000a031916815260200191505b509250505060206040518083038186803b15801561362757600080fd5b505af415801561363b573d6000803e3d6000fd5b505050506040513d602081101561365157600080fd5b505160405160e060020a634c291ecd028152602060048201818152855160248401528551949093019373__TicTacToeState________________________93634c291ecd9387939192839260449092019185019080838360005b838110156136c35781810151838201526020016136ab565b50505050905090810190601f1680156136f05780820380516001836020036101000a031916815260200191505b509250505060206040518083038186803b15801561370d57600080fd5b505af4158015613721573d6000803e3d6000fd5b505050506040513d602081101561373757600080fd5b50511461374357600080fd5b60405160e160020a63168f060102815260206004820181815284516024840152845173__TicTacToeState________________________93632d1e0c0293879392839260440191850190808383600083811015611918578181015183820152602001611900565b60405160e160020a632dab59f702815260206004820181815283516024840152835173__State_________________________________93635b56b3ee9386939283926044019185019080838360005b838110156138125781810151838201526020016137fa565b50505050905090810190601f16801561383f5780820380516001836020036101000a031916815260200191505b509250505060206040518083038186803b15801561385c57600080fd5b505af4158015613870573d6000803e3d6000fd5b505050506040513d602081101561388657600080fd5b50516001141561219f5760405160e160020a63168f060102815260206004820181815284516024840152845173__TicTacToeState________________________93632d1e0c029387939283926044019185019080838360005b838110156138f85781810151838201526020016138e0565b50505050905090810190601f1680156139255780820380516001836020036101000a031916815260200191505b509250505060206040518083038186803b15801561394257600080fd5b505af4158015613956573d6000803e3d6000fd5b505050506040513d602081101561396c57600080fd5b505160405160e060020a634c291ecd02815260206004820181815285516024840152855173__TicTacToeState________________________93634c291ecd9388939283926044019185019080838360005b838110156139d65781810151838201526020016139be565b50505050905090810190601f168015613a035780820380516001836020036101000a031916815260200191505b509250505060206040518083038186803b158015613a2057600080fd5b505af4158015613a34573d6000803e3d6000fd5b505050506040513d6020811015613a4a57600080fd5b505160405160e060020a634c291ecd028152602060048201818152855160248401528551949093039373__TicTacToeState________________________93634c291ecd9387939192839260449092019185019080838360005b83811015613abc578181015183820152602001613aa4565b50505050905090810190601f168015613ae95780820380516001836020036101000a031916815260200191505b509250505060206040518083038186803b158015613b0657600080fd5b505af4158015613b1a573d6000803e3d6000fd5b505050506040513d6020811015613b3057600080fd5b505114613b3c57600080fd5b60405160e160020a63168f060102815260206004820181815284516024840152845173__TicTacToeState________________________93632d1e0c0293879392839260440191850190808383600083811015611f5b578181015183820152602001611f43565b60405160e160020a6324fe539702815260206004820181815283516024840152835173__TicTacToeHelpers______________________93630fe61fb59373__TicTacToeState________________________936349fca72e93889391928392604401919085019080838360005b83811015613c29578181015183820152602001613c11565b50505050905090810190601f168015613c565780820380516001836020036101000a031916815260200191505b509250505060206040518083038186803b158015613c7357600080fd5b505af4158015613c87573d6000803e3d6000fd5b505050506040513d6020811015613c9d57600080fd5b505160405160e160020a6324fe539702815260206004820181815287516024840152875173__TicTacToeState________________________936349fca72e938a939283926044019185019080838360005b83811015613d07578181015183820152602001613cef565b50505050905090810190601f168015613d345780820380516001836020036101000a031916815260200191505b509250505060206040518083038186803b158015613d5157600080fd5b505af4158015613d65573d6000803e3d6000fd5b505050506040513d6020811015613d7b57600080fd5b50516040805160e060020a63ffffffff861602815261ffff9384166004820152929091166024830152516044808301926020929190829003018186803b158015613dc457600080fd5b505af4158015613dd8573d6000803e3d6000fd5b505050506040513d6020811015613dee57600080fd5b50511515613dfb57600080fd5b60405160e060020a63bc53a0b902815260206004820181815284516024840152845173__TicTacToeState________________________9363bc53a0b99387939283926044019185019080838360005b83811015613e63578181015183820152602001613e4b565b50505050905090810190601f168015613e905780820380516001836020036101000a031916815260200191505b509250505060206040518083038186803b158015613ead57600080fd5b505af4158015613ec1573d6000803e3d6000fd5b505050506040513d6020811015613ed757600080fd5b505160405160e060020a63bc53a0b902815260206004820181815284516024840152845161ffff9094169373__TicTacToeState________________________9363bc53a0b99387939283926044019185019080838360008381101561270e5781810151838201526020016126f6565b60405160e160020a6324fe539702815260206004820181815283516024840152835173__TicTacToeHelpers______________________93634b45b73f9373__TicTacToeState________________________936349fca72e93889391928392604401919085019080838360005b83811015613fcd578181015183820152602001613fb5565b50505050905090810190601f168015613ffa5780820380516001836020036101000a031916815260200191505b509250505060206040518083038186803b15801561401757600080fd5b505af415801561402b573d6000803e3d6000fd5b505050506040513d602081101561404157600080fd5b50516040805160e060020a63ffffffff851602815261ffff9092166004830152516024808301926020929190829003018186803b15801561408157600080fd5b505af4158015614095573d6000803e3d6000fd5b505050506040513d60208110156140ab57600080fd5b50511515613ba357600080fd5b60405160e060020a63bc53a0b902815260206004820181815283516024840152835173__TicTacToeHelpers______________________9363f94d075a9373__TicTacToeState________________________9363bc53a0b993889391928392604401919085019080838360005b8381101561413e578181015183820152602001614126565b50505050905090810190601f16801561416b5780820380516001836020036101000a031916815260200191505b509250505060206040518083038186803b15801561418857600080fd5b505af415801561419c573d6000803e3d6000fd5b505050506040513d60208110156141b257600080fd5b505160405160e160020a6324fe539702815260206004820181815286516024840152865173__TicTacToeState________________________936349fca72e9389939283926044019185019080838360005b8381101561421c578181015183820152602001614204565b50505050905090810190601f1680156142495780820380516001836020036101000a031916815260200191505b509250505060206040518083038186803b15801561426657600080fd5b505af415801561427a573d6000803e3d6000fd5b505050506040513d602081101561429057600080fd5b50516040805160e060020a63ffffffff861602815261ffff9384166004820152929091166024830152516044808301926020929190829003018186803b1580156142d957600080fd5b505af41580156142ed573d6000803e3d6000fd5b505050506040513d602081101561430357600080fd5b5051151561431057600080fd5b60405160e160020a632dab59f702815260206004820181815283516024840152835173__State_________________________________93635b56b3ee9386939283926044019185019080838360005b83811015614378578181015183820152602001614360565b50505050905090810190601f1680156143a55780820380516001836020036101000a031916815260200191505b509250505060206040518083038186803b1580156143c257600080fd5b505af41580156143d6573d6000803e3d6000fd5b505050506040513d60208110156143ec57600080fd5b5051151561495d5760405160e160020a63168f060102815260206004820181815283516024840152835173__TicTacToeState________________________93632d1e0c029386939283926044019185019080838360005b8381101561445c578181015183820152602001614444565b50505050905090810190601f1680156144895780820380516001836020036101000a031916815260200191505b509250505060206040518083038186803b1580156144a657600080fd5b505af41580156144ba573d6000803e3d6000fd5b505050506040513d60208110156144d057600080fd5b505160405160e060020a634c291ecd02815260206004820181815285516024840152855160029094029373__TicTacToeState________________________93634c291ecd9388939283926044019185019080838360005b83811015614540578181015183820152602001614528565b50505050905090810190601f16801561456d5780820380516001836020036101000a031916815260200191505b509250505060206040518083038186803b15801561458a57600080fd5b505af415801561459e573d6000803e3d6000fd5b505050506040513d60208110156145b457600080fd5b505160405160e060020a634c291ecd028152602060048201818152855160248401528551949093019373__TicTacToeState________________________93634c291ecd9387939192839260449092019185019080838360005b8381101561462657818101518382015260200161460e565b50505050905090810190601f1680156146535780820380516001836020036101000a031916815260200191505b509250505060206040518083038186803b15801561467057600080fd5b505af4158015614684573d6000803e3d6000fd5b505050506040513d602081101561469a57600080fd5b5051146146a657600080fd5b60405160e160020a63168f060102815260206004820181815283516024840152835173__TicTacToeState________________________93632d1e0c029386939283926044019185019080838360005b8381101561470e5781810151838201526020016146f6565b50505050905090810190601f16801561473b5780820380516001836020036101000a031916815260200191505b509250505060206040518083038186803b15801561475857600080fd5b505af415801561476c573d6000803e3d6000fd5b505050506040513d602081101561478257600080fd5b505160405160e060020a634e77b06302815260206004820181815285516024840152855160029094029373__TicTacToeState________________________93634e77b0639388939283926044019185019080838360005b838110156147f25781810151838201526020016147da565b50505050905090810190601f16801561481f5780820380516001836020036101000a031916815260200191505b509250505060206040518083038186803b15801561483c57600080fd5b505af4158015614850573d6000803e3d6000fd5b505050506040513d602081101561486657600080fd5b505160405160e060020a634e77b063028152602060048201818152855160248401528551949093039373__TicTacToeState________________________93634e77b0639387939192839260449092019185019080838360005b838110156148d85781810151838201526020016148c0565b50505050905090810190601f1680156149055780820380516001836020036101000a031916815260200191505b509250505060206040518083038186803b15801561492257600080fd5b505af4158015614936573d6000803e3d6000fd5b505050506040513d602081101561494c57600080fd5b50511461495857600080fd5b614fa7565b60405160e160020a632dab59f702815260206004820181815283516024840152835173__State_________________________________93635b56b3ee9386939283926044019185019080838360005b838110156149c55781810151838201526020016149ad565b50505050905090810190601f1680156149f25780820380516001836020036101000a031916815260200191505b509250505060206040518083038186803b158015614a0f57600080fd5b505af4158015614a23573d6000803e3d6000fd5b505050506040513d6020811015614a3957600080fd5b505160011415614fa75760405160e160020a63168f060102815260206004820181815283516024840152835173__TicTacToeState________________________93632d1e0c029386939283926044019185019080838360005b83811015614aab578181015183820152602001614a93565b50505050905090810190601f168015614ad85780820380516001836020036101000a031916815260200191505b509250505060206040518083038186803b158015614af557600080fd5b505af4158015614b09573d6000803e3d6000fd5b505050506040513d6020811015614b1f57600080fd5b505160405160e060020a634c291ecd02815260206004820181815285516024840152855160029094029373__TicTacToeState________________________93634c291ecd9388939283926044019185019080838360005b83811015614b8f578181015183820152602001614b77565b50505050905090810190601f168015614bbc5780820380516001836020036101000a031916815260200191505b509250505060206040518083038186803b158015614bd957600080fd5b505af4158015614bed573d6000803e3d6000fd5b505050506040513d6020811015614c0357600080fd5b505160405160e060020a634c291ecd028152602060048201818152855160248401528551949093039373__TicTacToeState________________________93634c291ecd9387939192839260449092019185019080838360005b83811015614c75578181015183820152602001614c5d565b50505050905090810190601f168015614ca25780820380516001836020036101000a031916815260200191505b509250505060206040518083038186803b158015614cbf57600080fd5b505af4158015614cd3573d6000803e3d6000fd5b505050506040513d6020811015614ce957600080fd5b505114614cf557600080fd5b60405160e160020a63168f060102815260206004820181815283516024840152835173__TicTacToeState________________________93632d1e0c029386939283926044019185019080838360005b83811015614d5d578181015183820152602001614d45565b50505050905090810190601f168015614d8a5780820380516001836020036101000a031916815260200191505b509250505060206040518083038186803b158015614da757600080fd5b505af4158015614dbb573d6000803e3d6000fd5b505050506040513d6020811015614dd157600080fd5b505160405160e060020a634e77b06302815260206004820181815285516024840152855160029094029373__TicTacToeState________________________93634e77b0639388939283926044019185019080838360005b83811015614e41578181015183820152602001614e29565b50505050905090810190601f168015614e6e5780820380516001836020036101000a031916815260200191505b509250505060206040518083038186803b158015614e8b57600080fd5b505af4158015614e9f573d6000803e3d6000fd5b505050506040513d6020811015614eb557600080fd5b505160405160e060020a634e77b063028152602060048201818152855160248401528551949093019373__TicTacToeState________________________93634e77b0639387939192839260449092019185019080838360005b83811015614f27578181015183820152602001614f0f565b50505050905090810190601f168015614f545780820380516001836020036101000a031916815260200191505b509250505060206040518083038186803b158015614f7157600080fd5b505af4158015614f85573d6000803e3d6000fd5b505050506040513d6020811015614f9b57600080fd5b505114614fa757600080fd5b60405160e160020a6324fe539702815260206004820181815283516024840152835173__TicTacToeHelpers______________________93630fe61fb59373__TicTacToeState________________________936349fca72e93889391928392604401919085019080838360005b8381101561502d578181015183820152602001615015565b50505050905090810190601f16801561505a5780820380516001836020036101000a031916815260200191505b509250505060206040518083038186803b15801561507757600080fd5b505af415801561508b573d6000803e3d6000fd5b505050506040513d60208110156150a157600080fd5b505160405160e160020a6324fe539702815260206004820181815287516024840152875173__TicTacToeState________________________936349fca72e938a939283926044019185019080838360005b8381101561510b5781810151838201526020016150f3565b50505050905090810190601f1680156151385780820380516001836020036101000a031916815260200191505b509250505060206040518083038186803b15801561515557600080fd5b505af4158015615169573d6000803e3d6000fd5b505050506040513d602081101561517f57600080fd5b50516040805160e060020a63ffffffff861602815261ffff9384166004820152929091166024830152516044808301926020929190829003018186803b1580156151c857600080fd5b505af41580156151dc573d6000803e3d6000fd5b505050506040513d60208110156151f257600080fd5b505115156151ff57600080fd5b60405160e060020a63bc53a0b902815260206004820181815284516024840152845173__TicTacToeState________________________9363bc53a0b99387939283926044019185019080838360005b8381101561526757818101518382015260200161524f565b50505050905090810190601f1680156152945780820380516001836020036101000a031916815260200191505b509250505060206040518083038186803b1580156152b157600080fd5b505af41580156152c5573d6000803e3d6000fd5b505050506040513d60208110156152db57600080fd5b505160405160e060020a63bc53a0b902815260206004820181815284516024840152845161ffff9094169373__TicTacToeState________________________9363bc53a0b99387939283926044019185019080838360005b8381101561534c578181015183820152602001615334565b50505050905090810190601f1680156153795780820380516001836020036101000a031916815260200191505b509250505060206040518083038186803b15801561539657600080fd5b505af41580156153aa573d6000803e3d6000fd5b505050506040513d60208110156153c057600080fd5b505161ffff161461219f57600080fd5b60405160e060020a634c291ecd02815260206004820181815284516024840152845173__TicTacToeState________________________93634c291ecd9387939283926044019185019080838360005b83811015615438578181015183820152602001615420565b50505050905090810190601f1680156154655780820380516001836020036101000a031916815260200191505b509250505060206040518083038186803b15801561548257600080fd5b505af4158015615496573d6000803e3d6000fd5b505050506040513d60208110156154ac57600080fd5b505160405160e060020a634c291ecd02815260206004820181815284516024840152845173__TicTacToeState________________________93634c291ecd9387939283926044019185019080838360005b838110156155165781810151838201526020016154fe565b50505050905090810190601f1680156155435780820380516001836020036101000a031916815260200191505b509250505060206040518083038186803b15801561556057600080fd5b505af4158015615574573d6000803e3d6000fd5b505050506040513d602081101561558a57600080fd5b50511461559657600080fd5b60405160e060020a634e77b06302815260206004820181815284516024840152845173__TicTacToeState________________________93634e77b0639387939283926044019185019080838360005b838110156155fe5781810151838201526020016155e6565b50505050905090810190601f16801561562b5780820380516001836020036101000a031916815260200191505b509250505060206040518083038186803b15801561564857600080fd5b505af415801561565c573d6000803e3d6000fd5b505050506040513d602081101561567257600080fd5b505160405160e060020a634e77b06302815260206004820181815284516024840152845173__TicTacToeState________________________93634e77b0639387939283926044019185019080838360008381101561211f578181015183820152602001612107565b60405160e060020a634c291ecd02815260206004820181815284516024840152845173__TicTacToeState________________________93634c291ecd9387939283926044019185019080838360005b8381101561574357818101518382015260200161572b565b50505050905090810190601f1680156157705780820380516001836020036101000a031916815260200191505b509250505060206040518083038186803b15801561578d57600080fd5b505af41580156157a1573d6000803e3d6000fd5b505050506040513d60208110156157b757600080fd5b505160405160e060020a634c291ecd02815260206004820181815284516024840152845173__TicTacToeState________________________93634c291ecd9387939283926044019185019080838360005b83811015615821578181015183820152602001615809565b50505050905090810190601f16801561584e5780820380516001836020036101000a031916815260200191505b509250505060206040518083038186803b15801561586b57600080fd5b505af415801561587f573d6000803e3d6000fd5b505050506040513d602081101561589557600080fd5b5051146158a157600080fd5b60405160e060020a634e77b06302815260206004820181815284516024840152845173__TicTacToeState________________________93634e77b0639387939283926044019185019080838360005b838110156159095781810151838201526020016158f1565b50505050905090810190601f1680156159365780820380516001836020036101000a031916815260200191505b509250505060206040518083038186803b15801561595357600080fd5b505af4158015615967573d6000803e3d6000fd5b505050506040513d602081101561597d57600080fd5b505160405160e060020a634e77b06302815260206004820181815284516024840152845173__TicTacToeState________________________93634e77b0639387939283926044019185019080838360005b838110156159e75781810151838201526020016159cf565b50505050905090810190601f168015615a145780820380516001836020036101000a031916815260200191505b509250505060206040518083038186803b158015615a3157600080fd5b505af4158015615a45573d6000803e3d6000fd5b505050506040513d6020811015615a5b57600080fd5b505114615a6757600080fd5b60405160e060020a63bc53a0b902815260206004820181815283516024840152835173__TicTacToeState________________________9363bc53a0b99386939283926044019185019080838360005b83811015615acf578181015183820152602001615ab7565b50505050905090810190601f168015615afc5780820380516001836020036101000a031916815260200191505b509250505060206040518083038186803b158015615b1957600080fd5b505af4158015615b2d573d6000803e3d6000fd5b505050506040513d6020811015615b4357600080fd5b505161ffff1615615b5357600080fd5b60405160e160020a6324fe539702815260206004820181815283516024840152835173__TicTacToeHelpers______________________93630fe61fb59373__TicTacToeState________________________936349fca72e93889391928392604401919085019080838360005b83811015615bd9578181015183820152602001615bc1565b50505050905090810190601f168015615c065780820380516001836020036101000a031916815260200191505b509250505060206040518083038186803b158015615c2357600080fd5b505af4158015615c37573d6000803e3d6000fd5b505050506040513d6020811015615c4d57600080fd5b50516040805160e060020a63ffffffff851602815261ffff909216600483015260006024830152516044808301926020929190829003018186803b158015615c9457600080fd5b505af4158015615ca8573d6000803e3d6000fd5b505050506040513d6020811015615cbe57600080fd5b5051151561219f57600080fd00a165627a7a72305820251207ebd5a7dfcb208220ffd524952632375379fd5ea3606dc78bef9c8953450029",
  "source": "pragma solidity ^0.4.18;\n\nimport \"fmg-core/contracts/State.sol\";\nimport \"./TicTacToeState.sol\";\nimport { TicTacToeHelpers } from \"./TicTacToeHelpers.sol\";\n\ncontract TicTacToeGame {\n    using TicTacToeState for bytes;\n\n    // require() messages we will incur n * 20,000 gas for each error message used, where n is the number of 32 byte slots it takes up\n    // https://github.com/ethereum/solidity/issues/4588\n\n    \n    // The following transitions are allowed:\n    //\n    // Rest    -> Xplaying\n    // Rest    -> Conclude but Conclude is an FMG position -- does it belong here?\n    //\n    // Xplaying -> Oplaying\n    // Xplaying -> Victory\n    // cannot get to draw (X is always completing the board because X goes first) remember we are transitioning *from* Xplay, so noughts are making the new marks\n    // Xplaying -> Resting (\"noughts\" player rejects game)\n    //\n    // Oplaying -> Xplaying\n    // Oplaying -> Victory\n    // Oplaying -> Draw\n\n    //\n    // Victory -> Rest\n    // Victory -> Xplaying\n    //\n    // Draw    -> Rest\n    // Draw    -> Xplaying\n    //\n\n    function validTransition(bytes _old, bytes _new) public pure returns (bool) {\n\n        if (_old.positionType() == TicTacToeState.PositionType.Rest) {\n            if (_new.positionType() == TicTacToeState.PositionType.Xplaying) {\n\n                validateRestToXplaying(_old, _new);\n\n                return true;\n\n            } \n        } else if (_old.positionType() == TicTacToeState.PositionType.Xplaying) {\n\n            if (_new.positionType() == TicTacToeState.PositionType.Oplaying) {\n\n                validateXplayingToOplaying(_old, _new);\n\n                return true;\n\n            } else if (_new.positionType() == TicTacToeState.PositionType.Victory) {\n\n                validateXplayingToVictory(_old, _new);\n\n                return true;\n\n            } else if (_new.positionType() == TicTacToeState.PositionType.Rest) {\n\n                validateXplayingToRest(_old, _new);\n\n                return true;\n              }\n        } else if (_old.positionType() == TicTacToeState.PositionType.Oplaying) {\n\n            if (_new.positionType() == TicTacToeState.PositionType.Xplaying) {\n\n                validateOplayingToXplaying(_old, _new);\n\n                return true;\n\n            } else if (_new.positionType() == TicTacToeState.PositionType.Victory) {\n\n                validateOplayingToVictory(_old, _new);\n\n                return true;\n\n            } else if (_new.positionType() == TicTacToeState.PositionType.Draw) {\n\n                validateOplayingToDraw(_old, _new);\n\n                return true;\n            \n            }\n        } else if (_old.positionType() == TicTacToeState.PositionType.Victory) {\n\n            if (_new.positionType() == TicTacToeState.PositionType.Rest) {\n\n                validateVictoryToRest(_old, _new);\n\n                return true;\n\n            } else if (_new.positionType() == TicTacToeState.PositionType.Xplaying) {\n\n                validateVictoryToXplaying(_old, _new);\n\n                return true;\n\n            }\n        } else if (_old.positionType() == TicTacToeState.PositionType.Draw) {\n\n            if (_new.positionType() == TicTacToeState.PositionType.Rest) {\n\n                validateDrawToRest(_old, _new);\n\n                return true;\n\n            } else if (_new.positionType() == TicTacToeState.PositionType.Xplaying) {\n\n                validateDrawToXplaying(_old, _new);\n\n                return true;\n\n            }\n        } \n        revert(\"Could not match to a valid transition.\");\n        // return false;\n    }\n\n    // transition validations\n\n    function validateRestToXplaying(bytes _old, bytes _new) private pure {\n        require(_new.noughts() == 0);\n        require(TicTacToeHelpers.madeStrictlyOneMark(_new.crosses(),0)); // Xs moves first\n        require(_new.stake() == _old.stake());\n        if (State.indexOfMover(_new) == 0) { // mover is A\n            require(_new.aResolution() == _old.aResolution() + _new.stake());\n            require(_new.bResolution() == _old.bResolution() - _new.stake());\n        } else if (State.indexOfMover(_new) == 1) { // mover is B\n            require(_new.aResolution() == _old.aResolution() - _new.stake());\n            require(_new.bResolution() == _old.bResolution() + _new.stake());\n        }\n    }\n\n    function validateRestToConcluded(bytes _old, bytes _new) private pure {\n        require(_new.aResolution() == _old.aResolution());\n        require(_new.bResolution() == _old.bResolution());\n    }\n\n    function validateXplayingToOplaying(bytes _old, bytes _new) private pure {\n        require(_new.stake() == _old.stake());\n        require(TicTacToeHelpers.madeStrictlyOneMark(_new.noughts(), _old.noughts()));\n        require((_new.crosses() == _old.crosses()));   \n        if (State.indexOfMover(_new) == 0) { // mover is A\n            require(_new.aResolution() == _old.aResolution() + 2 * _new.stake()); \n            require(_new.bResolution() == _old.bResolution() - 2 * _new.stake());\n        } else if (State.indexOfMover(_new) == 1) { // mover is B\n            require(_new.aResolution() == _old.aResolution() - 2 * _new.stake());\n            require(_new.bResolution() == _old.bResolution() + 2 * _new.stake());\n            // note factor of 2 to swing fully to other player\n        } \n    }\n    \n    function validateXplayingToVictory(bytes _old, bytes _new) private pure {\n        require(TicTacToeHelpers.hasWon(_new.noughts()));\n        require(TicTacToeHelpers.madeStrictlyOneMark(_new.noughts(), _old.noughts()));\n        require((_new.crosses() == _old.crosses()));   \n        if (State.indexOfMover(_new) == 0) { // mover is A\n            require(_new.aResolution() == _old.aResolution() + 2 * _new.stake());\n            require(_new.bResolution() == _old.bResolution() - 2 * _new.stake());\n        } else if (State.indexOfMover(_new) == 1) { // mover is B\n            require(_new.aResolution() == _old.aResolution() - 2 * _new.stake());\n            require(_new.bResolution() == _old.bResolution() + 2 * _new.stake());\n        } // mover gets to claim stakes\n    } \n\n    function validateXplayingToRest(bytes _old, bytes _new) private pure {\n        require(_old.noughts() == 0); // don't allow this transition unless noughts has yet to make any marks\n        if (State.indexOfMover(_new) == 0) { // Mover is A\n            // revert balances\n            require(_new.aResolution() == _old.aResolution() + _old.stake());\n            require(_new.bResolution() == _old.bResolution() - _old.stake());\n        } else if (State.indexOfMover(_new) == 1) { // Mover is B\n            // revert balances\n            require(_new.aResolution() == _old.aResolution() - _old.stake());\n            require(_new.bResolution() == _old.bResolution() + _old.stake());\n        } \n    }\n\n    function validateOplayingToXplaying(bytes _old, bytes _new) private pure {\n        require(TicTacToeHelpers.madeStrictlyOneMark(_new.crosses(), _old.crosses()));\n        require((_new.noughts() == _old.noughts()));\n        if (State.indexOfMover(_new) == 0) { // mover is A\n            require(_new.aResolution() == _old.aResolution() + 2 * _new.stake()); // note extra factor of 2 to swing fully to other player\n            require(_new.bResolution() == _old.bResolution() - 2 * _new.stake());\n        } else if (State.indexOfMover(_new) == 1) { // mover is B\n            require(_new.aResolution() == _old.aResolution() - 2 * _new.stake());\n            require(_new.bResolution() == _old.bResolution() + 2 * _new.stake());\n        } // mover gets to claim stakes: note factor of 2 to swing fully to other player\n    }\n\n    function validateOplayingToVictory(bytes _old, bytes _new) private pure {\n        require(TicTacToeHelpers.hasWon(_new.crosses()));\n        require(TicTacToeHelpers.madeStrictlyOneMark(_new.crosses(), _old.crosses()));\n        require((_new.noughts() == _old.noughts()));   \n        if (State.indexOfMover(_new) == 0) { // mover is A\n            require(_new.aResolution() == _old.aResolution() + 2 * _new.stake());\n            require(_new.bResolution() == _old.bResolution() - 2 * _new.stake());\n        } else if (State.indexOfMover(_new) == 1) { // mover is B\n            require(_new.aResolution() == _old.aResolution() - 2 * _new.stake());\n            require(_new.bResolution() == _old.bResolution() + 2 * _new.stake());\n        } // mover gets to claim stakes: note factor of 2 to swing fully to other player\n    }\n\n    function validateOplayingToDraw(bytes _old, bytes _new) private pure {\n        require(TicTacToeHelpers.isDraw(_new.noughts(), _new.crosses())); // check if board full. \n        // crosses always plays first move and always plays the move that completes the board\n        if (State.indexOfMover(_new) == 0) {\n            require(_new.aResolution() == _old.aResolution() + 2 * _new.stake()); // no extra factor of 2, restoring to parity\n            require(_new.bResolution() == _old.bResolution() - 2 * _new.stake());\n        } else if (State.indexOfMover(_new) == 1) {\n            require(_new.aResolution() == _old.aResolution() - 2 * _new.stake());\n            require(_new.bResolution() == _old.bResolution() + 2 * _new.stake());\n        } // mover gets to restore parity to the winnings\n        require(TicTacToeHelpers.madeStrictlyOneMark(_new.crosses(), _old.crosses()));\n        require((_new.noughts() == _old.noughts()));\n    }\n\n    function validateVictoryToRest(bytes _old, bytes _new) private pure {\n        require(_new.aResolution() == _old.aResolution());\n        require(_new.bResolution() == _old.bResolution());\n    }\n\n    function validateDrawToRest(bytes _old, bytes _new) private pure {\n        require(_new.aResolution() == _old.aResolution());\n        require(_new.bResolution() == _old.bResolution());\n    }\n\n    function validateVictoryToXplaying(bytes _old, bytes _new) private pure {\n        require(_new.aResolution() == _old.aResolution());\n        require(_new.bResolution() == _old.bResolution());\n        require(_new.noughts() == 0);\n        require(TicTacToeHelpers.madeStrictlyOneMark(_new.crosses(),0));\n         // crosses always goes first. there is no _old.crosses, so set to zero here\n    }\n\n    function validateDrawToXplaying(bytes _old, bytes _new) private pure {\n        require(_new.aResolution() == _old.aResolution());\n        require(_new.bResolution() == _old.bResolution());\n        require(_new.noughts() == 0);\n        require(TicTacToeHelpers.madeStrictlyOneMark(_new.crosses(),0));\n         // crosses always goes first. there is no _old.crosses, so set to zero here\n    }\n\n}\n",
  "sourcePath": "/Users/georgeknee/magmo/apps/packages/tictactoe/contracts/TicTacToeGame.sol",
  "compiler": {
    "name": "solc",
    "version": "0.4.24+commit.e67f0147.Emscripten.clang"
  },
  "schemaVersion": "2.0.1",
  "updatedAt": "2019-01-30T14:08:35.152Z"
}