{
  "contractName": "Rules",
  "abi": [
    {
      "constant": true,
      "inputs": [
        {
          "components": [
            {
              "name": "channelType",
              "type": "address"
            },
            {
              "name": "channelNonce",
              "type": "uint32"
            },
            {
              "name": "participants",
              "type": "address[]"
            },
            {
              "name": "commitmentType",
              "type": "uint8"
            },
            {
              "name": "turnNum",
              "type": "uint32"
            },
            {
              "name": "commitmentCount",
              "type": "uint32"
            },
            {
              "name": "destination",
              "type": "address[]"
            },
            {
              "name": "allocation",
              "type": "uint256[]"
            },
            {
              "name": "appAttributes",
              "type": "bytes"
            }
          ],
          "name": "_fromCommitment",
          "type": "tuple"
        },
        {
          "components": [
            {
              "name": "channelType",
              "type": "address"
            },
            {
              "name": "channelNonce",
              "type": "uint32"
            },
            {
              "name": "participants",
              "type": "address[]"
            },
            {
              "name": "commitmentType",
              "type": "uint8"
            },
            {
              "name": "turnNum",
              "type": "uint32"
            },
            {
              "name": "commitmentCount",
              "type": "uint32"
            },
            {
              "name": "destination",
              "type": "address[]"
            },
            {
              "name": "allocation",
              "type": "uint256[]"
            },
            {
              "name": "appAttributes",
              "type": "bytes"
            }
          ],
          "name": "_toCommitment",
          "type": "tuple"
        },
        {
          "name": "v",
          "type": "uint8[]"
        },
        {
          "name": "r",
          "type": "bytes32[]"
        },
        {
          "name": "s",
          "type": "bytes32[]"
        }
      ],
      "name": "validForceMove",
      "outputs": [
        {
          "name": "",
          "type": "bool"
        }
      ],
      "payable": false,
      "stateMutability": "pure",
      "type": "function",
      "signature": "0x0f0bf869"
    },
    {
      "constant": true,
      "inputs": [
        {
          "components": [
            {
              "name": "channelType",
              "type": "address"
            },
            {
              "name": "channelNonce",
              "type": "uint32"
            },
            {
              "name": "participants",
              "type": "address[]"
            },
            {
              "name": "commitmentType",
              "type": "uint8"
            },
            {
              "name": "turnNum",
              "type": "uint32"
            },
            {
              "name": "commitmentCount",
              "type": "uint32"
            },
            {
              "name": "destination",
              "type": "address[]"
            },
            {
              "name": "allocation",
              "type": "uint256[]"
            },
            {
              "name": "appAttributes",
              "type": "bytes"
            }
          ],
          "name": "_fromCommitment",
          "type": "tuple"
        },
        {
          "components": [
            {
              "name": "channelType",
              "type": "address"
            },
            {
              "name": "channelNonce",
              "type": "uint32"
            },
            {
              "name": "participants",
              "type": "address[]"
            },
            {
              "name": "commitmentType",
              "type": "uint8"
            },
            {
              "name": "turnNum",
              "type": "uint32"
            },
            {
              "name": "commitmentCount",
              "type": "uint32"
            },
            {
              "name": "destination",
              "type": "address[]"
            },
            {
              "name": "allocation",
              "type": "uint256[]"
            },
            {
              "name": "appAttributes",
              "type": "bytes"
            }
          ],
          "name": "_toCommitment",
          "type": "tuple"
        },
        {
          "name": "v",
          "type": "uint8[]"
        },
        {
          "name": "r",
          "type": "bytes32[]"
        },
        {
          "name": "s",
          "type": "bytes32[]"
        }
      ],
      "name": "validConclusionProof",
      "outputs": [
        {
          "name": "",
          "type": "bool"
        }
      ],
      "payable": false,
      "stateMutability": "pure",
      "type": "function",
      "signature": "0x5a8901f3"
    },
    {
      "constant": true,
      "inputs": [
        {
          "components": [
            {
              "name": "channelType",
              "type": "address"
            },
            {
              "name": "channelNonce",
              "type": "uint32"
            },
            {
              "name": "participants",
              "type": "address[]"
            },
            {
              "name": "commitmentType",
              "type": "uint8"
            },
            {
              "name": "turnNum",
              "type": "uint32"
            },
            {
              "name": "commitmentCount",
              "type": "uint32"
            },
            {
              "name": "destination",
              "type": "address[]"
            },
            {
              "name": "allocation",
              "type": "uint256[]"
            },
            {
              "name": "appAttributes",
              "type": "bytes"
            }
          ],
          "name": "_challengeCommitment",
          "type": "tuple"
        },
        {
          "components": [
            {
              "name": "channelType",
              "type": "address"
            },
            {
              "name": "channelNonce",
              "type": "uint32"
            },
            {
              "name": "participants",
              "type": "address[]"
            },
            {
              "name": "commitmentType",
              "type": "uint8"
            },
            {
              "name": "turnNum",
              "type": "uint32"
            },
            {
              "name": "commitmentCount",
              "type": "uint32"
            },
            {
              "name": "destination",
              "type": "address[]"
            },
            {
              "name": "allocation",
              "type": "uint256[]"
            },
            {
              "name": "appAttributes",
              "type": "bytes"
            }
          ],
          "name": "_refutationCommitment",
          "type": "tuple"
        },
        {
          "name": "v",
          "type": "uint8"
        },
        {
          "name": "r",
          "type": "bytes32"
        },
        {
          "name": "s",
          "type": "bytes32"
        }
      ],
      "name": "validRefute",
      "outputs": [
        {
          "name": "",
          "type": "bool"
        }
      ],
      "payable": false,
      "stateMutability": "pure",
      "type": "function",
      "signature": "0x50aa6955"
    },
    {
      "constant": true,
      "inputs": [
        {
          "components": [
            {
              "name": "channelType",
              "type": "address"
            },
            {
              "name": "channelNonce",
              "type": "uint32"
            },
            {
              "name": "participants",
              "type": "address[]"
            },
            {
              "name": "commitmentType",
              "type": "uint8"
            },
            {
              "name": "turnNum",
              "type": "uint32"
            },
            {
              "name": "commitmentCount",
              "type": "uint32"
            },
            {
              "name": "destination",
              "type": "address[]"
            },
            {
              "name": "allocation",
              "type": "uint256[]"
            },
            {
              "name": "appAttributes",
              "type": "bytes"
            }
          ],
          "name": "_challengeCommitment",
          "type": "tuple"
        },
        {
          "components": [
            {
              "name": "channelType",
              "type": "address"
            },
            {
              "name": "channelNonce",
              "type": "uint32"
            },
            {
              "name": "participants",
              "type": "address[]"
            },
            {
              "name": "commitmentType",
              "type": "uint8"
            },
            {
              "name": "turnNum",
              "type": "uint32"
            },
            {
              "name": "commitmentCount",
              "type": "uint32"
            },
            {
              "name": "destination",
              "type": "address[]"
            },
            {
              "name": "allocation",
              "type": "uint256[]"
            },
            {
              "name": "appAttributes",
              "type": "bytes"
            }
          ],
          "name": "_nextCommitment",
          "type": "tuple"
        },
        {
          "name": "v",
          "type": "uint8"
        },
        {
          "name": "r",
          "type": "bytes32"
        },
        {
          "name": "s",
          "type": "bytes32"
        }
      ],
      "name": "validRespondWithMove",
      "outputs": [
        {
          "name": "",
          "type": "bool"
        }
      ],
      "payable": false,
      "stateMutability": "pure",
      "type": "function",
      "signature": "0x3d194460"
    },
    {
      "constant": true,
      "inputs": [
        {
          "components": [
            {
              "name": "channelType",
              "type": "address"
            },
            {
              "name": "channelNonce",
              "type": "uint32"
            },
            {
              "name": "participants",
              "type": "address[]"
            },
            {
              "name": "commitmentType",
              "type": "uint8"
            },
            {
              "name": "turnNum",
              "type": "uint32"
            },
            {
              "name": "commitmentCount",
              "type": "uint32"
            },
            {
              "name": "destination",
              "type": "address[]"
            },
            {
              "name": "allocation",
              "type": "uint256[]"
            },
            {
              "name": "appAttributes",
              "type": "bytes"
            }
          ],
          "name": "_challengeCommitment",
          "type": "tuple"
        },
        {
          "components": [
            {
              "name": "channelType",
              "type": "address"
            },
            {
              "name": "channelNonce",
              "type": "uint32"
            },
            {
              "name": "participants",
              "type": "address[]"
            },
            {
              "name": "commitmentType",
              "type": "uint8"
            },
            {
              "name": "turnNum",
              "type": "uint32"
            },
            {
              "name": "commitmentCount",
              "type": "uint32"
            },
            {
              "name": "destination",
              "type": "address[]"
            },
            {
              "name": "allocation",
              "type": "uint256[]"
            },
            {
              "name": "appAttributes",
              "type": "bytes"
            }
          ],
          "name": "_alternativeCommitment",
          "type": "tuple"
        },
        {
          "components": [
            {
              "name": "channelType",
              "type": "address"
            },
            {
              "name": "channelNonce",
              "type": "uint32"
            },
            {
              "name": "participants",
              "type": "address[]"
            },
            {
              "name": "commitmentType",
              "type": "uint8"
            },
            {
              "name": "turnNum",
              "type": "uint32"
            },
            {
              "name": "commitmentCount",
              "type": "uint32"
            },
            {
              "name": "destination",
              "type": "address[]"
            },
            {
              "name": "allocation",
              "type": "uint256[]"
            },
            {
              "name": "appAttributes",
              "type": "bytes"
            }
          ],
          "name": "_nextCommitment",
          "type": "tuple"
        },
        {
          "name": "v",
          "type": "uint8[]"
        },
        {
          "name": "r",
          "type": "bytes32[]"
        },
        {
          "name": "s",
          "type": "bytes32[]"
        }
      ],
      "name": "validAlternativeRespondWithMove",
      "outputs": [
        {
          "name": "",
          "type": "bool"
        }
      ],
      "payable": false,
      "stateMutability": "pure",
      "type": "function",
      "signature": "0x4b56fadc"
    },
    {
      "constant": true,
      "inputs": [
        {
          "components": [
            {
              "name": "channelType",
              "type": "address"
            },
            {
              "name": "channelNonce",
              "type": "uint32"
            },
            {
              "name": "participants",
              "type": "address[]"
            },
            {
              "name": "commitmentType",
              "type": "uint8"
            },
            {
              "name": "turnNum",
              "type": "uint32"
            },
            {
              "name": "commitmentCount",
              "type": "uint32"
            },
            {
              "name": "destination",
              "type": "address[]"
            },
            {
              "name": "allocation",
              "type": "uint256[]"
            },
            {
              "name": "appAttributes",
              "type": "bytes"
            }
          ],
          "name": "_fromCommitment",
          "type": "tuple"
        },
        {
          "components": [
            {
              "name": "channelType",
              "type": "address"
            },
            {
              "name": "channelNonce",
              "type": "uint32"
            },
            {
              "name": "participants",
              "type": "address[]"
            },
            {
              "name": "commitmentType",
              "type": "uint8"
            },
            {
              "name": "turnNum",
              "type": "uint32"
            },
            {
              "name": "commitmentCount",
              "type": "uint32"
            },
            {
              "name": "destination",
              "type": "address[]"
            },
            {
              "name": "allocation",
              "type": "uint256[]"
            },
            {
              "name": "appAttributes",
              "type": "bytes"
            }
          ],
          "name": "_toCommitment",
          "type": "tuple"
        }
      ],
      "name": "validTransition",
      "outputs": [
        {
          "name": "",
          "type": "bool"
        }
      ],
      "payable": false,
      "stateMutability": "pure",
      "type": "function",
      "signature": "0x40853790"
    },
    {
      "constant": true,
      "inputs": [
        {
          "components": [
            {
              "name": "channelType",
              "type": "address"
            },
            {
              "name": "channelNonce",
              "type": "uint32"
            },
            {
              "name": "participants",
              "type": "address[]"
            },
            {
              "name": "commitmentType",
              "type": "uint8"
            },
            {
              "name": "turnNum",
              "type": "uint32"
            },
            {
              "name": "commitmentCount",
              "type": "uint32"
            },
            {
              "name": "destination",
              "type": "address[]"
            },
            {
              "name": "allocation",
              "type": "uint256[]"
            },
            {
              "name": "appAttributes",
              "type": "bytes"
            }
          ],
          "name": "_fromCommitment",
          "type": "tuple"
        },
        {
          "components": [
            {
              "name": "channelType",
              "type": "address"
            },
            {
              "name": "channelNonce",
              "type": "uint32"
            },
            {
              "name": "participants",
              "type": "address[]"
            },
            {
              "name": "commitmentType",
              "type": "uint8"
            },
            {
              "name": "turnNum",
              "type": "uint32"
            },
            {
              "name": "commitmentCount",
              "type": "uint32"
            },
            {
              "name": "destination",
              "type": "address[]"
            },
            {
              "name": "allocation",
              "type": "uint256[]"
            },
            {
              "name": "appAttributes",
              "type": "bytes"
            }
          ],
          "name": "_toCommitment",
          "type": "tuple"
        }
      ],
      "name": "validTransitionFromPreFundSetup",
      "outputs": [
        {
          "name": "",
          "type": "bool"
        }
      ],
      "payable": false,
      "stateMutability": "pure",
      "type": "function",
      "signature": "0x7ece2bb4"
    },
    {
      "constant": true,
      "inputs": [
        {
          "components": [
            {
              "name": "channelType",
              "type": "address"
            },
            {
              "name": "channelNonce",
              "type": "uint32"
            },
            {
              "name": "participants",
              "type": "address[]"
            },
            {
              "name": "commitmentType",
              "type": "uint8"
            },
            {
              "name": "turnNum",
              "type": "uint32"
            },
            {
              "name": "commitmentCount",
              "type": "uint32"
            },
            {
              "name": "destination",
              "type": "address[]"
            },
            {
              "name": "allocation",
              "type": "uint256[]"
            },
            {
              "name": "appAttributes",
              "type": "bytes"
            }
          ],
          "name": "_fromCommitment",
          "type": "tuple"
        },
        {
          "components": [
            {
              "name": "channelType",
              "type": "address"
            },
            {
              "name": "channelNonce",
              "type": "uint32"
            },
            {
              "name": "participants",
              "type": "address[]"
            },
            {
              "name": "commitmentType",
              "type": "uint8"
            },
            {
              "name": "turnNum",
              "type": "uint32"
            },
            {
              "name": "commitmentCount",
              "type": "uint32"
            },
            {
              "name": "destination",
              "type": "address[]"
            },
            {
              "name": "allocation",
              "type": "uint256[]"
            },
            {
              "name": "appAttributes",
              "type": "bytes"
            }
          ],
          "name": "_toCommitment",
          "type": "tuple"
        }
      ],
      "name": "validTransitionFromPostFundSetup",
      "outputs": [
        {
          "name": "",
          "type": "bool"
        }
      ],
      "payable": false,
      "stateMutability": "pure",
      "type": "function",
      "signature": "0x51ab54c3"
    },
    {
      "constant": true,
      "inputs": [
        {
          "components": [
            {
              "name": "channelType",
              "type": "address"
            },
            {
              "name": "channelNonce",
              "type": "uint32"
            },
            {
              "name": "participants",
              "type": "address[]"
            },
            {
              "name": "commitmentType",
              "type": "uint8"
            },
            {
              "name": "turnNum",
              "type": "uint32"
            },
            {
              "name": "commitmentCount",
              "type": "uint32"
            },
            {
              "name": "destination",
              "type": "address[]"
            },
            {
              "name": "allocation",
              "type": "uint256[]"
            },
            {
              "name": "appAttributes",
              "type": "bytes"
            }
          ],
          "name": "_fromCommitment",
          "type": "tuple"
        },
        {
          "components": [
            {
              "name": "channelType",
              "type": "address"
            },
            {
              "name": "channelNonce",
              "type": "uint32"
            },
            {
              "name": "participants",
              "type": "address[]"
            },
            {
              "name": "commitmentType",
              "type": "uint8"
            },
            {
              "name": "turnNum",
              "type": "uint32"
            },
            {
              "name": "commitmentCount",
              "type": "uint32"
            },
            {
              "name": "destination",
              "type": "address[]"
            },
            {
              "name": "allocation",
              "type": "uint256[]"
            },
            {
              "name": "appAttributes",
              "type": "bytes"
            }
          ],
          "name": "_toCommitment",
          "type": "tuple"
        }
      ],
      "name": "validTransitionFromApp",
      "outputs": [
        {
          "name": "",
          "type": "bool"
        }
      ],
      "payable": false,
      "stateMutability": "pure",
      "type": "function",
      "signature": "0x8289a118"
    },
    {
      "constant": true,
      "inputs": [
        {
          "components": [
            {
              "name": "channelType",
              "type": "address"
            },
            {
              "name": "channelNonce",
              "type": "uint32"
            },
            {
              "name": "participants",
              "type": "address[]"
            },
            {
              "name": "commitmentType",
              "type": "uint8"
            },
            {
              "name": "turnNum",
              "type": "uint32"
            },
            {
              "name": "commitmentCount",
              "type": "uint32"
            },
            {
              "name": "destination",
              "type": "address[]"
            },
            {
              "name": "allocation",
              "type": "uint256[]"
            },
            {
              "name": "appAttributes",
              "type": "bytes"
            }
          ],
          "name": "_fromCommitment",
          "type": "tuple"
        },
        {
          "components": [
            {
              "name": "channelType",
              "type": "address"
            },
            {
              "name": "channelNonce",
              "type": "uint32"
            },
            {
              "name": "participants",
              "type": "address[]"
            },
            {
              "name": "commitmentType",
              "type": "uint8"
            },
            {
              "name": "turnNum",
              "type": "uint32"
            },
            {
              "name": "commitmentCount",
              "type": "uint32"
            },
            {
              "name": "destination",
              "type": "address[]"
            },
            {
              "name": "allocation",
              "type": "uint256[]"
            },
            {
              "name": "appAttributes",
              "type": "bytes"
            }
          ],
          "name": "_toCommitment",
          "type": "tuple"
        }
      ],
      "name": "validTransitionFromConclude",
      "outputs": [
        {
          "name": "",
          "type": "bool"
        }
      ],
      "payable": false,
      "stateMutability": "pure",
      "type": "function",
      "signature": "0x19bdbf4e"
    },
    {
      "constant": true,
      "inputs": [
        {
          "components": [
            {
              "name": "channelType",
              "type": "address"
            },
            {
              "name": "channelNonce",
              "type": "uint32"
            },
            {
              "name": "participants",
              "type": "address[]"
            },
            {
              "name": "commitmentType",
              "type": "uint8"
            },
            {
              "name": "turnNum",
              "type": "uint32"
            },
            {
              "name": "commitmentCount",
              "type": "uint32"
            },
            {
              "name": "destination",
              "type": "address[]"
            },
            {
              "name": "allocation",
              "type": "uint256[]"
            },
            {
              "name": "appAttributes",
              "type": "bytes"
            }
          ],
          "name": "_fromCommitment",
          "type": "tuple"
        },
        {
          "components": [
            {
              "name": "channelType",
              "type": "address"
            },
            {
              "name": "channelNonce",
              "type": "uint32"
            },
            {
              "name": "participants",
              "type": "address[]"
            },
            {
              "name": "commitmentType",
              "type": "uint8"
            },
            {
              "name": "turnNum",
              "type": "uint32"
            },
            {
              "name": "commitmentCount",
              "type": "uint32"
            },
            {
              "name": "destination",
              "type": "address[]"
            },
            {
              "name": "allocation",
              "type": "uint256[]"
            },
            {
              "name": "appAttributes",
              "type": "bytes"
            }
          ],
          "name": "_toCommitment",
          "type": "tuple"
        }
      ],
      "name": "validAppTransition",
      "outputs": [
        {
          "name": "",
          "type": "bool"
        }
      ],
      "payable": false,
      "stateMutability": "pure",
      "type": "function",
      "signature": "0xa60ce319"
    }
  ],
  "bytecode": "0x613e9b610030600b82828239805160001a6073146000811461002057610022565bfe5b5030600052607381538281f3fe73000000000000000000000000000000000000000030146080604052600436106100ac5763ffffffff60e060020a6000350416631b22352281146100b15780632f452794146100da57806358e09322146100ed578063828359f4146101005780639698109414610113578063cca9944614610126578063cd322d2414610139578063d2d34bc71461014c578063dd47f5601461015f578063e65dd94114610172578063ffdd5ab814610185575b600080fd5b6100c46100bf36600461298c565b610198565b6040516100d19190613ab0565b60405180910390f35b6100c46100e836600461298c565b6103b3565b6100c46100fb3660046129f5565b6107fc565b6100c461010e36600461298c565b610a33565b6100c461012136600461298c565b61125b565b6100c4610134366004612bf7565b611533565b6100c461014736600461298c565b6115f3565b6100c461015a366004612bf7565b611695565b6100c461016d366004612ae1565b6118bf565b6100c46101803660046129f5565b611c04565b6100c461019336600461298c565b611d84565b60405160e160020a6339ee50f902815260009073__Commitment____________________________906373dca1f2906101d5908590600401613c9e565b60206040518083038186803b1580156101ed57600080fd5b505af4158015610201573d6000803e3d6000fd5b505050506040513d601f19601f82011682018060405250610225919081019061296e565b151561024f5760405160e560020a62461bcd02815260040161024690613bce565b60405180910390fd5b60405160e060020a63d30162b902815273__Commitment____________________________9063d30162b99061028b9086908690600401613cd4565b60206040518083038186803b1580156102a357600080fd5b505af41580156102b7573d6000803e3d6000fd5b505050506040513d601f19601f820116820180604052506102db919081019061296e565b15156102fc5760405160e560020a62461bcd02815260040161024690613c8e565b60405160e160020a631b0f411b02815273__Commitment____________________________9063361e8236906103389086908690600401613cd4565b60206040518083038186803b15801561035057600080fd5b505af4158015610364573d6000803e3d6000fd5b505050506040513d601f19601f82011682018060405250610388919081019061296e565b15156103a95760405160e560020a62461bcd02815260040161024690613aee565b5060015b92915050565b6040517fc2a67cff00000000000000000000000000000000000000000000000000000000815260009073__Commitment____________________________9063c2a67cff90610406908690600401613c9e565b60206040518083038186803b15801561041e57600080fd5b505af4158015610432573d6000803e3d6000fd5b505050506040513d601f19601f820116820180604052506104569190810190612948565b600160a060020a03168273__Commitment____________________________63c2a67cff90916040518263ffffffff1660e060020a02815260040161049b9190613c9e565b60206040518083038186803b1580156104b357600080fd5b505af41580156104c7573d6000803e3d6000fd5b505050506040513d601f19601f820116820180604052506104eb9190810190612948565b600160a060020a0316146105145760405160e560020a62461bcd02815260040161024690613c0e565b826080015160010163ffffffff16826080015163ffffffff1614151561054f5760405160e560020a62461bcd02815260040161024690613b7e565b6040517f7679a8e400000000000000000000000000000000000000000000000000000000815273__Commitment____________________________90637679a8e49061059f908690600401613c9e565b60206040518083038186803b1580156105b757600080fd5b505af41580156105cb573d6000803e3d6000fd5b505050506040513d601f19601f820116820180604052506105ef919081019061296e565b15610605576105fe8383611d84565b90506103ad565b6040517fb962f54200000000000000000000000000000000000000000000000000000000815273__Commitment____________________________9063b962f54290610655908690600401613c9e565b60206040518083038186803b15801561066d57600080fd5b505af4158015610681573d6000803e3d6000fd5b505050506040513d601f19601f820116820180604052506106a5919081019061296e565b156106b4576105fe8383610a33565b6040517fbfea929800000000000000000000000000000000000000000000000000000000815273__Commitment____________________________9063bfea929890610704908690600401613c9e565b60206040518083038186803b15801561071c57600080fd5b505af4158015610730573d6000803e3d6000fd5b505050506040513d601f19601f82011682018060405250610754919081019061296e565b15610763576105fe838361125b565b60405160e160020a6339ee50f902815273__Commitment____________________________906373dca1f29061079d908690600401613c9e565b60206040518083038186803b1580156107b557600080fd5b505af41580156107c9573d6000803e3d6000fd5b505050506040513d601f19601f820116820180604052506107ed919081019061296e565b156103a9576105fe8383610198565b60008573__Commitment____________________________63e647226b909186600081518110151561082a57fe5b9060200190602002015186600081518110151561084357fe5b9060200190602002015186600081518110151561085c57fe5b906020019060200201516040518563ffffffff1660e060020a0281526004016108889493929190613cf9565b60006040518083038186803b1580156108a057600080fd5b505af41580156108b4573d6000803e3d6000fd5b505050508473__Commitment____________________________63e647226b90918660018151811015156108e457fe5b906020019060200201518660018151811015156108fd57fe5b9060200190602002015186600181518110151561091657fe5b906020019060200201516040518563ffffffff1660e060020a0281526004016109429493929190613cf9565b60006040518083038186803b15801561095a57600080fd5b505af415801561096e573d6000803e3d6000fd5b505060405160e160020a6339ee50f902815273__Commitment____________________________92506373dca1f291506109ac908990600401613c9e565b60206040518083038186803b1580156109c457600080fd5b505af41580156109d8573d6000803e3d6000fd5b505050506040513d601f19601f820116820180604052506109fc919081019061296e565b1515610a1d5760405160e560020a62461bcd02815260040161024690613c3e565b610a2786866103b3565b90505b95945050505050565b60006001836040015151038360a0015163ffffffff161415610d59576040517fbfea929800000000000000000000000000000000000000000000000000000000815273__Commitment____________________________9063bfea929890610a9f908590600401613c9e565b60206040518083038186803b158015610ab757600080fd5b505af4158015610acb573d6000803e3d6000fd5b505050506040513d601f19601f82011682018060405250610aef919081019061296e565b15610b2457610afe83836115f3565b1515610b1f5760405160e560020a62461bcd02815260040161024690613b1e565b610d54565b60405160e160020a6339ee50f902815273__Commitment____________________________906373dca1f290610b5e908590600401613c9e565b60206040518083038186803b158015610b7657600080fd5b505af4158015610b8a573d6000803e3d6000fd5b505050506040513d601f19601f82011682018060405250610bae919081019061296e565b1515610bcf5760405160e560020a62461bcd02815260040161024690613b5e565b60405160e060020a63d30162b902815273__Commitment____________________________9063d30162b990610c0b9086908690600401613cd4565b60206040518083038186803b158015610c2357600080fd5b505af4158015610c37573d6000803e3d6000fd5b505050506040513d601f19601f82011682018060405250610c5b919081019061296e565b1515610c7c5760405160e560020a62461bcd02815260040161024690613c4e565b60405160e160020a631b0f411b02815273__Commitment____________________________9063361e823690610cb89086908690600401613cd4565b60206040518083038186803b158015610cd057600080fd5b505af4158015610ce4573d6000803e3d6000fd5b505050506040513d601f19601f82011682018060405250610d08919081019061296e565b1515610d295760405160e560020a62461bcd02815260040161024690613b3e565b60a082015163ffffffff1615610d545760405160e560020a62461bcd02815260040161024690613abe565b6103a9565b6040517fb962f54200000000000000000000000000000000000000000000000000000000815273__Commitment____________________________9063b962f54290610da9908590600401613c9e565b60206040518083038186803b158015610dc157600080fd5b505af4158015610dd5573d6000803e3d6000fd5b505050506040513d601f19601f82011682018060405250610df9919081019061296e565b15611056576040517f6dc7fc8d00000000000000000000000000000000000000000000000000000000815273__Commitment____________________________90636dc7fc8d90610e509086908690600401613cd4565b60206040518083038186803b158015610e6857600080fd5b505af4158015610e7c573d6000803e3d6000fd5b505050506040513d601f19601f82011682018060405250610ea0919081019061296e565b1515610ec15760405160e560020a62461bcd02815260040161024690613ace565b8260a0015160010163ffffffff168260a0015163ffffffff16141515610efc5760405160e560020a62461bcd02815260040161024690613bee565b60405160e060020a63d30162b902815273__Commitment____________________________9063d30162b990610f389086908690600401613cd4565b60206040518083038186803b158015610f5057600080fd5b505af4158015610f64573d6000803e3d6000fd5b505050506040513d601f19601f82011682018060405250610f88919081019061296e565b1515610fa95760405160e560020a62461bcd02815260040161024690613c4e565b60405160e160020a631b0f411b02815273__Commitment____________________________9063361e823690610fe59086908690600401613cd4565b60206040518083038186803b158015610ffd57600080fd5b505af4158015611011573d6000803e3d6000fd5b505050506040513d601f19601f82011682018060405250611035919081019061296e565b1515610d545760405160e560020a62461bcd02815260040161024690613b3e565b60405160e160020a6339ee50f902815273__Commitment____________________________906373dca1f290611090908590600401613c9e565b60206040518083038186803b1580156110a857600080fd5b505af41580156110bc573d6000803e3d6000fd5b505050506040513d601f19601f820116820180604052506110e0919081019061296e565b15156111015760405160e560020a62461bcd02815260040161024690613b5e565b60405160e060020a63d30162b902815273__Commitment____________________________9063d30162b99061113d9086908690600401613cd4565b60206040518083038186803b15801561115557600080fd5b505af4158015611169573d6000803e3d6000fd5b505050506040513d601f19601f8201168201806040525061118d919081019061296e565b15156111ae5760405160e560020a62461bcd02815260040161024690613c4e565b60405160e160020a631b0f411b02815273__Commitment____________________________9063361e8236906111ea9086908690600401613cd4565b60206040518083038186803b15801561120257600080fd5b505af4158015611216573d6000803e3d6000fd5b505050506040513d601f19601f8201168201806040525061123a919081019061296e565b15156103a95760405160e560020a62461bcd02815260040161024690613b3e565b6040517fbfea929800000000000000000000000000000000000000000000000000000000815260009073__Commitment____________________________9063bfea9298906112ae908590600401613c9e565b60206040518083038186803b1580156112c657600080fd5b505af41580156112da573d6000803e3d6000fd5b505050506040513d601f19601f820116820180604052506112fe919081019061296e565b1561132e5761130d83836115f3565b1515610d545760405160e560020a62461bcd02815260040161024690613afe565b60405160e160020a6339ee50f902815273__Commitment____________________________906373dca1f290611368908590600401613c9e565b60206040518083038186803b15801561138057600080fd5b505af4158015611394573d6000803e3d6000fd5b505050506040513d601f19601f820116820180604052506113b8919081019061296e565b15156113d95760405160e560020a62461bcd02815260040161024690613c5e565b60405160e060020a63d30162b902815273__Commitment____________________________9063d30162b9906114159086908690600401613cd4565b60206040518083038186803b15801561142d57600080fd5b505af4158015611441573d6000803e3d6000fd5b505050506040513d601f19601f82011682018060405250611465919081019061296e565b15156114865760405160e560020a62461bcd02815260040161024690613bae565b60405160e160020a631b0f411b02815273__Commitment____________________________9063361e8236906114c29086908690600401613cd4565b60206040518083038186803b1580156114da57600080fd5b505af41580156114ee573d6000803e3d6000fd5b505050506040513d601f19601f82011682018060405250611512919081019061296e565b15156103a95760405160e560020a62461bcd02815260040161024690613c1e565b6040517fe647226b00000000000000000000000000000000000000000000000000000000815260009073__Commitment____________________________9063e647226b9061158c908890889088908890600401613cf9565b60006040518083038186803b1580156115a457600080fd5b505af41580156115b8573d6000803e3d6000fd5b505050506115c686866103b3565b15156115e75760405160e560020a62461bcd02815260040161024690613c6e565b50600195945050505050565b81516040517f40853790000000000000000000000000000000000000000000000000000000008152600091600160a060020a03169063408537909061163e9086908690600401613caf565b60206040518083038186803b15801561165657600080fd5b505afa15801561166a573d6000803e3d6000fd5b505050506040513d601f19601f8201168201806040525061168e919081019061296e565b9392505050565b6000856080015163ffffffff16856080015163ffffffff161115156116cf5760405160e560020a62461bcd02815260040161024690613c2e565b6040517f61aa2c5d00000000000000000000000000000000000000000000000000000000815273__Commitment____________________________906361aa2c5d9061171f908990600401613c9e565b60206040518083038186803b15801561173757600080fd5b505af415801561174b573d6000803e3d6000fd5b505050506040513d601f19601f8201168201806040525061176f9190810190612948565b600160a060020a03168573__Commitment____________________________6361aa2c5d90916040518263ffffffff1660e060020a0281526004016117b49190613c9e565b60206040518083038186803b1580156117cc57600080fd5b505af41580156117e0573d6000803e3d6000fd5b505050506040513d601f19601f820116820180604052506118049190810190612948565b600160a060020a03161461182d5760405160e560020a62461bcd02815260040161024690613bfe565b6040517fe647226b00000000000000000000000000000000000000000000000000000000815273__Commitment____________________________9063e647226b90611883908890889088908890600401613cf9565b60006040518083038186803b15801561189b57600080fd5b505af41580156118af573d6000803e3d6000fd5b5060019998505050505050505050565b6040517fc2a67cff00000000000000000000000000000000000000000000000000000000815260009073__Commitment____________________________9063c2a67cff90611912908990600401613c9e565b60206040518083038186803b15801561192a57600080fd5b505af415801561193e573d6000803e3d6000fd5b505050506040513d601f19601f820116820180604052506119629190810190612948565b600160a060020a03168773__Commitment____________________________63c2a67cff90916040518263ffffffff1660e060020a0281526004016119a79190613c9e565b60206040518083038186803b1580156119bf57600080fd5b505af41580156119d3573d6000803e3d6000fd5b505050506040513d601f19601f820116820180604052506119f79190810190612948565b600160a060020a031614611a205760405160e560020a62461bcd02815260040161024690613ade565b856080015163ffffffff16876080015163ffffffff16141515611a585760405160e560020a62461bcd02815260040161024690613b2e565b8573__Commitment____________________________63e647226b9091866000815181101515611a8457fe5b90602001906020020151866000815181101515611a9d57fe5b90602001906020020151866000815181101515611ab657fe5b906020019060200201516040518563ffffffff1660e060020a028152600401611ae29493929190613cf9565b60006040518083038186803b158015611afa57600080fd5b505af4158015611b0e573d6000803e3d6000fd5b505050508473__Commitment____________________________63e647226b9091866001815181101515611b3e57fe5b90602001906020020151866001815181101515611b5757fe5b90602001906020020151866001815181101515611b7057fe5b906020019060200201516040518563ffffffff1660e060020a028152600401611b9c9493929190613cf9565b60006040518083038186803b158015611bb457600080fd5b505af4158015611bc8573d6000803e3d6000fd5b50505050611bd686866103b3565b1515611bf75760405160e560020a62461bcd02815260040161024690613bde565b5060019695505050505050565b60008573__Commitment____________________________63e647226b9091866000815181101515611c3257fe5b90602001906020020151866000815181101515611c4b57fe5b90602001906020020151866000815181101515611c6457fe5b906020019060200201516040518563ffffffff1660e060020a028152600401611c909493929190613cf9565b60006040518083038186803b158015611ca857600080fd5b505af4158015611cbc573d6000803e3d6000fd5b505050508473__Commitment____________________________63e647226b9091866001815181101515611cec57fe5b90602001906020020151866001815181101515611d0557fe5b90602001906020020151866001815181101515611d1e57fe5b906020019060200201516040518563ffffffff1660e060020a028152600401611d4a9493929190613cf9565b60006040518083038186803b158015611d6257600080fd5b505af4158015611d76573d6000803e3d6000fd5b50505050610a2786866103b3565b60006001836040015151038360a0015163ffffffff161415612292576040517fb962f54200000000000000000000000000000000000000000000000000000000815273__Commitment____________________________9063b962f54290611df0908590600401613c9e565b60206040518083038186803b158015611e0857600080fd5b505af4158015611e1c573d6000803e3d6000fd5b505050506040513d601f19601f82011682018060405250611e40919081019061296e565b1561208d5760a082015163ffffffff1615611e705760405160e560020a62461bcd02815260040161024690613b4e565b6040517f6dc7fc8d00000000000000000000000000000000000000000000000000000000815273__Commitment____________________________90636dc7fc8d90611ec29086908690600401613cd4565b60206040518083038186803b158015611eda57600080fd5b505af4158015611eee573d6000803e3d6000fd5b505050506040513d601f19601f82011682018060405250611f12919081019061296e565b1515611f335760405160e560020a62461bcd02815260040161024690613b6e565b60405160e060020a63d30162b902815273__Commitment____________________________9063d30162b990611f6f9086908690600401613cd4565b60206040518083038186803b158015611f8757600080fd5b505af4158015611f9b573d6000803e3d6000fd5b505050506040513d601f19601f82011682018060405250611fbf919081019061296e565b1515611fe05760405160e560020a62461bcd02815260040161024690613b9e565b60405160e160020a631b0f411b02815273__Commitment____________________________9063361e82369061201c9086908690600401613cd4565b60206040518083038186803b15801561203457600080fd5b505af4158015612048573d6000803e3d6000fd5b505050506040513d601f19601f8201168201806040525061206c919081019061296e565b1515610b1f5760405160e560020a62461bcd02815260040161024690613bbe565b60405160e160020a6339ee50f902815273__Commitment____________________________906373dca1f2906120c7908590600401613c9e565b60206040518083038186803b1580156120df57600080fd5b505af41580156120f3573d6000803e3d6000fd5b505050506040513d601f19601f82011682018060405250612117919081019061296e565b15156121385760405160e560020a62461bcd02815260040161024690613b8e565b60405160e060020a63d30162b902815273__Commitment____________________________9063d30162b9906121749086908690600401613cd4565b60206040518083038186803b15801561218c57600080fd5b505af41580156121a0573d6000803e3d6000fd5b505050506040513d601f19601f820116820180604052506121c4919081019061296e565b15156121e55760405160e560020a62461bcd02815260040161024690613b9e565b60405160e160020a631b0f411b02815273__Commitment____________________________9063361e8236906122219086908690600401613cd4565b60206040518083038186803b15801561223957600080fd5b505af415801561224d573d6000803e3d6000fd5b505050506040513d601f19601f82011682018060405250612271919081019061296e565b1515610d545760405160e560020a62461bcd02815260040161024690613bbe565b6040517f7679a8e400000000000000000000000000000000000000000000000000000000815273__Commitment____________________________90637679a8e4906122e2908590600401613c9e565b60206040518083038186803b1580156122fa57600080fd5b505af415801561230e573d6000803e3d6000fd5b505050506040513d601f19601f82011682018060405250612332919081019061296e565b15156123535760405160e560020a62461bcd02815260040161024690613b0e565b6040517f6dc7fc8d00000000000000000000000000000000000000000000000000000000815273__Commitment____________________________90636dc7fc8d906123a59086908690600401613cd4565b60206040518083038186803b1580156123bd57600080fd5b505af41580156123d1573d6000803e3d6000fd5b505050506040513d601f19601f820116820180604052506123f5919081019061296e565b15156124165760405160e560020a62461bcd02815260040161024690613b6e565b8260a0015160010163ffffffff168260a0015163ffffffff161415156124515760405160e560020a62461bcd02815260040161024690613c7e565b60405160e060020a63d30162b902815273__Commitment____________________________9063d30162b99061248d9086908690600401613cd4565b60206040518083038186803b1580156124a557600080fd5b505af41580156124b9573d6000803e3d6000fd5b505050506040513d601f19601f820116820180604052506124dd919081019061296e565b15156124fe5760405160e560020a62461bcd02815260040161024690613b9e565b60405160e160020a631b0f411b02815273__Commitment____________________________9063361e82369061253a9086908690600401613cd4565b60206040518083038186803b15801561255257600080fd5b505af4158015612566573d6000803e3d6000fd5b505050506040513d601f19601f8201168201806040525061258a919081019061296e565b15156103a95760405160e560020a62461bcd02815260040161024690613bbe565b600061168e8235613dad565b600061168e8251613dad565b6000601f820183136125d457600080fd5b81356125e76125e282613d5a565b613d33565b9150818183526020840193506020810190508385602084028201111561260c57600080fd5b60005b83811015612638578161262288826125ab565b845250602092830192919091019060010161260f565b5050505092915050565b6000601f8201831361265357600080fd5b81356126616125e282613d5a565b9150818183526020840193506020810190508385602084028201111561268657600080fd5b60005b83811015612638578161269c888261279e565b8452506020928301929190910190600101612689565b6000601f820183136126c357600080fd5b81356126d16125e282613d5a565b915081818352602084019350602081019050838560208402820111156126f657600080fd5b60005b83811015612638578161270c888261279e565b84525060209283019291909101906001016126f9565b6000601f8201831361273357600080fd5b81356127416125e282613d5a565b9150818183526020840193506020810190508385602084028201111561276657600080fd5b60005b83811015612638578161277c888261293c565b8452506020928301929190910190600101612769565b600061168e8251613db8565b600061168e8235613dbd565b6000601f820183136127bb57600080fd5b81356127c96125e282613d7b565b915080825260208301602083018583830111156127e557600080fd5b6127f0838284613ddb565b50505092915050565b6000610120828403121561280c57600080fd5b612817610120613d33565b9050600061282584846125ab565b825250602061283684848301612930565b602083015250604082013567ffffffffffffffff81111561285657600080fd5b612862848285016125c3565b60408301525060606128768482850161293c565b606083015250608061288a84828501612930565b60808301525060a061289e84828501612930565b60a08301525060c082013567ffffffffffffffff8111156128be57600080fd5b6128ca848285016125c3565b60c08301525060e082013567ffffffffffffffff8111156128ea57600080fd5b6128f6848285016126b2565b60e08301525061010082013567ffffffffffffffff81111561291757600080fd5b612923848285016127aa565b6101008301525092915050565b600061168e8235613dcc565b600061168e8235613dd5565b60006020828403121561295a57600080fd5b600061296684846125b7565b949350505050565b60006020828403121561298057600080fd5b60006129668484612792565b6000806040838503121561299f57600080fd5b823567ffffffffffffffff8111156129b657600080fd5b6129c2858286016127f9565b925050602083013567ffffffffffffffff8111156129df57600080fd5b6129eb858286016127f9565b9150509250929050565b600080600080600060a08688031215612a0d57600080fd5b853567ffffffffffffffff811115612a2457600080fd5b612a30888289016127f9565b955050602086013567ffffffffffffffff811115612a4d57600080fd5b612a59888289016127f9565b945050604086013567ffffffffffffffff811115612a7657600080fd5b612a8288828901612722565b935050606086013567ffffffffffffffff811115612a9f57600080fd5b612aab88828901612642565b925050608086013567ffffffffffffffff811115612ac857600080fd5b612ad488828901612642565b9150509295509295909350565b60008060008060008060c08789031215612afa57600080fd5b863567ffffffffffffffff811115612b1157600080fd5b612b1d89828a016127f9565b965050602087013567ffffffffffffffff811115612b3a57600080fd5b612b4689828a016127f9565b955050604087013567ffffffffffffffff811115612b6357600080fd5b612b6f89828a016127f9565b945050606087013567ffffffffffffffff811115612b8c57600080fd5b612b9889828a01612722565b935050608087013567ffffffffffffffff811115612bb557600080fd5b612bc189828a01612642565b92505060a087013567ffffffffffffffff811115612bde57600080fd5b612bea89828a01612642565b9150509295509295509295565b600080600080600060a08688031215612c0f57600080fd5b853567ffffffffffffffff811115612c2657600080fd5b612c32888289016127f9565b955050602086013567ffffffffffffffff811115612c4f57600080fd5b612c5b888289016127f9565b9450506040612c6c8882890161293c565b9350506060612c7d8882890161279e565b9250506080612ad48882890161279e565b612c9781613dad565b82525050565b6000612ca882613da9565b808452602084019350612cba83613da3565b60005b82811015612cea57612cd0868351612c8e565b612cd982613da3565b602096909601959150600101612cbd565b5093949350505050565b6000612cff82613da9565b808452602084019350612d1183613da3565b60005b82811015612cea57612d27868351612c8e565b612d3082613da3565b602096909601959150600101612d14565b6000612d4c82613da9565b808452602084019350612d5e83613da3565b60005b82811015612cea57612d74868351612de4565b612d7d82613da3565b602096909601959150600101612d61565b6000612d9982613da9565b808452602084019350612dab83613da3565b60005b82811015612cea57612dc1868351612de4565b612dca82613da3565b602096909601959150600101612dae565b612c9781613db8565b612c9781613dbd565b6000612df882613da9565b808452612e0c816020860160208601613de7565b612e1581613e17565b9093016020019392505050565b60638152600080516020613e2283398151915260208201527f53657475703a20636f6d6d69746d656e74436f756e74206d757374206265207260408201527f65736574207768656e207472616e736974696f6e696e6720746f20436f6e636c60608201527f7564650000000000000000000000000000000000000000000000000000000000608082015260a00190565b60428152600080516020613e2283398151915260208201527f53657475703a2061707041747472696275746573206d7573742062652065717560408201527f616c000000000000000000000000000000000000000000000000000000000000606082015260800190565b603181527f616c7465726e6174697665436f6d6d69746d656e74206d75737420686176652060208201527f746865207269676874206368616e6e656c000000000000000000000000000000604082015260600190565b603c81527f496e76616c6964207472616e736974696f6e2066726f6d20436f6e636c75646560208201527f3a2064657374696e6174696f6e73206d75737420626520657175616c00000000604082015260600190565b603581527f496e76616c6964207472616e736974696f6e2066726f6d204170703a2074726160208201527f6e736974696f6e206d7573742062652076616c69640000000000000000000000604082015260600190565b60498152600080516020613e4283398151915260208201527f657475703a20636f6d6d69746d656e7454797065206d7573742062652050726560408201527f46756e6453657475700000000000000000000000000000000000000000000000606082015260800190565b603f8152600080516020613e2283398151915260208201527f53657475703a207472616e736974696f6e206d7573742062652076616c696400604082015260600190565b604a81527f616c7465726e6174697665436f6d6d69746d656e74206d75737420686176652060208201527f7468652073616d65206e6f6e636520617320746865206368616c6c656e67652060408201527f636f6d6d69746d656e7400000000000000000000000000000000000000000000606082015260800190565b60418152600080516020613e2283398151915260208201527f53657475703a2064657374696e6174696f6e73206d757374206265206571756160408201527f6c00000000000000000000000000000000000000000000000000000000000000606082015260800190565b60678152600080516020613e4283398151915260208201527f657475703a20636f6d6d69746d656e74436f756e74206d75737420626520726560408201527f736574207768656e207472616e736974696f6e696e6720746f20506f7374467560608201527f6e64536574757000000000000000000000000000000000000000000000000000608082015260a00190565b60468152600080516020613e2283398151915260208201527f53657475703a20636f6d6d69746d656e7454797065206d75737420626520436f60408201527f6e636c7564650000000000000000000000000000000000000000000000000000606082015260800190565b60418152600080516020613e4283398151915260208201527f657475703a2061707041747472696275746573206d757374206265206571756160408201527f6c00000000000000000000000000000000000000000000000000000000000000606082015260800190565b602e81527f496e76616c6964207472616e736974696f6e3a207475726e4e756d206d75737460208201527f20696e6372656173652062792031000000000000000000000000000000000000604082015260600190565b60458152600080516020613e4283398151915260208201527f657475703a20636f6d6d69746d656e7454797065206d75737420626520436f6e60408201527f636c756465000000000000000000000000000000000000000000000000000000606082015260800190565b603f8152600080516020613e4283398151915260208201527f657475703a20616c6c6f636174696f6e73206d75737420626520657175616c00604082015260600190565b603681527f496e76616c6964207472616e736974696f6e2066726f6d204170703a20616c6c60208201527f6f636174696f6e73206d75737420626520657175616c00000000000000000000604082015260600190565b6040808252600080516020613e4283398151915260208301527f657475703a2064657374696e6174696f6e73206d75737420626520657175616c9082015260600190565b604181527f496e76616c6964207472616e736974696f6e2066726f6d20436f6e636c75646560208201527f3a20636f6d6d69746d656e7454797065206d75737420626520436f6e636c756460408201527f6500000000000000000000000000000000000000000000000000000000000000606082015260800190565b605481527f6974206d75737420626520612076616c6964207472616e736974696f6e206f6660208201527f2074686520617070636f6d6d69746d656e74202866726f6d2074686520616c7460408201527f65726e617469766520636f6d6d69746d656e7429000000000000000000000000606082015260800190565b60498152600080516020613e2283398151915260208201527f53657475703a20636f6d6d69746d656e74436f756e74206d75737420696e637260408201527f6561736520627920310000000000000000000000000000000000000000000000606082015260800190565b60408082527f72656675746174696f6e436f6d6d69746d656e74206d7573742068617665207360208301527f616d65206d6f766572206173206368616c6c656e6765436f6d6d69746d656e749082015260600190565b603881527f496e76616c6964207472616e736974696f6e3a206368616e6e656c4964206d7560208201527f7374206d61746368206f6e20746f436f6d6d69746d656e740000000000000000604082015260600190565b603781527f496e76616c6964207472616e736974696f6e2066726f6d204170703a2064657360208201527f74696e6174696f6e73206d75737420626520657175616c000000000000000000604082015260600190565b603181527f7468652072656675746174696f6e436f6d6d69746d656e74206d75737420686160208201527f7665206120686967686572206e6f6e6365000000000000000000000000000000604082015260600190565b601f81527f66726f6d436f6d6d69746d656e74206d75737420626520436f6e636c75646500602082015260400190565b6040808252600080516020613e2283398151915260208301527f53657475703a20616c6c6f636174696f6e73206d75737420626520657175616c9082015260600190565b603c81527f496e76616c6964207472616e736974696f6e2066726f6d204170703a20636f6d60208201527f6d69746d656e7454797065206d75737420626520436f6e636c75646500000000604082015260600190565b601a81527f6d75737420626520612076616c6964207472616e736974696f6e000000000000602082015260400190565b60488152600080516020613e4283398151915260208201527f657475703a20636f6d6d69746d656e74436f756e74206d75737420696e63726560408201527f6173652062792031000000000000000000000000000000000000000000000000606082015260800190565b603b81527f496e76616c6964207472616e736974696f6e2066726f6d20436f6e636c75646560208201527f3a20616c6c6f636174696f6e73206d75737420626520657175616c0000000000604082015260600190565b805160009061012084019061393d8582612c8e565b5060208301516139506020860182613a9e565b50604083015184820360408601526139688282612c9d565b915050606083015161397d6060860182613aa7565b5060808301516139906080860182613a9e565b5060a08301516139a360a0860182613a9e565b5060c083015184820360c08601526139bb8282612c9d565b91505060e083015184820360e08601526139d58282612d41565b915050610100830151848203610100860152610a2a8282612ded565b8051600090610120840190613a068582612c8e565b506020830151613a196020860182613a9e565b5060408301518482036040860152613a318282612cf4565b9150506060830151613a466060860182613aa7565b506080830151613a596080860182613a9e565b5060a0830151613a6c60a0860182613a9e565b5060c083015184820360c0860152613a848282612cf4565b91505060e083015184820360e08601526139d58282612d8e565b612c9781613dcc565b612c9781613dd5565b602081016103ad8284612ddb565b602080825281016103ad81612e22565b602080825281016103ad81612eb2565b602080825281016103ad81612f1c565b602080825281016103ad81612f72565b602080825281016103ad81612fc8565b602080825281016103ad8161301e565b602080825281016103ad81613088565b602080825281016103ad816130cc565b602080825281016103ad81613148565b602080825281016103ad816131b2565b602080825281016103ad81613242565b602080825281016103ad816132ac565b602080825281016103ad81613316565b602080825281016103ad8161336c565b602080825281016103ad816133d6565b602080825281016103ad8161341a565b602080825281016103ad81613470565b602080825281016103ad816134b4565b602080825281016103ad81613530565b602080825281016103ad816135ac565b602080825281016103ad81613616565b602080825281016103ad8161366c565b602080825281016103ad816136c2565b602080825281016103ad81613718565b602080825281016103ad8161376e565b602080825281016103ad8161379e565b602080825281016103ad816137e2565b602080825281016103ad81613838565b602080825281016103ad81613868565b602080825281016103ad816138d2565b6020808252810161168e81846139f1565b60408082528101613cc08185613928565b905081810360208301526129668184613928565b60408082528101613ce581856139f1565b9050818103602083015261296681846139f1565b60808082528101613d0a81876139f1565b9050613d196020830186613aa7565b613d266040830185612de4565b610a2a6060830184612de4565b60405181810167ffffffffffffffff81118282101715613d5257600080fd5b604052919050565b600067ffffffffffffffff821115613d7157600080fd5b5060209081020190565b600067ffffffffffffffff821115613d9257600080fd5b506020601f91909101601f19160190565b60200190565b5190565b60006103ad82613dc0565b151590565b90565b600160a060020a031690565b63ffffffff1690565b60ff1690565b82818337506000910152565b60005b83811015613e02578181015183820152602001613dea565b83811115613e11576000848401525b50505050565b601f01601f19169056fe496e76616c6964207472616e736974696f6e2066726f6d20506f737446756e64496e76616c6964207472616e736974696f6e2066726f6d2050726546756e6453a265627a7a72305820853cf49489c729332b54fdb4e4f6a65f5ae4eac43346d7bbf72a8bb863b981686c6578706572696d656e74616cf50037",
  "source": "pragma solidity ^0.5.0;\npragma experimental ABIEncoderV2;\n\nimport \"./Commitment.sol\";\nimport \"./ForceMoveApp.sol\";\n\nlibrary Rules {\n    using Commitment for Commitment.CommitmentStruct;\n    struct Challenge {\n        address channelId;\n        Commitment.CommitmentStruct commitment;\n        uint32 expirationTime;\n        uint256[] payouts;\n    }\n\n    function validForceMove(\n        Commitment.CommitmentStruct memory _fromCommitment,\n        Commitment.CommitmentStruct memory _toCommitment,\n        uint8[] memory v, // TODO: replace with Signature\n        bytes32[] memory r,\n        bytes32[] memory s\n    ) public pure returns (bool) {\n        // commitments must be signed by the appropriate participant\n        _fromCommitment.requireSignature(v[0], r[0], s[0]);\n        _toCommitment.requireSignature(v[1], r[1], s[1]);\n\n        return validTransition(_fromCommitment, _toCommitment);\n    }\n\n    function validConclusionProof(\n        Commitment.CommitmentStruct memory _fromCommitment,\n        Commitment.CommitmentStruct memory _toCommitment,\n        uint8[] memory v,\n        bytes32[] memory r,\n        bytes32[] memory s\n    ) public pure returns (bool) {\n        // commitments must be signed by the appropriate participant\n        _fromCommitment.requireSignature(v[0], r[0], s[0]);\n        _toCommitment.requireSignature(v[1], r[1], s[1]);\n\n        // first move must be a concluded Commitment (transition rules will ensure this for the other commitments)\n        require(\n            _fromCommitment.isConclude(),\n            \"fromCommitment must be Conclude\"\n        );\n        // must be a valid transition\n        return validTransition(_fromCommitment, _toCommitment);\n    }\n\n    function validRefute(\n        Commitment.CommitmentStruct memory _challengeCommitment,\n        Commitment.CommitmentStruct memory _refutationCommitment,\n        uint8 v,\n        bytes32 r,\n        bytes32 s\n    ) public pure returns (bool) {\n        require(\n            _refutationCommitment.turnNum > _challengeCommitment.turnNum,\n            \"the refutationCommitment must have a higher nonce\"\n        );\n        require(\n            _refutationCommitment.mover() == _challengeCommitment.mover(),\n            \"refutationCommitment must have same mover as challengeCommitment\"\n        );\n        // ... and be signed (by that mover)\n        _refutationCommitment.requireSignature(v, r, s);\n\n        return true;\n    }\n\n    function validRespondWithMove(\n        Commitment.CommitmentStruct memory _challengeCommitment,\n        Commitment.CommitmentStruct memory _nextCommitment,\n        uint8 v,\n        bytes32 r,\n        bytes32 s\n    ) public pure returns (bool) {\n        // check that the challengee's signature matches\n        _nextCommitment.requireSignature(v, r, s);\n\n        require(\n            validTransition(_challengeCommitment, _nextCommitment),\n            \"must be a valid transition\"\n        );\n\n        return true;\n    }\n\n    function validAlternativeRespondWithMove(\n        Commitment.CommitmentStruct memory _challengeCommitment,\n        Commitment.CommitmentStruct memory _alternativeCommitment,\n        Commitment.CommitmentStruct memory _nextCommitment,\n        uint8[] memory v,\n        bytes32[] memory r,\n        bytes32[] memory s\n    ) public pure returns (bool) {\n\n        // checking the alternative Commitment:\n        require(\n            _challengeCommitment.channelId() == _alternativeCommitment.channelId(),\n            \"alternativeCommitment must have the right channel\"\n        );\n        require(\n            _challengeCommitment.turnNum == _alternativeCommitment.turnNum,\n            \"alternativeCommitment must have the same nonce as the challenge commitment\"\n        );\n        // .. it must be signed (by the challenger)\n        _alternativeCommitment.requireSignature(v[0], r[0], s[0]);\n\n        // checking the nextCommitment:\n        // .. it must be signed (my the challengee)\n        _nextCommitment.requireSignature(v[1], r[1], s[1]);\n        require(\n            validTransition(_alternativeCommitment, _nextCommitment),\n            \"it must be a valid transition of the appcommitment (from the alternative commitment)\"\n        );\n\n        return true;\n    }\n\n    function validTransition(\n        Commitment.CommitmentStruct memory  _fromCommitment,\n        Commitment.CommitmentStruct memory _toCommitment\n    ) public pure returns (bool) {\n        require(\n            _toCommitment.channelId() == _fromCommitment.channelId(),\n            \"Invalid transition: channelId must match on toCommitment\"\n        );\n        require(\n            _toCommitment.turnNum == _fromCommitment.turnNum + 1,\n            \"Invalid transition: turnNum must increase by 1\"\n        );\n\n        if (_fromCommitment.isPreFundSetup()) {\n            return validTransitionFromPreFundSetup(_fromCommitment, _toCommitment);\n        } else if (_fromCommitment.isPostFundSetup()) {\n            return validTransitionFromPostFundSetup(_fromCommitment, _toCommitment);\n        } else if (_fromCommitment.isApp()) {\n            return validTransitionFromApp(_fromCommitment, _toCommitment);\n        } else if (_fromCommitment.isConclude()) {\n            return validTransitionFromConclude(_fromCommitment, _toCommitment);\n        }\n\n        return true;\n    }\n\n    function validTransitionFromPreFundSetup(\n        Commitment.CommitmentStruct memory _fromCommitment,\n        Commitment.CommitmentStruct memory _toCommitment\n    ) public pure returns (bool) {\n        if (_fromCommitment.commitmentCount == _fromCommitment.participants.length - 1) {\n            // there are two options from the final PreFundSetup Commitment\n            // 1. PreFundSetup -> PostFundSetup transition\n            // 2. PreFundSetup -> Conclude transition\n            if (_toCommitment.isPostFundSetup()) {\n                require(\n                    _toCommitment.commitmentCount == 0,\n                    \"Invalid transition from PreFundSetup: commitmentCount must be reset when transitioning to PostFundSetup\"\n                );\n                require(\n                    Commitment.appAttributesEqual(_fromCommitment, _toCommitment),\n                    \"Invalid transition from PreFundSetup: appAttributes must be equal\"\n                );\n                require(\n                    Commitment.allocationsEqual(_fromCommitment, _toCommitment),\n                    \"Invalid transition from PreFundSetup: allocations must be equal\"\n                );\n                require(\n                    Commitment.destinationsEqual(_fromCommitment, _toCommitment),\n                    \"Invalid transition from PreFundSetup: destinations must be equal\"\n                );\n            } else {\n                require(\n                    _toCommitment.isConclude(),\n                    \"Invalid transition from PreFundSetup: commitmentType must be Conclude\"\n                );\n                require(\n                    Commitment.allocationsEqual(_fromCommitment, _toCommitment),\n                    \"Invalid transition from PreFundSetup: allocations must be equal\"\n                );\n                require(\n                    Commitment.destinationsEqual(_fromCommitment, _toCommitment),\n                    \"Invalid transition from PreFundSetup: destinations must be equal\"\n                );\n                \n            }\n        } else {\n            // PreFundSetup -> PreFundSetup transition\n            require(\n                _toCommitment.isPreFundSetup(),\n                \"Invalid transition from PreFundSetup: commitmentType must be PreFundSetup\"\n            );\n            require(\n                Commitment.appAttributesEqual(_fromCommitment, _toCommitment),\n                \"Invalid transition from PreFundSetup: appAttributes must be equal\"\n            );\n            require(\n                _toCommitment.commitmentCount == _fromCommitment.commitmentCount + 1,\n                \"Invalid transition from PreFundSetup: commitmentCount must increase by 1\"\n            );\n            require(\n                Commitment.allocationsEqual(_fromCommitment, _toCommitment),\n                \"Invalid transition from PreFundSetup: allocations must be equal\"\n            );\n            require(\n                Commitment.destinationsEqual(_fromCommitment, _toCommitment),\n                \"Invalid transition from PreFundSetup: destinations must be equal\"\n            );\n        }\n        return true;\n    }\n\n    function validTransitionFromPostFundSetup(\n        Commitment.CommitmentStruct memory  _fromCommitment,\n        Commitment.CommitmentStruct memory _toCommitment\n    ) public pure returns (bool) {\n        if (_fromCommitment.commitmentCount == _fromCommitment.participants.length - 1) {\n            if (_toCommitment.isApp()) {\n                require(\n                    validAppTransition(_fromCommitment, _toCommitment),\n                    \"Invalid transition from PostFundSetup: transition must be valid\"\n                );\n            } else {\n                require(\n                    _toCommitment.isConclude(),\n                    \"Invalid transition from PostFundSetup: commitmentType must be Conclude\"\n                );\n\n                require(\n                    Commitment.allocationsEqual(_fromCommitment, _toCommitment),\n                    \"Invalid transition from PostFundSetup: allocations must be equal\"\n                );\n                require(\n                    Commitment.destinationsEqual(_fromCommitment, _toCommitment),\n                    \"Invalid transition from PostFundSetup: destinations must be equal\"\n                );\n\n                require(\n                    _toCommitment.commitmentCount == 0,\n                    \"Invalid transition from PostFundSetup: commitmentCount must be reset when transitioning to Conclude\"\n                );\n            }\n        } else {\n            // Two possibilities:\n            // 1. PostFundSetup -> PostFundSetup transition\n            // 2. PostFundSetup -> Conclude transition\n            if (_toCommitment.isPostFundSetup()) {\n                // PostFundSetup -> PostFundSetup\n                require(\n                    Commitment.appAttributesEqual(_fromCommitment, _toCommitment),\n                    \"Invalid transition from PostFundSetup: appAttributes must be equal\"\n                );\n                require(\n                    _toCommitment.commitmentCount == _fromCommitment.commitmentCount + 1,\n                    \"Invalid transition from PostFundSetup: commitmentCount must increase by 1\"\n                );\n                require(\n                    Commitment.allocationsEqual(_fromCommitment, _toCommitment),\n                    \"Invalid transition from PostFundSetup: allocations must be equal\"\n                );\n                require(\n                    Commitment.destinationsEqual(_fromCommitment, _toCommitment),\n                    \"Invalid transition from PostFundSetup: destinations must be equal\"\n                );\n            } else {\n                // PostFundSetup -> Conclude\n                require(\n                    _toCommitment.isConclude(),\n                    \"Invalid transition from PostFundSetup: commitmentType must be Conclude\"\n                );\n                require(\n                    Commitment.allocationsEqual(_fromCommitment, _toCommitment),\n                    \"Invalid transition from PostFundSetup: allocations must be equal\"\n                );\n                require(\n                    Commitment.destinationsEqual(_fromCommitment, _toCommitment),\n                    \"Invalid transition from PostFundSetup: destinations must be equal\"\n                );\n            }\n        }\n        return true;\n    }\n\n    function validTransitionFromApp(\n        Commitment.CommitmentStruct memory _fromCommitment,\n        Commitment.CommitmentStruct memory _toCommitment\n    ) public pure returns (bool) {\n        if (_toCommitment.isApp()) {\n            require(\n                validAppTransition(_fromCommitment, _toCommitment),\n                \"Invalid transition from App: transition must be valid\"\n            );\n        } else {\n            require(\n                _toCommitment.isConclude(),\n                \"Invalid transition from App: commitmentType must be Conclude\"\n            );\n            require(\n                Commitment.allocationsEqual(_fromCommitment, _toCommitment),\n                \"Invalid transition from App: allocations must be equal\"\n            );\n            require(\n                Commitment.destinationsEqual(_fromCommitment, _toCommitment),\n                \"Invalid transition from App: destinations must be equal\"\n            );\n        }\n        return true;\n    }\n\n    function validTransitionFromConclude(\n        Commitment.CommitmentStruct memory _fromCommitment,\n        Commitment.CommitmentStruct memory _toCommitment\n    ) public pure returns (bool) {\n        require(\n            _toCommitment.isConclude(),\n            \"Invalid transition from Conclude: commitmentType must be Conclude\"\n        );\n        require(\n            Commitment.allocationsEqual(_fromCommitment, _toCommitment),\n            \"Invalid transition from Conclude: allocations must be equal\"\n        );\n        require(\n            Commitment.destinationsEqual(_fromCommitment, _toCommitment),\n            \"Invalid transition from Conclude: destinations must be equal\"\n        );\n        return true;\n    }\n\n    function validAppTransition(\n        Commitment.CommitmentStruct memory _fromCommitment,\n        Commitment.CommitmentStruct memory _toCommitment\n    ) public pure returns (bool) {\n        return ForceMoveApp(_fromCommitment.channelType).validTransition(_fromCommitment, _toCommitment);\n    }\n}\n",
  "sourcePath": "fmg-core/contracts/Rules.sol",
  "compiler": {
    "name": "solc",
    "version": "0.5.0+commit.1d4f565a.Emscripten.clang"
  },
  "schemaVersion": "3.0.2",
  "updatedAt": "2019-02-27T14:22:28.770Z",
  "devdoc": {
    "methods": {}
  },
  "userdoc": {
    "methods": {}
  }
}