{
  "contractName": "TestGame",
  "abi": [
    {
      "constant": true,
      "inputs": [
        {
          "components": [
            {
              "name": "channelType",
              "type": "address"
            },
            {
              "name": "channelNonce",
              "type": "uint32"
            },
            {
              "name": "participants",
              "type": "address[]"
            },
            {
              "name": "commitmentType",
              "type": "uint8"
            },
            {
              "name": "turnNum",
              "type": "uint32"
            },
            {
              "name": "commitmentCount",
              "type": "uint32"
            },
            {
              "name": "destination",
              "type": "address[]"
            },
            {
              "name": "allocation",
              "type": "uint256[]"
            },
            {
              "name": "appAttributes",
              "type": "bytes"
            }
          ],
          "name": "_old",
          "type": "tuple"
        },
        {
          "components": [
            {
              "name": "channelType",
              "type": "address"
            },
            {
              "name": "channelNonce",
              "type": "uint32"
            },
            {
              "name": "participants",
              "type": "address[]"
            },
            {
              "name": "commitmentType",
              "type": "uint8"
            },
            {
              "name": "turnNum",
              "type": "uint32"
            },
            {
              "name": "commitmentCount",
              "type": "uint32"
            },
            {
              "name": "destination",
              "type": "address[]"
            },
            {
              "name": "allocation",
              "type": "uint256[]"
            },
            {
              "name": "appAttributes",
              "type": "bytes"
            }
          ],
          "name": "_new",
          "type": "tuple"
        }
      ],
      "name": "validTransition",
      "outputs": [
        {
          "name": "",
          "type": "bool"
        }
      ],
      "payable": false,
      "stateMutability": "pure",
      "type": "function",
      "signature": "0x40853790"
    }
  ],
  "bytecode": "0x608060405234801561001057600080fd5b506104a7806100206000396000f3fe6080604052600436106100405763ffffffff7c0100000000000000000000000000000000000000000000000000000000600035041663408537908114610045575b600080fd5b34801561005157600080fd5b50610065610060366004610330565b61007b565b60405161007291906103a8565b60405180910390f35b60015b92915050565b60006100908235610444565b9392505050565b6000601f820183136100a857600080fd5b81356100bb6100b6826103dd565b6103b6565b915081818352602084019350602081019050838560208402820111156100e057600080fd5b60005b8381101561010c57816100f68882610084565b84525060209283019291909101906001016100e3565b5050505092915050565b6000601f8201831361012757600080fd5b81356101356100b6826103dd565b9150818183526020840193506020810190508385602084028201111561015a57600080fd5b60005b8381101561010c5781610170888261030c565b845250602092830192919091019060010161015d565b6000601f8201831361019757600080fd5b81356101a56100b6826103fe565b915080825260208301602083018583830111156101c157600080fd5b6101cc838284610461565b50505092915050565b600061012082840312156101e857600080fd5b6101f36101206103b6565b905060006102018484610084565b825250602061021284848301610318565b602083015250604082013567ffffffffffffffff81111561023257600080fd5b61023e84828501610097565b604083015250606061025284828501610324565b606083015250608061026684828501610318565b60808301525060a061027a84828501610318565b60a08301525060c082013567ffffffffffffffff81111561029a57600080fd5b6102a684828501610097565b60c08301525060e082013567ffffffffffffffff8111156102c657600080fd5b6102d284828501610116565b60e08301525061010082013567ffffffffffffffff8111156102f357600080fd5b6102ff84828501610186565b6101008301525092915050565b6000610090823561044f565b60006100908235610452565b6000610090823561045b565b6000806040838503121561034357600080fd5b823567ffffffffffffffff81111561035a57600080fd5b610366858286016101d5565b925050602083013567ffffffffffffffff81111561038357600080fd5b61038f858286016101d5565b9150509250929050565b6103a281610426565b82525050565b6020810161007e8284610399565b60405181810167ffffffffffffffff811182821017156103d557600080fd5b604052919050565b600067ffffffffffffffff8211156103f457600080fd5b5060209081020190565b600067ffffffffffffffff82111561041557600080fd5b506020601f91909101601f19160190565b151590565b73ffffffffffffffffffffffffffffffffffffffff1690565b600061007e8261042b565b90565b63ffffffff1690565b60ff1690565b8281833750600091015256fea265627a7a72305820c87c195609e8edeb03641b83677970cc3ddb4497dc6a27e399362592d815eaaa6c6578706572696d656e74616cf50037",
  "source": "pragma solidity ^0.5.0;\npragma experimental ABIEncoderV2;\nimport \"fmg-nitro-adjudicator/contracts/NitroAdjudicator.sol\";\n\n\ncontract TestGame {\n    function validTransition(Commitment.CommitmentStruct memory _old, Commitment.CommitmentStruct memory _new) public pure returns (bool) {\n       return true;\n    }\n}",
  "sourcePath": "/Users/georgeknee/magmo/apps/packages/wallet/contracts/TestGame.sol",
  "compiler": {
    "name": "solc",
    "version": "0.5.0+commit.1d4f565a.Emscripten.clang"
  },
  "schemaVersion": "3.0.2",
  "updatedAt": "2019-02-27T14:22:28.745Z",
  "devdoc": {
    "methods": {}
  },
  "userdoc": {
    "methods": {}
  }
}