{
  "contractName": "ConsensusApp",
  "abi": [
    {
      "constant": true,
      "inputs": [
        {
          "components": [
            {
              "name": "channelType",
              "type": "address"
            },
            {
              "name": "nonce",
              "type": "uint32"
            },
            {
              "name": "participants",
              "type": "address[]"
            },
            {
              "name": "commitmentType",
              "type": "uint8"
            },
            {
              "name": "turnNum",
              "type": "uint32"
            },
            {
              "name": "commitmentCount",
              "type": "uint32"
            },
            {
              "name": "destination",
              "type": "address[]"
            },
            {
              "name": "allocation",
              "type": "uint256[]"
            },
            {
              "name": "appAttributes",
              "type": "bytes"
            }
          ],
          "name": "_old",
          "type": "tuple"
        },
        {
          "components": [
            {
              "name": "channelType",
              "type": "address"
            },
            {
              "name": "nonce",
              "type": "uint32"
            },
            {
              "name": "participants",
              "type": "address[]"
            },
            {
              "name": "commitmentType",
              "type": "uint8"
            },
            {
              "name": "turnNum",
              "type": "uint32"
            },
            {
              "name": "commitmentCount",
              "type": "uint32"
            },
            {
              "name": "destination",
              "type": "address[]"
            },
            {
              "name": "allocation",
              "type": "uint256[]"
            },
            {
              "name": "appAttributes",
              "type": "bytes"
            }
          ],
          "name": "_new",
          "type": "tuple"
        }
      ],
      "name": "validTransition",
      "outputs": [
        {
          "name": "",
          "type": "bool"
        }
      ],
      "payable": false,
      "stateMutability": "pure",
      "type": "function",
      "signature": "0x40853790"
    }
  ],
  "bytecode": "0x608060405234801561001057600080fd5b50611434806100206000396000f3fe6080604052600436106100405763ffffffff7c0100000000000000000000000000000000000000000000000000000000600035041663408537908114610045575b600080fd5b34801561005157600080fd5b506100656100603660046109b6565b61007b565b6040516100729190611240565b60405180910390f35b60006100856104ed565b6040517f1e55d81e00000000000000000000000000000000000000000000000000000000815273__ConsensusCommitment___________________90631e55d81e906100d59087906004016112ee565b60006040518083038186803b1580156100ed57600080fd5b505af4158015610101573d6000803e3d6000fd5b505050506040513d6000823e601f3d908101601f191682016040526101299190810190610a1f565b90506101336104ed565b6040517f1e55d81e00000000000000000000000000000000000000000000000000000000815273__ConsensusCommitment___________________90631e55d81e906101839087906004016112ee565b60006040518083038186803b15801561019b57600080fd5b505af41580156101af573d6000803e3d6000fd5b505050506040513d6000823e601f3d908101601f191682016040526101d79190810190610a1f565b60408601515183519192509063ffffffff16600019820114156102ef57815163ffffffff16156102255760405160e560020a62461bcd02815260040161021c9061129e565b60405180910390fd5b61023282606001516104aa565b61023f83602001516104aa565b148015610263575061025482606001516104aa565b61026184606001516104aa565b145b15156102845760405160e560020a62461bcd02815260040161021c906112de565b61029182608001516104da565b61029e83604001516104da565b1480156102c257506102b382608001516104da565b6102c084608001516104da565b145b15156102e35760405160e560020a62461bcd02815260040161021c9061127e565b600193505050506104a4565b60018103836000015163ffffffff1610801561031a57508251825163ffffffff908116600190920116145b156104075761032c82602001516104aa565b61033984602001516104aa565b146103595760405160e560020a62461bcd02815260040161021c906112ae565b61036682604001516104da565b61037384604001516104da565b146103935760405160e560020a62461bcd02815260040161021c906112ce565b6103a082606001516104aa565b6103ad84606001516104aa565b146103cd5760405160e560020a62461bcd02815260040161021c9061124e565b6103da82608001516104da565b6103e784608001516104da565b146102e35760405160e560020a62461bcd02815260040161021c9061128e565b815163ffffffff1615156104895761042282602001516104aa565b61042f84602001516104aa565b1461044f5760405160e560020a62461bcd02815260040161021c906112be565b61045c82604001516104da565b61046984604001516104da565b146102e35760405160e560020a62461bcd02815260040161021c9061126e565b60405160e560020a62461bcd02815260040161021c9061125e565b92915050565b6000816040516020016104bd919061122f565b604051602081830303815290604052805190602001209050919050565b6000816040516020016104bd919061121e565b60a060405190810160405280600063ffffffff168152602001606081526020016060815260200160608152602001606081525090565b600061052f8235611379565b9392505050565b600061052f8251611379565b6000601f8201831361055357600080fd5b813561056661056182611326565b6112ff565b9150818183526020840193506020810190508385602084028201111561058b57600080fd5b60005b838110156105b757816105a18882610523565b845250602092830192919091019060010161058e565b5050505092915050565b6000601f820183136105d257600080fd5b81516105e061056182611326565b9150818183526020840193506020810190508385602084028201111561060557600080fd5b60005b838110156105b7578161061b8882610536565b8452506020928301929190910190600101610608565b6000601f8201831361064257600080fd5b813561065061056182611326565b9150818183526020840193506020810190508385602084028201111561067557600080fd5b60005b838110156105b7578161068b888261097a565b8452506020928301929190910190600101610678565b6000601f820183136106b257600080fd5b81516106c061056182611326565b915081818352602084019350602081019050838560208402820111156106e557600080fd5b60005b838110156105b757816106fb8882610986565b84525060209283019291909101906001016106e8565b6000601f8201831361072257600080fd5b813561073061056182611347565b9150808252602083016020830185838301111561074c57600080fd5b6107578382846113b4565b50505092915050565b6000610120828403121561077357600080fd5b61077e6101206112ff565b9050600061078c8484610523565b825250602061079d84848301610992565b602083015250604082013567ffffffffffffffff8111156107bd57600080fd5b6107c984828501610542565b60408301525060606107dd848285016109aa565b60608301525060806107f184828501610992565b60808301525060a061080584828501610992565b60a08301525060c082013567ffffffffffffffff81111561082557600080fd5b61083184828501610542565b60c08301525060e082013567ffffffffffffffff81111561085157600080fd5b61085d84828501610631565b60e08301525061010082013567ffffffffffffffff81111561087e57600080fd5b61088a84828501610711565b6101008301525092915050565b600060a082840312156108a957600080fd5b6108b360a06112ff565b905060006108c1848461099e565b825250602082015167ffffffffffffffff8111156108de57600080fd5b6108ea848285016106a1565b602083015250604082015167ffffffffffffffff81111561090a57600080fd5b610916848285016105c1565b604083015250606082015167ffffffffffffffff81111561093657600080fd5b610942848285016106a1565b606083015250608082015167ffffffffffffffff81111561096257600080fd5b61096e848285016105c1565b60808301525092915050565b600061052f82356113a2565b600061052f82516113a2565b600061052f82356113a5565b600061052f82516113a5565b600061052f82356113ae565b600080604083850312156109c957600080fd5b823567ffffffffffffffff8111156109e057600080fd5b6109ec85828601610760565b925050602083013567ffffffffffffffff811115610a0957600080fd5b610a1585828601610760565b9150509250929050565b600060208284031215610a3157600080fd5b815167ffffffffffffffff811115610a4857600080fd5b610a5484828501610897565b949350505050565b610a6581611379565b82525050565b6000610a7682611375565b808452602084019350610a888361136f565b60005b82811015610ab857610a9e868351610a5c565b610aa78261136f565b602096909601959150600101610a8b565b5093949350505050565b6000610acd82611375565b808452602084019350610adf8361136f565b60005b82811015610ab857610af5868351610a5c565b610afe8261136f565b602096909601959150600101610ae2565b6000610b1a82611375565b808452602084019350610b2c8361136f565b60005b82811015610ab857610b42868351611203565b610b4b8261136f565b602096909601959150600101610b2f565b6000610b6782611375565b808452602084019350610b798361136f565b60005b82811015610ab857610b8f868351611203565b610b988261136f565b602096909601959150600101610b7c565b610a6581611384565b6000610bbd82611375565b808452610bd18160208601602086016113c0565b610bda816113f0565b9093016020019392505050565b604381527f436f6e73656e7375734170703a2070726f706f736564416c6c6f636174696f6e60208201527f73206d757374206d6174636820647572696e6720636f6e73656e73757320726f60408201527f756e640000000000000000000000000000000000000000000000000000000000606082015260800190565b603e81527f436f6e73656e7375734170703a20496e76616c696420696e707574202d2d206360208201527f6f6e73656e73757320636f756e74657273206f7574206f662072616e67650000604082015260600190565b606e81527f436f756e74696e674170703a2063757272656e7444657374696e6174696f6e7360208201527f206d75737420626520657175616c207768656e20726573657474696e6720746860408201527f6520636f6e73656e737573436f756e746572206265666f72652074686520656e60608201527f64206f662074686520726f756e64000000000000000000000000000000000000608082015260a00190565b607d81527f436f6e73656e7375734170703a206e6577436f6d6d69746d656e742e6375727260208201527f656e7444657374696e6174696f6e206d757374206d61746368206e6577436f6d60408201527f6d69746d656e742e70726f706f73656444657374696e6174696f6e206174207460608201527f686520656e64206f662074686520636f6e73656e73757320726f756e64000000608082015260a00190565b604481527f436f6e73656e7375734170703a2070726f706f73656444657374696e6174696f60208201527f6e73206d757374206d6174636820647572696e6720636f6e73656e737573207260408201527f6f756e6400000000000000000000000000000000000000000000000000000000606082015260800190565b604f81527f436f6e73656e7375734170703a20636f6e73656e73757320636f756e7465722060208201527f6d7573742062652072657365742061742074686520656e64206f66207468652060408201527f636f6e73656e73757320726f756e640000000000000000000000000000000000606082015260800190565b604281527f436f6e73656e7375734170703a2063757272656e74416c6c6f636174696f6e7360208201527f206d757374206d6174636820647572696e6720636f6e73656e73757320726f7560408201527f6e64000000000000000000000000000000000000000000000000000000000000606082015260800190565b606d81527f436f756e74696e674170703a2063757272656e74416c6c6f636174696f6e732060208201527f6d75737420626520657175616c207768656e20726573657474696e672074686560408201527f20636f6e73656e737573436f756e746572206265666f72652074686520656e6460608201527f206f662074686520726f756e6400000000000000000000000000000000000000608082015260a00190565b604381527f436f6e73656e7375734170703a2063757272656e7444657374696e6174696f6e60208201527f73206d757374206d6174636820647572696e6720636f6e73656e73757320726f60408201527f756e640000000000000000000000000000000000000000000000000000000000606082015260800190565b607b81527f436f6e73656e7375734170703a206e6577436f6d6d69746d656e742e6375727260208201527f656e74416c6c6f636174696f6e206d757374206d61746368206e6577436f6d6d60408201527f69746d656e742e70726f706f736564416c6c6f636174696f6e2061742074686560608201527f20656e64206f662074686520636f6e73656e73757320726f756e640000000000608082015260a00190565b80516000906101208401906111468582610a5c565b506020830151611159602086018261120c565b50604083015184820360408601526111718282610ac2565b91505060608301516111866060860182611215565b506080830151611199608086018261120c565b5060a08301516111ac60a086018261120c565b5060c083015184820360c08601526111c48282610ac2565b91505060e083015184820360e08601526111de8282610b5c565b9150506101008301518482036101008601526111fa8282610bb2565b95945050505050565b610a65816113a2565b610a65816113a5565b610a65816113ae565b6020808252810161052f8184610a6b565b6020808252810161052f8184610b0f565b602081016104a48284610ba9565b602080825281016104a481610be7565b602080825281016104a481610c63565b602080825281016104a481610cb9565b602080825281016104a481610d5b565b602080825281016104a481610dfd565b602080825281016104a481610e79565b602080825281016104a481610ef5565b602080825281016104a481610f71565b602080825281016104a481611013565b602080825281016104a48161108f565b6020808252810161052f8184611131565b60405181810167ffffffffffffffff8111828210171561131e57600080fd5b604052919050565b600067ffffffffffffffff82111561133d57600080fd5b5060209081020190565b600067ffffffffffffffff82111561135e57600080fd5b506020601f91909101601f19160190565b60200190565b5190565b60006104a482611389565b151590565b73ffffffffffffffffffffffffffffffffffffffff1690565b90565b63ffffffff1690565b60ff1690565b82818337506000910152565b60005b838110156113db5781810151838201526020016113c3565b838111156113ea576000848401525b50505050565b601f01601f19169056fea265627a7a723058203d0776888d3c243907df1e80bc8d52a2c3d48198c20887ef1cf15577c1c8ada06c6578706572696d656e74616cf50037",
  "source": "pragma solidity ^0.5.0;\npragma experimental ABIEncoderV2;\n\nimport \"fmg-core/contracts/Commitment.sol\";\nimport \"./ConsensusCommitment.sol\";\n\ncontract ConsensusApp {\n    using ConsensusCommitment for ConsensusCommitment.ConsensusCommitmentStruct;\n\n    function validTransition(Commitment.CommitmentStruct memory _old, Commitment.CommitmentStruct memory _new) public pure returns (bool) {\n\n        ConsensusCommitment.ConsensusCommitmentStruct memory oldCommitment = ConsensusCommitment.fromFrameworkCommitment(_old);\n        ConsensusCommitment.ConsensusCommitmentStruct memory newCommitment = ConsensusCommitment.fromFrameworkCommitment(_new);\n\n        uint numParticipants = _old.participants.length;\n        if (oldCommitment.consensusCounter == numParticipants - 1) {\n            require(\n                newCommitment.consensusCounter == 0,\n                \"ConsensusApp: consensus counter must be reset at the end of the consensus round\"\n            );\n            require(\n              hashedAllocation(newCommitment.currentAllocation) == hashedAllocation(newCommitment.proposedAllocation) && hashedAllocation(oldCommitment.proposedAllocation) == hashedAllocation(newCommitment.proposedAllocation),\n              \"ConsensusApp: newCommitment.currentAllocation must match newCommitment.proposedAllocation at the end of the consensus round\"\n            );\n            require(\n              hashedDestination(newCommitment.currentDestination) == hashedDestination(newCommitment.proposedDestination) && hashedDestination(oldCommitment.proposedDestination) == hashedDestination(newCommitment.proposedDestination),\n              \"ConsensusApp: newCommitment.currentDestination must match newCommitment.proposedDestination at the end of the consensus round\"\n            );\n\n            return true;\n\n        } else if (oldCommitment.consensusCounter < numParticipants - 1 && newCommitment.consensusCounter == oldCommitment.consensusCounter + 1) {\n            require(\n              hashedAllocation(oldCommitment.currentAllocation) == hashedAllocation(newCommitment.currentAllocation),\n              \"ConsensusApp: currentAllocations must match during consensus round\"\n            );\n            require(\n              hashedDestination(oldCommitment.currentDestination) == hashedDestination(newCommitment.currentDestination),\n              \"ConsensusApp: currentDestinations must match during consensus round\"\n            );\n            require(\n              hashedAllocation(oldCommitment.proposedAllocation) == hashedAllocation(newCommitment.proposedAllocation),\n              \"ConsensusApp: proposedAllocations must match during consensus round\"\n            );\n            require(\n              hashedDestination(oldCommitment.proposedDestination) == hashedDestination(newCommitment.proposedDestination),\n              \"ConsensusApp: proposedDestinations must match during consensus round\"\n            );\n\n            return true;\n\n        } else if (newCommitment.consensusCounter == 0) {\n            require(\n                hashedAllocation(oldCommitment.currentAllocation) == hashedAllocation(newCommitment.currentAllocation),\n                \"CountingApp: currentAllocations must be equal when resetting the consensusCounter before the end of the round\"\n            );\n            require(\n                hashedDestination(oldCommitment.currentDestination) == hashedDestination(newCommitment.currentDestination),\n                \"CountingApp: currentDestinations must be equal when resetting the consensusCounter before the end of the round\"\n            );\n            return true;\n        }\n\n        revert('ConsensusApp: Invalid input -- consensus counters out of range');\n    }\n\n    function hashedAllocation(uint256[] memory allocation) internal pure returns (bytes32) {\n        return keccak256(abi.encode(allocation));\n    }\n\n    function hashedDestination(address[] memory destination) internal pure returns (bytes32) {\n        return keccak256(abi.encode(destination));\n    }\n}",
  "sourcePath": "fmg-nitro-adjudicator/contracts/ConsensusApp.sol",
  "compiler": {
    "name": "solc",
    "version": "0.5.0+commit.1d4f565a.Emscripten.clang"
  },
  "schemaVersion": "3.0.2",
  "updatedAt": "2019-04-12T23:02:42.781Z",
  "devdoc": {
    "methods": {}
  },
  "userdoc": {
    "methods": {}
  }
}