{
  "contractName": "ConsensusCommitment",
  "abi": [
    {
      "constant": true,
      "inputs": [
        {
          "components": [
            {
              "name": "channelType",
              "type": "address"
            },
            {
              "name": "nonce",
              "type": "uint32"
            },
            {
              "name": "participants",
              "type": "address[]"
            },
            {
              "name": "commitmentType",
              "type": "uint8"
            },
            {
              "name": "turnNum",
              "type": "uint32"
            },
            {
              "name": "commitmentCount",
              "type": "uint32"
            },
            {
              "name": "destination",
              "type": "address[]"
            },
            {
              "name": "allocation",
              "type": "uint256[]"
            },
            {
              "name": "appAttributes",
              "type": "bytes"
            }
          ],
          "name": "frameworkCommitment",
          "type": "tuple"
        }
      ],
      "name": "appAttributes",
      "outputs": [
        {
          "components": [
            {
              "name": "consensusCounter",
              "type": "uint32"
            },
            {
              "name": "proposedAllocation",
              "type": "uint256[]"
            },
            {
              "name": "proposedDestination",
              "type": "address[]"
            }
          ],
          "name": "",
          "type": "tuple"
        }
      ],
      "payable": false,
      "stateMutability": "pure",
      "type": "function",
      "signature": "0x6ff7b953"
    },
    {
      "constant": true,
      "inputs": [
        {
          "components": [
            {
              "name": "channelType",
              "type": "address"
            },
            {
              "name": "nonce",
              "type": "uint32"
            },
            {
              "name": "participants",
              "type": "address[]"
            },
            {
              "name": "commitmentType",
              "type": "uint8"
            },
            {
              "name": "turnNum",
              "type": "uint32"
            },
            {
              "name": "commitmentCount",
              "type": "uint32"
            },
            {
              "name": "destination",
              "type": "address[]"
            },
            {
              "name": "allocation",
              "type": "uint256[]"
            },
            {
              "name": "appAttributes",
              "type": "bytes"
            }
          ],
          "name": "frameworkCommitment",
          "type": "tuple"
        }
      ],
      "name": "fromFrameworkCommitment",
      "outputs": [
        {
          "components": [
            {
              "name": "consensusCounter",
              "type": "uint32"
            },
            {
              "name": "currentAllocation",
              "type": "uint256[]"
            },
            {
              "name": "currentDestination",
              "type": "address[]"
            },
            {
              "name": "proposedAllocation",
              "type": "uint256[]"
            },
            {
              "name": "proposedDestination",
              "type": "address[]"
            }
          ],
          "name": "",
          "type": "tuple"
        }
      ],
      "payable": false,
      "stateMutability": "pure",
      "type": "function",
      "signature": "0x1ca37d74"
    }
  ],
  "bytecode": "0x6108ee610030600b82828239805160001a6073146000811461002057610022565bfe5b5030600052607381538281f3fe73000000000000000000000000000000000000000030146080604052600436106100625763ffffffff7c01000000000000000000000000000000000000000000000000000000006000350416631e55d81e8114610067578063d3a1626814610090575b600080fd5b61007a610075366004610619565b6100b0565b60405161008791906107ed565b60405180910390f35b6100a361009e366004610619565b61011c565b60405161008791906107dc565b6100b8610143565b6100c0610179565b8261010001518060200190516100d991908101906105dc565b6040805160a081018252825163ffffffff16815260e086015160208083019190915260c08701518284015283015160608201529101516080820152915050919050565b610124610179565b81610100015180602001905161013d91908101906105dc565b92915050565b60a060405190810160405280600063ffffffff168152602001606081526020016060815260200160608152602001606081525090565b606060405190810160405280600063ffffffff16815260200160608152602001606081525090565b60006101ad8235610878565b9392505050565b60006101ad8251610878565b6000601f820183136101d157600080fd5b81356101e46101df82610825565b6107fe565b9150818183526020840193506020810190508385602084028201111561020957600080fd5b60005b83811015610235578161021f88826101a1565b845250602092830192919091019060010161020c565b5050505092915050565b6000601f8201831361025057600080fd5b815161025e6101df82610825565b9150818183526020840193506020810190508385602084028201111561028357600080fd5b60005b83811015610235578161029988826101b4565b8452506020928301929190910190600101610286565b6000601f820183136102c057600080fd5b81356102ce6101df82610825565b915081818352602084019350602081019050838560208402820111156102f357600080fd5b60005b83811015610235578161030988826105a0565b84525060209283019291909101906001016102f6565b6000601f8201831361033057600080fd5b815161033e6101df82610825565b9150818183526020840193506020810190508385602084028201111561036357600080fd5b60005b83811015610235578161037988826105ac565b8452506020928301929190910190600101610366565b6000601f820183136103a057600080fd5b81356103ae6101df82610846565b915080825260208301602083018583830111156103ca57600080fd5b6103d58382846108a8565b50505092915050565b6000606082840312156103f057600080fd5b6103fa60606107fe565b9050600061040884846105c4565b825250602082015167ffffffffffffffff81111561042557600080fd5b6104318482850161031f565b602083015250604082015167ffffffffffffffff81111561045157600080fd5b61045d8482850161023f565b60408301525092915050565b6000610120828403121561047c57600080fd5b6104876101206107fe565b9050600061049584846101a1565b82525060206104a6848483016105b8565b602083015250604082013567ffffffffffffffff8111156104c657600080fd5b6104d2848285016101c0565b60408301525060606104e6848285016105d0565b60608301525060806104fa848285016105b8565b60808301525060a061050e848285016105b8565b60a08301525060c082013567ffffffffffffffff81111561052e57600080fd5b61053a848285016101c0565b60c08301525060e082013567ffffffffffffffff81111561055a57600080fd5b610566848285016102af565b60e08301525061010082013567ffffffffffffffff81111561058757600080fd5b6105938482850161038f565b6101008301525092915050565b60006101ad8235610896565b60006101ad8251610896565b60006101ad8235610899565b60006101ad8251610899565b60006101ad82356108a2565b6000602082840312156105ee57600080fd5b815167ffffffffffffffff81111561060557600080fd5b610611848285016103de565b949350505050565b60006020828403121561062b57600080fd5b813567ffffffffffffffff81111561064257600080fd5b61061184828501610469565b61065781610878565b82525050565b600061066882610874565b80845260208401935061067a8361086e565b60005b828110156106aa5761069086835161064e565b6106998261086e565b60209690960195915060010161067d565b5093949350505050565b60006106bf82610874565b8084526020840193506106d18361086e565b60005b828110156106aa576106e78683516107ca565b6106f08261086e565b6020969096019591506001016106d4565b8051600090606084019061071585826107d3565b506020830151848203602086015261072d82826106b4565b91505060408301518482036040860152610747828261065d565b95945050505050565b805160009060a084019061076485826107d3565b506020830151848203602086015261077c82826106b4565b91505060408301518482036040860152610796828261065d565b915050606083015184820360608601526107b082826106b4565b91505060808301518482036080860152610747828261065d565b61065781610896565b61065781610899565b602080825281016101ad8184610701565b602080825281016101ad8184610750565b60405181810167ffffffffffffffff8111828210171561081d57600080fd5b604052919050565b600067ffffffffffffffff82111561083c57600080fd5b5060209081020190565b600067ffffffffffffffff82111561085d57600080fd5b506020601f91909101601f19160190565b60200190565b5190565b600073ffffffffffffffffffffffffffffffffffffffff821661013d565b90565b63ffffffff1690565b60ff1690565b8281833750600091015256fea265627a7a72305820df6243eb6747cabe662114f955cf3e942fb9558a98d59ea4185fa6c447956f5d6c6578706572696d656e74616cf50037",
  "source": "pragma solidity ^0.5.0;\npragma experimental ABIEncoderV2;\n\nimport \"fmg-core/contracts/Commitment.sol\";\n\nlibrary ConsensusCommitment {\n    using Commitment for Commitment.CommitmentStruct;\n\n    struct AppAttributes {\n        uint32 consensusCounter;\n        uint256[] proposedAllocation;\n        address[] proposedDestination;\n    }\n\n    struct ConsensusCommitmentStruct {\n        uint32 consensusCounter;\n        uint256[] currentAllocation;\n        address[] currentDestination;\n        uint256[] proposedAllocation;\n        address[] proposedDestination;\n    }\n\n    function appAttributes(Commitment.CommitmentStruct memory frameworkCommitment) public pure returns(AppAttributes memory) {\n        return abi.decode(frameworkCommitment.appAttributes, (AppAttributes));\n    }\n\n    function fromFrameworkCommitment(Commitment.CommitmentStruct memory frameworkCommitment) public pure returns (ConsensusCommitmentStruct memory) {\n        AppAttributes memory appAttributes = abi.decode(frameworkCommitment.appAttributes, (AppAttributes));\n\n        return ConsensusCommitmentStruct(\n            appAttributes.consensusCounter,\n            frameworkCommitment.allocation,\n            frameworkCommitment.destination,\n            appAttributes.proposedAllocation,\n            appAttributes.proposedDestination\n        );\n    }\n}",
  "sourcePath": "fmg-nitro-adjudicator/contracts/ConsensusCommitment.sol",
  "compiler": {
    "name": "solc",
    "version": "0.5.0+commit.1d4f565a.Emscripten.clang"
  },
  "schemaVersion": "3.0.2",
  "updatedAt": "2019-04-12T23:02:42.777Z",
  "devdoc": {
    "methods": {}
  },
  "userdoc": {
    "methods": {}
  }
}