{
  "contractName": "ConsensusApp",
  "abi": [
    {
      "constant": true,
      "inputs": [
        {
          "components": [
            {
              "internalType": "bytes",
              "name": "outcome",
              "type": "bytes"
            },
            {
              "internalType": "bytes",
              "name": "appData",
              "type": "bytes"
            }
          ],
          "internalType": "struct ForceMoveApp.VariablePart",
          "name": "a",
          "type": "tuple"
        },
        {
          "components": [
            {
              "internalType": "bytes",
              "name": "outcome",
              "type": "bytes"
            },
            {
              "internalType": "bytes",
              "name": "appData",
              "type": "bytes"
            }
          ],
          "internalType": "struct ForceMoveApp.VariablePart",
          "name": "b",
          "type": "tuple"
        },
        {
          "internalType": "uint256",
          "name": "",
          "type": "uint256"
        },
        {
          "internalType": "uint256",
          "name": "numParticipants",
          "type": "uint256"
        }
      ],
      "name": "validTransition",
      "outputs": [
        {
          "internalType": "bool",
          "name": "",
          "type": "bool"
        }
      ],
      "payable": false,
      "stateMutability": "pure",
      "type": "function"
    }
  ],
  "bytecode": "0x608060405234801561001057600080fd5b506108fc806100206000396000f3fe608060405234801561001057600080fd5b506004361061002b5760003560e01c806395127f9914610030575b600080fd5b61004361003e366004610417565b610059565b6040516100509190610760565b60405180910390f35b6000610063610249565b61007086602001516101ce565b905061007a610249565b61008786602001516101ce565b805190915063ffffffff16600019850114156100d557865186516100ab91906101f0565b6100d05760405162461bcd60e51b81526004016100c7906107a6565b60405180910390fd5b6101c1565b805163ffffffff1661013957816000015163ffffffff1660011461010b5760405162461bcd60e51b81526004016100c7906107d6565b61011d826020015187600001516101f0565b6100d05760405162461bcd60e51b81526004016100c7906107b6565b8151815163ffffffff90811660001990920116146101695760405162461bcd60e51b81526004016100c7906107c6565b8651865161017791906101f0565b6101935760405162461bcd60e51b81526004016100c790610796565b6101a5826020015182602001516101f0565b6101c15760405162461bcd60e51b81526004016100c790610786565b5060019695505050505050565b6101d6610249565b818060200190516101ea91908101906103da565b92915050565b600081604051602001610203919061076e565b604051602081830303815290604052805190602001208360405160200161022a919061076e565b6040516020818303038152906040528051906020012014905092915050565b60408051808201909152600081526060602082015290565b600082601f83011261027257600080fd5b81356102856102808261080d565b6107e6565b915080825260208301602083018583830111156102a157600080fd5b6102ac838284610853565b50505092915050565b600082601f8301126102c657600080fd5b81516102d46102808261080d565b915080825260208301602083018583830111156102f057600080fd5b6102ac83828461085f565b60006040828403121561030d57600080fd5b61031760406107e6565b9050600061032584846103cf565b825250602082015167ffffffffffffffff81111561034257600080fd5b61034e848285016102b5565b60208301525092915050565b60006040828403121561036c57600080fd5b61037660406107e6565b9050813567ffffffffffffffff81111561038f57600080fd5b61039b84828501610261565b825250602082013567ffffffffffffffff8111156103b857600080fd5b61034e84828501610261565b80356101ea81610899565b80516101ea816108b0565b6000602082840312156103ec57600080fd5b815167ffffffffffffffff81111561040357600080fd5b61040f848285016102fb565b949350505050565b6000806000806080858703121561042d57600080fd5b843567ffffffffffffffff81111561044457600080fd5b6104508782880161035a565b945050602085013567ffffffffffffffff81111561046d57600080fd5b6104798782880161035a565b935050604061048a878288016103c4565b925050606061049b878288016103c4565b91505092959194509250565b6104b081610842565b82525050565b60006104c182610835565b6104cb8185610839565b93506104db81856020860161085f565b6104e48161088f565b9093019392505050565b60006104fb603b83610839565b7f436f6e73656e7375734170703a20696e76616c696420766f74652c2070726f7081527f6f7365644f7574636f6d65206d757374206e6f74206368616e67650000000000602082015260400192915050565b600061055a603283610839565b7f436f6e73656e7375734170703a207768656e20766f74696e672c206f7574636f8152716d65206d757374206e6f74206368616e676560701b602082015260400192915050565b60006105ae604483610839565b7f436f6e73656e7375734170703a207768656e2070726f706f73696e672f76657481527f6f696e672f70617373696e67206f7574636f6d65206d757374206e6f74206368602082015263616e676560e01b604082015260600192915050565b600061061a604d83610839565b7f436f6e73656e7375734170703a20696e76616c69642066696e616c20766f746581527f2c206f7574636f6d65206d75737420657175616c2070726576696f757320707260208201526c6f706f7365644f7574636f6d6560981b604082015260600192915050565b600061068f604183610839565b7f436f6e73656e7375734170703a20696e76616c696420766f74652c206675727481527f686572566f74657352657175697265642073686f756c642064656372656d656e6020820152601d60fa1b604082015260600192915050565b60006106f8604d83610839565b7f436f6e73656e7375734170703a20696e76616c69642066696e616c20766f746581527f2c2066757274686572566f7465735265717569726564206d757374207472616e60208201526c736974696f6e2066726f6d203160981b604082015260600192915050565b602081016101ea82846104a7565b6020808252810161077f81846104b6565b9392505050565b602080825281016101ea816104ee565b602080825281016101ea8161054d565b602080825281016101ea816105a1565b602080825281016101ea8161060d565b602080825281016101ea81610682565b602080825281016101ea816106eb565b60405181810167ffffffffffffffff8111828210171561080557600080fd5b604052919050565b600067ffffffffffffffff82111561082457600080fd5b506020601f91909101601f19160190565b5190565b90815260200190565b151590565b90565b63ffffffff1690565b82818337506000910152565b60005b8381101561087a578181015183820152602001610862565b83811115610889576000848401525b50505050565b601f01601f191690565b6108a281610847565b81146108ad57600080fd5b50565b6108a28161084a56fea365627a7a72315820ee208b472fd0ae3a8dcf9e44e893b43a2c7c4589b23bbdcaa2e4c875579d22d36c6578706572696d656e74616cf564736f6c634300050b0040",
  "source": "pragma solidity ^0.5.11;\npragma experimental ABIEncoderV2;\n\nimport './ForceMoveApp.sol';\n\ncontract ConsensusApp is ForceMoveApp {\n    struct ConsensusAppData {\n        uint32 furtherVotesRequired;\n        bytes proposedOutcome;\n    }\n\n    function appData(bytes memory appDataBytes) internal pure returns (ConsensusAppData memory) {\n        return abi.decode(appDataBytes, (ConsensusAppData));\n    }\n\n    function validTransition(\n        VariablePart memory a,\n        VariablePart memory b,\n        uint256, // turnNumB\n        uint256 numParticipants\n    ) public pure returns (bool) {\n        ConsensusAppData memory appDataA = appData(a.appData);\n        ConsensusAppData memory appDataB = appData(b.appData);\n\n        if (appDataB.furtherVotesRequired == numParticipants - 1) {\n            // propose/veto/pass\n            require(\n                identical(a.outcome, b.outcome),\n                'ConsensusApp: when proposing/vetoing/passing outcome must not change'\n            );\n        } else if (appDataB.furtherVotesRequired == 0) {\n            // final vote\n            require(\n                appDataA.furtherVotesRequired == 1,\n                'ConsensusApp: invalid final vote, furtherVotesRequired must transition from 1'\n            );\n            require(\n                identical(appDataA.proposedOutcome, b.outcome),\n                'ConsensusApp: invalid final vote, outcome must equal previous proposedOutcome'\n            );\n        } else {\n            // vote\n            require(\n                appDataB.furtherVotesRequired == appDataA.furtherVotesRequired - 1,\n                'ConsensusApp: invalid vote, furtherVotesRequired should decrement'\n            );\n            require(\n                identical(a.outcome, b.outcome),\n                'ConsensusApp: when voting, outcome must not change'\n            );\n            require(\n                identical(appDataA.proposedOutcome, appDataB.proposedOutcome),\n                'ConsensusApp: invalid vote, proposedOutcome must not change'\n            );\n        }\n        return true;\n    }\n\n    // Utilitiy helpers\n\n    function identical(bytes memory a, bytes memory b) internal pure returns (bool) {\n        return (keccak256(abi.encode(a)) == keccak256(abi.encode(b)));\n    }\n\n}\n",
  "sourcePath": "nitro-protocol/contracts/ConsensusApp.sol",
  "compiler": {
    "name": "solc",
    "version": "0.5.11+commit.c082d0b4.Emscripten.clang"
  },
  "schemaVersion": "3.0.16",
  "updatedAt": "2019-09-25T00:22:28.113Z",
  "devdoc": {
    "methods": {}
  },
  "userdoc": {
    "methods": {}
  }
}