{
  "contractName": "ETHAssetHolder",
  "abi": [
    {
      "constant": false,
      "inputs": [
        {
          "internalType": "bytes32",
          "name": "channelId",
          "type": "bytes32"
        },
        {
          "internalType": "bytes",
          "name": "allocationBytes",
          "type": "bytes"
        }
      ],
      "name": "transferAll",
      "outputs": [],
      "payable": false,
      "stateMutability": "nonpayable",
      "type": "function"
    },
    {
      "constant": true,
      "inputs": [
        {
          "internalType": "bytes32",
          "name": "",
          "type": "bytes32"
        }
      ],
      "name": "outcomeHashes",
      "outputs": [
        {
          "internalType": "bytes32",
          "name": "",
          "type": "bytes32"
        }
      ],
      "payable": false,
      "stateMutability": "view",
      "type": "function"
    },
    {
      "constant": false,
      "inputs": [
        {
          "internalType": "bytes32",
          "name": "channelId",
          "type": "bytes32"
        },
        {
          "internalType": "bytes32",
          "name": "outcomeHash",
          "type": "bytes32"
        }
      ],
      "name": "setAssetOutcomeHash",
      "outputs": [
        {
          "internalType": "bool",
          "name": "success",
          "type": "bool"
        }
      ],
      "payable": false,
      "stateMutability": "nonpayable",
      "type": "function"
    },
    {
      "constant": true,
      "inputs": [
        {
          "internalType": "bytes32",
          "name": "",
          "type": "bytes32"
        }
      ],
      "name": "holdings",
      "outputs": [
        {
          "internalType": "uint256",
          "name": "",
          "type": "uint256"
        }
      ],
      "payable": false,
      "stateMutability": "view",
      "type": "function"
    },
    {
      "constant": false,
      "inputs": [
        {
          "internalType": "bytes32",
          "name": "guarantorChannelId",
          "type": "bytes32"
        },
        {
          "internalType": "bytes",
          "name": "guaranteeBytes",
          "type": "bytes"
        },
        {
          "internalType": "bytes",
          "name": "allocationBytes",
          "type": "bytes"
        }
      ],
      "name": "claimAll",
      "outputs": [],
      "payable": false,
      "stateMutability": "nonpayable",
      "type": "function"
    },
    {
      "inputs": [
        {
          "internalType": "address",
          "name": "_AdjudicatorAddress",
          "type": "address"
        }
      ],
      "payable": false,
      "stateMutability": "nonpayable",
      "type": "constructor"
    },
    {
      "anonymous": false,
      "inputs": [
        {
          "indexed": true,
          "internalType": "bytes32",
          "name": "destination",
          "type": "bytes32"
        },
        {
          "indexed": false,
          "internalType": "uint256",
          "name": "amountDeposited",
          "type": "uint256"
        },
        {
          "indexed": false,
          "internalType": "uint256",
          "name": "destinationHoldings",
          "type": "uint256"
        }
      ],
      "name": "Deposited",
      "type": "event"
    },
    {
      "anonymous": false,
      "inputs": [
        {
          "indexed": true,
          "internalType": "bytes32",
          "name": "destination",
          "type": "bytes32"
        },
        {
          "indexed": false,
          "internalType": "uint256",
          "name": "amount",
          "type": "uint256"
        }
      ],
      "name": "AssetTransferred",
      "type": "event"
    },
    {
      "constant": false,
      "inputs": [
        {
          "internalType": "bytes32",
          "name": "destination",
          "type": "bytes32"
        },
        {
          "internalType": "uint256",
          "name": "expectedHeld",
          "type": "uint256"
        },
        {
          "internalType": "uint256",
          "name": "amount",
          "type": "uint256"
        }
      ],
      "name": "deposit",
      "outputs": [],
      "payable": true,
      "stateMutability": "payable",
      "type": "function"
    }
  ],
  "bytecode": "0x60806040523480156200001157600080fd5b50604051620018c7380380620018c783398101604081905262000034916200006d565b600380546001600160a01b0319166001600160a01b0392909216919091179055620000c2565b80516200006781620000a8565b92915050565b6000602082840312156200008057600080fd5b60006200008e84846200005a565b949350505050565b60006001600160a01b03821662000067565b620000b38162000096565b8114620000bf57600080fd5b50565b6117f580620000d26000396000f3fe6080604052600436106100555760003560e01c8063278f2ab81461005a5780632e36b7f81461006f5780633a3dd5431461008f578063a3c863a3146100c5578063ae9ee18c146100f2578063f1c9caf214610112575b600080fd5b61006d610068366004611141565b610132565b005b34801561007b57600080fd5b5061006d61008a366004611064565b6102c8565b34801561009b57600080fd5b506100af6100aa36600461100c565b610679565b6040516100bc9190611632565b60405180910390f35b3480156100d157600080fd5b506100e56100e036600461102a565b61068b565b6040516100bc9190611624565b3480156100fe57600080fd5b506100af61010d36600461100c565b6106cc565b34801561011e57600080fd5b5061006d61012d3660046110ba565b6106de565b61013b83610d00565b156101615760405162461bcd60e51b8152600401610158906116c0565b60405180910390fd5b8034146101805760405162461bcd60e51b815260040161015890611660565b6000838152600160205260408120548311156101ae5760405162461bcd60e51b815260040161015890611680565b6101be838363ffffffff610d1416565b600085815260016020526040902054106101ea5760405162461bcd60e51b815260040161015890611690565b6000848152600160205260409020546102199061020d858563ffffffff610d1416565b9063ffffffff610d2d16565b9050336108fc61022f848463ffffffff610d2d16565b6040518115909202916000818181858888f19350505050158015610257573d6000803e3d6000fd5b50600084815260016020526040902054610277908263ffffffff610d1416565b600085815260016020526040908190208290555185917fb39477ecc06c5293391f8b73168b655d9c1310af93dbbf043187d79f881bbb8f916102ba9185916116e1565b60405180910390a250505050565b6040805180820190915280600060ff16815260200183838080601f016020809104026020016040519081016040528093929190818152602001838380828437600092019190915250505091525060405161032591906020016116d0565b60408051601f19818403018152918152815160209283012060008681526002909352912054146103675760405162461bcd60e51b815260040161015890611650565b606061037582840184610fcf565b60008581526001602052604081205482519293509181808080805b885181101561040457876103a3576103fc565b8881815181106103af57fe5b6020026020010151602001519450848810156103dc576000976001978801979450925082850391506103fc565b600190960195600019909501946103f9888663ffffffff610d2d16565b97505b600101610390565b5060008b815260016020526040902087905584156105395760608560405190808252806020026020018201604052801561045857816020015b610445610dc1565b81526020019060019003908161043d5790505b50905060005b868110156104cc578981888c5103018151811061047757fe5b602002602001015182828151811061048b57fe5b60200260200101819052508480156104a1575080155b156104c457828282815181106104b357fe5b602002602001015160200181815250505b60010161045e565b506040805180820182526000815290516020808301916104ee91859101611613565b60408051601f1981840301815291815291525161050e91906020016116d0565b60408051601f19818403018152918152815160209283012060008f8152600290935291205550610549565b60008b8152600260205260408120555b6000805b8781101561066a5784801561056457506001880381145b156105715783915061058c565b89818151811061057d57fe5b60200260200101516020015191505b6105ac8a828151811061059b57fe5b602002602001015160000151610d00565b1561062e576105da6105d48b83815181106105c357fe5b602002602001015160000151610d42565b83610d48565b8981815181106105e657fe5b6020026020010151600001517f618988134695e08bbf7f88c1056719ac03264d8f1cba128f25c996654ba88301836040516106219190611632565b60405180910390a2610662565b81600160008c848151811061063f57fe5b602090810291909101810151518252810191909152604001600020805490910190555b60010161054d565b50505050505050505050505050565b60026020526000908152604090205481565b6003546000906001600160a01b031633146106b85760405162461bcd60e51b8152600401610158906116b0565b6106c28383610d83565b5060015b92915050565b60016020526000908152604090205481565b6040805180820190915280600160ff16815260200185858080601f016020809104026020016040519081016040528093929190818152602001838380828437600092019190915250505091525060405161073b91906020016116d0565b60408051601f198184030181529181528151602092830120600088815260029093529120541461077d5760405162461bcd60e51b815260040161015890611640565b610785610dd8565b6107918486018661118e565b6040805180820182526000815281516020601f87018190048102820181019093528581529293509181830191869086908190840183828082843760009201919091525050509152506040516107e991906020016116d0565b60408051601f1981840301815291815281516020928301208351600090815260029093529120541461082d5760405162461bcd60e51b815260040161015890611670565b600086815260016020526040902054606061084a84860186610fcf565b905060608151604051908082528060200260200182016040528015610879578160200160208202803883390190505b50825190915060005b8560200151518110156109bc576000866020015182815181106108a157fe5b6020026020010151905060008090505b85518110156109b257866108c4576109b2565b8581815181106108d057fe5b6020026020010151600001518214156109aa5760008682815181106108f157fe5b602002602001015160200151905060008111156109a857808810610960578088039750600087838151811061092257fe5b602002602001015160200181815250508480600190039550508086838151811061094857fe5b602002602001018181510191508181525050506109b2565b87810387838151811061096f57fe5b602002602001015160200181815250508786838151811061098c57fe5b60200260200101818151019150818152505060009750506109b2565b505b6001016108b1565b5050600101610882565b5060005b8351811015610a9b57846109d357610a9b565b60008482815181106109e157fe5b60200260200101516020015190506000811115610a9257808610610a4f5780860395506000858381518110610a1257fe5b6020026020010151602001818152505082806001900393505080848381518110610a3857fe5b602002602001018181510191508181525050610a92565b858103858381518110610a5e57fe5b6020026020010151602001818152505085848381518110610a7b57fe5b602002602001018181510191508181525050600095505b506001016109c0565b5060008a815260016020526040902084905560608115610af35781604051908082528060200260200182016040528015610aef57816020015b610adc610dc1565b815260200190600190039081610ad45790505b5090505b6000805b8551811015610c63576000868281518110610b0e57fe5b6020026020010151602001511115610b5257858181518110610b2c57fe5b6020026020010151838381518110610b4057fe5b60209081029190910101526001909101905b6000858281518110610b6057fe5b60200260200101511115610c5b57610b7d86828151811061059b57fe5b15610c1457610bad610b948783815181106105c357fe5b868381518110610ba057fe5b6020026020010151610d48565b858181518110610bb957fe5b6020026020010151600001517f618988134695e08bbf7f88c1056719ac03264d8f1cba128f25c996654ba88301868381518110610bf257fe5b6020026020010151604051610c079190611632565b60405180910390a2610c5b565b848181518110610c2057fe5b602002602001015160016000888481518110610c3857fe5b602090810291909101810151518252810191909152604001600020805490910190555b600101610af7565b50828114610c6d57fe5b8215610ce057604080518082018252600081529051602080830191610c9491869101611613565b60408051601f19818403018152918152915251610cb491906020016116d0565b60408051601f198184030181529181528151602092830120895160009081526002909352912055610cf2565b86516000908152600260205260408120555b505050505050505050505050565b6bffffffffffffffffffffffff1981161490565b600082820183811015610d2657600080fd5b9392505050565b600082821115610d3c57600080fd5b50900390565b60601c90565b6040516001600160a01b0383169082156108fc029083906000818181858888f19350505050158015610d7e573d6000803e3d6000fd5b505050565b60008281526002602052604090205415610daf5760405162461bcd60e51b8152600401610158906116a0565b60009182526002602052604090912055565b604080518082019091526000808252602082015290565b60408051808201909152600081526060602082015290565b600082601f830112610e0157600080fd5b8135610e14610e0f82611723565b6116fc565b91508181835260208401935060208101905083856020840282011115610e3957600080fd5b60005b83811015610e655781610e4f8882610ee1565b8452506020928301929190910190600101610e3c565b5050505092915050565b600082601f830112610e8057600080fd5b8135610e8e610e0f82611723565b91508181835260208401935060208101905083856040840282011115610eb357600080fd5b60005b83811015610e655781610ec98882610f35565b84525060209092019160409190910190600101610eb6565b80356106c68161179b565b60008083601f840112610efe57600080fd5b50813567ffffffffffffffff811115610f1657600080fd5b602083019150836001820283011115610f2e57600080fd5b9250929050565b600060408284031215610f4757600080fd5b610f5160406116fc565b90506000610f5f8484610ee1565b8252506020610f7084848301610ee1565b60208301525092915050565b600060408284031215610f8e57600080fd5b610f9860406116fc565b90506000610fa68484610ee1565b825250602082013567ffffffffffffffff811115610fc357600080fd5b610f7084828501610df0565b600060208284031215610fe157600080fd5b813567ffffffffffffffff811115610ff857600080fd5b61100484828501610e6f565b949350505050565b60006020828403121561101e57600080fd5b60006110048484610ee1565b6000806040838503121561103d57600080fd5b60006110498585610ee1565b925050602061105a85828601610ee1565b9150509250929050565b60008060006040848603121561107957600080fd5b60006110858686610ee1565b935050602084013567ffffffffffffffff8111156110a257600080fd5b6110ae86828701610eec565b92509250509250925092565b6000806000806000606086880312156110d257600080fd5b60006110de8888610ee1565b955050602086013567ffffffffffffffff8111156110fb57600080fd5b61110788828901610eec565b9450945050604086013567ffffffffffffffff81111561112657600080fd5b61113288828901610eec565b92509250509295509295909350565b60008060006060848603121561115657600080fd5b60006111628686610ee1565b935050602061117386828701610ee1565b925050604061118486828701610ee1565b9150509250925092565b6000602082840312156111a057600080fd5b813567ffffffffffffffff8111156111b757600080fd5b61100484828501610f7c565b60006111cf83836115ab565b505060400190565b60006111e28261174a565b6111ec818561174e565b93506111f783611744565b8060005b8381101561122557815161120f88826111c3565b975061121a83611744565b9250506001016111fb565b509495945050505050565b61123981611757565b82525050565b6112398161175c565b60006112538261174a565b61125d818561174e565b935061126d818560208601611765565b61127681611791565b9093019392505050565b600061128d60578361174e565b7f636c61696d416c6c207c207375626d6974746564206461746120646f6573206e81527f6f74206d61746368206f7574636f6d65486173682073746f726564206167616960208201527f6e73742067756172616e746f724368616e6e656c6c4964000000000000000000604082015260600192915050565b6000611312603e8361174e565b7f7472616e73666572416c6c207c207375626d6974746564206461746120646f6581527f73206e6f74206d617463682073746f726564206f7574636f6d65486173680000602082015260400192915050565b600061137160208361174e565b7f496e73756666696369656e742045544820666f7220455448206465706f736974815260200192915050565b60006113aa60538361174e565b7f636c61696d416c6c207c207375626d6974746564206461746120646f6573206e81527f6f74206d61746368206f7574636f6d65486173682073746f72656420616761696020820152721b9cdd081d185c99d95d10da185b9b995b1259606a1b604082015260600192915050565b600061142560358361174e565b7f4465706f736974207c20686f6c64696e67735b64657374696e6174696f6e5d208152741a5cc81b195cdcc81d1a185b88195e1c1958dd1959605a1b602082015260400192915050565b600061147c604e8361174e565b7f4465706f736974207c20686f6c64696e67735b64657374696e6174696f6e5d2081527f616c7265616479206d65657473206f722065786365656473206578706563746560208201526d1912195b19080ac8185b5bdd5b9d60921b604082015260600192915050565b60006114f2601b8361174e565b7f4f7574636f6d65206861736820616c7265616479206578697374730000000000815260200192915050565b600061152b60278361174e565b7f4f6e6c7920746865204e6974726f41646a7564696361746f72206973206175748152661a1bdc9a5e995960ca1b602082015260400192915050565b600061157460228361174e565b7f43616e6e6f74206465706f73697420746f2065787465726e616c206164647265815261737360f01b602082015260400192915050565b805160408301906115bc848261123f565b5060208201516115cf602085018261123f565b50505050565b805160009060408401906115e9858261160a565b50602083015184820360208601526116018282611248565b95945050505050565b6112398161175f565b60208082528101610d2681846111d7565b602081016106c68284611230565b602081016106c6828461123f565b602080825281016106c681611280565b602080825281016106c681611305565b602080825281016106c681611364565b602080825281016106c68161139d565b602080825281016106c681611418565b602080825281016106c68161146f565b602080825281016106c6816114e5565b602080825281016106c68161151e565b602080825281016106c681611567565b60208082528101610d2681846115d5565b604081016116ef828561123f565b610d26602083018461123f565b60405181810167ffffffffffffffff8111828210171561171b57600080fd5b604052919050565b600067ffffffffffffffff82111561173a57600080fd5b5060209081020190565b60200190565b5190565b90815260200190565b151590565b90565b60ff1690565b60005b83811015611780578181015183820152602001611768565b838111156115cf5750506000910152565b601f01601f191690565b6117a48161175c565b81146117af57600080fd5b5056fea365627a7a72315820987d88bd258a5379778ab5e83077ad46d5c70ff738e404132edfb96a2deca8e66c6578706572696d656e74616cf564736f6c634300050b0040",
  "source": "pragma solidity ^0.5.11;\npragma experimental ABIEncoderV2;\nimport './Outcome.sol';\nimport './AssetHolder.sol';\ncontract ETHAssetHolder is AssetHolder {\n    address AdjudicatorAddress;\n\n    constructor(address _AdjudicatorAddress) public {\n        AdjudicatorAddress = _AdjudicatorAddress;\n    }\n\n    modifier AdjudicatorOnly {\n        require(msg.sender == AdjudicatorAddress, 'Only the NitroAdjudicator is authorized');\n        _;\n    }\n\n    function deposit(bytes32 destination, uint256 expectedHeld, uint256 amount) public payable {\n        require(!_isExternalAddress(destination), 'Cannot deposit to external address');\n        require(msg.value == amount, 'Insufficient ETH for ETH deposit');\n        uint256 amountDeposited;\n        // this allows participants to reduce the wait between deposits, while protecting them from losing funds by depositing too early. Specifically it protects against the scenario:\n        // 1. Participant A deposits\n        // 2. Participant B sees A's deposit, which means it is now safe for them to deposit\n        // 3. Participant B submits their deposit\n        // 4. The chain re-orgs, leaving B's deposit in the chain but not A's\n        require(\n            holdings[destination] >= expectedHeld,\n            'Deposit | holdings[destination] is less than expected'\n        );\n        require(\n            holdings[destination] < expectedHeld.add(amount),\n            'Deposit | holdings[destination] already meets or exceeds expectedHeld + amount'\n        );\n\n        // The depositor wishes to increase the holdings against channelId to amount + expectedHeld\n        // The depositor need only deposit (at most) amount + (expectedHeld - holdings) (the term in parentheses is non-positive)\n\n        amountDeposited = expectedHeld.add(amount).sub(holdings[destination]); // strictly positive\n        // require successful deposit before updating holdings (protect against reentrancy)\n        // refund whatever wasn't deposited.\n        msg.sender.transfer(amount.sub(amountDeposited));\n        holdings[destination] = holdings[destination].add(amountDeposited);\n        emit Deposited(destination, amountDeposited, holdings[destination]);\n    }\n\n    function _transferAsset(address payable destination, uint256 amount) internal {\n        destination.transfer(amount);\n    }\n\n}\n",
  "sourcePath": "nitro-protocol/contracts/ETHAssetHolder.sol",
  "compiler": {
    "name": "solc",
    "version": "0.5.11+commit.c082d0b4.Emscripten.clang"
  },
  "schemaVersion": "3.0.16",
  "updatedAt": "2019-09-25T00:22:28.115Z",
  "devdoc": {
    "methods": {}
  },
  "userdoc": {
    "methods": {}
  }
}