{
  "contractName": "ForceMove",
  "abi": [
    {
      "constant": true,
      "inputs": [
        {
          "internalType": "bytes32",
          "name": "",
          "type": "bytes32"
        }
      ],
      "name": "channelStorageHashes",
      "outputs": [
        {
          "internalType": "bytes32",
          "name": "",
          "type": "bytes32"
        }
      ],
      "payable": false,
      "stateMutability": "view",
      "type": "function"
    },
    {
      "anonymous": false,
      "inputs": [
        {
          "indexed": true,
          "internalType": "bytes32",
          "name": "channelId",
          "type": "bytes32"
        },
        {
          "indexed": false,
          "internalType": "uint256",
          "name": "turnNunmRecord",
          "type": "uint256"
        },
        {
          "indexed": false,
          "internalType": "uint256",
          "name": "finalizesAt",
          "type": "uint256"
        },
        {
          "indexed": false,
          "internalType": "address",
          "name": "challenger",
          "type": "address"
        },
        {
          "indexed": false,
          "internalType": "bool",
          "name": "isFinal",
          "type": "bool"
        },
        {
          "components": [
            {
              "internalType": "uint256",
              "name": "chainId",
              "type": "uint256"
            },
            {
              "internalType": "address[]",
              "name": "participants",
              "type": "address[]"
            },
            {
              "internalType": "uint256",
              "name": "channelNonce",
              "type": "uint256"
            },
            {
              "internalType": "address",
              "name": "appDefinition",
              "type": "address"
            },
            {
              "internalType": "uint256",
              "name": "challengeDuration",
              "type": "uint256"
            }
          ],
          "indexed": false,
          "internalType": "struct ForceMove.FixedPart",
          "name": "fixedPart",
          "type": "tuple"
        },
        {
          "components": [
            {
              "internalType": "bytes",
              "name": "outcome",
              "type": "bytes"
            },
            {
              "internalType": "bytes",
              "name": "appData",
              "type": "bytes"
            }
          ],
          "indexed": false,
          "internalType": "struct ForceMoveApp.VariablePart[]",
          "name": "variableParts",
          "type": "tuple[]"
        }
      ],
      "name": "ChallengeRegistered",
      "type": "event"
    },
    {
      "anonymous": false,
      "inputs": [
        {
          "indexed": true,
          "internalType": "bytes32",
          "name": "channelId",
          "type": "bytes32"
        },
        {
          "indexed": false,
          "internalType": "uint256",
          "name": "newTurnNumRecord",
          "type": "uint256"
        }
      ],
      "name": "ChallengeCleared",
      "type": "event"
    },
    {
      "anonymous": false,
      "inputs": [
        {
          "indexed": true,
          "internalType": "bytes32",
          "name": "channelId",
          "type": "bytes32"
        }
      ],
      "name": "Concluded",
      "type": "event"
    },
    {
      "constant": true,
      "inputs": [
        {
          "internalType": "bytes32",
          "name": "channelId",
          "type": "bytes32"
        }
      ],
      "name": "getData",
      "outputs": [
        {
          "internalType": "uint48",
          "name": "finalizesAt",
          "type": "uint48"
        },
        {
          "internalType": "uint48",
          "name": "turnNumRecord",
          "type": "uint48"
        },
        {
          "internalType": "uint160",
          "name": "fingerprint",
          "type": "uint160"
        }
      ],
      "payable": false,
      "stateMutability": "view",
      "type": "function"
    },
    {
      "constant": false,
      "inputs": [
        {
          "internalType": "uint48",
          "name": "turnNumRecord",
          "type": "uint48"
        },
        {
          "components": [
            {
              "internalType": "uint256",
              "name": "chainId",
              "type": "uint256"
            },
            {
              "internalType": "address[]",
              "name": "participants",
              "type": "address[]"
            },
            {
              "internalType": "uint256",
              "name": "channelNonce",
              "type": "uint256"
            },
            {
              "internalType": "address",
              "name": "appDefinition",
              "type": "address"
            },
            {
              "internalType": "uint256",
              "name": "challengeDuration",
              "type": "uint256"
            }
          ],
          "internalType": "struct ForceMove.FixedPart",
          "name": "fixedPart",
          "type": "tuple"
        },
        {
          "internalType": "uint256",
          "name": "largestTurnNum",
          "type": "uint256"
        },
        {
          "components": [
            {
              "internalType": "bytes",
              "name": "outcome",
              "type": "bytes"
            },
            {
              "internalType": "bytes",
              "name": "appData",
              "type": "bytes"
            }
          ],
          "internalType": "struct ForceMoveApp.VariablePart[]",
          "name": "variableParts",
          "type": "tuple[]"
        },
        {
          "internalType": "uint8",
          "name": "isFinalCount",
          "type": "uint8"
        },
        {
          "components": [
            {
              "internalType": "uint8",
              "name": "v",
              "type": "uint8"
            },
            {
              "internalType": "bytes32",
              "name": "r",
              "type": "bytes32"
            },
            {
              "internalType": "bytes32",
              "name": "s",
              "type": "bytes32"
            }
          ],
          "internalType": "struct ForceMove.Signature[]",
          "name": "sigs",
          "type": "tuple[]"
        },
        {
          "internalType": "uint8[]",
          "name": "whoSignedWhat",
          "type": "uint8[]"
        },
        {
          "components": [
            {
              "internalType": "uint8",
              "name": "v",
              "type": "uint8"
            },
            {
              "internalType": "bytes32",
              "name": "r",
              "type": "bytes32"
            },
            {
              "internalType": "bytes32",
              "name": "s",
              "type": "bytes32"
            }
          ],
          "internalType": "struct ForceMove.Signature",
          "name": "challengerSig",
          "type": "tuple"
        }
      ],
      "name": "forceMove",
      "outputs": [],
      "payable": false,
      "stateMutability": "nonpayable",
      "type": "function"
    },
    {
      "constant": false,
      "inputs": [
        {
          "internalType": "uint256",
          "name": "turnNumRecord",
          "type": "uint256"
        },
        {
          "internalType": "uint256",
          "name": "finalizesAt",
          "type": "uint256"
        },
        {
          "internalType": "address",
          "name": "challenger",
          "type": "address"
        },
        {
          "internalType": "bool[2]",
          "name": "isFinalAB",
          "type": "bool[2]"
        },
        {
          "components": [
            {
              "internalType": "uint256",
              "name": "chainId",
              "type": "uint256"
            },
            {
              "internalType": "address[]",
              "name": "participants",
              "type": "address[]"
            },
            {
              "internalType": "uint256",
              "name": "channelNonce",
              "type": "uint256"
            },
            {
              "internalType": "address",
              "name": "appDefinition",
              "type": "address"
            },
            {
              "internalType": "uint256",
              "name": "challengeDuration",
              "type": "uint256"
            }
          ],
          "internalType": "struct ForceMove.FixedPart",
          "name": "fixedPart",
          "type": "tuple"
        },
        {
          "components": [
            {
              "internalType": "bytes",
              "name": "outcome",
              "type": "bytes"
            },
            {
              "internalType": "bytes",
              "name": "appData",
              "type": "bytes"
            }
          ],
          "internalType": "struct ForceMoveApp.VariablePart[2]",
          "name": "variablePartAB",
          "type": "tuple[2]"
        },
        {
          "components": [
            {
              "internalType": "uint8",
              "name": "v",
              "type": "uint8"
            },
            {
              "internalType": "bytes32",
              "name": "r",
              "type": "bytes32"
            },
            {
              "internalType": "bytes32",
              "name": "s",
              "type": "bytes32"
            }
          ],
          "internalType": "struct ForceMove.Signature",
          "name": "sig",
          "type": "tuple"
        }
      ],
      "name": "respond",
      "outputs": [],
      "payable": false,
      "stateMutability": "nonpayable",
      "type": "function"
    },
    {
      "constant": false,
      "inputs": [
        {
          "internalType": "uint256",
          "name": "turnNumRecord",
          "type": "uint256"
        },
        {
          "internalType": "uint256",
          "name": "refutationStateTurnNum",
          "type": "uint256"
        },
        {
          "internalType": "uint256",
          "name": "finalizesAt",
          "type": "uint256"
        },
        {
          "internalType": "address",
          "name": "challenger",
          "type": "address"
        },
        {
          "internalType": "bool[2]",
          "name": "isFinalAB",
          "type": "bool[2]"
        },
        {
          "components": [
            {
              "internalType": "uint256",
              "name": "chainId",
              "type": "uint256"
            },
            {
              "internalType": "address[]",
              "name": "participants",
              "type": "address[]"
            },
            {
              "internalType": "uint256",
              "name": "channelNonce",
              "type": "uint256"
            },
            {
              "internalType": "address",
              "name": "appDefinition",
              "type": "address"
            },
            {
              "internalType": "uint256",
              "name": "challengeDuration",
              "type": "uint256"
            }
          ],
          "internalType": "struct ForceMove.FixedPart",
          "name": "fixedPart",
          "type": "tuple"
        },
        {
          "components": [
            {
              "internalType": "bytes",
              "name": "outcome",
              "type": "bytes"
            },
            {
              "internalType": "bytes",
              "name": "appData",
              "type": "bytes"
            }
          ],
          "internalType": "struct ForceMoveApp.VariablePart[2]",
          "name": "variablePartAB",
          "type": "tuple[2]"
        },
        {
          "components": [
            {
              "internalType": "uint8",
              "name": "v",
              "type": "uint8"
            },
            {
              "internalType": "bytes32",
              "name": "r",
              "type": "bytes32"
            },
            {
              "internalType": "bytes32",
              "name": "s",
              "type": "bytes32"
            }
          ],
          "internalType": "struct ForceMove.Signature",
          "name": "refutationStateSig",
          "type": "tuple"
        }
      ],
      "name": "refute",
      "outputs": [],
      "payable": false,
      "stateMutability": "nonpayable",
      "type": "function"
    },
    {
      "constant": false,
      "inputs": [
        {
          "components": [
            {
              "internalType": "uint256",
              "name": "chainId",
              "type": "uint256"
            },
            {
              "internalType": "address[]",
              "name": "participants",
              "type": "address[]"
            },
            {
              "internalType": "uint256",
              "name": "channelNonce",
              "type": "uint256"
            },
            {
              "internalType": "address",
              "name": "appDefinition",
              "type": "address"
            },
            {
              "internalType": "uint256",
              "name": "challengeDuration",
              "type": "uint256"
            }
          ],
          "internalType": "struct ForceMove.FixedPart",
          "name": "fixedPart",
          "type": "tuple"
        },
        {
          "internalType": "uint48",
          "name": "largestTurnNum",
          "type": "uint48"
        },
        {
          "components": [
            {
              "internalType": "bytes",
              "name": "outcome",
              "type": "bytes"
            },
            {
              "internalType": "bytes",
              "name": "appData",
              "type": "bytes"
            }
          ],
          "internalType": "struct ForceMoveApp.VariablePart[]",
          "name": "variableParts",
          "type": "tuple[]"
        },
        {
          "internalType": "uint8",
          "name": "isFinalCount",
          "type": "uint8"
        },
        {
          "components": [
            {
              "internalType": "uint8",
              "name": "v",
              "type": "uint8"
            },
            {
              "internalType": "bytes32",
              "name": "r",
              "type": "bytes32"
            },
            {
              "internalType": "bytes32",
              "name": "s",
              "type": "bytes32"
            }
          ],
          "internalType": "struct ForceMove.Signature[]",
          "name": "sigs",
          "type": "tuple[]"
        },
        {
          "internalType": "uint8[]",
          "name": "whoSignedWhat",
          "type": "uint8[]"
        },
        {
          "components": [
            {
              "internalType": "uint256",
              "name": "turnNumRecord",
              "type": "uint256"
            },
            {
              "internalType": "uint256",
              "name": "finalizesAt",
              "type": "uint256"
            },
            {
              "internalType": "bytes32",
              "name": "stateHash",
              "type": "bytes32"
            },
            {
              "internalType": "address",
              "name": "challengerAddress",
              "type": "address"
            },
            {
              "internalType": "bytes32",
              "name": "outcomeHash",
              "type": "bytes32"
            }
          ],
          "internalType": "struct ForceMove.ChannelStorage",
          "name": "channelStorage",
          "type": "tuple"
        }
      ],
      "name": "checkpoint",
      "outputs": [],
      "payable": false,
      "stateMutability": "nonpayable",
      "type": "function"
    },
    {
      "constant": false,
      "inputs": [
        {
          "internalType": "uint48",
          "name": "turnNumRecord",
          "type": "uint48"
        },
        {
          "internalType": "uint256",
          "name": "largestTurnNum",
          "type": "uint256"
        },
        {
          "components": [
            {
              "internalType": "uint256",
              "name": "chainId",
              "type": "uint256"
            },
            {
              "internalType": "address[]",
              "name": "participants",
              "type": "address[]"
            },
            {
              "internalType": "uint256",
              "name": "channelNonce",
              "type": "uint256"
            },
            {
              "internalType": "address",
              "name": "appDefinition",
              "type": "address"
            },
            {
              "internalType": "uint256",
              "name": "challengeDuration",
              "type": "uint256"
            }
          ],
          "internalType": "struct ForceMove.FixedPart",
          "name": "fixedPart",
          "type": "tuple"
        },
        {
          "internalType": "bytes32",
          "name": "appPartHash",
          "type": "bytes32"
        },
        {
          "internalType": "bytes32",
          "name": "outcomeHash",
          "type": "bytes32"
        },
        {
          "internalType": "uint8",
          "name": "numStates",
          "type": "uint8"
        },
        {
          "internalType": "uint8[]",
          "name": "whoSignedWhat",
          "type": "uint8[]"
        },
        {
          "components": [
            {
              "internalType": "uint8",
              "name": "v",
              "type": "uint8"
            },
            {
              "internalType": "bytes32",
              "name": "r",
              "type": "bytes32"
            },
            {
              "internalType": "bytes32",
              "name": "s",
              "type": "bytes32"
            }
          ],
          "internalType": "struct ForceMove.Signature[]",
          "name": "sigs",
          "type": "tuple[]"
        }
      ],
      "name": "concludeFromOpen",
      "outputs": [],
      "payable": false,
      "stateMutability": "nonpayable",
      "type": "function"
    },
    {
      "constant": false,
      "inputs": [
        {
          "internalType": "uint48",
          "name": "largestTurnNum",
          "type": "uint48"
        },
        {
          "components": [
            {
              "internalType": "uint256",
              "name": "chainId",
              "type": "uint256"
            },
            {
              "internalType": "address[]",
              "name": "participants",
              "type": "address[]"
            },
            {
              "internalType": "uint256",
              "name": "channelNonce",
              "type": "uint256"
            },
            {
              "internalType": "address",
              "name": "appDefinition",
              "type": "address"
            },
            {
              "internalType": "uint256",
              "name": "challengeDuration",
              "type": "uint256"
            }
          ],
          "internalType": "struct ForceMove.FixedPart",
          "name": "fixedPart",
          "type": "tuple"
        },
        {
          "internalType": "bytes32",
          "name": "appPartHash",
          "type": "bytes32"
        },
        {
          "internalType": "uint8",
          "name": "numStates",
          "type": "uint8"
        },
        {
          "internalType": "uint8[]",
          "name": "whoSignedWhat",
          "type": "uint8[]"
        },
        {
          "components": [
            {
              "internalType": "uint8",
              "name": "v",
              "type": "uint8"
            },
            {
              "internalType": "bytes32",
              "name": "r",
              "type": "bytes32"
            },
            {
              "internalType": "bytes32",
              "name": "s",
              "type": "bytes32"
            }
          ],
          "internalType": "struct ForceMove.Signature[]",
          "name": "sigs",
          "type": "tuple[]"
        },
        {
          "internalType": "bytes32",
          "name": "newOutcomeHash",
          "type": "bytes32"
        },
        {
          "components": [
            {
              "internalType": "uint256",
              "name": "turnNumRecord",
              "type": "uint256"
            },
            {
              "internalType": "uint256",
              "name": "finalizesAt",
              "type": "uint256"
            },
            {
              "internalType": "bytes32",
              "name": "stateHash",
              "type": "bytes32"
            },
            {
              "internalType": "address",
              "name": "challengerAddress",
              "type": "address"
            },
            {
              "internalType": "bytes32",
              "name": "outcomeHash",
              "type": "bytes32"
            }
          ],
          "internalType": "struct ForceMove.ChannelStorage",
          "name": "channelStorage",
          "type": "tuple"
        }
      ],
      "name": "concludeFromChallenge",
      "outputs": [],
      "payable": false,
      "stateMutability": "nonpayable",
      "type": "function"
    },
    {
      "constant": true,
      "inputs": [
        {
          "internalType": "bytes32",
          "name": "storageHash",
          "type": "bytes32"
        }
      ],
      "name": "_getData",
      "outputs": [
        {
          "internalType": "uint48",
          "name": "turnNumRecord",
          "type": "uint48"
        },
        {
          "internalType": "uint48",
          "name": "finalizesAt",
          "type": "uint48"
        },
        {
          "internalType": "uint160",
          "name": "fingerprint",
          "type": "uint160"
        }
      ],
      "payable": false,
      "stateMutability": "pure",
      "type": "function"
    }
  ],
  "bytecode": "0x608060405234801561001057600080fd5b50612c06806100206000396000f3fe608060405234801561001057600080fd5b50600436106100935760003560e01c80638a135c8c116100665780638a135c8c1461010b5780639890c8dc1461011e578063bb7cd31914610131578063efc355bb14610144578063f39c0eb81461015757610093565b806354f6127f146100985780635fbb8aeb146100c35780636f65e87d146100d857806388aa04d1146100f8575b600080fd5b6100ab6100a636600461198b565b61016a565b6040516100ba93929190612a4c565b60405180910390f35b6100d66100d1366004611b5d565b610192565b005b6100eb6100e636600461198b565b61043f565b6040516100ba91906127a9565b6100ab61010636600461198b565b610451565b6100d6610119366004611aa1565b610460565b6100d661012c366004611c3c565b610730565b6100d661013f3660046119a9565b61079c565b6100d6610152366004611d21565b610820565b6100d6610165366004611e1d565b6109fa565b6000818152602081905260408120548190819061018690610451565b90969195509350915050565b8787116101ba5760405162461bcd60e51b81526004016101b1906128dd565b60405180910390fd5b60008360000151846020015185604001516040516020016101dd9392919061298a565b60408051808303601f1901815290829052805160209182012085515190935060009261020992016127ec565b60408051808303601f19018152908290528051602091820120868201515190935060009261023792016127ec565b60405160208183030381529060405280519060200120905060006040518060a001604052808d81526020018960006002811061026f57fe5b602002015115158152602001858152602001886080015189606001518960006002811061029857fe5b6020020151602001516040516020016102b39392919061295d565b604051602081830303815290604052805190602001208152602001848152506040516020016102e2919061291b565b60405160208183030381529060405280519060200120905060006040518060a001604052808d81526020018a60016002811061031a57fe5b60200201511515815260200186815260200189608001518a606001518a60016002811061034357fe5b60200201516020015160405160200161035e9392919061295d565b6040516020818303038152906040528051906020012081526020018481525060405160200161038d919061291b565b6040516020818303038152906040528051906020012090506103de6040518060a001604052808f81526020018d81526020018481526020018c6001600160a01b031681526020018681525086610a53565b896001600160a01b031661040082886000015189602001518a60400151610a84565b6001600160a01b0316146104265760405162461bcd60e51b81526004016101b19061289d565b610430858e610b46565b50505050505050505050505050565b60006020819052908152604090205481565b60d081901c9160a082901c9190565b60008360000151846020015185604001516040516020016104839392919061298a565b60408051808303601f190181529082905280516020918201208551519093506000926104af92016127ec565b60408051808303601f1901815290829052805160209182012086820151519093506000926104dd92016127ec565b60405160208183030381529060405280519060200120905060006040518060a001604052808c81526020018960006002811061051557fe5b602002015115158152602001858152602001886080015189606001518960006002811061053e57fe5b6020020151602001516040516020016105599392919061295d565b60405160208183030381529060405280519060200120815260200184815250604051602001610588919061291b565b60405160208183030381529060405280519060200120905060006040518060a001604052808d60010181526020018a6001600281106105c357fe5b60200201511515815260200186815260200189608001518a606001518a6001600281106105ec57fe5b6020020151602001516040516020016106079392919061295d565b60405160208183030381529060405280519060200120815260200184815250604051602001610636919061291b565b6040516020818303038152906040528051906020012090506106876040518060a001604052808e81526020018d81526020018481526020018c6001600160a01b031681526020018681525086610a53565b6020880151805160018e018161069957fe5b06815181106106a457fe5b60200260200101516001600160a01b03166106cd82886000015189602001518a60400151610a84565b6001600160a01b0316146106f35760405162461bcd60e51b81526004016101b1906128ed565b61070c8860200151518a898f6001018c60600151610bd8565b61071557600080fd5b610722858d600101610b46565b505050505050505050505050565b60008760000151886020015189604001516040516020016107539392919061298a565b6040516020818303038152906040528051906020012090506107758282610a53565b6107918965ffffffffffff16878a60200151848b888a8c610da3565b505050505050505050565b60008760000151886020015189604001516040516020016107bf9392919061298a565b6040516020818303038152906040528051906020012090506107e18282610f08565b6107ec828289610f42565b6108038765ffffffffffff168787848c8989610f79565b50610816818865ffffffffffff16610b46565b5050505050505050565b60008760000151886020015189604001516040516020016108439392919061298a565b6040516020818303038152906040528051906020012090508865ffffffffffff168710156108835760405162461bcd60e51b81526004016101b19061285d565b61088d8982610fdf565b600061089e888888858d8a8a610f79565b905060006108e289846040516020016108b89291906129b9565b60405160208183030381529060405280519060200120856000015186602001518760400151610a84565b90506108f2818b6020015161106a565b61090e5760405162461bcd60e51b81526004016101b19061282d565b827f73718963703f2a92a00efa4689fad2aa953238eec05613b055fb61c8b020298a8a8c6080015142018460008c60ff16118f8e604051610954969594939291906129e5565b60405180910390a26109db6040518060a001604052808b81526020018c6080015142018152602001848152602001836001600160a01b031681526020018a60018c5103815181106109a157fe5b6020026020010151600001516040516020016109bd91906127ec565b604051602081830303815290604052805190602001208152506110c2565b6000938452602084905260409093209290925550505050505050505050565b6000866000015187602001518860400151604051602001610a1d9392919061298a565b604051602081830303815290604052805190602001209050610a3f8982610fdf565b61079188858960200151848a8a888a610da3565b610a5d8282611112565b42826020015111610a805760405162461bcd60e51b81526004016101b19061281d565b5050565b6000806040518060400160405280601c81526020017f19457468657265756d205369676e6564204d6573736167653a0a33320000000081525086604051602001610acf929190612787565b604051602081830303815290604052805190602001209050600060018287878760405160008152602001604052604051610b0c94939291906127b7565b6020604051602081039080840390855afa158015610b2e573d6000803e3d6000fd5b5050604051601f19015193505050505b949350505050565b610b866040518060a00160405280838152602001600081526020016000801b815260200160006001600160a01b031681526020016000801b8152506110c2565b60008084815260200190815260200160002081905550817f2ff6470ce30fcc0614d5df9c8e95c4eba98f897746ff8eecf708eec7b105090282604051610bcc91906127a9565b60405180910390a25050565b602084015160009015610c3a57835151604051610bf5919061277b565b6040519081900381206020860151519091610c10919061277b565b604051809103902014610c355760405162461bcd60e51b81526004016101b19061288d565b610d96565b845115610c595760405162461bcd60e51b81526004016101b19061287d565b856002028311610d0857835151604051610c73919061277b565b6040519081900381206020860151519091610c8e919061277b565b604051809103902014610cb35760405162461bcd60e51b81526004016101b19061284d565b835160200151604051610cc6919061277b565b60405190819003812060208087015101519091610ce3919061277b565b604051809103902014610c355760405162461bcd60e51b81526004016101b1906127fd565b835160208501516040516395127f9960e01b81526001600160a01b038516926395127f9992610d3d9288908c90600401612929565b60206040518083038186803b158015610d5557600080fd5b505afa158015610d69573d6000803e3d6000fd5b505050506040513d601f19601f82011682018060405250610d8d919081019061196d565b610d9657600080fd5b5060015b95945050505050565b60608760ff16604051908082528060200260200182016040528015610dd2578160200160208202803883390190505b50905060005b8860ff16811015610e5c576040518060a001604052808a60ff16836001018d0103815260200160011515815260200188815260200187815260200186815250604051602001610e27919061291b565b60405160208183030381529060405280519060200120828281518110610e4957fe5b6020908102919091010152600101610dd8565b50610e6a8988838686611148565b610e865760405162461bcd60e51b81526004016101b19061283d565b610ec36040518060a00160405280600081526020014281526020016000801b815260200160006001600160a01b03168152602001868152506110c2565b60008781526020819052604080822092909255905187917f3e659e9176c25a527f4575e010a270b3e1f8e9d1e94f5e49d4a91dd2c59e8cf891a2505050505050505050565b60208201511580610f1c5750428260200151115b610f385760405162461bcd60e51b81526004016101b1906128bd565b610a808282611112565b610f4c8383611112565b825165ffffffffffff821611610f745760405162461bcd60e51b81526004016101b19061280d565b505050565b60006060610f8a8989898989611252565b9050610f9d898660200151838787611148565b610fb95760405162461bcd60e51b81526004016101b19061283d565b80600182510381518110610fc957fe5b6020026020010151915050979650505050505050565b600081815260208190526040902054158061104e575061103d6040518060a001604052808465ffffffffffff168152602001600081526020016000801b815260200160006001600160a01b031681526020016000801b8152506110c2565b600082815260208190526040902054145b610a805760405162461bcd60e51b81526004016101b1906128fd565b6000805b82518110156110b65782818151811061108357fe5b60200260200101516001600160a01b0316846001600160a01b031614156110ae5760019150506110bc565b60010161106e565b50600090505b92915050565b805160208083015160405160009360d01b60a092831b17926110e69186910161290d565b60408051601f1981840301815291905280516020909101206001600160a01b0316919091179392505050565b60008181526020819052604090205461112c90839061143d565b610a805760405162461bcd60e51b81526004016101b1906128ad565b835183516000919061115c84898484611451565b6111785760405162461bcd60e51b81526004016101b1906128cd565b60005b828110156112435760006111ff8887848151811061119557fe5b602002602001015160ff16815181106111aa57fe5b60200260200101518884815181106111be57fe5b6020026020010151600001518985815181106111d657fe5b6020026020010151602001518a86815181106111ee57fe5b602002602001015160400151610a84565b905088828151811061120d57fe5b60200260200101516001600160a01b0316816001600160a01b03161461123a576000945050505050610d9a565b5060010161117b565b50600198975050505050505050565b6060808551604051908082528060200260200182016040528015611280578160200160208202803883390190505b50905060005b8651811015611432576040518060a001604052808851838b010360010181526020018760ff16895103831115158152602001868152602001856080015186606001518a85815181106112d457fe5b6020026020010151602001516040516020016112f29392919061295d565b60405160208183030381529060405280519060200120815260200188838151811061131957fe5b60200260200101516000015160405160200161133591906127ec565b6040516020818303038152906040528051906020012081525060405160200161135e919061291b565b6040516020818303038152906040528051906020012082828151811061138057fe5b6020026020010181815250508651816001011461142a5761142184602001515160405180604001604052808960ff168b510385111515151581526020018960ff168b510385600101111515151581525060405180604001604052808b86815181106113e757fe5b602002602001015181526020018b866001018151811061140357fe5b60200260200101518152508a51858d01036002018860600151610bd8565b61142a57600080fd5b600101611286565b509695505050505050565b600081611449846110c2565b149392505050565b6000828551146114735760405162461bcd60e51b81526004016101b19061286d565b60005b83811015610d965760008482878701038161148d57fe5b06905060018403818884815181106114a157fe5b602002602001015160ff160110156114be57600092505050610b3e565b50600101611476565b80356110bc81612b88565b600082601f8301126114e357600080fd5b81356114f66114f182612a9a565b612a74565b9150818183526020840193506020810190508385602084028201111561151b57600080fd5b60005b83811015611547578161153188826114c7565b845250602092830192919091019060010161151e565b5050505092915050565b600082601f83011261156257600080fd5b60026115706114f182612aba565b9150818385602084028201111561158657600080fd5b60005b83811015611547578161159c8882611743565b8452506020928301929190910190600101611589565b600082601f8301126115c357600080fd5b81356115d16114f182612a9a565b915081818352602084019350602081019050838560608402820111156115f657600080fd5b60005b83811015611547578161160c8882611888565b845250602090920191606091909101906001016115f9565b600082601f83011261163557600080fd5b60026116436114f182612aba565b9150818360005b83811015611547578135860161166088826118e3565b845250602092830192919091019060010161164a565b600082601f83011261168757600080fd5b81356116956114f182612a9a565b81815260209384019390925082018360005b8381101561154757813586016116bd88826118e3565b84525060209283019291909101906001016116a7565b600082601f8301126116e457600080fd5b81356116f26114f182612a9a565b9150818183526020840193506020810190508385602084028201111561171757600080fd5b60005b83811015611547578161172d8882611962565b845250602092830192919091019060010161171a565b80356110bc81612b9f565b80516110bc81612b9f565b80356110bc81612ba8565b600082601f83011261177557600080fd5b81356117836114f182612ad7565b9150808252602083016020830185838301111561179f57600080fd5b6117aa838284612b46565b50505092915050565b600060a082840312156117c557600080fd5b6117cf60a0612a74565b905060006117dd8484611759565b82525060206117ee84848301611759565b602083015250604061180284828501611759565b6040830152506060611816848285016114c7565b606083015250608061182a84828501611759565b60808301525092915050565b600060a0828403121561184857600080fd5b61185260a0612a74565b905060006118608484611759565b82525060208201356001600160401b0381111561187c57600080fd5b6117ee848285016114d2565b60006060828403121561189a57600080fd5b6118a46060612a74565b905060006118b28484611962565b82525060206118c384848301611759565b60208301525060406118d784828501611759565b60408301525092915050565b6000604082840312156118f557600080fd5b6118ff6040612a74565b905081356001600160401b0381111561191757600080fd5b61192384828501611764565b82525060208201356001600160401b0381111561193f57600080fd5b61194b84828501611764565b60208301525092915050565b80356110bc81612bb1565b80356110bc81612bba565b60006020828403121561197f57600080fd5b6000610b3e848461174e565b60006020828403121561199d57600080fd5b6000610b3e8484611759565b6000806000806000806000610160888a0312156119c557600080fd5b87356001600160401b038111156119db57600080fd5b6119e78a828b01611836565b97505060206119f88a828b01611957565b96505060408801356001600160401b03811115611a1457600080fd5b611a208a828b01611676565b9550506060611a318a828b01611962565b94505060808801356001600160401b03811115611a4d57600080fd5b611a598a828b016115b2565b93505060a08801356001600160401b03811115611a7557600080fd5b611a818a828b016116d3565b92505060c0611a928a828b016117b3565b91505092959891949750929550565b6000806000806000806000610140888a031215611abd57600080fd5b6000611ac98a8a611759565b9750506020611ada8a828b01611759565b9650506040611aeb8a828b016114c7565b9550506060611afc8a828b01611551565b94505060a08801356001600160401b03811115611b1857600080fd5b611b248a828b01611836565b93505060c08801356001600160401b03811115611b4057600080fd5b611b4c8a828b01611624565b92505060e0611a928a828b01611888565b600080600080600080600080610160898b031215611b7a57600080fd5b6000611b868b8b611759565b9850506020611b978b828c01611759565b9750506040611ba88b828c01611759565b9650506060611bb98b828c016114c7565b9550506080611bca8b828c01611551565b94505060c08901356001600160401b03811115611be657600080fd5b611bf28b828c01611836565b93505060e08901356001600160401b03811115611c0e57600080fd5b611c1a8b828c01611624565b925050610100611c2c8b828c01611888565b9150509295985092959890939650565b600080600080600080600080610180898b031215611c5957600080fd5b6000611c658b8b611957565b98505060208901356001600160401b03811115611c8157600080fd5b611c8d8b828c01611836565b9750506040611c9e8b828c01611759565b9650506060611caf8b828c01611962565b95505060808901356001600160401b03811115611ccb57600080fd5b611cd78b828c016116d3565b94505060a08901356001600160401b03811115611cf357600080fd5b611cff8b828c016115b2565b93505060c0611d108b828c01611759565b92505060e0611c2c8b828c016117b3565b600080600080600080600080610140898b031215611d3e57600080fd5b6000611d4a8b8b611957565b98505060208901356001600160401b03811115611d6657600080fd5b611d728b828c01611836565b9750506040611d838b828c01611759565b96505060608901356001600160401b03811115611d9f57600080fd5b611dab8b828c01611676565b9550506080611dbc8b828c01611962565b94505060a08901356001600160401b03811115611dd857600080fd5b611de48b828c016115b2565b93505060c08901356001600160401b03811115611e0057600080fd5b611e0c8b828c016116d3565b92505060e0611c2c8b828c01611888565b600080600080600080600080610100898b031215611e3a57600080fd5b6000611e468b8b611957565b9850506020611e578b828c01611759565b97505060408901356001600160401b03811115611e7357600080fd5b611e7f8b828c01611836565b9650506060611e908b828c01611759565b9550506080611ea18b828c01611759565b94505060a0611eb28b828c01611962565b93505060c08901356001600160401b03811115611ece57600080fd5b611eda8b828c016116d3565b92505060e08901356001600160401b03811115611ef657600080fd5b611c2c8b828c016115b2565b6000611f0e8383611f29565b505060200190565b6000611f22838361272e565b9392505050565b611f3281612b16565b82525050565b6000611f4382612b04565b611f4d8185612b08565b9350611f5883612afe565b8060005b83811015611f86578151611f708882611f02565b9750611f7b83612afe565b925050600101611f5c565b509495945050505050565b6000611f9c82612b04565b611fa68185612b08565b9350611fb183612afe565b8060005b83811015611f86578151611fc98882611f02565b9750611fd483612afe565b925050600101611fb5565b6000611fea82612b04565b611ff48185612b08565b93508360208202850161200685612afe565b8060005b8581101561204057848403895281516120238582611f16565b945061202e83612afe565b60209a909a019992505060010161200a565b5091979650505050505050565b611f3281612b21565b611f3281612b26565b611f3261206b82612b26565b612b26565b600061207b82612b04565b6120858185612b08565b9350612095818560208601612b52565b61209e81612b7e565b9093019392505050565b60006120b382612b04565b6120bd8185612b11565b93506120cd818560208601612b52565b9290920192915050565b60006120e4604483612b08565b7f496e76616c69645472616e736974696f6e4572726f723a2043616e6e6f74206381527f68616e676520746865206170704461746120647572696e6720736574757020706020820152636861736560e01b604082015260600192915050565b6000612150601c83612b08565b7f7475726e4e756d5265636f7264206e6f7420696e637265617365642e00000000815260200192915050565b6000612189602183612b08565b7f4368616c6c656e67652065787069726564206f72206e6f742070726573656e748152601760f91b602082015260400192915050565b60006121cc601f83612b08565b7f4368616c6c656e676572206973206e6f742061207061727469636970616e7400815260200192915050565b6000612205601283612b08565b71496e76616c6964207369676e61747572657360701b815260200192915050565b6000612233604c83612b08565b7f496e76616c69645472616e736974696f6e4572726f723a2043616e6e6f74206381527f68616e6765207468652064656661756c74206f7574636f6d6520647572696e6760208201526b20736574757020706861736560a01b604082015260600192915050565b60006122a7601083612b08565b6f5374616c65206368616c6c656e67652160801b815260200192915050565b60006122d3604783612b08565b7f5f76616c69645369676e6174757265733a2077686f5369676e6564576861742081527f6d757374206265207468652073616d65206c656e677468206173207061727469602082015266636970616e747360c81b604082015260600192915050565b6000612342600983612b08565b68666f7263654d6f766560b81b815260200192915050565b6000612367604b83612b08565b7f496e76616c69645472616e736974696f6e4572726f723a2043616e6e6f74206d81527f6f76652066726f6d20612066696e616c20737461746520746f2061206e6f6e2060208201526a66696e616c20737461746560a81b604082015260600192915050565b60006123da605583612b08565b7f496e76616c69645472616e736974696f6e4572726f723a2043616e6e6f74206d81527f6f766520746f20612066696e616c2073746174652077697468206120646966666020820152746572656e742064656661756c74206f7574636f6d6560581b604082015260600192915050565b6000612457602983612b08565b7f52656675746174696f6e207374617465206e6f74207369676e656420627920638152683430b63632b733b2b960b91b602082015260400192915050565b60006124a2602e83612b08565b7f4368616e6e656c2073746f7261676520646f6573206e6f74206d61746368207381526d3a37b932b2103b32b939b4b7b71760911b602082015260400192915050565b60006124f2601183612b08565b7010da185b1b195b99d948195e1c1a5c9959607a1b815260200192915050565b600061251f602083612b08565b7f556e61636365707461626c652077686f5369676e656457686174206172726179815260200192915050565b6000612558602f83612b08565b7f52656675746174696f6e207374617465206d757374206861766520612068696781526e3432b9103a3ab93710373ab6b132b960891b602082015260400192915050565b60006125a9602783612b08565b7f526573706f6e7365206e6f74207369676e656420627920617574686f72697a65815266321036b7bb32b960c91b602082015260400192915050565b60006125f2601183612b08565b7021b430b73732b6103737ba1037b832b71760791b815260200192915050565b805160a08301906126238482612056565b5060208201516126366020850182612056565b5060408201516126496040850182612056565b50606082015161265c6060850182611f29565b50608082015161266f6080850182612056565b50505050565b805160009060a08401906126898582612056565b50602083015184820360208601526126a18282611f38565b91505060408301516126b66040860182612056565b5060608301516126c96060860182611f29565b5060808301516126dc6080860182612056565b509392505050565b805160a08301906126f58482612056565b506020820151612708602085018261204d565b50604082015161271b6040850182612056565b50606082015161265c6060850182612056565b80516040808452600091908401906127468282612070565b91505060208301518482036020860152610d9a8282612070565b611f3281612b29565b611f3281612b35565b611f3281612b40565b6000611f2282846120a8565b600061279382856120a8565b915061279f828461205f565b5060200192915050565b602081016110bc8284612056565b608081016127c58287612056565b6127d26020830186612772565b6127df6040830185612056565b610d9a6060830184612056565b60208082528101611f228184612070565b602080825281016110bc816120d7565b602080825281016110bc81612143565b602080825281016110bc8161217c565b602080825281016110bc816121bf565b602080825281016110bc816121f8565b602080825281016110bc81612226565b602080825281016110bc8161229a565b602080825281016110bc816122c6565b602080825281016110bc8161235a565b602080825281016110bc816123cd565b602080825281016110bc8161244a565b602080825281016110bc81612495565b602080825281016110bc816124e5565b602080825281016110bc81612512565b602080825281016110bc8161254b565b602080825281016110bc8161259c565b602080825281016110bc816125e5565b60a081016110bc8284612612565b60a081016110bc82846126e4565b6080808252810161293a818761272e565b9050818103602083015261294e818661272e565b90506127df6040830185612056565b6060810161296b8286612056565b6129786020830185611f29565b8181036040830152610d9a8184612070565b606081016129988286612056565b81810360208301526129aa8185611f91565b9050610b3e6040830184612056565b606081016129c78285612056565b6129d46020830184612056565b8181036040830152610b3e81612335565b60c081016129f38289612056565b612a006020830188612056565b612a0d6040830187611f29565b612a1a606083018661204d565b8181036080830152612a2c8185612675565b905081810360a0830152612a408184611fdf565b98975050505050505050565b60608101612a5a8286612769565b612a676020830185612769565b610b3e6040830184612760565b6040518181016001600160401b0381118282101715612a9257600080fd5b604052919050565b60006001600160401b03821115612ab057600080fd5b5060209081020190565b60006001600160401b03821115612ad057600080fd5b5060200290565b60006001600160401b03821115612aed57600080fd5b506020601f91909101601f19160190565b60200190565b5190565b90815260200190565b919050565b60006110bc82612b29565b151590565b90565b6001600160a01b031690565b65ffffffffffff1690565b60ff1690565b82818337506000910152565b60005b83811015612b6d578181015183820152602001612b55565b8381111561266f5750506000910152565b601f01601f191690565b612b9181612b16565b8114612b9c57600080fd5b50565b612b9181612b21565b612b9181612b26565b612b9181612b35565b612b9181612b4056fea365627a7a723158206513e1b60ab2e027fe9cadbbaff17cb2f88769be36b3d5eccef6b97c902fba446c6578706572696d656e74616cf564736f6c634300050b0040",
  "source": "pragma solidity ^0.5.11;\npragma experimental ABIEncoderV2;\n\nimport './ForceMoveApp.sol';\n\ncontract ForceMove {\n    struct Signature {\n        uint8 v;\n        bytes32 r;\n        bytes32 s;\n    }\n\n    struct FixedPart {\n        uint256 chainId;\n        address[] participants;\n        uint256 channelNonce;\n        address appDefinition;\n        uint256 challengeDuration;\n    }\n\n    struct State {\n        // participants sign the hash of this\n        uint256 turnNum;\n        bool isFinal;\n        bytes32 channelId; // keccack(chainId,participants,channelNonce)\n        bytes32 appPartHash;\n        //     keccak256(abi.encode(\n        //         fixedPart.challengeDuration,\n        //         fixedPart.appDefinition,\n        //         variablePart.appData\n        //     )\n        // )\n        bytes32 outcomeHash;\n    }\n\n    struct ChannelStorage {\n        uint256 turnNumRecord;\n        uint256 finalizesAt;\n        bytes32 stateHash; // keccak256(abi.encode(State))\n        address challengerAddress;\n        bytes32 outcomeHash;\n    }\n\n    struct ChannelStorageLite {\n        uint256 finalizesAt;\n        bytes32 stateHash;\n        address challengerAddress;\n        bytes32 outcomeHash;\n    }\n\n    mapping(bytes32 => bytes32) public channelStorageHashes;\n\n    // Public methods:\n\n    function getData(bytes32 channelId)\n        public\n        view\n        returns (uint48 finalizesAt, uint48 turnNumRecord, uint160 fingerprint)\n    {\n        (turnNumRecord, finalizesAt, fingerprint) = _getData(channelStorageHashes[channelId]);\n    }\n\n    function forceMove(\n        uint48 turnNumRecord,\n        FixedPart memory fixedPart,\n        uint256 largestTurnNum,\n        ForceMoveApp.VariablePart[] memory variableParts,\n        uint8 isFinalCount, // how many of the states are final\n        Signature[] memory sigs,\n        uint8[] memory whoSignedWhat,\n        Signature memory challengerSig\n    ) public {\n        // Calculate channelId from fixed part\n        bytes32 channelId = keccak256(\n            abi.encode(fixedPart.chainId, fixedPart.participants, fixedPart.channelNonce)\n        );\n        // ------------\n        // REQUIREMENTS\n        // ------------\n\n        // Check that the proposed largestTurnNum is larger than or equal to the turnNumRecord that is being committed to\n        require(largestTurnNum >= turnNumRecord, 'Stale challenge!');\n\n        _requireChannelOpen(turnNumRecord, channelId);\n\n        bytes32 supportedStateHash = _stateSupportedBy(\n            largestTurnNum,\n            variableParts,\n            isFinalCount,\n            channelId,\n            fixedPart,\n            sigs,\n            whoSignedWhat\n        );\n\n        // check that the forceMove is signed by a participant and store their address\n\n        address challenger = _recoverSigner( // TODO: what if someone nabs this signature off of a transaction and uses it in a front-ran tx?\n            keccak256(\n                abi.encode(\n                    largestTurnNum,\n                    channelId,\n                    'forceMove' // Express statement of intent to forceMove this channel to this turnNum\n                )\n            ),\n            challengerSig.v,\n            challengerSig.r,\n            challengerSig.s\n        );\n        require(\n            _isAddressInArray(challenger, fixedPart.participants),\n            'Challenger is not a participant'\n        );\n\n        // ------------\n        // EFFECTS\n        // ------------\n\n        emit ChallengeRegistered(\n            channelId,\n            largestTurnNum,\n            now + fixedPart.challengeDuration,\n            challenger,\n            isFinalCount > 0,\n            fixedPart,\n            variableParts\n        );\n\n        channelStorageHashes[channelId] = _getHash(\n            ChannelStorage(\n                largestTurnNum,\n                now + fixedPart.challengeDuration,\n                supportedStateHash,\n                challenger,\n                keccak256(abi.encode(variableParts[variableParts.length - 1].outcome))\n            )\n        );\n\n    }\n\n    function respond(\n        uint256 turnNumRecord,\n        uint256 finalizesAt,\n        address challenger,\n        bool[2] memory isFinalAB,\n        FixedPart memory fixedPart,\n        ForceMoveApp.VariablePart[2] memory variablePartAB,\n        // variablePartAB[0] = challengeVariablePart\n        // variablePartAB[1] = responseVariablePart\n        Signature memory sig\n    ) public {\n        // Calculate channelId from fixed part\n        bytes32 channelId = keccak256(\n            abi.encode(fixedPart.chainId, fixedPart.participants, fixedPart.channelNonce)\n        );\n\n        bytes32 challengeOutcomeHash = keccak256(abi.encode(variablePartAB[0].outcome));\n        bytes32 responseOutcomeHash = keccak256(abi.encode(variablePartAB[1].outcome));\n        bytes32 challengeStateHash = keccak256(\n            abi.encode(\n                State(\n                    turnNumRecord,\n                    isFinalAB[0],\n                    channelId,\n                    keccak256(\n                        abi.encode(\n                            fixedPart.challengeDuration,\n                            fixedPart.appDefinition,\n                            variablePartAB[0].appData\n                        )\n                    ),\n                    challengeOutcomeHash\n                )\n            )\n        );\n        bytes32 responseStateHash = keccak256(\n            abi.encode(\n                State(\n                    turnNumRecord + 1,\n                    isFinalAB[1],\n                    channelId,\n                    keccak256(\n                        abi.encode(\n                            fixedPart.challengeDuration,\n                            fixedPart.appDefinition,\n                            variablePartAB[1].appData\n                        )\n                    ),\n                    responseOutcomeHash\n                )\n            )\n        );\n\n        // requirements\n\n        _requireOngoingChallenge(\n            ChannelStorage(\n                turnNumRecord,\n                finalizesAt,\n                challengeStateHash,\n                challenger,\n                challengeOutcomeHash\n            ),\n            channelId\n        );\n\n        require(\n            _recoverSigner(responseStateHash, sig.v, sig.r, sig.s) ==\n                fixedPart.participants[(turnNumRecord + 1) % fixedPart.participants.length],\n            'Response not signed by authorized mover'\n        );\n\n        require(\n            _validTransition(\n                fixedPart.participants.length,\n                isFinalAB,\n                variablePartAB,\n                turnNumRecord + 1,\n                fixedPart.appDefinition\n            ) // reason string is not required (_validTransition never returns false, only reverts with its own reason)\n        );\n\n        // effects\n        _clearChallenge(channelId, turnNumRecord + 1);\n    }\n\n    function refute(\n        uint256 turnNumRecord,\n        uint256 refutationStateTurnNum,\n        uint256 finalizesAt,\n        address challenger,\n        bool[2] memory isFinalAB,\n        FixedPart memory fixedPart,\n        ForceMoveApp.VariablePart[2] memory variablePartAB,\n        // variablePartAB[0] = challengeVariablePart\n        // variablePartAB[1] = refutationVariablePart\n        Signature memory refutationStateSig\n    ) public {\n        // requirements\n\n        require(\n            refutationStateTurnNum > turnNumRecord,\n            'Refutation state must have a higher turn number'\n        );\n        // Calculate channelId from fixed part\n        bytes32 channelId = keccak256(\n            abi.encode(fixedPart.chainId, fixedPart.participants, fixedPart.channelNonce)\n        );\n\n        bytes32 challengeOutcomeHash = keccak256(abi.encode(variablePartAB[0].outcome));\n        bytes32 refutationOutcomeHash = keccak256(abi.encode(variablePartAB[1].outcome));\n        bytes32 challengeStateHash = keccak256(\n            abi.encode(\n                State(\n                    turnNumRecord,\n                    isFinalAB[0],\n                    channelId,\n                    keccak256(\n                        abi.encode(\n                            fixedPart.challengeDuration,\n                            fixedPart.appDefinition,\n                            variablePartAB[0].appData\n                        )\n                    ),\n                    challengeOutcomeHash\n                )\n            )\n        );\n        bytes32 refutationStateHash = keccak256(\n            abi.encode(\n                State(\n                    refutationStateTurnNum,\n                    isFinalAB[1],\n                    channelId,\n                    keccak256(\n                        abi.encode(\n                            fixedPart.challengeDuration,\n                            fixedPart.appDefinition,\n                            variablePartAB[1].appData\n                        )\n                    ),\n                    refutationOutcomeHash\n                )\n            )\n        );\n\n        // requirements\n\n        _requireOngoingChallenge(\n            ChannelStorage(\n                turnNumRecord,\n                finalizesAt,\n                challengeStateHash,\n                challenger, // this is a check that the asserted challenger is in fact the challenger\n                challengeOutcomeHash\n            ),\n            channelId\n        );\n\n        require(\n            _recoverSigner(\n                    refutationStateHash,\n                    refutationStateSig.v,\n                    refutationStateSig.r,\n                    refutationStateSig.s\n                ) ==\n                challenger,\n            'Refutation state not signed by challenger'\n        );\n\n        // effects\n        _clearChallenge(channelId, turnNumRecord);\n    }\n\n    function checkpoint(\n        FixedPart memory fixedPart,\n        uint48 largestTurnNum,\n        ForceMoveApp.VariablePart[] memory variableParts,\n        uint8 isFinalCount, // how many of the states are final\n        Signature[] memory sigs,\n        uint8[] memory whoSignedWhat,\n        ChannelStorage memory channelStorage\n    ) public {\n        // Calculate channelId from fixed part\n        bytes32 channelId = keccak256(\n            abi.encode(fixedPart.chainId, fixedPart.participants, fixedPart.channelNonce)\n        );\n\n        // ------------\n        // REQUIREMENTS\n        // ------------\n\n        _requireChannelNotFinalized(channelStorage, channelId);\n        _requireIncreasedTurnNumber(channelStorage, channelId, largestTurnNum);\n\n        _stateSupportedBy(\n            largestTurnNum,\n            variableParts,\n            isFinalCount,\n            channelId,\n            fixedPart,\n            sigs,\n            whoSignedWhat\n        ); // reverts if no state supported by input data\n\n        // effects\n        _clearChallenge(channelId, largestTurnNum);\n\n    }\n\n    function concludeFromOpen(\n        uint48 turnNumRecord,\n        uint256 largestTurnNum,\n        FixedPart memory fixedPart, // don't need appDefinition\n        bytes32 appPartHash,\n        bytes32 outcomeHash,\n        uint8 numStates,\n        uint8[] memory whoSignedWhat,\n        Signature[] memory sigs\n    ) public {\n        // Calculate channelId from fixed part\n        bytes32 channelId = keccak256(\n            abi.encode(fixedPart.chainId, fixedPart.participants, fixedPart.channelNonce)\n        );\n\n        _requireChannelOpen(turnNumRecord, channelId);\n\n        _conclude(\n            largestTurnNum,\n            numStates,\n            fixedPart.participants,\n            channelId,\n            appPartHash,\n            outcomeHash,\n            sigs,\n            whoSignedWhat\n        );\n    }\n\n    function concludeFromChallenge(\n        uint48 largestTurnNum,\n        FixedPart memory fixedPart, // don't need appDefinition\n        bytes32 appPartHash,\n        uint8 numStates,\n        uint8[] memory whoSignedWhat,\n        Signature[] memory sigs,\n        bytes32 newOutcomeHash,\n        ChannelStorage memory channelStorage\n    ) public {\n        // Calculate channelId from fixed part\n        bytes32 channelId = keccak256(\n            abi.encode(fixedPart.chainId, fixedPart.participants, fixedPart.channelNonce)\n        );\n\n        _requireOngoingChallenge(channelStorage, channelId);\n\n        _conclude(\n            largestTurnNum,\n            numStates,\n            fixedPart.participants,\n            channelId,\n            appPartHash,\n            newOutcomeHash,\n            sigs,\n            whoSignedWhat\n        );\n    }\n    // Internal methods:\n\n    function _isAddressInArray(address suspect, address[] memory addresses)\n        internal\n        pure\n        returns (bool)\n    {\n        for (uint256 i = 0; i < addresses.length; i++) {\n            if (suspect == addresses[i]) {\n                return true;\n            }\n        }\n        return false;\n    }\n\n    function _validSignatures(\n        uint256 largestTurnNum,\n        address[] memory participants,\n        bytes32[] memory stateHashes,\n        Signature[] memory sigs,\n        uint8[] memory whoSignedWhat // whoSignedWhat[i] is the index of the state in stateHashes that was signed by participants[i]\n    ) internal pure returns (bool) {\n        uint256 nParticipants = participants.length;\n        uint256 nStates = stateHashes.length;\n\n        require(\n            _acceptableWhoSignedWhat(whoSignedWhat, largestTurnNum, nParticipants, nStates),\n            'Unacceptable whoSignedWhat array'\n        );\n        for (uint256 i = 0; i < nParticipants; i++) {\n            address signer = _recoverSigner(\n                stateHashes[whoSignedWhat[i]],\n                sigs[i].v,\n                sigs[i].r,\n                sigs[i].s\n            );\n            if (signer != participants[i]) {\n                return false;\n            }\n        }\n        return true;\n    }\n\n    function _acceptableWhoSignedWhat(\n        uint8[] memory whoSignedWhat,\n        uint256 largestTurnNum,\n        uint256 nParticipants,\n        uint256 nStates\n    ) internal pure returns (bool) {\n        require(\n            whoSignedWhat.length == nParticipants,\n            '_validSignatures: whoSignedWhat must be the same length as participants'\n        );\n        for (uint256 i = 0; i < nParticipants; i++) {\n            uint256 offset = (nParticipants + largestTurnNum - i) % nParticipants;\n            // offset is the difference between the index of participant[i] and the index of the participant who owns the largesTurnNum state\n            // the additional nParticipants in the dividend ensures offset always positive\n            if (whoSignedWhat[i] + offset < nStates - 1) {\n                return false;\n            }\n        }\n        return true;\n    }\n\n    bytes constant prefix = '\\x19Ethereum Signed Message:\\n32';\n    function _recoverSigner(bytes32 _d, uint8 _v, bytes32 _r, bytes32 _s)\n        internal\n        pure\n        returns (address)\n    {\n        bytes32 prefixedHash = keccak256(abi.encodePacked(prefix, _d));\n        address a = ecrecover(prefixedHash, _v, _r, _s);\n        return (a);\n    }\n\n    function _stateSupportedBy(\n        uint256 largestTurnNum,\n        ForceMoveApp.VariablePart[] memory variableParts,\n        uint8 isFinalCount,\n        bytes32 channelId,\n        FixedPart memory fixedPart,\n        Signature[] memory sigs,\n        uint8[] memory whoSignedWhat // whoSignedWhat[i] is the index of the state in stateHashes that was signed by participants[i]\n    ) internal pure returns (bytes32) {\n        bytes32[] memory stateHashes = _validTransitionChain(\n            largestTurnNum,\n            variableParts,\n            isFinalCount,\n            channelId,\n            fixedPart\n        ); // if this function returns the array (and doesn't revert), this implies a validTransition chain\n\n        require(\n            _validSignatures(\n                largestTurnNum,\n                fixedPart.participants,\n                stateHashes,\n                sigs,\n                whoSignedWhat\n            ),\n            'Invalid signatures'\n        );\n\n        return stateHashes[stateHashes.length - 1];\n    }\n\n    function _validTransitionChain(\n        // returns stateHashes array (implies true) else reverts\n        uint256 largestTurnNum,\n        ForceMoveApp.VariablePart[] memory variableParts,\n        uint8 isFinalCount,\n        bytes32 channelId,\n        FixedPart memory fixedPart\n    ) internal pure returns (bytes32[] memory) {\n        bytes32[] memory stateHashes = new bytes32[](variableParts.length);\n        for (uint256 i = 0; i < variableParts.length; i++) {\n            stateHashes[i] = keccak256(\n                abi.encode(\n                    State(\n                        largestTurnNum + i - variableParts.length + 1, // turnNum\n                        i > variableParts.length - isFinalCount, // isFinal\n                        channelId,\n                        keccak256(\n                            abi.encode(\n                                fixedPart.challengeDuration,\n                                fixedPart.appDefinition,\n                                variableParts[i].appData\n                            )\n                        ),\n                        keccak256(abi.encode(variableParts[i].outcome))\n                    )\n                )\n            );\n            if (i + 1 != variableParts.length) {\n                // no transition from final state\n                require(\n                    _validTransition(\n                        fixedPart.participants.length, // nParticipants\n                        [\n                            i > variableParts.length - isFinalCount,\n                            i + 1 > variableParts.length - isFinalCount\n                        ], // [a.isFinal, b.isFinal]\n                        [variableParts[i], variableParts[i + 1]], // [a,b]\n                        largestTurnNum + i - variableParts.length + 2, // b.turnNum\n                        fixedPart.appDefinition\n                    )\n                ); // reason string not necessary (called function will provide reason for reverting)\n            }\n        }\n        return stateHashes;\n    }\n\n    function _validTransition(\n        uint256 nParticipants,\n        bool[2] memory isFinalAB, // [a.isFinal, b.isFinal]\n        ForceMoveApp.VariablePart[2] memory ab, // [a,b]\n        uint256 turnNumB,\n        address appDefinition\n    ) internal pure returns (bool) {\n        // a prior check on the signatures for the submitted states implies that the following fields are equal for a and b:\n        // chainId, participants, channelNonce, appDefinition, challengeDuration\n        // and that the b.turnNum = a.turnNum + 1\n        if (isFinalAB[1]) {\n            require(\n                keccak256(ab[1].outcome) == keccak256(ab[0].outcome),\n                'InvalidTransitionError: Cannot move to a final state with a different default outcome'\n            );\n        } else {\n            require(\n                !isFinalAB[0],\n                'InvalidTransitionError: Cannot move from a final state to a non final state'\n            );\n            if (turnNumB <= 2 * nParticipants) {\n                require(\n                    keccak256(ab[1].outcome) == keccak256(ab[0].outcome),\n                    'InvalidTransitionError: Cannot change the default outcome during setup phase'\n                );\n                require(\n                    keccak256(ab[1].appData) == keccak256(ab[0].appData),\n                    'InvalidTransitionError: Cannot change the appData during setup phase'\n                );\n            } else {\n                require(\n                    ForceMoveApp(appDefinition).validTransition(\n                        ab[0],\n                        ab[1],\n                        turnNumB,\n                        nParticipants\n                    )\n                );\n                // reason string not necessary (called function will provide reason for reverting)\n            }\n        }\n        return true;\n    }\n\n    function _clearChallenge(bytes32 channelId, uint256 newTurnNumRecord) internal {\n        channelStorageHashes[channelId] = _getHash(\n            ChannelStorage(newTurnNumRecord, 0, bytes32(0), address(0), bytes32(0))\n        );\n        emit ChallengeCleared(channelId, newTurnNumRecord);\n    }\n\n    function _conclude(\n        uint256 largestTurnNum,\n        uint8 numStates,\n        address[] memory participants,\n        bytes32 channelId,\n        bytes32 appPartHash,\n        bytes32 outcomeHash,\n        Signature[] memory sigs,\n        uint8[] memory whoSignedWhat\n    ) internal {\n        bytes32[] memory stateHashes = new bytes32[](numStates);\n        for (uint256 i = 0; i < numStates; i++) {\n            stateHashes[i] = keccak256(\n                abi.encode(\n                    State(\n                        largestTurnNum + (i + 1) - numStates, // turnNum\n                        true, // isFinal\n                        channelId,\n                        appPartHash,\n                        outcomeHash\n                    )\n                )\n            );\n        }\n\n        // check the supplied states are supported by n signatures\n        require(\n            _validSignatures(largestTurnNum, participants, stateHashes, sigs, whoSignedWhat),\n            'Invalid signatures'\n        );\n\n        // effects\n\n        // set channel storage\n        channelStorageHashes[channelId] = _getHash(\n            ChannelStorage(0, now, bytes32(0), address(0), outcomeHash)\n        );\n\n        // emit event\n        emit Concluded(channelId);\n    }\n\n    function _requireChannelOpen(uint48 turnNumRecord, bytes32 channelId) internal view {\n        // EITHER there is no information stored against channelId at all (OK)\n        // OR there is, in which case we must check the channel is still open\n        // and that the committed turnNumRecord is correct\n        require(\n            channelStorageHashes[channelId] == bytes32(0) ||\n                channelStorageHashes[channelId] ==\n                _getHash(ChannelStorage(turnNumRecord, 0, 0, address(0), 0)),\n            'Channel not open.'\n        );\n    }\n\n    function _requireMatchingStorage(ChannelStorage memory cs, bytes32 channelId) internal view {\n        require(\n            _matchesHash(cs, channelStorageHashes[channelId]),\n            'Channel storage does not match stored version.'\n        );\n    }\n\n    function _requireIncreasedTurnNumber(\n        ChannelStorage memory cs,\n        bytes32 channelId,\n        uint48 newTurnNumRecord\n    ) internal view {\n        _requireMatchingStorage(cs, channelId);\n        require(newTurnNumRecord > cs.turnNumRecord, 'turnNumRecord not increased.');\n    }\n\n    function _requireChallengePresent(ChannelStorage memory cs, bytes32 channelId) internal view {\n        _requireMatchingStorage(cs, channelId);\n        require(cs.finalizesAt > 0, 'Challenge not present.');\n    }\n\n    function _requireOngoingChallenge(ChannelStorage memory cs, bytes32 channelId) internal view {\n        _requireMatchingStorage(cs, channelId);\n        require(cs.finalizesAt > now, 'Challenge expired or not present.');\n\n    }\n\n    function _requireChannelNotFinalized(ChannelStorage memory cs, bytes32 channelId)\n        internal\n        view\n    {\n        require(cs.finalizesAt == 0 || cs.finalizesAt > now, 'Challenge expired');\n        _requireMatchingStorage(cs, channelId);\n    }\n\n    function _getHash(ChannelStorage memory channelStorage)\n        internal\n        pure\n        returns (bytes32 newHash)\n    {\n        // The hash is constructed from left to right.\n        uint256 result;\n        uint16 cursor = 256;\n\n        // Shift turnNumRecord 208 bits left to fill the first 48 bits\n        result = uint256(channelStorage.turnNumRecord) << (cursor -= 48);\n\n        // logical or with finalizesAt padded with 160 zeros to get the next 48 bits\n        result |= (channelStorage.finalizesAt << (cursor -= 48));\n\n        // logical or with the last 160 bits of the hash of the encoded storage\n        result |= uint256(uint160(uint256(keccak256(abi.encode(channelStorage)))));\n\n        newHash = bytes32(result);\n    }\n\n    function _getData(bytes32 storageHash)\n        public\n        pure\n        returns (uint48 turnNumRecord, uint48 finalizesAt, uint160 fingerprint)\n    {\n        uint16 cursor = 256;\n        turnNumRecord = uint48(uint256(storageHash) >> (cursor -= 48));\n        finalizesAt = uint48(uint256(storageHash) >> (cursor -= 48));\n        fingerprint = uint160(uint256(storageHash));\n    }\n\n    function _matchesHash(ChannelStorage memory cs, bytes32 h) internal pure returns (bool) {\n        return _getHash(cs) == h;\n    }\n\n    // events\n    event ChallengeRegistered(\n        bytes32 indexed channelId,\n        // everything needed to respond or refute\n        uint256 turnNunmRecord,\n        uint256 finalizesAt,\n        address challenger,\n        bool isFinal,\n        FixedPart fixedPart,\n        ForceMoveApp.VariablePart[] variableParts\n    );\n\n    event ChallengeCleared(bytes32 indexed channelId, uint256 newTurnNumRecord);\n    event Concluded(bytes32 indexed channelId);\n}\n",
  "sourcePath": "nitro-protocol/contracts/ForceMove.sol",
  "compiler": {
    "name": "solc",
    "version": "0.5.11+commit.c082d0b4.Emscripten.clang"
  },
  "schemaVersion": "3.0.16",
  "updatedAt": "2019-09-25T00:22:28.117Z",
  "devdoc": {
    "methods": {}
  },
  "userdoc": {
    "methods": {}
  }
}