{
  "contractName": "NitroAdjudicator",
  "abi": [
    {
      "constant": true,
      "inputs": [
        {
          "internalType": "bytes32",
          "name": "channelId",
          "type": "bytes32"
        }
      ],
      "name": "getData",
      "outputs": [
        {
          "internalType": "uint48",
          "name": "finalizesAt",
          "type": "uint48"
        },
        {
          "internalType": "uint48",
          "name": "turnNumRecord",
          "type": "uint48"
        },
        {
          "internalType": "uint160",
          "name": "fingerprint",
          "type": "uint160"
        }
      ],
      "payable": false,
      "stateMutability": "view",
      "type": "function"
    },
    {
      "constant": false,
      "inputs": [
        {
          "internalType": "uint256",
          "name": "turnNumRecord",
          "type": "uint256"
        },
        {
          "internalType": "uint256",
          "name": "refutationStateTurnNum",
          "type": "uint256"
        },
        {
          "internalType": "uint256",
          "name": "finalizesAt",
          "type": "uint256"
        },
        {
          "internalType": "address",
          "name": "challenger",
          "type": "address"
        },
        {
          "internalType": "bool[2]",
          "name": "isFinalAB",
          "type": "bool[2]"
        },
        {
          "components": [
            {
              "internalType": "uint256",
              "name": "chainId",
              "type": "uint256"
            },
            {
              "internalType": "address[]",
              "name": "participants",
              "type": "address[]"
            },
            {
              "internalType": "uint256",
              "name": "channelNonce",
              "type": "uint256"
            },
            {
              "internalType": "address",
              "name": "appDefinition",
              "type": "address"
            },
            {
              "internalType": "uint256",
              "name": "challengeDuration",
              "type": "uint256"
            }
          ],
          "internalType": "struct ForceMove.FixedPart",
          "name": "fixedPart",
          "type": "tuple"
        },
        {
          "components": [
            {
              "internalType": "bytes",
              "name": "outcome",
              "type": "bytes"
            },
            {
              "internalType": "bytes",
              "name": "appData",
              "type": "bytes"
            }
          ],
          "internalType": "struct ForceMoveApp.VariablePart[2]",
          "name": "variablePartAB",
          "type": "tuple[2]"
        },
        {
          "components": [
            {
              "internalType": "uint8",
              "name": "v",
              "type": "uint8"
            },
            {
              "internalType": "bytes32",
              "name": "r",
              "type": "bytes32"
            },
            {
              "internalType": "bytes32",
              "name": "s",
              "type": "bytes32"
            }
          ],
          "internalType": "struct ForceMove.Signature",
          "name": "refutationStateSig",
          "type": "tuple"
        }
      ],
      "name": "refute",
      "outputs": [],
      "payable": false,
      "stateMutability": "nonpayable",
      "type": "function"
    },
    {
      "constant": true,
      "inputs": [
        {
          "internalType": "bytes32",
          "name": "",
          "type": "bytes32"
        }
      ],
      "name": "channelStorageHashes",
      "outputs": [
        {
          "internalType": "bytes32",
          "name": "",
          "type": "bytes32"
        }
      ],
      "payable": false,
      "stateMutability": "view",
      "type": "function"
    },
    {
      "constant": true,
      "inputs": [
        {
          "internalType": "bytes32",
          "name": "storageHash",
          "type": "bytes32"
        }
      ],
      "name": "_getData",
      "outputs": [
        {
          "internalType": "uint48",
          "name": "turnNumRecord",
          "type": "uint48"
        },
        {
          "internalType": "uint48",
          "name": "finalizesAt",
          "type": "uint48"
        },
        {
          "internalType": "uint160",
          "name": "fingerprint",
          "type": "uint160"
        }
      ],
      "payable": false,
      "stateMutability": "pure",
      "type": "function"
    },
    {
      "constant": false,
      "inputs": [
        {
          "internalType": "uint256",
          "name": "turnNumRecord",
          "type": "uint256"
        },
        {
          "internalType": "uint256",
          "name": "finalizesAt",
          "type": "uint256"
        },
        {
          "internalType": "address",
          "name": "challenger",
          "type": "address"
        },
        {
          "internalType": "bool[2]",
          "name": "isFinalAB",
          "type": "bool[2]"
        },
        {
          "components": [
            {
              "internalType": "uint256",
              "name": "chainId",
              "type": "uint256"
            },
            {
              "internalType": "address[]",
              "name": "participants",
              "type": "address[]"
            },
            {
              "internalType": "uint256",
              "name": "channelNonce",
              "type": "uint256"
            },
            {
              "internalType": "address",
              "name": "appDefinition",
              "type": "address"
            },
            {
              "internalType": "uint256",
              "name": "challengeDuration",
              "type": "uint256"
            }
          ],
          "internalType": "struct ForceMove.FixedPart",
          "name": "fixedPart",
          "type": "tuple"
        },
        {
          "components": [
            {
              "internalType": "bytes",
              "name": "outcome",
              "type": "bytes"
            },
            {
              "internalType": "bytes",
              "name": "appData",
              "type": "bytes"
            }
          ],
          "internalType": "struct ForceMoveApp.VariablePart[2]",
          "name": "variablePartAB",
          "type": "tuple[2]"
        },
        {
          "components": [
            {
              "internalType": "uint8",
              "name": "v",
              "type": "uint8"
            },
            {
              "internalType": "bytes32",
              "name": "r",
              "type": "bytes32"
            },
            {
              "internalType": "bytes32",
              "name": "s",
              "type": "bytes32"
            }
          ],
          "internalType": "struct ForceMove.Signature",
          "name": "sig",
          "type": "tuple"
        }
      ],
      "name": "respond",
      "outputs": [],
      "payable": false,
      "stateMutability": "nonpayable",
      "type": "function"
    },
    {
      "constant": false,
      "inputs": [
        {
          "internalType": "uint48",
          "name": "largestTurnNum",
          "type": "uint48"
        },
        {
          "components": [
            {
              "internalType": "uint256",
              "name": "chainId",
              "type": "uint256"
            },
            {
              "internalType": "address[]",
              "name": "participants",
              "type": "address[]"
            },
            {
              "internalType": "uint256",
              "name": "channelNonce",
              "type": "uint256"
            },
            {
              "internalType": "address",
              "name": "appDefinition",
              "type": "address"
            },
            {
              "internalType": "uint256",
              "name": "challengeDuration",
              "type": "uint256"
            }
          ],
          "internalType": "struct ForceMove.FixedPart",
          "name": "fixedPart",
          "type": "tuple"
        },
        {
          "internalType": "bytes32",
          "name": "appPartHash",
          "type": "bytes32"
        },
        {
          "internalType": "uint8",
          "name": "numStates",
          "type": "uint8"
        },
        {
          "internalType": "uint8[]",
          "name": "whoSignedWhat",
          "type": "uint8[]"
        },
        {
          "components": [
            {
              "internalType": "uint8",
              "name": "v",
              "type": "uint8"
            },
            {
              "internalType": "bytes32",
              "name": "r",
              "type": "bytes32"
            },
            {
              "internalType": "bytes32",
              "name": "s",
              "type": "bytes32"
            }
          ],
          "internalType": "struct ForceMove.Signature[]",
          "name": "sigs",
          "type": "tuple[]"
        },
        {
          "internalType": "bytes32",
          "name": "newOutcomeHash",
          "type": "bytes32"
        },
        {
          "components": [
            {
              "internalType": "uint256",
              "name": "turnNumRecord",
              "type": "uint256"
            },
            {
              "internalType": "uint256",
              "name": "finalizesAt",
              "type": "uint256"
            },
            {
              "internalType": "bytes32",
              "name": "stateHash",
              "type": "bytes32"
            },
            {
              "internalType": "address",
              "name": "challengerAddress",
              "type": "address"
            },
            {
              "internalType": "bytes32",
              "name": "outcomeHash",
              "type": "bytes32"
            }
          ],
          "internalType": "struct ForceMove.ChannelStorage",
          "name": "channelStorage",
          "type": "tuple"
        }
      ],
      "name": "concludeFromChallenge",
      "outputs": [],
      "payable": false,
      "stateMutability": "nonpayable",
      "type": "function"
    },
    {
      "constant": false,
      "inputs": [
        {
          "components": [
            {
              "internalType": "uint256",
              "name": "chainId",
              "type": "uint256"
            },
            {
              "internalType": "address[]",
              "name": "participants",
              "type": "address[]"
            },
            {
              "internalType": "uint256",
              "name": "channelNonce",
              "type": "uint256"
            },
            {
              "internalType": "address",
              "name": "appDefinition",
              "type": "address"
            },
            {
              "internalType": "uint256",
              "name": "challengeDuration",
              "type": "uint256"
            }
          ],
          "internalType": "struct ForceMove.FixedPart",
          "name": "fixedPart",
          "type": "tuple"
        },
        {
          "internalType": "uint48",
          "name": "largestTurnNum",
          "type": "uint48"
        },
        {
          "components": [
            {
              "internalType": "bytes",
              "name": "outcome",
              "type": "bytes"
            },
            {
              "internalType": "bytes",
              "name": "appData",
              "type": "bytes"
            }
          ],
          "internalType": "struct ForceMoveApp.VariablePart[]",
          "name": "variableParts",
          "type": "tuple[]"
        },
        {
          "internalType": "uint8",
          "name": "isFinalCount",
          "type": "uint8"
        },
        {
          "components": [
            {
              "internalType": "uint8",
              "name": "v",
              "type": "uint8"
            },
            {
              "internalType": "bytes32",
              "name": "r",
              "type": "bytes32"
            },
            {
              "internalType": "bytes32",
              "name": "s",
              "type": "bytes32"
            }
          ],
          "internalType": "struct ForceMove.Signature[]",
          "name": "sigs",
          "type": "tuple[]"
        },
        {
          "internalType": "uint8[]",
          "name": "whoSignedWhat",
          "type": "uint8[]"
        },
        {
          "components": [
            {
              "internalType": "uint256",
              "name": "turnNumRecord",
              "type": "uint256"
            },
            {
              "internalType": "uint256",
              "name": "finalizesAt",
              "type": "uint256"
            },
            {
              "internalType": "bytes32",
              "name": "stateHash",
              "type": "bytes32"
            },
            {
              "internalType": "address",
              "name": "challengerAddress",
              "type": "address"
            },
            {
              "internalType": "bytes32",
              "name": "outcomeHash",
              "type": "bytes32"
            }
          ],
          "internalType": "struct ForceMove.ChannelStorage",
          "name": "channelStorage",
          "type": "tuple"
        }
      ],
      "name": "checkpoint",
      "outputs": [],
      "payable": false,
      "stateMutability": "nonpayable",
      "type": "function"
    },
    {
      "constant": false,
      "inputs": [
        {
          "internalType": "uint48",
          "name": "turnNumRecord",
          "type": "uint48"
        },
        {
          "components": [
            {
              "internalType": "uint256",
              "name": "chainId",
              "type": "uint256"
            },
            {
              "internalType": "address[]",
              "name": "participants",
              "type": "address[]"
            },
            {
              "internalType": "uint256",
              "name": "channelNonce",
              "type": "uint256"
            },
            {
              "internalType": "address",
              "name": "appDefinition",
              "type": "address"
            },
            {
              "internalType": "uint256",
              "name": "challengeDuration",
              "type": "uint256"
            }
          ],
          "internalType": "struct ForceMove.FixedPart",
          "name": "fixedPart",
          "type": "tuple"
        },
        {
          "internalType": "uint256",
          "name": "largestTurnNum",
          "type": "uint256"
        },
        {
          "components": [
            {
              "internalType": "bytes",
              "name": "outcome",
              "type": "bytes"
            },
            {
              "internalType": "bytes",
              "name": "appData",
              "type": "bytes"
            }
          ],
          "internalType": "struct ForceMoveApp.VariablePart[]",
          "name": "variableParts",
          "type": "tuple[]"
        },
        {
          "internalType": "uint8",
          "name": "isFinalCount",
          "type": "uint8"
        },
        {
          "components": [
            {
              "internalType": "uint8",
              "name": "v",
              "type": "uint8"
            },
            {
              "internalType": "bytes32",
              "name": "r",
              "type": "bytes32"
            },
            {
              "internalType": "bytes32",
              "name": "s",
              "type": "bytes32"
            }
          ],
          "internalType": "struct ForceMove.Signature[]",
          "name": "sigs",
          "type": "tuple[]"
        },
        {
          "internalType": "uint8[]",
          "name": "whoSignedWhat",
          "type": "uint8[]"
        },
        {
          "components": [
            {
              "internalType": "uint8",
              "name": "v",
              "type": "uint8"
            },
            {
              "internalType": "bytes32",
              "name": "r",
              "type": "bytes32"
            },
            {
              "internalType": "bytes32",
              "name": "s",
              "type": "bytes32"
            }
          ],
          "internalType": "struct ForceMove.Signature",
          "name": "challengerSig",
          "type": "tuple"
        }
      ],
      "name": "forceMove",
      "outputs": [],
      "payable": false,
      "stateMutability": "nonpayable",
      "type": "function"
    },
    {
      "constant": false,
      "inputs": [
        {
          "internalType": "uint48",
          "name": "turnNumRecord",
          "type": "uint48"
        },
        {
          "internalType": "uint256",
          "name": "largestTurnNum",
          "type": "uint256"
        },
        {
          "components": [
            {
              "internalType": "uint256",
              "name": "chainId",
              "type": "uint256"
            },
            {
              "internalType": "address[]",
              "name": "participants",
              "type": "address[]"
            },
            {
              "internalType": "uint256",
              "name": "channelNonce",
              "type": "uint256"
            },
            {
              "internalType": "address",
              "name": "appDefinition",
              "type": "address"
            },
            {
              "internalType": "uint256",
              "name": "challengeDuration",
              "type": "uint256"
            }
          ],
          "internalType": "struct ForceMove.FixedPart",
          "name": "fixedPart",
          "type": "tuple"
        },
        {
          "internalType": "bytes32",
          "name": "appPartHash",
          "type": "bytes32"
        },
        {
          "internalType": "bytes32",
          "name": "outcomeHash",
          "type": "bytes32"
        },
        {
          "internalType": "uint8",
          "name": "numStates",
          "type": "uint8"
        },
        {
          "internalType": "uint8[]",
          "name": "whoSignedWhat",
          "type": "uint8[]"
        },
        {
          "components": [
            {
              "internalType": "uint8",
              "name": "v",
              "type": "uint8"
            },
            {
              "internalType": "bytes32",
              "name": "r",
              "type": "bytes32"
            },
            {
              "internalType": "bytes32",
              "name": "s",
              "type": "bytes32"
            }
          ],
          "internalType": "struct ForceMove.Signature[]",
          "name": "sigs",
          "type": "tuple[]"
        }
      ],
      "name": "concludeFromOpen",
      "outputs": [],
      "payable": false,
      "stateMutability": "nonpayable",
      "type": "function"
    },
    {
      "anonymous": false,
      "inputs": [
        {
          "indexed": true,
          "internalType": "bytes32",
          "name": "channelId",
          "type": "bytes32"
        },
        {
          "indexed": false,
          "internalType": "uint256",
          "name": "turnNunmRecord",
          "type": "uint256"
        },
        {
          "indexed": false,
          "internalType": "uint256",
          "name": "finalizesAt",
          "type": "uint256"
        },
        {
          "indexed": false,
          "internalType": "address",
          "name": "challenger",
          "type": "address"
        },
        {
          "indexed": false,
          "internalType": "bool",
          "name": "isFinal",
          "type": "bool"
        },
        {
          "components": [
            {
              "internalType": "uint256",
              "name": "chainId",
              "type": "uint256"
            },
            {
              "internalType": "address[]",
              "name": "participants",
              "type": "address[]"
            },
            {
              "internalType": "uint256",
              "name": "channelNonce",
              "type": "uint256"
            },
            {
              "internalType": "address",
              "name": "appDefinition",
              "type": "address"
            },
            {
              "internalType": "uint256",
              "name": "challengeDuration",
              "type": "uint256"
            }
          ],
          "indexed": false,
          "internalType": "struct ForceMove.FixedPart",
          "name": "fixedPart",
          "type": "tuple"
        },
        {
          "components": [
            {
              "internalType": "bytes",
              "name": "outcome",
              "type": "bytes"
            },
            {
              "internalType": "bytes",
              "name": "appData",
              "type": "bytes"
            }
          ],
          "indexed": false,
          "internalType": "struct ForceMoveApp.VariablePart[]",
          "name": "variableParts",
          "type": "tuple[]"
        }
      ],
      "name": "ChallengeRegistered",
      "type": "event"
    },
    {
      "anonymous": false,
      "inputs": [
        {
          "indexed": true,
          "internalType": "bytes32",
          "name": "channelId",
          "type": "bytes32"
        },
        {
          "indexed": false,
          "internalType": "uint256",
          "name": "newTurnNumRecord",
          "type": "uint256"
        }
      ],
      "name": "ChallengeCleared",
      "type": "event"
    },
    {
      "anonymous": false,
      "inputs": [
        {
          "indexed": true,
          "internalType": "bytes32",
          "name": "channelId",
          "type": "bytes32"
        }
      ],
      "name": "Concluded",
      "type": "event"
    },
    {
      "constant": false,
      "inputs": [
        {
          "internalType": "bytes32",
          "name": "channelId",
          "type": "bytes32"
        },
        {
          "internalType": "uint256",
          "name": "turnNumRecord",
          "type": "uint256"
        },
        {
          "internalType": "uint256",
          "name": "finalizesAt",
          "type": "uint256"
        },
        {
          "internalType": "bytes32",
          "name": "stateHash",
          "type": "bytes32"
        },
        {
          "internalType": "address",
          "name": "challengerAddress",
          "type": "address"
        },
        {
          "internalType": "bytes",
          "name": "outcomeBytes",
          "type": "bytes"
        }
      ],
      "name": "pushOutcome",
      "outputs": [],
      "payable": false,
      "stateMutability": "nonpayable",
      "type": "function"
    }
  ],
  "bytecode": "0x608060405234801561001057600080fd5b50613053806100206000396000f3fe608060405234801561001057600080fd5b506004361061009e5760003560e01c80639890c8dc116100665780639890c8dc14610129578063b9a6324b1461013c578063bb7cd3191461014f578063efc355bb14610162578063f39c0eb8146101755761009e565b806354f6127f146100a35780635fbb8aeb146100ce5780636f65e87d146100e357806388aa04d1146101035780638a135c8c14610116575b600080fd5b6100b66100b1366004611c88565b610188565b6040516100c593929190612e99565b60405180910390f35b6100e16100dc366004611ef8565b6101b0565b005b6100f66100f1366004611c88565b61045d565b6040516100c59190612bbb565b6100b6610111366004611c88565b61046f565b6100e1610124366004611e3c565b61047e565b6100e1610137366004611fd7565b61074e565b6100e161014a366004611ca6565b6107ba565b6100e161015d366004611d44565b610965565b6100e16101703660046120bc565b6109e9565b6100e16101833660046121b8565b610bc3565b600081815260208190526040812054819081906101a49061046f565b90969195509350915050565b8787116101d85760405162461bcd60e51b81526004016101cf90612d2a565b60405180910390fd5b60008360000151846020015185604001516040516020016101fb93929190612dd7565b60408051808303601f190181529082905280516020918201208551519093506000926102279201612c19565b60408051808303601f1901815290829052805160209182012086820151519093506000926102559201612c19565b60405160208183030381529060405280519060200120905060006040518060a001604052808d81526020018960006002811061028d57fe5b60200201511515815260200185815260200188608001518960600151896000600281106102b657fe5b6020020151602001516040516020016102d193929190612daa565b604051602081830303815290604052805190602001208152602001848152506040516020016103009190612d68565b60405160208183030381529060405280519060200120905060006040518060a001604052808d81526020018a60016002811061033857fe5b60200201511515815260200186815260200189608001518a606001518a60016002811061036157fe5b60200201516020015160405160200161037c93929190612daa565b604051602081830303815290604052805190602001208152602001848152506040516020016103ab9190612d68565b6040516020818303038152906040528051906020012090506103fc6040518060a001604052808f81526020018d81526020018481526020018c6001600160a01b031681526020018681525086610c1c565b896001600160a01b031661041e82886000015189602001518a60400151610c4d565b6001600160a01b0316146104445760405162461bcd60e51b81526004016101cf90612cda565b61044e858e610d0f565b50505050505050505050505050565b60006020819052908152604090205481565b60d081901c9160a082901c9190565b60008360000151846020015185604001516040516020016104a193929190612dd7565b60408051808303601f190181529082905280516020918201208551519093506000926104cd9201612c19565b60408051808303601f1901815290829052805160209182012086820151519093506000926104fb9201612c19565b60405160208183030381529060405280519060200120905060006040518060a001604052808c81526020018960006002811061053357fe5b602002015115158152602001858152602001886080015189606001518960006002811061055c57fe5b60200201516020015160405160200161057793929190612daa565b604051602081830303815290604052805190602001208152602001848152506040516020016105a69190612d68565b60405160208183030381529060405280519060200120905060006040518060a001604052808d60010181526020018a6001600281106105e157fe5b60200201511515815260200186815260200189608001518a606001518a60016002811061060a57fe5b60200201516020015160405160200161062593929190612daa565b604051602081830303815290604052805190602001208152602001848152506040516020016106549190612d68565b6040516020818303038152906040528051906020012090506106a56040518060a001604052808e81526020018d81526020018481526020018c6001600160a01b031681526020018681525086610c1c565b6020880151805160018e01816106b757fe5b06815181106106c257fe5b60200260200101516001600160a01b03166106eb82886000015189602001518a60400151610c4d565b6001600160a01b0316146107115760405162461bcd60e51b81526004016101cf90612d3a565b61072a8860200151518a898f6001018c60600151610da1565b61073357600080fd5b610740858d600101610d0f565b505050505050505050505050565b600087600001518860200151896040015160405160200161077193929190612dd7565b6040516020818303038152906040528051906020012090506107938282610c1c565b6107af8965ffffffffffff16878a60200151848b888a8c610f6c565b505050505050505050565b4284106107d95760405162461bcd60e51b81526004016101cf90612d0a565b6000816040516020016107ec9190612c19565b60405160208183030381529060405280519060200120905061084f6040518060a00160405280888152602001878152602001868152602001856001600160a01b03168152602001838152506000808a8152602001908152602001600020546110d1565b61086b5760405162461bcd60e51b81526004016101cf90612c5a565b6060828060200190516108819190810190611c36565b905060005b81518110156107af5781818151811061089b57fe5b6020026020010151600001516001600160a01b031663a3c863a38a8484815181106108c257fe5b6020026020010151602001516040516108db9190612b8d565b6040519081900381206001600160e01b031960e085901b1682526109029291600401612bc9565b602060405180830381600087803b15801561091c57600080fd5b505af1158015610930573d6000803e3d6000fd5b505050506040513d601f19601f820116820180604052506109549190810190611c6a565b61095d57600080fd5b600101610886565b600087600001518860200151896040015160405160200161098893929190612dd7565b6040516020818303038152906040528051906020012090506109aa82826110e7565b6109b5828289611121565b6109cc8765ffffffffffff168787848c8989611158565b506109df818865ffffffffffff16610d0f565b5050505050505050565b6000876000015188602001518960400151604051602001610a0c93929190612dd7565b6040516020818303038152906040528051906020012090508865ffffffffffff16871015610a4c5760405162461bcd60e51b81526004016101cf90612c9a565b610a5689826111be565b6000610a67888888858d8a8a611158565b90506000610aab8984604051602001610a81929190612e06565b60405160208183030381529060405280519060200120856000015186602001518760400151610c4d565b9050610abb818b60200151611249565b610ad75760405162461bcd60e51b81526004016101cf90612c6a565b827f73718963703f2a92a00efa4689fad2aa953238eec05613b055fb61c8b020298a8a8c6080015142018460008c60ff16118f8e604051610b1d96959493929190612e32565b60405180910390a2610ba46040518060a001604052808b81526020018c6080015142018152602001848152602001836001600160a01b031681526020018a60018c510381518110610b6a57fe5b602002602001015160000151604051602001610b869190612c19565b6040516020818303038152906040528051906020012081525061129f565b6000938452602084905260409093209290925550505050505050505050565b6000866000015187602001518860400151604051602001610be693929190612dd7565b604051602081830303815290604052805190602001209050610c0889826111be565b6107af88858960200151848a8a888a610f6c565b610c2682826112ef565b42826020015111610c495760405162461bcd60e51b81526004016101cf90612c4a565b5050565b6000806040518060400160405280601c81526020017f19457468657265756d205369676e6564204d6573736167653a0a33320000000081525086604051602001610c98929190612b99565b604051602081830303815290604052805190602001209050600060018287878760405160008152602001604052604051610cd59493929190612be4565b6020604051602081039080840390855afa158015610cf7573d6000803e3d6000fd5b5050604051601f19015193505050505b949350505050565b610d4f6040518060a00160405280838152602001600081526020016000801b815260200160006001600160a01b031681526020016000801b81525061129f565b60008084815260200190815260200160002081905550817f2ff6470ce30fcc0614d5df9c8e95c4eba98f897746ff8eecf708eec7b105090282604051610d959190612bbb565b60405180910390a25050565b602084015160009015610e0357835151604051610dbe9190612b8d565b6040519081900381206020860151519091610dd99190612b8d565b604051809103902014610dfe5760405162461bcd60e51b81526004016101cf90612cca565b610f5f565b845115610e225760405162461bcd60e51b81526004016101cf90612cba565b856002028311610ed157835151604051610e3c9190612b8d565b6040519081900381206020860151519091610e579190612b8d565b604051809103902014610e7c5760405162461bcd60e51b81526004016101cf90612c8a565b835160200151604051610e8f9190612b8d565b60405190819003812060208087015101519091610eac9190612b8d565b604051809103902014610dfe5760405162461bcd60e51b81526004016101cf90612c2a565b835160208501516040516395127f9960e01b81526001600160a01b038516926395127f9992610f069288908c90600401612d76565b60206040518083038186803b158015610f1e57600080fd5b505afa158015610f32573d6000803e3d6000fd5b505050506040513d601f19601f82011682018060405250610f569190810190611c6a565b610f5f57600080fd5b5060015b95945050505050565b60608760ff16604051908082528060200260200182016040528015610f9b578160200160208202803883390190505b50905060005b8860ff16811015611025576040518060a001604052808a60ff16836001018d0103815260200160011515815260200188815260200187815260200186815250604051602001610ff09190612d68565b6040516020818303038152906040528051906020012082828151811061101257fe5b6020908102919091010152600101610fa1565b506110338988838686611325565b61104f5760405162461bcd60e51b81526004016101cf90612c7a565b61108c6040518060a00160405280600081526020014281526020016000801b815260200160006001600160a01b031681526020018681525061129f565b60008781526020819052604080822092909255905187917f3e659e9176c25a527f4575e010a270b3e1f8e9d1e94f5e49d4a91dd2c59e8cf891a2505050505050505050565b6000816110dd8461129f565b1490505b92915050565b602082015115806110fb5750428260200151115b6111175760405162461bcd60e51b81526004016101cf90612cfa565b610c4982826112ef565b61112b83836112ef565b825165ffffffffffff8216116111535760405162461bcd60e51b81526004016101cf90612c3a565b505050565b60006060611169898989898961142f565b905061117c898660200151838787611325565b6111985760405162461bcd60e51b81526004016101cf90612c7a565b806001825103815181106111a857fe5b6020026020010151915050979650505050505050565b600081815260208190526040902054158061122d575061121c6040518060a001604052808465ffffffffffff168152602001600081526020016000801b815260200160006001600160a01b031681526020016000801b81525061129f565b600082815260208190526040902054145b610c495760405162461bcd60e51b81526004016101cf90612d4a565b6000805b82518110156112955782818151811061126257fe5b60200260200101516001600160a01b0316846001600160a01b0316141561128d5760019150506110e1565b60010161124d565b5060009392505050565b805160208083015160405160009360d01b60a092831b17926112c391869101612d5a565b60408051601f1981840301815291905280516020909101206001600160a01b0316919091179392505050565b6000818152602081905260409020546113099083906110d1565b610c495760405162461bcd60e51b81526004016101cf90612cea565b83518351600091906113398489848461161a565b6113555760405162461bcd60e51b81526004016101cf90612d1a565b60005b828110156114205760006113dc8887848151811061137257fe5b602002602001015160ff168151811061138757fe5b602002602001015188848151811061139b57fe5b6020026020010151600001518985815181106113b357fe5b6020026020010151602001518a86815181106113cb57fe5b602002602001015160400151610c4d565b90508882815181106113ea57fe5b60200260200101516001600160a01b0316816001600160a01b031614611417576000945050505050610f63565b50600101611358565b50600198975050505050505050565b606080855160405190808252806020026020018201604052801561145d578160200160208202803883390190505b50905060005b865181101561160f576040518060a001604052808851838b010360010181526020018760ff16895103831115158152602001868152602001856080015186606001518a85815181106114b157fe5b6020026020010151602001516040516020016114cf93929190612daa565b6040516020818303038152906040528051906020012081526020018883815181106114f657fe5b6020026020010151600001516040516020016115129190612c19565b6040516020818303038152906040528051906020012081525060405160200161153b9190612d68565b6040516020818303038152906040528051906020012082828151811061155d57fe5b60200260200101818152505086518160010114611607576115fe84602001515160405180604001604052808960ff168b510385111515151581526020018960ff168b510385600101111515151581525060405180604001604052808b86815181106115c457fe5b602002602001015181526020018b86600101815181106115e057fe5b60200260200101518152508a51858d01036002018860600151610da1565b61160757600080fd5b600101611463565b509695505050505050565b60008285511461163c5760405162461bcd60e51b81526004016101cf90612caa565b60005b83811015610f5f5760008482878701038161165657fe5b069050600184038188848151811061166a57fe5b602002602001015160ff1601101561168757600092505050610d07565b5060010161163f565b80356110e181612fd5565b80516110e181612fd5565b600082601f8301126116b757600080fd5b81356116ca6116c582612ee7565b612ec1565b915081818352602084019350602081019050838560208402820111156116ef57600080fd5b60005b8381101561171b57816117058882611690565b84525060209283019291909101906001016116f2565b5050505092915050565b600082601f83011261173657600080fd5b60026117446116c582612f07565b9150818385602084028201111561175a57600080fd5b60005b8381101561171b57816117708882611974565b845250602092830192919091019060010161175d565b600082601f83011261179757600080fd5b81516117a56116c582612ee7565b81815260209384019390925082018360005b8381101561171b57815186016117cd8882611aff565b84525060209283019291909101906001016117b7565b600082601f8301126117f457600080fd5b81356118026116c582612ee7565b9150818183526020840193506020810190508385606084028201111561182757600080fd5b60005b8381101561171b578161183d8882611b5d565b8452506020909201916060919091019060010161182a565b600082601f83011261186657600080fd5b60026118746116c582612f07565b9150818360005b8381101561171b57813586016118918882611bb8565b845250602092830192919091019060010161187b565b600082601f8301126118b857600080fd5b81356118c66116c582612ee7565b81815260209384019390925082018360005b8381101561171b57813586016118ee8882611bb8565b84525060209283019291909101906001016118d8565b600082601f83011261191557600080fd5b81356119236116c582612ee7565b9150818183526020840193506020810190508385602084028201111561194857600080fd5b60005b8381101561171b578161195e8882611c2b565b845250602092830192919091019060010161194b565b80356110e181612fec565b80516110e181612fec565b80356110e181612ff5565b600082601f8301126119a657600080fd5b81356119b46116c582612f24565b915080825260208301602083018583830111156119d057600080fd5b6119db838284612f93565b50505092915050565b600082601f8301126119f557600080fd5b8151611a036116c582612f24565b91508082526020830160208301858383011115611a1f57600080fd5b6119db838284612f9f565b600060a08284031215611a3c57600080fd5b611a4660a0612ec1565b90506000611a54848461198a565b8252506020611a658484830161198a565b6020830152506040611a798482850161198a565b6040830152506060611a8d84828501611690565b6060830152506080611aa18482850161198a565b60808301525092915050565b600060a08284031215611abf57600080fd5b611ac960a0612ec1565b90506000611ad7848461198a565b82525060208201356001600160401b03811115611af357600080fd5b611a65848285016116a6565b600060408284031215611b1157600080fd5b611b1b6040612ec1565b90506000611b29848461169b565b82525060208201516001600160401b03811115611b4557600080fd5b611b51848285016119e4565b60208301525092915050565b600060608284031215611b6f57600080fd5b611b796060612ec1565b90506000611b878484611c2b565b8252506020611b988484830161198a565b6020830152506040611bac8482850161198a565b60408301525092915050565b600060408284031215611bca57600080fd5b611bd46040612ec1565b905081356001600160401b03811115611bec57600080fd5b611bf884828501611995565b82525060208201356001600160401b03811115611c1457600080fd5b611b5184828501611995565b80356110e181612ffe565b80356110e181613007565b600060208284031215611c4857600080fd5b81516001600160401b03811115611c5e57600080fd5b610d0784828501611786565b600060208284031215611c7c57600080fd5b6000610d07848461197f565b600060208284031215611c9a57600080fd5b6000610d07848461198a565b60008060008060008060c08789031215611cbf57600080fd5b6000611ccb898961198a565b9650506020611cdc89828a0161198a565b9550506040611ced89828a0161198a565b9450506060611cfe89828a0161198a565b9350506080611d0f89828a01611690565b92505060a08701356001600160401b03811115611d2b57600080fd5b611d3789828a01611995565b9150509295509295509295565b6000806000806000806000610160888a031215611d6057600080fd5b87356001600160401b03811115611d7657600080fd5b611d828a828b01611aad565b9750506020611d938a828b01611c20565b96505060408801356001600160401b03811115611daf57600080fd5b611dbb8a828b016118a7565b9550506060611dcc8a828b01611c2b565b94505060808801356001600160401b03811115611de857600080fd5b611df48a828b016117e3565b93505060a08801356001600160401b03811115611e1057600080fd5b611e1c8a828b01611904565b92505060c0611e2d8a828b01611a2a565b91505092959891949750929550565b6000806000806000806000610140888a031215611e5857600080fd5b6000611e648a8a61198a565b9750506020611e758a828b0161198a565b9650506040611e868a828b01611690565b9550506060611e978a828b01611725565b94505060a08801356001600160401b03811115611eb357600080fd5b611ebf8a828b01611aad565b93505060c08801356001600160401b03811115611edb57600080fd5b611ee78a828b01611855565b92505060e0611e2d8a828b01611b5d565b600080600080600080600080610160898b031215611f1557600080fd5b6000611f218b8b61198a565b9850506020611f328b828c0161198a565b9750506040611f438b828c0161198a565b9650506060611f548b828c01611690565b9550506080611f658b828c01611725565b94505060c08901356001600160401b03811115611f8157600080fd5b611f8d8b828c01611aad565b93505060e08901356001600160401b03811115611fa957600080fd5b611fb58b828c01611855565b925050610100611fc78b828c01611b5d565b9150509295985092959890939650565b600080600080600080600080610180898b031215611ff457600080fd5b60006120008b8b611c20565b98505060208901356001600160401b0381111561201c57600080fd5b6120288b828c01611aad565b97505060406120398b828c0161198a565b965050606061204a8b828c01611c2b565b95505060808901356001600160401b0381111561206657600080fd5b6120728b828c01611904565b94505060a08901356001600160401b0381111561208e57600080fd5b61209a8b828c016117e3565b93505060c06120ab8b828c0161198a565b92505060e0611fc78b828c01611a2a565b600080600080600080600080610140898b0312156120d957600080fd5b60006120e58b8b611c20565b98505060208901356001600160401b0381111561210157600080fd5b61210d8b828c01611aad565b975050604061211e8b828c0161198a565b96505060608901356001600160401b0381111561213a57600080fd5b6121468b828c016118a7565b95505060806121578b828c01611c2b565b94505060a08901356001600160401b0381111561217357600080fd5b61217f8b828c016117e3565b93505060c08901356001600160401b0381111561219b57600080fd5b6121a78b828c01611904565b92505060e0611fc78b828c01611b5d565b600080600080600080600080610100898b0312156121d557600080fd5b60006121e18b8b611c20565b98505060206121f28b828c0161198a565b97505060408901356001600160401b0381111561220e57600080fd5b61221a8b828c01611aad565b965050606061222b8b828c0161198a565b955050608061223c8b828c0161198a565b94505060a061224d8b828c01611c2b565b93505060c08901356001600160401b0381111561226957600080fd5b6122758b828c01611904565b92505060e08901356001600160401b0381111561229157600080fd5b611fc78b828c016117e3565b60006122a983836122c4565b505060200190565b60006122bd8383612b40565b9392505050565b6122cd81612f63565b82525050565b60006122de82612f51565b6122e88185612f55565b93506122f383612f4b565b8060005b8381101561232157815161230b888261229d565b975061231683612f4b565b9250506001016122f7565b509495945050505050565b600061233782612f51565b6123418185612f55565b935061234c83612f4b565b8060005b83811015612321578151612364888261229d565b975061236f83612f4b565b925050600101612350565b600061238582612f51565b61238f8185612f55565b9350836020820285016123a185612f4b565b8060005b858110156123db57848403895281516123be85826122b1565b94506123c983612f4b565b60209a909a01999250506001016123a5565b5091979650505050505050565b6122cd81612f6e565b6122cd81612f73565b6122cd61240682612f73565b612f73565b600061241682612f51565b6124208185612f55565b9350612430818560208601612f9f565b61243981612fcb565b9093019392505050565b600061244e82612f51565b6124588185612f5e565b9350612468818560208601612f9f565b9290920192915050565b600061247f604483612f55565b7f496e76616c69645472616e736974696f6e4572726f723a2043616e6e6f74206381527f68616e676520746865206170704461746120647572696e6720736574757020706020820152636861736560e01b604082015260600192915050565b60006124eb601c83612f55565b7f7475726e4e756d5265636f7264206e6f7420696e637265617365642e00000000815260200192915050565b6000612524602183612f55565b7f4368616c6c656e67652065787069726564206f72206e6f742070726573656e748152601760f91b602082015260400192915050565b6000612567602583612f55565b7f5375626d6974746564206461746120646f6573206e6f74206d617463682073748152646f7261676560d81b602082015260400192915050565b60006125ae601f83612f55565b7f4368616c6c656e676572206973206e6f742061207061727469636970616e7400815260200192915050565b60006125e7601283612f55565b71496e76616c6964207369676e61747572657360701b815260200192915050565b6000612615604c83612f55565b7f496e76616c69645472616e736974696f6e4572726f723a2043616e6e6f74206381527f68616e6765207468652064656661756c74206f7574636f6d6520647572696e6760208201526b20736574757020706861736560a01b604082015260600192915050565b6000612689601083612f55565b6f5374616c65206368616c6c656e67652160801b815260200192915050565b60006126b5604783612f55565b7f5f76616c69645369676e6174757265733a2077686f5369676e6564576861742081527f6d757374206265207468652073616d65206c656e677468206173207061727469602082015266636970616e747360c81b604082015260600192915050565b6000612724600983612f55565b68666f7263654d6f766560b81b815260200192915050565b6000612749604b83612f55565b7f496e76616c69645472616e736974696f6e4572726f723a2043616e6e6f74206d81527f6f76652066726f6d20612066696e616c20737461746520746f2061206e6f6e2060208201526a66696e616c20737461746560a81b604082015260600192915050565b60006127bc605583612f55565b7f496e76616c69645472616e736974696f6e4572726f723a2043616e6e6f74206d81527f6f766520746f20612066696e616c2073746174652077697468206120646966666020820152746572656e742064656661756c74206f7574636f6d6560581b604082015260600192915050565b6000612839602983612f55565b7f52656675746174696f6e207374617465206e6f74207369676e656420627920638152683430b63632b733b2b960b91b602082015260400192915050565b6000612884602e83612f55565b7f4368616e6e656c2073746f7261676520646f6573206e6f74206d61746368207381526d3a37b932b2103b32b939b4b7b71760911b602082015260400192915050565b60006128d4601183612f55565b7010da185b1b195b99d948195e1c1a5c9959607a1b815260200192915050565b6000612901601483612f55565b7313dd5d18dbdb59481a5cc81b9bdd08199a5b985b60621b815260200192915050565b6000612931602083612f55565b7f556e61636365707461626c652077686f5369676e656457686174206172726179815260200192915050565b600061296a602f83612f55565b7f52656675746174696f6e207374617465206d757374206861766520612068696781526e3432b9103a3ab93710373ab6b132b960891b602082015260400192915050565b60006129bb602783612f55565b7f526573706f6e7365206e6f74207369676e656420627920617574686f72697a65815266321036b7bb32b960c91b602082015260400192915050565b6000612a04601183612f55565b7021b430b73732b6103737ba1037b832b71760791b815260200192915050565b805160a0830190612a3584826123f1565b506020820151612a4860208501826123f1565b506040820151612a5b60408501826123f1565b506060820151612a6e60608501826122c4565b506080820151612a8160808501826123f1565b50505050565b805160009060a0840190612a9b85826123f1565b5060208301518482036020860152612ab382826122d3565b9150506040830151612ac860408601826123f1565b506060830151612adb60608601826122c4565b506080830151612aee60808601826123f1565b509392505050565b805160a0830190612b0784826123f1565b506020820151612b1a60208501826123e8565b506040820151612b2d60408501826123f1565b506060820151612a6e60608501826123f1565b8051604080845260009190840190612b58828261240b565b91505060208301518482036020860152610f63828261240b565b6122cd81612f76565b6122cd81612f82565b6122cd81612f8d565b60006122bd8284612443565b6000612ba58285612443565b9150612bb182846123fa565b5060200192915050565b602081016110e182846123f1565b60408101612bd782856123f1565b6122bd60208301846123f1565b60808101612bf282876123f1565b612bff6020830186612b84565b612c0c60408301856123f1565b610f6360608301846123f1565b602080825281016122bd818461240b565b602080825281016110e181612472565b602080825281016110e1816124de565b602080825281016110e181612517565b602080825281016110e18161255a565b602080825281016110e1816125a1565b602080825281016110e1816125da565b602080825281016110e181612608565b602080825281016110e18161267c565b602080825281016110e1816126a8565b602080825281016110e18161273c565b602080825281016110e1816127af565b602080825281016110e18161282c565b602080825281016110e181612877565b602080825281016110e1816128c7565b602080825281016110e1816128f4565b602080825281016110e181612924565b602080825281016110e18161295d565b602080825281016110e1816129ae565b602080825281016110e1816129f7565b60a081016110e18284612a24565b60a081016110e18284612af6565b60808082528101612d878187612b40565b90508181036020830152612d9b8186612b40565b9050612c0c60408301856123f1565b60608101612db882866123f1565b612dc560208301856122c4565b8181036040830152610f63818461240b565b60608101612de582866123f1565b8181036020830152612df7818561232c565b9050610d0760408301846123f1565b60608101612e1482856123f1565b612e2160208301846123f1565b8181036040830152610d0781612717565b60c08101612e4082896123f1565b612e4d60208301886123f1565b612e5a60408301876122c4565b612e6760608301866123e8565b8181036080830152612e798185612a87565b905081810360a0830152612e8d818461237a565b98975050505050505050565b60608101612ea78286612b7b565b612eb46020830185612b7b565b610d076040830184612b72565b6040518181016001600160401b0381118282101715612edf57600080fd5b604052919050565b60006001600160401b03821115612efd57600080fd5b5060209081020190565b60006001600160401b03821115612f1d57600080fd5b5060200290565b60006001600160401b03821115612f3a57600080fd5b506020601f91909101601f19160190565b60200190565b5190565b90815260200190565b919050565b60006110e182612f76565b151590565b90565b6001600160a01b031690565b65ffffffffffff1690565b60ff1690565b82818337506000910152565b60005b83811015612fba578181015183820152602001612fa2565b83811115612a815750506000910152565b601f01601f191690565b612fde81612f63565b8114612fe957600080fd5b50565b612fde81612f6e565b612fde81612f73565b612fde81612f82565b612fde81612f8d56fea365627a7a72315820757082b5bf8ff416fbcd5cef8633129354391eae2443e5a94924af90da566cca6c6578706572696d656e74616cf564736f6c634300050b0040",
  "source": "pragma solidity ^0.5.11;\npragma experimental ABIEncoderV2;\n\nimport './ForceMove.sol';\nimport './Outcome.sol';\n\ncontract AssetHolder {\n    // abstraction of the parts of AssetHolder that we need\n    function setAssetOutcomeHash(bytes32 channel, bytes32 outcomeHash) external returns (bool success);\n}\n\ncontract NitroAdjudicator is ForceMove {\n    function pushOutcome(\n        bytes32 channelId,\n        uint256 turnNumRecord,\n        uint256 finalizesAt,\n        bytes32 stateHash,\n        address challengerAddress,\n        bytes memory outcomeBytes\n    ) public {\n        // requirements\n        require(finalizesAt < now, 'Outcome is not final');\n\n        bytes32 outcomeHash = keccak256(abi.encode(outcomeBytes));\n\n        require(\n            _matchesHash(\n                ChannelStorage(\n                    turnNumRecord,\n                    finalizesAt,\n                    stateHash,\n                    challengerAddress,\n                    outcomeHash\n                ),\n                channelStorageHashes[channelId]\n            ),\n            'Submitted data does not match storage'\n        );\n\n        Outcome.OutcomeItem[] memory outcome = abi.decode(outcomeBytes, (Outcome.OutcomeItem[]));\n\n        for (uint256 i = 0; i < outcome.length; i++) {\n            require(\n                AssetHolder(outcome[i].assetHolderAddress).setAssetOutcomeHash(\n                    channelId,\n                    keccak256(outcome[i].assetOutcomeBytes)\n                )\n            );\n        }\n\n    }\n}\n",
  "sourcePath": "nitro-protocol/contracts/NitroAdjudicator.sol",
  "compiler": {
    "name": "solc",
    "version": "0.5.11+commit.c082d0b4.Emscripten.clang"
  },
  "schemaVersion": "3.0.16",
  "updatedAt": "2019-09-25T00:22:28.133Z",
  "devdoc": {
    "methods": {}
  },
  "userdoc": {
    "methods": {}
  }
}