{
  "address": "0x64532D65AE883B2Ae0b24b14c4F75f29695b61f6",
  "abi": [
    {
      "inputs": [
        {
          "internalType": "address",
          "name": "_AdjudicatorAddress",
          "type": "address"
        },
        {
          "internalType": "address",
          "name": "_TokenAddress",
          "type": "address"
        }
      ],
      "stateMutability": "nonpayable",
      "type": "constructor"
    },
    {
      "anonymous": false,
      "inputs": [
        {
          "indexed": true,
          "internalType": "bytes32",
          "name": "channelId",
          "type": "bytes32"
        },
        {
          "indexed": true,
          "internalType": "bytes32",
          "name": "destination",
          "type": "bytes32"
        },
        {
          "indexed": false,
          "internalType": "uint256",
          "name": "amount",
          "type": "uint256"
        }
      ],
      "name": "AssetTransferred",
      "type": "event"
    },
    {
      "anonymous": false,
      "inputs": [
        {
          "indexed": true,
          "internalType": "bytes32",
          "name": "destination",
          "type": "bytes32"
        },
        {
          "indexed": false,
          "internalType": "uint256",
          "name": "amountDeposited",
          "type": "uint256"
        },
        {
          "indexed": false,
          "internalType": "uint256",
          "name": "destinationHoldings",
          "type": "uint256"
        }
      ],
      "name": "Deposited",
      "type": "event"
    },
    {
      "inputs": [],
      "name": "AdjudicatorAddress",
      "outputs": [
        {
          "internalType": "address",
          "name": "",
          "type": "address"
        }
      ],
      "stateMutability": "view",
      "type": "function"
    },
    {
      "inputs": [],
      "name": "Token",
      "outputs": [
        {
          "internalType": "contract IERC20",
          "name": "",
          "type": "address"
        }
      ],
      "stateMutability": "view",
      "type": "function"
    },
    {
      "inputs": [
        {
          "internalType": "bytes32",
          "name": "",
          "type": "bytes32"
        }
      ],
      "name": "assetOutcomeHashes",
      "outputs": [
        {
          "internalType": "bytes32",
          "name": "",
          "type": "bytes32"
        }
      ],
      "stateMutability": "view",
      "type": "function"
    },
    {
      "inputs": [
        {
          "internalType": "bytes32",
          "name": "guarantorChannelId",
          "type": "bytes32"
        },
        {
          "internalType": "bytes",
          "name": "guaranteeBytes",
          "type": "bytes"
        },
        {
          "internalType": "bytes",
          "name": "allocationBytes",
          "type": "bytes"
        }
      ],
      "name": "claimAll",
      "outputs": [],
      "stateMutability": "nonpayable",
      "type": "function"
    },
    {
      "inputs": [
        {
          "internalType": "bytes32",
          "name": "destination",
          "type": "bytes32"
        },
        {
          "internalType": "uint256",
          "name": "expectedHeld",
          "type": "uint256"
        },
        {
          "internalType": "uint256",
          "name": "amount",
          "type": "uint256"
        }
      ],
      "name": "deposit",
      "outputs": [],
      "stateMutability": "nonpayable",
      "type": "function"
    },
    {
      "inputs": [
        {
          "internalType": "bytes32",
          "name": "",
          "type": "bytes32"
        }
      ],
      "name": "holdings",
      "outputs": [
        {
          "internalType": "uint256",
          "name": "",
          "type": "uint256"
        }
      ],
      "stateMutability": "view",
      "type": "function"
    },
    {
      "inputs": [
        {
          "internalType": "bytes32",
          "name": "channelId",
          "type": "bytes32"
        },
        {
          "internalType": "bytes32",
          "name": "assetOutcomeHash",
          "type": "bytes32"
        }
      ],
      "name": "setAssetOutcomeHash",
      "outputs": [
        {
          "internalType": "bool",
          "name": "success",
          "type": "bool"
        }
      ],
      "stateMutability": "nonpayable",
      "type": "function"
    },
    {
      "inputs": [
        {
          "internalType": "bytes32",
          "name": "fromChannelId",
          "type": "bytes32"
        },
        {
          "internalType": "bytes",
          "name": "allocationBytes",
          "type": "bytes"
        },
        {
          "internalType": "bytes32",
          "name": "destination",
          "type": "bytes32"
        }
      ],
      "name": "transfer",
      "outputs": [],
      "stateMutability": "nonpayable",
      "type": "function"
    },
    {
      "inputs": [
        {
          "internalType": "bytes32",
          "name": "channelId",
          "type": "bytes32"
        },
        {
          "internalType": "bytes",
          "name": "allocationBytes",
          "type": "bytes"
        }
      ],
      "name": "transferAll",
      "outputs": [],
      "stateMutability": "nonpayable",
      "type": "function"
    },
    {
      "inputs": [
        {
          "internalType": "bytes32",
          "name": "channelId",
          "type": "bytes32"
        },
        {
          "internalType": "bytes",
          "name": "allocationBytes",
          "type": "bytes"
        }
      ],
      "name": "transferAllAdjudicatorOnly",
      "outputs": [],
      "stateMutability": "nonpayable",
      "type": "function"
    }
  ],
  "transactionHash": "0xc2229285e9146a00b5584d6655d715f3e3368318af042d8c62b032dd7894717b",
  "args": [
    "0x1d25Bbf952781e0c75d248904B5422FeE9FcA558",
    "0x730CC2b9983f6F671a63BF174ad93944f7BD466E"
  ],
  "solcInputHash": "07c8efabe936280cd467aa2047e8befa",
  "bytecode": "0x60806040523480156200001157600080fd5b5060405162002e1138038062002e118339818101604052810190620000379190620000d7565b816000806101000a81548173ffffffffffffffffffffffffffffffffffffffff021916908373ffffffffffffffffffffffffffffffffffffffff16021790555080600360006101000a81548173ffffffffffffffffffffffffffffffffffffffff021916908373ffffffffffffffffffffffffffffffffffffffff160217905550505062000166565b600081519050620000d1816200014c565b92915050565b60008060408385031215620000eb57600080fd5b6000620000fb85828601620000c0565b92505060206200010e85828601620000c0565b9150509250929050565b600062000125826200012c565b9050919050565b600073ffffffffffffffffffffffffffffffffffffffff82169050919050565b620001578162000118565b81146200016357600080fd5b50565b612c9b80620001766000396000f3fe608060405234801561001057600080fd5b506004361061009e5760003560e01c8063aa5f665511610066578063aa5f665514610143578063ae9ee18c14610161578063c241267614610191578063f1c9caf2146101af578063ff860976146101cb5761009e565b8063022cbbe8146100a3578063278f2ab8146100bf5780632e36b7f8146100db578063a3c041a1146100f7578063a3c863a314610113575b600080fd5b6100bd60048036038101906100b89190611e19565b6101fb565b005b6100d960048036038101906100d49190611fab565b6102dc565b005b6100f560048036038101906100f09190611e71565b61059e565b005b610111600480360381019061010c9190611ec5565b61064a565b005b61012d60048036038101906101289190611ddd565b6106f8565b60405161013a91906127a1565b60405180910390f35b61014b61079d565b6040516101589190612704565b60405180910390f35b61017b60048036038101906101769190611db4565b6107c1565b60405161018891906129b6565b60405180910390f35b6101996107d9565b6040516101a691906127d7565b60405180910390f35b6101c960048036038101906101c49190611f2c565b6107ff565b005b6101e560048036038101906101e09190611db4565b610f77565b6040516101f291906127bc565b60405180910390f35b60008054906101000a900473ffffffffffffffffffffffffffffffffffffffff1673ffffffffffffffffffffffffffffffffffffffff163373ffffffffffffffffffffffffffffffffffffffff1614610289576040517f08c379a000000000000000000000000000000000000000000000000000000000815260040161028090612974565b60405180910390fd5b6102d78383838080601f016020809104026020016040519081016040528093929190818152602001838380828437600081840152601f19601f82011690508083019250505050505050610f8f565b505050565b6102e583611374565b15610325576040517f08c379a000000000000000000000000000000000000000000000000000000000815260040161031c90612894565b60405180910390fd5b6000826001600086815260200190815260200160002054101561037d576040517f08c379a000000000000000000000000000000000000000000000000000000000815260040161037490612854565b60405180910390fd5b610390828461139190919063ffffffff16565b6001600086815260200190815260200160002054106103e4576040517f08c379a00000000000000000000000000000000000000000000000000000000081526004016103db90612914565b60405180910390fd5b61041c600160008681526020019081526020016000205461040e848661139190919063ffffffff16565b6113e690919063ffffffff16565b9050600360009054906101000a900473ffffffffffffffffffffffffffffffffffffffff1673ffffffffffffffffffffffffffffffffffffffff166323b872dd3330846040518463ffffffff1660e01b815260040161047d9392919061271f565b602060405180830381600087803b15801561049757600080fd5b505af11580156104ab573d6000803e3d6000fd5b505050506040513d601f19601f820116820180604052508101906104cf9190611d8b565b61050e576040517f08c379a0000000000000000000000000000000000000000000000000000000008152600401610505906128d4565b60405180910390fd5b61053481600160008781526020019081526020016000205461139190919063ffffffff16565b6001600086815260200190815260200160002081905550837fb39477ecc06c5293391f8b73168b655d9c1310af93dbbf043187d79f881bbb8f8260016000888152602001908152602001600020546040516105909291906129d1565b60405180910390a250505050565b6040518060400160405280600060018111156105b657fe5b60ff168152602001828152506040516020016105d29190612994565b6040516020818303038152906040528051906020012060026000848152602001908152602001600020541461063c576040517f08c379a000000000000000000000000000000000000000000000000000000000815260040161063390612814565b60405180910390fd5b6106468282610f8f565b5050565b60405180604001604052806000600181111561066257fe5b60ff1681526020018381525060405160200161067e9190612994565b604051602081830303815290604052805190602001206002600085815260200190815260200160002054146106e8576040517f08c379a00000000000000000000000000000000000000000000000000000000081526004016106df906128b4565b60405180910390fd5b6106f3838383611430565b505050565b60008060009054906101000a900473ffffffffffffffffffffffffffffffffffffffff1673ffffffffffffffffffffffffffffffffffffffff163373ffffffffffffffffffffffffffffffffffffffff1614610789576040517f08c379a000000000000000000000000000000000000000000000000000000000815260040161078090612974565b60405180910390fd5b61079383836118c3565b6001905092915050565b60008054906101000a900473ffffffffffffffffffffffffffffffffffffffff1681565b60016020528060005260406000206000915090505481565b600360009054906101000a900473ffffffffffffffffffffffffffffffffffffffff1681565b604051806040016040528060018081111561081657fe5b60ff168152602001838152506040516020016108329190612994565b6040516020818303038152906040528051906020012060026000858152602001908152602001600020541461089c576040517f08c379a000000000000000000000000000000000000000000000000000000000815260040161089390612954565b60405180910390fd5b6108a4611a53565b828060200190518101906108b89190611ffa565b90506040518060400160405280600060018111156108d257fe5b60ff168152602001838152506040516020016108ee9190612994565b604051602081830303815290604052805190602001206002600083600001518152602001908152602001600020541461095c576040517f08c379a000000000000000000000000000000000000000000000000000000000815260040161095390612874565b60405180910390fd5b60006001600086815260200190815260200160002054905060608380602001905181019061098a9190611d4a565b90506060815167ffffffffffffffff811180156109a657600080fd5b506040519080825280602002602001820160405280156109d55781602001602082028036833780820191505090505b50905060008251905060005b856020015151811015610b5357600086602001518281518110610a0057fe5b6020026020010151905060005b8551811015610b44576000871415610a2457610b44565b858181518110610a3057fe5b602002602001015160000151821415610b37576000868281518110610a5157fe5b60200260200101516020015190506000811115610b3557808810610add57610a8281896113e690919063ffffffff16565b97506000878381518110610a9257fe5b60200260200101516020018181525050610ab66001866113e690919063ffffffff16565b945080868381518110610ac557fe5b60200260200101818151019150818152505050610b44565b610af088826113e690919063ffffffff16565b878381518110610afc57fe5b6020026020010151602001818152505087868381518110610b1957fe5b6020026020010181815101915081815250506000975050610b44565b505b8080600101915050610a0d565b505080806001019150506109e1565b5060005b8351811015610c69576000851415610b6e57610c69565b6000848281518110610b7c57fe5b60200260200101516020015190506000811115610c5b57808610610c0757610bad81876113e690919063ffffffff16565b95506000858381518110610bbd57fe5b60200260200101516020018181525050610be16001846113e690919063ffffffff16565b925080848381518110610bf057fe5b602002602001018181510191508181525050610c5a565b610c1a86826113e690919063ffffffff16565b858381518110610c2657fe5b6020026020010151602001818152505085848381518110610c4357fe5b602002602001018181510191508181525050600095505b5b508080600101915050610b57565b5083600160008a81526020019081526020016000208190555060606000821115610ce2578167ffffffffffffffff81118015610ca457600080fd5b50604051908082528060200260200182016040528015610cde57816020015b610ccb611a70565b815260200190600190039081610cc35790505b5090505b6000805b8551811015610d50576000868281518110610cfd57fe5b6020026020010151602001511115610d4357858181518110610d1b57fe5b6020026020010151838381518110610d2f57fe5b602002602001018190525081806001019250505b8080600101915050610ce6565b50828114610d5a57fe5b6000831115610dec57604051806040016040528060006001811115610d7b57fe5b60ff16815260200183604051602001610d94919061277f565b604051602081830303815290604052815250604051602001610db69190612994565b60405160208183030381529060405280519060200120600260008960000151815260200190815260200160002081905550610e1f565b600260008b8152602001908152602001600020600090556002600088600001518152602001908152602001600020600090555b60005b8551811015610f6a576000858281518110610e3957fe5b60200260200101511115610f5d57610e67868281518110610e5657fe5b602002602001015160000151611374565b15610f1057610ea8610e8f878381518110610e7e57fe5b602002602001015160000151611937565b868381518110610e9b57fe5b6020026020010151611944565b858181518110610eb457fe5b6020026020010151600001518b7f1f6b1af341c61650d8ef5dd2094a77e44ce0568e1acb98baa6007033de9009b7878481518110610eee57fe5b6020026020010151604051610f0391906129b6565b60405180910390a3610f5c565b848181518110610f1c57fe5b602002602001015160016000888481518110610f3457fe5b6020026020010151600001518152602001908152602001600020600082825401925050819055505b5b8080600101915050610e22565b5050505050505050505050565b60026020528060005260406000206000915090505481565b606081806020019051810190610fa59190611d4a565b90506000600160008581526020019081526020016000205490506000808351905060008060008060005b8851811015611077576000881415610fe65761106a565b888181518110610ff257fe5b6020026020010151602001519450848810156110355786806001019750506001935087925061102a88866113e690919063ffffffff16565b915060009750611069565b86806001019750506110516001876113e690919063ffffffff16565b955061106685896113e690919063ffffffff16565b97505b5b8080600101915050610fcf565b5086600160008c815260200190815260200160002081905550600085111561120e5760608567ffffffffffffffff811180156110b257600080fd5b506040519080825280602002602001820160405280156110ec57816020015b6110d9611a70565b8152602001906001900390816110d15790505b50905060005b868110156111875789611121826111138a8e516113e690919063ffffffff16565b61139190919063ffffffff16565b8151811061112b57fe5b602002602001015182828151811061113f57fe5b60200260200101819052508480156111575750600081145b1561117a578282828151811061116957fe5b602002602001015160200181815250505b80806001019150506110f2565b506040518060400160405280600060018111156111a057fe5b60ff168152602001826040516020016111b9919061277f565b6040516020818303038152906040528152506040516020016111db9190612994565b60405160208183030381529060405280519060200120600260008d81526020019081526020016000208190555050611226565b600260008b8152602001908152602001600020600090555b600080600090505b878110156113665784801561125557506112526001896113e690919063ffffffff16565b81145b156112625783915061127d565b89818151811061126e57fe5b60200260200101516020015191505b61129d8a828151811061128c57fe5b602002602001015160000151611374565b15611320576112cb6112c58b83815181106112b457fe5b602002602001015160000151611937565b83611944565b8981815181106112d757fe5b6020026020010151600001518c7f1f6b1af341c61650d8ef5dd2094a77e44ce0568e1acb98baa6007033de9009b78460405161131391906129b6565b60405180910390a3611359565b81600160008c848151811061133157fe5b6020026020010151600001518152602001908152602001600020600082825401925050819055505b808060010191505061122e565b505050505050505050505050565b6000808260a01c6bffffffffffffffffffffffff16149050919050565b6000808284019050838110156113dc576040517f08c379a00000000000000000000000000000000000000000000000000000000081526004016113d390612834565b60405180910390fd5b8091505092915050565b600061142883836040518060400160405280601e81526020017f536166654d6174683a207375627472616374696f6e206f766572666c6f7700008152506119f8565b905092915050565b6060828060200190518101906114469190611d4a565b905060006001600086815260200190815260200160002054905060008060008060008091505b86518210156115615760008614156114b9576040517f08c379a00000000000000000000000000000000000000000000000000000000081526004016114b0906128f4565b60405180910390fd5b8682815181106114c557fe5b6020026020010151602001519250878783815181106114e057fe5b602002602001015160000151141561152d578286101561150b57859450858303935060009550611528565b8294506000935061152583876113e690919063ffffffff16565b95505b611561565b8286101561153e5760009550611554565b61155183876113e690919063ffffffff16565b95505b818060010192505061146c565b84600160008c8152602001908152602001600020600082825403925050819055506060600085111561168a576060885167ffffffffffffffff811180156115a757600080fd5b506040519080825280602002602001820160405280156115e157816020015b6115ce611a70565b8152602001906001900390816115c65790505b50905060005b8951811015611665578981815181106115fc57fe5b602002602001015182828151811061161057fe5b60200260200101819052508a8a828151811061162857fe5b6020026020010151600001511415611658578682828151811061164757fe5b602002602001015160200181815250505b80806001019150506115e7565b5080604051602001611677919061277f565b6040516020818303038152906040529150505b60008514156117b2576060600189510367ffffffffffffffff811180156116b057600080fd5b506040519080825280602002602001820160405280156116ea57816020015b6116d7611a70565b8152602001906001900390816116cf5790505b50905060005b848110156117305789818151811061170457fe5b602002602001015182828151811061171857fe5b602002602001018190525080806001019150506116f0565b5060006001850190505b895181101561177e5789818151811061174f57fe5b602002602001015182600183038151811061176657fe5b6020026020010181905250808060010191505061173a565b5060008151141561178e57600192505b8060405160200161179f919061277f565b6040516020818303038152906040529150505b81156117d457600260008c815260200190815260200160002060009055611836565b6040518060400160405280600060018111156117ec57fe5b60ff168152602001828152506040516020016118089190612994565b60405160208183030381529060405280519060200120600260008d8152602001908152602001600020819055505b61183f89611374565b15611894576118566118508a611937565b87611944565b888b7f1f6b1af341c61650d8ef5dd2094a77e44ce0568e1acb98baa6007033de9009b78860405161188791906129b6565b60405180910390a36118b6565b85600160008b8152602001908152602001600020600082825401925050819055505b5050505050505050505050565b6000801b60026000848152602001908152602001600020541461191b576040517f08c379a000000000000000000000000000000000000000000000000000000000815260040161191290612934565b60405180910390fd5b8060026000848152602001908152602001600020819055505050565b60008160001c9050919050565b600360009054906101000a900473ffffffffffffffffffffffffffffffffffffffff1673ffffffffffffffffffffffffffffffffffffffff1663a9059cbb83836040518363ffffffff1660e01b81526004016119a1929190612756565b602060405180830381600087803b1580156119bb57600080fd5b505af11580156119cf573d6000803e3d6000fd5b505050506040513d601f19601f820116820180604052508101906119f39190611d8b565b505050565b6000838311158290611a40576040517f08c379a0000000000000000000000000000000000000000000000000000000008152600401611a3791906127f2565b60405180910390fd5b5060008385039050809150509392505050565b604051806040016040528060008019168152602001606081525090565b604051806040016040528060008019168152602001600081525090565b600082601f830112611a9e57600080fd5b8151611ab1611aac82612a27565b6129fa565b91508181835260208401935060208101905083856020840282011115611ad657600080fd5b60005b83811015611b065781611aec8882611bbd565b845260208401935060208301925050600181019050611ad9565b5050505092915050565b600082601f830112611b2157600080fd5b8151611b34611b2f82612a4f565b6129fa565b91508181835260208401935060208101905083856040840282011115611b5957600080fd5b60005b83811015611b895781611b6f8882611c70565b845260208401935060408301925050600181019050611b5c565b5050505092915050565b600081519050611ba281612c20565b92915050565b600081359050611bb781612c37565b92915050565b600081519050611bcc81612c37565b92915050565b60008083601f840112611be457600080fd5b8235905067ffffffffffffffff811115611bfd57600080fd5b602083019150836001820283011115611c1557600080fd5b9250929050565b600082601f830112611c2d57600080fd5b8135611c40611c3b82612a77565b6129fa565b91508082526020830160208301858383011115611c5c57600080fd5b611c67838284612bcd565b50505092915050565b600060408284031215611c8257600080fd5b611c8c60406129fa565b90506000611c9c84828501611bbd565b6000830152506020611cb084828501611d35565b60208301525092915050565b600060408284031215611cce57600080fd5b611cd860406129fa565b90506000611ce884828501611bbd565b600083015250602082015167ffffffffffffffff811115611d0857600080fd5b611d1484828501611a8d565b60208301525092915050565b600081359050611d2f81612c4e565b92915050565b600081519050611d4481612c4e565b92915050565b600060208284031215611d5c57600080fd5b600082015167ffffffffffffffff811115611d7657600080fd5b611d8284828501611b10565b91505092915050565b600060208284031215611d9d57600080fd5b6000611dab84828501611b93565b91505092915050565b600060208284031215611dc657600080fd5b6000611dd484828501611ba8565b91505092915050565b60008060408385031215611df057600080fd5b6000611dfe85828601611ba8565b9250506020611e0f85828601611ba8565b9150509250929050565b600080600060408486031215611e2e57600080fd5b6000611e3c86828701611ba8565b935050602084013567ffffffffffffffff811115611e5957600080fd5b611e6586828701611bd2565b92509250509250925092565b60008060408385031215611e8457600080fd5b6000611e9285828601611ba8565b925050602083013567ffffffffffffffff811115611eaf57600080fd5b611ebb85828601611c1c565b9150509250929050565b600080600060608486031215611eda57600080fd5b6000611ee886828701611ba8565b935050602084013567ffffffffffffffff811115611f0557600080fd5b611f1186828701611c1c565b9250506040611f2286828701611ba8565b9150509250925092565b600080600060608486031215611f4157600080fd5b6000611f4f86828701611ba8565b935050602084013567ffffffffffffffff811115611f6c57600080fd5b611f7886828701611c1c565b925050604084013567ffffffffffffffff811115611f9557600080fd5b611fa186828701611c1c565b9150509250925092565b600080600060608486031215611fc057600080fd5b6000611fce86828701611ba8565b9350506020611fdf86828701611d20565b9250506040611ff086828701611d20565b9150509250925092565b60006020828403121561200c57600080fd5b600082015167ffffffffffffffff81111561202657600080fd5b61203284828501611cbc565b91505092915050565b6000612047838361266b565b60408301905092915050565b61205c81612b73565b82525050565b61206b81612b14565b82525050565b600061207c82612ab3565b6120868185612ae1565b935061209183612aa3565b8060005b838110156120c25781516120a9888261203b565b97506120b483612ad4565b925050600181019050612095565b5085935050505092915050565b6120d881612b26565b82525050565b6120e781612b32565b82525050565b6120f681612b32565b82525050565b600061210782612abe565b6121118185612af2565b9350612121818560208601612bdc565b61212a81612c0f565b840191505092915050565b61213e81612b85565b82525050565b600061214f82612ac9565b6121598185612b03565b9350612169818560208601612bdc565b61217281612c0f565b840191505092915050565b600061218a604383612b03565b91507f7472616e73666572416c6c207c207375626d6974746564206461746120646f6560008301527f73206e6f74206d617463682073746f7265642061737365744f7574636f6d654860208301527f61736800000000000000000000000000000000000000000000000000000000006040830152606082019050919050565b6000612216601b83612b03565b91507f536166654d6174683a206164646974696f6e206f766572666c6f7700000000006000830152602082019050919050565b6000612256603583612b03565b91507f4465706f736974207c20686f6c64696e67735b64657374696e6174696f6e5d2060008301527f6973206c657373207468616e20657870656374656400000000000000000000006020830152604082019050919050565b60006122bc605883612b03565b91507f636c61696d416c6c207c207375626d6974746564206461746120646f6573206e60008301527f6f74206d617463682061737365744f7574636f6d65486173682073746f72656460208301527f20616761696e7374207461726765744368616e6e656c496400000000000000006040830152606082019050919050565b6000612348602683612b03565b91507f43616e6e6f74206465706f73697420746f2065787465726e616c20646573746960008301527f6e6174696f6e00000000000000000000000000000000000000000000000000006020830152604082019050919050565b60006123ae604083612b03565b91507f7472616e73666572207c207375626d6974746564206461746120646f6573206e60008301527f6f74206d617463682073746f7265642061737365744f7574636f6d65486173686020830152604082019050919050565b6000612414601883612b03565b91507f436f756c64206e6f74206465706f7369742045524332307300000000000000006000830152602082019050919050565b6000612454603183612b03565b91507f5f7472616e73666572207c2066726f6d4368616e6e656c206166666f7264732060008301527f3020666f722064657374696e6174696f6e0000000000000000000000000000006020830152604082019050919050565b60006124ba604e83612b03565b91507f4465706f736974207c20686f6c64696e67735b64657374696e6174696f6e5d2060008301527f616c7265616479206d65657473206f722065786365656473206578706563746560208301527f6448656c64202b20616d6f756e740000000000000000000000000000000000006040830152606082019050919050565b6000612546601b83612b03565b91507f4f7574636f6d65206861736820616c72656164792065786973747300000000006000830152602082019050919050565b6000612586605b83612b03565b91507f636c61696d416c6c207c207375626d6974746564206461746120646f6573206e60008301527f6f74206d617463682061737365744f7574636f6d65486173682073746f72656460208301527f20616761696e73742067756172616e746f724368616e6e656c496400000000006040830152606082019050919050565b6000612612602783612b03565b91507f4f6e6c7920746865204e6974726f41646a7564696361746f722069732061757460008301527f686f72697a6564000000000000000000000000000000000000000000000000006020830152604082019050919050565b60408201600082015161268160008501826120de565b50602082015161269460208501826126d7565b50505050565b60006040830160008301516126b260008601826126f5565b50602083015184820360208601526126ca82826120fc565b9150508091505092915050565b6126e081612b5c565b82525050565b6126ef81612b5c565b82525050565b6126fe81612b66565b82525050565b60006020820190506127196000830184612062565b92915050565b60006060820190506127346000830186612053565b6127416020830185612062565b61274e60408301846126e6565b949350505050565b600060408201905061276b6000830185612053565b61277860208301846126e6565b9392505050565b600060208201905081810360008301526127998184612071565b905092915050565b60006020820190506127b660008301846120cf565b92915050565b60006020820190506127d160008301846120ed565b92915050565b60006020820190506127ec6000830184612135565b92915050565b6000602082019050818103600083015261280c8184612144565b905092915050565b6000602082019050818103600083015261282d8161217d565b9050919050565b6000602082019050818103600083015261284d81612209565b9050919050565b6000602082019050818103600083015261286d81612249565b9050919050565b6000602082019050818103600083015261288d816122af565b9050919050565b600060208201905081810360008301526128ad8161233b565b9050919050565b600060208201905081810360008301526128cd816123a1565b9050919050565b600060208201905081810360008301526128ed81612407565b9050919050565b6000602082019050818103600083015261290d81612447565b9050919050565b6000602082019050818103600083015261292d816124ad565b9050919050565b6000602082019050818103600083015261294d81612539565b9050919050565b6000602082019050818103600083015261296d81612579565b9050919050565b6000602082019050818103600083015261298d81612605565b9050919050565b600060208201905081810360008301526129ae818461269a565b905092915050565b60006020820190506129cb60008301846126e6565b92915050565b60006040820190506129e660008301856126e6565b6129f360208301846126e6565b9392505050565b6000604051905081810181811067ffffffffffffffff82111715612a1d57600080fd5b8060405250919050565b600067ffffffffffffffff821115612a3e57600080fd5b602082029050602081019050919050565b600067ffffffffffffffff821115612a6657600080fd5b602082029050602081019050919050565b600067ffffffffffffffff821115612a8e57600080fd5b601f19601f8301169050602081019050919050565b6000819050602082019050919050565b600081519050919050565b600081519050919050565b600081519050919050565b6000602082019050919050565b600082825260208201905092915050565b600082825260208201905092915050565b600082825260208201905092915050565b6000612b1f82612b3c565b9050919050565b60008115159050919050565b6000819050919050565b600073ffffffffffffffffffffffffffffffffffffffff82169050919050565b6000819050919050565b600060ff82169050919050565b6000612b7e82612ba9565b9050919050565b6000612b9082612b97565b9050919050565b6000612ba282612b3c565b9050919050565b6000612bb482612bbb565b9050919050565b6000612bc682612b3c565b9050919050565b82818337600083830152505050565b60005b83811015612bfa578082015181840152602081019050612bdf565b83811115612c09576000848401525b50505050565b6000601f19601f8301169050919050565b612c2981612b26565b8114612c3457600080fd5b50565b612c4081612b32565b8114612c4b57600080fd5b50565b612c5781612b5c565b8114612c6257600080fd5b5056fea2646970667358221220d2759df207b762ad57b98f6c96e86cc288af627b53434992befcd13b477fdb7564736f6c634300060c0033",
  "devdoc": {
    "details": "Ther ERC20AssetHolder contract extends the AssetHolder contract, and adds the following functionality: it allows ERC20 tokens to be escrowed against a state channelId and to be transferred to external destinations.",
    "kind": "dev",
    "methods": {
      "claimAll(bytes32,bytes,bytes)": {
        "details": "Transfers the funds escrowed against `guarantorChannelId` to the beneficiaries of the __target__ of that channel.",
        "params": {
          "allocationBytes": "The abi.encode of AssetOutcome.Allocation for the __target__",
          "guaranteeBytes": "The abi.encode of Outcome.Guarantee",
          "guarantorChannelId": "Unique identifier for a guarantor state channel."
        }
      },
      "constructor": {
        "details": "Constructor function storing the AdjudicatorAddress and instantiating an interface to an ERC20 Token contract.",
        "params": {
          "_AdjudicatorAddress": "Address of an Adjudicator  contract, supplied at deploy-time.",
          "_TokenAddress": "Address of an ERC20 Token  contract, supplied at deploy-time."
        }
      },
      "deposit(bytes32,uint256,uint256)": {
        "details": "Deposit ERC20 tokens against a given destination.",
        "params": {
          "amount": "The intended number of tokens to be deposited.",
          "destination": "ChannelId to be credited.",
          "expectedHeld": "The amount of tokens that the depositor believes are _already_ escrowed against the channelId."
        }
      },
      "setAssetOutcomeHash(bytes32,bytes32)": {
        "details": "Sets the given assetOutcomeHash for the given channelId in the assetOutcomeHashes storage mapping.",
        "params": {
          "assetOutcomeHash": "The keccak256 of the abi.encode of the Outcome.",
          "channelId": "Unique identifier for a state channel."
        }
      },
      "transfer(bytes32,bytes,bytes32)": {
        "details": "Transfers as many funds escrowed against `channelId` as can be afforded for a specific destination. Assumes no repeated entries.",
        "params": {
          "allocationBytes": "The abi.encode of AssetOutcome.Allocation",
          "destination": "External destination or channel to transfer funds *to*.",
          "fromChannelId": "Unique identifier for state channel to transfer funds *from*."
        }
      },
      "transferAll(bytes32,bytes)": {
        "details": "Transfers the funds escrowed against `channelId` and transfers them to the beneficiaries of that channel. Checks against the storage in this contract.",
        "params": {
          "allocationBytes": "The abi.encode of AssetOutcome.Allocation",
          "channelId": "Unique identifier for a state channel."
        }
      },
      "transferAllAdjudicatorOnly(bytes32,bytes)": {
        "details": "Transfers the funds escrowed against `channelId` and transfers them to the beneficiaries of that channel. No checks performed against storage in this contract. Permissioned.",
        "params": {
          "allocationBytes": "The abi.encode of AssetOutcome.Allocation",
          "channelId": "Unique identifier for a state channel."
        }
      }
    },
    "version": 1
  },
  "userdoc": {
    "kind": "user",
    "methods": {
      "claimAll(bytes32,bytes,bytes)": {
        "notice": "Transfers the funds escrowed against `guarantorChannelId` to the beneficiaries of the __target__ of that channel."
      },
      "constructor": "Constructor function storing the AdjudicatorAddress and instantiating an interface to an ERC20 Token contract.",
      "deposit(bytes32,uint256,uint256)": {
        "notice": "Deposit ERC20 tokens against a given destination."
      },
      "setAssetOutcomeHash(bytes32,bytes32)": {
        "notice": "Sets the given assetOutcomeHash for the given channelId in the assetOutcomeHashes storage mapping."
      },
      "transfer(bytes32,bytes,bytes32)": {
        "notice": "Transfers as many funds escrowed against `channelId` as can be afforded for a specific destination. Assumes no repeated entries."
      },
      "transferAll(bytes32,bytes)": {
        "notice": "Transfers the funds escrowed against `channelId` to the beneficiaries of that channel. Checks against the storage in this contract."
      },
      "transferAllAdjudicatorOnly(bytes32,bytes)": {
        "notice": "Transfers the funds escrowed against `channelId` to the beneficiaries of that channel. No checks performed against storage in this contract. Permissioned."
      }
    },
    "version": 1
  },
  "storageLayout": {
    "storage": [
      {
        "astId": 885,
        "contract": "contracts/ERC20AssetHolder.sol:ERC20AssetHolder",
        "label": "AdjudicatorAddress",
        "offset": 0,
        "slot": "0",
        "type": "t_address"
      },
      {
        "astId": 889,
        "contract": "contracts/ERC20AssetHolder.sol:ERC20AssetHolder",
        "label": "holdings",
        "offset": 0,
        "slot": "1",
        "type": "t_mapping(t_bytes32,t_uint256)"
      },
      {
        "astId": 893,
        "contract": "contracts/ERC20AssetHolder.sol:ERC20AssetHolder",
        "label": "assetOutcomeHashes",
        "offset": 0,
        "slot": "2",
        "type": "t_mapping(t_bytes32,t_bytes32)"
      },
      {
        "astId": 2306,
        "contract": "contracts/ERC20AssetHolder.sol:ERC20AssetHolder",
        "label": "Token",
        "offset": 0,
        "slot": "3",
        "type": "t_contract(IERC20)807"
      }
    ],
    "types": {
      "t_address": {
        "encoding": "inplace",
        "label": "address",
        "numberOfBytes": "20"
      },
      "t_bytes32": {
        "encoding": "inplace",
        "label": "bytes32",
        "numberOfBytes": "32"
      },
      "t_contract(IERC20)807": {
        "encoding": "inplace",
        "label": "contract IERC20",
        "numberOfBytes": "20"
      },
      "t_mapping(t_bytes32,t_bytes32)": {
        "encoding": "mapping",
        "key": "t_bytes32",
        "label": "mapping(bytes32 => bytes32)",
        "numberOfBytes": "32",
        "value": "t_bytes32"
      },
      "t_mapping(t_bytes32,t_uint256)": {
        "encoding": "mapping",
        "key": "t_bytes32",
        "label": "mapping(bytes32 => uint256)",
        "numberOfBytes": "32",
        "value": "t_uint256"
      },
      "t_uint256": {
        "encoding": "inplace",
        "label": "uint256",
        "numberOfBytes": "32"
      }
    }
  }
}