{
  "address": "0x0d9F0670170Fab72F0f879D020f9E77590aEE642",
  "abi": [
    {
      "inputs": [
        {
          "internalType": "address",
          "name": "_AdjudicatorAddress",
          "type": "address"
        }
      ],
      "stateMutability": "nonpayable",
      "type": "constructor"
    },
    {
      "anonymous": false,
      "inputs": [
        {
          "indexed": true,
          "internalType": "bytes32",
          "name": "channelId",
          "type": "bytes32"
        },
        {
          "indexed": true,
          "internalType": "bytes32",
          "name": "destination",
          "type": "bytes32"
        },
        {
          "indexed": false,
          "internalType": "uint256",
          "name": "amount",
          "type": "uint256"
        }
      ],
      "name": "AssetTransferred",
      "type": "event"
    },
    {
      "anonymous": false,
      "inputs": [
        {
          "indexed": true,
          "internalType": "bytes32",
          "name": "destination",
          "type": "bytes32"
        },
        {
          "indexed": false,
          "internalType": "uint256",
          "name": "amountDeposited",
          "type": "uint256"
        },
        {
          "indexed": false,
          "internalType": "uint256",
          "name": "destinationHoldings",
          "type": "uint256"
        }
      ],
      "name": "Deposited",
      "type": "event"
    },
    {
      "inputs": [],
      "name": "AdjudicatorAddress",
      "outputs": [
        {
          "internalType": "address",
          "name": "",
          "type": "address"
        }
      ],
      "stateMutability": "view",
      "type": "function"
    },
    {
      "inputs": [
        {
          "internalType": "bytes32",
          "name": "",
          "type": "bytes32"
        }
      ],
      "name": "assetOutcomeHashes",
      "outputs": [
        {
          "internalType": "bytes32",
          "name": "",
          "type": "bytes32"
        }
      ],
      "stateMutability": "view",
      "type": "function"
    },
    {
      "inputs": [
        {
          "internalType": "bytes32",
          "name": "guarantorChannelId",
          "type": "bytes32"
        },
        {
          "internalType": "bytes",
          "name": "guaranteeBytes",
          "type": "bytes"
        },
        {
          "internalType": "bytes",
          "name": "allocationBytes",
          "type": "bytes"
        }
      ],
      "name": "claimAll",
      "outputs": [],
      "stateMutability": "nonpayable",
      "type": "function"
    },
    {
      "inputs": [
        {
          "internalType": "bytes32",
          "name": "destination",
          "type": "bytes32"
        },
        {
          "internalType": "uint256",
          "name": "expectedHeld",
          "type": "uint256"
        },
        {
          "internalType": "uint256",
          "name": "amount",
          "type": "uint256"
        }
      ],
      "name": "deposit",
      "outputs": [],
      "stateMutability": "payable",
      "type": "function"
    },
    {
      "inputs": [
        {
          "internalType": "bytes32",
          "name": "",
          "type": "bytes32"
        }
      ],
      "name": "holdings",
      "outputs": [
        {
          "internalType": "uint256",
          "name": "",
          "type": "uint256"
        }
      ],
      "stateMutability": "view",
      "type": "function"
    },
    {
      "inputs": [
        {
          "internalType": "bytes32",
          "name": "channelId",
          "type": "bytes32"
        },
        {
          "internalType": "bytes32",
          "name": "assetOutcomeHash",
          "type": "bytes32"
        }
      ],
      "name": "setAssetOutcomeHash",
      "outputs": [
        {
          "internalType": "bool",
          "name": "success",
          "type": "bool"
        }
      ],
      "stateMutability": "nonpayable",
      "type": "function"
    },
    {
      "inputs": [
        {
          "internalType": "bytes32",
          "name": "fromChannelId",
          "type": "bytes32"
        },
        {
          "internalType": "bytes",
          "name": "allocationBytes",
          "type": "bytes"
        },
        {
          "internalType": "bytes32",
          "name": "destination",
          "type": "bytes32"
        }
      ],
      "name": "transfer",
      "outputs": [],
      "stateMutability": "nonpayable",
      "type": "function"
    },
    {
      "inputs": [
        {
          "internalType": "bytes32",
          "name": "channelId",
          "type": "bytes32"
        },
        {
          "internalType": "bytes",
          "name": "allocationBytes",
          "type": "bytes"
        }
      ],
      "name": "transferAll",
      "outputs": [],
      "stateMutability": "nonpayable",
      "type": "function"
    },
    {
      "inputs": [
        {
          "internalType": "bytes32",
          "name": "channelId",
          "type": "bytes32"
        },
        {
          "internalType": "bytes",
          "name": "allocationBytes",
          "type": "bytes"
        }
      ],
      "name": "transferAllAdjudicatorOnly",
      "outputs": [],
      "stateMutability": "nonpayable",
      "type": "function"
    }
  ],
  "transactionHash": "0x4d02eda06c5364d93dd9711b5cae5350a865134293a989fd5fdf818f6464d076",
  "args": [
    "0x1d25Bbf952781e0c75d248904B5422FeE9FcA558"
  ],
  "solcInputHash": "07c8efabe936280cd467aa2047e8befa",
  "bytecode": "0x60806040523480156200001157600080fd5b5060405162002d8c38038062002d8c833981810160405281019062000037919062000095565b806000806101000a81548173ffffffffffffffffffffffffffffffffffffffff021916908373ffffffffffffffffffffffffffffffffffffffff160217905550506200010f565b6000815190506200008f81620000f5565b92915050565b600060208284031215620000a857600080fd5b6000620000b8848285016200007e565b91505092915050565b6000620000ce82620000d5565b9050919050565b600073ffffffffffffffffffffffffffffffffffffffff82169050919050565b6200010081620000c1565b81146200010c57600080fd5b50565b612c6d806200011f6000396000f3fe6080604052600436106100865760003560e01c8063a3c863a311610059578063a3c863a314610122578063aa5f66551461015f578063ae9ee18c1461018a578063f1c9caf2146101c7578063ff860976146101f057610086565b8063022cbbe81461008b578063278f2ab8146100b45780632e36b7f8146100d0578063a3c041a1146100f9575b600080fd5b34801561009757600080fd5b506100b260048036038101906100ad9190611dfb565b61022d565b005b6100ce60048036038101906100c99190611f8d565b61030e565b005b3480156100dc57600080fd5b506100f760048036038101906100f29190611e53565b6105e7565b005b34801561010557600080fd5b50610120600480360381019061011b9190611ea7565b610693565b005b34801561012e57600080fd5b5061014960048036038101906101449190611dbf565b610741565b60405161015691906127b4565b60405180910390f35b34801561016b57600080fd5b506101746107e6565b6040516101819190612777565b60405180910390f35b34801561019657600080fd5b506101b160048036038101906101ac9190611d96565b61080a565b6040516101be91906129ee565b60405180910390f35b3480156101d357600080fd5b506101ee60048036038101906101e99190611f0e565b610822565b005b3480156101fc57600080fd5b5061021760048036038101906102129190611d96565b610f9a565b60405161022491906127cf565b60405180910390f35b60008054906101000a900473ffffffffffffffffffffffffffffffffffffffff1673ffffffffffffffffffffffffffffffffffffffff163373ffffffffffffffffffffffffffffffffffffffff16146102bb576040517f08c379a00000000000000000000000000000000000000000000000000000000081526004016102b29061298c565b60405180910390fd5b6103098383838080601f016020809104026020016040519081016040528093929190818152602001838380828437600081840152601f19601f82011690508083019250505050505050610fb2565b505050565b61031783611397565b15610357576040517f08c379a000000000000000000000000000000000000000000000000000000000815260040161034e906128ac565b60405180910390fd5b803414610399576040517f08c379a00000000000000000000000000000000000000000000000000000000081526004016103909061282c565b60405180910390fd5b600082600160008681526020019081526020016000205410156103f1576040517f08c379a00000000000000000000000000000000000000000000000000000000081526004016103e89061286c565b60405180910390fd5b61040482846113b490919063ffffffff16565b600160008681526020019081526020016000205410610458576040517f08c379a000000000000000000000000000000000000000000000000000000000815260040161044f9061290c565b60405180910390fd5b610490600160008681526020019081526020016000205461048284866113b490919063ffffffff16565b61140990919063ffffffff16565b90506104b88160016000878152602001908152602001600020546113b490919063ffffffff16565b6001600086815260200190815260200160002081905550837fb39477ecc06c5293391f8b73168b655d9c1310af93dbbf043187d79f881bbb8f826001600088815260200190815260200160002054604051610514929190612a09565b60405180910390a26000610531828461140990919063ffffffff16565b905060003373ffffffffffffffffffffffffffffffffffffffff168260405161055990612762565b60006040518083038185875af1925050503d8060008114610596576040519150601f19603f3d011682016040523d82523d6000602084013e61059b565b606091505b50509050806105df576040517f08c379a00000000000000000000000000000000000000000000000000000000081526004016105d6906129ac565b60405180910390fd5b505050505050565b6040518060400160405280600060018111156105ff57fe5b60ff1681526020018281525060405160200161061b91906129cc565b60405160208183030381529060405280519060200120600260008481526020019081526020016000205414610685576040517f08c379a000000000000000000000000000000000000000000000000000000000815260040161067c9061280c565b60405180910390fd5b61068f8282610fb2565b5050565b6040518060400160405280600060018111156106ab57fe5b60ff168152602001838152506040516020016106c791906129cc565b60405160208183030381529060405280519060200120600260008581526020019081526020016000205414610731576040517f08c379a0000000000000000000000000000000000000000000000000000000008152600401610728906128cc565b60405180910390fd5b61073c838383611453565b505050565b60008060009054906101000a900473ffffffffffffffffffffffffffffffffffffffff1673ffffffffffffffffffffffffffffffffffffffff163373ffffffffffffffffffffffffffffffffffffffff16146107d2576040517f08c379a00000000000000000000000000000000000000000000000000000000081526004016107c99061298c565b60405180910390fd5b6107dc83836118e6565b6001905092915050565b60008054906101000a900473ffffffffffffffffffffffffffffffffffffffff1681565b60016020528060005260406000206000915090505481565b604051806040016040528060018081111561083957fe5b60ff1681526020018381525060405160200161085591906129cc565b604051602081830303815290604052805190602001206002600085815260200190815260200160002054146108bf576040517f08c379a00000000000000000000000000000000000000000000000000000000081526004016108b69061296c565b60405180910390fd5b6108c7611a73565b828060200190518101906108db9190611fdc565b90506040518060400160405280600060018111156108f557fe5b60ff1681526020018381525060405160200161091191906129cc565b604051602081830303815290604052805190602001206002600083600001518152602001908152602001600020541461097f576040517f08c379a00000000000000000000000000000000000000000000000000000000081526004016109769061288c565b60405180910390fd5b6000600160008681526020019081526020016000205490506060838060200190518101906109ad9190611d55565b90506060815167ffffffffffffffff811180156109c957600080fd5b506040519080825280602002602001820160405280156109f85781602001602082028036833780820191505090505b50905060008251905060005b856020015151811015610b7657600086602001518281518110610a2357fe5b6020026020010151905060005b8551811015610b67576000871415610a4757610b67565b858181518110610a5357fe5b602002602001015160000151821415610b5a576000868281518110610a7457fe5b60200260200101516020015190506000811115610b5857808810610b0057610aa5818961140990919063ffffffff16565b97506000878381518110610ab557fe5b60200260200101516020018181525050610ad960018661140990919063ffffffff16565b945080868381518110610ae857fe5b60200260200101818151019150818152505050610b67565b610b13888261140990919063ffffffff16565b878381518110610b1f57fe5b6020026020010151602001818152505087868381518110610b3c57fe5b6020026020010181815101915081815250506000975050610b67565b505b8080600101915050610a30565b50508080600101915050610a04565b5060005b8351811015610c8c576000851415610b9157610c8c565b6000848281518110610b9f57fe5b60200260200101516020015190506000811115610c7e57808610610c2a57610bd0818761140990919063ffffffff16565b95506000858381518110610be057fe5b60200260200101516020018181525050610c0460018461140990919063ffffffff16565b925080848381518110610c1357fe5b602002602001018181510191508181525050610c7d565b610c3d868261140990919063ffffffff16565b858381518110610c4957fe5b6020026020010151602001818152505085848381518110610c6657fe5b602002602001018181510191508181525050600095505b5b508080600101915050610b7a565b5083600160008a81526020019081526020016000208190555060606000821115610d05578167ffffffffffffffff81118015610cc757600080fd5b50604051908082528060200260200182016040528015610d0157816020015b610cee611a90565b815260200190600190039081610ce65790505b5090505b6000805b8551811015610d73576000868281518110610d2057fe5b6020026020010151602001511115610d6657858181518110610d3e57fe5b6020026020010151838381518110610d5257fe5b602002602001018190525081806001019250505b8080600101915050610d09565b50828114610d7d57fe5b6000831115610e0f57604051806040016040528060006001811115610d9e57fe5b60ff16815260200183604051602001610db79190612792565b604051602081830303815290604052815250604051602001610dd991906129cc565b60405160208183030381529060405280519060200120600260008960000151815260200190815260200160002081905550610e42565b600260008b8152602001908152602001600020600090556002600088600001518152602001908152602001600020600090555b60005b8551811015610f8d576000858281518110610e5c57fe5b60200260200101511115610f8057610e8a868281518110610e7957fe5b602002602001015160000151611397565b15610f3357610ecb610eb2878381518110610ea157fe5b60200260200101516000015161195a565b868381518110610ebe57fe5b6020026020010151611967565b858181518110610ed757fe5b6020026020010151600001518b7f1f6b1af341c61650d8ef5dd2094a77e44ce0568e1acb98baa6007033de9009b7878481518110610f1157fe5b6020026020010151604051610f2691906129ee565b60405180910390a3610f7f565b848181518110610f3f57fe5b602002602001015160016000888481518110610f5757fe5b6020026020010151600001518152602001908152602001600020600082825401925050819055505b5b8080600101915050610e45565b5050505050505050505050565b60026020528060005260406000206000915090505481565b606081806020019051810190610fc89190611d55565b90506000600160008581526020019081526020016000205490506000808351905060008060008060005b885181101561109a5760008814156110095761108d565b88818151811061101557fe5b6020026020010151602001519450848810156110585786806001019750506001935087925061104d888661140990919063ffffffff16565b91506000975061108c565b868060010197505061107460018761140990919063ffffffff16565b9550611089858961140990919063ffffffff16565b97505b5b8080600101915050610ff2565b5086600160008c81526020019081526020016000208190555060008511156112315760608567ffffffffffffffff811180156110d557600080fd5b5060405190808252806020026020018201604052801561110f57816020015b6110fc611a90565b8152602001906001900390816110f45790505b50905060005b868110156111aa5789611144826111368a8e5161140990919063ffffffff16565b6113b490919063ffffffff16565b8151811061114e57fe5b602002602001015182828151811061116257fe5b602002602001018190525084801561117a5750600081145b1561119d578282828151811061118c57fe5b602002602001015160200181815250505b8080600101915050611115565b506040518060400160405280600060018111156111c357fe5b60ff168152602001826040516020016111dc9190612792565b6040516020818303038152906040528152506040516020016111fe91906129cc565b60405160208183030381529060405280519060200120600260008d81526020019081526020016000208190555050611249565b600260008b8152602001908152602001600020600090555b600080600090505b8781101561138957848015611278575061127560018961140990919063ffffffff16565b81145b15611285578391506112a0565b89818151811061129157fe5b60200260200101516020015191505b6112c08a82815181106112af57fe5b602002602001015160000151611397565b15611343576112ee6112e88b83815181106112d757fe5b60200260200101516000015161195a565b83611967565b8981815181106112fa57fe5b6020026020010151600001518c7f1f6b1af341c61650d8ef5dd2094a77e44ce0568e1acb98baa6007033de9009b78460405161133691906129ee565b60405180910390a361137c565b81600160008c848151811061135457fe5b6020026020010151600001518152602001908152602001600020600082825401925050819055505b8080600101915050611251565b505050505050505050505050565b6000808260a01c6bffffffffffffffffffffffff16149050919050565b6000808284019050838110156113ff576040517f08c379a00000000000000000000000000000000000000000000000000000000081526004016113f69061284c565b60405180910390fd5b8091505092915050565b600061144b83836040518060400160405280601e81526020017f536166654d6174683a207375627472616374696f6e206f766572666c6f770000815250611a18565b905092915050565b6060828060200190518101906114699190611d55565b905060006001600086815260200190815260200160002054905060008060008060008091505b86518210156115845760008614156114dc576040517f08c379a00000000000000000000000000000000000000000000000000000000081526004016114d3906128ec565b60405180910390fd5b8682815181106114e857fe5b60200260200101516020015192508787838151811061150357fe5b6020026020010151600001511415611550578286101561152e5785945085830393506000955061154b565b82945060009350611548838761140990919063ffffffff16565b95505b611584565b828610156115615760009550611577565b611574838761140990919063ffffffff16565b95505b818060010192505061148f565b84600160008c815260200190815260200160002060008282540392505081905550606060008511156116ad576060885167ffffffffffffffff811180156115ca57600080fd5b5060405190808252806020026020018201604052801561160457816020015b6115f1611a90565b8152602001906001900390816115e95790505b50905060005b89518110156116885789818151811061161f57fe5b602002602001015182828151811061163357fe5b60200260200101819052508a8a828151811061164b57fe5b602002602001015160000151141561167b578682828151811061166a57fe5b602002602001015160200181815250505b808060010191505061160a565b508060405160200161169a9190612792565b6040516020818303038152906040529150505b60008514156117d5576060600189510367ffffffffffffffff811180156116d357600080fd5b5060405190808252806020026020018201604052801561170d57816020015b6116fa611a90565b8152602001906001900390816116f25790505b50905060005b848110156117535789818151811061172757fe5b602002602001015182828151811061173b57fe5b60200260200101819052508080600101915050611713565b5060006001850190505b89518110156117a15789818151811061177257fe5b602002602001015182600183038151811061178957fe5b6020026020010181905250808060010191505061175d565b506000815114156117b157600192505b806040516020016117c29190612792565b6040516020818303038152906040529150505b81156117f757600260008c815260200190815260200160002060009055611859565b60405180604001604052806000600181111561180f57fe5b60ff1681526020018281525060405160200161182b91906129cc565b60405160208183030381529060405280519060200120600260008d8152602001908152602001600020819055505b61186289611397565b156118b7576118796118738a61195a565b87611967565b888b7f1f6b1af341c61650d8ef5dd2094a77e44ce0568e1acb98baa6007033de9009b7886040516118aa91906129ee565b60405180910390a36118d9565b85600160008b8152602001908152602001600020600082825401925050819055505b5050505050505050505050565b6000801b60026000848152602001908152602001600020541461193e576040517f08c379a00000000000000000000000000000000000000000000000000000000081526004016119359061294c565b60405180910390fd5b8060026000848152602001908152602001600020819055505050565b60008160001c9050919050565b60008273ffffffffffffffffffffffffffffffffffffffff168260405161198d90612762565b60006040518083038185875af1925050503d80600081146119ca576040519150601f19603f3d011682016040523d82523d6000602084013e6119cf565b606091505b5050905080611a13576040517f08c379a0000000000000000000000000000000000000000000000000000000008152600401611a0a9061292c565b60405180910390fd5b505050565b6000838311158290611a60576040517f08c379a0000000000000000000000000000000000000000000000000000000008152600401611a5791906127ea565b60405180910390fd5b5060008385039050809150509392505050565b604051806040016040528060008019168152602001606081525090565b604051806040016040528060008019168152602001600081525090565b600082601f830112611abe57600080fd5b8151611ad1611acc82612a5f565b612a32565b91508181835260208401935060208101905083856020840282011115611af657600080fd5b60005b83811015611b265781611b0c8882611bc8565b845260208401935060208301925050600181019050611af9565b5050505092915050565b600082601f830112611b4157600080fd5b8151611b54611b4f82612a87565b612a32565b91508181835260208401935060208101905083856040840282011115611b7957600080fd5b60005b83811015611ba95781611b8f8882611c7b565b845260208401935060408301925050600181019050611b7c565b5050505092915050565b600081359050611bc281612c09565b92915050565b600081519050611bd781612c09565b92915050565b60008083601f840112611bef57600080fd5b8235905067ffffffffffffffff811115611c0857600080fd5b602083019150836001820283011115611c2057600080fd5b9250929050565b600082601f830112611c3857600080fd5b8135611c4b611c4682612aaf565b612a32565b91508082526020830160208301858383011115611c6757600080fd5b611c72838284612bb6565b50505092915050565b600060408284031215611c8d57600080fd5b611c976040612a32565b90506000611ca784828501611bc8565b6000830152506020611cbb84828501611d40565b60208301525092915050565b600060408284031215611cd957600080fd5b611ce36040612a32565b90506000611cf384828501611bc8565b600083015250602082015167ffffffffffffffff811115611d1357600080fd5b611d1f84828501611aad565b60208301525092915050565b600081359050611d3a81612c20565b92915050565b600081519050611d4f81612c20565b92915050565b600060208284031215611d6757600080fd5b600082015167ffffffffffffffff811115611d8157600080fd5b611d8d84828501611b30565b91505092915050565b600060208284031215611da857600080fd5b6000611db684828501611bb3565b91505092915050565b60008060408385031215611dd257600080fd5b6000611de085828601611bb3565b9250506020611df185828601611bb3565b9150509250929050565b600080600060408486031215611e1057600080fd5b6000611e1e86828701611bb3565b935050602084013567ffffffffffffffff811115611e3b57600080fd5b611e4786828701611bdd565b92509250509250925092565b60008060408385031215611e6657600080fd5b6000611e7485828601611bb3565b925050602083013567ffffffffffffffff811115611e9157600080fd5b611e9d85828601611c27565b9150509250929050565b600080600060608486031215611ebc57600080fd5b6000611eca86828701611bb3565b935050602084013567ffffffffffffffff811115611ee757600080fd5b611ef386828701611c27565b9250506040611f0486828701611bb3565b9150509250925092565b600080600060608486031215611f2357600080fd5b6000611f3186828701611bb3565b935050602084013567ffffffffffffffff811115611f4e57600080fd5b611f5a86828701611c27565b925050604084013567ffffffffffffffff811115611f7757600080fd5b611f8386828701611c27565b9150509250925092565b600080600060608486031215611fa257600080fd5b6000611fb086828701611bb3565b9350506020611fc186828701611d2b565b9250506040611fd286828701611d2b565b9150509250925092565b600060208284031215611fee57600080fd5b600082015167ffffffffffffffff81111561200857600080fd5b61201484828501611cc7565b91505092915050565b600061202983836126c9565b60408301905092915050565b61203e81612b57565b82525050565b600061204f82612aeb565b6120598185612b19565b935061206483612adb565b8060005b8381101561209557815161207c888261201d565b975061208783612b0c565b925050600181019050612068565b5085935050505092915050565b6120ab81612b69565b82525050565b6120ba81612b75565b82525050565b6120c981612b75565b82525050565b60006120da82612af6565b6120e48185612b2a565b93506120f4818560208601612bc5565b6120fd81612bf8565b840191505092915050565b600061211382612b01565b61211d8185612b46565b935061212d818560208601612bc5565b61213681612bf8565b840191505092915050565b600061214e604383612b46565b91507f7472616e73666572416c6c207c207375626d6974746564206461746120646f6560008301527f73206e6f74206d617463682073746f7265642061737365744f7574636f6d654860208301527f61736800000000000000000000000000000000000000000000000000000000006040830152606082019050919050565b60006121da602083612b46565b91507f496e73756666696369656e742045544820666f7220455448206465706f7369746000830152602082019050919050565b600061221a601b83612b46565b91507f536166654d6174683a206164646974696f6e206f766572666c6f7700000000006000830152602082019050919050565b600061225a603583612b46565b91507f4465706f736974207c20686f6c64696e67735b64657374696e6174696f6e5d2060008301527f6973206c657373207468616e20657870656374656400000000000000000000006020830152604082019050919050565b60006122c0605883612b46565b91507f636c61696d416c6c207c207375626d6974746564206461746120646f6573206e60008301527f6f74206d617463682061737365744f7574636f6d65486173682073746f72656460208301527f20616761696e7374207461726765744368616e6e656c496400000000000000006040830152606082019050919050565b600061234c602683612b46565b91507f43616e6e6f74206465706f73697420746f2065787465726e616c20646573746960008301527f6e6174696f6e00000000000000000000000000000000000000000000000000006020830152604082019050919050565b60006123b2604083612b46565b91507f7472616e73666572207c207375626d6974746564206461746120646f6573206e60008301527f6f74206d617463682073746f7265642061737365744f7574636f6d65486173686020830152604082019050919050565b6000612418603183612b46565b91507f5f7472616e73666572207c2066726f6d4368616e6e656c206166666f7264732060008301527f3020666f722064657374696e6174696f6e0000000000000000000000000000006020830152604082019050919050565b600061247e604e83612b46565b91507f4465706f736974207c20686f6c64696e67735b64657374696e6174696f6e5d2060008301527f616c7265616479206d65657473206f722065786365656473206578706563746560208301527f6448656c64202b20616d6f756e740000000000000000000000000000000000006040830152606082019050919050565b600061250a601883612b46565b91507f436f756c64206e6f74207472616e7366657220617373657400000000000000006000830152602082019050919050565b600061254a601b83612b46565b91507f4f7574636f6d65206861736820616c72656164792065786973747300000000006000830152602082019050919050565b600061258a600083612b3b565b9150600082019050919050565b60006125a4605b83612b46565b91507f636c61696d416c6c207c207375626d6974746564206461746120646f6573206e60008301527f6f74206d617463682061737365744f7574636f6d65486173682073746f72656460208301527f20616761696e73742067756172616e746f724368616e6e656c496400000000006040830152606082019050919050565b6000612630602783612b46565b91507f4f6e6c7920746865204e6974726f41646a7564696361746f722069732061757460008301527f686f72697a6564000000000000000000000000000000000000000000000000006020830152604082019050919050565b6000612696601d83612b46565b91507f436f756c64206e6f7420726566756e64206578636573732066756e64730000006000830152602082019050919050565b6040820160008201516126df60008501826120b1565b5060208201516126f26020850182612735565b50505050565b60006040830160008301516127106000860182612753565b506020830151848203602086015261272882826120cf565b9150508091505092915050565b61273e81612b9f565b82525050565b61274d81612b9f565b82525050565b61275c81612ba9565b82525050565b600061276d8261257d565b9150819050919050565b600060208201905061278c6000830184612035565b92915050565b600060208201905081810360008301526127ac8184612044565b905092915050565b60006020820190506127c960008301846120a2565b92915050565b60006020820190506127e460008301846120c0565b92915050565b600060208201905081810360008301526128048184612108565b905092915050565b6000602082019050818103600083015261282581612141565b9050919050565b60006020820190508181036000830152612845816121cd565b9050919050565b600060208201905081810360008301526128658161220d565b9050919050565b600060208201905081810360008301526128858161224d565b9050919050565b600060208201905081810360008301526128a5816122b3565b9050919050565b600060208201905081810360008301526128c58161233f565b9050919050565b600060208201905081810360008301526128e5816123a5565b9050919050565b600060208201905081810360008301526129058161240b565b9050919050565b6000602082019050818103600083015261292581612471565b9050919050565b60006020820190508181036000830152612945816124fd565b9050919050565b600060208201905081810360008301526129658161253d565b9050919050565b6000602082019050818103600083015261298581612597565b9050919050565b600060208201905081810360008301526129a581612623565b9050919050565b600060208201905081810360008301526129c581612689565b9050919050565b600060208201905081810360008301526129e681846126f8565b905092915050565b6000602082019050612a036000830184612744565b92915050565b6000604082019050612a1e6000830185612744565b612a2b6020830184612744565b9392505050565b6000604051905081810181811067ffffffffffffffff82111715612a5557600080fd5b8060405250919050565b600067ffffffffffffffff821115612a7657600080fd5b602082029050602081019050919050565b600067ffffffffffffffff821115612a9e57600080fd5b602082029050602081019050919050565b600067ffffffffffffffff821115612ac657600080fd5b601f19601f8301169050602081019050919050565b6000819050602082019050919050565b600081519050919050565b600081519050919050565b600081519050919050565b6000602082019050919050565b600082825260208201905092915050565b600082825260208201905092915050565b600081905092915050565b600082825260208201905092915050565b6000612b6282612b7f565b9050919050565b60008115159050919050565b6000819050919050565b600073ffffffffffffffffffffffffffffffffffffffff82169050919050565b6000819050919050565b600060ff82169050919050565b82818337600083830152505050565b60005b83811015612be3578082015181840152602081019050612bc8565b83811115612bf2576000848401525b50505050565b6000601f19601f8301169050919050565b612c1281612b75565b8114612c1d57600080fd5b50565b612c2981612b9f565b8114612c3457600080fd5b5056fea2646970667358221220ea0f57b93029d922c10ee198bf0b154320f7641c3d91514f6adf6ee59435919364736f6c634300060c0033",
  "devdoc": {
    "details": "Ther ETHAssetHolder contract extends the AssetHolder contract, and adds the following functionality: it allows ETH to be escrowed against a state channelId and to be transferred to external destinations.",
    "kind": "dev",
    "methods": {
      "claimAll(bytes32,bytes,bytes)": {
        "details": "Transfers the funds escrowed against `guarantorChannelId` to the beneficiaries of the __target__ of that channel.",
        "params": {
          "allocationBytes": "The abi.encode of AssetOutcome.Allocation for the __target__",
          "guaranteeBytes": "The abi.encode of Outcome.Guarantee",
          "guarantorChannelId": "Unique identifier for a guarantor state channel."
        }
      },
      "constructor": {
        "details": "Constructor function storing the AdjudicatorAddress.",
        "params": {
          "_AdjudicatorAddress": "Address of an Adjudicator  contract, supplied at deploy-time."
        }
      },
      "deposit(bytes32,uint256,uint256)": {
        "details": "Deposit ETH against a given destination.",
        "params": {
          "amount": "The intended number of wei to be deposited.",
          "destination": "ChannelId to be credited.",
          "expectedHeld": "The number of wei the depositor believes are _already_ escrowed against the channelId."
        }
      },
      "setAssetOutcomeHash(bytes32,bytes32)": {
        "details": "Sets the given assetOutcomeHash for the given channelId in the assetOutcomeHashes storage mapping.",
        "params": {
          "assetOutcomeHash": "The keccak256 of the abi.encode of the Outcome.",
          "channelId": "Unique identifier for a state channel."
        }
      },
      "transfer(bytes32,bytes,bytes32)": {
        "details": "Transfers as many funds escrowed against `channelId` as can be afforded for a specific destination. Assumes no repeated entries.",
        "params": {
          "allocationBytes": "The abi.encode of AssetOutcome.Allocation",
          "destination": "External destination or channel to transfer funds *to*.",
          "fromChannelId": "Unique identifier for state channel to transfer funds *from*."
        }
      },
      "transferAll(bytes32,bytes)": {
        "details": "Transfers the funds escrowed against `channelId` and transfers them to the beneficiaries of that channel. Checks against the storage in this contract.",
        "params": {
          "allocationBytes": "The abi.encode of AssetOutcome.Allocation",
          "channelId": "Unique identifier for a state channel."
        }
      },
      "transferAllAdjudicatorOnly(bytes32,bytes)": {
        "details": "Transfers the funds escrowed against `channelId` and transfers them to the beneficiaries of that channel. No checks performed against storage in this contract. Permissioned.",
        "params": {
          "allocationBytes": "The abi.encode of AssetOutcome.Allocation",
          "channelId": "Unique identifier for a state channel."
        }
      }
    },
    "version": 1
  },
  "userdoc": {
    "kind": "user",
    "methods": {
      "claimAll(bytes32,bytes,bytes)": {
        "notice": "Transfers the funds escrowed against `guarantorChannelId` to the beneficiaries of the __target__ of that channel."
      },
      "constructor": "Constructor function storing the AdjudicatorAddress.",
      "deposit(bytes32,uint256,uint256)": {
        "notice": "Deposit ETH against a given destination."
      },
      "setAssetOutcomeHash(bytes32,bytes32)": {
        "notice": "Sets the given assetOutcomeHash for the given channelId in the assetOutcomeHashes storage mapping."
      },
      "transfer(bytes32,bytes,bytes32)": {
        "notice": "Transfers as many funds escrowed against `channelId` as can be afforded for a specific destination. Assumes no repeated entries."
      },
      "transferAll(bytes32,bytes)": {
        "notice": "Transfers the funds escrowed against `channelId` to the beneficiaries of that channel. Checks against the storage in this contract."
      },
      "transferAllAdjudicatorOnly(bytes32,bytes)": {
        "notice": "Transfers the funds escrowed against `channelId` to the beneficiaries of that channel. No checks performed against storage in this contract. Permissioned."
      }
    },
    "version": 1
  },
  "storageLayout": {
    "storage": [
      {
        "astId": 885,
        "contract": "contracts/ETHAssetHolder.sol:ETHAssetHolder",
        "label": "AdjudicatorAddress",
        "offset": 0,
        "slot": "0",
        "type": "t_address"
      },
      {
        "astId": 889,
        "contract": "contracts/ETHAssetHolder.sol:ETHAssetHolder",
        "label": "holdings",
        "offset": 0,
        "slot": "1",
        "type": "t_mapping(t_bytes32,t_uint256)"
      },
      {
        "astId": 893,
        "contract": "contracts/ETHAssetHolder.sol:ETHAssetHolder",
        "label": "assetOutcomeHashes",
        "offset": 0,
        "slot": "2",
        "type": "t_mapping(t_bytes32,t_bytes32)"
      }
    ],
    "types": {
      "t_address": {
        "encoding": "inplace",
        "label": "address",
        "numberOfBytes": "20"
      },
      "t_bytes32": {
        "encoding": "inplace",
        "label": "bytes32",
        "numberOfBytes": "32"
      },
      "t_mapping(t_bytes32,t_bytes32)": {
        "encoding": "mapping",
        "key": "t_bytes32",
        "label": "mapping(bytes32 => bytes32)",
        "numberOfBytes": "32",
        "value": "t_bytes32"
      },
      "t_mapping(t_bytes32,t_uint256)": {
        "encoding": "mapping",
        "key": "t_bytes32",
        "label": "mapping(bytes32 => uint256)",
        "numberOfBytes": "32",
        "value": "t_uint256"
      },
      "t_uint256": {
        "encoding": "inplace",
        "label": "uint256",
        "numberOfBytes": "32"
      }
    }
  }
}