{
  "address": "0xC53E99538D8069980dd62c7804fdaF7AE386C434",
  "abi": [
    {
      "inputs": [
        {
          "internalType": "address",
          "name": "_AdjudicatorAddress",
          "type": "address"
        }
      ],
      "stateMutability": "nonpayable",
      "type": "constructor"
    },
    {
      "anonymous": false,
      "inputs": [
        {
          "indexed": true,
          "internalType": "bytes32",
          "name": "channelId",
          "type": "bytes32"
        },
        {
          "indexed": true,
          "internalType": "bytes32",
          "name": "destination",
          "type": "bytes32"
        },
        {
          "indexed": false,
          "internalType": "uint256",
          "name": "amount",
          "type": "uint256"
        }
      ],
      "name": "AssetTransferred",
      "type": "event"
    },
    {
      "anonymous": false,
      "inputs": [
        {
          "indexed": true,
          "internalType": "bytes32",
          "name": "destination",
          "type": "bytes32"
        },
        {
          "indexed": false,
          "internalType": "uint256",
          "name": "amountDeposited",
          "type": "uint256"
        },
        {
          "indexed": false,
          "internalType": "uint256",
          "name": "destinationHoldings",
          "type": "uint256"
        }
      ],
      "name": "Deposited",
      "type": "event"
    },
    {
      "inputs": [],
      "name": "AdjudicatorAddress",
      "outputs": [
        {
          "internalType": "address",
          "name": "",
          "type": "address"
        }
      ],
      "stateMutability": "view",
      "type": "function"
    },
    {
      "inputs": [
        {
          "internalType": "bytes32",
          "name": "",
          "type": "bytes32"
        }
      ],
      "name": "assetOutcomeHashes",
      "outputs": [
        {
          "internalType": "bytes32",
          "name": "",
          "type": "bytes32"
        }
      ],
      "stateMutability": "view",
      "type": "function"
    },
    {
      "inputs": [
        {
          "internalType": "bytes32",
          "name": "guarantorChannelId",
          "type": "bytes32"
        },
        {
          "internalType": "bytes",
          "name": "guaranteeBytes",
          "type": "bytes"
        },
        {
          "internalType": "bytes",
          "name": "allocationBytes",
          "type": "bytes"
        },
        {
          "internalType": "bytes32",
          "name": "destination",
          "type": "bytes32"
        }
      ],
      "name": "claim",
      "outputs": [],
      "stateMutability": "nonpayable",
      "type": "function"
    },
    {
      "inputs": [
        {
          "internalType": "bytes32",
          "name": "guarantorChannelId",
          "type": "bytes32"
        },
        {
          "internalType": "bytes",
          "name": "guaranteeBytes",
          "type": "bytes"
        },
        {
          "internalType": "bytes",
          "name": "allocationBytes",
          "type": "bytes"
        }
      ],
      "name": "claimAll",
      "outputs": [],
      "stateMutability": "nonpayable",
      "type": "function"
    },
    {
      "inputs": [
        {
          "internalType": "bytes32",
          "name": "destination",
          "type": "bytes32"
        },
        {
          "internalType": "uint256",
          "name": "expectedHeld",
          "type": "uint256"
        },
        {
          "internalType": "uint256",
          "name": "amount",
          "type": "uint256"
        }
      ],
      "name": "deposit",
      "outputs": [],
      "stateMutability": "payable",
      "type": "function"
    },
    {
      "inputs": [
        {
          "internalType": "bytes32",
          "name": "",
          "type": "bytes32"
        }
      ],
      "name": "holdings",
      "outputs": [
        {
          "internalType": "uint256",
          "name": "",
          "type": "uint256"
        }
      ],
      "stateMutability": "view",
      "type": "function"
    },
    {
      "inputs": [
        {
          "internalType": "bytes32",
          "name": "channelId",
          "type": "bytes32"
        },
        {
          "internalType": "bytes32",
          "name": "assetOutcomeHash",
          "type": "bytes32"
        }
      ],
      "name": "setAssetOutcomeHash",
      "outputs": [
        {
          "internalType": "bool",
          "name": "success",
          "type": "bool"
        }
      ],
      "stateMutability": "nonpayable",
      "type": "function"
    },
    {
      "inputs": [
        {
          "internalType": "bytes32",
          "name": "fromChannelId",
          "type": "bytes32"
        },
        {
          "internalType": "bytes",
          "name": "allocationBytes",
          "type": "bytes"
        },
        {
          "internalType": "bytes32",
          "name": "destination",
          "type": "bytes32"
        }
      ],
      "name": "transfer",
      "outputs": [],
      "stateMutability": "nonpayable",
      "type": "function"
    },
    {
      "inputs": [
        {
          "internalType": "bytes32",
          "name": "channelId",
          "type": "bytes32"
        },
        {
          "internalType": "bytes",
          "name": "allocationBytes",
          "type": "bytes"
        }
      ],
      "name": "transferAll",
      "outputs": [],
      "stateMutability": "nonpayable",
      "type": "function"
    },
    {
      "inputs": [
        {
          "internalType": "bytes32",
          "name": "channelId",
          "type": "bytes32"
        },
        {
          "internalType": "bytes",
          "name": "allocationBytes",
          "type": "bytes"
        }
      ],
      "name": "transferAllAdjudicatorOnly",
      "outputs": [],
      "stateMutability": "nonpayable",
      "type": "function"
    }
  ],
  "transactionHash": "0xe09a0ae2439dea3d0de2622f19eda711aa70601cc826bfadd9e8965f5d848bb0",
  "args": [
    "0x94Fca2E2F57B25b2D9eA5d4FCEd6c5d8d9ad3172"
  ],
  "solcInputHash": "ab20556954f60f95e893e4797a67279d",
  "bytecode": "0x608060405234801561001057600080fd5b50604051620025593803806200255983398101604081905261003191610056565b600080546001600160a01b0319166001600160a01b0392909216919091179055610084565b600060208284031215610067578081fd5b81516001600160a01b038116811461007d578182fd5b9392505050565b6124c580620000946000396000f3fe6080604052600436106100915760003560e01c8063a3c863a311610059578063a3c863a31461012b578063aa5f665514610161578063ae9ee18c14610183578063f1c9caf2146101b0578063ff860976146101d057610091565b8063022cbbe814610096578063278f2ab8146100b85780632e36b7f8146100cb57806394ddd766146100eb578063a3c041a11461010b575b600080fd5b3480156100a257600080fd5b506100b66100b1366004611c55565b6101f0565b005b6100b66100c6366004611de2565b610268565b3480156100d757600080fd5b506100b66100e6366004611c55565b61042d565b3480156100f757600080fd5b506100b6610106366004611d64565b61046d565b34801561011757600080fd5b506100b6610126366004611c9e565b610553565b34801561013757600080fd5b5061014b610146366004611c34565b6105db565b6040516101589190611f4b565b60405180910390f35b34801561016d57600080fd5b50610176610619565b6040516101589190611ee8565b34801561018f57600080fd5b506101a361019e366004611c1c565b610628565b6040516101589190611f56565b3480156101bc57600080fd5b506100b66101cb366004611cee565b61063a565b3480156101dc57600080fd5b506101a36101eb366004611c1c565b610715565b6000546001600160a01b031633146102235760405162461bcd60e51b815260040161021a9061221f565b60405180910390fd5b6102638383838080601f01602080910402602001604051908101604052809392919081815260200183838082843760009201919091525061072792505050565b505050565b61027183610a6d565b1561028e5760405162461bcd60e51b815260040161021a906120dd565b8034146102ad5760405162461bcd60e51b815260040161021a90611fab565b6000838152600160205260408120548311156102db5760405162461bcd60e51b815260040161021a90612010565b6102e58383610a74565b600085815260016020526040902054106103115760405162461bcd60e51b815260040161021a90612174565b6000848152600160205260409020546103349061032e8585610a74565b90610ad5565b6000858152600160205260409020549091506103509082610a74565b600085815260016020526040908190208290555185917fb39477ecc06c5293391f8b73168b655d9c1310af93dbbf043187d79f881bbb8f91610393918591612421565b60405180910390a260006103a78383610ad5565b90506000336001600160a01b0316826040516103c2906119c5565b60006040518083038185875af1925050503d80600081146103ff576040519150601f19603f3d011682016040523d82523d6000602084013e610404565b606091505b50509050806104255760405162461bcd60e51b815260040161021a90612382565b505050505050565b6102238383838080601f016020809104026020016040519081016040528093929190818152602001838380828437600092019190915250610b1792505050565b6104ad8686868080601f016020809104026020016040519081016040528093929190818152602001838380828437600092019190915250610b7e92505050565b6104b5611adb565b6104c185870187611e0d565b9050610507816000015185858080601f016020809104026020016040519081016040528093929190818152602001838380828437600092019190915250610b1792505050565b61054a878286868080601f016020809104026020016040519081016040528093929190818152602001838380828437600092019190915250889250610be1915050565b50505050505050565b6105938484848080601f016020809104026020016040519081016040528093929190818152602001838380828437600092019190915250610b1792505050565b6105d58484848080601f01602080910402602001604051908101604052809392919081815260200183838082843760009201919091525086925061104f915050565b50505050565b600080546001600160a01b031633146106065760405162461bcd60e51b815260040161021a9061221f565b610610838361144a565b50600192915050565b6000546001600160a01b031681565b60016020526000908152604090205481565b61067a8585858080601f016020809104026020016040519081016040528093929190818152602001838380828437600092019190915250610b7e92505050565b610682611adb565b61068e84860186611e0d565b90506106d4816000015184848080601f016020809104026020016040519081016040528093929190818152602001838380828437600092019190915250610b1792505050565b610425868285858080601f01602080910402602001604051908101604052809392919081815260200183838082843760009201919091525061148892505050565b60026020526000908152604090205481565b60608180602001905181019061073d9190611b50565b60008481526001602052604081205482519293509181808080805b88518110156107d5578761076b576107d5565b88818151811061077757fe5b6020026020010151602001519450848810156107ad5760019687019693508792506107a28584610ad5565b9150600097506107cd565b6001968701966107be908790610ad5565b95506107ca8886610ad5565b97505b600101610758565b5060008a81526001602052604090208790558415610938576060856001600160401b038111801561080557600080fd5b5060405190808252806020026020018201604052801561083f57816020015b61082c611af3565b8152602001906001900390816108245790505b50905060005b868110156108cb578961086c826108668a8e51610ad590919063ffffffff16565b90610a74565b8151811061087657fe5b602002602001015182828151811061088a57fe5b60200260200101819052508480156108a0575080155b156108c357828282815181106108b257fe5b602002602001015160200181815250505b600101610845565b506040805180820182526000815290516020808301916108ed91859101611efc565b60408051601f1981840301815291815291525161090d91906020016123b9565b60408051601f19818403018152918152815160209283012060008e8152600290935291205550610948565b60008a8152600260205260408120555b6000805b87811015610a5f5784801561096a5750610967886001610ad5565b81145b1561097757839150610992565b89818151811061098357fe5b60200260200101516020015191505b6109b28a82815181106109a157fe5b602002602001015160000151610a6d565b156109e5576109e06109da8b83815181106109c957fe5b6020026020010151600001516119c5565b836119c8565b610a19565b81600160008c84815181106109f657fe5b602090810291909101810151518252810191909152604001600020805490910190555b898181518110610a2557fe5b6020026020010151600001518c60008051602061247083398151915284604051610a4f9190611f56565b60405180910390a360010161094c565b505050505050505050505050565b60a01c1590565b600082820183811015610ace576040805162461bcd60e51b815260206004820152601b60248201527f536166654d6174683a206164646974696f6e206f766572666c6f770000000000604482015290519081900360640190fd5b9392505050565b6000610ace83836040518060400160405280601e81526020017f536166654d6174683a207375627472616374696f6e206f766572666c6f770000815250611a44565b6040805180820182526000815260208082018490529151610b3892016123b9565b60408051601f1981840301815291815281516020928301206000858152600290935291205414610b7a5760405162461bcd60e51b815260040161021a906122b9565b5050565b6040805180820182526001815260208082018490529151610b9f92016123b9565b60408051601f1981840301815291815281516020928301206000858152600290935291205414610b7a5760405162461bcd60e51b815260040161021a90612065565b606082806020019051810190610bf79190611b50565b6000868152600160205260408120549192508080805b886020015151811015610d085784610c375760405162461bcd60e51b815260040161021a90612266565b600089602001518281518110610c4957fe5b60200260200101519050600092505b8651831015610cf35780878481518110610c6e57fe5b6020026020010151600001511415610ce8576000878481518110610c8e57fe5b602002602001015160200151905080871015610cc25788821415610cb9578695508590039350610cf3565b60009650610ce2565b88821415610cd557945060009350610cf3565b610cdf8782610ad5565b96505b50610cf3565b600190920191610c58565b8415610cff5750610d08565b50600101610c0d565b5060008311610d295760405162461bcd60e51b815260040161021a90611f5f565b6000898152600160205260409020805484900390558115610e6e57606085516001600160401b0381118015610d5d57600080fd5b50604051908082528060200260200182016040528015610d9757816020015b610d84611af3565b815260200190600190039081610d7c5790505b50905060005b8651811015610e0357868181518110610db257fe5b6020026020010151828281518110610dc657fe5b602002602001018190525082811415610dfb5783828281518110610de657fe5b60200260200101516020018181525050610e03565b600101610d9d565b50604080518082018252600081529051602080830191610e2591859101611efc565b60408051601f19818403018152918152915251610e4591906020016123b9565b60408051601f1981840301815291815281516020928301208b5160009081526002909352912055505b81610fe357845160011415610e9c5787516000908152600260205260408082208290558a8252812055610fe3565b606060018651036001600160401b0381118015610eb857600080fd5b50604051908082528060200260200182016040528015610ef257816020015b610edf611af3565b815260200190600190039081610ed75790505b50905060005b82811015610f3357868181518110610f0c57fe5b6020026020010151828281518110610f2057fe5b6020908102919091010152600101610ef8565b50600182015b8651811015610f7857868181518110610f4e57fe5b6020026020010151826001830381518110610f6557fe5b6020908102919091010152600101610f39565b50604080518082018252600081529051602080830191610f9a91859101611efc565b60408051601f19818403018152918152915251610fba91906020016123b9565b60408051601f1981840301815291815281516020928301208b5160009081526002909352912055505b610fec86610a6d565b1561100857611003610ffd876119c5565b846119c8565b61101d565b60008681526001602052604090208054840190555b85896000805160206124708339815191528560405161103c9190611f56565b60405180910390a3505050505050505050565b6060828060200190518101906110659190611b50565b6000858152600160205260408120549192508080805b855182101561113757846110a15760405162461bcd60e51b815260040161021a90612123565b60008683815181106110af57fe5b6020026020010151602001519050878784815181106110ca57fe5b602002602001015160000151141561110d57808610156110f35760009594508481039350611107565b935060009250836111048682610ad5565b95505b50611137565b8086101561111e576000955061112b565b6111288682610ad5565b95505b5060019091019061107b565b600084116111575760405162461bcd60e51b815260040161021a90612332565b6000898152600160205260409020805485900390556060831561126b57606087516001600160401b038111801561118d57600080fd5b506040519080825280602002602001820160405280156111c757816020015b6111b4611af3565b8152602001906001900390816111ac5790505b50905060005b8851811015611246578881815181106111e257fe5b60200260200101518282815181106111f657fe5b60200260200101819052508989828151811061120e57fe5b602002602001015160000151141561123e578582828151811061122d57fe5b602002602001015160200181815250505b6001016111cd565b50806040516020016112589190611efc565b6040516020818303038152906040529150505b8361137c57606060018851036001600160401b038111801561128c57600080fd5b506040519080825280602002602001820160405280156112c657816020015b6112b3611af3565b8152602001906001900390816112ab5790505b50905060005b84811015611307578881815181106112e057fe5b60200260200101518282815181106112f457fe5b60209081029190910101526001016112cc565b50600184015b885181101561134c5788818151811061132257fe5b602002602001015182600183038151811061133957fe5b602090810291909101015260010161130d565b50805161135857600192505b806040516020016113699190611efc565b6040516020818303038152906040529150505b81156113965760008a8152600260205260408120556113dd565b60408051808201825260008152602080820184905291516113b792016123b9565b60408051601f19818403018152918152815160209283012060008d815260029093529120555b6113e688610a6d565b15611402576113fd6113f7896119c5565b866119c8565b611417565b60008881526001602052604090208054860190555b878a600080516020612470833981519152876040516114369190611f56565b60405180910390a350505050505050505050565b600082815260026020526040902054156114765760405162461bcd60e51b815260040161021a906121e8565b60009182526002602052604090912055565b600083815260016020908152604090912054825190916060916114b2919085018101908501611b50565b9050606081516001600160401b03811180156114cd57600080fd5b506040519080825280602002602001820160405280156114f7578160200160208202803683370190505b50825190915060005b866020015151811015611651578461151757611651565b60008760200151828151811061152957fe5b6020026020010151905060005b8551811015611647578661154957611647565b85818151811061155557fe5b60200260200101516000015182141561163f57600086828151811061157657fe5b6020026020010151602001519050600081111561163d578088106115ee5761159e8882610ad5565b975060008783815181106115ae57fe5b60209081029190910181015101526115c7856001610ad5565b9450808683815181106115d657fe5b60200260200101818151019150818152505050611647565b6115f88189610ad5565b87838151811061160457fe5b602002602001015160200181815250508786838151811061162157fe5b6020026020010181815101915081815250506000975050611647565b505b600101611536565b5050600101611500565b5060005b8351811015611740578461166857611740565b600084828151811061167657fe5b60200260200101516020015190506000811115611737578086106116ed5761169e8682610ad5565b955060008583815181106116ae57fe5b60209081029190910181015101526116c7836001610ad5565b9250808483815181106116d657fe5b602002602001018181510191508181525050611737565b6116f78187610ad5565b85838151811061170357fe5b602002602001015160200181815250508584838151811061172057fe5b602002602001018181510191508181525050600095505b50600101611655565b506000878152600160205260409020849055606081156117ae57816001600160401b038111801561177057600080fd5b506040519080825280602002602001820160405280156117aa57816020015b611797611af3565b81526020019060019003908161178f5790505b5090505b6000805b85518110156118155760008682815181106117c957fe5b602002602001015160200151111561180d578581815181106117e757fe5b60200260200101518383815181106117fb57fe5b60209081029190910101526001909101905b6001016117b2565b5082811461181f57fe5b82156118925760408051808201825260008152905160208083019161184691869101611efc565b60408051601f1981840301815291815291525161186691906020016123b9565b60408051601f1981840301815291815281516020928301208a51600090815260029093529120556118ac565b600089815260026020526040808220829055895182528120555b60005b85518110156119b95760008582815181106118c657fe5b602002602001015111156119b1576118e38682815181106109a157fe5b15611918576119136118fa8783815181106109c957fe5b86838151811061190657fe5b60200260200101516119c8565b61195f565b84818151811061192457fe5b60200260200101516001600088848151811061193c57fe5b602090810291909101810151518252810191909152604001600020805490910190555b85818151811061196b57fe5b6020026020010151600001518a60008051602061247083398151915287848151811061199357fe5b60200260200101516040516119a89190611f56565b60405180910390a35b6001016118af565b50505050505050505050565b90565b6000826001600160a01b0316826040516119e1906119c5565b60006040518083038185875af1925050503d8060008114611a1e576040519150601f19603f3d011682016040523d82523d6000602084013e611a23565b606091505b50509050806102635760405162461bcd60e51b815260040161021a90611fe0565b60008184841115611ad35760405162461bcd60e51b81526004018080602001828103825283818151815260200191508051906020019080838360005b83811015611a98578181015183820152602001611a80565b50505050905090810190601f168015611ac55780820380516001836020036101000a031916815260200191505b509250505060405180910390fd5b505050900390565b60408051808201909152600081526060602082015290565b604080518082019091526000808252602082015290565b60008083601f840112611b1b578182fd5b5081356001600160401b03811115611b31578182fd5b602083019150836020828501011115611b4957600080fd5b9250929050565b60006020808385031215611b62578182fd5b82516001600160401b0380821115611b78578384fd5b818501915085601f830112611b8b578384fd5b8151611b9e611b9982612452565b61242f565b818152848101908486016040808502870188018b1015611bbc578889fd5b8896505b84871015611c0d5780828c031215611bd6578889fd5b80518181018181108882111715611be957fe5b82528251815288830151898201528452600196909601959287019290810190611bc0565b50909998505050505050505050565b600060208284031215611c2d578081fd5b5035919050565b60008060408385031215611c46578081fd5b50508035926020909101359150565b600080600060408486031215611c69578081fd5b8335925060208401356001600160401b03811115611c85578182fd5b611c9186828701611b0a565b9497909650939450505050565b60008060008060608587031215611cb3578081fd5b8435935060208501356001600160401b03811115611ccf578182fd5b611cdb87828801611b0a565b9598909750949560400135949350505050565b600080600080600060608688031215611d05578081fd5b8535945060208601356001600160401b0380821115611d22578283fd5b611d2e89838a01611b0a565b90965094506040880135915080821115611d46578283fd5b50611d5388828901611b0a565b969995985093965092949392505050565b60008060008060008060808789031215611d7c578081fd5b8635955060208701356001600160401b0380821115611d99578283fd5b611da58a838b01611b0a565b90975095506040890135915080821115611dbd578283fd5b50611dca89828a01611b0a565b979a9699509497949695606090950135949350505050565b600080600060608486031215611df6578283fd5b505081359360208301359350604090920135919050565b60006020808385031215611e1f578182fd5b82356001600160401b0380821115611e35578384fd5b9084019060408287031215611e48578384fd5b604051604081018181108382111715611e5d57fe5b604052823581528383013582811115611e74578586fd5b80840193505086601f840112611e88578485fd5b82359150611e98611b9983612452565b82815284810190848601868502860187018a1015611eb4578788fd5b8795505b84861015611ed6578035835260019590950194918601918601611eb8565b50948201949094529695505050505050565b6001600160a01b0391909116815260200190565b602080825282518282018190526000919060409081850190868401855b82811015611f3e57815180518552860151868501529284019290850190600101611f19565b5091979650505050505050565b901515815260200190565b90815260200190565b6020808252602c908201527f5f636c61696d207c2067756172616e746f72206166666f726473203020666f7260408201526b103232b9ba34b730ba34b7b760a11b606082015260800190565b6020808252818101527f496e73756666696369656e742045544820666f7220455448206465706f736974604082015260600190565b602080825260169082015275086deead8c840dcdee840e8e4c2dce6cccae4408aa8960531b604082015260600190565b60208082526035908201527f4465706f736974207c20686f6c64696e67735b64657374696e6174696f6e5d206040820152741a5cc81b195cdcc81d1a185b88195e1c1958dd1959605a1b606082015260800190565b60208082526052908201527f4173736574486f6c646572207c207375626d69747465642067756172616e746560408201527f654279746573206461746120646f6573206e6f74206d617463682073746f72656060820152710c840c2e6e6cae89eeae8c6dedaca90c2e6d60731b608082015260a00190565b60208082526026908201527f43616e6e6f74206465706f73697420746f2065787465726e616c2064657374696040820152653730ba34b7b760d11b606082015260800190565b60208082526031908201527f5f7472616e73666572207c2066726f6d4368616e6e656c206166666f7264732060408201527018103337b9103232b9ba34b730ba34b7b760791b606082015260800190565b6020808252604e908201527f4465706f736974207c20686f6c64696e67735b64657374696e6174696f6e5d2060408201527f616c7265616479206d65657473206f722065786365656473206578706563746560608201526d1912195b19080ac8185b5bdd5b9d60921b608082015260a00190565b6020808252601b908201527f4f7574636f6d65206861736820616c7265616479206578697374730000000000604082015260600190565b60208082526027908201527f4f6e6c7920746865204e6974726f41646a7564696361746f72206973206175746040820152661a1bdc9a5e995960ca1b606082015260800190565b60208082526033908201527f5f636c61696d207c2067756172616e746f724368616e6e656c206166666f7264604082015272399018103337b9103232b9ba34b730ba34b7b760691b606082015260800190565b60208082526053908201527f4173736574486f6c646572207c207375626d697474656420616c6c6f6361746960408201527f6f6e4279746573206461746120646f6573206e6f74206d617463682073746f726060820152720cac840c2e6e6cae89eeae8c6dedaca90c2e6d606b1b608082015260a00190565b60208082526030908201527f5f7472616e736665722066726f6d4368616e6e656c20616c6c6f63617465732060408201526f18103a37903232b9ba34b730ba34b7b760811b606082015260800190565b6020808252601d908201527f436f756c64206e6f7420726566756e64206578636573732066756e6473000000604082015260600190565b6000602080835260ff84511681840152808401516040808501528051806060860152835b818110156123f9578281018401518682016080015283016123dd565b8181111561240a5784608083880101525b50601f01601f191693909301608001949350505050565b918252602082015260400190565b6040518181016001600160401b038111828210171561244a57fe5b604052919050565b60006001600160401b0382111561246557fe5b506020908102019056fe1f6b1af341c61650d8ef5dd2094a77e44ce0568e1acb98baa6007033de9009b7a2646970667358221220a79ee6ff042616a55be26ebc8769283a8f7dbd0de43de4e8e1d0d159fd776d1364736f6c63430007040033",
  "devdoc": {
    "details": "Ther ETHAssetHolder contract extends the AssetHolder contract, and adds the following functionality: it allows ETH to be escrowed against a state channelId and to be transferred to external destinations.",
    "kind": "dev",
    "methods": {
      "claim(bytes32,bytes,bytes,bytes32)": {
        "details": "Transfers as many funds escrowed against `guarantorChannelId` as can be afforded for a specific destination in the beneficiaries of the __target__ of that channel. Checks against the storage in this contract.",
        "params": {
          "allocationBytes": "The abi.encode of AssetOutcome.Allocation for the __target__",
          "destination": "External destination or channel to transfer funds *to*.",
          "guaranteeBytes": "The abi.encode of Outcome.Guarantee",
          "guarantorChannelId": "Unique identifier for a guarantor state channel."
        }
      },
      "claimAll(bytes32,bytes,bytes)": {
        "details": "Transfers the funds escrowed against `guarantorChannelId` to the beneficiaries of the __target__ of that channel. Checks against the storage in this contract.",
        "params": {
          "allocationBytes": "The abi.encode of AssetOutcome.Allocation for the __target__",
          "guaranteeBytes": "The abi.encode of Outcome.Guarantee",
          "guarantorChannelId": "Unique identifier for a guarantor state channel."
        }
      },
      "constructor": {
        "details": "Constructor function storing the AdjudicatorAddress.",
        "params": {
          "_AdjudicatorAddress": "Address of an Adjudicator  contract, supplied at deploy-time."
        }
      },
      "deposit(bytes32,uint256,uint256)": {
        "details": "Deposit ETH against a given destination.",
        "params": {
          "amount": "The intended number of wei to be deposited.",
          "destination": "ChannelId to be credited.",
          "expectedHeld": "The number of wei the depositor believes are _already_ escrowed against the channelId."
        }
      },
      "setAssetOutcomeHash(bytes32,bytes32)": {
        "details": "Sets the given assetOutcomeHash for the given channelId in the assetOutcomeHashes storage mapping.",
        "params": {
          "assetOutcomeHash": "The keccak256 of the abi.encode of the Outcome.",
          "channelId": "Unique identifier for a state channel."
        }
      },
      "transfer(bytes32,bytes,bytes32)": {
        "details": "Transfers as many funds escrowed against `channelId` as can be afforded for a specific destination. Assumes no repeated entries.",
        "params": {
          "allocationBytes": "The abi.encode of AssetOutcome.Allocation",
          "destination": "External destination or channel to transfer funds *to*.",
          "fromChannelId": "Unique identifier for state channel to transfer funds *from*."
        }
      },
      "transferAll(bytes32,bytes)": {
        "details": "Transfers the funds escrowed against `channelId` and transfers them to the beneficiaries of that channel. Checks against the storage in this contract.",
        "params": {
          "allocationBytes": "The abi.encode of AssetOutcome.Allocation",
          "channelId": "Unique identifier for a state channel."
        }
      },
      "transferAllAdjudicatorOnly(bytes32,bytes)": {
        "details": "Transfers the funds escrowed against `channelId` and transfers them to the beneficiaries of that channel. No checks performed against storage in this contract. Permissioned.",
        "params": {
          "allocationBytes": "The abi.encode of AssetOutcome.Allocation",
          "channelId": "Unique identifier for a state channel."
        }
      }
    },
    "version": 1
  },
  "userdoc": {
    "kind": "user",
    "methods": {
      "claim(bytes32,bytes,bytes,bytes32)": {
        "notice": "Transfers as many funds escrowed against `guarantorChannelId` as can be afforded for a specific destination in the beneficiaries of the __target__ of that channel. Checks against the storage in this contract."
      },
      "claimAll(bytes32,bytes,bytes)": {
        "notice": "Transfers the funds escrowed against `guarantorChannelId` to the beneficiaries of the __target__ of that channel. Checks against the storage in this contract."
      },
      "constructor": {
        "notice": "Constructor function storing the AdjudicatorAddress."
      },
      "deposit(bytes32,uint256,uint256)": {
        "notice": "Deposit ETH against a given destination."
      },
      "setAssetOutcomeHash(bytes32,bytes32)": {
        "notice": "Sets the given assetOutcomeHash for the given channelId in the assetOutcomeHashes storage mapping."
      },
      "transfer(bytes32,bytes,bytes32)": {
        "notice": "Transfers as many funds escrowed against `channelId` as can be afforded for a specific destination. Assumes no repeated entries."
      },
      "transferAll(bytes32,bytes)": {
        "notice": "Transfers the funds escrowed against `channelId` to the beneficiaries of that channel. Checks against the storage in this contract."
      },
      "transferAllAdjudicatorOnly(bytes32,bytes)": {
        "notice": "Transfers the funds escrowed against `channelId` to the beneficiaries of that channel. No checks performed against storage in this contract. Permissioned."
      }
    },
    "version": 1
  },
  "storageLayout": {
    "storage": [
      {
        "astId": 1021,
        "contract": "contracts/ETHAssetHolder.sol:ETHAssetHolder",
        "label": "AdjudicatorAddress",
        "offset": 0,
        "slot": "0",
        "type": "t_address"
      },
      {
        "astId": 1025,
        "contract": "contracts/ETHAssetHolder.sol:ETHAssetHolder",
        "label": "holdings",
        "offset": 0,
        "slot": "1",
        "type": "t_mapping(t_bytes32,t_uint256)"
      },
      {
        "astId": 1029,
        "contract": "contracts/ETHAssetHolder.sol:ETHAssetHolder",
        "label": "assetOutcomeHashes",
        "offset": 0,
        "slot": "2",
        "type": "t_mapping(t_bytes32,t_bytes32)"
      }
    ],
    "types": {
      "t_address": {
        "encoding": "inplace",
        "label": "address",
        "numberOfBytes": "20"
      },
      "t_bytes32": {
        "encoding": "inplace",
        "label": "bytes32",
        "numberOfBytes": "32"
      },
      "t_mapping(t_bytes32,t_bytes32)": {
        "encoding": "mapping",
        "key": "t_bytes32",
        "label": "mapping(bytes32 => bytes32)",
        "numberOfBytes": "32",
        "value": "t_bytes32"
      },
      "t_mapping(t_bytes32,t_uint256)": {
        "encoding": "mapping",
        "key": "t_bytes32",
        "label": "mapping(bytes32 => uint256)",
        "numberOfBytes": "32",
        "value": "t_uint256"
      },
      "t_uint256": {
        "encoding": "inplace",
        "label": "uint256",
        "numberOfBytes": "32"
      }
    }
  }
}