{
  "address": "0x94Fca2E2F57B25b2D9eA5d4FCEd6c5d8d9ad3172",
  "abi": [
    {
      "anonymous": false,
      "inputs": [
        {
          "indexed": true,
          "internalType": "bytes32",
          "name": "channelId",
          "type": "bytes32"
        },
        {
          "indexed": false,
          "internalType": "uint48",
          "name": "newTurnNumRecord",
          "type": "uint48"
        }
      ],
      "name": "ChallengeCleared",
      "type": "event"
    },
    {
      "anonymous": false,
      "inputs": [
        {
          "indexed": true,
          "internalType": "bytes32",
          "name": "channelId",
          "type": "bytes32"
        },
        {
          "indexed": false,
          "internalType": "uint48",
          "name": "turnNumRecord",
          "type": "uint48"
        },
        {
          "indexed": false,
          "internalType": "uint48",
          "name": "finalizesAt",
          "type": "uint48"
        },
        {
          "indexed": false,
          "internalType": "address",
          "name": "challenger",
          "type": "address"
        },
        {
          "indexed": false,
          "internalType": "bool",
          "name": "isFinal",
          "type": "bool"
        },
        {
          "components": [
            {
              "internalType": "uint256",
              "name": "chainId",
              "type": "uint256"
            },
            {
              "internalType": "address[]",
              "name": "participants",
              "type": "address[]"
            },
            {
              "internalType": "uint48",
              "name": "channelNonce",
              "type": "uint48"
            },
            {
              "internalType": "address",
              "name": "appDefinition",
              "type": "address"
            },
            {
              "internalType": "uint48",
              "name": "challengeDuration",
              "type": "uint48"
            }
          ],
          "indexed": false,
          "internalType": "struct IForceMove.FixedPart",
          "name": "fixedPart",
          "type": "tuple"
        },
        {
          "components": [
            {
              "internalType": "bytes",
              "name": "outcome",
              "type": "bytes"
            },
            {
              "internalType": "bytes",
              "name": "appData",
              "type": "bytes"
            }
          ],
          "indexed": false,
          "internalType": "struct IForceMoveApp.VariablePart[]",
          "name": "variableParts",
          "type": "tuple[]"
        },
        {
          "components": [
            {
              "internalType": "uint8",
              "name": "v",
              "type": "uint8"
            },
            {
              "internalType": "bytes32",
              "name": "r",
              "type": "bytes32"
            },
            {
              "internalType": "bytes32",
              "name": "s",
              "type": "bytes32"
            }
          ],
          "indexed": false,
          "internalType": "struct IForceMove.Signature[]",
          "name": "sigs",
          "type": "tuple[]"
        },
        {
          "indexed": false,
          "internalType": "uint8[]",
          "name": "whoSignedWhat",
          "type": "uint8[]"
        }
      ],
      "name": "ChallengeRegistered",
      "type": "event"
    },
    {
      "anonymous": false,
      "inputs": [
        {
          "indexed": true,
          "internalType": "bytes32",
          "name": "channelId",
          "type": "bytes32"
        },
        {
          "indexed": false,
          "internalType": "uint48",
          "name": "finalizesAt",
          "type": "uint48"
        }
      ],
      "name": "Concluded",
      "type": "event"
    },
    {
      "inputs": [
        {
          "components": [
            {
              "internalType": "uint256",
              "name": "chainId",
              "type": "uint256"
            },
            {
              "internalType": "address[]",
              "name": "participants",
              "type": "address[]"
            },
            {
              "internalType": "uint48",
              "name": "channelNonce",
              "type": "uint48"
            },
            {
              "internalType": "address",
              "name": "appDefinition",
              "type": "address"
            },
            {
              "internalType": "uint48",
              "name": "challengeDuration",
              "type": "uint48"
            }
          ],
          "internalType": "struct IForceMove.FixedPart",
          "name": "fixedPart",
          "type": "tuple"
        },
        {
          "internalType": "uint48",
          "name": "largestTurnNum",
          "type": "uint48"
        },
        {
          "components": [
            {
              "internalType": "bytes",
              "name": "outcome",
              "type": "bytes"
            },
            {
              "internalType": "bytes",
              "name": "appData",
              "type": "bytes"
            }
          ],
          "internalType": "struct IForceMoveApp.VariablePart[]",
          "name": "variableParts",
          "type": "tuple[]"
        },
        {
          "internalType": "uint8",
          "name": "isFinalCount",
          "type": "uint8"
        },
        {
          "components": [
            {
              "internalType": "uint8",
              "name": "v",
              "type": "uint8"
            },
            {
              "internalType": "bytes32",
              "name": "r",
              "type": "bytes32"
            },
            {
              "internalType": "bytes32",
              "name": "s",
              "type": "bytes32"
            }
          ],
          "internalType": "struct IForceMove.Signature[]",
          "name": "sigs",
          "type": "tuple[]"
        },
        {
          "internalType": "uint8[]",
          "name": "whoSignedWhat",
          "type": "uint8[]"
        },
        {
          "components": [
            {
              "internalType": "uint8",
              "name": "v",
              "type": "uint8"
            },
            {
              "internalType": "bytes32",
              "name": "r",
              "type": "bytes32"
            },
            {
              "internalType": "bytes32",
              "name": "s",
              "type": "bytes32"
            }
          ],
          "internalType": "struct IForceMove.Signature",
          "name": "challengerSig",
          "type": "tuple"
        }
      ],
      "name": "challenge",
      "outputs": [],
      "stateMutability": "nonpayable",
      "type": "function"
    },
    {
      "inputs": [
        {
          "internalType": "bytes32",
          "name": "",
          "type": "bytes32"
        }
      ],
      "name": "channelStorageHashes",
      "outputs": [
        {
          "internalType": "bytes32",
          "name": "",
          "type": "bytes32"
        }
      ],
      "stateMutability": "view",
      "type": "function"
    },
    {
      "inputs": [
        {
          "components": [
            {
              "internalType": "uint256",
              "name": "chainId",
              "type": "uint256"
            },
            {
              "internalType": "address[]",
              "name": "participants",
              "type": "address[]"
            },
            {
              "internalType": "uint48",
              "name": "channelNonce",
              "type": "uint48"
            },
            {
              "internalType": "address",
              "name": "appDefinition",
              "type": "address"
            },
            {
              "internalType": "uint48",
              "name": "challengeDuration",
              "type": "uint48"
            }
          ],
          "internalType": "struct IForceMove.FixedPart",
          "name": "fixedPart",
          "type": "tuple"
        },
        {
          "internalType": "uint48",
          "name": "largestTurnNum",
          "type": "uint48"
        },
        {
          "components": [
            {
              "internalType": "bytes",
              "name": "outcome",
              "type": "bytes"
            },
            {
              "internalType": "bytes",
              "name": "appData",
              "type": "bytes"
            }
          ],
          "internalType": "struct IForceMoveApp.VariablePart[]",
          "name": "variableParts",
          "type": "tuple[]"
        },
        {
          "internalType": "uint8",
          "name": "isFinalCount",
          "type": "uint8"
        },
        {
          "components": [
            {
              "internalType": "uint8",
              "name": "v",
              "type": "uint8"
            },
            {
              "internalType": "bytes32",
              "name": "r",
              "type": "bytes32"
            },
            {
              "internalType": "bytes32",
              "name": "s",
              "type": "bytes32"
            }
          ],
          "internalType": "struct IForceMove.Signature[]",
          "name": "sigs",
          "type": "tuple[]"
        },
        {
          "internalType": "uint8[]",
          "name": "whoSignedWhat",
          "type": "uint8[]"
        }
      ],
      "name": "checkpoint",
      "outputs": [],
      "stateMutability": "nonpayable",
      "type": "function"
    },
    {
      "inputs": [
        {
          "internalType": "uint48",
          "name": "largestTurnNum",
          "type": "uint48"
        },
        {
          "components": [
            {
              "internalType": "uint256",
              "name": "chainId",
              "type": "uint256"
            },
            {
              "internalType": "address[]",
              "name": "participants",
              "type": "address[]"
            },
            {
              "internalType": "uint48",
              "name": "channelNonce",
              "type": "uint48"
            },
            {
              "internalType": "address",
              "name": "appDefinition",
              "type": "address"
            },
            {
              "internalType": "uint48",
              "name": "challengeDuration",
              "type": "uint48"
            }
          ],
          "internalType": "struct IForceMove.FixedPart",
          "name": "fixedPart",
          "type": "tuple"
        },
        {
          "internalType": "bytes32",
          "name": "appPartHash",
          "type": "bytes32"
        },
        {
          "internalType": "bytes32",
          "name": "outcomeHash",
          "type": "bytes32"
        },
        {
          "internalType": "uint8",
          "name": "numStates",
          "type": "uint8"
        },
        {
          "internalType": "uint8[]",
          "name": "whoSignedWhat",
          "type": "uint8[]"
        },
        {
          "components": [
            {
              "internalType": "uint8",
              "name": "v",
              "type": "uint8"
            },
            {
              "internalType": "bytes32",
              "name": "r",
              "type": "bytes32"
            },
            {
              "internalType": "bytes32",
              "name": "s",
              "type": "bytes32"
            }
          ],
          "internalType": "struct IForceMove.Signature[]",
          "name": "sigs",
          "type": "tuple[]"
        }
      ],
      "name": "conclude",
      "outputs": [],
      "stateMutability": "nonpayable",
      "type": "function"
    },
    {
      "inputs": [
        {
          "internalType": "uint48",
          "name": "largestTurnNum",
          "type": "uint48"
        },
        {
          "components": [
            {
              "internalType": "uint256",
              "name": "chainId",
              "type": "uint256"
            },
            {
              "internalType": "address[]",
              "name": "participants",
              "type": "address[]"
            },
            {
              "internalType": "uint48",
              "name": "channelNonce",
              "type": "uint48"
            },
            {
              "internalType": "address",
              "name": "appDefinition",
              "type": "address"
            },
            {
              "internalType": "uint48",
              "name": "challengeDuration",
              "type": "uint48"
            }
          ],
          "internalType": "struct IForceMove.FixedPart",
          "name": "fixedPart",
          "type": "tuple"
        },
        {
          "internalType": "bytes32",
          "name": "appPartHash",
          "type": "bytes32"
        },
        {
          "internalType": "bytes",
          "name": "outcomeBytes",
          "type": "bytes"
        },
        {
          "internalType": "uint8",
          "name": "numStates",
          "type": "uint8"
        },
        {
          "internalType": "uint8[]",
          "name": "whoSignedWhat",
          "type": "uint8[]"
        },
        {
          "components": [
            {
              "internalType": "uint8",
              "name": "v",
              "type": "uint8"
            },
            {
              "internalType": "bytes32",
              "name": "r",
              "type": "bytes32"
            },
            {
              "internalType": "bytes32",
              "name": "s",
              "type": "bytes32"
            }
          ],
          "internalType": "struct IForceMove.Signature[]",
          "name": "sigs",
          "type": "tuple[]"
        }
      ],
      "name": "concludePushOutcomeAndTransferAll",
      "outputs": [],
      "stateMutability": "nonpayable",
      "type": "function"
    },
    {
      "inputs": [],
      "name": "getChainID",
      "outputs": [
        {
          "internalType": "uint256",
          "name": "",
          "type": "uint256"
        }
      ],
      "stateMutability": "pure",
      "type": "function"
    },
    {
      "inputs": [
        {
          "internalType": "bytes32",
          "name": "channelId",
          "type": "bytes32"
        }
      ],
      "name": "getChannelStorage",
      "outputs": [
        {
          "internalType": "uint48",
          "name": "turnNumRecord",
          "type": "uint48"
        },
        {
          "internalType": "uint48",
          "name": "finalizesAt",
          "type": "uint48"
        },
        {
          "internalType": "uint160",
          "name": "fingerprint",
          "type": "uint160"
        }
      ],
      "stateMutability": "view",
      "type": "function"
    },
    {
      "inputs": [
        {
          "internalType": "bytes32",
          "name": "channelId",
          "type": "bytes32"
        },
        {
          "internalType": "uint48",
          "name": "turnNumRecord",
          "type": "uint48"
        },
        {
          "internalType": "uint48",
          "name": "finalizesAt",
          "type": "uint48"
        },
        {
          "internalType": "bytes32",
          "name": "stateHash",
          "type": "bytes32"
        },
        {
          "internalType": "address",
          "name": "challengerAddress",
          "type": "address"
        },
        {
          "internalType": "bytes",
          "name": "outcomeBytes",
          "type": "bytes"
        }
      ],
      "name": "pushOutcome",
      "outputs": [],
      "stateMutability": "nonpayable",
      "type": "function"
    },
    {
      "inputs": [
        {
          "internalType": "bytes32",
          "name": "channelId",
          "type": "bytes32"
        },
        {
          "internalType": "uint48",
          "name": "turnNumRecord",
          "type": "uint48"
        },
        {
          "internalType": "uint48",
          "name": "finalizesAt",
          "type": "uint48"
        },
        {
          "internalType": "bytes32",
          "name": "stateHash",
          "type": "bytes32"
        },
        {
          "internalType": "address",
          "name": "challengerAddress",
          "type": "address"
        },
        {
          "internalType": "bytes",
          "name": "outcomeBytes",
          "type": "bytes"
        }
      ],
      "name": "pushOutcomeAndTransferAll",
      "outputs": [],
      "stateMutability": "nonpayable",
      "type": "function"
    },
    {
      "inputs": [
        {
          "internalType": "uint256",
          "name": "numParticipants",
          "type": "uint256"
        },
        {
          "internalType": "uint256",
          "name": "numStates",
          "type": "uint256"
        },
        {
          "internalType": "uint256",
          "name": "numSigs",
          "type": "uint256"
        },
        {
          "internalType": "uint256",
          "name": "numWhoSignedWhats",
          "type": "uint256"
        }
      ],
      "name": "requireValidInput",
      "outputs": [
        {
          "internalType": "bool",
          "name": "",
          "type": "bool"
        }
      ],
      "stateMutability": "pure",
      "type": "function"
    },
    {
      "inputs": [
        {
          "internalType": "address",
          "name": "challenger",
          "type": "address"
        },
        {
          "internalType": "bool[2]",
          "name": "isFinalAB",
          "type": "bool[2]"
        },
        {
          "components": [
            {
              "internalType": "uint256",
              "name": "chainId",
              "type": "uint256"
            },
            {
              "internalType": "address[]",
              "name": "participants",
              "type": "address[]"
            },
            {
              "internalType": "uint48",
              "name": "channelNonce",
              "type": "uint48"
            },
            {
              "internalType": "address",
              "name": "appDefinition",
              "type": "address"
            },
            {
              "internalType": "uint48",
              "name": "challengeDuration",
              "type": "uint48"
            }
          ],
          "internalType": "struct IForceMove.FixedPart",
          "name": "fixedPart",
          "type": "tuple"
        },
        {
          "components": [
            {
              "internalType": "bytes",
              "name": "outcome",
              "type": "bytes"
            },
            {
              "internalType": "bytes",
              "name": "appData",
              "type": "bytes"
            }
          ],
          "internalType": "struct IForceMoveApp.VariablePart[2]",
          "name": "variablePartAB",
          "type": "tuple[2]"
        },
        {
          "components": [
            {
              "internalType": "uint8",
              "name": "v",
              "type": "uint8"
            },
            {
              "internalType": "bytes32",
              "name": "r",
              "type": "bytes32"
            },
            {
              "internalType": "bytes32",
              "name": "s",
              "type": "bytes32"
            }
          ],
          "internalType": "struct IForceMove.Signature",
          "name": "sig",
          "type": "tuple"
        }
      ],
      "name": "respond",
      "outputs": [],
      "stateMutability": "nonpayable",
      "type": "function"
    },
    {
      "inputs": [
        {
          "internalType": "uint256",
          "name": "nParticipants",
          "type": "uint256"
        },
        {
          "internalType": "bool[2]",
          "name": "isFinalAB",
          "type": "bool[2]"
        },
        {
          "components": [
            {
              "internalType": "bytes",
              "name": "outcome",
              "type": "bytes"
            },
            {
              "internalType": "bytes",
              "name": "appData",
              "type": "bytes"
            }
          ],
          "internalType": "struct IForceMoveApp.VariablePart[2]",
          "name": "ab",
          "type": "tuple[2]"
        },
        {
          "internalType": "uint48",
          "name": "turnNumB",
          "type": "uint48"
        },
        {
          "internalType": "address",
          "name": "appDefinition",
          "type": "address"
        }
      ],
      "name": "validTransition",
      "outputs": [
        {
          "internalType": "bool",
          "name": "",
          "type": "bool"
        }
      ],
      "stateMutability": "pure",
      "type": "function"
    }
  ],
  "transactionHash": "0x5482b2e4cde9b0c28bc326c8ec43cb98e85fae1ccf32cf9e47ac939c6563a9c6",
  "args": [],
  "solcInputHash": "ab20556954f60f95e893e4797a67279d",
  "bytecode": "0x608060405234801561001057600080fd5b50612d4f806100206000396000f3fe608060405234801561001057600080fd5b50600436106100b45760003560e01c80637ff6a982116100715780637ff6a98214610145578063be5c2a3114610158578063eb0265141461016b578063f198bea91461017e578063fe9e5db914610191578063ff8ceb32146101b3576100b4565b80630149b762146100b9578063564b81ef146100ce5780635a04d456146100ec5780636775b173146100ff5780636f65e87d1461011f57806374ce052a14610132575b600080fd5b6100cc6100c7366004611d5c565b6101c6565b005b6100d661021e565b6040516100e39190612288565b60405180910390f35b6100cc6100fa366004611c51565b610222565b61011261010d366004611ef1565b610375565b6040516100e3919061227d565b6100d661012d366004611c39565b610390565b6100cc610140366004611c51565b6103a2565b6100cc610153366004611f9d565b61040a565b610112610166366004611f6c565b610423565b6100cc610179366004612059565b6104b0565b6100cc61018c366004611e16565b6104d4565b6101a461019f366004611c39565b610656565b6040516100e393929190612c2f565b6100cc6101c1366004611aa7565b610671565b6101da866020015151855184518451610423565b5060006101e6876107cd565b90506101f181610834565b6101fb818761086b565b61020a868686848b88886108ae565b506102158187610914565b50505050505050565b4690565b61022b866109a2565b6000818051906020012090506102806040518060a001604052808865ffffffffffff1681526020018765ffffffffffff168152602001868152602001856001600160a01b0316815260200183815250886109d5565b6060828060200190518101906102969190611b3e565b905060005b815181101561036a578181815181106102b057fe5b6020026020010151600001516001600160a01b031663a3c863a38a8484815181106102d757fe5b602002602001015160200151805190602001206040518363ffffffff1660e01b8152600401610307929190612291565b602060405180830381600087803b15801561032157600080fd5b505af1158015610335573d6000803e3d6000fd5b505050506040513d601f19601f820116820180604052508101906103599190611c1d565b61036257600080fd5b60010161029b565b505050505050505050565b60006103848686868686610a0f565b90505b95945050505050565b60006020819052908152604090205481565b6103ab866109a2565b6000818051906020012090506104006040518060a001604052808865ffffffffffff1681526020018765ffffffffffff168152602001868152602001856001600160a01b0316815260200183815250886109d5565b6102158783610b7a565b61041987878787878787610c84565b5050505050505050565b60008385101580156104355750600084115b61045a5760405162461bcd60e51b81526004016104519061295f565b60405180910390fd5b848314801561046857508482145b6104845760405162461bcd60e51b81526004016104519061246a565b60ff85106104a45760405162461bcd60e51b8152600401610451906125c6565b5060015b949350505050565b8351602085012060006104c889898985898989610c84565b905061036a8187610b7a565b6104e8876020015151865185518551610423565b5060006104f4886107cd565b9050600061050182610e9d565b600281111561050c57fe5b14156105215761051c8188610ee8565b610550565b600161052c82610e9d565b600281111561053757fe5b14156105475761051c818861086b565b61055081610834565b6000610561888888858d8a8a6108ae565b90506000610574828b6020015186610f27565b9050827f1f9f029de8ab3f81b5381a9bc066b421d0f215db28cc8160ec346bc6f0463c6e8a8c6080015142018460008c60ff16118f8e8d8d6040516105c0989796959493929190612b62565b60405180910390a26106386040518060a001604052808b65ffffffffffff1681526020018c60800151420165ffffffffffff168152602001848152602001836001600160a01b031681526020018a60018c51038151811061061d57fe5b60200260200101516000015180519060200120815250610f88565b60009384526020849052604090932092909255505050505050505050565b600080600061066484610fed565b9196909550909350915050565b600061067c846107cd565b905060008061068a83610fed565b508651518051602091820120818901515180519201919091208a51939550919350916000906106c9908690888c8c865b6020020151602001518861100b565b905060006106e76001808801908d906020020151898d8d60016106ba565b90506107326040518060a001604052808865ffffffffffff1681526020018765ffffffffffff1681526020018481526020018e6001600160a01b0316815260200186815250886110a2565b60208a0151805165ffffffffffff60018901168161074c57fe5b068151811061075757fe5b60200260200101516001600160a01b0316610772828a6110b5565b6001600160a01b0316146107985760405162461bcd60e51b8152600401610451906129d5565b6107b18a60200151518c8b896001018e60600151610a0f565b506107bf8787600101610914565b505050505050505050505050565b60006107d761021e565b8251146107f65760405162461bcd60e51b815260040161045190612509565b6107fe61021e565b6020808401516040808601519051610817949301612aec565b604051602081830303815290604052805190602001209050919050565b600261083f82610e9d565b600281111561084a57fe5b14156108685760405162461bcd60e51b815260040161045190612534565b50565b600061087683610fed565b505090508065ffffffffffff168265ffffffffffff16116108a95760405162461bcd60e51b8152600401610451906123c7565b505050565b600060606108bf89898989896111a8565b90506108d2898660200151838787611379565b6108ee5760405162461bcd60e51b81526004016104519061263f565b806001825103815181106108fe57fe5b6020026020010151915050979650505050505050565b6040805160a08101825265ffffffffffff8316815260006020820181905291810182905260608101829052608081019190915261095090610f88565b60008084815260200190815260200160002081905550817f07da0a0674fb921e484018c8b81d80e292745e5d8ed134b580c8b9c631c5e9e0826040516109969190612b1d565b60405180910390a25050565b60026109ad82610e9d565b60028111156109b857fe5b146108685760405162461bcd60e51b81526004016104519061292f565b6000818152602081905260409020546109ef90839061144f565b610a0b5760405162461bcd60e51b815260040161045190612861565b5050565b602084015160009015610a5257610a318460015b602002015151855151611463565b610a4d5760405162461bcd60e51b8152600401610451906127e6565b610b6e565b845115610a715760405162461bcd60e51b815260040161045190612775565b856002028365ffffffffffff161015610ae057610a8f846001610a23565b610aab5760405162461bcd60e51b81526004016104519061266b565b602084810151810151855190910151610ac49190611463565b610a4d5760405162461bcd60e51b815260040161045190612300565b8351602085015160405163fd7a2f6560e01b81526001600160a01b0385169263fd7a2f6592610b159288908c90600401612aab565b60206040518083038186803b158015610b2d57600080fd5b505afa158015610b41573d6000803e3d6000fd5b505050506040513d601f19601f82011682018060405250810190610b659190611c1d565b610b6e57600080fd5b50600195945050505050565b606081806020019051810190610b909190611b3e565b905060005b8151811015610c7e57610ba66115ce565b828281518110610bb257fe5b602002602001015160200151806020019051810190610bd19190611cd1565b805190915060ff16610c5d57828281518110610be957fe5b6020026020010151600001516001600160a01b031663022cbbe88683602001516040518363ffffffff1660e01b8152600401610c2692919061229f565b600060405180830381600087803b158015610c4057600080fd5b505af1158015610c54573d6000803e3d6000fd5b50505050610c75565b60405162461bcd60e51b8152600401610451906123fe565b50600101610b95565b50505050565b6000610c8f876107cd565b9050610c9a81610834565b610cb08760200151518560ff1684518651610423565b508360ff168860010165ffffffffffff161015610cdf5760405162461bcd60e51b81526004016104519061236a565b610ce8876107cd565b9050610cf381610834565b60608460ff166001600160401b0381118015610d0e57600080fd5b50604051908082528060200260200182016040528015610d38578160200160208202803683370190505b50905060005b8560ff168165ffffffffffff161015610dda576040518060a001604052808760ff16836001018d010365ffffffffffff16815260200160011515815260200184815260200189815260200188815250604051602001610d9d9190612a67565b60405160208183030381529060405280519060200120828265ffffffffffff1681518110610dc757fe5b6020908102919091010152600101610d3e565b50610dec898960200151838688611379565b610e085760405162461bcd60e51b8152600401610451906128af565b6040805160a08101825260008082524265ffffffffffff166020830152918101829052606081019190915260808101879052610e4390610f88565b60008084815260200190815260200160002081905550817f4f465027a3d06ea73dd12be0f5c5fc0a34e21f19d6eaed4834a7a944edabc90142604051610e899190612b1d565b60405180910390a250979650505050505050565b600080610ea983610fed565b5091505065ffffffffffff8116610ec4576000915050610ee3565b428165ffffffffffff1611610edd576002915050610ee3565b60019150505b919050565b6000610ef383610fed565b505090508065ffffffffffff168265ffffffffffff1610156108a95760405162461bcd60e51b815260040161045190612560565b6000610f5984604051602001610f3d91906122b8565b60405160208183030381529060405280519060200120836110b5565b9050610f6581846114c7565b610f815760405162461bcd60e51b815260040161045190612608565b9392505050565b805160208083015160405160009360d01b6001600160d01b03191660a092831b65ffffffffffff60a01b161792610fc191869101612a1c565b60408051601f1981840301815291905280516020909101206001600160a01b0316919091179392505050565b60009081526020819052604090205460d081901c9160a082901c9190565b60006040518060a001604052808865ffffffffffff1681526020018715158152602001868152602001856080015186606001518660405160200161105193929190612b30565b604051602081830303815290604052805190602001208152602001838152506040516020016110809190612a67565b6040516020818303038152906040528051906020012090509695505050505050565b6110ac82826109d5565b610a0b8161151d565b6000806040518060400160405280601c81526020017f19457468657265756d205369676e6564204d6573736167653a0a3332000000008152508460405160200161110092919061225b565b60405160208183030381529060405280519060200120905060006001828560000151866020015187604001516040516000815260200160405260405161114994939291906122e2565b6020604051602081039080840390855afa15801561116b573d6000803e3d6000fd5b5050604051601f1901519150506001600160a01b03811661119e5760405162461bcd60e51b81526004016104519061274a565b9150505b92915050565b60608085516001600160401b03811180156111c257600080fd5b506040519080825280602002602001820160405280156111ec578160200160208202803683370190505b509050600160ff86168803016000805b88518165ffffffffffff16101561136b578089518b0360010101915061127e828465ffffffffffff168465ffffffffffff16101589898d8665ffffffffffff168151811061124657fe5b6020026020010151602001518e8765ffffffffffff168151811061126657fe5b6020026020010151600001518051906020012061100b565b848265ffffffffffff168151811061129257fe5b6020026020010181815250508965ffffffffffff168265ffffffffffff1610156113635761136186602001515160405180604001604052808665ffffffffffff168665ffffffffffff1610151515151581526020018665ffffffffffff168660010165ffffffffffff1610151515151581525060405180604001604052808d8665ffffffffffff168151811061132457fe5b602002602001015181526020018d8660010165ffffffffffff168151811061134857fe5b6020026020010151815250856001018a60600151610a0f565b505b6001016111fc565b509198975050505050505050565b835183516000919061138d84898484611550565b6113a95760405162461bcd60e51b8152600401610451906128fa565b60005b828110156114405760006113fc888784815181106113c657fe5b602002602001015160ff16815181106113db57fe5b60200260200101518884815181106113ef57fe5b60200260200101516110b5565b905088828151811061140a57fe5b60200260200101516001600160a01b0316816001600160a01b031614611437576000945050505050610387565b506001016113ac565b50600198975050505050505050565b60008161145b84610f88565b149392505050565b81518151600091600191811480831461147f57600092506114bd565b600160208701838101602088015b6002848385100114156114b85780518351146114ac5760009650600093505b6020928301920161148d565b505050505b5090949350505050565b6000805b8251811015611513578281815181106114e057fe5b60200260200101516001600160a01b0316846001600160a01b0316141561150b5760019150506111a2565b6001016114cb565b5060009392505050565b600161152882610e9d565b600281111561153357fe5b146108685760405162461bcd60e51b815260040161045190612597565b6000828551146115725760405162461bcd60e51b8152600401610451906126dd565b60005b83811015610b6e57600084828765ffffffffffff168701038161159457fe5b06905083818884815181106115a557fe5b602002602001015160ff160160010110156115c5576000925050506104a8565b50600101611575565b60408051808201909152600081526060602082015290565b8035610ee381612ce7565b600082601f830112611601578081fd5b604051604081018181106001600160401b038211171561161d57fe5b8060405250809150828460408501111561163657600080fd5b60005b600281101561166257813561164d81612cfc565b83526020928301929190910190600101611639565b50505092915050565b600082601f83011261167b578081fd5b813561168e61168982612c7d565b612c5a565b81815291506020808301908481016060808502870183018810156116b157600080fd5b60005b858110156116d8576116c689846119a7565b855293830193918101916001016116b4565b50505050505092915050565b600082601f8301126116f4578081fd5b604051604081018181106001600160401b038211171561171057fe5b6040529050808260005b6002811015611662576117308683358701611a04565b8352602092830192919091019060010161171a565b600082601f830112611755578081fd5b813561176361168982612c7d565b818152915060208083019084810160005b8481101561179d5761178b888484358a0101611a04565b84529282019290820190600101611774565b505050505092915050565b600082601f8301126117b8578081fd5b81356117c661168982612c7d565b8181529150602080830190848101818402860182018710156117e757600080fd5b60005b8481101561179d5781356117fd81612d0a565b845292820192908201906001016117ea565b600082601f83011261181f578081fd5b813561182d61168982612c9a565b915080825283602082850101111561184457600080fd5b8060208401602084013760009082016020015292915050565b600082601f83011261186d578081fd5b815161187b61168982612c9a565b915080825283602082850101111561189257600080fd5b6118a3816020840160208601612cbb565b5092915050565b600060a082840312156118bb578081fd5b60405160a081016001600160401b0382821081831117156118d857fe5b81604052829350843583526020915081850135818111156118f857600080fd5b85019050601f8101861361190b57600080fd5b803561191961168982612c7d565b81815283810190838501858402850186018a101561193657600080fd5b600094505b8385101561196257803561194e81612ce7565b83526001949094019391850191850161193b565b508085870152505050505061197960408401611a86565b604082015261198a606084016115e6565b606082015261199b60808401611a86565b60808201525092915050565b6000606082840312156119b8578081fd5b604051606081018181106001600160401b03821117156119d457fe5b60405290508082356119e581612d0a565b8082525060208301356020820152604083013560408201525092915050565b600060408284031215611a15578081fd5b604051604081016001600160401b038282108183111715611a3257fe5b816040528293508435915080821115611a4a57600080fd5b611a568683870161180f565b83526020850135915080821115611a6c57600080fd5b50611a798582860161180f565b6020830152505092915050565b803565ffffffffffff81168114610ee357600080fd5b8035610ee381612d0a565b60008060008060006101008688031215611abf578081fd5b8535611aca81612ce7565b9450611ad987602088016115f1565b935060608601356001600160401b0380821115611af4578283fd5b611b0089838a016118aa565b94506080880135915080821115611b15578283fd5b50611b22888289016116e4565b925050611b328760a088016119a7565b90509295509295909350565b60006020808385031215611b50578182fd5b82516001600160401b0380821115611b66578384fd5b818501915085601f830112611b79578384fd5b8151611b8761168982612c7d565b81815284810190848601875b84811015611c0e5781518701604080601f19838f03011215611bb3578a8bfd5b80518181018181108a82111715611bc657fe5b8252828b0151611bd581612ce7565b8152908201519088821115611be8578b8cfd5b611bf68e8c8486010161185d565b818c0152865250509287019290870190600101611b93565b50909998505050505050505050565b600060208284031215611c2e578081fd5b8151610f8181612cfc565b600060208284031215611c4a578081fd5b5035919050565b60008060008060008060c08789031215611c69578384fd5b86359550611c7960208801611a86565b9450611c8760408801611a86565b9350606087013592506080870135611c9e81612ce7565b915060a08701356001600160401b03811115611cb8578182fd5b611cc489828a0161180f565b9150509295509295509295565b600060208284031215611ce2578081fd5b81516001600160401b0380821115611cf8578283fd5b9083019060408286031215611d0b578283fd5b604051604081018181108382111715611d2057fe5b6040528251611d2e81612d0a565b8152602083015182811115611d41578485fd5b611d4d8782860161185d565b60208301525095945050505050565b60008060008060008060c08789031215611d74578384fd5b86356001600160401b0380821115611d8a578586fd5b611d968a838b016118aa565b9750611da460208a01611a86565b96506040890135915080821115611db9578586fd5b611dc58a838b01611745565b9550611dd360608a01611a9c565b94506080890135915080821115611de8578384fd5b611df48a838b0161166b565b935060a0890135915080821115611e09578283fd5b50611cc489828a016117a8565b6000806000806000806000610120888a031215611e31578485fd5b87356001600160401b0380821115611e47578687fd5b611e538b838c016118aa565b9850611e6160208b01611a86565b975060408a0135915080821115611e76578687fd5b611e828b838c01611745565b9650611e9060608b01611a9c565b955060808a0135915080821115611ea5578283fd5b611eb18b838c0161166b565b945060a08a0135915080821115611ec6578283fd5b50611ed38a828b016117a8565b925050611ee38960c08a016119a7565b905092959891949750929550565b600080600080600060c08688031215611f08578283fd5b85359450611f1987602088016115f1565b935060608601356001600160401b03811115611f33578384fd5b611f3f888289016116e4565b935050611f4e60808701611a86565b915060a0860135611f5e81612ce7565b809150509295509295909350565b60008060008060808587031215611f81578182fd5b5050823594602084013594506040840135936060013592509050565b600080600080600080600060e0888a031215611fb7578081fd5b611fc088611a86565b965060208801356001600160401b0380821115611fdb578283fd5b611fe78b838c016118aa565b975060408a0135965060608a0135955060808a0135915061200782612d0a565b90935060a0890135908082111561201c578283fd5b6120288b838c016117a8565b935060c08a013591508082111561203d578283fd5b5061204a8a828b0161166b565b91505092959891949750929550565b600080600080600080600060e0888a031215612073578081fd5b61207c88611a86565b965060208801356001600160401b0380821115612097578283fd5b6120a38b838c016118aa565b975060408a0135965060608a01359150808211156120bf578283fd5b6120cb8b838c0161180f565b95506120d960808b01611a9c565b945060a08a013591508082111561201c578283fd5b6000815180845260208085019450808401835b838110156121265781516001600160a01b031687529582019590820190600101612101565b509495945050505050565b6000815180845260208085019450808401835b83811015612126578151805160ff16885283810151848901526040908101519088015260609096019590820190600101612144565b60008282518085526020808601955080818302840101818601855b848110156121c257601f198684030189526121b083835161222d565b98840198925090830190600101612194565b5090979650505050505050565b6000815180845260208085019450808401835b8381101561212657815160ff16875295820195908201906001016121e2565b60008151808452612219816020860160208601612cbb565b601f01601f19169290920160200192915050565b60008151604084526122426040850182612201565b9050602083015184820360208601526103878282612201565b6000835161226d818460208801612cbb565b9190910191825250602001919050565b901515815260200190565b90815260200190565b918252602082015260400190565b6000838252604060208301526104a86040830184612201565b90815260406020820181905260099082015268666f7263654d6f766560b81b606082015260800190565b93845260ff9290921660208401526040830152606082015260800190565b60208082526044908201527f496e76616c69645472616e736974696f6e4572726f723a2043616e6e6f74206360408201527f68616e676520746865206170704461746120647572696e6720736574757020706060820152636861736560e01b608082015260a00190565b6020808252603d908201527f6c6172676573745475726e4e756d202b2031206d75737420626520677265617460408201527f6572207468616e206f7220657175616c20746f206e756d537461746573000000606082015260800190565b6020808252601c908201527f7475726e4e756d5265636f7264206e6f7420696e637265617365642e00000000604082015260600190565b60208082526046908201527f5f7472616e73666572416c6c46726f6d416c6c4173736574486f6c646572733a60408201527f2041737365744f7574636f6d6554797065206973206e6f7420616e20616c6c6f60608201526531b0ba34b7b760d11b608082015260a00190565b60208082526073908201527f466f7263654d6f7665207c20596f75206d7573742070726f766964652065786160408201527f63746c79206f6e65207369676e6174757265207065722070617274696369706160608201527f6e742c20616e64206173736572742077686f207369676e6564207768617420666080820152726f7220616c6c207061727469636970616e747360681b60a082015260c00190565b602080825260119082015270125b98dbdc9c9958dd0818da185a5b9259607a1b604082015260600190565b60208082526012908201527121b430b73732b6103334b730b634bd32b21760711b604082015260600190565b60208082526018908201527f7475726e4e756d5265636f7264206465637265617365642e0000000000000000604082015260600190565b60208082526015908201527427379037b733b7b4b7339031b430b63632b733b29760591b604082015260600190565b60208082526022908201527f466f7263654d6f7665207c20546f6f206d616e79207061727469636970616e74604082015261732160f01b606082015260800190565b6020808252601f908201527f4368616c6c656e676572206973206e6f742061207061727469636970616e7400604082015260600190565b602080825260129082015271496e76616c6964207369676e61747572657360701b604082015260600190565b6020808252604c908201527f496e76616c69645472616e736974696f6e4572726f723a2043616e6e6f74206360408201527f68616e6765207468652064656661756c74206f7574636f6d6520647572696e6760608201526b20736574757020706861736560a01b608082015260a00190565b60208082526047908201527f5f76616c69645369676e6174757265733a2077686f5369676e6564576861742060408201527f6d757374206265207468652073616d65206c656e677468206173207061727469606082015266636970616e747360c81b608082015260a00190565b602080825260119082015270496e76616c6964207369676e617475726560781b604082015260600190565b6020808252604b908201527f496e76616c69645472616e736974696f6e4572726f723a2043616e6e6f74206d60408201527f6f76652066726f6d20612066696e616c20737461746520746f2061206e6f6e2060608201526a66696e616c20737461746560a81b608082015260a00190565b60208082526055908201527f496e76616c69645472616e736974696f6e4572726f723a2043616e6e6f74206d60408201527f6f766520746f20612066696e616c2073746174652077697468206120646966666060820152746572656e742064656661756c74206f7574636f6d6560581b608082015260a00190565b6020808252602e908201527f4368616e6e656c2073746f7261676520646f6573206e6f74206d61746368207360408201526d3a37b932b2103b32b939b4b7b71760911b606082015260800190565b6020808252602b908201527f496e76616c6964207369676e617475726573204f5220697346696e616c3d747260408201526a1d5948195e1c1958dd195960aa1b606082015260800190565b6020808252818101527f556e61636365707461626c652077686f5369676e656457686174206172726179604082015260600190565b60208082526016908201527521b430b73732b6103737ba103334b730b634bd32b21760511b604082015260600190565b60208082526050908201527f466f7263654d6f7665207c20596f75206d757374207375626d6974206174206c60408201527f65617374206f6e6520627574206e6f206d6f7265207468616e206e756d50617260608201526f7469636970616e74732073746174657360801b608082015260a00190565b60208082526027908201527f526573706f6e7365206e6f74207369676e656420627920617574686f72697a65604082015266321036b7bb32b960c91b606082015260800190565b815165ffffffffffff908116825260208084015190911690820152604080830151908201526060808301516001600160a01b0316908201526080918201519181019190915260a00190565b600060a08201905065ffffffffffff835116825260208301511515602083015260408301516040830152606083015160608301526080830151608083015292915050565b600060808252612abe608083018761222d565b8281036020840152612ad0818761222d565b65ffffffffffff95909516604084015250506060015292915050565b600084825260606020830152612b0560608301856120ee565b905065ffffffffffff83166040830152949350505050565b65ffffffffffff91909116815260200190565b65ffffffffffff841681526001600160a01b038316602082015260606040820181905260009061038790830184612201565b600061010065ffffffffffff808c168452808b16602085015260018060a01b03808b16604086015289151560608601528260808601528851838601526020890151925060a0610120860152612bbb6101a08601846120ee565b92508160408a0151166101408601528060608a01511661016086015250806080890151166101808501525082810360a0840152612bf88187612179565b905082810360c0840152612c0c8186612131565b905082810360e0840152612c2081856121cf565b9b9a5050505050505050505050565b65ffffffffffff93841681529190921660208201526001600160a01b03909116604082015260600190565b6040518181016001600160401b0381118282101715612c7557fe5b604052919050565b60006001600160401b03821115612c9057fe5b5060209081020190565b60006001600160401b03821115612cad57fe5b50601f01601f191660200190565b60005b83811015612cd6578181015183820152602001612cbe565b83811115610c7e5750506000910152565b6001600160a01b038116811461086857600080fd5b801515811461086857600080fd5b60ff8116811461086857600080fdfea2646970667358221220ffc3a530c2c47bfbe0e35a49e1195e9456205de712eebc80a948fad0eac70fc064736f6c63430007040033",
  "devdoc": {
    "details": "The NitroAdjudicator contract extends ForceMove and hence inherits all ForceMove methods, and also extends and implements the Adjudicator interface, allowing for a finalized outcome to be pushed to an asset holder.",
    "kind": "dev",
    "methods": {
      "challenge((uint256,address[],uint48,address,uint48),uint48,(bytes,bytes)[],uint8,(uint8,bytes32,bytes32)[],uint8[],(uint8,bytes32,bytes32))": {
        "details": "Registers a challenge against a state channel. A challenge will either prompt another participant into clearing the challenge (via one of the other methods), or cause the channel to finalize at a specific time.",
        "params": {
          "challengerSig": "The signature of a participant on the keccak256 of the abi.encode of (supportedStateHash, 'forceMove').",
          "fixedPart": "Data describing properties of the state channel that do not change with state updates.",
          "isFinalCount": "Describes how many of the submitted states have the `isFinal` property set to `true`. It is implied that the rightmost `isFinalCount` states are final, and the rest are not final.",
          "largestTurnNum": "The largest turn number of the submitted states; will overwrite the stored value of `turnNumRecord`.",
          "sigs": "An array of signatures that support the state with the `largestTurnNum`. There must be one for each participant, e.g.: [sig-from-p0, sig-from-p1, ...]",
          "variableParts": "An ordered array of structs, each decribing the properties of the state channel that may change with each state update. Length is from 1 to the number of participants (inclusive).",
          "whoSignedWhat": "An array denoting which participant has signed which state: `participant[i]` signed the state with index `whoSignedWhat[i]`."
        }
      },
      "checkpoint((uint256,address[],uint48,address,uint48),uint48,(bytes,bytes)[],uint8,(uint8,bytes32,bytes32)[],uint8[])": {
        "details": "Overwrites the `turnNumRecord` stored against a channel by providing a state with higher turn number, supported by a signature from each participant.",
        "params": {
          "fixedPart": "Data describing properties of the state channel that do not change with state updates.",
          "isFinalCount": "Describes how many of the submitted states have the `isFinal` property set to `true`. It is implied that the rightmost `isFinalCount` states are final, and the rest are not final.",
          "largestTurnNum": "The largest turn number of the submitted states; will overwrite the stored value of `turnNumRecord`.",
          "sigs": "An array of signatures that support the state with the `largestTurnNum`.",
          "variableParts": "An ordered array of structs, each decribing the properties of the state channel that may change with each state update.",
          "whoSignedWhat": "An array denoting which participant has signed which state: `participant[i]` signed the state with index `whoSignedWhat[i]`."
        }
      },
      "conclude(uint48,(uint256,address[],uint48,address,uint48),bytes32,bytes32,uint8,uint8[],(uint8,bytes32,bytes32)[])": {
        "details": "Finalizes a channel by providing a finalization proof. External wrapper for _conclude.",
        "params": {
          "appPartHash": "The keccak256 of the abi.encode of `(challengeDuration, appDefinition, appData)`. Applies to all states in the finalization proof.",
          "fixedPart": "Data describing properties of the state channel that do not change with state updates.",
          "largestTurnNum": "The largest turn number of the submitted states; will overwrite the stored value of `turnNumRecord`.",
          "numStates": "The number of states in the finalization proof.",
          "outcomeHash": "The keccak256 of the abi.encode of the `outcome`. Applies to all states in the finalization proof.",
          "sigs": "An array of signatures that support the state with the `largestTurnNum`.",
          "whoSignedWhat": "An array denoting which participant has signed which state: `participant[i]` signed the state with index `whoSignedWhat[i]`."
        }
      },
      "concludePushOutcomeAndTransferAll(uint48,(uint256,address[],uint48,address,uint48),bytes32,bytes,uint8,uint8[],(uint8,bytes32,bytes32)[])": {
        "details": "Finalizes a channel by providing a finalization proof, allows a finalized channel's outcome to be decoded and transferAll to be triggered in external Asset Holder contracts.",
        "params": {
          "appPartHash": "The keccak256 of the abi.encode of `(challengeDuration, appDefinition, appData)`. Applies to all states in the finalization proof.",
          "fixedPart": "Data describing properties of the state channel that do not change with state updates.",
          "largestTurnNum": "The largest turn number of the submitted states; will overwrite the stored value of `turnNumRecord`.",
          "numStates": "The number of states in the finalization proof.",
          "outcomeBytes": "abi.encode of an array of Outcome.OutcomeItem structs.",
          "sigs": "An array of signatures that support the state with the `largestTurnNum`.",
          "whoSignedWhat": "An array denoting which participant has signed which state: `participant[i]` signed the state with index `whoSignedWhat[i]`."
        }
      },
      "getChannelStorage(bytes32)": {
        "details": "Unpacks turnNumRecord, finalizesAt and fingerprint from the channelStorageHash of a particular channel.",
        "params": {
          "channelId": "Unique identifier for a state channel."
        },
        "returns": {
          "finalizesAt": "The unix timestamp when `channelId` will finalize.",
          "fingerprint": "Unique identifier for the channel's current state, up to hash collisions.",
          "turnNumRecord": "A turnNum that (the adjudicator knows) is supported by a signature from each participant."
        }
      },
      "pushOutcome(bytes32,uint48,uint48,bytes32,address,bytes)": {
        "details": "Allows a finalized channel's outcome to be decoded and one or more AssetOutcomes registered in external Asset Holder contracts.",
        "params": {
          "challengerAddress": "The address of the participant whom registered the challenge, if any.",
          "channelId": "Unique identifier for a state channel",
          "finalizesAt": "The unix timestamp when this channel will finalize",
          "outcomeBytes": "The encoded Outcome of this state channel.",
          "stateHash": "The keccak256 of the abi.encode of the State (struct) stored by the adjudicator",
          "turnNumRecord": "A turnNum that (the adjudicator knows and stores) is supported by a signature from each participant."
        }
      },
      "pushOutcomeAndTransferAll(bytes32,uint48,uint48,bytes32,address,bytes)": {
        "details": "Allows a finalized channel's outcome to be decoded and one or more AssetOutcomes registered in external Asset Holder contracts.",
        "params": {
          "challengerAddress": "The address of the participant whom registered the challenge, if any.",
          "channelId": "Unique identifier for a state channel",
          "finalizesAt": "The unix timestamp when this channel will finalize",
          "outcomeBytes": "The encoded Outcome of this state channel.",
          "stateHash": "The keccak256 of the abi.encode of the State (struct) stored by the adjudicator",
          "turnNumRecord": "A turnNum that (the adjudicator knows and stores) is supported by a signature from each participant."
        }
      },
      "requireValidInput(uint256,uint256,uint256,uint256)": {
        "details": "Validates input for several external methods.",
        "params": {
          "numParticipants": "Length of the participants array",
          "numSigs": "Number of signatures submitted",
          "numStates": "Number of states submitted",
          "numWhoSignedWhats": "whoSignedWhat.length"
        }
      },
      "respond(address,bool[2],(uint256,address[],uint48,address,uint48),(bytes,bytes)[2],(uint8,bytes32,bytes32))": {
        "details": "Repsonds to an ongoing challenge registered against a state channel.",
        "params": {
          "challenger": "The address of the participant whom registered the challenge.",
          "fixedPart": "Data describing properties of the state channel that do not change with state updates.",
          "isFinalAB": "An pair of booleans describing if the challenge state and/or the response state have the `isFinal` property set to `true`.",
          "sig": "The responder's signature on the `responseStateHash`.",
          "variablePartAB": "An pair of structs, each decribing the properties of the state channel that may change with each state update (for the challenge state and for the response state)."
        }
      },
      "validTransition(uint256,bool[2],(bytes,bytes)[2],uint48,address)": {
        "details": "Check that the submitted pair of states form a valid transition (public wrapper for internal function _requireValidTransition)",
        "params": {
          "ab": "Variable parts of each of the pair of states",
          "appDefinition": "Address of deployed contract containing application-specific validTransition function.",
          "isFinalAB": "Pair of booleans denoting whether the first and second state (resp.) are final.",
          "nParticipants": "Number of participants in the channel. transition",
          "turnNumB": "turnNum of the later state of the pair."
        },
        "returns": {
          "_0": "true if the later state is a validTransition from its predecessor, reverts otherwise."
        }
      }
    },
    "version": 1
  },
  "userdoc": {
    "kind": "user",
    "methods": {
      "challenge((uint256,address[],uint48,address,uint48),uint48,(bytes,bytes)[],uint8,(uint8,bytes32,bytes32)[],uint8[],(uint8,bytes32,bytes32))": {
        "notice": "Registers a challenge against a state channel. A challenge will either prompt another participant into clearing the challenge (via one of the other methods), or cause the channel to finalize at a specific time."
      },
      "checkpoint((uint256,address[],uint48,address,uint48),uint48,(bytes,bytes)[],uint8,(uint8,bytes32,bytes32)[],uint8[])": {
        "notice": "Overwrites the `turnNumRecord` stored against a channel by providing a state with higher turn number, supported by a signature from each participant."
      },
      "conclude(uint48,(uint256,address[],uint48,address,uint48),bytes32,bytes32,uint8,uint8[],(uint8,bytes32,bytes32)[])": {
        "notice": "Finalizes a channel by providing a finalization proof. External wrapper for _conclude."
      },
      "concludePushOutcomeAndTransferAll(uint48,(uint256,address[],uint48,address,uint48),bytes32,bytes,uint8,uint8[],(uint8,bytes32,bytes32)[])": {
        "notice": "Finalizes a channel by providing a finalization proof, allows a finalized channel's outcome to be decoded and transferAll to be triggered in external Asset Holder contracts."
      },
      "getChannelStorage(bytes32)": {
        "notice": "Unpacks turnNumRecord, finalizesAt and fingerprint from the channelStorageHash of a particular channel."
      },
      "pushOutcome(bytes32,uint48,uint48,bytes32,address,bytes)": {
        "notice": "Allows a finalized channel's outcome to be decoded and one or more AssetOutcomes registered in external Asset Holder contracts."
      },
      "pushOutcomeAndTransferAll(bytes32,uint48,uint48,bytes32,address,bytes)": {
        "notice": "Allows a finalized channel's outcome to be decoded and transferAll to be triggered in external Asset Holder contracts."
      },
      "requireValidInput(uint256,uint256,uint256,uint256)": {
        "notice": "Validates input for several external methods."
      },
      "respond(address,bool[2],(uint256,address[],uint48,address,uint48),(bytes,bytes)[2],(uint8,bytes32,bytes32))": {
        "notice": "Repsonds to an ongoing challenge registered against a state channel."
      },
      "validTransition(uint256,bool[2],(bytes,bytes)[2],uint48,address)": {
        "notice": "Check that the submitted pair of states form a valid transition (public wrapper for internal function _requireValidTransition)"
      }
    },
    "version": 1
  },
  "storageLayout": {
    "storage": [
      {
        "astId": 3163,
        "contract": "contracts/NitroAdjudicator.sol:NitroAdjudicator",
        "label": "channelStorageHashes",
        "offset": 0,
        "slot": "0",
        "type": "t_mapping(t_bytes32,t_bytes32)"
      }
    ],
    "types": {
      "t_bytes32": {
        "encoding": "inplace",
        "label": "bytes32",
        "numberOfBytes": "32"
      },
      "t_mapping(t_bytes32,t_bytes32)": {
        "encoding": "mapping",
        "key": "t_bytes32",
        "label": "mapping(bytes32 => bytes32)",
        "numberOfBytes": "32",
        "value": "t_bytes32"
      }
    }
  }
}