{
  "address": "0x1d25Bbf952781e0c75d248904B5422FeE9FcA558",
  "abi": [
    {
      "anonymous": false,
      "inputs": [
        {
          "indexed": true,
          "internalType": "bytes32",
          "name": "channelId",
          "type": "bytes32"
        },
        {
          "indexed": false,
          "internalType": "uint48",
          "name": "newTurnNumRecord",
          "type": "uint48"
        }
      ],
      "name": "ChallengeCleared",
      "type": "event"
    },
    {
      "anonymous": false,
      "inputs": [
        {
          "indexed": true,
          "internalType": "bytes32",
          "name": "channelId",
          "type": "bytes32"
        },
        {
          "indexed": false,
          "internalType": "uint48",
          "name": "turnNumRecord",
          "type": "uint48"
        },
        {
          "indexed": false,
          "internalType": "uint48",
          "name": "finalizesAt",
          "type": "uint48"
        },
        {
          "indexed": false,
          "internalType": "address",
          "name": "challenger",
          "type": "address"
        },
        {
          "indexed": false,
          "internalType": "bool",
          "name": "isFinal",
          "type": "bool"
        },
        {
          "components": [
            {
              "internalType": "uint256",
              "name": "chainId",
              "type": "uint256"
            },
            {
              "internalType": "address[]",
              "name": "participants",
              "type": "address[]"
            },
            {
              "internalType": "uint48",
              "name": "channelNonce",
              "type": "uint48"
            },
            {
              "internalType": "address",
              "name": "appDefinition",
              "type": "address"
            },
            {
              "internalType": "uint48",
              "name": "challengeDuration",
              "type": "uint48"
            }
          ],
          "indexed": false,
          "internalType": "struct IForceMove.FixedPart",
          "name": "fixedPart",
          "type": "tuple"
        },
        {
          "components": [
            {
              "internalType": "bytes",
              "name": "outcome",
              "type": "bytes"
            },
            {
              "internalType": "bytes",
              "name": "appData",
              "type": "bytes"
            }
          ],
          "indexed": false,
          "internalType": "struct ForceMoveApp.VariablePart[]",
          "name": "variableParts",
          "type": "tuple[]"
        },
        {
          "components": [
            {
              "internalType": "uint8",
              "name": "v",
              "type": "uint8"
            },
            {
              "internalType": "bytes32",
              "name": "r",
              "type": "bytes32"
            },
            {
              "internalType": "bytes32",
              "name": "s",
              "type": "bytes32"
            }
          ],
          "indexed": false,
          "internalType": "struct IForceMove.Signature[]",
          "name": "sigs",
          "type": "tuple[]"
        },
        {
          "indexed": false,
          "internalType": "uint8[]",
          "name": "whoSignedWhat",
          "type": "uint8[]"
        }
      ],
      "name": "ChallengeRegistered",
      "type": "event"
    },
    {
      "anonymous": false,
      "inputs": [
        {
          "indexed": true,
          "internalType": "bytes32",
          "name": "channelId",
          "type": "bytes32"
        }
      ],
      "name": "Concluded",
      "type": "event"
    },
    {
      "inputs": [
        {
          "components": [
            {
              "internalType": "uint256",
              "name": "chainId",
              "type": "uint256"
            },
            {
              "internalType": "address[]",
              "name": "participants",
              "type": "address[]"
            },
            {
              "internalType": "uint48",
              "name": "channelNonce",
              "type": "uint48"
            },
            {
              "internalType": "address",
              "name": "appDefinition",
              "type": "address"
            },
            {
              "internalType": "uint48",
              "name": "challengeDuration",
              "type": "uint48"
            }
          ],
          "internalType": "struct IForceMove.FixedPart",
          "name": "fixedPart",
          "type": "tuple"
        },
        {
          "internalType": "uint48",
          "name": "largestTurnNum",
          "type": "uint48"
        },
        {
          "components": [
            {
              "internalType": "bytes",
              "name": "outcome",
              "type": "bytes"
            },
            {
              "internalType": "bytes",
              "name": "appData",
              "type": "bytes"
            }
          ],
          "internalType": "struct ForceMoveApp.VariablePart[]",
          "name": "variableParts",
          "type": "tuple[]"
        },
        {
          "internalType": "uint8",
          "name": "isFinalCount",
          "type": "uint8"
        },
        {
          "components": [
            {
              "internalType": "uint8",
              "name": "v",
              "type": "uint8"
            },
            {
              "internalType": "bytes32",
              "name": "r",
              "type": "bytes32"
            },
            {
              "internalType": "bytes32",
              "name": "s",
              "type": "bytes32"
            }
          ],
          "internalType": "struct IForceMove.Signature[]",
          "name": "sigs",
          "type": "tuple[]"
        },
        {
          "internalType": "uint8[]",
          "name": "whoSignedWhat",
          "type": "uint8[]"
        },
        {
          "components": [
            {
              "internalType": "uint8",
              "name": "v",
              "type": "uint8"
            },
            {
              "internalType": "bytes32",
              "name": "r",
              "type": "bytes32"
            },
            {
              "internalType": "bytes32",
              "name": "s",
              "type": "bytes32"
            }
          ],
          "internalType": "struct IForceMove.Signature",
          "name": "challengerSig",
          "type": "tuple"
        }
      ],
      "name": "challenge",
      "outputs": [],
      "stateMutability": "nonpayable",
      "type": "function"
    },
    {
      "inputs": [
        {
          "internalType": "bytes32",
          "name": "",
          "type": "bytes32"
        }
      ],
      "name": "channelStorageHashes",
      "outputs": [
        {
          "internalType": "bytes32",
          "name": "",
          "type": "bytes32"
        }
      ],
      "stateMutability": "view",
      "type": "function"
    },
    {
      "inputs": [
        {
          "components": [
            {
              "internalType": "uint256",
              "name": "chainId",
              "type": "uint256"
            },
            {
              "internalType": "address[]",
              "name": "participants",
              "type": "address[]"
            },
            {
              "internalType": "uint48",
              "name": "channelNonce",
              "type": "uint48"
            },
            {
              "internalType": "address",
              "name": "appDefinition",
              "type": "address"
            },
            {
              "internalType": "uint48",
              "name": "challengeDuration",
              "type": "uint48"
            }
          ],
          "internalType": "struct IForceMove.FixedPart",
          "name": "fixedPart",
          "type": "tuple"
        },
        {
          "internalType": "uint48",
          "name": "largestTurnNum",
          "type": "uint48"
        },
        {
          "components": [
            {
              "internalType": "bytes",
              "name": "outcome",
              "type": "bytes"
            },
            {
              "internalType": "bytes",
              "name": "appData",
              "type": "bytes"
            }
          ],
          "internalType": "struct ForceMoveApp.VariablePart[]",
          "name": "variableParts",
          "type": "tuple[]"
        },
        {
          "internalType": "uint8",
          "name": "isFinalCount",
          "type": "uint8"
        },
        {
          "components": [
            {
              "internalType": "uint8",
              "name": "v",
              "type": "uint8"
            },
            {
              "internalType": "bytes32",
              "name": "r",
              "type": "bytes32"
            },
            {
              "internalType": "bytes32",
              "name": "s",
              "type": "bytes32"
            }
          ],
          "internalType": "struct IForceMove.Signature[]",
          "name": "sigs",
          "type": "tuple[]"
        },
        {
          "internalType": "uint8[]",
          "name": "whoSignedWhat",
          "type": "uint8[]"
        }
      ],
      "name": "checkpoint",
      "outputs": [],
      "stateMutability": "nonpayable",
      "type": "function"
    },
    {
      "inputs": [
        {
          "internalType": "uint48",
          "name": "largestTurnNum",
          "type": "uint48"
        },
        {
          "components": [
            {
              "internalType": "uint256",
              "name": "chainId",
              "type": "uint256"
            },
            {
              "internalType": "address[]",
              "name": "participants",
              "type": "address[]"
            },
            {
              "internalType": "uint48",
              "name": "channelNonce",
              "type": "uint48"
            },
            {
              "internalType": "address",
              "name": "appDefinition",
              "type": "address"
            },
            {
              "internalType": "uint48",
              "name": "challengeDuration",
              "type": "uint48"
            }
          ],
          "internalType": "struct IForceMove.FixedPart",
          "name": "fixedPart",
          "type": "tuple"
        },
        {
          "internalType": "bytes32",
          "name": "appPartHash",
          "type": "bytes32"
        },
        {
          "internalType": "bytes32",
          "name": "outcomeHash",
          "type": "bytes32"
        },
        {
          "internalType": "uint8",
          "name": "numStates",
          "type": "uint8"
        },
        {
          "internalType": "uint8[]",
          "name": "whoSignedWhat",
          "type": "uint8[]"
        },
        {
          "components": [
            {
              "internalType": "uint8",
              "name": "v",
              "type": "uint8"
            },
            {
              "internalType": "bytes32",
              "name": "r",
              "type": "bytes32"
            },
            {
              "internalType": "bytes32",
              "name": "s",
              "type": "bytes32"
            }
          ],
          "internalType": "struct IForceMove.Signature[]",
          "name": "sigs",
          "type": "tuple[]"
        }
      ],
      "name": "conclude",
      "outputs": [],
      "stateMutability": "nonpayable",
      "type": "function"
    },
    {
      "inputs": [
        {
          "internalType": "uint48",
          "name": "largestTurnNum",
          "type": "uint48"
        },
        {
          "components": [
            {
              "internalType": "uint256",
              "name": "chainId",
              "type": "uint256"
            },
            {
              "internalType": "address[]",
              "name": "participants",
              "type": "address[]"
            },
            {
              "internalType": "uint48",
              "name": "channelNonce",
              "type": "uint48"
            },
            {
              "internalType": "address",
              "name": "appDefinition",
              "type": "address"
            },
            {
              "internalType": "uint48",
              "name": "challengeDuration",
              "type": "uint48"
            }
          ],
          "internalType": "struct IForceMove.FixedPart",
          "name": "fixedPart",
          "type": "tuple"
        },
        {
          "internalType": "bytes32",
          "name": "appPartHash",
          "type": "bytes32"
        },
        {
          "internalType": "bytes",
          "name": "outcomeBytes",
          "type": "bytes"
        },
        {
          "internalType": "uint8",
          "name": "numStates",
          "type": "uint8"
        },
        {
          "internalType": "uint8[]",
          "name": "whoSignedWhat",
          "type": "uint8[]"
        },
        {
          "components": [
            {
              "internalType": "uint8",
              "name": "v",
              "type": "uint8"
            },
            {
              "internalType": "bytes32",
              "name": "r",
              "type": "bytes32"
            },
            {
              "internalType": "bytes32",
              "name": "s",
              "type": "bytes32"
            }
          ],
          "internalType": "struct IForceMove.Signature[]",
          "name": "sigs",
          "type": "tuple[]"
        }
      ],
      "name": "concludePushOutcomeAndTransferAll",
      "outputs": [],
      "stateMutability": "nonpayable",
      "type": "function"
    },
    {
      "inputs": [
        {
          "internalType": "bytes32",
          "name": "channelId",
          "type": "bytes32"
        }
      ],
      "name": "getChannelStorage",
      "outputs": [
        {
          "internalType": "uint48",
          "name": "turnNumRecord",
          "type": "uint48"
        },
        {
          "internalType": "uint48",
          "name": "finalizesAt",
          "type": "uint48"
        },
        {
          "internalType": "uint160",
          "name": "fingerprint",
          "type": "uint160"
        }
      ],
      "stateMutability": "view",
      "type": "function"
    },
    {
      "inputs": [
        {
          "internalType": "bytes32",
          "name": "channelId",
          "type": "bytes32"
        },
        {
          "internalType": "uint48",
          "name": "turnNumRecord",
          "type": "uint48"
        },
        {
          "internalType": "uint48",
          "name": "finalizesAt",
          "type": "uint48"
        },
        {
          "internalType": "bytes32",
          "name": "stateHash",
          "type": "bytes32"
        },
        {
          "internalType": "address",
          "name": "challengerAddress",
          "type": "address"
        },
        {
          "internalType": "bytes",
          "name": "outcomeBytes",
          "type": "bytes"
        }
      ],
      "name": "pushOutcome",
      "outputs": [],
      "stateMutability": "nonpayable",
      "type": "function"
    },
    {
      "inputs": [
        {
          "internalType": "bytes32",
          "name": "channelId",
          "type": "bytes32"
        },
        {
          "internalType": "uint48",
          "name": "turnNumRecord",
          "type": "uint48"
        },
        {
          "internalType": "uint48",
          "name": "finalizesAt",
          "type": "uint48"
        },
        {
          "internalType": "bytes32",
          "name": "stateHash",
          "type": "bytes32"
        },
        {
          "internalType": "address",
          "name": "challengerAddress",
          "type": "address"
        },
        {
          "internalType": "bytes",
          "name": "outcomeBytes",
          "type": "bytes"
        }
      ],
      "name": "pushOutcomeAndTransferAll",
      "outputs": [],
      "stateMutability": "nonpayable",
      "type": "function"
    },
    {
      "inputs": [
        {
          "internalType": "address",
          "name": "challenger",
          "type": "address"
        },
        {
          "internalType": "bool[2]",
          "name": "isFinalAB",
          "type": "bool[2]"
        },
        {
          "components": [
            {
              "internalType": "uint256",
              "name": "chainId",
              "type": "uint256"
            },
            {
              "internalType": "address[]",
              "name": "participants",
              "type": "address[]"
            },
            {
              "internalType": "uint48",
              "name": "channelNonce",
              "type": "uint48"
            },
            {
              "internalType": "address",
              "name": "appDefinition",
              "type": "address"
            },
            {
              "internalType": "uint48",
              "name": "challengeDuration",
              "type": "uint48"
            }
          ],
          "internalType": "struct IForceMove.FixedPart",
          "name": "fixedPart",
          "type": "tuple"
        },
        {
          "components": [
            {
              "internalType": "bytes",
              "name": "outcome",
              "type": "bytes"
            },
            {
              "internalType": "bytes",
              "name": "appData",
              "type": "bytes"
            }
          ],
          "internalType": "struct ForceMoveApp.VariablePart[2]",
          "name": "variablePartAB",
          "type": "tuple[2]"
        },
        {
          "components": [
            {
              "internalType": "uint8",
              "name": "v",
              "type": "uint8"
            },
            {
              "internalType": "bytes32",
              "name": "r",
              "type": "bytes32"
            },
            {
              "internalType": "bytes32",
              "name": "s",
              "type": "bytes32"
            }
          ],
          "internalType": "struct IForceMove.Signature",
          "name": "sig",
          "type": "tuple"
        }
      ],
      "name": "respond",
      "outputs": [],
      "stateMutability": "nonpayable",
      "type": "function"
    },
    {
      "inputs": [
        {
          "internalType": "uint256",
          "name": "nParticipants",
          "type": "uint256"
        },
        {
          "internalType": "bool[2]",
          "name": "isFinalAB",
          "type": "bool[2]"
        },
        {
          "components": [
            {
              "internalType": "bytes",
              "name": "outcome",
              "type": "bytes"
            },
            {
              "internalType": "bytes",
              "name": "appData",
              "type": "bytes"
            }
          ],
          "internalType": "struct ForceMoveApp.VariablePart[2]",
          "name": "ab",
          "type": "tuple[2]"
        },
        {
          "internalType": "uint48",
          "name": "turnNumB",
          "type": "uint48"
        },
        {
          "internalType": "address",
          "name": "appDefinition",
          "type": "address"
        }
      ],
      "name": "validTransition",
      "outputs": [
        {
          "internalType": "bool",
          "name": "",
          "type": "bool"
        }
      ],
      "stateMutability": "pure",
      "type": "function"
    }
  ],
  "transactionHash": "0xe6088135a8b028687229d09e6550b29b8c91ae40ea2ecf4e22e45af89d30c66a",
  "args": [],
  "solcInputHash": "07c8efabe936280cd467aa2047e8befa",
  "bytecode": "0x608060405234801561001057600080fd5b50614122806100206000396000f3fe608060405234801561001057600080fd5b506004361061009e5760003560e01c80637ff6a982116100665780637ff6a98214610157578063eb02651414610173578063f198bea91461018f578063fe9e5db9146101ab578063ff8ceb32146101dd5761009e565b80630149b762146100a35780635a04d456146100bf5780636775b173146100db5780636f65e87d1461010b57806374ce052a1461013b575b600080fd5b6100bd60048036038101906100b89190612623565b6101f9565b005b6100d960048036038101906100d49190612541565b61023c565b005b6100f560048036038101906100f0919061280b565b6103cd565b604051610102919061379c565b60405180910390f35b61012560048036038101906101209190612518565b6103e7565b60405161013291906137b7565b60405180910390f35b61015560048036038101906101509190612541565b6103ff565b005b610171600480360381019061016c919061289a565b61049c565b005b61018d60048036038101906101889190612980565b6106ef565b005b6101a960048036038101906101a4919061270c565b610927565b005b6101c560048036038101906101c09190612518565b610ae1565b6040516101d493929190613cba565b60405180910390f35b6101f760048036038101906101f29190612406565b610b02565b005b600061020487610d09565b905061020f81610d49565b6102198187610dad565b610228868686848b8888610e13565b506102338187610e9c565b50505050505050565b61024586610f4b565b600081604051602001610258919061389e565b6040516020818303038152906040528051906020012090506102c66040518060a001604052808865ffffffffffff1681526020018765ffffffffffff1681526020018681526020018573ffffffffffffffffffffffffffffffffffffffff1681526020018381525088610fae565b6060828060200190518101906102dc91906124ae565b905060005b81518110156103c2578181815181106102f657fe5b60200260200101516000015173ffffffffffffffffffffffffffffffffffffffff1663a3c863a38a84848151811061032a57fe5b602002602001015160200151805190602001206040518363ffffffff1660e01b815260040161035a9291906137d2565b602060405180830381600087803b15801561037457600080fd5b505af1158015610388573d6000803e3d6000fd5b505050506040513d601f19601f820116820180604052508101906103ac91906124ef565b6103b557600080fd5b80806001019150506102e1565b505050505050505050565b60006103dc868686868661100d565b905095945050505050565b60006020528060005260406000206000915090505481565b61040886610f4b565b60008160405160200161041b919061389e565b6040516020818303038152906040528051906020012090506104896040518060a001604052808865ffffffffffff1681526020018765ffffffffffff1681526020018681526020018573ffffffffffffffffffffffffffffffffffffffff1681526020018381525088610fae565b61049387836112b7565b50505050505050565b60006104a787610d09565b90506104b281610d49565b8360ff166001890165ffffffffffff161015610503576040517f08c379a00000000000000000000000000000000000000000000000000000000081526004016104fa906138e0565b60405180910390fd5b60608460ff1667ffffffffffffffff8111801561051f57600080fd5b5060405190808252806020026020018201604052801561054e5781602001602082028036833780820191505090505b50905060005b8560ff168165ffffffffffff1610156105f6576040518060a001604052808760ff16600184018d010365ffffffffffff168152602001600115158152602001848152602001898152602001888152506040516020016105b39190613b1b565b60405160208183030381529060405280519060200120828265ffffffffffff16815181106105dd57fe5b6020026020010181815250508080600101915050610554565b5061060889896020015183868861140a565b610647576040517f08c379a000000000000000000000000000000000000000000000000000000000815260040161063e90613a80565b60405180910390fd5b6106a16040518060a00160405280600065ffffffffffff1681526020014265ffffffffffff1681526020016000801b8152602001600073ffffffffffffffffffffffffffffffffffffffff16815260200188815250611529565b60008084815260200190815260200160002081905550817f3e659e9176c25a527f4575e010a270b3e1f8e9d1e94f5e49d4a91dd2c59e8cf860405160405180910390a2505050505050505050565b60006106fa87610d09565b905061070581610d49565b60608460ff1667ffffffffffffffff8111801561072157600080fd5b506040519080825280602002602001820160405280156107505781602001602082028036833780820191505090505b509050600086604051602001610766919061389e565b60405160208183030381529060405280519060200120905060005b8660ff168165ffffffffffff161015610823576040518060a001604052808860ff16600184018e010365ffffffffffff1681526020016001151581526020018581526020018a8152602001838152506040516020016107e09190613b1b565b60405160208183030381529060405280519060200120838265ffffffffffff168151811061080a57fe5b6020026020010181815250508080600101915050610781565b506108358a8a6020015184878961140a565b610874576040517f08c379a000000000000000000000000000000000000000000000000000000000815260040161086b906139c0565b60405180910390fd5b6108ce6040518060a00160405280600065ffffffffffff1681526020014265ffffffffffff1681526020016000801b8152602001600073ffffffffffffffffffffffffffffffffffffffff16815260200183815250611529565b60008085815260200190815260200160002081905550827f3e659e9176c25a527f4575e010a270b3e1f8e9d1e94f5e49d4a91dd2c59e8cf860405160405180910390a261091b83886112b7565b50505050505050505050565b600061093288610d09565b90506000600281111561094157fe5b61094a826115be565b600281111561095557fe5b141561096a57610965818861160d565b6109ab565b6001600281111561097757fe5b610980826115be565b600281111561098b57fe5b14156109a05761099b8188610dad565b6109aa565b6109a981610d49565b5b5b60006109bc888888858d8a8a610e13565b905060006109cf828b6020015186611674565b9050827f1f9f029de8ab3f81b5381a9bc066b421d0f215db28cc8160ec346bc6f0463c6e8a8c6080015142018460008c60ff16118f8e8d8d604051610a1b989796959493929190613c20565b60405180910390a2610abf6040518060a001604052808b65ffffffffffff1681526020018c60800151420165ffffffffffff1681526020018481526020018373ffffffffffffffffffffffffffffffffffffffff1681526020018a60018c510381518110610a8557fe5b602002602001015160000151604051602001610aa1919061389e565b60405160208183030381529060405280519060200120815250611529565b6000808581526020019081526020016000208190555050505050505050505050565b6000806000610aef846116f8565b8093508194508295505050509193909250565b6000610b0d84610d09565b9050600080610b1b836116f8565b50915091506000610b4086600060028110610b3257fe5b60200201516000015161174f565b90506000610b6287600160028110610b5457fe5b60200201516000015161174f565b90506000610b9a858b600060028110610b7757fe5b6020020151888c8c600060028110610b8b57fe5b6020020151602001518861177f565b90506000610bd5600187018c600160028110610bb257fe5b6020020151898d8d600160028110610bc657fe5b6020020151602001518861177f565b9050610c2d6040518060a001604052808865ffffffffffff1681526020018765ffffffffffff1681526020018481526020018e73ffffffffffffffffffffffffffffffffffffffff1681526020018681525088611816565b89602001518a60200151516001880165ffffffffffff1681610c4b57fe5b0681518110610c5657fe5b602002602001015173ffffffffffffffffffffffffffffffffffffffff16610c7e828a61182d565b73ffffffffffffffffffffffffffffffffffffffff1614610cd4576040517f08c379a0000000000000000000000000000000000000000000000000000000008152600401610ccb90613ae0565b60405180910390fd5b610ced8a60200151518c8b60018a018e6060015161100d565b50610cfb8760018801610e9c565b505050505050505050505050565b6000816000015182602001518360400151604051602001610d2c93929190613b89565b604051602081830303815290604052805190602001209050919050565b600280811115610d5557fe5b610d5e826115be565b6002811115610d6957fe5b1415610daa576040517f08c379a0000000000000000000000000000000000000000000000000000000008152600401610da190613940565b60405180910390fd5b50565b6000610db8836116f8565b505090508065ffffffffffff168265ffffffffffff1611610e0e576040517f08c379a0000000000000000000000000000000000000000000000000000000008152600401610e0590613900565b60405180910390fd5b505050565b60006060610e2489898989896118fa565b9050610e3789866020015183878761140a565b610e76576040517f08c379a0000000000000000000000000000000000000000000000000000000008152600401610e6d906139c0565b60405180910390fd5b80600182510381518110610e8657fe5b6020026020010151915050979650505050505050565b610ef96040518060a001604052808365ffffffffffff168152602001600065ffffffffffff1681526020016000801b8152602001600073ffffffffffffffffffffffffffffffffffffffff1681526020016000801b815250611529565b60008084815260200190815260200160002081905550817f07da0a0674fb921e484018c8b81d80e292745e5d8ed134b580c8b9c631c5e9e082604051610f3f9190613bc7565b60405180910390a25050565b600280811115610f5757fe5b610f60826115be565b6002811115610f6b57fe5b14610fab576040517f08c379a0000000000000000000000000000000000000000000000000000000008152600401610fa290613ac0565b60405180910390fd5b50565b610fca8260008084815260200190815260200160002054611ae1565b611009576040517f08c379a000000000000000000000000000000000000000000000000000000000815260040161100090613a60565b60405180910390fd5b5050565b60008460016002811061101c57fe5b60200201511561109e5761105a8460016002811061103657fe5b6020020151600001518560006002811061104c57fe5b602002015160000151611af6565b611099576040517f08c379a000000000000000000000000000000000000000000000000000000000815260040161109090613a40565b60405180910390fd5b6112aa565b846000600281106110ab57fe5b6020020151156110f0576040517f08c379a00000000000000000000000000000000000000000000000000000000081526004016110e790613a20565b60405180910390fd5b856002028365ffffffffffff1610156111ee576111378460016002811061111357fe5b6020020151600001518560006002811061112957fe5b602002015160000151611af6565b611176576040517f08c379a000000000000000000000000000000000000000000000000000000000815260040161116d906139e0565b60405180910390fd5b6111aa8460016002811061118657fe5b6020020151602001518560006002811061119c57fe5b602002015160200151611af6565b6111e9576040517f08c379a00000000000000000000000000000000000000000000000000000000081526004016111e0906138c0565b60405180910390fd5b6112a9565b8173ffffffffffffffffffffffffffffffffffffffff1663fd7a2f658560006002811061121757fe5b60200201518660016002811061122957fe5b6020020151868a6040518563ffffffff1660e01b815260040161124f9493929190613b36565b60206040518083038186803b15801561126757600080fd5b505afa15801561127b573d6000803e3d6000fd5b505050506040513d601f19601f8201168201806040525081019061129f91906124ef565b6112a857600080fd5b5b5b6001905095945050505050565b6060818060200190518101906112cd91906124ae565b905060005b8151811015611404576112e3611cf6565b8282815181106112ef57fe5b60200260200101516020015180602001905181019061130e91906125e2565b90506000600181111561131d57fe5b60ff16816000015160ff1614156113bb5782828151811061133a57fe5b60200260200101516000015173ffffffffffffffffffffffffffffffffffffffff1663022cbbe88683602001516040518363ffffffff1660e01b81526004016113849291906137fb565b600060405180830381600087803b15801561139e57600080fd5b505af11580156113b2573d6000803e3d6000fd5b505050506113f6565b6040517f08c379a00000000000000000000000000000000000000000000000000000000081526004016113ed90613920565b60405180910390fd5b5080806001019150506112d2565b50505050565b6000808551905060008551905061142384898484611b63565b611462576040517f08c379a000000000000000000000000000000000000000000000000000000000815260040161145990613aa0565b60405180910390fd5b60005b828110156115185760006114b58887848151811061147f57fe5b602002602001015160ff168151811061149457fe5b60200260200101518884815181106114a857fe5b602002602001015161182d565b90508882815181106114c357fe5b602002602001015173ffffffffffffffffffffffffffffffffffffffff168173ffffffffffffffffffffffffffffffffffffffff161461150a576000945050505050611520565b508080600101915050611465565b506001925050505b95945050505050565b600080600061010090506030810390508061ffff16846000015165ffffffffffff16901b91506030810390508061ffff16846020015165ffffffffffff16901b821791508360405160200161157e9190613b00565b6040516020818303038152906040528051906020012060001c73ffffffffffffffffffffffffffffffffffffffff16821791508160001b92505050919050565b6000806115ca836116f8565b5091505060008165ffffffffffff1614156115e9576000915050611608565b428165ffffffffffff1611611602576002915050611608565b60019150505b919050565b6000611618836116f8565b505090508065ffffffffffff168265ffffffffffff16101561166f576040517f08c379a000000000000000000000000000000000000000000000000000000000815260040161166690613960565b60405180910390fd5b505050565b60006116a68460405160200161168a919061382b565b604051602081830303815290604052805190602001208361182d565b90506116b28184611c17565b6116f1576040517f08c379a00000000000000000000000000000000000000000000000000000000081526004016116e8906139a0565b60405180910390fd5b9392505050565b600080600080600080868152602001908152602001600020549050600061010090506030810390508061ffff168260001c901c94506030810390508061ffff168260001c901c93508160001c925050509193909250565b600081604051602001611762919061389e565b604051602081830303815290604052805190602001209050919050565b60006040518060a001604052808865ffffffffffff168152602001871515815260200186815260200185608001518660600151866040516020016117c593929190613be2565b604051602081830303815290604052805190602001208152602001838152506040516020016117f49190613b1b565b6040516020818303038152906040528051906020012090509695505050505050565b6118208282610fae565b61182981611c92565b5050565b6000806040518060400160405280601c81526020017f19457468657265756d205369676e6564204d6573736167653a0a33320000000081525084604051602001611878929190613774565b6040516020818303038152906040528051906020012090506000600182856000015186602001518760400151604051600081526020016040526040516118c19493929190613859565b6020604051602081039080840390855afa1580156118e3573d6000803e3d6000fd5b505050602060405103519050809250505092915050565b606080855167ffffffffffffffff8111801561191557600080fd5b506040519080825280602002602001820160405280156119445781602001602082028036833780820191505090505b509050600060018660ff168903019050600080600090505b88518165ffffffffffff161015611ad1578060018a518c03010191506119df828465ffffffffffff168465ffffffffffff16101589898d8665ffffffffffff16815181106119a657fe5b6020026020010151602001516119da8f8865ffffffffffff16815181106119c957fe5b60200260200101516000015161174f565b61177f565b848265ffffffffffff16815181106119f357fe5b6020026020010181815250508965ffffffffffff168265ffffffffffff161015611ac457611ac286602001515160405180604001604052808665ffffffffffff168665ffffffffffff1610151515151581526020018665ffffffffffff166001870165ffffffffffff1610151515151581525060405180604001604052808d8665ffffffffffff1681518110611a8557fe5b602002602001015181526020018d6001870165ffffffffffff1681518110611aa957fe5b6020026020010151815250600186018a6060015161100d565b505b808060010191505061195c565b5082935050505095945050505050565b600081611aed84611529565b14905092915050565b6000806001905083518351811460018114611b145760009250611b57565b600160208701838101602088015b600284838510011415611b52578051835114611b415760009650600093505b602083019250602081019050611b22565b505050505b50508091505092915050565b600082855114611ba8576040517f08c379a0000000000000000000000000000000000000000000000000000000008152600401611b9f90613a00565b60405180910390fd5b60005b83811015611c0957600084828765ffffffffffff1687010381611bca57fe5b06905083600182898581518110611bdd57fe5b602002602001015160ff1601011015611bfb57600092505050611c0f565b508080600101915050611bab565b50600190505b949350505050565b600080600090505b8251811015611c8657828181518110611c3457fe5b602002602001015173ffffffffffffffffffffffffffffffffffffffff168473ffffffffffffffffffffffffffffffffffffffff161415611c79576001915050611c8c565b8080600101915050611c1f565b50600090505b92915050565b60016002811115611c9f57fe5b611ca8826115be565b6002811115611cb357fe5b14611cf3576040517f08c379a0000000000000000000000000000000000000000000000000000000008152600401611cea90613980565b60405180910390fd5b50565b6040518060400160405280600060ff168152602001606081525090565b600081359050611d2281614062565b92915050565b600081519050611d3781614062565b92915050565b600082601f830112611d4e57600080fd5b8135611d61611d5c82613d1e565b613cf1565b91508181835260208401935060208101905083856020840282011115611d8657600080fd5b60005b83811015611db65781611d9c8882611d13565b845260208401935060208301925050600181019050611d89565b5050505092915050565b600082601f830112611dd157600080fd5b6002611de4611ddf82613d46565b613cf1565b91508183856020840282011115611dfa57600080fd5b60005b83811015611e2a5781611e108882612087565b845260208401935060208301925050600181019050611dfd565b5050505092915050565b600082601f830112611e4557600080fd5b8151611e58611e5382613d68565b613cf1565b9150818183526020840193506020810190508360005b83811015611e9e5781518601611e848882612272565b845260208401935060208301925050600181019050611e6e565b5050505092915050565b600082601f830112611eb957600080fd5b8135611ecc611ec782613d90565b613cf1565b91508181835260208401935060208101905083856060840282011115611ef157600080fd5b60005b83811015611f215781611f0788826122d6565b845260208401935060608301925050600181019050611ef4565b5050505092915050565b600082601f830112611f3c57600080fd5b6002611f4f611f4a82613db8565b613cf1565b9150818360005b83811015611f865781358601611f6c8882612336565b845260208401935060208301925050600181019050611f56565b5050505092915050565b600082601f830112611fa157600080fd5b8135611fb4611faf82613dda565b613cf1565b9150818183526020840193506020810190508360005b83811015611ffa5781358601611fe08882612336565b845260208401935060208301925050600181019050611fca565b5050505092915050565b600082601f83011261201557600080fd5b813561202861202382613e02565b613cf1565b9150818183526020840193506020810190508385602084028201111561204d57600080fd5b60005b8381101561207d578161206388826123dc565b845260208401935060208301925050600181019050612050565b5050505092915050565b60008135905061209681614079565b92915050565b6000815190506120ab81614079565b92915050565b6000813590506120c081614090565b92915050565b600082601f8301126120d757600080fd5b81356120ea6120e582613e2a565b613cf1565b9150808252602083016020830185838301111561210657600080fd5b612111838284614005565b50505092915050565b600082601f83011261212b57600080fd5b815161213e61213982613e2a565b613cf1565b9150808252602083016020830185838301111561215a57600080fd5b612165838284614014565b50505092915050565b60006040828403121561218057600080fd5b61218a6040613cf1565b9050600061219a848285016123f1565b600083015250602082015167ffffffffffffffff8111156121ba57600080fd5b6121c68482850161211a565b60208301525092915050565b600060a082840312156121e457600080fd5b6121ee60a0613cf1565b905060006121fe848285016123b2565b600083015250602082013567ffffffffffffffff81111561221e57600080fd5b61222a84828501611d3d565b602083015250604061223e848285016123c7565b604083015250606061225284828501611d13565b6060830152506080612266848285016123c7565b60808301525092915050565b60006040828403121561228457600080fd5b61228e6040613cf1565b9050600061229e84828501611d28565b600083015250602082015167ffffffffffffffff8111156122be57600080fd5b6122ca8482850161211a565b60208301525092915050565b6000606082840312156122e857600080fd5b6122f26060613cf1565b90506000612302848285016123dc565b6000830152506020612316848285016120b1565b602083015250604061232a848285016120b1565b60408301525092915050565b60006040828403121561234857600080fd5b6123526040613cf1565b9050600082013567ffffffffffffffff81111561236e57600080fd5b61237a848285016120c6565b600083015250602082013567ffffffffffffffff81111561239a57600080fd5b6123a6848285016120c6565b60208301525092915050565b6000813590506123c1816140a7565b92915050565b6000813590506123d6816140be565b92915050565b6000813590506123eb816140d5565b92915050565b600081519050612400816140d5565b92915050565b6000806000806000610100868803121561241f57600080fd5b600061242d88828901611d13565b955050602061243e88828901611dc0565b945050606086013567ffffffffffffffff81111561245b57600080fd5b612467888289016121d2565b935050608086013567ffffffffffffffff81111561248457600080fd5b61249088828901611f2b565b92505060a06124a1888289016122d6565b9150509295509295909350565b6000602082840312156124c057600080fd5b600082015167ffffffffffffffff8111156124da57600080fd5b6124e684828501611e34565b91505092915050565b60006020828403121561250157600080fd5b600061250f8482850161209c565b91505092915050565b60006020828403121561252a57600080fd5b6000612538848285016120b1565b91505092915050565b60008060008060008060c0878903121561255a57600080fd5b600061256889828a016120b1565b965050602061257989828a016123c7565b955050604061258a89828a016123c7565b945050606061259b89828a016120b1565b93505060806125ac89828a01611d13565b92505060a087013567ffffffffffffffff8111156125c957600080fd5b6125d589828a016120c6565b9150509295509295509295565b6000602082840312156125f457600080fd5b600082015167ffffffffffffffff81111561260e57600080fd5b61261a8482850161216e565b91505092915050565b60008060008060008060c0878903121561263c57600080fd5b600087013567ffffffffffffffff81111561265657600080fd5b61266289828a016121d2565b965050602061267389828a016123c7565b955050604087013567ffffffffffffffff81111561269057600080fd5b61269c89828a01611f90565b94505060606126ad89828a016123dc565b935050608087013567ffffffffffffffff8111156126ca57600080fd5b6126d689828a01611ea8565b92505060a087013567ffffffffffffffff8111156126f357600080fd5b6126ff89828a01612004565b9150509295509295509295565b6000806000806000806000610120888a03121561272857600080fd5b600088013567ffffffffffffffff81111561274257600080fd5b61274e8a828b016121d2565b975050602061275f8a828b016123c7565b965050604088013567ffffffffffffffff81111561277c57600080fd5b6127888a828b01611f90565b95505060606127998a828b016123dc565b945050608088013567ffffffffffffffff8111156127b657600080fd5b6127c28a828b01611ea8565b93505060a088013567ffffffffffffffff8111156127df57600080fd5b6127eb8a828b01612004565b92505060c06127fc8a828b016122d6565b91505092959891949750929550565b600080600080600060c0868803121561282357600080fd5b6000612831888289016123b2565b955050602061284288828901611dc0565b945050606086013567ffffffffffffffff81111561285f57600080fd5b61286b88828901611f2b565b935050608061287c888289016123c7565b92505060a061288d88828901611d13565b9150509295509295909350565b600080600080600080600060e0888a0312156128b557600080fd5b60006128c38a828b016123c7565b975050602088013567ffffffffffffffff8111156128e057600080fd5b6128ec8a828b016121d2565b96505060406128fd8a828b016120b1565b955050606061290e8a828b016120b1565b945050608061291f8a828b016123dc565b93505060a088013567ffffffffffffffff81111561293c57600080fd5b6129488a828b01612004565b92505060c088013567ffffffffffffffff81111561296557600080fd5b6129718a828b01611ea8565b91505092959891949750929550565b600080600080600080600060e0888a03121561299b57600080fd5b60006129a98a828b016123c7565b975050602088013567ffffffffffffffff8111156129c657600080fd5b6129d28a828b016121d2565b96505060406129e38a828b016120b1565b955050606088013567ffffffffffffffff811115612a0057600080fd5b612a0c8a828b016120c6565b9450506080612a1d8a828b016123dc565b93505060a088013567ffffffffffffffff811115612a3a57600080fd5b612a468a828b01612004565b92505060c088013567ffffffffffffffff811115612a6357600080fd5b612a6f8a828b01611ea8565b91505092959891949750929550565b6000612a8a8383612ada565b60208301905092915050565b6000612aa283836135d9565b60608301905092915050565b6000612aba8383613683565b905092915050565b6000612ace8383613756565b60208301905092915050565b612ae381613f94565b82525050565b612af281613f94565b82525050565b6000612b0382613e96565b612b0d8185613f01565b9350612b1883613e56565b8060005b83811015612b49578151612b308882612a7e565b9750612b3b83613ecd565b925050600181019050612b1c565b5085935050505092915050565b6000612b6182613e96565b612b6b8185613f12565b9350612b7683613e56565b8060005b83811015612ba7578151612b8e8882612a7e565b9750612b9983613ecd565b925050600181019050612b7a565b5085935050505092915050565b6000612bbf82613ea1565b612bc98185613f23565b9350612bd483613e66565b8060005b83811015612c05578151612bec8882612a96565b9750612bf783613eda565b925050600181019050612bd8565b5085935050505092915050565b6000612c1d82613eac565b612c278185613f34565b935083602082028501612c3985613e76565b8060005b85811015612c755784840389528151612c568582612aae565b9450612c6183613ee7565b925060208a01995050600181019050612c3d565b50829750879550505050505092915050565b6000612c9282613eb7565b612c9c8185613f45565b9350612ca783613e86565b8060005b83811015612cd8578151612cbf8882612ac2565b9750612cca83613ef4565b925050600181019050612cab565b5085935050505092915050565b612cee81613fa6565b82525050565b612cfd81613fa6565b82525050565b612d0c81613fb2565b82525050565b612d1b81613fb2565b82525050565b612d32612d2d82613fb2565b614047565b82525050565b6000612d4382613ec2565b612d4d8185613f56565b9350612d5d818560208601614014565b612d6681614051565b840191505092915050565b6000612d7c82613ec2565b612d868185613f67565b9350612d96818560208601614014565b612d9f81614051565b840191505092915050565b6000612db582613ec2565b612dbf8185613f78565b9350612dcf818560208601614014565b80840191505092915050565b6000612de8604483613f83565b91507f496e76616c69645472616e736974696f6e4572726f723a2043616e6e6f74206360008301527f68616e676520746865206170704461746120647572696e67207365747570207060208301527f68617365000000000000000000000000000000000000000000000000000000006040830152606082019050919050565b6000612e74603d83613f83565b91507f6c6172676573745475726e4e756d202b2031206d75737420626520677265617460008301527f6572207468616e206f7220657175616c20746f206e756d5374617465730000006020830152604082019050919050565b6000612eda601c83613f83565b91507f7475726e4e756d5265636f7264206e6f7420696e637265617365642e000000006000830152602082019050919050565b6000612f1a604683613f83565b91507f5f7472616e73666572416c6c46726f6d416c6c4173736574486f6c646572733a60008301527f2041737365744f7574636f6d6554797065206973206e6f7420616e20616c6c6f60208301527f636174696f6e00000000000000000000000000000000000000000000000000006040830152606082019050919050565b6000612fa6601283613f83565b91507f4368616e6e656c2066696e616c697a65642e00000000000000000000000000006000830152602082019050919050565b6000612fe6601883613f83565b91507f7475726e4e756d5265636f7264206465637265617365642e00000000000000006000830152602082019050919050565b6000613026601583613f83565b91507f4e6f206f6e676f696e67206368616c6c656e67652e00000000000000000000006000830152602082019050919050565b6000613066601f83613f83565b91507f4368616c6c656e676572206973206e6f742061207061727469636970616e74006000830152602082019050919050565b60006130a6601283613f83565b91507f496e76616c6964207369676e61747572657300000000000000000000000000006000830152602082019050919050565b60006130e6604c83613f83565b91507f496e76616c69645472616e736974696f6e4572726f723a2043616e6e6f74206360008301527f68616e6765207468652064656661756c74206f7574636f6d6520647572696e6760208301527f20736574757020706861736500000000000000000000000000000000000000006040830152606082019050919050565b6000613172604783613f83565b91507f5f76616c69645369676e6174757265733a2077686f5369676e6564576861742060008301527f6d757374206265207468652073616d65206c656e67746820617320706172746960208301527f636970616e7473000000000000000000000000000000000000000000000000006040830152606082019050919050565b60006131fe600983613f83565b91507f666f7263654d6f766500000000000000000000000000000000000000000000006000830152602082019050919050565b600061323e604b83613f83565b91507f496e76616c69645472616e736974696f6e4572726f723a2043616e6e6f74206d60008301527f6f76652066726f6d20612066696e616c20737461746520746f2061206e6f6e2060208301527f66696e616c2073746174650000000000000000000000000000000000000000006040830152606082019050919050565b60006132ca605583613f83565b91507f496e76616c69645472616e736974696f6e4572726f723a2043616e6e6f74206d60008301527f6f766520746f20612066696e616c20737461746520776974682061206469666660208301527f6572656e742064656661756c74206f7574636f6d6500000000000000000000006040830152606082019050919050565b6000613356602e83613f83565b91507f4368616e6e656c2073746f7261676520646f6573206e6f74206d61746368207360008301527f746f7265642076657273696f6e2e0000000000000000000000000000000000006020830152604082019050919050565b60006133bc602b83613f83565b91507f496e76616c6964207369676e617475726573204f5220697346696e616c3d747260008301527f75652065787065637465640000000000000000000000000000000000000000006020830152604082019050919050565b6000613422602083613f83565b91507f556e61636365707461626c652077686f5369676e6564576861742061727261796000830152602082019050919050565b6000613462601683613f83565b91507f4368616e6e656c206e6f742066696e616c697a65642e000000000000000000006000830152602082019050919050565b60006134a2602783613f83565b91507f526573706f6e7365206e6f74207369676e656420627920617574686f72697a6560008301527f64206d6f766572000000000000000000000000000000000000000000000000006020830152604082019050919050565b60a0820160008201516135116000850182613738565b5060208201516135246020850182613738565b5060408201516135376040850182612d03565b50606082015161354a6060850182612ada565b50608082015161355d6080850182612d03565b50505050565b600060a08301600083015161357b600086018261371a565b50602083015184820360208601526135938282612af8565b91505060408301516135a86040860182613738565b5060608301516135bb6060860182612ada565b5060808301516135ce6080860182613738565b508091505092915050565b6060820160008201516135ef6000850182613756565b5060208201516136026020850182612d03565b5060408201516136156040850182612d03565b50505050565b60a0820160008201516136316000850182613738565b5060208201516136446020850182612ce5565b5060408201516136576040850182612d03565b50606082015161366a6060850182612d03565b50608082015161367d6080850182612d03565b50505050565b600060408301600083015184820360008601526136a08282612d38565b915050602083015184820360208601526136ba8282612d38565b9150508091505092915050565b600060408301600083015184820360008601526136e48282612d38565b915050602083015184820360208601526136fe8282612d38565b9150508091505092915050565b61371481613fbc565b82525050565b61372381613fdc565b82525050565b61373281613fdc565b82525050565b61374181613fe6565b82525050565b61375081613fe6565b82525050565b61375f81613ff8565b82525050565b61376e81613ff8565b82525050565b60006137808285612daa565b915061378c8284612d21565b6020820191508190509392505050565b60006020820190506137b16000830184612cf4565b92915050565b60006020820190506137cc6000830184612d12565b92915050565b60006040820190506137e76000830185612d12565b6137f46020830184612d12565b9392505050565b60006040820190506138106000830185612d12565b81810360208301526138228184612d71565b90509392505050565b60006040820190506138406000830184612d12565b8181036020830152613851816131f1565b905092915050565b600060808201905061386e6000830187612d12565b61387b6020830186613765565b6138886040830185612d12565b6138956060830184612d12565b95945050505050565b600060208201905081810360008301526138b88184612d71565b905092915050565b600060208201905081810360008301526138d981612ddb565b9050919050565b600060208201905081810360008301526138f981612e67565b9050919050565b6000602082019050818103600083015261391981612ecd565b9050919050565b6000602082019050818103600083015261393981612f0d565b9050919050565b6000602082019050818103600083015261395981612f99565b9050919050565b6000602082019050818103600083015261397981612fd9565b9050919050565b6000602082019050818103600083015261399981613019565b9050919050565b600060208201905081810360008301526139b981613059565b9050919050565b600060208201905081810360008301526139d981613099565b9050919050565b600060208201905081810360008301526139f9816130d9565b9050919050565b60006020820190508181036000830152613a1981613165565b9050919050565b60006020820190508181036000830152613a3981613231565b9050919050565b60006020820190508181036000830152613a59816132bd565b9050919050565b60006020820190508181036000830152613a7981613349565b9050919050565b60006020820190508181036000830152613a99816133af565b9050919050565b60006020820190508181036000830152613ab981613415565b9050919050565b60006020820190508181036000830152613ad981613455565b9050919050565b60006020820190508181036000830152613af981613495565b9050919050565b600060a082019050613b1560008301846134fb565b92915050565b600060a082019050613b30600083018461361b565b92915050565b60006080820190508181036000830152613b5081876136c7565b90508181036020830152613b6481866136c7565b9050613b736040830185613747565b613b806060830184613729565b95945050505050565b6000606082019050613b9e6000830186613729565b8181036020830152613bb08185612b56565b9050613bbf6040830184613747565b949350505050565b6000602082019050613bdc6000830184613747565b92915050565b6000606082019050613bf76000830186613747565b613c046020830185612ae9565b8181036040830152613c168184612d71565b9050949350505050565b600061010082019050613c36600083018b613747565b613c43602083018a613747565b613c506040830189612ae9565b613c5d6060830188612cf4565b8181036080830152613c6f8187613563565b905081810360a0830152613c838186612c12565b905081810360c0830152613c978185612bb4565b905081810360e0830152613cab8184612c87565b90509998505050505050505050565b6000606082019050613ccf6000830186613747565b613cdc6020830185613747565b613ce9604083018461370b565b949350505050565b6000604051905081810181811067ffffffffffffffff82111715613d1457600080fd5b8060405250919050565b600067ffffffffffffffff821115613d3557600080fd5b602082029050602081019050919050565b600067ffffffffffffffff821115613d5d57600080fd5b602082029050919050565b600067ffffffffffffffff821115613d7f57600080fd5b602082029050602081019050919050565b600067ffffffffffffffff821115613da757600080fd5b602082029050602081019050919050565b600067ffffffffffffffff821115613dcf57600080fd5b602082029050919050565b600067ffffffffffffffff821115613df157600080fd5b602082029050602081019050919050565b600067ffffffffffffffff821115613e1957600080fd5b602082029050602081019050919050565b600067ffffffffffffffff821115613e4157600080fd5b601f19601f8301169050602081019050919050565b6000819050602082019050919050565b6000819050602082019050919050565b6000819050602082019050919050565b6000819050602082019050919050565b600081519050919050565b600081519050919050565b600081519050919050565b600081519050919050565b600081519050919050565b6000602082019050919050565b6000602082019050919050565b6000602082019050919050565b6000602082019050919050565b600082825260208201905092915050565b600082825260208201905092915050565b600082825260208201905092915050565b600082825260208201905092915050565b600082825260208201905092915050565b600082825260208201905092915050565b600082825260208201905092915050565b600081905092915050565b600082825260208201905092915050565b6000613f9f82613fbc565b9050919050565b60008115159050919050565b6000819050919050565b600073ffffffffffffffffffffffffffffffffffffffff82169050919050565b6000819050919050565b600065ffffffffffff82169050919050565b600060ff82169050919050565b82818337600083830152505050565b60005b83811015614032578082015181840152602081019050614017565b83811115614041576000848401525b50505050565b6000819050919050565b6000601f19601f8301169050919050565b61406b81613f94565b811461407657600080fd5b50565b61408281613fa6565b811461408d57600080fd5b50565b61409981613fb2565b81146140a457600080fd5b50565b6140b081613fdc565b81146140bb57600080fd5b50565b6140c781613fe6565b81146140d257600080fd5b50565b6140de81613ff8565b81146140e957600080fd5b5056fea2646970667358221220d85c09aa60926bcd66495cd6d9ed4aa188667019b411d5d015c9a2addf4e22d564736f6c634300060c0033",
  "devdoc": {
    "details": "The NitroAdjudicator contract extends ForceMove and hence inherits all ForceMove methods, and also extends and implements the Adjudicator interface, allowing for a finalized outcome to be pushed to an asset holder.",
    "kind": "dev",
    "methods": {
      "challenge((uint256,address[],uint48,address,uint48),uint48,(bytes,bytes)[],uint8,(uint8,bytes32,bytes32)[],uint8[],(uint8,bytes32,bytes32))": {
        "details": "Registers a challenge against a state channel. A challenge will either prompt another participant into clearing the challenge (via one of the other methods), or cause the channel to finalize at a specific time.",
        "params": {
          "challengerSig": "The signature of a participant on the keccak256 of the abi.encode of (supportedStateHash, 'forceMove').",
          "fixedPart": "Data describing properties of the state channel that do not change with state updates.",
          "isFinalCount": "Describes how many of the submitted states have the `isFinal` property set to `true`. It is implied that the rightmost `isFinalCount` states are final, and the rest are not final.",
          "largestTurnNum": "The largest turn number of the submitted states; will overwrite the stored value of `turnNumRecord`.",
          "sigs": "An array of signatures that support the state with the `largestTurnNum`. There must be one for each participant, e.g.: [sig-from-p0, sig-from-p1, ...]",
          "variableParts": "An ordered array of structs, each decribing the properties of the state channel that may change with each state update. Length is from 1 to the number of participants (inclusive).",
          "whoSignedWhat": "An array denoting which participant has signed which state: `participant[i]` signed the state with index `whoSignedWhat[i]`."
        }
      },
      "checkpoint((uint256,address[],uint48,address,uint48),uint48,(bytes,bytes)[],uint8,(uint8,bytes32,bytes32)[],uint8[])": {
        "details": "Overwrites the `turnNumRecord` stored against a channel by providing a state with higher turn number, supported by a signature from each participant.",
        "params": {
          "fixedPart": "Data describing properties of the state channel that do not change with state updates.",
          "isFinalCount": "Describes how many of the submitted states have the `isFinal` property set to `true`. It is implied that the rightmost `isFinalCount` states are final, and the rest are not final.",
          "largestTurnNum": "The largest turn number of the submitted states; will overwrite the stored value of `turnNumRecord`.",
          "sigs": "An array of signatures that support the state with the `largestTurnNum`.",
          "variableParts": "An ordered array of structs, each decribing the properties of the state channel that may change with each state update.",
          "whoSignedWhat": "An array denoting which participant has signed which state: `participant[i]` signed the state with index `whoSignedWhat[i]`."
        }
      },
      "conclude(uint48,(uint256,address[],uint48,address,uint48),bytes32,bytes32,uint8,uint8[],(uint8,bytes32,bytes32)[])": {
        "details": "Finalizes a channel by providing a finalization proof.",
        "params": {
          "appPartHash": "The keccak256 of the abi.encode of `(challengeDuration, appDefinition, appData)`. Applies to all states in the finalization proof.",
          "fixedPart": "Data describing properties of the state channel that do not change with state updates.",
          "largestTurnNum": "The largest turn number of the submitted states; will overwrite the stored value of `turnNumRecord`.",
          "numStates": "The number of states in the finalization proof.",
          "outcomeHash": "The keccak256 of the abi.encode of the `outcome`. Applies to all stats in the finalization proof.",
          "sigs": "An array of signatures that support the state with the `largestTurnNum`.",
          "whoSignedWhat": "An array denoting which participant has signed which state: `participant[i]` signed the state with index `whoSignedWhat[i]`."
        }
      },
      "concludePushOutcomeAndTransferAll(uint48,(uint256,address[],uint48,address,uint48),bytes32,bytes,uint8,uint8[],(uint8,bytes32,bytes32)[])": {
        "details": "Finalizes a channel by providing a finalization proof, allows a finalized channel's outcome to be decoded and transferAll to be triggered in external Asset Holder contracts.",
        "params": {
          "appPartHash": "The keccak256 of the abi.encode of `(challengeDuration, appDefinition, appData)`. Applies to all states in the finalization proof.",
          "fixedPart": "Data describing properties of the state channel that do not change with state updates.",
          "largestTurnNum": "The largest turn number of the submitted states; will overwrite the stored value of `turnNumRecord`.",
          "numStates": "The number of states in the finalization proof.",
          "outcomeBytes": "abi.encode of an array of Outcome.OutcomeItem structs.",
          "sigs": "An array of signatures that support the state with the `largestTurnNum`.",
          "whoSignedWhat": "An array denoting which participant has signed which state: `participant[i]` signed the state with index `whoSignedWhat[i]`."
        }
      },
      "getChannelStorage(bytes32)": {
        "details": "Unpacks turnNumRecord, finalizesAt and fingerprint from the channelStorageHash of a particular channel.",
        "params": {
          "channelId": "Unique identifier for a state channel."
        },
        "returns": {
          "finalizesAt": "The unix timestamp when `channelId` will finalize.",
          "fingerprint": "Unique identifier for the channel's current state, up to hash collisions.",
          "turnNumRecord": "A turnNum that (the adjudicator knows) is supported by a signature from each participant."
        }
      },
      "pushOutcome(bytes32,uint48,uint48,bytes32,address,bytes)": {
        "details": "Allows a finalized channel's outcome to be decoded and one or more AssetOutcomes registered in external Asset Holder contracts.",
        "params": {
          "challengerAddress": "The address of the participant whom registered the challenge, if any.",
          "channelId": "Unique identifier for a state channel",
          "finalizesAt": "The unix timestamp when this channel will finalize",
          "outcomeBytes": "The encoded Outcome of this state channel.",
          "stateHash": "The keccak256 of the abi.encode of the State (struct) stored by the adjudicator",
          "turnNumRecord": "A turnNum that (the adjudicator knows and stores) is supported by a signature from each participant."
        }
      },
      "pushOutcomeAndTransferAll(bytes32,uint48,uint48,bytes32,address,bytes)": {
        "details": "Allows a finalized channel's outcome to be decoded and one or more AssetOutcomes registered in external Asset Holder contracts.",
        "params": {
          "challengerAddress": "The address of the participant whom registered the challenge, if any.",
          "channelId": "Unique identifier for a state channel",
          "finalizesAt": "The unix timestamp when this channel will finalize",
          "outcomeBytes": "The encoded Outcome of this state channel.",
          "stateHash": "The keccak256 of the abi.encode of the State (struct) stored by the adjudicator",
          "turnNumRecord": "A turnNum that (the adjudicator knows and stores) is supported by a signature from each participant."
        }
      },
      "respond(address,bool[2],(uint256,address[],uint48,address,uint48),(bytes,bytes)[2],(uint8,bytes32,bytes32))": {
        "details": "Repsonds to an ongoing challenge registered against a state channel.",
        "params": {
          "challenger": "The address of the participant whom registered the challenge.",
          "fixedPart": "Data describing properties of the state channel that do not change with state updates.",
          "isFinalAB": "An pair of booleans describing if the challenge state and/or the response state have the `isFinal` property set to `true`.",
          "sig": "The responder's signature on the `responseStateHash`.",
          "variablePartAB": "An pair of structs, each decribing the properties of the state channel that may change with each state update (for the challenge state and for the response state)."
        }
      },
      "validTransition(uint256,bool[2],(bytes,bytes)[2],uint48,address)": {
        "details": "Check that the submitted pair of states form a valid transition (public wrapper for internal function _requireValidTransition)",
        "params": {
          "ab": "Variable parts of each of the pair of states",
          "appDefinition": "Address of deployed contract containing application-specific validTransition function.",
          "isFinalAB": "Pair of booleans denoting whether the first and second state (resp.) are final.",
          "nParticipants": "Number of participants in the channel. transition",
          "turnNumB": "turnNum of the later state of the pair."
        },
        "returns": {
          "_0": "true if the later state is a validTransition from its predecessor, reverts otherwise."
        }
      }
    },
    "version": 1
  },
  "userdoc": {
    "kind": "user",
    "methods": {
      "challenge((uint256,address[],uint48,address,uint48),uint48,(bytes,bytes)[],uint8,(uint8,bytes32,bytes32)[],uint8[],(uint8,bytes32,bytes32))": {
        "notice": "Registers a challenge against a state channel. A challenge will either prompt another participant into clearing the challenge (via one of the other methods), or cause the channel to finalize at a specific time."
      },
      "checkpoint((uint256,address[],uint48,address,uint48),uint48,(bytes,bytes)[],uint8,(uint8,bytes32,bytes32)[],uint8[])": {
        "notice": "Overwrites the `turnNumRecord` stored against a channel by providing a state with higher turn number, supported by a signature from each participant."
      },
      "conclude(uint48,(uint256,address[],uint48,address,uint48),bytes32,bytes32,uint8,uint8[],(uint8,bytes32,bytes32)[])": {
        "notice": "Finalizes a channel by providing a finalization proof."
      },
      "concludePushOutcomeAndTransferAll(uint48,(uint256,address[],uint48,address,uint48),bytes32,bytes,uint8,uint8[],(uint8,bytes32,bytes32)[])": {
        "notice": "Finalizes a channel by providing a finalization proof, allows a finalized channel's outcome to be decoded and transferAll to be triggered in external Asset Holder contracts."
      },
      "getChannelStorage(bytes32)": {
        "notice": "Unpacks turnNumRecord, finalizesAt and fingerprint from the channelStorageHash of a particular channel."
      },
      "pushOutcome(bytes32,uint48,uint48,bytes32,address,bytes)": {
        "notice": "Allows a finalized channel's outcome to be decoded and one or more AssetOutcomes registered in external Asset Holder contracts."
      },
      "pushOutcomeAndTransferAll(bytes32,uint48,uint48,bytes32,address,bytes)": {
        "notice": "Allows a finalized channel's outcome to be decoded and transferAll to be triggered in external Asset Holder contracts."
      },
      "respond(address,bool[2],(uint256,address[],uint48,address,uint48),(bytes,bytes)[2],(uint8,bytes32,bytes32))": {
        "notice": "Repsonds to an ongoing challenge registered against a state channel."
      },
      "validTransition(uint256,bool[2],(bytes,bytes)[2],uint48,address)": {
        "notice": "Check that the submitted pair of states form a valid transition (public wrapper for internal function _requireValidTransition)"
      }
    },
    "version": 1
  },
  "storageLayout": {
    "storage": [
      {
        "astId": 2593,
        "contract": "contracts/NitroAdjudicator.sol:NitroAdjudicator",
        "label": "channelStorageHashes",
        "offset": 0,
        "slot": "0",
        "type": "t_mapping(t_bytes32,t_bytes32)"
      }
    ],
    "types": {
      "t_bytes32": {
        "encoding": "inplace",
        "label": "bytes32",
        "numberOfBytes": "32"
      },
      "t_mapping(t_bytes32,t_bytes32)": {
        "encoding": "mapping",
        "key": "t_bytes32",
        "label": "mapping(bytes32 => bytes32)",
        "numberOfBytes": "32",
        "value": "t_bytes32"
      }
    }
  }
}