{
  "contractName": "Commitment",
  "abi": [
    {
      "constant": true,
      "inputs": [
        {
          "components": [
            {
              "name": "channelType",
              "type": "address"
            },
            {
              "name": "channelNonce",
              "type": "uint32"
            },
            {
              "name": "participants",
              "type": "address[]"
            },
            {
              "name": "commitmentType",
              "type": "uint8"
            },
            {
              "name": "turnNum",
              "type": "uint32"
            },
            {
              "name": "commitmentCount",
              "type": "uint32"
            },
            {
              "name": "destination",
              "type": "address[]"
            },
            {
              "name": "allocation",
              "type": "uint256[]"
            },
            {
              "name": "appAttributes",
              "type": "bytes"
            }
          ],
          "name": "self",
          "type": "tuple"
        }
      ],
      "name": "isPreFundSetup",
      "outputs": [
        {
          "name": "",
          "type": "bool"
        }
      ],
      "payable": false,
      "stateMutability": "pure",
      "type": "function",
      "signature": "0x761b8e41"
    },
    {
      "constant": true,
      "inputs": [
        {
          "components": [
            {
              "name": "channelType",
              "type": "address"
            },
            {
              "name": "channelNonce",
              "type": "uint32"
            },
            {
              "name": "participants",
              "type": "address[]"
            },
            {
              "name": "commitmentType",
              "type": "uint8"
            },
            {
              "name": "turnNum",
              "type": "uint32"
            },
            {
              "name": "commitmentCount",
              "type": "uint32"
            },
            {
              "name": "destination",
              "type": "address[]"
            },
            {
              "name": "allocation",
              "type": "uint256[]"
            },
            {
              "name": "appAttributes",
              "type": "bytes"
            }
          ],
          "name": "self",
          "type": "tuple"
        }
      ],
      "name": "isPostFundSetup",
      "outputs": [
        {
          "name": "",
          "type": "bool"
        }
      ],
      "payable": false,
      "stateMutability": "pure",
      "type": "function",
      "signature": "0x510c2d29"
    },
    {
      "constant": true,
      "inputs": [
        {
          "components": [
            {
              "name": "channelType",
              "type": "address"
            },
            {
              "name": "channelNonce",
              "type": "uint32"
            },
            {
              "name": "participants",
              "type": "address[]"
            },
            {
              "name": "commitmentType",
              "type": "uint8"
            },
            {
              "name": "turnNum",
              "type": "uint32"
            },
            {
              "name": "commitmentCount",
              "type": "uint32"
            },
            {
              "name": "destination",
              "type": "address[]"
            },
            {
              "name": "allocation",
              "type": "uint256[]"
            },
            {
              "name": "appAttributes",
              "type": "bytes"
            }
          ],
          "name": "self",
          "type": "tuple"
        }
      ],
      "name": "isApp",
      "outputs": [
        {
          "name": "",
          "type": "bool"
        }
      ],
      "payable": false,
      "stateMutability": "pure",
      "type": "function",
      "signature": "0x04aa78ba"
    },
    {
      "constant": true,
      "inputs": [
        {
          "components": [
            {
              "name": "channelType",
              "type": "address"
            },
            {
              "name": "channelNonce",
              "type": "uint32"
            },
            {
              "name": "participants",
              "type": "address[]"
            },
            {
              "name": "commitmentType",
              "type": "uint8"
            },
            {
              "name": "turnNum",
              "type": "uint32"
            },
            {
              "name": "commitmentCount",
              "type": "uint32"
            },
            {
              "name": "destination",
              "type": "address[]"
            },
            {
              "name": "allocation",
              "type": "uint256[]"
            },
            {
              "name": "appAttributes",
              "type": "bytes"
            }
          ],
          "name": "self",
          "type": "tuple"
        }
      ],
      "name": "isConclude",
      "outputs": [
        {
          "name": "",
          "type": "bool"
        }
      ],
      "payable": false,
      "stateMutability": "pure",
      "type": "function",
      "signature": "0xcb2ef1cc"
    },
    {
      "constant": true,
      "inputs": [
        {
          "components": [
            {
              "name": "channelType",
              "type": "address"
            },
            {
              "name": "channelNonce",
              "type": "uint32"
            },
            {
              "name": "participants",
              "type": "address[]"
            },
            {
              "name": "commitmentType",
              "type": "uint8"
            },
            {
              "name": "turnNum",
              "type": "uint32"
            },
            {
              "name": "commitmentCount",
              "type": "uint32"
            },
            {
              "name": "destination",
              "type": "address[]"
            },
            {
              "name": "allocation",
              "type": "uint256[]"
            },
            {
              "name": "appAttributes",
              "type": "bytes"
            }
          ],
          "name": "_commitment",
          "type": "tuple"
        }
      ],
      "name": "channelId",
      "outputs": [
        {
          "name": "",
          "type": "address"
        }
      ],
      "payable": false,
      "stateMutability": "pure",
      "type": "function",
      "signature": "0x084d3521"
    },
    {
      "constant": true,
      "inputs": [
        {
          "components": [
            {
              "name": "channelType",
              "type": "address"
            },
            {
              "name": "channelNonce",
              "type": "uint32"
            },
            {
              "name": "participants",
              "type": "address[]"
            },
            {
              "name": "commitmentType",
              "type": "uint8"
            },
            {
              "name": "turnNum",
              "type": "uint32"
            },
            {
              "name": "commitmentCount",
              "type": "uint32"
            },
            {
              "name": "destination",
              "type": "address[]"
            },
            {
              "name": "allocation",
              "type": "uint256[]"
            },
            {
              "name": "appAttributes",
              "type": "bytes"
            }
          ],
          "name": "_commitment",
          "type": "tuple"
        }
      ],
      "name": "mover",
      "outputs": [
        {
          "name": "",
          "type": "address"
        }
      ],
      "payable": false,
      "stateMutability": "pure",
      "type": "function",
      "signature": "0xf180491d"
    },
    {
      "constant": true,
      "inputs": [
        {
          "components": [
            {
              "name": "channelType",
              "type": "address"
            },
            {
              "name": "channelNonce",
              "type": "uint32"
            },
            {
              "name": "participants",
              "type": "address[]"
            },
            {
              "name": "commitmentType",
              "type": "uint8"
            },
            {
              "name": "turnNum",
              "type": "uint32"
            },
            {
              "name": "commitmentCount",
              "type": "uint32"
            },
            {
              "name": "destination",
              "type": "address[]"
            },
            {
              "name": "allocation",
              "type": "uint256[]"
            },
            {
              "name": "appAttributes",
              "type": "bytes"
            }
          ],
          "name": "_commitment",
          "type": "tuple"
        },
        {
          "name": "_v",
          "type": "uint8"
        },
        {
          "name": "_r",
          "type": "bytes32"
        },
        {
          "name": "_s",
          "type": "bytes32"
        }
      ],
      "name": "requireSignature",
      "outputs": [],
      "payable": false,
      "stateMutability": "pure",
      "type": "function",
      "signature": "0x6cb1f6e8"
    },
    {
      "constant": true,
      "inputs": [
        {
          "components": [
            {
              "name": "channelType",
              "type": "address"
            },
            {
              "name": "channelNonce",
              "type": "uint32"
            },
            {
              "name": "participants",
              "type": "address[]"
            },
            {
              "name": "commitmentType",
              "type": "uint8"
            },
            {
              "name": "turnNum",
              "type": "uint32"
            },
            {
              "name": "commitmentCount",
              "type": "uint32"
            },
            {
              "name": "destination",
              "type": "address[]"
            },
            {
              "name": "allocation",
              "type": "uint256[]"
            },
            {
              "name": "appAttributes",
              "type": "bytes"
            }
          ],
          "name": "_commitment",
          "type": "tuple"
        },
        {
          "name": "_v",
          "type": "uint8[]"
        },
        {
          "name": "_r",
          "type": "bytes32[]"
        },
        {
          "name": "_s",
          "type": "bytes32[]"
        }
      ],
      "name": "requireFullySigned",
      "outputs": [],
      "payable": false,
      "stateMutability": "pure",
      "type": "function",
      "signature": "0x020a3a58"
    },
    {
      "constant": true,
      "inputs": [
        {
          "components": [
            {
              "name": "channelType",
              "type": "address"
            },
            {
              "name": "channelNonce",
              "type": "uint32"
            },
            {
              "name": "participants",
              "type": "address[]"
            },
            {
              "name": "commitmentType",
              "type": "uint8"
            },
            {
              "name": "turnNum",
              "type": "uint32"
            },
            {
              "name": "commitmentCount",
              "type": "uint32"
            },
            {
              "name": "destination",
              "type": "address[]"
            },
            {
              "name": "allocation",
              "type": "uint256[]"
            },
            {
              "name": "appAttributes",
              "type": "bytes"
            }
          ],
          "name": "_commitment",
          "type": "tuple"
        },
        {
          "components": [
            {
              "name": "channelType",
              "type": "address"
            },
            {
              "name": "channelNonce",
              "type": "uint32"
            },
            {
              "name": "participants",
              "type": "address[]"
            },
            {
              "name": "commitmentType",
              "type": "uint8"
            },
            {
              "name": "turnNum",
              "type": "uint32"
            },
            {
              "name": "commitmentCount",
              "type": "uint32"
            },
            {
              "name": "destination",
              "type": "address[]"
            },
            {
              "name": "allocation",
              "type": "uint256[]"
            },
            {
              "name": "appAttributes",
              "type": "bytes"
            }
          ],
          "name": "_otherCommitment",
          "type": "tuple"
        }
      ],
      "name": "appAttributesEqual",
      "outputs": [
        {
          "name": "",
          "type": "bool"
        }
      ],
      "payable": false,
      "stateMutability": "pure",
      "type": "function",
      "signature": "0x8806b8a7"
    },
    {
      "constant": true,
      "inputs": [
        {
          "components": [
            {
              "name": "channelType",
              "type": "address"
            },
            {
              "name": "channelNonce",
              "type": "uint32"
            },
            {
              "name": "participants",
              "type": "address[]"
            },
            {
              "name": "commitmentType",
              "type": "uint8"
            },
            {
              "name": "turnNum",
              "type": "uint32"
            },
            {
              "name": "commitmentCount",
              "type": "uint32"
            },
            {
              "name": "destination",
              "type": "address[]"
            },
            {
              "name": "allocation",
              "type": "uint256[]"
            },
            {
              "name": "appAttributes",
              "type": "bytes"
            }
          ],
          "name": "_commitment",
          "type": "tuple"
        },
        {
          "components": [
            {
              "name": "channelType",
              "type": "address"
            },
            {
              "name": "channelNonce",
              "type": "uint32"
            },
            {
              "name": "participants",
              "type": "address[]"
            },
            {
              "name": "commitmentType",
              "type": "uint8"
            },
            {
              "name": "turnNum",
              "type": "uint32"
            },
            {
              "name": "commitmentCount",
              "type": "uint32"
            },
            {
              "name": "destination",
              "type": "address[]"
            },
            {
              "name": "allocation",
              "type": "uint256[]"
            },
            {
              "name": "appAttributes",
              "type": "bytes"
            }
          ],
          "name": "_otherCommitment",
          "type": "tuple"
        }
      ],
      "name": "allocationsEqual",
      "outputs": [
        {
          "name": "",
          "type": "bool"
        }
      ],
      "payable": false,
      "stateMutability": "pure",
      "type": "function",
      "signature": "0xa5885bbd"
    },
    {
      "constant": true,
      "inputs": [
        {
          "components": [
            {
              "name": "channelType",
              "type": "address"
            },
            {
              "name": "channelNonce",
              "type": "uint32"
            },
            {
              "name": "participants",
              "type": "address[]"
            },
            {
              "name": "commitmentType",
              "type": "uint8"
            },
            {
              "name": "turnNum",
              "type": "uint32"
            },
            {
              "name": "commitmentCount",
              "type": "uint32"
            },
            {
              "name": "destination",
              "type": "address[]"
            },
            {
              "name": "allocation",
              "type": "uint256[]"
            },
            {
              "name": "appAttributes",
              "type": "bytes"
            }
          ],
          "name": "_commitment",
          "type": "tuple"
        },
        {
          "components": [
            {
              "name": "channelType",
              "type": "address"
            },
            {
              "name": "channelNonce",
              "type": "uint32"
            },
            {
              "name": "participants",
              "type": "address[]"
            },
            {
              "name": "commitmentType",
              "type": "uint8"
            },
            {
              "name": "turnNum",
              "type": "uint32"
            },
            {
              "name": "commitmentCount",
              "type": "uint32"
            },
            {
              "name": "destination",
              "type": "address[]"
            },
            {
              "name": "allocation",
              "type": "uint256[]"
            },
            {
              "name": "appAttributes",
              "type": "bytes"
            }
          ],
          "name": "_otherCommitment",
          "type": "tuple"
        }
      ],
      "name": "destinationsEqual",
      "outputs": [
        {
          "name": "",
          "type": "bool"
        }
      ],
      "payable": false,
      "stateMutability": "pure",
      "type": "function",
      "signature": "0x9963c401"
    }
  ],
  "bytecode": "0x6110fa610030600b82828239805160001a6073146000811461002057610022565bfe5b5030600052607381538281f3fe73000000000000000000000000000000000000000030146080604052600436106100c55763ffffffff7c0100000000000000000000000000000000000000000000000000000000600035041663361e823681146100ca5780635bf1ccdf146100f357806361aa2c5d146101085780636dc7fc8d1461012857806373dca1f21461013b5780637679a8e41461014e578063b962f54214610161578063bfea929814610174578063c2a67cff14610187578063d30162b91461019a578063e647226b146101ad575b600080fd5b6100dd6100d8366004610c2a565b6101c0565b6040516100ea9190610f97565b60405180910390f35b610106610101366004610b6a565b610276565b005b61011b610116366004610b2d565b610373565b6040516100ea9190610f89565b6100dd610136366004610c2a565b6103b2565b6100dd610149366004610b2d565b610481565b6100dd61015c366004610b2d565b610496565b6100dd61016f366004610b2d565b61049e565b6100dd610182366004610b2d565b6104a7565b61011b610195366004610b2d565b6104b0565b6100dd6101a8366004610c2a565b61057b565b6101066101bb366004610c93565b610606565b60008160c0015160405160200180828051906020019060200280838360005b838110156101f75781810151838201526020016101df565b50505050905001915050604051602081830303815290604052805190602001208360c0015160405160200180828051906020019060200280838360005b8381101561024c578181015183820152602001610234565b50505050905001915050604051602081830303815290604052805190602001201490505b92915050565b60005b84604001515181101561036c576102f68560405160200161029a9190610fc5565b60405160208183030381529060405285838151811015156102b757fe5b9060200190602002015185848151811015156102cf57fe5b9060200190602002015185858151811015156102e757fe5b90602001906020020151610689565b600160a060020a031685604001518281518110151561031157fe5b60209081029091010151600160a060020a031614610364576040517f08c379a000000000000000000000000000000000000000000000000000000000815260040161035b90610fa5565b60405180910390fd5b600101610279565b5050505050565b60008160400151826040015151836080015163ffffffff1681151561039457fe5b068151811015156103a157fe5b906020019060200201519050919050565b60008161010001516040518082805190602001908083835b602083106103e95780518252601f1990920191602091820191016103ca565b6001836020036101000a03801982511681845116808217855250505050505090500191505060405180910390208361010001516040518082805190602001908083835b6020831061044b5780518252601f19909201916020918201910161042c565b6001836020036101000a038019825116818451168082178552505050505050905001915050604051809103902014905092915050565b600060035b826060015160ff16149050919050565b600080610486565b60006001610486565b60006002610486565b6000808260000151836020015184604001516040516020018084600160a060020a0316600160a060020a03166c010000000000000000000000000281526014018363ffffffff1663ffffffff167c0100000000000000000000000000000000000000000000000000000000028152600401828051906020019060200280838360005b8381101561054a578181015183820152602001610532565b50506040805193909501838103601f1901845290945250805160209091012060008190529998505050505050505050565b60008160e0015160405160200180828051906020019060200280838360005b838110156105b257818101518382015260200161059a565b50505050905001915050604051602081830303815290604052805190602001208360e0015160405160200180828051906020019060200280838360008381101561024c578181015183820152602001610234565b6106318460405160200161061a9190610fc5565b604051602081830303815290604052848484610689565b600160a060020a031661064385610373565b600160a060020a031614610683576040517f08c379a000000000000000000000000000000000000000000000000000000000815260040161035b90610fb5565b50505050565b604080518082018252601c8082527f19457468657265756d205369676e6564204d6573736167653a0a333200000000602080840191825288518982012094516000959386938693869301918291908083835b602083106106fa5780518252601f1990920191602091820191016106db565b51815160209384036101000a600019018019909216911617905292019384525060408051808503815284830180835281519184019190912060009182905282860180845281905260ff8e166060870152608086018d905260a086018c90529151919650945060019360c08082019450601f19830192918290030190855afa158015610789573d6000803e3d6000fd5b5050604051601f1901519a9950505050505050505050565b60006107ad8235611050565b9392505050565b6000601f820183136107c557600080fd5b81356107d86107d382610ffd565b610fd6565b915081818352602084019350602081019050838560208402820111156107fd57600080fd5b60005b83811015610829578161081388826107a1565b8452506020928301929190910190600101610800565b5050505092915050565b6000601f8201831361084457600080fd5b81356108526107d382610ffd565b9150818183526020840193506020810190508385602084028201111561087757600080fd5b60005b83811015610829578161088d8882610983565b845250602092830192919091019060010161087a565b6000601f820183136108b457600080fd5b81356108c26107d382610ffd565b915081818352602084019350602081019050838560208402820111156108e757600080fd5b60005b8381101561082957816108fd8882610983565b84525060209283019291909101906001016108ea565b6000601f8201831361092457600080fd5b81356109326107d382610ffd565b9150818183526020840193506020810190508385602084028201111561095757600080fd5b60005b83811015610829578161096d8882610b21565b845250602092830192919091019060010161095a565b60006107ad823561106c565b6000601f820183136109a057600080fd5b81356109ae6107d38261101e565b915080825260208301602083018583830111156109ca57600080fd5b6109d583828461107e565b50505092915050565b600061012082840312156109f157600080fd5b6109fc610120610fd6565b90506000610a0a84846107a1565b8252506020610a1b84848301610b15565b602083015250604082013567ffffffffffffffff811115610a3b57600080fd5b610a47848285016107b4565b6040830152506060610a5b84828501610b21565b6060830152506080610a6f84828501610b15565b60808301525060a0610a8384828501610b15565b60a08301525060c082013567ffffffffffffffff811115610aa357600080fd5b610aaf848285016107b4565b60c08301525060e082013567ffffffffffffffff811115610acf57600080fd5b610adb848285016108a3565b60e08301525061010082013567ffffffffffffffff811115610afc57600080fd5b610b088482850161098f565b6101008301525092915050565b60006107ad823561106f565b60006107ad8235611078565b600060208284031215610b3f57600080fd5b813567ffffffffffffffff811115610b5657600080fd5b610b62848285016109de565b949350505050565b60008060008060808587031215610b8057600080fd5b843567ffffffffffffffff811115610b9757600080fd5b610ba3878288016109de565b945050602085013567ffffffffffffffff811115610bc057600080fd5b610bcc87828801610913565b935050604085013567ffffffffffffffff811115610be957600080fd5b610bf587828801610833565b925050606085013567ffffffffffffffff811115610c1257600080fd5b610c1e87828801610833565b91505092959194509250565b60008060408385031215610c3d57600080fd5b823567ffffffffffffffff811115610c5457600080fd5b610c60858286016109de565b925050602083013567ffffffffffffffff811115610c7d57600080fd5b610c89858286016109de565b9150509250929050565b60008060008060808587031215610ca957600080fd5b843567ffffffffffffffff811115610cc057600080fd5b610ccc878288016109de565b9450506020610cdd87828801610b21565b9350506040610cee87828801610983565b9250506060610c1e87828801610983565b610d0881611050565b82525050565b6000610d198261104c565b808452602084019350610d2b83611046565b60005b82811015610d5b57610d41868351610cff565b610d4a82611046565b602096909601959150600101610d2e565b5093949350505050565b6000610d708261104c565b808452602084019350610d8283611046565b60005b82811015610d5b57610d98868351610f6e565b610da182611046565b602096909601959150600101610d85565b610d088161105b565b6000610dc68261104c565b808452610dda81602086016020860161108a565b610de3816110b6565b9093016020019392505050565b602681527f616c6c206d6f76657273206d7573742068617665207369676e656420436f6d6d60208201527f69746d656e740000000000000000000000000000000000000000000000000000604082015260600190565b602181527f6d6f766572206d7573742068617665207369676e656420436f6d6d69746d656e60208201527f7400000000000000000000000000000000000000000000000000000000000000604082015260600190565b8051600090610120840190610eb18582610cff565b506020830151610ec46020860182610f77565b5060408301518482036040860152610edc8282610d0e565b9150506060830151610ef16060860182610f80565b506080830151610f046080860182610f77565b5060a0830151610f1760a0860182610f77565b5060c083015184820360c0860152610f2f8282610d0e565b91505060e083015184820360e0860152610f498282610d65565b915050610100830151848203610100860152610f658282610dbb565b95945050505050565b610d088161106c565b610d088161106f565b610d0881611078565b602081016102708284610cff565b602081016102708284610db2565b6020808252810161027081610df0565b6020808252810161027081610e46565b602080825281016107ad8184610e9c565b60405181810167ffffffffffffffff81118282101715610ff557600080fd5b604052919050565b600067ffffffffffffffff82111561101457600080fd5b5060209081020190565b600067ffffffffffffffff82111561103557600080fd5b506020601f91909101601f19160190565b60200190565b5190565b600061027082611060565b151590565b600160a060020a031690565b90565b63ffffffff1690565b60ff1690565b82818337506000910152565b60005b838110156110a557818101518382015260200161108d565b838111156106835750506000910152565b601f01601f19169056fea265627a7a72305820ef4e7c04a1e8f3a196c8e75330c2c56cea65ddaf8991003244fcdb42c1da68556c6578706572696d656e74616cf50037",
  "source": "pragma solidity ^0.5.0;\npragma experimental ABIEncoderV2;\n\nlibrary Commitment {\n    enum CommitmentType { PreFundSetup, PostFundSetup, App, Conclude }\n\n    struct CommitmentStruct {\n        address channelType;\n        uint32 channelNonce;\n        address[] participants;\n        uint8 commitmentType;\n        uint32 turnNum;\n        uint32 commitmentCount;\n        address[] destination;\n        uint256[] allocation;\n        bytes appAttributes;\n    }\n\n    function isPreFundSetup(CommitmentStruct memory self) public pure returns (bool) {\n        return self.commitmentType == uint(CommitmentType.PreFundSetup);\n    }\n\n    function isPostFundSetup(CommitmentStruct memory self) public pure returns (bool) {\n        return self.commitmentType == uint(CommitmentType.PostFundSetup);\n    }\n\n    function isApp(CommitmentStruct memory self) public pure returns (bool) {\n        return self.commitmentType == uint(CommitmentType.App);\n    }\n\n    function isConclude(CommitmentStruct memory self) public pure returns (bool) {\n        return self.commitmentType == uint(CommitmentType.Conclude);\n    }\n\n    function channelId(CommitmentStruct memory _commitment) public pure returns (address) {\n        bytes32 h = keccak256(\n            abi.encodePacked(_commitment.channelType, _commitment.channelNonce, _commitment.participants)\n        );\n        address addr;\n        assembly {\n            mstore(0, h)\n        addr := mload(0)\n        } \n        return addr;\n    }\n\n    function mover(CommitmentStruct memory _commitment) public pure returns (address) {\n        return _commitment.participants[_commitment.turnNum % _commitment.participants.length];\n    }\n\n    function requireSignature(CommitmentStruct memory _commitment, uint8 _v, bytes32 _r, bytes32 _s) public pure {\n        require(\n            mover(_commitment) == recoverSigner(abi.encode(_commitment), _v, _r, _s),\n            \"mover must have signed Commitment\"\n        );\n    }\n\n    function requireFullySigned(CommitmentStruct memory _commitment, uint8[] memory _v, bytes32[] memory _r, bytes32[] memory _s) public pure {\n        for(uint i = 0; i < _commitment.participants.length; i++) {\n            require(\n                _commitment.participants[i] == recoverSigner(abi.encode(_commitment), _v[i], _r[i], _s[i]),\n                \"all movers must have signed Commitment\"\n            );\n        }\n    }\n\n    function appAttributesEqual(CommitmentStruct memory _commitment, CommitmentStruct memory _otherCommitment) public pure returns (bool) {\n        return keccak256(_commitment.appAttributes) == keccak256(_otherCommitment.appAttributes);\n    }\n\n    function allocationsEqual(CommitmentStruct memory _commitment, CommitmentStruct memory _otherCommitment) public pure returns (bool) {\n        return keccak256(abi.encodePacked(_commitment.allocation)) == keccak256(abi.encodePacked(_otherCommitment.allocation));\n    }\n\n    function destinationsEqual(CommitmentStruct memory _commitment, CommitmentStruct memory _otherCommitment) public pure returns (bool) {\n        return keccak256(abi.encodePacked(_commitment.destination)) == keccak256(abi.encodePacked(_otherCommitment.destination));\n    }\n\n    // utilities\n    // =========\n\n    function recoverSigner(bytes memory _d, uint8 _v, bytes32 _r, bytes32 _s) internal pure returns(address) {\n        bytes memory prefix = \"\\x19Ethereum Signed Message:\\n32\";\n        bytes32 h = keccak256(_d);\n\n        bytes32 prefixedHash = keccak256(abi.encodePacked(prefix, h));\n\n        address a = ecrecover(prefixedHash, _v, _r, _s);\n\n        return(a);\n    }\n}\n",
  "sourcePath": "fmg-core/contracts/Commitment.sol",
  "compiler": {
    "name": "solc",
    "version": "0.5.0+commit.1d4f565a.Emscripten.clang"
  },
  "schemaVersion": "3.0.2",
  "updatedAt": "2019-02-27T14:22:28.761Z",
  "devdoc": {
    "methods": {}
  },
  "userdoc": {
    "methods": {}
  }
}