{
  "contractName": "NitroAdjudicator",
  "abi": [
    {
      "constant": true,
      "inputs": [
        {
          "name": "",
          "type": "address"
        }
      ],
      "name": "outcomes",
      "outputs": [
        {
          "name": "finalizedAt",
          "type": "uint256"
        },
        {
          "components": [
            {
              "name": "channelType",
              "type": "address"
            },
            {
              "name": "channelNonce",
              "type": "uint32"
            },
            {
              "name": "participants",
              "type": "address[]"
            },
            {
              "name": "commitmentType",
              "type": "uint8"
            },
            {
              "name": "turnNum",
              "type": "uint32"
            },
            {
              "name": "commitmentCount",
              "type": "uint32"
            },
            {
              "name": "destination",
              "type": "address[]"
            },
            {
              "name": "allocation",
              "type": "uint256[]"
            },
            {
              "name": "appAttributes",
              "type": "bytes"
            }
          ],
          "name": "challengeCommitment",
          "type": "tuple"
        },
        {
          "name": "guaranteedChannel",
          "type": "address"
        }
      ],
      "payable": false,
      "stateMutability": "view",
      "type": "function",
      "signature": "0x927f1833"
    },
    {
      "constant": true,
      "inputs": [
        {
          "name": "",
          "type": "address"
        }
      ],
      "name": "holdings",
      "outputs": [
        {
          "name": "",
          "type": "uint256"
        }
      ],
      "payable": false,
      "stateMutability": "view",
      "type": "function",
      "signature": "0xdd3ced63"
    },
    {
      "anonymous": false,
      "inputs": [
        {
          "indexed": false,
          "name": "channelId",
          "type": "address"
        },
        {
          "components": [
            {
              "name": "channelType",
              "type": "address"
            },
            {
              "name": "channelNonce",
              "type": "uint32"
            },
            {
              "name": "participants",
              "type": "address[]"
            },
            {
              "name": "commitmentType",
              "type": "uint8"
            },
            {
              "name": "turnNum",
              "type": "uint32"
            },
            {
              "name": "commitmentCount",
              "type": "uint32"
            },
            {
              "name": "destination",
              "type": "address[]"
            },
            {
              "name": "allocation",
              "type": "uint256[]"
            },
            {
              "name": "appAttributes",
              "type": "bytes"
            }
          ],
          "indexed": false,
          "name": "commitment",
          "type": "tuple"
        },
        {
          "indexed": false,
          "name": "finalizedAt",
          "type": "uint256"
        }
      ],
      "name": "ChallengeCreated",
      "type": "event",
      "signature": "0x76e04aa09c70a0d34ac93ed0609b0691be7580b9d67adbf6ce5941c70d2bb5fd"
    },
    {
      "anonymous": false,
      "inputs": [
        {
          "indexed": false,
          "name": "channelId",
          "type": "address"
        }
      ],
      "name": "Concluded",
      "type": "event",
      "signature": "0xf445bfa2222ce4964ad35f5a31474c83516adad88217fe611e5078e4382ace56"
    },
    {
      "anonymous": false,
      "inputs": [
        {
          "indexed": false,
          "name": "channelId",
          "type": "address"
        },
        {
          "components": [
            {
              "name": "channelType",
              "type": "address"
            },
            {
              "name": "channelNonce",
              "type": "uint32"
            },
            {
              "name": "participants",
              "type": "address[]"
            },
            {
              "name": "commitmentType",
              "type": "uint8"
            },
            {
              "name": "turnNum",
              "type": "uint32"
            },
            {
              "name": "commitmentCount",
              "type": "uint32"
            },
            {
              "name": "destination",
              "type": "address[]"
            },
            {
              "name": "allocation",
              "type": "uint256[]"
            },
            {
              "name": "appAttributes",
              "type": "bytes"
            }
          ],
          "indexed": false,
          "name": "refutation",
          "type": "tuple"
        }
      ],
      "name": "Refuted",
      "type": "event",
      "signature": "0x6bdef8899a6cdf855a494030568290a758a2d8495788b5bfc6f37610b9085ddb"
    },
    {
      "anonymous": false,
      "inputs": [
        {
          "indexed": false,
          "name": "channelId",
          "type": "address"
        },
        {
          "components": [
            {
              "name": "channelType",
              "type": "address"
            },
            {
              "name": "channelNonce",
              "type": "uint32"
            },
            {
              "name": "participants",
              "type": "address[]"
            },
            {
              "name": "commitmentType",
              "type": "uint8"
            },
            {
              "name": "turnNum",
              "type": "uint32"
            },
            {
              "name": "commitmentCount",
              "type": "uint32"
            },
            {
              "name": "destination",
              "type": "address[]"
            },
            {
              "name": "allocation",
              "type": "uint256[]"
            },
            {
              "name": "appAttributes",
              "type": "bytes"
            }
          ],
          "indexed": false,
          "name": "response",
          "type": "tuple"
        }
      ],
      "name": "RespondedWithMove",
      "type": "event",
      "signature": "0x32dcafd9c6396bf3b6ddf971ba318ff351e3d5abff6711c875002845892b1079"
    },
    {
      "anonymous": false,
      "inputs": [
        {
          "components": [
            {
              "name": "channelType",
              "type": "address"
            },
            {
              "name": "channelNonce",
              "type": "uint32"
            },
            {
              "name": "participants",
              "type": "address[]"
            },
            {
              "name": "commitmentType",
              "type": "uint8"
            },
            {
              "name": "turnNum",
              "type": "uint32"
            },
            {
              "name": "commitmentCount",
              "type": "uint32"
            },
            {
              "name": "destination",
              "type": "address[]"
            },
            {
              "name": "allocation",
              "type": "uint256[]"
            },
            {
              "name": "appAttributes",
              "type": "bytes"
            }
          ],
          "indexed": false,
          "name": "alternativeResponse",
          "type": "tuple"
        }
      ],
      "name": "RespondedWithAlternativeMove",
      "type": "event",
      "signature": "0x2b3efaf1a6d6a51af899b98db32e8747484a65ecea4d01e6065294535ac0ca6d"
    },
    {
      "anonymous": false,
      "inputs": [
        {
          "indexed": false,
          "name": "destination",
          "type": "address"
        },
        {
          "indexed": false,
          "name": "amountDeposited",
          "type": "uint256"
        },
        {
          "indexed": false,
          "name": "destinationHoldings",
          "type": "uint256"
        }
      ],
      "name": "Deposited",
      "type": "event",
      "signature": "0x73a19dd210f1a7f902193214c0ee91dd35ee5b4d920cba8d519eca65a7b488ca"
    },
    {
      "constant": false,
      "inputs": [
        {
          "name": "destination",
          "type": "address"
        }
      ],
      "name": "deposit",
      "outputs": [],
      "payable": true,
      "stateMutability": "payable",
      "type": "function",
      "signature": "0xf340fa01"
    },
    {
      "constant": false,
      "inputs": [
        {
          "name": "participant",
          "type": "address"
        },
        {
          "name": "destination",
          "type": "address"
        },
        {
          "name": "amount",
          "type": "uint256"
        },
        {
          "name": "_v",
          "type": "uint8"
        },
        {
          "name": "_r",
          "type": "bytes32"
        },
        {
          "name": "_s",
          "type": "bytes32"
        }
      ],
      "name": "withdraw",
      "outputs": [],
      "payable": true,
      "stateMutability": "payable",
      "type": "function",
      "signature": "0xc4f7cd4d"
    },
    {
      "constant": false,
      "inputs": [
        {
          "name": "channel",
          "type": "address"
        },
        {
          "name": "destination",
          "type": "address"
        },
        {
          "name": "amount",
          "type": "uint256"
        }
      ],
      "name": "transfer",
      "outputs": [],
      "payable": false,
      "stateMutability": "nonpayable",
      "type": "function",
      "signature": "0xbeabacc8"
    },
    {
      "constant": false,
      "inputs": [
        {
          "name": "guarantor",
          "type": "address"
        },
        {
          "name": "recipient",
          "type": "address"
        },
        {
          "name": "amount",
          "type": "uint256"
        }
      ],
      "name": "claim",
      "outputs": [],
      "payable": false,
      "stateMutability": "nonpayable",
      "type": "function",
      "signature": "0x996cba68"
    },
    {
      "constant": false,
      "inputs": [
        {
          "components": [
            {
              "components": [
                {
                  "name": "channelType",
                  "type": "address"
                },
                {
                  "name": "channelNonce",
                  "type": "uint32"
                },
                {
                  "name": "participants",
                  "type": "address[]"
                },
                {
                  "name": "commitmentType",
                  "type": "uint8"
                },
                {
                  "name": "turnNum",
                  "type": "uint32"
                },
                {
                  "name": "commitmentCount",
                  "type": "uint32"
                },
                {
                  "name": "destination",
                  "type": "address[]"
                },
                {
                  "name": "allocation",
                  "type": "uint256[]"
                },
                {
                  "name": "appAttributes",
                  "type": "bytes"
                }
              ],
              "name": "penultimateCommitment",
              "type": "tuple"
            },
            {
              "components": [
                {
                  "name": "v",
                  "type": "uint8"
                },
                {
                  "name": "r",
                  "type": "bytes32"
                },
                {
                  "name": "s",
                  "type": "bytes32"
                }
              ],
              "name": "penultimateSignature",
              "type": "tuple"
            },
            {
              "components": [
                {
                  "name": "channelType",
                  "type": "address"
                },
                {
                  "name": "channelNonce",
                  "type": "uint32"
                },
                {
                  "name": "participants",
                  "type": "address[]"
                },
                {
                  "name": "commitmentType",
                  "type": "uint8"
                },
                {
                  "name": "turnNum",
                  "type": "uint32"
                },
                {
                  "name": "commitmentCount",
                  "type": "uint32"
                },
                {
                  "name": "destination",
                  "type": "address[]"
                },
                {
                  "name": "allocation",
                  "type": "uint256[]"
                },
                {
                  "name": "appAttributes",
                  "type": "bytes"
                }
              ],
              "name": "ultimateCommitment",
              "type": "tuple"
            },
            {
              "components": [
                {
                  "name": "v",
                  "type": "uint8"
                },
                {
                  "name": "r",
                  "type": "bytes32"
                },
                {
                  "name": "s",
                  "type": "bytes32"
                }
              ],
              "name": "ultimateSignature",
              "type": "tuple"
            }
          ],
          "name": "proof",
          "type": "tuple"
        }
      ],
      "name": "conclude",
      "outputs": [],
      "payable": false,
      "stateMutability": "nonpayable",
      "type": "function",
      "signature": "0x58effb26"
    },
    {
      "constant": false,
      "inputs": [
        {
          "components": [
            {
              "components": [
                {
                  "name": "channelType",
                  "type": "address"
                },
                {
                  "name": "channelNonce",
                  "type": "uint32"
                },
                {
                  "name": "participants",
                  "type": "address[]"
                },
                {
                  "name": "commitmentType",
                  "type": "uint8"
                },
                {
                  "name": "turnNum",
                  "type": "uint32"
                },
                {
                  "name": "commitmentCount",
                  "type": "uint32"
                },
                {
                  "name": "destination",
                  "type": "address[]"
                },
                {
                  "name": "allocation",
                  "type": "uint256[]"
                },
                {
                  "name": "appAttributes",
                  "type": "bytes"
                }
              ],
              "name": "penultimateCommitment",
              "type": "tuple"
            },
            {
              "components": [
                {
                  "name": "v",
                  "type": "uint8"
                },
                {
                  "name": "r",
                  "type": "bytes32"
                },
                {
                  "name": "s",
                  "type": "bytes32"
                }
              ],
              "name": "penultimateSignature",
              "type": "tuple"
            },
            {
              "components": [
                {
                  "name": "channelType",
                  "type": "address"
                },
                {
                  "name": "channelNonce",
                  "type": "uint32"
                },
                {
                  "name": "participants",
                  "type": "address[]"
                },
                {
                  "name": "commitmentType",
                  "type": "uint8"
                },
                {
                  "name": "turnNum",
                  "type": "uint32"
                },
                {
                  "name": "commitmentCount",
                  "type": "uint32"
                },
                {
                  "name": "destination",
                  "type": "address[]"
                },
                {
                  "name": "allocation",
                  "type": "uint256[]"
                },
                {
                  "name": "appAttributes",
                  "type": "bytes"
                }
              ],
              "name": "ultimateCommitment",
              "type": "tuple"
            },
            {
              "components": [
                {
                  "name": "v",
                  "type": "uint8"
                },
                {
                  "name": "r",
                  "type": "bytes32"
                },
                {
                  "name": "s",
                  "type": "bytes32"
                }
              ],
              "name": "ultimateSignature",
              "type": "tuple"
            }
          ],
          "name": "proof",
          "type": "tuple"
        },
        {
          "name": "participant",
          "type": "address"
        },
        {
          "name": "destination",
          "type": "address"
        },
        {
          "name": "amount",
          "type": "uint256"
        },
        {
          "name": "_v",
          "type": "uint8"
        },
        {
          "name": "_r",
          "type": "bytes32"
        },
        {
          "name": "_s",
          "type": "bytes32"
        }
      ],
      "name": "concludeAndWithdraw",
      "outputs": [],
      "payable": false,
      "stateMutability": "nonpayable",
      "type": "function",
      "signature": "0x91c599b2"
    },
    {
      "constant": false,
      "inputs": [
        {
          "components": [
            {
              "name": "channelType",
              "type": "address"
            },
            {
              "name": "channelNonce",
              "type": "uint32"
            },
            {
              "name": "participants",
              "type": "address[]"
            },
            {
              "name": "commitmentType",
              "type": "uint8"
            },
            {
              "name": "turnNum",
              "type": "uint32"
            },
            {
              "name": "commitmentCount",
              "type": "uint32"
            },
            {
              "name": "destination",
              "type": "address[]"
            },
            {
              "name": "allocation",
              "type": "uint256[]"
            },
            {
              "name": "appAttributes",
              "type": "bytes"
            }
          ],
          "name": "agreedCommitment",
          "type": "tuple"
        },
        {
          "components": [
            {
              "name": "channelType",
              "type": "address"
            },
            {
              "name": "channelNonce",
              "type": "uint32"
            },
            {
              "name": "participants",
              "type": "address[]"
            },
            {
              "name": "commitmentType",
              "type": "uint8"
            },
            {
              "name": "turnNum",
              "type": "uint32"
            },
            {
              "name": "commitmentCount",
              "type": "uint32"
            },
            {
              "name": "destination",
              "type": "address[]"
            },
            {
              "name": "allocation",
              "type": "uint256[]"
            },
            {
              "name": "appAttributes",
              "type": "bytes"
            }
          ],
          "name": "challengeCommitment",
          "type": "tuple"
        },
        {
          "name": "guaranteedChannel",
          "type": "address"
        },
        {
          "components": [
            {
              "name": "v",
              "type": "uint8"
            },
            {
              "name": "r",
              "type": "bytes32"
            },
            {
              "name": "s",
              "type": "bytes32"
            }
          ],
          "name": "signatures",
          "type": "tuple[]"
        }
      ],
      "name": "forceMove",
      "outputs": [],
      "payable": false,
      "stateMutability": "nonpayable",
      "type": "function",
      "signature": "0xb15c5237"
    },
    {
      "constant": false,
      "inputs": [
        {
          "components": [
            {
              "name": "channelType",
              "type": "address"
            },
            {
              "name": "channelNonce",
              "type": "uint32"
            },
            {
              "name": "participants",
              "type": "address[]"
            },
            {
              "name": "commitmentType",
              "type": "uint8"
            },
            {
              "name": "turnNum",
              "type": "uint32"
            },
            {
              "name": "commitmentCount",
              "type": "uint32"
            },
            {
              "name": "destination",
              "type": "address[]"
            },
            {
              "name": "allocation",
              "type": "uint256[]"
            },
            {
              "name": "appAttributes",
              "type": "bytes"
            }
          ],
          "name": "refutationCommitment",
          "type": "tuple"
        },
        {
          "components": [
            {
              "name": "v",
              "type": "uint8"
            },
            {
              "name": "r",
              "type": "bytes32"
            },
            {
              "name": "s",
              "type": "bytes32"
            }
          ],
          "name": "signature",
          "type": "tuple"
        }
      ],
      "name": "refute",
      "outputs": [],
      "payable": false,
      "stateMutability": "nonpayable",
      "type": "function",
      "signature": "0xe5e2e2cf"
    },
    {
      "constant": false,
      "inputs": [
        {
          "components": [
            {
              "name": "channelType",
              "type": "address"
            },
            {
              "name": "channelNonce",
              "type": "uint32"
            },
            {
              "name": "participants",
              "type": "address[]"
            },
            {
              "name": "commitmentType",
              "type": "uint8"
            },
            {
              "name": "turnNum",
              "type": "uint32"
            },
            {
              "name": "commitmentCount",
              "type": "uint32"
            },
            {
              "name": "destination",
              "type": "address[]"
            },
            {
              "name": "allocation",
              "type": "uint256[]"
            },
            {
              "name": "appAttributes",
              "type": "bytes"
            }
          ],
          "name": "responseCommitment",
          "type": "tuple"
        },
        {
          "components": [
            {
              "name": "v",
              "type": "uint8"
            },
            {
              "name": "r",
              "type": "bytes32"
            },
            {
              "name": "s",
              "type": "bytes32"
            }
          ],
          "name": "signature",
          "type": "tuple"
        }
      ],
      "name": "respondWithMove",
      "outputs": [],
      "payable": false,
      "stateMutability": "nonpayable",
      "type": "function",
      "signature": "0x4e42e8d7"
    },
    {
      "constant": false,
      "inputs": [
        {
          "components": [
            {
              "name": "channelType",
              "type": "address"
            },
            {
              "name": "channelNonce",
              "type": "uint32"
            },
            {
              "name": "participants",
              "type": "address[]"
            },
            {
              "name": "commitmentType",
              "type": "uint8"
            },
            {
              "name": "turnNum",
              "type": "uint32"
            },
            {
              "name": "commitmentCount",
              "type": "uint32"
            },
            {
              "name": "destination",
              "type": "address[]"
            },
            {
              "name": "allocation",
              "type": "uint256[]"
            },
            {
              "name": "appAttributes",
              "type": "bytes"
            }
          ],
          "name": "_alternativeCommitment",
          "type": "tuple"
        },
        {
          "components": [
            {
              "name": "channelType",
              "type": "address"
            },
            {
              "name": "channelNonce",
              "type": "uint32"
            },
            {
              "name": "participants",
              "type": "address[]"
            },
            {
              "name": "commitmentType",
              "type": "uint8"
            },
            {
              "name": "turnNum",
              "type": "uint32"
            },
            {
              "name": "commitmentCount",
              "type": "uint32"
            },
            {
              "name": "destination",
              "type": "address[]"
            },
            {
              "name": "allocation",
              "type": "uint256[]"
            },
            {
              "name": "appAttributes",
              "type": "bytes"
            }
          ],
          "name": "_responseCommitment",
          "type": "tuple"
        },
        {
          "components": [
            {
              "name": "v",
              "type": "uint8"
            },
            {
              "name": "r",
              "type": "bytes32"
            },
            {
              "name": "s",
              "type": "bytes32"
            }
          ],
          "name": "_alternativeSignature",
          "type": "tuple"
        },
        {
          "components": [
            {
              "name": "v",
              "type": "uint8"
            },
            {
              "name": "r",
              "type": "bytes32"
            },
            {
              "name": "s",
              "type": "bytes32"
            }
          ],
          "name": "_responseSignature",
          "type": "tuple"
        }
      ],
      "name": "alternativeRespondWithMove",
      "outputs": [],
      "payable": false,
      "stateMutability": "nonpayable",
      "type": "function",
      "signature": "0xfbfb2d75"
    }
  ],
  "bytecode": "0x60806040524260025534801561001457600080fd5b5061519e806100246000396000f3fe6080604052600436106100b95763ffffffff7c01000000000000000000000000000000000000000000000000000000006000350416634e42e8d781146100be57806358effb26146100e057806391c599b214610100578063927f183314610120578063996cba6814610158578063b15c523714610178578063beabacc814610198578063c4f7cd4d146101b8578063dd3ced63146101cb578063e5e2e2cf146101f8578063f340fa0114610218578063fbfb2d751461022b575b600080fd5b3480156100ca57600080fd5b506100de6100d9366004613d28565b61024b565b005b3480156100ec57600080fd5b506100de6100fb366004613d79565b6106be565b34801561010c57600080fd5b506100de61011b366004613dae565b6106ca565b34801561012c57600080fd5b5061014061013b366004613acd565b61085f565b60405161014f93929190615020565b60405180910390f35b34801561016457600080fd5b506100de610173366004613b90565b610a96565b34801561018457600080fd5b506100de610193366004613bfb565b61165f565b3480156101a457600080fd5b506100de6101b3366004613b90565b611b48565b6100de6101c6366004613b09565b612292565b3480156101d757600080fd5b506101eb6101e6366004613acd565b6123bf565b60405161014f9190615012565b34801561020457600080fd5b506100de610213366004613d28565b6123d1565b6100de610226366004613acd565b6125d3565b34801561023757600080fd5b506100de610246366004613ca3565b612631565b60405160e060020a63c2a67cff02815260009073__Commitment____________________________9063c2a67cff90610288908690600401614efc565b60206040518083038186803b1580156102a057600080fd5b505af41580156102b4573d6000803e3d6000fd5b505050506040513d601f19601f820116820180604052506102d89190810190613aeb565b90506102e381612bc1565b1561030c5760405160e560020a62461bcd02815260040161030390614d6d565b60405180910390fd5b6103168383612c0a565b15156103375760405160e560020a62461bcd02815260040161030390614ead565b600160a060020a0381166000908152600160209081526040918290208451918501518584015193517fcca9944600000000000000000000000000000000000000000000000000000000815273__Rules_________________________________9463cca99446946103b494600201938a9391929091600401614fc4565b60206040518083038186803b1580156103cc57600080fd5b505af41580156103e0573d6000803e3d6000fd5b505050506040513d601f19601f820116820180604052506104049190810190613bdd565b15156104255760405160e560020a62461bcd02815260040161030390614e2d565b7f32dcafd9c6396bf3b6ddf971ba318ff351e3d5abff6711c875002845892b10798184604051610456929190614ce6565b60405180910390a161046661349a565b60408051600160a060020a03841660009081526001602090815290839020805460c09281028401830190945260a0830184815292938493928401828280156104d757602002820191906000526020600020905b8154600160a060020a031681526001909101906020018083116104b9575b5050509183525050600060208083018290526040808401899052600160a060020a0380881680855260018085529285206008810154909216606087015260e08b01516080909601959095529390925290815282518051939450849361053f92849201906134d1565b50602082810151600183015560408084015180516002850180548386015163ffffffff1660a060020a0277ffffffff000000000000000000000000000000000000000019600160a060020a03909416600160a060020a0319909216919091179290921691909117815591810151805191936105c2926003870192909101906134d1565b506060820151600282018054608085015160a086015160ff1990921660ff9094169390931764ffffffff00191661010063ffffffff948516021768ffffffff0000000000191665010000000000939091169290920291909117905560c082015180516106389160038401916020909101906134d1565b5060e08201518051610654916004840191602090910190613536565b50610100820151805161067191600584019160209091019061357d565b5050506060820151600882018054600160a060020a031916600160a060020a03909216919091179055608082015180516106b5916009840191602090910190613536565b50505050505050565b6106c781612d02565b50565b865160405160e060020a63c2a67cff02815260009173__Commitment____________________________9163c2a67cff9161070791600401614efc565b60206040518083038186803b15801561071f57600080fd5b505af4158015610733573d6000803e3d6000fd5b505050506040513d601f19601f820116820180604052506107579190810190613aeb565b600160a060020a0381166000908152600160208190526040909120015490915042108061079e5750600160a060020a03811660009081526001602081905260409091200154155b156107b1576107ac88612d02565b61083c565b600160a060020a03811660009081526001602090815260409182902091516107dd926002019101614f32565b60408051601f198184030181529082905280516020918201208a5190926108049201614eeb565b6040516020818303038152906040528051906020012014151561083c5760405160e560020a62461bcd02815260040161030390614e8d565b610847818887611b48565b610855878787878787612292565b5050505050505050565b60016020818152600092835260409283902091820154835161012081018552600284018054600160a060020a038116835260a060020a900463ffffffff1682850152600385018054875181870281018701895281815294979395929493860193928301828280156108f957602002820191906000526020600020905b8154600160a060020a031681526001909101906020018083116108db575b5050509183525050600282015460ff811660208084019190915263ffffffff6101008304811660408086019190915265010000000000909304166060840152600384018054835181840281018401909452808452608090940193909183018282801561098e57602002820191906000526020600020905b8154600160a060020a03168152600190910190602001808311610970575b50505050508152602001600482018054806020026020016040519081016040528092919081815260200182805480156109e657602002820191906000526020600020905b8154815260200190600101908083116109d2575b505050918352505060058201805460408051602060026001851615610100026000190190941693909304601f8101849004840282018401909252818152938201939291830182828015610a7a5780601f10610a4f57610100808354040283529160200191610a7a565b820191906000526020600020905b815481529060010190602001808311610a5d57829003601f168201915b50505091909252505050600890910154600160a060020a031683565b610a9e61349a565b600160a060020a0384166000908152600160209081526040918290208251815460c09381028201840190945260a081018481529093919284928491840182828015610b1257602002820191906000526020600020905b8154600160a060020a03168152600190910190602001808311610af4575b505050918352505060018201546020808301919091526040805161012081018252600285018054600160a060020a038116835260a060020a900463ffffffff16828501526003860180548451818702810187018652818152968501969395929486019392830182828015610baf57602002820191906000526020600020905b8154600160a060020a03168152600190910190602001808311610b91575b5050509183525050600282015460ff811660208084019190915263ffffffff61010083048116604080860191909152650100000000009093041660608401526003840180548351818402810184019094528084526080909401939091830182828015610c4457602002820191906000526020600020905b8154600160a060020a03168152600190910190602001808311610c26575b5050505050815260200160048201805480602002602001604051908101604052809291908181526020018280548015610c9c57602002820191906000526020600020905b815481526020019060010190808311610c88575b505050918352505060058201805460408051602060026001851615610100026000190190941693909304601f8101849004840282018401909252818152938201939291830182828015610d305780601f10610d0557610100808354040283529160200191610d30565b820191906000526020600020905b815481529060010190602001808311610d1357829003601f168201915b5050509190925250505081526008820154600160a060020a03166020808301919091526009830180546040805182850281018501825282815294019392830182828015610d9c57602002820191906000526020600020905b815481526020019060010190808311610d88575b505050919092525050506060810151909150600160a060020a03161515610dd85760405160e560020a62461bcd02815260040161030390614dfd565b610de184612bc1565b1515610e025760405160e560020a62461bcd02815260040161030390614dbd565b600160a060020a038416600090815260208190526040902054610e2361349a565b6060830151600160a060020a03166000908152600160209081526040918290208251815460c09381028201840190945260a0810184815261113694919384928491840182828015610e9d57602002820191906000526020600020905b8154600160a060020a03168152600190910190602001808311610e7f575b505050918352505060018201546020808301919091526040805161012081018252600285018054600160a060020a038116835260a060020a900463ffffffff16828501526003860180548451818702810187018652818152968501969395929486019392830182828015610f3a57602002820191906000526020600020905b8154600160a060020a03168152600190910190602001808311610f1c575b5050509183525050600282015460ff811660208084019190915263ffffffff61010083048116604080860191909152650100000000009093041660608401526003840180548351818402810184019094528084526080909401939091830182828015610fcf57602002820191906000526020600020905b8154600160a060020a03168152600190910190602001808311610fb1575b505050505081526020016004820180548060200260200160405190810160405280929190818152602001828054801561102757602002820191906000526020600020905b815481526020019060010190808311611013575b505050918352505060058201805460408051602060026001851615610100026000190190941693909304601f81018490048402820184019092528181529382019392918301828280156110bb5780601f10611090576101008083540402835291602001916110bb565b820191906000526020600020905b81548152906001019060200180831161109e57829003601f168201915b5050509190925250505081526008820154600160a060020a0316602080830191909152600983018054604080518285028101850182528281529401939283018282801561112757602002820191906000526020600020905b815481526020019060010190808311611113575b50505050508152505084613015565b9050836111448683856131d4565b1061163c576060830151600160a060020a03166000908152600160209081526040918290208251815460c09381028201840190945260a0810184815261145d949193849284918401828280156111c357602002820191906000526020600020905b8154600160a060020a031681526001909101906020018083116111a5575b505050918352505060018201546020808301919091526040805161012081018252600285018054600160a060020a038116835260a060020a900463ffffffff1682850152600386018054845181870281018701865281815296850196939592948601939283018282801561126057602002820191906000526020600020905b8154600160a060020a03168152600190910190602001808311611242575b5050509183525050600282015460ff811660208084019190915263ffffffff610100830481166040808601919091526501000000000090930416606084015260038401805483518184028101840190945280845260809094019390918301828280156112f557602002820191906000526020600020905b8154600160a060020a031681526001909101906020018083116112d7575b505050505081526020016004820180548060200260200160405190810160405280929190818152602001828054801561134d57602002820191906000526020600020905b815481526020019060010190808311611339575b505050918352505060058201805460408051602060026001851615610100026000190190941693909304601f81018490048402820184019092528181529382019392918301828280156113e15780601f106113b6576101008083540402835291602001916113e1565b820191906000526020600020905b8154815290600101906020018083116113c457829003601f168201915b5050509190925250505081526008820154600160a060020a0316602080830191909152600983018054604080518285028101850182528281529401939283018282801561144d57602002820191906000526020600020905b815481526020019060010190808311611439575b505050505081525050868661327d565b6060840151600160a060020a03166000908152600160209081526040909120825180519192611491928492909101906134d1565b50602082810151600183015560408084015180516002850180548386015163ffffffff1660a060020a0277ffffffff000000000000000000000000000000000000000019600160a060020a03909416600160a060020a031990921691909117929092169190911781559181015180519193611514926003870192909101906134d1565b506060820151600282018054608085015160a086015160ff1990921660ff9094169390931764ffffffff00191661010063ffffffff948516021768ffffffff0000000000191665010000000000939091169290920291909117905560c0820151805161158a9160038401916020909101906134d1565b5060e082015180516115a6916004840191602090910190613536565b5061010082015180516115c391600584019160209091019061357d565b5050506060820151600882018054600160a060020a031916600160a060020a0390921691909117905560808201518051611607916009840191602090910190613536565b505050600160a060020a0380871660009081526020819052604080822080548890039055918716815220805485019055611657565b60405160e560020a62461bcd02815260040161030390614e4d565b505050505050565b60405160e060020a63c2a67cff0281526116f29073__Commitment____________________________9063c2a67cff9061169d908890600401614efc565b60206040518083038186803b1580156116b557600080fd5b505af41580156116c9573d6000803e3d6000fd5b505050506040513d601f19601f820116820180604052506116ed9190810190613aeb565b612bc1565b156117125760405160e560020a62461bcd02815260040161030390614ddd565b6117348482600081518110151561172557fe5b90602001906020020151612c0a565b15156117555760405160e560020a62461bcd02815260040161030390614e9d565b6117688382600181518110151561172557fe5b15156117895760405160e560020a62461bcd02815260040161030390614e5d565b6040517f2f45279400000000000000000000000000000000000000000000000000000000815273__Rules_________________________________90632f452794906117db9087908790600401614f0d565b60206040518083038186803b1580156117f357600080fd5b505af4158015611807573d6000803e3d6000fd5b505050506040513d601f19601f8201168201806040525061182b9190810190613bdd565b151561183657600080fd5b600160a060020a03821615156118735760e08401515160001061186e5760405160e560020a62461bcd02815260040161030390614ecd565b611899565b60e083015151156118995760405160e560020a62461bcd02815260040161030390614dcd565b60405160e060020a63c2a67cff02815260009073__Commitment____________________________9063c2a67cff906118d6908890600401614efc565b60206040518083038186803b1580156118ee57600080fd5b505af4158015611902573d6000803e3d6000fd5b505050506040513d601f19601f820116820180604052506119269190810190613aeb565b6040805160a0810182528682015181524261012c01602080830191909152818301889052600160a060020a03808816606084015260e08901516080840152841660009081526001825292909220815180519495509193909261198c9284929101906134d1565b50602082810151600183015560408084015180516002850180548386015163ffffffff1660a060020a0277ffffffff000000000000000000000000000000000000000019600160a060020a03909416600160a060020a031990921691909117929092169190911781559181015180519193611a0f926003870192909101906134d1565b506060820151600282018054608085015160a086015160ff1990921660ff9094169390931764ffffffff00191661010063ffffffff948516021768ffffffff0000000000191665010000000000939091169290920291909117905560c08201518051611a859160038401916020909101906134d1565b5060e08201518051611aa1916004840191602090910190613536565b506101008201518051611abe91600584019160209091019061357d565b5050506060820151600882018054600160a060020a031916600160a060020a0390921691909117905560808201518051611b02916009840191602090910190613536565b509050507f76e04aa09c70a0d34ac93ed0609b0691be7580b9d67adbf6ce5941c70d2bb5fd818542604051611b3993929190614d06565b60405180910390a15050505050565b600160a060020a03831660009081526001602081905260409091200154421015611b875760405160e560020a62461bcd02815260040161030390614e0d565b600160a060020a03831660009081526001602081905260408220015411611bc35760405160e560020a62461bcd02815260040161030390614e7d565b600160a060020a03831660009081526001602090815260408083208151815460c09481028201850190935260a08101838152611ed6948894929392849291849190840182828015611c3d57602002820191906000526020600020905b8154600160a060020a03168152600190910190602001808311611c1f575b505050918352505060018201546020808301919091526040805161012081018252600285018054600160a060020a038116835260a060020a900463ffffffff16828501526003860180548451818702810187018652818152968501969395929486019392830182828015611cda57602002820191906000526020600020905b8154600160a060020a03168152600190910190602001808311611cbc575b5050509183525050600282015460ff811660208084019190915263ffffffff61010083048116604080860191909152650100000000009093041660608401526003840180548351818402810184019094528084526080909401939091830182828015611d6f57602002820191906000526020600020905b8154600160a060020a03168152600190910190602001808311611d51575b5050505050815260200160048201805480602002602001604051908101604052809291908181526020018280548015611dc757602002820191906000526020600020905b815481526020019060010190808311611db3575b505050918352505060058201805460408051602060026001851615610100026000190190941693909304601f8101849004840282018401909252818152938201939291830182828015611e5b5780601f10611e3057610100808354040283529160200191611e5b565b820191906000526020600020905b815481529060010190602001808311611e3e57829003601f168201915b5050509190925250505081526008820154600160a060020a03166020808301919091526009830180546040805182850281018501825282815294019392830182828015611ec757602002820191906000526020600020905b815481526020019060010190808311611eb3575b505050505081525050846131d4565b600160a060020a038516600090815260208190526040902054909150811115611f145760405160e560020a62461bcd02815260040161030390614d5d565b81811015611f375760405160e560020a62461bcd02815260040161030390614ebd565b600160a060020a0380841660009081526020818152604080832080548601905592871682528282208054859003905560018152908290208251815460c09381028201840190945260a0810184815261226294919384928491840182828015611fc857602002820191906000526020600020905b8154600160a060020a03168152600190910190602001808311611faa575b505050918352505060018201546020808301919091526040805161012081018252600285018054600160a060020a038116835260a060020a900463ffffffff1682850152600386018054845181870281018701865281815296850196939592948601939283018282801561206557602002820191906000526020600020905b8154600160a060020a03168152600190910190602001808311612047575b5050509183525050600282015460ff811660208084019190915263ffffffff610100830481166040808601919091526501000000000090930416606084015260038401805483518184028101840190945280845260809094019390918301828280156120fa57602002820191906000526020600020905b8154600160a060020a031681526001909101906020018083116120dc575b505050505081526020016004820180548060200260200160405190810160405280929190818152602001828054801561215257602002820191906000526020600020905b81548152602001906001019080831161213e575b505050918352505060058201805460408051602060026001851615610100026000190190941693909304601f81018490048402820184019092528181529382019392918301828280156121e65780601f106121bb576101008083540402835291602001916121e6565b820191906000526020600020905b8154815290600101906020018083116121c957829003601f168201915b5050509190925250505081526008820154600160a060020a0316602080830191909152600983018054604080518285028101850182528281529401939283018282801561225257602002820191906000526020600020905b81548152602001906001019080831161223e575b505050505081525050848461327d565b600160a060020a038516600090815260016020908152604090912082518051919261053f928492909101906134d1565b600160a060020a0386166000908152602081905260409020548411156122cd5760405160e560020a62461bcd02815260040161030390614e3d565b6122d56135ea565b60806040519081016040528088600160a060020a0316815260200187600160a060020a0316815260200186815260200133600160a060020a0316815250905086600160a060020a0316612349826040516020016123329190614edd565b60405160208183030381529060405286868661336a565b600160a060020a0316146123725760405160e560020a62461bcd02815260040161030390614d8d565b600160a060020a0380881660009081526020819052604080822080548990039055519188169187156108fc0291889190818181858888f19350505050158015610855573d6000803e3d6000fd5b60006020819052908152604090205481565b60405160e060020a63c2a67cff02815260009073__Commitment____________________________9063c2a67cff9061240e908690600401614efc565b60206040518083038186803b15801561242657600080fd5b505af415801561243a573d6000803e3d6000fd5b505050506040513d601f19601f8201168201806040525061245e9190810190613aeb565b905061246981612bc1565b156124895760405160e560020a62461bcd02815260040161030390614dad565b6124938383612c0a565b15156124b45760405160e560020a62461bcd02815260040161030390614e6d565b600160a060020a0381166000908152600160209081526040918290208451918501518584015193517fd2d34bc700000000000000000000000000000000000000000000000000000000815273__Rules_________________________________9463d2d34bc79461253194600201938a9391929091600401614fc4565b60206040518083038186803b15801561254957600080fd5b505af415801561255d573d6000803e3d6000fd5b505050506040513d601f19601f820116820180604052506125819190810190613bdd565b15156125a25760405160e560020a62461bcd02815260040161030390614d9d565b7f6bdef8899a6cdf855a494030568290a758a2d8495788b5bfc6f37610b9085ddb8184604051610456929190614ce6565b600160a060020a038116600090815260208190526040908190208054349081019182905591517f73a19dd210f1a7f902193214c0ee91dd35ee5b4d920cba8d519eca65a7b488ca92612626928592614d35565b60405180910390a150565b60405160e060020a63c2a67cff02815260009073__Commitment____________________________9063c2a67cff9061266e908790600401614efc565b60206040518083038186803b15801561268657600080fd5b505af415801561269a573d6000803e3d6000fd5b505050506040513d601f19601f820116820180604052506126be9190810190613aeb565b90506126c981612bc1565b156126e95760405160e560020a62461bcd02815260040161030390614d7d565b6126f38483612c0a565b15156127145760405160e560020a62461bcd02815260040161030390614ded565b604080516002808252606080830184529260208301908038833950508551825192935091839150600090811061274657fe5b60ff909216602092830290910190910152825181518290600190811061276857fe5b60ff909216602092830290910190910152604080516002808252606082810190935281602001602082028038833901905050905084602001518160008151811015156127b057fe5b906020019060200201818152505083602001518160018151811015156127d257fe5b602090810290910101526040805160028082526060828101909352816020016020820280388339019050509050856040015181600081518110151561281357fe5b60209081029091010152604085015181518290600190811061283157fe5b6020908102909101810191909152600160a060020a0385166000908152600190915260409081902090517fdd47f56000000000000000000000000000000000000000000000000000000000815273__Rules_________________________________9163dd47f560916128b491600201908c908c90899089908990600401614f43565b60206040518083038186803b1580156128cc57600080fd5b505af41580156128e0573d6000803e3d6000fd5b505050506040513d601f19601f820116820180604052506129049190810190613bdd565b15156129255760405160e560020a62461bcd02815260040161030390614e2d565b7f2b3efaf1a6d6a51af899b98db32e8747484a65ecea4d01e6065294535ac0ca6d876040516129549190614eeb565b60405180910390a161296461349a565b60408051600160a060020a03871660009081526001602090815290839020805460c09281028401830190945260a0830184815292938493928401828280156129d557602002820191906000526020600020905b8154600160a060020a031681526001909101906020018083116129b7575b50505091835250506000602080830182905260408084018d9052600160a060020a03808b1680855260018085529285206008810154909216606087015260e08f015160809096019590955293909252908152825180519394508493612a3d92849201906134d1565b50602082810151600183015560408084015180516002850180548386015163ffffffff1660a060020a0277ffffffff000000000000000000000000000000000000000019600160a060020a03909416600160a060020a031990921691909117929092169190911781559181015180519193612ac0926003870192909101906134d1565b506060820151600282018054608085015160a086015160ff1990921660ff9094169390931764ffffffff00191661010063ffffffff948516021768ffffffff0000000000191665010000000000939091169290920291909117905560c08201518051612b369160038401916020909101906134d1565b5060e08201518051612b52916004840191602090910190613536565b506101008201518051612b6f91600584019160209091019061357d565b5050506060820151600882018054600160a060020a031916600160a060020a0390921691909117905560808201518051612bb3916009840191602090910190613536565b505050505050505050505050565b600160a060020a03811660009081526001602081905260408220015442118015612c045750600160a060020a038216600090815260016020819052604082200154115b92915050565b6000612c4383604051602001612c209190614eeb565b60405160208183030381529060405283600001518460200151856040015161336a565b600160a060020a03168373__Commitment____________________________6361aa2c5d90916040518263ffffffff167c0100000000000000000000000000000000000000000000000000000000028152600401612ca19190614efc565b60206040518083038186803b158015612cb957600080fd5b505af4158015612ccd573d6000803e3d6000fd5b505050506040513d601f19601f82011682018060405250612cf19190810190613aeb565b600160a060020a0316149392505050565b805160405160e060020a63c2a67cff02815260009173__Commitment____________________________9163c2a67cff91612d3f91600401614efc565b60206040518083038186803b158015612d5757600080fd5b505af4158015612d6b573d6000803e3d6000fd5b505050506040513d601f19601f82011682018060405250612d8f9190810190613aeb565b600160a060020a03811660009081526001602081905260409091200154909150421080612dd65750600160a060020a03811660009081526001602081905260409091200154155b1515612df75760405160e560020a62461bcd02815260040161030390614e1d565b6040805160a0810182528351820151815242602080830191909152845182840152600160a060020a038085166000818152600180855295812060088101549093166060860152875160e0015160808601525292815281518051929392612e6092849201906134d1565b50602082810151600183015560408084015180516002850180548386015163ffffffff1660a060020a0277ffffffff000000000000000000000000000000000000000019600160a060020a03909416600160a060020a031990921691909117929092169190911781559181015180519193612ee3926003870192909101906134d1565b506060820151600282018054608085015160a086015160ff1990921660ff9094169390931764ffffffff00191661010063ffffffff948516021768ffffffff0000000000191665010000000000939091169290920291909117905560c08201518051612f599160038401916020909101906134d1565b5060e08201518051612f75916004840191602090910190613536565b506101008201518051612f9291600584019160209091019061357d565b5050506060820151600882018054600160a060020a031916600160a060020a0390921691909117905560808201518051612fd6916009840191602090910190613536565b509050507ff445bfa2222ce4964ad35f5a31474c83516adad88217fe611e5078e4382ace56816040516130099190614cd8565b60405180910390a15050565b61301d61349a565b6060820151600160a060020a0316151561304c5760405160e560020a62461bcd02815260040161030390614dfd565b606082600001515160405190808252806020026020018201604052801561307d578160200160208202803883390190505b50905060608360000151516040519080825280602002602001820160405280156130b1578160200160208202803883390190505b50905060005b8551518110156131a05760005b8551518110156131975786518051839081106130dc57fe5b90602001906020020151600160a060020a031686600001518281518110151561310157fe5b90602001906020020151600160a060020a0316141561318f57865180518390811061312857fe5b90602001906020020151848281518110151561314057fe5b600160a060020a03909216602092830290910190910152608087015180518390811061316857fe5b90602001906020020151838281518110151561318057fe5b60209081029091010152613197565b6001016130c4565b506001016130b7565b506040805160a081018252928352602086810151908401528581015190830152600060608301526080820152905092915050565b600080805b84515181101561327457600084116131f057613274565b84518051600160a060020a03881691908390811061320a57fe5b90602001906020020151600160a060020a0316141561324d5761324885608001518281518110151561323857fe5b9060200190602002015185613484565b820191505b608085015180518290811061325e57fe5b60209081029091010151909303926001016131d9565b50949350505050565b61328561349a565b60808401516000805b8651518110156133345786518051600160a060020a0388169190839081106132b257fe5b90602001906020020151600160a060020a0316141561332c576132f08760800151828151811015156132e057fe5b9060200190602002015186613484565b82019150818503945081838281518110151561330857fe5b9060200190602002015103838281518110151561332157fe5b602090810290910101525b60010161328e565b50506040805160a08101825286518152602080880151908201529581015190860152600060608601526080850152509192915050565b604080518082018252601c8082527f19457468657265756d205369676e6564204d6573736167653a0a333200000000602080840191825288518982012094516000959386938693869301918291908083835b602083106133db5780518252601f1990920191602091820191016133bc565b51815160209384036101000a600019018019909216911617905292019384525060408051808503815284830180835281519184019190912060009182905282860180845281905260ff8e166060870152608086018d905260a086018c90529151919650945060019360c08082019450601f19830192918290030190855afa15801561346a573d6000803e3d6000fd5b5050604051601f190151955050505050505b949350505050565b6000818311613494575081612c04565b50919050565b6101a06040519081016040528060608152602001600081526020016134bd613611565b815260006020820152606060409091015290565b828054828255906000526020600020908101928215613526579160200282015b828111156135265782518254600160a060020a031916600160a060020a039091161782556020909201916001909101906134f1565b5061353292915061365c565b5090565b828054828255906000526020600020908101928215613571579160200282015b82811115613571578251825591602001919060010190613556565b50613532929150613683565b828054600181600116156101000203166002900490600052602060002090601f016020900481019282601f106135be57805160ff1916838001178555613571565b828001600101855582156135715791820182811115613571578251825591602001919060010190613556565b60408051608081018252600080825260208201819052918101829052606081019190915290565b604080516101208101825260008082526020820181905260609282018390528282018190526080820181905260a082015260c0810182905260e0810182905261010081019190915290565b61368091905b80821115613532578054600160a060020a0319168155600101613662565b90565b61368091905b808211156135325760008155600101613689565b60006136a982356150df565b9392505050565b60006136a982516150df565b6000601f820183136136cd57600080fd5b81356136e06136db82615076565b61504f565b9150818183526020840193506020810190508385602084028201111561370557600080fd5b60005b83811015613731578161371b888261369d565b8452506020928301929190910190600101613708565b5050505092915050565b6000601f8201831361374c57600080fd5b813561375a6136db82615076565b9150818183526020840193506020810190508385606084028201111561377f57600080fd5b60005b8381101561373157816137958882613a5a565b84525060209092019160609190910190600101613782565b6000601f820183136137be57600080fd5b81356137cc6136db82615076565b915081818352602084019350602081019050838560208402820111156137f157600080fd5b60005b8381101561373157816138078882613829565b84525060209283019291909101906001016137f4565b60006136a982516150ff565b60006136a98235613680565b6000601f8201831361384657600080fd5b81356138546136db82615097565b9150808252602083016020830185838301111561387057600080fd5b61387b838284615104565b50505092915050565b6000610120828403121561389757600080fd5b6138a261012061504f565b905060006138b0848461369d565b82525060206138c184848301613ab5565b602083015250604082013567ffffffffffffffff8111156138e157600080fd5b6138ed848285016136bc565b604083015250606061390184828501613ac1565b606083015250608061391584828501613ab5565b60808301525060a061392984828501613ab5565b60a08301525060c082013567ffffffffffffffff81111561394957600080fd5b613955848285016136bc565b60c08301525060e082013567ffffffffffffffff81111561397557600080fd5b613981848285016137ad565b60e08301525061010082013567ffffffffffffffff8111156139a257600080fd5b6139ae84828501613835565b6101008301525092915050565b600061010082840312156139ce57600080fd5b6139d8608061504f565b9050813567ffffffffffffffff8111156139f157600080fd5b6139fd84828501613884565b8252506020613a0e84848301613a5a565b602083015250608082013567ffffffffffffffff811115613a2e57600080fd5b613a3a84828501613884565b60408301525060a0613a4e84828501613a5a565b60608301525092915050565b600060608284031215613a6c57600080fd5b613a76606061504f565b90506000613a848484613ac1565b8252506020613a9584848301613829565b6020830152506040613aa984828501613829565b60408301525092915050565b60006136a982356150f0565b60006136a982356150f9565b600060208284031215613adf57600080fd5b600061347c848461369d565b600060208284031215613afd57600080fd5b600061347c84846136b0565b60008060008060008060c08789031215613b2257600080fd5b6000613b2e898961369d565b9650506020613b3f89828a0161369d565b9550506040613b5089828a01613829565b9450506060613b6189828a01613ac1565b9350506080613b7289828a01613829565b92505060a0613b8389828a01613829565b9150509295509295509295565b600080600060608486031215613ba557600080fd5b6000613bb1868661369d565b9350506020613bc28682870161369d565b9250506040613bd386828701613829565b9150509250925092565b600060208284031215613bef57600080fd5b600061347c848461381d565b60008060008060808587031215613c1157600080fd5b843567ffffffffffffffff811115613c2857600080fd5b613c3487828801613884565b945050602085013567ffffffffffffffff811115613c5157600080fd5b613c5d87828801613884565b9350506040613c6e8782880161369d565b925050606085013567ffffffffffffffff811115613c8b57600080fd5b613c978782880161373b565b91505092959194509250565b6000806000806101008587031215613cba57600080fd5b843567ffffffffffffffff811115613cd157600080fd5b613cdd87828801613884565b945050602085013567ffffffffffffffff811115613cfa57600080fd5b613d0687828801613884565b9350506040613d1787828801613a5a565b92505060a0613c9787828801613a5a565b60008060808385031215613d3b57600080fd5b823567ffffffffffffffff811115613d5257600080fd5b613d5e85828601613884565b9250506020613d6f85828601613a5a565b9150509250929050565b600060208284031215613d8b57600080fd5b813567ffffffffffffffff811115613da257600080fd5b61347c848285016139bb565b600080600080600080600060e0888a031215613dc957600080fd5b873567ffffffffffffffff811115613de057600080fd5b613dec8a828b016139bb565b9750506020613dfd8a828b0161369d565b9650506040613e0e8a828b0161369d565b9550506060613e1f8a828b01613829565b9450506080613e308a828b01613ac1565b93505060a0613e418a828b01613829565b92505060c0613e528a828b01613829565b91505092959891949750929550565b613e6a816150df565b82525050565b6000613e7b826150d1565b808452602084019350613e8d836150bf565b60005b82811015613ebd57613ea3868351613e61565b613eac826150bf565b602096909601959150600101613e90565b5093949350505050565b6000613ed2826150d1565b808452602084019350613ee4836150bf565b60005b82811015613ebd57613efa868351613e61565b613f03826150bf565b602096909601959150600101613ee7565b6000613f1f826150d5565b808452602084019350613f31836150c5565b60005b82811015613ebd57613f47868354613e61565b613f50826150d9565b602096909601959150600101613f34565b6000613f6c826150d5565b808452602084019350613f7e836150c5565b60005b82811015613ebd57613f94868354613e61565b613f9d826150d9565b602096909601959150600101613f81565b6000613fb9826150d1565b808452602084019350613fcb836150bf565b60005b82811015613ebd57613fe186835161417c565b613fea826150bf565b602096909601959150600101613fce565b6000614006826150d1565b808452602084019350614018836150bf565b60005b82811015613ebd5761402e86835161417c565b614037826150bf565b60209690960195915060010161401b565b6000614053826150d1565b808452602084019350614065836150bf565b60005b82811015613ebd5761407b86835161417c565b614084826150bf565b602096909601959150600101614068565b60006140a0826150d5565b8084526020840193506140b2836150c5565b60005b82811015613ebd576140c886835461417c565b6140d1826150d9565b6020969096019591506001016140b5565b60006140ed826150d5565b8084526020840193506140ff836150c5565b60005b82811015613ebd5761411586835461417c565b61411e826150d9565b602096909601959150600101614102565b600061413a826150d1565b80845260208401935061414c836150bf565b60005b82811015613ebd57614162868351614ccf565b61416b826150bf565b60209690960195915060010161414f565b613e6a81613680565b6000614190826150d1565b8084526141a4816020860160208601615110565b6141ad8161513c565b9093016020019392505050565b6000815460018116600081146141d757600181146141f557614231565b60028204607f16855260ff1982166020860152604085019250614231565b6002820480865260208601955061420b856150c5565b60005b8281101561422a5781548882015260019091019060200161420e565b8701945050505b505092915050565b602f81527f5472616e736665723a20686f6c64696e67735b6368616e6e656c5d206d75737460208201527f20636f766572207472616e736665720000000000000000000000000000000000604082015260600190565b602581527f526573706f6e64576974684d6f76653a206368616e6e656c206d75737420626560208201527f206f70656e000000000000000000000000000000000000000000000000000000604082015260600190565b603081527f416c7465726e6174697665526573706f6e64576974684d6f76653a206368616e60208201527f6e656c206d757374206265206f70656e00000000000000000000000000000000604082015260600190565b602781527f57697468647261773a206e6f7420617574686f72697a6564206279207061727460208201527f69636970616e7400000000000000000000000000000000000000000000000000604082015260600190565b601e81527f5265667574653a206d75737420626520612076616c6964207265667574650000602082015260400190565b601c81527f5265667574653a206368616e6e656c206d757374206265206f70656e00000000602082015260400190565b601d81527f436c61696d3a206368616e6e656c206d75737420626520636c6f736564000000602082015260400190565b603381527f466f7263654d6f76653a2067756172616e746565206f7574636f6d652063616e60208201527f6e6f74206861766520616c6c6f636174696f6e00000000000000000000000000604082015260600190565b601f81527f466f7263654d6f76653a206368616e6e656c206d757374206265206f70656e00602082015260400190565b603381527f416c7465726e6174697665526573706f6e64576974684d6f76653a206d6f766560208201527f206d75737420626520617574686f72697a656400000000000000000000000000604082015260600190565b602681527f436c61696d3a20612067756172616e746565206368616e6e656c20697320726560208201527f7175697265640000000000000000000000000000000000000000000000000000604082015260600190565b601f81527f5472616e736665723a206f7574636f6d65206d7573742062652066696e616c00602082015260400190565b602781527f436f6e636c7564653a206368616e6e656c206d757374206e6f7420626520666960208201527f6e616c697a656400000000000000000000000000000000000000000000000000604082015260600190565b602981527f526573706f6e64576974684d6f76653a206d75737420626520612076616c696460208201527f20726573706f6e73650000000000000000000000000000000000000000000000604082015260600190565b601381527f57697468647261773a206f766572647261776e00000000000000000000000000602082015260400190565b602c81527f436c61696d3a2067756172616e746f72206d757374206265207375666669636960208201527f656e746c792066756e6465640000000000000000000000000000000000000000604082015260600190565b602d81527f466f7263654d6f76653a206368616c6c656e6765436f6d6d69746d656e74206e60208201527f6f7420617574686f72697a656400000000000000000000000000000000000000604082015260600190565b601f81527f5265667574653a206d6f7665206d75737420626520617574686f72697a656400602082015260400190565b602181527f5472616e736665723a206f7574636f6d65206d7573742062652070726573656e60208201527f7400000000000000000000000000000000000000000000000000000000000000604082015260600190565b604581527f636f6e636c756465416e6457697468647261773a206368616e6e656c20616c7260208201527f6561647920636f6e636c756465642077697468206120646966666572656e742060408201527f70726f6f66000000000000000000000000000000000000000000000000000000606082015260800190565b602a81527f466f7263654d6f76653a20616772656564436f6d6d69746d656e74206e6f742060208201527f617574686f72697a656400000000000000000000000000000000000000000000604082015260600190565b602881527f526573706f6e64576974684d6f76653a206d6f7665206d75737420626520617560208201527f74686f72697a6564000000000000000000000000000000000000000000000000604082015260600190565b601c81527f5472616e736665723a207472616e7366657220746f6f206c6172676500000000602082015260400190565b603281527f466f7263654d6f76653a20616c6c6f636174696f6e206f7574636f6d65206d7560208201527f73742068617665207265736f6c7574696f6e0000000000000000000000000000604082015260600190565b805160808301906149508482613e61565b5060208201516149636020850182613e61565b506040820151614976604085018261417c565b5060608201516149896060850182613e61565b50505050565b80516000906101208401906149a48582613e61565b5060208301516149b76020860182614cc6565b50604083015184820360408601526149cf8282613e70565b91505060608301516149e46060860182614ccf565b5060808301516149f76080860182614cc6565b5060a0830151614a0a60a0860182614cc6565b5060c083015184820360c0860152614a228282613e70565b91505060e083015184820360e0860152614a3c8282613ffb565b915050610100830151848203610100860152614a588282614185565b95945050505050565b8051600090610120840190614a768582613e61565b506020830151614a896020860182614cc6565b5060408301518482036040860152614aa18282613ec7565b9150506060830151614ab66060860182614ccf565b506080830151614ac96080860182614cc6565b5060a0830151614adc60a0860182614cc6565b5060c083015184820360c0860152614af48282613ec7565b91505060e083015184820360e0860152614a3c8282614048565b8054600090610120840190614b2281613680565b614b2c8682613e61565b50614b3681615146565b614b436020870182614cc6565b50600184018583036040870152614b5a8382613f14565b92505060028401549050614b6d81613680565b614b7a6060870182614ccf565b50614b848161515c565b614b916080870182614cc6565b50614b9b81615150565b614ba860a0870182614cc6565b506003840185830360c0870152614bbf8382613f14565b9250506004840185830360e0870152614bd88382614095565b92505060058401858303610100870152614bf283826141ba565b9695505050505050565b8054600090610120840190614c1081613680565b614c1a8682613e61565b50614c2481615146565b614c316020870182614cc6565b50600184018583036040870152614c488382613f61565b92505060028401549050614c5b81613680565b614c686060870182614ccf565b50614c728161515c565b614c7f6080870182614cc6565b50614c8981615150565b614c9660a0870182614cc6565b506003840185830360c0870152614cad8382613f61565b9250506004840185830360e0870152614bd883826140e2565b613e6a816150f0565b613e6a816150f9565b60208101612c048284613e61565b60408101614cf48285613e61565b818103602083015261347c818461498f565b60608101614d148286613e61565b8181036020830152614d26818561498f565b905061347c604083018461417c565b60608101614d438286613e61565b614d50602083018561417c565b61347c604083018461417c565b60208082528101612c0481614239565b60208082528101612c048161428f565b60208082528101612c04816142e5565b60208082528101612c048161433b565b60208082528101612c0481614391565b60208082528101612c04816143c1565b60208082528101612c04816143f1565b60208082528101612c0481614421565b60208082528101612c0481614477565b60208082528101612c04816144a7565b60208082528101612c04816144fd565b60208082528101612c0481614553565b60208082528101612c0481614583565b60208082528101612c04816145d9565b60208082528101612c048161462f565b60208082528101612c048161465f565b60208082528101612c04816146b5565b60208082528101612c048161470b565b60208082528101612c048161473b565b60208082528101612c0481614791565b60208082528101612c048161480d565b60208082528101612c0481614863565b60208082528101612c04816148b9565b60208082528101612c04816148e9565b60808101612c04828461493f565b602080825281016136a9818461498f565b602080825281016136a98184614a61565b60408082528101614f1e8185614a61565b9050818103602083015261347c8184614a61565b602080825281016136a98184614b0e565b60c08082528101614f548189614bfc565b90508181036020830152614f688188614a61565b90508181036040830152614f7c8187614a61565b90508181036060830152614f90818661412f565b90508181036080830152614fa48185613fae565b905081810360a0830152614fb88184613fae565b98975050505050505050565b60a08082528101614fd58188614bfc565b90508181036020830152614fe98187614a61565b9050614ff86040830186614ccf565b615005606083018561417c565b614bf2608083018461417c565b60208101612c04828461417c565b6060810161502e828661417c565b8181036020830152615040818561498f565b905061347c6040830184613e61565b60405181810167ffffffffffffffff8111828210171561506e57600080fd5b604052919050565b600067ffffffffffffffff82111561508d57600080fd5b5060209081020190565b600067ffffffffffffffff8211156150ae57600080fd5b506020601f91909101601f19160190565b60200190565b60009081526020902090565b5190565b5490565b60010190565b6000600160a060020a038216612c04565b63ffffffff1690565b60ff1690565b151590565b82818337506000910152565b60005b8381101561512b578181015183820152602001615113565b838111156149895750506000910152565b601f01601f191690565b60a060020a900490565b65010000000000900490565b61010090049056fea265627a7a723058209ecf7939dacd70914c4464723e7def36e9a35a5b98f0c4deec7996da2b35b5686c6578706572696d656e74616cf50037",
  "source": "pragma solidity ^0.5.0;\npragma experimental ABIEncoderV2;\nimport \"fmg-core/contracts/Commitment.sol\";\nimport \"fmg-core/contracts/Rules.sol\";\n\ncontract NitroAdjudicator {\n    using Commitment for Commitment.CommitmentStruct;\n\n    struct Authorization {\n        // Prevents replay attacks:\n        // It's required that the participant signs the message, meaning only\n        // the participant can authorize a withdrawal.\n        // Moreover, the participant should sign the address that they wish\n        // to send the transaction from, preventing any replay attack.\n        address participant; // the account used to sign commitment transitions\n        address destination; // either an account or a channel\n        uint amount;\n        address sender; // the account used to sign transactions\n    }\n\n    struct Outcome {\n        address[] destination;\n        uint256 finalizedAt;\n        Commitment.CommitmentStruct challengeCommitment;\n\n        // exactly one of the following two should be non-null\n        // guarantee channels\n        address guaranteedChannel; // should be zero address in allocation channels\n        uint[] allocation;         // should be zero length in guarantee channels\n    }\n\n    struct Signature {\n        uint8 v;\n        bytes32 r;\n        bytes32 s;\n    }\n    struct ConclusionProof {\n        Commitment.CommitmentStruct penultimateCommitment;\n        Signature penultimateSignature;\n        Commitment.CommitmentStruct ultimateCommitment;\n        Signature ultimateSignature;\n    }\n\n    mapping(address => uint) public holdings;\n    mapping(address => Outcome) public outcomes;\n    address private constant zeroAddress = address(0);\n\n    // TODO: Challenge duration should depend on the channel\n    uint constant CHALLENGE_DURATION = 5 minutes;\n\n    // **************\n    // Eth Management\n    // **************\n\n    function deposit(address destination) public payable {\n        holdings[destination] = holdings[destination] + msg.value;\n        emit Deposited(destination,msg.value, holdings[destination]);\n    }\n\n    function withdraw(address participant, address payable destination, uint amount, uint8 _v, bytes32 _r, bytes32 _s) public payable {\n        require(\n            holdings[participant] >= amount,\n            \"Withdraw: overdrawn\"\n        );\n        Authorization memory authorization = Authorization(\n            participant,\n            destination,\n            amount,\n            msg.sender\n        );\n\n        require(\n            recoverSigner(abi.encode(authorization), _v, _r, _s) == participant,\n            \"Withdraw: not authorized by participant\"\n        );\n\n        holdings[participant] = holdings[participant] - amount;\n        destination.transfer(amount);\n    }\n\n    function transfer(address channel, address destination, uint amount) public {\n        require(\n            outcomes[channel].finalizedAt <= now,\n            \"Transfer: outcome must be final\"\n        );\n        require(\n            outcomes[channel].finalizedAt > 0,\n            \"Transfer: outcome must be present\"\n        );\n\n        uint owedToDestination = overlap(destination, outcomes[channel], amount);\n\n        require(\n            owedToDestination <= holdings[channel],\n            \"Transfer: holdings[channel] must cover transfer\"\n        );\n        require(\n            owedToDestination >= amount,\n            \"Transfer: transfer too large\"\n        );\n\n        holdings[destination] = holdings[destination] + owedToDestination;\n        holdings[channel] = holdings[channel] - owedToDestination;\n\n        outcomes[channel] = remove(outcomes[channel], destination, amount);\n    }\n\n    function claim(address guarantor, address recipient, uint amount) public {\n        Outcome memory guarantee = outcomes[guarantor];\n        require(\n            guarantee.guaranteedChannel != zeroAddress,\n            \"Claim: a guarantee channel is required\"\n        );\n        require(\n            isChannelClosed(guarantor),\n            \"Claim: channel must be closed\"\n        );\n\n        uint funding = holdings[guarantor];\n        Outcome memory reprioritizedOutcome = reprioritize(outcomes[guarantee.guaranteedChannel], guarantee);\n        if (overlap(recipient, reprioritizedOutcome, funding) >= amount) {\n            outcomes[guarantee.guaranteedChannel] = remove(outcomes[guarantee.guaranteedChannel], recipient, amount);\n            holdings[guarantor] -= amount;\n            holdings[recipient] += amount;\n        } else {\n            revert('Claim: guarantor must be sufficiently funded');\n        }\n    }\n\n    // ********************\n    // Eth Management Logic\n    // ********************\n\n    function reprioritize(Outcome memory allocation, Outcome memory guarantee) internal pure returns (Outcome memory) {\n        require(\n            guarantee.guaranteedChannel != address(0),\n            \"Claim: a guarantee channel is required\"\n        );\n        address[] memory newDestination = new address[](guarantee.destination.length);\n        uint[] memory newAllocation = new uint[](guarantee.destination.length);\n        for (uint aIdx = 0; aIdx < allocation.destination.length; aIdx++) {\n            for (uint gIdx = 0; gIdx < guarantee.destination.length; gIdx++) {\n                if (guarantee.destination[gIdx] == allocation.destination[aIdx]) {\n                    newDestination[gIdx] = allocation.destination[aIdx];\n                    newAllocation[gIdx] = allocation.allocation[aIdx];\n                    break;\n                }\n            }\n        }\n\n        return Outcome(\n            newDestination,\n            allocation.finalizedAt,\n            allocation.challengeCommitment,\n            zeroAddress,\n            newAllocation\n        );\n    }\n\n    function overlap(address recipient, Outcome memory outcome, uint funding) internal pure returns (uint256) {\n        uint result = 0;\n\n        for (uint i = 0; i < outcome.destination.length; i++) {\n            if (funding <= 0) {\n                break;\n            }\n\n            if (outcome.destination[i] == recipient) {\n                // It is technically allowed for a recipient to be listed in the\n                // outcome multiple times, so we must iterate through the entire\n                // array.\n                result += min(outcome.allocation[i], funding);\n            }\n\n            funding -= outcome.allocation[i];\n        }\n\n        return result;\n    }\n\n    function remove(Outcome memory outcome, address recipient, uint amount) internal pure returns (Outcome memory) { \n        uint256[] memory updatedAllocation = outcome.allocation;\n        uint256 reduction = 0;\n        for (uint i = 0; i < outcome.destination.length; i++) {\n            if (outcome.destination[i] == recipient) {\n                // It is technically allowed for a recipient to be listed in the\n                // outcome multiple times, so we must iterate through the entire\n                // array.\n                reduction += min(outcome.allocation[i], amount);\n                amount = amount - reduction;\n                updatedAllocation[i] = updatedAllocation[i] - reduction;\n            }\n        }\n\n        return Outcome(\n            outcome.destination,\n            outcome.finalizedAt,\n            outcome.challengeCommitment, // Once the outcome is finalized, \n            zeroAddress,\n            updatedAllocation\n        );\n    }\n\n    // ****************\n    // ForceMove Events\n    // ****************\n\n    event ChallengeCreated(\n        address channelId,\n        Commitment.CommitmentStruct commitment,\n        uint256 finalizedAt\n    );\n    event Concluded(address channelId);\n    event Refuted(address channelId, Commitment.CommitmentStruct refutation);\n    event RespondedWithMove(address channelId, Commitment.CommitmentStruct response);\n    event RespondedWithAlternativeMove(Commitment.CommitmentStruct alternativeResponse);\n    event Deposited(address destination, uint256 amountDeposited, uint256 destinationHoldings);\n    // **********************\n    // ForceMove Protocol API\n    // **********************\n\n    function conclude(ConclusionProof memory proof) public {\n        _conclude(proof);\n    }\n\n    function concludeAndWithdraw(ConclusionProof memory proof,address participant, address payable destination, uint amount, uint8 _v, bytes32 _r, bytes32 _s) public{\n        address channelId = proof.penultimateCommitment.channelId();\n        if (outcomes[channelId].finalizedAt > now || outcomes[channelId].finalizedAt == 0){\n        _conclude(proof);\n        }else{\n            require(keccak256(abi.encode(proof.penultimateCommitment)) ==   keccak256(abi.encode( outcomes[channelId].challengeCommitment)),\n            \"concludeAndWithdraw: channel already concluded with a different proof\");\n        }\n        transfer(channelId,participant, amount);\n        withdraw(participant,destination, amount, _v,_r,_s);\n    }\n\n    function forceMove(\n        Commitment.CommitmentStruct memory agreedCommitment,\n        Commitment.CommitmentStruct memory challengeCommitment,\n        address guaranteedChannel,\n        Signature[] memory signatures\n    ) public {\n        require(\n            !isChannelClosed(agreedCommitment.channelId()),\n            \"ForceMove: channel must be open\"\n        );\n        require(\n            moveAuthorized(agreedCommitment, signatures[0]),\n            \"ForceMove: agreedCommitment not authorized\"\n        );\n        require(\n            moveAuthorized(challengeCommitment, signatures[1]),\n            \"ForceMove: challengeCommitment not authorized\"\n        );\n        require(\n            Rules.validTransition(agreedCommitment, challengeCommitment)\n        );\n        if (guaranteedChannel == zeroAddress) {\n            // If the guaranteeChannel is the zeroAddress, this outcome\n            // is an allocation\n            require(\n                agreedCommitment.allocation.length > 0,\n                \"ForceMove: allocation outcome must have resolution\"\n            );\n        } else {\n            // The non-zeroness of guaranteeChannel indicates that this outcome\n            // is a guarantee\n            require(\n                challengeCommitment.allocation.length == 0,\n                \"ForceMove: guarantee outcome cannot have allocation\"\n            );\n        }\n\n        address channelId = agreedCommitment.channelId();\n\n        outcomes[channelId] = Outcome(\n            challengeCommitment.participants,\n            now + CHALLENGE_DURATION,\n            challengeCommitment,\n            guaranteedChannel,\n            challengeCommitment.allocation\n        );\n\n        emit ChallengeCreated(\n            channelId,\n            challengeCommitment,\n            now\n        );\n    }\n\n    uint t = block.timestamp;\n\n    function refute(Commitment.CommitmentStruct memory refutationCommitment, Signature memory signature) public {\n        address channel = refutationCommitment.channelId();\n        require(\n            !isChannelClosed(channel),\n            \"Refute: channel must be open\"\n        );\n\n        require(\n            moveAuthorized(refutationCommitment, signature),\n            \"Refute: move must be authorized\"\n        );\n\n        require(\n            Rules.validRefute(outcomes[channel].challengeCommitment, refutationCommitment, signature.v, signature.r, signature.s),\n            \"Refute: must be a valid refute\"\n        );\n\n        emit Refuted(channel, refutationCommitment);\n        Outcome memory updatedOutcome = Outcome(\n            outcomes[channel].destination,\n            0,\n            refutationCommitment,\n            outcomes[channel].guaranteedChannel,\n            refutationCommitment.allocation\n        );\n        outcomes[channel] = updatedOutcome;\n    }\n\n    function respondWithMove(Commitment.CommitmentStruct memory responseCommitment, Signature memory signature) public {\n        address channel = responseCommitment.channelId();\n        require(\n            !isChannelClosed(channel),\n            \"RespondWithMove: channel must be open\"\n        );\n\n        require(\n            moveAuthorized(responseCommitment, signature),\n            \"RespondWithMove: move must be authorized\"\n        );\n\n        require(\n            Rules.validRespondWithMove(outcomes[channel].challengeCommitment, responseCommitment, signature.v, signature.r, signature.s),\n            \"RespondWithMove: must be a valid response\"\n        );\n\n        emit RespondedWithMove(channel, responseCommitment);\n\n        Outcome memory updatedOutcome = Outcome(\n            outcomes[channel].destination,\n            0,\n            responseCommitment,\n            outcomes[channel].guaranteedChannel,\n            responseCommitment.allocation\n        );\n        outcomes[channel] = updatedOutcome;\n    }\n\n    function alternativeRespondWithMove(\n        Commitment.CommitmentStruct memory _alternativeCommitment,\n        Commitment.CommitmentStruct memory _responseCommitment,\n        Signature memory _alternativeSignature,\n        Signature memory _responseSignature\n    )\n      public\n    {\n        address channel = _responseCommitment.channelId();\n        require(\n            !isChannelClosed(channel),\n            \"AlternativeRespondWithMove: channel must be open\"\n        );\n\n        require(\n            moveAuthorized(_responseCommitment, _responseSignature),\n            \"AlternativeRespondWithMove: move must be authorized\"\n        );\n\n        uint8[] memory v = new uint8[](2);\n        v[0] = _alternativeSignature.v;\n        v[1] = _responseSignature.v;\n\n        bytes32[] memory r = new bytes32[](2);\n        r[0] = _alternativeSignature.r;\n        r[1] = _responseSignature.r;\n\n        bytes32[] memory s = new bytes32[](2);\n        s[0] = _alternativeSignature.s;\n        s[1] = _responseSignature.s;\n\n\n        require(\n            Rules.validAlternativeRespondWithMove(\n                outcomes[channel].challengeCommitment,\n                _alternativeCommitment,\n                _responseCommitment,\n                v,\n                r,\n                s\n            ),\n            \"RespondWithMove: must be a valid response\"\n        );\n\n        emit RespondedWithAlternativeMove(_responseCommitment);\n\n        Outcome memory updatedOutcome = Outcome(\n            outcomes[channel].destination,\n            0,\n            _responseCommitment,\n            outcomes[channel].guaranteedChannel,\n            _responseCommitment.allocation\n        );\n        outcomes[channel] = updatedOutcome;\n    }\n\n    // ************************\n    // ForceMove Protocol Logic\n    // ************************\n\n    function _conclude(ConclusionProof memory proof) internal {\n        address channelId = proof.penultimateCommitment.channelId();\n        require(\n            (outcomes[channelId].finalizedAt > now || outcomes[channelId].finalizedAt == 0),\n            \"Conclude: channel must not be finalized\"\n        );\n\n        outcomes[channelId] = Outcome(\n            proof.penultimateCommitment.participants,\n            now,\n            proof.penultimateCommitment,\n            outcomes[channelId].guaranteedChannel,\n            proof.penultimateCommitment.allocation\n        );\n        emit Concluded(channelId);\n    }\n\n    // ****************\n    // Helper functions\n    // ****************\n\n    function isChannelClosed(address channel) internal view returns (bool) {\n        return outcomes[channel].finalizedAt < now && outcomes[channel].finalizedAt > 0;\n    }\n\n    function moveAuthorized(Commitment.CommitmentStruct memory _commitment, Signature memory signature) internal pure returns (bool){\n        return _commitment.mover() == recoverSigner(\n            abi.encode(_commitment),\n            signature.v,\n            signature.r,\n            signature.s\n        );\n    }\n\n    function recoverSigner(bytes memory _d, uint8 _v, bytes32 _r, bytes32 _s) internal pure returns(address) {\n        bytes memory prefix = \"\\x19Ethereum Signed Message:\\n32\";\n        bytes32 h = keccak256(_d);\n\n        bytes32 prefixedHash = keccak256(abi.encodePacked(prefix, h));\n\n        address a = ecrecover(prefixedHash, _v, _r, _s);\n\n        return(a);\n    }\n\n    function min(uint a, uint b) internal pure returns (uint) {\n        if (a <= b) {\n            return a;\n        }\n\n        return b;\n    }\n}",
  "sourcePath": "fmg-nitro-adjudicator/contracts/NitroAdjudicator.sol",
  "compiler": {
    "name": "solc",
    "version": "0.5.0+commit.1d4f565a.Emscripten.clang"
  },
  "schemaVersion": "3.0.2",
  "updatedAt": "2019-02-27T14:22:28.794Z",
  "devdoc": {
    "methods": {}
  },
  "userdoc": {
    "methods": {}
  }
}