{
  "contractName": "Rules",
  "abi": [
    {
      "constant": true,
      "inputs": [
        {
          "name": "_fromState",
          "type": "bytes"
        },
        {
          "name": "_toState",
          "type": "bytes"
        },
        {
          "name": "v",
          "type": "uint8[]"
        },
        {
          "name": "r",
          "type": "bytes32[]"
        },
        {
          "name": "s",
          "type": "bytes32[]"
        }
      ],
      "name": "validForceMove",
      "outputs": [
        {
          "name": "",
          "type": "bool"
        }
      ],
      "payable": false,
      "stateMutability": "pure",
      "type": "function"
    },
    {
      "constant": true,
      "inputs": [
        {
          "name": "_fromState",
          "type": "bytes"
        },
        {
          "name": "_toState",
          "type": "bytes"
        },
        {
          "name": "v",
          "type": "uint8[]"
        },
        {
          "name": "r",
          "type": "bytes32[]"
        },
        {
          "name": "s",
          "type": "bytes32[]"
        }
      ],
      "name": "validConclusionProof",
      "outputs": [
        {
          "name": "",
          "type": "bool"
        }
      ],
      "payable": false,
      "stateMutability": "pure",
      "type": "function"
    },
    {
      "constant": true,
      "inputs": [
        {
          "name": "_challengeState",
          "type": "bytes"
        },
        {
          "name": "_refutationState",
          "type": "bytes"
        },
        {
          "name": "v",
          "type": "uint8"
        },
        {
          "name": "r",
          "type": "bytes32"
        },
        {
          "name": "s",
          "type": "bytes32"
        }
      ],
      "name": "validRefute",
      "outputs": [
        {
          "name": "",
          "type": "bool"
        }
      ],
      "payable": false,
      "stateMutability": "pure",
      "type": "function"
    },
    {
      "constant": true,
      "inputs": [
        {
          "name": "_challengeState",
          "type": "bytes"
        },
        {
          "name": "_nextState",
          "type": "bytes"
        },
        {
          "name": "v",
          "type": "uint8"
        },
        {
          "name": "r",
          "type": "bytes32"
        },
        {
          "name": "s",
          "type": "bytes32"
        }
      ],
      "name": "validRespondWithMove",
      "outputs": [
        {
          "name": "",
          "type": "bool"
        }
      ],
      "payable": false,
      "stateMutability": "pure",
      "type": "function"
    },
    {
      "constant": true,
      "inputs": [
        {
          "name": "_challengeState",
          "type": "bytes"
        },
        {
          "name": "_alternativeState",
          "type": "bytes"
        },
        {
          "name": "_nextState",
          "type": "bytes"
        },
        {
          "name": "v",
          "type": "uint8[]"
        },
        {
          "name": "r",
          "type": "bytes32[]"
        },
        {
          "name": "s",
          "type": "bytes32[]"
        }
      ],
      "name": "validAlternativeRespondWithMove",
      "outputs": [
        {
          "name": "",
          "type": "bool"
        }
      ],
      "payable": false,
      "stateMutability": "pure",
      "type": "function"
    },
    {
      "constant": true,
      "inputs": [
        {
          "name": "_fromState",
          "type": "bytes"
        },
        {
          "name": "_toState",
          "type": "bytes"
        }
      ],
      "name": "validTransition",
      "outputs": [
        {
          "name": "",
          "type": "bool"
        }
      ],
      "payable": false,
      "stateMutability": "pure",
      "type": "function"
    },
    {
      "constant": true,
      "inputs": [
        {
          "name": "_fromState",
          "type": "bytes"
        },
        {
          "name": "_toState",
          "type": "bytes"
        }
      ],
      "name": "validTransitionFromPreFundSetup",
      "outputs": [
        {
          "name": "",
          "type": "bool"
        }
      ],
      "payable": false,
      "stateMutability": "pure",
      "type": "function"
    },
    {
      "constant": true,
      "inputs": [
        {
          "name": "_fromState",
          "type": "bytes"
        },
        {
          "name": "_toState",
          "type": "bytes"
        }
      ],
      "name": "validTransitionFromPostFundSetup",
      "outputs": [
        {
          "name": "",
          "type": "bool"
        }
      ],
      "payable": false,
      "stateMutability": "pure",
      "type": "function"
    },
    {
      "constant": true,
      "inputs": [
        {
          "name": "_fromState",
          "type": "bytes"
        },
        {
          "name": "_toState",
          "type": "bytes"
        }
      ],
      "name": "validTransitionFromGame",
      "outputs": [
        {
          "name": "",
          "type": "bool"
        }
      ],
      "payable": false,
      "stateMutability": "pure",
      "type": "function"
    },
    {
      "constant": true,
      "inputs": [
        {
          "name": "_fromState",
          "type": "bytes"
        },
        {
          "name": "_toState",
          "type": "bytes"
        }
      ],
      "name": "validTransitionFromConclude",
      "outputs": [
        {
          "name": "",
          "type": "bool"
        }
      ],
      "payable": false,
      "stateMutability": "pure",
      "type": "function"
    }
  ],
  "bytecode": "0x613ca8610030600b82828239805160001a6073146000811461002057610022565bfe5b5030600052607381538281f30073000000000000000000000000000000000000000030146080604052600436106100a15763ffffffff60e060020a60003504166351d6d79481146100a657806359b3fb49146101ef5780638620e3c0146102885780639207bf96146103125780639babb7a41461039c578063a483eb1d14610426578063d997535f14610599578063ded9dba9146106ce578063df91ac4114610758578063f788ea18146107e2575b600080fd5b6040805160206004803580820135601f81018490048402850184019095528484526101db94369492936024939284019190819084018382808284375050604080516020601f89358b018035918201839004830284018301909452808352979a999881019791965091820194509250829150840183828082843750506040805187358901803560208181028481018201909552818452989b9a998901989297509082019550935083925085019084908082843750506040805187358901803560208181028481018201909552818452989b9a998901989297509082019550935083925085019084908082843750506040805187358901803560208181028481018201909552818452989b9a99890198929750908201955093508392508501908490808284375094975061087b9650505050505050565b604080519115158252519081900360200190f35b6040805160206004803580820135601f81018490048402850184019095528484526101db94369492936024939284019190819084018382808284375050604080516020601f89358b018035918201839004830284018301909452808352979a9998810197919650918201945092508291508401838280828437509497505050833560ff1694505050602082013591604001359050610bf5565b6040805160206004803580820135601f81018490048402850184019095528484526101db94369492936024939284019190819084018382808284375050604080516020601f89358b018035918201839004830284018301909452808352979a999881019791965091820194509250829150840183828082843750949750610d1b9650505050505050565b6040805160206004803580820135601f81018490048402850184019095528484526101db94369492936024939284019190819084018382808284375050604080516020601f89358b018035918201839004830284018301909452808352979a999881019791965091820194509250829150840183828082843750949750610f869650505050505050565b6040805160206004803580820135601f81018490048402850184019095528484526101db94369492936024939284019190819084018382808284375050604080516020601f89358b018035918201839004830284018301909452808352979a9998810197919650918201945092508291508401838280828437509497506117119650505050505050565b6040805160206004803580820135601f81018490048402850184019095528484526101db94369492936024939284019190819084018382808284375050604080516020601f89358b018035918201839004830284018301909452808352979a99988101979196509182019450925082915084018382808284375050604080516020601f89358b018035918201839004830284018301909452808352979a999881019791965091820194509250829150840183828082843750506040805187358901803560208181028481018201909552818452989b9a998901989297509082019550935083925085019084908082843750506040805187358901803560208181028481018201909552818452989b9a998901989297509082019550935083925085019084908082843750506040805187358901803560208181028481018201909552818452989b9a998901989297509082019550935083925085019084908082843750949750611a739650505050505050565b6040805160206004803580820135601f81018490048402850184019095528484526101db94369492936024939284019190819084018382808284375050604080516020601f89358b018035918201839004830284018301909452808352979a999881019791965091820194509250829150840183828082843750506040805187358901803560208181028481018201909552818452989b9a998901989297509082019550935083925085019084908082843750506040805187358901803560208181028481018201909552818452989b9a998901989297509082019550935083925085019084908082843750506040805187358901803560208181028481018201909552818452989b9a99890198929750908201955093508392508501908490808284375094975061208f9650505050505050565b6040805160206004803580820135601f81018490048402850184019095528484526101db94369492936024939284019190819084018382808284375050604080516020601f89358b018035918201839004830284018301909452808352979a9998810197919650918201945092508291508401838280828437509497506123039650505050505050565b6040805160206004803580820135601f81018490048402850184019095528484526101db94369492936024939284019190819084018382808284375050604080516020601f89358b018035918201839004830284018301909452808352979a999881019791965091820194509250829150840183828082843750949750612fff9650505050505050565b6040805160206004803580820135601f81018490048402850184019095528484526101db94369492936024939284019190819084018382808284375050604080516020601f89358b018035918201839004830284018301909452808352979a9998810197919650918201945092508291508401838280828437509497505050833560ff169450505060208201359160400135905061377e565b60008573__State_________________________________63ce4338e290918660008151811015156108a957fe5b906020019060200201518660008151811015156108c257fe5b906020019060200201518660008151811015156108db57fe5b602090810290910181015160405160e060020a63ffffffff881602815260ff85166024820152604481018490526064810182905260806004820190815286516084830152865192939092839260a4019188019080838360005b8381101561094c578181015183820152602001610934565b50505050905090810190601f1680156109795780820380516001836020036101000a031916815260200191505b509550505050505060006040518083038186803b15801561099957600080fd5b505af41580156109ad573d6000803e3d6000fd5b505050508473__State_________________________________63ce4338e290918660018151811015156109dd57fe5b906020019060200201518660018151811015156109f657fe5b90602001906020020151866001815181101515610a0f57fe5b602090810290910181015160405160e060020a63ffffffff881602815260ff85166024820152604481018490526064810182905260806004820190815286516084830152865192939092839260a4019188019080838360005b83811015610a80578181015183820152602001610a68565b50505050905090810190601f168015610aad5780820380516001836020036101000a031916815260200191505b509550505050505060006040518083038186803b158015610acd57600080fd5b505af4158015610ae1573d6000803e3d6000fd5b5060039250610aee915050565b60405160e160020a635942006102815260206004820181815289516024840152895173__State_________________________________9363b28400c2938c939283926044019185019080838360005b83811015610b56578181015183820152602001610b3e565b50505050905090810190601f168015610b835780820380516001836020036101000a031916815260200191505b509250505060206040518083038186803b158015610ba057600080fd5b505af4158015610bb4573d6000803e3d6000fd5b505050506040513d6020811015610bca57600080fd5b50516003811115610bd757fe5b14610be157600080fd5b610beb8686610f86565b9695505050505050565b6040517fce4338e200000000000000000000000000000000000000000000000000000000815260ff84166024820152604481018390526064810182905260806004820190815285516084830152855160009273__State_________________________________9263ce4338e2928992899289928992829160a49091019060208801908083838e5b83811015610c95578181015183820152602001610c7d565b50505050905090810190601f168015610cc25780820380516001836020036101000a031916815260200191505b509550505050505060006040518083038186803b158015610ce257600080fd5b505af4158015610cf6573d6000803e3d6000fd5b50505050610d048686610f86565b1515610d0f57600080fd5b50600195945050505050565b600060035b60405160e160020a635942006102815260206004820181815285516024840152855173__State_________________________________9363b28400c29388939283926044019185019080838360005b83811015610d88578181015183820152602001610d70565b50505050905090810190601f168015610db55780820380516001836020036101000a031916815260200191505b509250505060206040518083038186803b158015610dd257600080fd5b505af4158015610de6573d6000803e3d6000fd5b505050506040513d6020811015610dfc57600080fd5b50516003811115610e0957fe5b14610e1357600080fd5b604080517fb53430ee0000000000000000000000000000000000000000000000000000000081526004810191825284516044820152845173__State_________________________________9263b53430ee9287928792918291602482019160640190602087019080838360005b83811015610e99578181015183820152602001610e81565b50505050905090810190601f168015610ec65780820380516001836020036101000a031916815260200191505b50838103825284518152845160209182019186019080838360005b83811015610ef9578181015183820152602001610ee1565b50505050905090810190601f168015610f265780820380516001836020036101000a031916815260200191505b5094505050505060206040518083038186803b158015610f4557600080fd5b505af4158015610f59573d6000803e3d6000fd5b505050506040513d6020811015610f6f57600080fd5b50511515610f7c57600080fd5b5060015b92915050565b60405160e060020a639c0717e302815260206004820181815284516024840152845160009373__State_________________________________93639c0717e393889390928392604490910191908501908083838b5b83811015610ff4578181015183820152602001610fdc565b50505050905090810190601f1680156110215780820380516001836020036101000a031916815260200191505b509250505060206040518083038186803b15801561103e57600080fd5b505af4158015611052573d6000803e3d6000fd5b505050506040513d602081101561106857600080fd5b505160405160e060020a639c0717e302815260206004820181815285516024840152855173__State_________________________________93639c0717e39388939283926044019185019080838360005b838110156110d25781810151838201526020016110ba565b50505050905090810190601f1680156110ff5780820380516001836020036101000a031916815260200191505b509250505060206040518083038186803b15801561111c57600080fd5b505af4158015611130573d6000803e3d6000fd5b505050506040513d602081101561114657600080fd5b50511461115257600080fd5b60405160e060020a63c084ac8d02815260206004820181815285516024840152855173__State_________________________________9363c084ac8d9388939283926044019185019080838360005b838110156111ba5781810151838201526020016111a2565b50505050905090810190601f1680156111e75780820380516001836020036101000a031916815260200191505b509250505060206040518083038186803b15801561120457600080fd5b505af4158015611218573d6000803e3d6000fd5b505050506040513d602081101561122e57600080fd5b505160405160e060020a63c084ac8d02815260206004820181815285516024840152855160019094019373__State_________________________________9363c084ac8d9388939283926044019185019080838360005b8381101561129e578181015183820152602001611286565b50505050905090810190601f1680156112cb5780820380516001836020036101000a031916815260200191505b509250505060206040518083038186803b1580156112e857600080fd5b505af41580156112fc573d6000803e3d6000fd5b505050506040513d602081101561131257600080fd5b50511461131e57600080fd5b600060405160e160020a635942006102815260206004820181815286516024840152865173__State_________________________________9363b28400c29389939283926044019185019080838360005b83811015611388578181015183820152602001611370565b50505050905090810190601f1680156113b55780820380516001836020036101000a031916815260200191505b509250505060206040518083038186803b1580156113d257600080fd5b505af41580156113e6573d6000803e3d6000fd5b505050506040513d60208110156113fc57600080fd5b5051600381111561140957fe5b1415611420576114198383612303565b9050610f80565b600160405160e160020a635942006102815260206004820181815286516024840152865173__State_________________________________9363b28400c29389939283926044019185019080838360005b8381101561148a578181015183820152602001611472565b50505050905090810190601f1680156114b75780820380516001836020036101000a031916815260200191505b509250505060206040518083038186803b1580156114d457600080fd5b505af41580156114e8573d6000803e3d6000fd5b505050506040513d60208110156114fe57600080fd5b5051600381111561150b57fe5b141561151b576114198383612fff565b600260405160e160020a635942006102815260206004820181815286516024840152865173__State_________________________________9363b28400c29389939283926044019185019080838360005b8381101561158557818101518382015260200161156d565b50505050905090810190601f1680156115b25780820380516001836020036101000a031916815260200191505b509250505060206040518083038186803b1580156115cf57600080fd5b505af41580156115e3573d6000803e3d6000fd5b505050506040513d60208110156115f957600080fd5b5051600381111561160657fe5b1415611616576114198383611711565b600360405160e160020a635942006102815260206004820181815286516024840152865173__State_________________________________9363b28400c29389939283926044019185019080838360005b83811015611680578181015183820152602001611668565b50505050905090810190601f1680156116ad5780820380516001836020036101000a031916815260200191505b509250505060206040518083038186803b1580156116ca57600080fd5b505af41580156116de573d6000803e3d6000fd5b505050506040513d60208110156116f457600080fd5b5051600381111561170157fe5b1415610f7c576114198383610d1b565b6000600260405160e160020a635942006102815260206004820181815285516024840152855173__State_________________________________9363b28400c29388939283926044019185019080838360005b8381101561177d578181015183820152602001611765565b50505050905090810190601f1680156117aa5780820380516001836020036101000a031916815260200191505b509250505060206040518083038186803b1580156117c757600080fd5b505af41580156117db573d6000803e3d6000fd5b505050506040513d60208110156117f157600080fd5b505160038111156117fe57fe5b1415611a6c576040517f3d5151fa00000000000000000000000000000000000000000000000000000000815260206004820181815285516024840152855173__State_________________________________93633d5151fa9388939283926044019185019080838360005b8381101561188257818101518382015260200161186a565b50505050905090810190601f1680156118af5780820380516001836020036101000a031916815260200191505b509250505060206040518083038186803b1580156118cc57600080fd5b505af41580156118e0573d6000803e3d6000fd5b505050506040513d60208110156118f657600080fd5b5051604080517f9207bf960000000000000000000000000000000000000000000000000000000081526004810191825285516044820152855173ffffffffffffffffffffffffffffffffffffffff90931692639207bf96928792879282916024810191606490910190602087019080838360005b8381101561198257818101518382015260200161196a565b50505050905090810190601f1680156119af5780820380516001836020036101000a031916815260200191505b50838103825284518152845160209182019186019080838360005b838110156119e25781810151838201526020016119ca565b50505050905090810190601f168015611a0f5780820380516001836020036101000a031916815260200191505b50945050505050602060405180830381600087803b158015611a3057600080fd5b505af1158015611a44573d6000803e3d6000fd5b505050506040513d6020811015611a5a57600080fd5b50511515611a6757600080fd5b610f7c565b6003610d20565b60405160e060020a639c0717e302815260206004820181815287516024840152875160009373__State_________________________________93639c0717e3938b9390928392604490910191908501908083838b5b83811015611ae1578181015183820152602001611ac9565b50505050905090810190601f168015611b0e5780820380516001836020036101000a031916815260200191505b509250505060206040518083038186803b158015611b2b57600080fd5b505af4158015611b3f573d6000803e3d6000fd5b505050506040513d6020811015611b5557600080fd5b505160405160e060020a639c0717e30281526020600482018181528a5160248401528a5173__State_________________________________93639c0717e3938d939283926044019185019080838360005b83811015611bbf578181015183820152602001611ba7565b50505050905090810190601f168015611bec5780820380516001836020036101000a031916815260200191505b509250505060206040518083038186803b158015611c0957600080fd5b505af4158015611c1d573d6000803e3d6000fd5b505050506040513d6020811015611c3357600080fd5b505114611c3f57600080fd5b60405160e060020a63c084ac8d02815260206004820181815288516024840152885173__State_________________________________9363c084ac8d938b939283926044019185019080838360005b83811015611ca7578181015183820152602001611c8f565b50505050905090810190601f168015611cd45780820380516001836020036101000a031916815260200191505b509250505060206040518083038186803b158015611cf157600080fd5b505af4158015611d05573d6000803e3d6000fd5b505050506040513d6020811015611d1b57600080fd5b505160405160e060020a63c084ac8d0281526020600482018181528a5160248401528a5173__State_________________________________9363c084ac8d938d939283926044019185019080838360005b83811015611d85578181015183820152602001611d6d565b50505050905090810190601f168015611db25780820380516001836020036101000a031916815260200191505b509250505060206040518083038186803b158015611dcf57600080fd5b505af4158015611de3573d6000803e3d6000fd5b505050506040513d6020811015611df957600080fd5b505114611e0557600080fd5b8573__State_________________________________63ce4338e29091866000815181101515611e3157fe5b90602001906020020151866000815181101515611e4a57fe5b90602001906020020151866000815181101515611e6357fe5b602090810290910181015160405160e060020a63ffffffff881602815260ff85166024820152604481018490526064810182905260806004820190815286516084830152865192939092839260a4019188019080838360005b83811015611ed4578181015183820152602001611ebc565b50505050905090810190601f168015611f015780820380516001836020036101000a031916815260200191505b509550505050505060006040518083038186803b158015611f2157600080fd5b505af4158015611f35573d6000803e3d6000fd5b505050508473__State_________________________________63ce4338e29091866001815181101515611f6557fe5b90602001906020020151866001815181101515611f7e57fe5b90602001906020020151866001815181101515611f9757fe5b602090810290910181015160405160e060020a63ffffffff881602815260ff85166024820152604481018490526064810182905260806004820190815286516084830152865192939092839260a4019188019080838360005b83811015612008578181015183820152602001611ff0565b50505050905090810190601f1680156120355780820380516001836020036101000a031916815260200191505b509550505050505060006040518083038186803b15801561205557600080fd5b505af4158015612069573d6000803e3d6000fd5b505050506120778686610f86565b151561208257600080fd5b5060019695505050505050565b60008573__State_________________________________63ce4338e290918660008151811015156120bd57fe5b906020019060200201518660008151811015156120d657fe5b906020019060200201518660008151811015156120ef57fe5b602090810290910181015160405160e060020a63ffffffff881602815260ff85166024820152604481018490526064810182905260806004820190815286516084830152865192939092839260a4019188019080838360005b83811015612160578181015183820152602001612148565b50505050905090810190601f16801561218d5780820380516001836020036101000a031916815260200191505b509550505050505060006040518083038186803b1580156121ad57600080fd5b505af41580156121c1573d6000803e3d6000fd5b505050508473__State_________________________________63ce4338e290918660018151811015156121f157fe5b9060200190602002015186600181518110151561220a57fe5b9060200190602002015186600181518110151561222357fe5b602090810290910181015160405160e060020a63ffffffff881602815260ff85166024820152604481018490526064810182905260806004820190815286516084830152865192939092839260a4019188019080838360005b8381101561229457818101518382015260200161227c565b50505050905090810190601f1680156122c15780820380516001836020036101000a031916815260200191505b509550505050505060006040518083038186803b1580156122e157600080fd5b505af41580156122f5573d6000803e3d6000fd5b50505050610beb8686610f86565b6040517ff92bdcb100000000000000000000000000000000000000000000000000000000815260206004820181815284516024840152845160009360019373__State_________________________________9363f92bdcb19389939192839260440191908501908083838c5b83811015612388578181015183820152602001612370565b50505050905090810190601f1680156123b55780820380516001836020036101000a031916815260200191505b509250505060206040518083038186803b1580156123d257600080fd5b505af41580156123e6573d6000803e3d6000fd5b505050506040513d60208110156123fc57600080fd5b505160405160e160020a636555e7a5028152602060048201818152875160248401528751949093039373__State_________________________________9363caabcf4a9389939192839260449092019185019080838360005b8381101561246e578181015183820152602001612456565b50505050905090810190601f16801561249b5780820380516001836020036101000a031916815260200191505b509250505060206040518083038186803b1580156124b857600080fd5b505af41580156124cc573d6000803e3d6000fd5b505050506040513d60208110156124e257600080fd5b50511415612bd557600160405160e160020a635942006102815260206004820181815285516024840152855173__State_________________________________9363b28400c29388939283926044019185019080838360005b8381101561255457818101518382015260200161253c565b50505050905090810190601f1680156125815780820380516001836020036101000a031916815260200191505b509250505060206040518083038186803b15801561259e57600080fd5b505af41580156125b2573d6000803e3d6000fd5b505050506040513d60208110156125c857600080fd5b505160038111156125d557fe5b141561299a5760405160e160020a636555e7a502815260206004820181815284516024840152845173__State_________________________________9363caabcf4a9387939283926044019185019080838360005b8381101561264357818101518382015260200161262b565b50505050905090810190601f1680156126705780820380516001836020036101000a031916815260200191505b509250505060206040518083038186803b15801561268d57600080fd5b505af41580156126a1573d6000803e3d6000fd5b505050506040513d60208110156126b757600080fd5b5051156126c357600080fd5b604080517f9567151d0000000000000000000000000000000000000000000000000000000081526004810191825284516044820152845173__State_________________________________92639567151d9287928792918291602482019160640190602087019080838360005b83811015612749578181015183820152602001612731565b50505050905090810190601f1680156127765780820380516001836020036101000a031916815260200191505b50838103825284518152845160209182019186019080838360005b838110156127a9578181015183820152602001612791565b50505050905090810190601f1680156127d65780820380516001836020036101000a031916815260200191505b5094505050505060206040518083038186803b1580156127f557600080fd5b505af4158015612809573d6000803e3d6000fd5b505050506040513d602081101561281f57600080fd5b5051151561282c57600080fd5b604080517fb53430ee0000000000000000000000000000000000000000000000000000000081526004810191825284516044820152845173__State_________________________________9263b53430ee9287928792918291602482019160640190602087019080838360005b838110156128b257818101518382015260200161289a565b50505050905090810190601f1680156128df5780820380516001836020036101000a031916815260200191505b50838103825284518152845160209182019186019080838360005b838110156129125781810151838201526020016128fa565b50505050905090810190601f16801561293f5780820380516001836020036101000a031916815260200191505b5094505050505060206040518083038186803b15801561295e57600080fd5b505af4158015612972573d6000803e3d6000fd5b505050506040513d602081101561298857600080fd5b5051151561299557600080fd5b611a67565b600360405160e160020a635942006102815260206004820181815285516024840152855173__State_________________________________9363b28400c29388939283926044019185019080838360005b83811015612a045781810151838201526020016129ec565b50505050905090810190601f168015612a315780820380516001836020036101000a031916815260200191505b509250505060206040518083038186803b158015612a4e57600080fd5b505af4158015612a62573d6000803e3d6000fd5b505050506040513d6020811015612a7857600080fd5b50516003811115612a8557fe5b14612a8f57600080fd5b604080517fb53430ee0000000000000000000000000000000000000000000000000000000081526004810191825284516044820152845173__State_________________________________9263b53430ee9287928792918291602482019160640190602087019080838360005b83811015612b15578181015183820152602001612afd565b50505050905090810190601f168015612b425780820380516001836020036101000a031916815260200191505b50838103825284518152845160209182019186019080838360005b83811015612b75578181015183820152602001612b5d565b50505050905090810190601f168015612ba25780820380516001836020036101000a031916815260200191505b5094505050505060206040518083038186803b158015612bc157600080fd5b505af4158015611a44573d6000803e3d6000fd5b600060405160e160020a635942006102815260206004820181815285516024840152855173__State_________________________________9363b28400c29388939283926044019185019080838360005b83811015612c3f578181015183820152602001612c27565b50505050905090810190601f168015612c6c5780820380516001836020036101000a031916815260200191505b509250505060206040518083038186803b158015612c8957600080fd5b505af4158015612c9d573d6000803e3d6000fd5b505050506040513d6020811015612cb357600080fd5b50516003811115612cc057fe5b14612cca57600080fd5b604080517f9567151d0000000000000000000000000000000000000000000000000000000081526004810191825284516044820152845173__State_________________________________92639567151d9287928792918291602482019160640190602087019080838360005b83811015612d50578181015183820152602001612d38565b50505050905090810190601f168015612d7d5780820380516001836020036101000a031916815260200191505b50838103825284518152845160209182019186019080838360005b83811015612db0578181015183820152602001612d98565b50505050905090810190601f168015612ddd5780820380516001836020036101000a031916815260200191505b5094505050505060206040518083038186803b158015612dfc57600080fd5b505af4158015612e10573d6000803e3d6000fd5b505050506040513d6020811015612e2657600080fd5b50511515612e3357600080fd5b60405160e160020a636555e7a502815260206004820181815285516024840152855173__State_________________________________9363caabcf4a9388939283926044019185019080838360005b83811015612e9b578181015183820152602001612e83565b50505050905090810190601f168015612ec85780820380516001836020036101000a031916815260200191505b509250505060206040518083038186803b158015612ee557600080fd5b505af4158015612ef9573d6000803e3d6000fd5b505050506040513d6020811015612f0f57600080fd5b505160405160e160020a636555e7a502815260206004820181815285516024840152855160019094019373__State_________________________________9363caabcf4a9388939283926044019185019080838360005b83811015612f7f578181015183820152602001612f67565b50505050905090810190601f168015612fac5780820380516001836020036101000a031916815260200191505b509250505060206040518083038186803b158015612fc957600080fd5b505af4158015612fdd573d6000803e3d6000fd5b505050506040513d6020811015612ff357600080fd5b505114610e1357600080fd5b6040517ff92bdcb100000000000000000000000000000000000000000000000000000000815260206004820181815284516024840152845160009360019373__State_________________________________9363f92bdcb19389939192839260440191908501908083838c5b8381101561308457818101518382015260200161306c565b50505050905090810190601f1680156130b15780820380516001836020036101000a031916815260200191505b509250505060206040518083038186803b1580156130ce57600080fd5b505af41580156130e2573d6000803e3d6000fd5b505050506040513d60208110156130f857600080fd5b505160405160e160020a636555e7a5028152602060048201818152875160248401528751949093039373__State_________________________________9363caabcf4a9389939192839260449092019185019080838360005b8381101561316a578181015183820152602001613152565b50505050905090810190601f1680156131975780820380516001836020036101000a031916815260200191505b509250505060206040518083038186803b1580156131b457600080fd5b505af41580156131c8573d6000803e3d6000fd5b505050506040513d60208110156131de57600080fd5b5051141561335857600260405160e160020a635942006102815260206004820181815285516024840152855173__State_________________________________9363b28400c29388939283926044019185019080838360005b83811015613250578181015183820152602001613238565b50505050905090810190601f16801561327d5780820380516001836020036101000a031916815260200191505b509250505060206040518083038186803b15801561329a57600080fd5b505af41580156132ae573d6000803e3d6000fd5b505050506040513d60208110156132c457600080fd5b505160038111156132d157fe5b146132db57600080fd5b6040517f3d5151fa00000000000000000000000000000000000000000000000000000000815260206004820181815285516024840152855173__State_________________________________93633d5151fa9388939283926044019185019080838360008381101561188257818101518382015260200161186a565b600160405160e160020a635942006102815260206004820181815285516024840152855173__State_________________________________9363b28400c29388939283926044019185019080838360005b838110156133c25781810151838201526020016133aa565b50505050905090810190601f1680156133ef5780820380516001836020036101000a031916815260200191505b509250505060206040518083038186803b15801561340c57600080fd5b505af4158015613420573d6000803e3d6000fd5b505050506040513d602081101561343657600080fd5b5051600381111561344357fe5b1415611a6c57604080517f9567151d0000000000000000000000000000000000000000000000000000000081526004810191825284516044820152845173__State_________________________________92639567151d9287928792918291602482019160640190602087019080838360005b838110156134cf5781810151838201526020016134b7565b50505050905090810190601f1680156134fc5780820380516001836020036101000a031916815260200191505b50838103825284518152845160209182019186019080838360005b8381101561352f578181015183820152602001613517565b50505050905090810190601f16801561355c5780820380516001836020036101000a031916815260200191505b5094505050505060206040518083038186803b15801561357b57600080fd5b505af415801561358f573d6000803e3d6000fd5b505050506040513d60208110156135a557600080fd5b505115156135b257600080fd5b60405160e160020a636555e7a502815260206004820181815285516024840152855173__State_________________________________9363caabcf4a9388939283926044019185019080838360005b8381101561361a578181015183820152602001613602565b50505050905090810190601f1680156136475780820380516001836020036101000a031916815260200191505b509250505060206040518083038186803b15801561366457600080fd5b505af4158015613678573d6000803e3d6000fd5b505050506040513d602081101561368e57600080fd5b505160405160e160020a636555e7a502815260206004820181815285516024840152855160019094019373__State_________________________________9363caabcf4a9388939283926044019185019080838360005b838110156136fe5781810151838201526020016136e6565b50505050905090810190601f16801561372b5780820380516001836020036101000a031916815260200191505b509250505060206040518083038186803b15801561374857600080fd5b505af415801561375c573d6000803e3d6000fd5b505050506040513d602081101561377257600080fd5b505114612a8f57600080fd5b60405160e060020a63c084ac8d02815260206004820181815287516024840152875160009373__State_________________________________9363c084ac8d938b9390928392604490910191908501908083838b5b838110156137ec5781810151838201526020016137d4565b50505050905090810190601f1680156138195780820380516001836020036101000a031916815260200191505b509250505060206040518083038186803b15801561383657600080fd5b505af415801561384a573d6000803e3d6000fd5b505050506040513d602081101561386057600080fd5b505160405160e060020a63c084ac8d02815260206004820181815288516024840152885173__State_________________________________9363c084ac8d938b939283926044019185019080838360005b838110156138ca5781810151838201526020016138b2565b50505050905090810190601f1680156138f75780820380516001836020036101000a031916815260200191505b509250505060206040518083038186803b15801561391457600080fd5b505af4158015613928573d6000803e3d6000fd5b505050506040513d602081101561393e57600080fd5b50511161394a57600080fd5b6040517f34e08cd700000000000000000000000000000000000000000000000000000000815260206004820181815288516024840152885173__State_________________________________936334e08cd7938b939283926044019185019080838360005b838110156139c85781810151838201526020016139b0565b50505050905090810190601f1680156139f55780820380516001836020036101000a031916815260200191505b509250505060206040518083038186803b158015613a1257600080fd5b505af4158015613a26573d6000803e3d6000fd5b505050506040513d6020811015613a3c57600080fd5b50516040517f34e08cd700000000000000000000000000000000000000000000000000000000815260206004820181815288516024840152885173ffffffffffffffffffffffffffffffffffffffff9094169373__State_________________________________936334e08cd7938b939283926044019185019080838360005b83811015613ad5578181015183820152602001613abd565b50505050905090810190601f168015613b025780820380516001836020036101000a031916815260200191505b509250505060206040518083038186803b158015613b1f57600080fd5b505af4158015613b33573d6000803e3d6000fd5b505050506040513d6020811015613b4957600080fd5b505173ffffffffffffffffffffffffffffffffffffffff1614613b6b57600080fd5b6040517fce4338e200000000000000000000000000000000000000000000000000000000815260ff85166024820152604481018490526064810183905260806004820190815286516084830152865173__State_________________________________9263ce4338e29289928992899289929091829160a490910190602088019080838360005b83811015613c0b578181015183820152602001613bf3565b50505050905090810190601f168015613c385780820380516001836020036101000a031916815260200191505b509550505050505060006040518083038186803b158015613c5857600080fd5b505af4158015613c6c573d6000803e3d6000fd5b50600199985050505050505050505600a165627a7a723058202498a3aec190d796e994f54949996d0d14263fae39852a201f8069990bce24d30029",
  "source": "pragma solidity ^0.4.23;\n\nimport \"./State.sol\";\nimport \"./ForceMoveGame.sol\";\n\nlibrary Rules {\n    using State for bytes;\n\n    struct Challenge {\n        bytes32 channelId;\n        bytes state;\n        uint32 expirationTime;\n        uint256[] payouts;\n    }\n\n    function validForceMove(\n        bytes _fromState,\n        bytes _toState,\n        uint8[] v,\n        bytes32[] r,\n        bytes32[] s\n    ) public pure returns (bool) {\n        // states must be signed by the appropriate participant\n        _fromState.requireSignature(v[0], r[0], s[0]);\n        _toState.requireSignature(v[1], r[1], s[1]);\n\n        return validTransition(_fromState, _toState);\n    }\n\n    function validConclusionProof(\n        bytes _fromState,\n        bytes _toState,\n        uint8[] v,\n        bytes32[] r,\n        bytes32[] s\n    ) public pure returns (bool) {\n        // states must be signed by the appropriate participant\n        _fromState.requireSignature(v[0], r[0], s[0]);\n        _toState.requireSignature(v[1], r[1], s[1]);\n\n        // first move must be a concluded state (transition rules will ensure this for the other states)\n        require(_fromState.stateType() == State.StateType.Conclude);\n        // must be a valid transition\n        return validTransition(_fromState, _toState);\n    }\n\n    function validRefute(\n        bytes _challengeState,\n        bytes _refutationState,\n        uint8 v,\n        bytes32 r,\n        bytes32 s\n    ) public pure returns (bool) {\n        // the refutationState must have a higher nonce\n        require(_refutationState.turnNum() > _challengeState.turnNum());\n        // ... with the same mover\n        require(_refutationState.mover() == _challengeState.mover());\n        // ... and be signed (by that mover)\n        _refutationState.requireSignature(v, r, s);\n\n        return true;\n    }\n\n    function validRespondWithMove(\n        bytes _challengeState,\n        bytes _nextState,\n        uint8 v,\n        bytes32 r,\n        bytes32 s\n    ) public pure returns (bool) {\n        // check that the challengee's signature matches\n        _nextState.requireSignature(v, r, s);\n\n        require(validTransition(_challengeState, _nextState));\n\n        return true;\n    }\n\n    function validAlternativeRespondWithMove(\n        bytes _challengeState,\n        bytes _alternativeState,\n        bytes _nextState,\n        uint8[] v,\n        bytes32[] r,\n        bytes32[] s\n    ) public pure returns (bool) {\n\n        // checking the alternative state:\n        // .. it must have the right channel\n        require(_challengeState.channelId() == _alternativeState.channelId());\n        // .. it must have the same nonce as the challenge state\n        require(_challengeState.turnNum() == _alternativeState.turnNum());\n        // .. it must be signed (by the challenger)\n        _alternativeState.requireSignature(v[0], r[0], s[0]);\n\n        // checking the nextState:\n        // .. it must be signed (my the challengee)\n        _nextState.requireSignature(v[1], r[1], s[1]);\n        // .. it must be a valid transition of the gamestate (from the alternative state)\n        require(validTransition(_alternativeState, _nextState));\n\n        return true;\n    }\n\n    function validTransition(bytes _fromState, bytes _toState) public pure returns (bool) {\n        require(_toState.channelId() == _fromState.channelId());\n        require(_toState.turnNum() == _fromState.turnNum() + 1);\n\n        if (_fromState.stateType() == State.StateType.PreFundSetup) {\n            return validTransitionFromPreFundSetup(_fromState, _toState);\n        } else if (_fromState.stateType() == State.StateType.PostFundSetup) {\n            return validTransitionFromPostFundSetup(_fromState, _toState);\n        } else if (_fromState.stateType() == State.StateType.Game) {\n            return validTransitionFromGame(_fromState, _toState);\n        } else if (_fromState.stateType() == State.StateType.Conclude) {\n            return validTransitionFromConclude(_fromState, _toState);\n        }\n\n        return true;\n    }\n\n    function validTransitionFromPreFundSetup(bytes _fromState, bytes _toState) public pure returns (bool) {\n        if (_fromState.stateCount() == _fromState.numberOfParticipants() - 1) {\n            // there are two options from the final PreFundSetup state\n            // 1. PreFundSetup -> PostFundSetup transition\n            // 2. PreFundSetup -> Conclude transition\n            if (_toState.stateType() == State.StateType.PostFundSetup) {\n                require(_toState.stateCount() == 0); // reset the stateCount\n                require(State.gameAttributesEqual(_fromState, _toState));\n                require(State.resolutionsEqual(_fromState, _toState));\n            } else {\n                require(_toState.stateType() == State.StateType.Conclude);\n                require(State.resolutionsEqual(_fromState, _toState));\n            }\n        } else {\n            // PreFundSetup -> PreFundSetup transition\n            require(_toState.stateType() == State.StateType.PreFundSetup);\n            require(State.gameAttributesEqual(_fromState, _toState));\n            require(_toState.stateCount() == _fromState.stateCount() + 1);\n            require(State.resolutionsEqual(_fromState, _toState));\n        }\n        return true;\n    }\n\n    function validTransitionFromPostFundSetup(bytes _fromState, bytes _toState) public pure returns (bool) {\n        if (_fromState.stateCount() == _fromState.numberOfParticipants() - 1) {\n            // PostFundSetup -> Game transition is the only option\n            require(_toState.stateType() == State.StateType.Game);\n            require(ForceMoveGame(_fromState.channelType()).validTransition(_fromState, _toState));\n        } else {\n            // Two possibilities:\n            // 1. PostFundSetup -> PostFundSetup transition\n            // 2. PostFundSetup -> Conclude transition\n            if (_toState.stateType() == State.StateType.PostFundSetup) {\n                // PostFundSetup -> PostFundSetup\n                require(State.gameAttributesEqual(_fromState, _toState));\n                require(_toState.stateCount() == _fromState.stateCount() + 1);\n                require(State.resolutionsEqual(_fromState, _toState));\n            } else {\n                // PostFundSetup -> Conclude\n                require(_toState.stateType() == State.StateType.Conclude);\n                require(State.resolutionsEqual(_fromState, _toState));\n            }\n        }\n        return true;\n    }\n\n    function validTransitionFromGame(bytes _fromState, bytes _toState) public pure returns (bool) {\n        if (_toState.stateType() == State.StateType.Game) {\n            require(ForceMoveGame(_fromState.channelType()).validTransition(_fromState, _toState));\n        } else {\n            require(_toState.stateType() == State.StateType.Conclude);\n            require(State.resolutionsEqual(_fromState, _toState));\n        }\n        return true;\n    }\n\n    function validTransitionFromConclude(bytes _fromState, bytes _toState) public pure returns (bool) {\n        require(_toState.stateType() == State.StateType.Conclude);\n        require(State.resolutionsEqual(_fromState, _toState));\n        return true;\n    }\n}\n",
  "sourcePath": "fmg-core/contracts/Rules.sol",
  "compiler": {
    "name": "solc",
    "version": "0.4.24+commit.e67f0147.Emscripten.clang"
  },
  "schemaVersion": "2.0.1",
  "updatedAt": "2018-12-13T17:45:59.983Z"
}