{
  "contractName": "TicTacToeGame",
  "abi": [
    {
      "constant": true,
      "inputs": [
        {
          "name": "_old",
          "type": "bytes"
        },
        {
          "name": "_new",
          "type": "bytes"
        }
      ],
      "name": "validTransition",
      "outputs": [
        {
          "name": "",
          "type": "bool"
        }
      ],
      "payable": false,
      "stateMutability": "pure",
      "type": "function"
    },
    {
      "constant": true,
      "inputs": [
        {
          "name": "_marks",
          "type": "uint16"
        }
      ],
      "name": "hasWon",
      "outputs": [
        {
          "name": "",
          "type": "bool"
        }
      ],
      "payable": false,
      "stateMutability": "pure",
      "type": "function"
    },
    {
      "constant": true,
      "inputs": [
        {
          "name": "_noughts",
          "type": "uint16"
        },
        {
          "name": "_crosses",
          "type": "uint16"
        }
      ],
      "name": "isDraw",
      "outputs": [
        {
          "name": "",
          "type": "bool"
        }
      ],
      "payable": false,
      "stateMutability": "pure",
      "type": "function"
    },
    {
      "constant": true,
      "inputs": [
        {
          "name": "_new_marks",
          "type": "uint16"
        },
        {
          "name": "_old_marks",
          "type": "uint16"
        }
      ],
      "name": "madeStrictlyOneMark",
      "outputs": [
        {
          "name": "",
          "type": "bool"
        }
      ],
      "payable": false,
      "stateMutability": "pure",
      "type": "function"
    },
    {
      "constant": true,
      "inputs": [
        {
          "name": "_noughts",
          "type": "uint16"
        },
        {
          "name": "_crosses",
          "type": "uint16"
        }
      ],
      "name": "areDisjoint",
      "outputs": [
        {
          "name": "",
          "type": "bool"
        }
      ],
      "payable": false,
      "stateMutability": "pure",
      "type": "function"
    },
    {
      "constant": true,
      "inputs": [
        {
          "name": "_marks",
          "type": "uint16"
        }
      ],
      "name": "popCount",
      "outputs": [
        {
          "name": "",
          "type": "uint8"
        }
      ],
      "payable": false,
      "stateMutability": "pure",
      "type": "function"
    }
  ],
  "bytecode": "0x608060405234801561001057600080fd5b5061583b80620000216000396000f3006080604052600436106100775763ffffffff7c01000000000000000000000000000000000000000000000000000000006000350416630fe61fb5811461007c5780634b45b73f146100b257806368f5b294146100ce5780639207bf96146100f0578063b865577214610187578063f94d075a146101b9575b600080fd5b34801561008857600080fd5b5061009e61ffff600435811690602435166101db565b604080519115158252519081900360200190f35b3480156100be57600080fd5b5061009e61ffff6004351661029f565b3480156100da57600080fd5b5061009e61ffff6004358116906024351661030b565b3480156100fc57600080fd5b506040805160206004803580820135601f810184900484028501840190955284845261009e94369492936024939284019190819084018382808284375050604080516020601f89358b018035918201839004830284018301909452808352979a99988101979196509182019450925082915084018382808284375094975061032b9650505050505050565b34801561019357600080fd5b506101a361ffff600435166112b7565b6040805160ff9092168252519081900360200190f35b3480156101c557600080fd5b5061009e61ffff600435811690602435166112f6565b600080805b60098261ffff16101561027957600161ffff83811660020a90871604161580156102185750600161ffff83811660020a908616048116145b156102265760009250610297565b600161ffff83811660020a9087160481161480156102515750600161ffff83811660020a9086160416155b1561026e576001811515141561026a5760009250610297565b5060015b6001909101906101e0565b8361ffff168561ffff1614156102925760009250610297565b600192505b505092915050565b60006101c082811614806102b557506038828116145b806102c257506007828116145b806102d05750610124828116145b806102dd57506092828116145b806102ea57506049828116145b806102f85750610111828116145b8061030557506054828116145b92915050565b600061ffff83831616151561032257506001610305565b50600092915050565b60008060405160e060020a638a0cc0ed02815260206004820181815286516024840152865173__TicTacToeState________________________93638a0cc0ed9389939283926044019185019080838360005b8381101561039657818101518382015260200161037e565b50505050905090810190601f1680156103c35780820380516001836020036101000a031916815260200191505b509250505060206040518083038186803b1580156103e057600080fd5b505af41580156103f4573d6000803e3d6000fd5b505050506040513d602081101561040a57600080fd5b5051600481111561041757fe5b141561052557600160405160e060020a638a0cc0ed02815260206004820181815285516024840152855173__TicTacToeState________________________93638a0cc0ed9388939283926044019185019080838360005b8381101561048757818101518382015260200161046f565b50505050905090810190601f1680156104b45780820380516001836020036101000a031916815260200191505b509250505060206040518083038186803b1580156104d157600080fd5b505af41580156104e5573d6000803e3d6000fd5b505050506040513d60208110156104fb57600080fd5b5051600481111561050857fe5b1415610520576105188383611310565b506001610305565b610077565b600160405160e060020a638a0cc0ed02815260206004820181815286516024840152865173__TicTacToeState________________________93638a0cc0ed9389939283926044019185019080838360005b8381101561058f578181015183820152602001610577565b50505050905090810190601f1680156105bc5780820380516001836020036101000a031916815260200191505b509250505060206040518083038186803b1580156105d957600080fd5b505af41580156105ed573d6000803e3d6000fd5b505050506040513d602081101561060357600080fd5b5051600481111561061057fe5b141561090757600260405160e060020a638a0cc0ed02815260206004820181815285516024840152855173__TicTacToeState________________________93638a0cc0ed9388939283926044019185019080838360005b83811015610680578181015183820152602001610668565b50505050905090810190601f1680156106ad5780820380516001836020036101000a031916815260200191505b509250505060206040518083038186803b1580156106ca57600080fd5b505af41580156106de573d6000803e3d6000fd5b505050506040513d60208110156106f457600080fd5b5051600481111561070157fe5b141561071157610518838361233d565b600360405160e060020a638a0cc0ed02815260206004820181815285516024840152855173__TicTacToeState________________________93638a0cc0ed9388939283926044019185019080838360005b8381101561077b578181015183820152602001610763565b50505050905090810190601f1680156107a85780820380516001836020036101000a031916815260200191505b509250505060206040518083038186803b1580156107c557600080fd5b505af41580156107d9573d6000803e3d6000fd5b505050506040513d60208110156107ef57600080fd5b505160048111156107fc57fe5b141561080c57610518838361326c565b600060405160e060020a638a0cc0ed02815260206004820181815285516024840152855173__TicTacToeState________________________93638a0cc0ed9388939283926044019185019080838360005b8381101561087657818101518382015260200161085e565b50505050905090810190601f1680156108a35780820380516001836020036101000a031916815260200191505b509250505060206040518083038186803b1580156108c057600080fd5b505af41580156108d4573d6000803e3d6000fd5b505050506040513d60208110156108ea57600080fd5b505160048111156108f757fe5b1415610520576105188383613362565b600260405160e060020a638a0cc0ed02815260206004820181815286516024840152865173__TicTacToeState________________________93638a0cc0ed9389939283926044019185019080838360005b83811015610971578181015183820152602001610959565b50505050905090810190601f16801561099e5780820380516001836020036101000a031916815260200191505b509250505060206040518083038186803b1580156109bb57600080fd5b505af41580156109cf573d6000803e3d6000fd5b505050506040513d60208110156109e557600080fd5b505160048111156109f257fe5b1415610ce957600160405160e060020a638a0cc0ed02815260206004820181815285516024840152855173__TicTacToeState________________________93638a0cc0ed9388939283926044019185019080838360005b83811015610a62578181015183820152602001610a4a565b50505050905090810190601f168015610a8f5780820380516001836020036101000a031916815260200191505b509250505060206040518083038186803b158015610aac57600080fd5b505af4158015610ac0573d6000803e3d6000fd5b505050506040513d6020811015610ad657600080fd5b50516004811115610ae357fe5b1415610af3576105188383613c3e565b600360405160e060020a638a0cc0ed02815260206004820181815285516024840152855173__TicTacToeState________________________93638a0cc0ed9388939283926044019185019080838360005b83811015610b5d578181015183820152602001610b45565b50505050905090810190601f168015610b8a5780820380516001836020036101000a031916815260200191505b509250505060206040518083038186803b158015610ba757600080fd5b505af4158015610bbb573d6000803e3d6000fd5b505050506040513d6020811015610bd157600080fd5b50516004811115610bde57fe5b1415610bee576105188383613ee2565b600460405160e060020a638a0cc0ed02815260206004820181815285516024840152855173__TicTacToeState________________________93638a0cc0ed9388939283926044019185019080838360005b83811015610c58578181015183820152602001610c40565b50505050905090810190601f168015610c855780820380516001836020036101000a031916815260200191505b509250505060206040518083038186803b158015610ca257600080fd5b505af4158015610cb6573d6000803e3d6000fd5b505050506040513d6020811015610ccc57600080fd5b50516004811115610cd957fe5b1415610520576105188383613f5c565b600360405160e060020a638a0cc0ed02815260206004820181815286516024840152865173__TicTacToeState________________________93638a0cc0ed9389939283926044019185019080838360005b83811015610d53578181015183820152602001610d3b565b50505050905090810190601f168015610d805780820380516001836020036101000a031916815260200191505b509250505060206040518083038186803b158015610d9d57600080fd5b505af4158015610db1573d6000803e3d6000fd5b505050506040513d6020811015610dc757600080fd5b50516004811115610dd457fe5b1415610fd057600060405160e060020a638a0cc0ed02815260206004820181815285516024840152855173__TicTacToeState________________________93638a0cc0ed9388939283926044019185019080838360005b83811015610e44578181015183820152602001610e2c565b50505050905090810190601f168015610e715780820380516001836020036101000a031916815260200191505b509250505060206040518083038186803b158015610e8e57600080fd5b505af4158015610ea2573d6000803e3d6000fd5b505050506040513d6020811015610eb857600080fd5b50516004811115610ec557fe5b1415610ed5576105188383615012565b600160405160e060020a638a0cc0ed02815260206004820181815285516024840152855173__TicTacToeState________________________93638a0cc0ed9388939283926044019185019080838360005b83811015610f3f578181015183820152602001610f27565b50505050905090810190601f168015610f6c5780820380516001836020036101000a031916815260200191505b509250505060206040518083038186803b158015610f8957600080fd5b505af4158015610f9d573d6000803e3d6000fd5b505050506040513d6020811015610fb357600080fd5b50516004811115610fc057fe5b141561052057610518838361531d565b600460405160e060020a638a0cc0ed02815260206004820181815286516024840152865173__TicTacToeState________________________93638a0cc0ed9389939283926044019185019080838360005b8381101561103a578181015183820152602001611022565b50505050905090810190601f1680156110675780820380516001836020036101000a031916815260200191505b509250505060206040518083038186803b15801561108457600080fd5b505af4158015611098573d6000803e3d6000fd5b505050506040513d60208110156110ae57600080fd5b505160048111156110bb57fe5b141561007757600060405160e060020a638a0cc0ed02815260206004820181815285516024840152855173__TicTacToeState________________________93638a0cc0ed9388939283926044019185019080838360005b8381101561112b578181015183820152602001611113565b50505050905090810190601f1680156111585780820380516001836020036101000a031916815260200191505b509250505060206040518083038186803b15801561117557600080fd5b505af4158015611189573d6000803e3d6000fd5b505050506040513d602081101561119f57600080fd5b505160048111156111ac57fe5b14156111bc576105188383615012565b600160405160e060020a638a0cc0ed02815260206004820181815285516024840152855173__TicTacToeState________________________93638a0cc0ed9388939283926044019185019080838360005b8381101561122657818101518382015260200161120e565b50505050905090810190601f1680156112535780820380516001836020036101000a031916815260200191505b509250505060206040518083038186803b15801561127057600080fd5b505af4158015611284573d6000803e3d6000fd5b505050506040513d602081101561129a57600080fd5b505160048111156112a757fe5b141561007757610518838361531d565b600080805b60098261ffff1610156112ef57600161ffff83811660020a90861604811614156112e4576001015b6001909101906112bc565b9392505050565b600082821861ffff166101ff141561032257506001610305565b60405160e060020a63bc53a0b902815260206004820181815283516024840152835173__TicTacToeState________________________9363bc53a0b99386939283926044019185019080838360005b83811015611378578181015183820152602001611360565b50505050905090810190601f1680156113a55780820380516001836020036101000a031916815260200191505b509250505060206040518083038186803b1580156113c257600080fd5b505af41580156113d6573d6000803e3d6000fd5b505050506040513d60208110156113ec57600080fd5b505161ffff16156113fc57600080fd5b60405160e160020a6324fe53970281526020600482018181528351602484015283516114e99373__TicTacToeState________________________936349fca72e938793909283926044909101919085019080838360005b8381101561146c578181015183820152602001611454565b50505050905090810190601f1680156114995780820380516001836020036101000a031916815260200191505b509250505060206040518083038186803b1580156114b657600080fd5b505af41580156114ca573d6000803e3d6000fd5b505050506040513d60208110156114e057600080fd5b505160006101db565b15156114f457600080fd5b60405160e160020a63168f060102815260206004820181815284516024840152845173__TicTacToeState________________________93632d1e0c029387939283926044019185019080838360005b8381101561155c578181015183820152602001611544565b50505050905090810190601f1680156115895780820380516001836020036101000a031916815260200191505b509250505060206040518083038186803b1580156115a657600080fd5b505af41580156115ba573d6000803e3d6000fd5b505050506040513d60208110156115d057600080fd5b505160405160e160020a63168f060102815260206004820181815284516024840152845173__TicTacToeState________________________93632d1e0c029387939283926044019185019080838360005b8381101561163a578181015183820152602001611622565b50505050905090810190601f1680156116675780820380516001836020036101000a031916815260200191505b509250505060206040518083038186803b15801561168457600080fd5b505af4158015611698573d6000803e3d6000fd5b505050506040513d60208110156116ae57600080fd5b5051146116ba57600080fd5b60405160e160020a632dab59f702815260206004820181815283516024840152835173__State_________________________________93635b56b3ee9386939283926044019185019080838360005b8381101561172257818101518382015260200161170a565b50505050905090810190601f16801561174f5780820380516001836020036101000a031916815260200191505b509250505060206040518083038186803b15801561176c57600080fd5b505af4158015611780573d6000803e3d6000fd5b505050506040513d602081101561179657600080fd5b50511515611cfb5760405160e160020a63168f060102815260206004820181815283516024840152835173__TicTacToeState________________________93632d1e0c029386939283926044019185019080838360005b838110156118065781810151838201526020016117ee565b50505050905090810190601f1680156118335780820380516001836020036101000a031916815260200191505b509250505060206040518083038186803b15801561185057600080fd5b505af4158015611864573d6000803e3d6000fd5b505050506040513d602081101561187a57600080fd5b505160405160e060020a634c291ecd02815260206004820181815285516024840152855173__TicTacToeState________________________93634c291ecd9388939283926044019185019080838360005b838110156118e45781810151838201526020016118cc565b50505050905090810190601f1680156119115780820380516001836020036101000a031916815260200191505b509250505060206040518083038186803b15801561192e57600080fd5b505af4158015611942573d6000803e3d6000fd5b505050506040513d602081101561195857600080fd5b505160405160e060020a634c291ecd028152602060048201818152855160248401528551949093019373__TicTacToeState________________________93634c291ecd9387939192839260449092019185019080838360005b838110156119ca5781810151838201526020016119b2565b50505050905090810190601f1680156119f75780820380516001836020036101000a031916815260200191505b509250505060206040518083038186803b158015611a1457600080fd5b505af4158015611a28573d6000803e3d6000fd5b505050506040513d6020811015611a3e57600080fd5b505114611a4a57600080fd5b60405160e160020a63168f060102815260206004820181815283516024840152835173__TicTacToeState________________________93632d1e0c029386939283926044019185019080838360005b83811015611ab2578181015183820152602001611a9a565b50505050905090810190601f168015611adf5780820380516001836020036101000a031916815260200191505b509250505060206040518083038186803b158015611afc57600080fd5b505af4158015611b10573d6000803e3d6000fd5b505050506040513d6020811015611b2657600080fd5b505160405160e060020a634e77b06302815260206004820181815285516024840152855173__TicTacToeState________________________93634e77b0639388939283926044019185019080838360005b83811015611b90578181015183820152602001611b78565b50505050905090810190601f168015611bbd5780820380516001836020036101000a031916815260200191505b509250505060206040518083038186803b158015611bda57600080fd5b505af4158015611bee573d6000803e3d6000fd5b505050506040513d6020811015611c0457600080fd5b505160405160e060020a634e77b063028152602060048201818152855160248401528551949093039373__TicTacToeState________________________93634e77b0639387939192839260449092019185019080838360005b83811015611c76578181015183820152602001611c5e565b50505050905090810190601f168015611ca35780820380516001836020036101000a031916815260200191505b509250505060206040518083038186803b158015611cc057600080fd5b505af4158015611cd4573d6000803e3d6000fd5b505050506040513d6020811015611cea57600080fd5b505114611cf657600080fd5b612339565b60405160e160020a632dab59f702815260206004820181815283516024840152835173__State_________________________________93635b56b3ee9386939283926044019185019080838360005b83811015611d63578181015183820152602001611d4b565b50505050905090810190601f168015611d905780820380516001836020036101000a031916815260200191505b509250505060206040518083038186803b158015611dad57600080fd5b505af4158015611dc1573d6000803e3d6000fd5b505050506040513d6020811015611dd757600080fd5b5051600114156123395760405160e160020a63168f060102815260206004820181815283516024840152835173__TicTacToeState________________________93632d1e0c029386939283926044019185019080838360005b83811015611e49578181015183820152602001611e31565b50505050905090810190601f168015611e765780820380516001836020036101000a031916815260200191505b509250505060206040518083038186803b158015611e9357600080fd5b505af4158015611ea7573d6000803e3d6000fd5b505050506040513d6020811015611ebd57600080fd5b505160405160e060020a634c291ecd02815260206004820181815285516024840152855173__TicTacToeState________________________93634c291ecd9388939283926044019185019080838360005b83811015611f27578181015183820152602001611f0f565b50505050905090810190601f168015611f545780820380516001836020036101000a031916815260200191505b509250505060206040518083038186803b158015611f7157600080fd5b505af4158015611f85573d6000803e3d6000fd5b505050506040513d6020811015611f9b57600080fd5b505160405160e060020a634c291ecd028152602060048201818152855160248401528551949093039373__TicTacToeState________________________93634c291ecd9387939192839260449092019185019080838360005b8381101561200d578181015183820152602001611ff5565b50505050905090810190601f16801561203a5780820380516001836020036101000a031916815260200191505b509250505060206040518083038186803b15801561205757600080fd5b505af415801561206b573d6000803e3d6000fd5b505050506040513d602081101561208157600080fd5b50511461208d57600080fd5b60405160e160020a63168f060102815260206004820181815283516024840152835173__TicTacToeState________________________93632d1e0c029386939283926044019185019080838360005b838110156120f55781810151838201526020016120dd565b50505050905090810190601f1680156121225780820380516001836020036101000a031916815260200191505b509250505060206040518083038186803b15801561213f57600080fd5b505af4158015612153573d6000803e3d6000fd5b505050506040513d602081101561216957600080fd5b505160405160e060020a634e77b06302815260206004820181815285516024840152855173__TicTacToeState________________________93634e77b0639388939283926044019185019080838360005b838110156121d35781810151838201526020016121bb565b50505050905090810190601f1680156122005780820380516001836020036101000a031916815260200191505b509250505060206040518083038186803b15801561221d57600080fd5b505af4158015612231573d6000803e3d6000fd5b505050506040513d602081101561224757600080fd5b505160405160e060020a634e77b063028152602060048201818152855160248401528551949093019373__TicTacToeState________________________93634e77b0639387939192839260449092019185019080838360005b838110156122b95781810151838201526020016122a1565b50505050905090810190601f1680156122e65780820380516001836020036101000a031916815260200191505b509250505060206040518083038186803b15801561230357600080fd5b505af4158015612317573d6000803e3d6000fd5b505050506040513d602081101561232d57600080fd5b50511461233957600080fd5b5050565b60405160e160020a63168f060102815260206004820181815284516024840152845173__TicTacToeState________________________93632d1e0c029387939283926044019185019080838360005b838110156123a557818101518382015260200161238d565b50505050905090810190601f1680156123d25780820380516001836020036101000a031916815260200191505b509250505060206040518083038186803b1580156123ef57600080fd5b505af4158015612403573d6000803e3d6000fd5b505050506040513d602081101561241957600080fd5b505160405160e160020a63168f060102815260206004820181815284516024840152845173__TicTacToeState________________________93632d1e0c029387939283926044019185019080838360005b8381101561248357818101518382015260200161246b565b50505050905090810190601f1680156124b05780820380516001836020036101000a031916815260200191505b509250505060206040518083038186803b1580156124cd57600080fd5b505af41580156124e1573d6000803e3d6000fd5b505050506040513d60208110156124f757600080fd5b50511461250357600080fd5b60405160e060020a63bc53a0b90281526020600482018181528351602484015283516126cc9373__TicTacToeState________________________9363bc53a0b9938793909283926044909101919085019080838360005b8381101561257357818101518382015260200161255b565b50505050905090810190601f1680156125a05780820380516001836020036101000a031916815260200191505b509250505060206040518083038186803b1580156125bd57600080fd5b505af41580156125d1573d6000803e3d6000fd5b505050506040513d60208110156125e757600080fd5b505160405160e060020a63bc53a0b902815260206004820181815286516024840152865173__TicTacToeState________________________9363bc53a0b99389939283926044019185019080838360005b83811015612651578181015183820152602001612639565b50505050905090810190601f16801561267e5780820380516001836020036101000a031916815260200191505b509250505060206040518083038186803b15801561269b57600080fd5b505af41580156126af573d6000803e3d6000fd5b505050506040513d60208110156126c557600080fd5b50516101db565b15156126d757600080fd5b60405160e160020a6324fe539702815260206004820181815284516024840152845173__TicTacToeState________________________936349fca72e9387939283926044019185019080838360005b8381101561273f578181015183820152602001612727565b50505050905090810190601f16801561276c5780820380516001836020036101000a031916815260200191505b509250505060206040518083038186803b15801561278957600080fd5b505af415801561279d573d6000803e3d6000fd5b505050506040513d60208110156127b357600080fd5b505160405160e160020a6324fe539702815260206004820181815284516024840152845161ffff9094169373__TicTacToeState________________________936349fca72e9387939283926044019185019080838360005b8381101561282457818101518382015260200161280c565b50505050905090810190601f1680156128515780820380516001836020036101000a031916815260200191505b509250505060206040518083038186803b15801561286e57600080fd5b505af4158015612882573d6000803e3d6000fd5b505050506040513d602081101561289857600080fd5b505161ffff16146128a857600080fd5b60405160e160020a632dab59f702815260206004820181815283516024840152835173__State_________________________________93635b56b3ee9386939283926044019185019080838360005b838110156129105781810151838201526020016128f8565b50505050905090810190601f16801561293d5780820380516001836020036101000a031916815260200191505b509250505060206040518083038186803b15801561295a57600080fd5b505af415801561296e573d6000803e3d6000fd5b505050506040513d602081101561298457600080fd5b50511515612d895760405160e160020a63168f060102815260206004820181815283516024840152835173__TicTacToeState________________________93632d1e0c029386939283926044019185019080838360005b838110156129f45781810151838201526020016129dc565b50505050905090810190601f168015612a215780820380516001836020036101000a031916815260200191505b509250505060206040518083038186803b158015612a3e57600080fd5b505af4158015612a52573d6000803e3d6000fd5b505050506040513d6020811015612a6857600080fd5b505160405160e060020a634c291ecd02815260206004820181815285516024840152855160029094029373__TicTacToeState________________________93634c291ecd9388939283926044019185019080838360005b83811015612ad8578181015183820152602001612ac0565b50505050905090810190601f168015612b055780820380516001836020036101000a031916815260200191505b509250505060206040518083038186803b158015612b2257600080fd5b505af4158015612b36573d6000803e3d6000fd5b505050506040513d6020811015612b4c57600080fd5b505160405160e060020a634c291ecd028152602060048201818152855160248401528551949093019373__TicTacToeState________________________93634c291ecd9387939192839260449092019185019080838360005b83811015612bbe578181015183820152602001612ba6565b50505050905090810190601f168015612beb5780820380516001836020036101000a031916815260200191505b509250505060206040518083038186803b158015612c0857600080fd5b505af4158015612c1c573d6000803e3d6000fd5b505050506040513d6020811015612c3257600080fd5b505114612c3e57600080fd5b60405160e160020a63168f060102815260206004820181815283516024840152835173__TicTacToeState________________________93632d1e0c029386939283926044019185019080838360005b83811015612ca6578181015183820152602001612c8e565b50505050905090810190601f168015612cd35780820380516001836020036101000a031916815260200191505b509250505060206040518083038186803b158015612cf057600080fd5b505af4158015612d04573d6000803e3d6000fd5b505050506040513d6020811015612d1a57600080fd5b505160405160e060020a634e77b06302815260206004820181815285516024840152855160029094029373__TicTacToeState________________________93634e77b06393889392839260440191850190808383600083811015611b90578181015183820152602001611b78565b60405160e160020a632dab59f702815260206004820181815283516024840152835173__State_________________________________93635b56b3ee9386939283926044019185019080838360005b83811015612df1578181015183820152602001612dd9565b50505050905090810190601f168015612e1e5780820380516001836020036101000a031916815260200191505b509250505060206040518083038186803b158015612e3b57600080fd5b505af4158015612e4f573d6000803e3d6000fd5b505050506040513d6020811015612e6557600080fd5b5051600114156123395760405160e160020a63168f060102815260206004820181815283516024840152835173__TicTacToeState________________________93632d1e0c029386939283926044019185019080838360005b83811015612ed7578181015183820152602001612ebf565b50505050905090810190601f168015612f045780820380516001836020036101000a031916815260200191505b509250505060206040518083038186803b158015612f2157600080fd5b505af4158015612f35573d6000803e3d6000fd5b505050506040513d6020811015612f4b57600080fd5b505160405160e060020a634c291ecd02815260206004820181815285516024840152855160029094029373__TicTacToeState________________________93634c291ecd9388939283926044019185019080838360005b83811015612fbb578181015183820152602001612fa3565b50505050905090810190601f168015612fe85780820380516001836020036101000a031916815260200191505b509250505060206040518083038186803b15801561300557600080fd5b505af4158015613019573d6000803e3d6000fd5b505050506040513d602081101561302f57600080fd5b505160405160e060020a634c291ecd028152602060048201818152855160248401528551949093039373__TicTacToeState________________________93634c291ecd9387939192839260449092019185019080838360005b838110156130a1578181015183820152602001613089565b50505050905090810190601f1680156130ce5780820380516001836020036101000a031916815260200191505b509250505060206040518083038186803b1580156130eb57600080fd5b505af41580156130ff573d6000803e3d6000fd5b505050506040513d602081101561311557600080fd5b50511461312157600080fd5b60405160e160020a63168f060102815260206004820181815283516024840152835173__TicTacToeState________________________93632d1e0c029386939283926044019185019080838360005b83811015613189578181015183820152602001613171565b50505050905090810190601f1680156131b65780820380516001836020036101000a031916815260200191505b509250505060206040518083038186803b1580156131d357600080fd5b505af41580156131e7573d6000803e3d6000fd5b505050506040513d60208110156131fd57600080fd5b505160405160e060020a634e77b06302815260206004820181815285516024840152855160029094029373__TicTacToeState________________________93634e77b063938893928392604401918501908083836000838110156121d35781810151838201526020016121bb565b60405160e060020a63bc53a0b90281526020600482018181528351602484015283516133579373__TicTacToeState________________________9363bc53a0b9938793909283926044909101919085019080838360005b838110156132dc5781810151838201526020016132c4565b50505050905090810190601f1680156133095780820380516001836020036101000a031916815260200191505b509250505060206040518083038186803b15801561332657600080fd5b505af415801561333a573d6000803e3d6000fd5b505050506040513d602081101561335057600080fd5b505161029f565b151561250357600080fd5b60405160e060020a63bc53a0b902815260206004820181815284516024840152845173__TicTacToeState________________________9363bc53a0b99387939283926044019185019080838360005b838110156133ca5781810151838201526020016133b2565b50505050905090810190601f1680156133f75780820380516001836020036101000a031916815260200191505b509250505060206040518083038186803b15801561341457600080fd5b505af4158015613428573d6000803e3d6000fd5b505050506040513d602081101561343e57600080fd5b505161ffff161561344e57600080fd5b60405160e160020a632dab59f702815260206004820181815283516024840152835173__State_________________________________93635b56b3ee9386939283926044019185019080838360005b838110156134b657818101518382015260200161349e565b50505050905090810190601f1680156134e35780820380516001836020036101000a031916815260200191505b509250505060206040518083038186803b15801561350057600080fd5b505af4158015613514573d6000803e3d6000fd5b505050506040513d602081101561352a57600080fd5b505115156138455760405160e160020a63168f060102815260206004820181815284516024840152845173__TicTacToeState________________________93632d1e0c029387939283926044019185019080838360005b8381101561359a578181015183820152602001613582565b50505050905090810190601f1680156135c75780820380516001836020036101000a031916815260200191505b509250505060206040518083038186803b1580156135e457600080fd5b505af41580156135f8573d6000803e3d6000fd5b505050506040513d602081101561360e57600080fd5b505160405160e060020a634c291ecd02815260206004820181815285516024840152855173__TicTacToeState________________________93634c291ecd9388939283926044019185019080838360005b83811015613678578181015183820152602001613660565b50505050905090810190601f1680156136a55780820380516001836020036101000a031916815260200191505b509250505060206040518083038186803b1580156136c257600080fd5b505af41580156136d6573d6000803e3d6000fd5b505050506040513d60208110156136ec57600080fd5b505160405160e060020a634c291ecd028152602060048201818152855160248401528551949093019373__TicTacToeState________________________93634c291ecd9387939192839260449092019185019080838360005b8381101561375e578181015183820152602001613746565b50505050905090810190601f16801561378b5780820380516001836020036101000a031916815260200191505b509250505060206040518083038186803b1580156137a857600080fd5b505af41580156137bc573d6000803e3d6000fd5b505050506040513d60208110156137d257600080fd5b5051146137de57600080fd5b60405160e160020a63168f060102815260206004820181815284516024840152845173__TicTacToeState________________________93632d1e0c0293879392839260440191850190808383600083811015611ab2578181015183820152602001611a9a565b60405160e160020a632dab59f702815260206004820181815283516024840152835173__State_________________________________93635b56b3ee9386939283926044019185019080838360005b838110156138ad578181015183820152602001613895565b50505050905090810190601f1680156138da5780820380516001836020036101000a031916815260200191505b509250505060206040518083038186803b1580156138f757600080fd5b505af415801561390b573d6000803e3d6000fd5b505050506040513d602081101561392157600080fd5b5051600114156123395760405160e160020a63168f060102815260206004820181815284516024840152845173__TicTacToeState________________________93632d1e0c029387939283926044019185019080838360005b8381101561399357818101518382015260200161397b565b50505050905090810190601f1680156139c05780820380516001836020036101000a031916815260200191505b509250505060206040518083038186803b1580156139dd57600080fd5b505af41580156139f1573d6000803e3d6000fd5b505050506040513d6020811015613a0757600080fd5b505160405160e060020a634c291ecd02815260206004820181815285516024840152855173__TicTacToeState________________________93634c291ecd9388939283926044019185019080838360005b83811015613a71578181015183820152602001613a59565b50505050905090810190601f168015613a9e5780820380516001836020036101000a031916815260200191505b509250505060206040518083038186803b158015613abb57600080fd5b505af4158015613acf573d6000803e3d6000fd5b505050506040513d6020811015613ae557600080fd5b505160405160e060020a634c291ecd028152602060048201818152855160248401528551949093039373__TicTacToeState________________________93634c291ecd9387939192839260449092019185019080838360005b83811015613b57578181015183820152602001613b3f565b50505050905090810190601f168015613b845780820380516001836020036101000a031916815260200191505b509250505060206040518083038186803b158015613ba157600080fd5b505af4158015613bb5573d6000803e3d6000fd5b505050506040513d6020811015613bcb57600080fd5b505114613bd757600080fd5b60405160e160020a63168f060102815260206004820181815284516024840152845173__TicTacToeState________________________93632d1e0c02938793928392604401918501908083836000838110156120f55781810151838201526020016120dd565b60405160e160020a6324fe5397028152602060048201818152835160248401528351613d8b9373__TicTacToeState________________________936349fca72e938793909283926044909101919085019080838360005b83811015613cae578181015183820152602001613c96565b50505050905090810190601f168015613cdb5780820380516001836020036101000a031916815260200191505b509250505060206040518083038186803b158015613cf857600080fd5b505af4158015613d0c573d6000803e3d6000fd5b505050506040513d6020811015613d2257600080fd5b505160405160e160020a6324fe539702815260206004820181815286516024840152865173__TicTacToeState________________________936349fca72e93899392839260440191850190808383600083811015612651578181015183820152602001612639565b1515613d9657600080fd5b60405160e060020a63bc53a0b902815260206004820181815284516024840152845173__TicTacToeState________________________9363bc53a0b99387939283926044019185019080838360005b83811015613dfe578181015183820152602001613de6565b50505050905090810190601f168015613e2b5780820380516001836020036101000a031916815260200191505b509250505060206040518083038186803b158015613e4857600080fd5b505af4158015613e5c573d6000803e3d6000fd5b505050506040513d6020811015613e7257600080fd5b505160405160e060020a63bc53a0b902815260206004820181815284516024840152845161ffff9094169373__TicTacToeState________________________9363bc53a0b99387939283926044019185019080838360008381101561282457818101518382015260200161280c565b60405160e160020a6324fe5397028152602060048201818152835160248401528351613f519373__TicTacToeState________________________936349fca72e93879390928392604490910191908501908083836000838110156132dc5781810151838201526020016132c4565b1515613c3e57600080fd5b60405160e060020a63bc53a0b90281526020600482018181528351602484015283516141259373__TicTacToeState________________________9363bc53a0b9938793909283926044909101919085019080838360005b83811015613fcc578181015183820152602001613fb4565b50505050905090810190601f168015613ff95780820380516001836020036101000a031916815260200191505b509250505060206040518083038186803b15801561401657600080fd5b505af415801561402a573d6000803e3d6000fd5b505050506040513d602081101561404057600080fd5b505160405160e160020a6324fe539702815260206004820181815285516024840152855173__TicTacToeState________________________936349fca72e9388939283926044019185019080838360005b838110156140aa578181015183820152602001614092565b50505050905090810190601f1680156140d75780820380516001836020036101000a031916815260200191505b509250505060206040518083038186803b1580156140f457600080fd5b505af4158015614108573d6000803e3d6000fd5b505050506040513d602081101561411e57600080fd5b50516112f6565b151561413057600080fd5b60405160e160020a632dab59f702815260206004820181815283516024840152835173__State_________________________________93635b56b3ee9386939283926044019185019080838360005b83811015614198578181015183820152602001614180565b50505050905090810190601f1680156141c55780820380516001836020036101000a031916815260200191505b509250505060206040518083038186803b1580156141e257600080fd5b505af41580156141f6573d6000803e3d6000fd5b505050506040513d602081101561420c57600080fd5b5051151561477d5760405160e160020a63168f060102815260206004820181815283516024840152835173__TicTacToeState________________________93632d1e0c029386939283926044019185019080838360005b8381101561427c578181015183820152602001614264565b50505050905090810190601f1680156142a95780820380516001836020036101000a031916815260200191505b509250505060206040518083038186803b1580156142c657600080fd5b505af41580156142da573d6000803e3d6000fd5b505050506040513d60208110156142f057600080fd5b505160405160e060020a634c291ecd02815260206004820181815285516024840152855160029094029373__TicTacToeState________________________93634c291ecd9388939283926044019185019080838360005b83811015614360578181015183820152602001614348565b50505050905090810190601f16801561438d5780820380516001836020036101000a031916815260200191505b509250505060206040518083038186803b1580156143aa57600080fd5b505af41580156143be573d6000803e3d6000fd5b505050506040513d60208110156143d457600080fd5b505160405160e060020a634c291ecd028152602060048201818152855160248401528551949093019373__TicTacToeState________________________93634c291ecd9387939192839260449092019185019080838360005b8381101561444657818101518382015260200161442e565b50505050905090810190601f1680156144735780820380516001836020036101000a031916815260200191505b509250505060206040518083038186803b15801561449057600080fd5b505af41580156144a4573d6000803e3d6000fd5b505050506040513d60208110156144ba57600080fd5b5051146144c657600080fd5b60405160e160020a63168f060102815260206004820181815283516024840152835173__TicTacToeState________________________93632d1e0c029386939283926044019185019080838360005b8381101561452e578181015183820152602001614516565b50505050905090810190601f16801561455b5780820380516001836020036101000a031916815260200191505b509250505060206040518083038186803b15801561457857600080fd5b505af415801561458c573d6000803e3d6000fd5b505050506040513d60208110156145a257600080fd5b505160405160e060020a634e77b06302815260206004820181815285516024840152855160029094029373__TicTacToeState________________________93634e77b0639388939283926044019185019080838360005b838110156146125781810151838201526020016145fa565b50505050905090810190601f16801561463f5780820380516001836020036101000a031916815260200191505b509250505060206040518083038186803b15801561465c57600080fd5b505af4158015614670573d6000803e3d6000fd5b505050506040513d602081101561468657600080fd5b505160405160e060020a634e77b063028152602060048201818152855160248401528551949093039373__TicTacToeState________________________93634e77b0639387939192839260449092019185019080838360005b838110156146f85781810151838201526020016146e0565b50505050905090810190601f1680156147255780820380516001836020036101000a031916815260200191505b509250505060206040518083038186803b15801561474257600080fd5b505af4158015614756573d6000803e3d6000fd5b505050506040513d602081101561476c57600080fd5b50511461477857600080fd5b614dc7565b60405160e160020a632dab59f702815260206004820181815283516024840152835173__State_________________________________93635b56b3ee9386939283926044019185019080838360005b838110156147e55781810151838201526020016147cd565b50505050905090810190601f1680156148125780820380516001836020036101000a031916815260200191505b509250505060206040518083038186803b15801561482f57600080fd5b505af4158015614843573d6000803e3d6000fd5b505050506040513d602081101561485957600080fd5b505160011415614dc75760405160e160020a63168f060102815260206004820181815283516024840152835173__TicTacToeState________________________93632d1e0c029386939283926044019185019080838360005b838110156148cb5781810151838201526020016148b3565b50505050905090810190601f1680156148f85780820380516001836020036101000a031916815260200191505b509250505060206040518083038186803b15801561491557600080fd5b505af4158015614929573d6000803e3d6000fd5b505050506040513d602081101561493f57600080fd5b505160405160e060020a634c291ecd02815260206004820181815285516024840152855160029094029373__TicTacToeState________________________93634c291ecd9388939283926044019185019080838360005b838110156149af578181015183820152602001614997565b50505050905090810190601f1680156149dc5780820380516001836020036101000a031916815260200191505b509250505060206040518083038186803b1580156149f957600080fd5b505af4158015614a0d573d6000803e3d6000fd5b505050506040513d6020811015614a2357600080fd5b505160405160e060020a634c291ecd028152602060048201818152855160248401528551949093039373__TicTacToeState________________________93634c291ecd9387939192839260449092019185019080838360005b83811015614a95578181015183820152602001614a7d565b50505050905090810190601f168015614ac25780820380516001836020036101000a031916815260200191505b509250505060206040518083038186803b158015614adf57600080fd5b505af4158015614af3573d6000803e3d6000fd5b505050506040513d6020811015614b0957600080fd5b505114614b1557600080fd5b60405160e160020a63168f060102815260206004820181815283516024840152835173__TicTacToeState________________________93632d1e0c029386939283926044019185019080838360005b83811015614b7d578181015183820152602001614b65565b50505050905090810190601f168015614baa5780820380516001836020036101000a031916815260200191505b509250505060206040518083038186803b158015614bc757600080fd5b505af4158015614bdb573d6000803e3d6000fd5b505050506040513d6020811015614bf157600080fd5b505160405160e060020a634e77b06302815260206004820181815285516024840152855160029094029373__TicTacToeState________________________93634e77b0639388939283926044019185019080838360005b83811015614c61578181015183820152602001614c49565b50505050905090810190601f168015614c8e5780820380516001836020036101000a031916815260200191505b509250505060206040518083038186803b158015614cab57600080fd5b505af4158015614cbf573d6000803e3d6000fd5b505050506040513d6020811015614cd557600080fd5b505160405160e060020a634e77b063028152602060048201818152855160248401528551949093019373__TicTacToeState________________________93634e77b0639387939192839260449092019185019080838360005b83811015614d47578181015183820152602001614d2f565b50505050905090810190601f168015614d745780820380516001836020036101000a031916815260200191505b509250505060206040518083038186803b158015614d9157600080fd5b505af4158015614da5573d6000803e3d6000fd5b505050506040513d6020811015614dbb57600080fd5b505114614dc757600080fd5b60405160e160020a6324fe5397028152602060048201818152835160248401528351614e369373__TicTacToeState________________________936349fca72e9387939092839260449091019190850190808383600083811015613cae578181015183820152602001613c96565b1515614e4157600080fd5b60405160e060020a63bc53a0b902815260206004820181815284516024840152845173__TicTacToeState________________________9363bc53a0b99387939283926044019185019080838360005b83811015614ea9578181015183820152602001614e91565b50505050905090810190601f168015614ed65780820380516001836020036101000a031916815260200191505b509250505060206040518083038186803b158015614ef357600080fd5b505af4158015614f07573d6000803e3d6000fd5b505050506040513d6020811015614f1d57600080fd5b505160405160e060020a63bc53a0b902815260206004820181815284516024840152845161ffff9094169373__TicTacToeState________________________9363bc53a0b99387939283926044019185019080838360005b83811015614f8e578181015183820152602001614f76565b50505050905090810190601f168015614fbb5780820380516001836020036101000a031916815260200191505b509250505060206040518083038186803b158015614fd857600080fd5b505af4158015614fec573d6000803e3d6000fd5b505050506040513d602081101561500257600080fd5b505161ffff161461233957600080fd5b60405160e060020a634c291ecd02815260206004820181815284516024840152845173__TicTacToeState________________________93634c291ecd9387939283926044019185019080838360005b8381101561507a578181015183820152602001615062565b50505050905090810190601f1680156150a75780820380516001836020036101000a031916815260200191505b509250505060206040518083038186803b1580156150c457600080fd5b505af41580156150d8573d6000803e3d6000fd5b505050506040513d60208110156150ee57600080fd5b505160405160e060020a634c291ecd02815260206004820181815284516024840152845173__TicTacToeState________________________93634c291ecd9387939283926044019185019080838360005b83811015615158578181015183820152602001615140565b50505050905090810190601f1680156151855780820380516001836020036101000a031916815260200191505b509250505060206040518083038186803b1580156151a257600080fd5b505af41580156151b6573d6000803e3d6000fd5b505050506040513d60208110156151cc57600080fd5b5051146151d857600080fd5b60405160e060020a634e77b06302815260206004820181815284516024840152845173__TicTacToeState________________________93634e77b0639387939283926044019185019080838360005b83811015615240578181015183820152602001615228565b50505050905090810190601f16801561526d5780820380516001836020036101000a031916815260200191505b509250505060206040518083038186803b15801561528a57600080fd5b505af415801561529e573d6000803e3d6000fd5b505050506040513d60208110156152b457600080fd5b505160405160e060020a634e77b06302815260206004820181815284516024840152845173__TicTacToeState________________________93634e77b063938793928392604401918501908083836000838110156122b95781810151838201526020016122a1565b60405160e060020a634c291ecd02815260206004820181815284516024840152845173__TicTacToeState________________________93634c291ecd9387939283926044019185019080838360005b8381101561538557818101518382015260200161536d565b50505050905090810190601f1680156153b25780820380516001836020036101000a031916815260200191505b509250505060206040518083038186803b1580156153cf57600080fd5b505af41580156153e3573d6000803e3d6000fd5b505050506040513d60208110156153f957600080fd5b505160405160e060020a634c291ecd02815260206004820181815284516024840152845173__TicTacToeState________________________93634c291ecd9387939283926044019185019080838360005b8381101561546357818101518382015260200161544b565b50505050905090810190601f1680156154905780820380516001836020036101000a031916815260200191505b509250505060206040518083038186803b1580156154ad57600080fd5b505af41580156154c1573d6000803e3d6000fd5b505050506040513d60208110156154d757600080fd5b5051146154e357600080fd5b60405160e060020a634e77b06302815260206004820181815284516024840152845173__TicTacToeState________________________93634e77b0639387939283926044019185019080838360005b8381101561554b578181015183820152602001615533565b50505050905090810190601f1680156155785780820380516001836020036101000a031916815260200191505b509250505060206040518083038186803b15801561559557600080fd5b505af41580156155a9573d6000803e3d6000fd5b505050506040513d60208110156155bf57600080fd5b505160405160e060020a634e77b06302815260206004820181815284516024840152845173__TicTacToeState________________________93634e77b0639387939283926044019185019080838360005b83811015615629578181015183820152602001615611565b50505050905090810190601f1680156156565780820380516001836020036101000a031916815260200191505b509250505060206040518083038186803b15801561567357600080fd5b505af4158015615687573d6000803e3d6000fd5b505050506040513d602081101561569d57600080fd5b5051146156a957600080fd5b60405160e060020a63bc53a0b902815260206004820181815283516024840152835173__TicTacToeState________________________9363bc53a0b99386939283926044019185019080838360005b838110156157115781810151838201526020016156f9565b50505050905090810190601f16801561573e5780820380516001836020036101000a031916815260200191505b509250505060206040518083038186803b15801561575b57600080fd5b505af415801561576f573d6000803e3d6000fd5b505050506040513d602081101561578557600080fd5b505161ffff161561579557600080fd5b60405160e160020a6324fe53970281526020600482018181528351602484015283516158049373__TicTacToeState________________________936349fca72e938793909283926044909101919085019080838360008381101561146c578181015183820152602001611454565b151561233957600080fd00a165627a7a723058205092623d9698f98685fe8ed6e2e154d2058564d7b19985addd83743182d0d9a50029",
  "source": "pragma solidity ^0.4.18;\n\nimport \"fmg-core/contracts/State.sol\";\nimport \"./TicTacToeState.sol\";\n\ncontract TicTacToeGame {\n    using TicTacToeState for bytes;\n\n    // The following transitions are allowed:\n    //\n    // Rest    -> Xplaying\n    // Rest    -> Conclude but Conclude is an FMG position -- does it belong here?\n    //\n    // Xplaying -> Oplaying\n    // Xplaying -> Victory\n    // cannot get to draw (X is always completing the board because X goes first) remember we are transitioning *from& Xplay, so noughts are making the new marks\n    // Xplaying -> Resting (\"noughts\" player rejects game)\n    //\n    // Oplaying -> Xplaying\n    // Oplaying -> Victory\n    // Oplaying -> Draw\n\n    //\n    // Victory -> Rest\n    // Victory -> Xplaying\n    //\n    // Draw    -> Rest\n    // Draw    -> Xplaying\n    //\n\n    function validTransition(bytes _old, bytes _new) public pure returns (bool) {\n\n        if (_old.positionType() == TicTacToeState.PositionType.Rest) {\n            if (_new.positionType() == TicTacToeState.PositionType.Xplaying) {\n\n                validateRestToXplaying(_old, _new);\n\n                return true;\n\n            } \n        } else if (_old.positionType() == TicTacToeState.PositionType.Xplaying) {\n\n            if (_new.positionType() == TicTacToeState.PositionType.Oplaying) {\n\n                validateXplayingToOplaying(_old, _new);\n\n                return true;\n\n            } else if (_new.positionType() == TicTacToeState.PositionType.Victory) {\n\n                validateXplayingToVictory(_old, _new);\n\n                return true;\n\n            } else if (_new.positionType() == TicTacToeState.PositionType.Rest) {\n\n                validateXplayingToRest(_old, _new);\n\n                return true;\n              }\n        } else if (_old.positionType() == TicTacToeState.PositionType.Oplaying) {\n\n            if (_new.positionType() == TicTacToeState.PositionType.Xplaying) {\n\n                validateOplayingToXplaying(_old, _new);\n\n                return true;\n\n            } else if (_new.positionType() == TicTacToeState.PositionType.Victory) {\n\n                validateOplayingToVictory(_old, _new);\n\n                return true;\n\n            } else if (_new.positionType() == TicTacToeState.PositionType.Draw) {\n\n                validateOplayingToDraw(_old, _new);\n\n                return true;\n            \n            }\n        } else if (_old.positionType() == TicTacToeState.PositionType.Victory) {\n\n            if (_new.positionType() == TicTacToeState.PositionType.Rest) {\n\n                validateVictoryToRest(_old, _new);\n\n                return true;\n\n            } else if (_new.positionType() == TicTacToeState.PositionType.Xplaying) {\n\n                validateVictoryToXplaying(_old, _new);\n\n                return true;\n\n            }\n        } else if (_old.positionType() == TicTacToeState.PositionType.Draw) {\n\n            if (_new.positionType() == TicTacToeState.PositionType.Rest) {\n\n                validateDrawToRest(_old, _new);\n\n                return true;\n\n            } else if (_new.positionType() == TicTacToeState.PositionType.Xplaying) {\n\n                validateDrawToXplaying(_old, _new);\n\n                return true;\n\n            }\n        } \n        revert();\n        // return false;\n    }\n\n    // transition validations\n\n    function validateRestToXplaying(bytes _old, bytes _new) private pure {\n        // require(_new.noughts() == 0, \" Noughts is not empty \"); // error messages are not yet fully supported\n        require(_new.noughts() == 0);\n        // require(madeStrictlyOneMark(_new.crosses(),0), \"Invalid starting position\"); // Xs moves first\n        require(madeStrictlyOneMark(_new.crosses(),0)); // Xs moves first\n        // require(_new.stake() == _old.stake(), \" Stake was changed \");\n        require(_new.stake() == _old.stake());\n        // if (State.indexOfMover(_new) == 0) { // mover is A\n        //     require(_new.aResolution() == _old.aResolution() + _new.stake(), \" Incorrect resolution \");\n        //     require(_new.bResolution() == _old.bResolution() - _new.stake(), \" Incorrect resolution \");\n        // } else if (State.indexOfMover(_new) == 1) { // mover is B\n        //     require(_new.aResolution() == _old.aResolution() - _new.stake(), \" Incorrect resolution \");\n        //     require(_new.bResolution() == _old.bResolution() + _new.stake(), \" Incorrect resolution \");\n        // }\n        if (State.indexOfMover(_new) == 0) { // mover is A\n            require(_new.aResolution() == _old.aResolution() + _new.stake());\n            require(_new.bResolution() == _old.bResolution() - _new.stake());\n        } else if (State.indexOfMover(_new) == 1) { // mover is B\n            require(_new.aResolution() == _old.aResolution() - _new.stake());\n            require(_new.bResolution() == _old.bResolution() + _new.stake());\n        }\n    }\n\n    function validateRestToConcluded(bytes _old, bytes _new) private pure {\n        require(_new.aResolution() == _old.aResolution());\n        require(_new.bResolution() == _old.bResolution());\n    }\n\n    function validateXplayingToOplaying(bytes _old, bytes _new) private pure {\n        require(_new.stake() == _old.stake());\n        require(madeStrictlyOneMark(_new.noughts(), _old.noughts()));\n        require((_new.crosses() == _old.crosses()));   \n        if (State.indexOfMover(_new) == 0) { // mover is A\n            require(_new.aResolution() == _old.aResolution() + 2 *_new.stake()); \n            require(_new.bResolution() == _old.bResolution() - 2 *_new.stake());\n        } else if (State.indexOfMover(_new) == 1) { // mover is B\n            require(_new.aResolution() == _old.aResolution() - 2 *_new.stake());\n            require(_new.bResolution() == _old.bResolution() + 2 *_new.stake());\n            // note factor of 2 to swing fully to other player\n        } \n\n    }\n    \n    function validateXplayingToVictory(bytes _old, bytes _new) private pure {\n        require(hasWon(_new.noughts()));\n        require(madeStrictlyOneMark(_new.noughts(), _old.noughts()));\n        require((_new.crosses() == _old.crosses()));   \n        if (State.indexOfMover(_new) == 0) { // mover is A\n            require(_new.aResolution() == _old.aResolution() + 2 * _new.stake());\n            require(_new.bResolution() == _old.bResolution() - 2 * _new.stake());\n        } else if (State.indexOfMover(_new) ==1) { // mover is B\n            require(_new.aResolution() == _old.aResolution() - 2 * _new.stake());\n            require(_new.bResolution() == _old.bResolution() + 2 * _new.stake());\n        } // mover gets to claim stakes\n    }\n\n    function validateXplayingToRest(bytes _old, bytes _new) private pure {\n        require(_old.noughts() == 0); // don't allow this transition unless noughts has yet to make any marks\n        if (State.indexOfMover(_new) == 0) { // Mover is A\n            // revert balances\n            require(_new.aResolution() == _old.aResolution() + _old.stake());\n            require(_new.bResolution() == _old.bResolution() - _old.stake());\n        } else if (State.indexOfMover(_new) == 1) { // Mover is B\n            // revert balances\n            require(_new.aResolution() == _old.aResolution() - _old.stake());\n            require(_new.bResolution() == _old.bResolution() + _old.stake());\n        } \n    }\n\n    function validateOplayingToXplaying(bytes _old, bytes _new) private pure {\n        require(madeStrictlyOneMark(_new.crosses(), _old.crosses()));\n        require((_new.noughts() == _old.noughts()));\n        if (State.indexOfMover(_new) == 0) { // mover is A\n            require(_new.aResolution() == _old.aResolution() + 2 *_new.stake()); // note extra factor of 2 to swing fully to other player\n            require(_new.bResolution() == _old.bResolution() - 2 *_new.stake());\n        } else if (State.indexOfMover(_new) == 1) { // mover is B\n            require(_new.aResolution() == _old.aResolution() - 2 *_new.stake());\n            require(_new.bResolution() == _old.bResolution() + 2 *_new.stake());\n        } // mover gets to claim stakes: note factor of 2 to swing fully to other player\n\n    }\n\n    function validateOplayingToVictory(bytes _old, bytes _new) private pure {\n        require(hasWon(_new.crosses()));\n        require(madeStrictlyOneMark(_new.crosses(), _old.crosses()));\n        require((_new.noughts() == _old.noughts()));   \n        if (State.indexOfMover(_new) == 0) { // mover is A\n            require(_new.aResolution() == _old.aResolution() + 2 * _new.stake());\n            require(_new.bResolution() == _old.bResolution() - 2 * _new.stake());\n        } else if (State.indexOfMover(_new) ==1) { // mover is B\n            require(_new.aResolution() == _old.aResolution() - 2 *  _new.stake());\n            require(_new.bResolution() == _old.bResolution() + 2 *  _new.stake());\n        } // mover gets to claim stakes: note factor of 2 to swing fully to other player\n    }\n\n    function validateOplayingToDraw(bytes _old, bytes _new) private pure {\n        require(isDraw(_new.noughts(), _new.crosses())); // check if board full. \n        // crosses always plays first move and always plays the move that completes the board\n        if (State.indexOfMover(_new) == 0) {\n            require(_new.aResolution() == _old.aResolution() + 2 * _new.stake()); // no extra factor of 2, restoring to parity\n            require(_new.bResolution() == _old.bResolution() - 2 * _new.stake());\n        } else if (State.indexOfMover(_new) ==1) {\n            require(_new.aResolution() == _old.aResolution() - 2 * _new.stake());\n            require(_new.bResolution() == _old.bResolution() + 2 * _new.stake());\n        } // mover gets to restore parity to the winnings\n        require(madeStrictlyOneMark(_new.crosses(), _old.crosses()));\n        require((_new.noughts() == _old.noughts()));\n    }\n\n    function validateVictoryToRest(bytes _old, bytes _new) private pure {\n        require(_new.aResolution() == _old.aResolution());\n        require(_new.bResolution() == _old.bResolution());\n    }\n\n    function validateDrawToRest(bytes _old, bytes _new) private pure {\n        require(_new.aResolution() == _old.aResolution());\n        require(_new.bResolution() == _old.bResolution());\n    }\n\n    function validateVictoryToXplaying(bytes _old, bytes _new) private pure {\n        require(_new.aResolution() == _old.aResolution());\n        require(_new.bResolution() == _old.bResolution());\n        require(_new.noughts() == 0);\n        require(madeStrictlyOneMark(_new.crosses(),0)); // crosses always goes first. there is no _old.crosses, so set to zero here\n    }\n\n    function validateDrawToXplaying(bytes _old, bytes _new) private pure {\n        require(_new.aResolution() == _old.aResolution());\n        require(_new.bResolution() == _old.bResolution());\n        require(_new.noughts() == 0);\n        require(madeStrictlyOneMark(_new.crosses(),0)); // crosses always goes first. there is no _old.crosses, so set to zero here\n    }\n\n  \n    // helper functions \n    \n    // Unravelling of grid is as follows:\n    // \n    //      0  |  1  |  2  \n    //   +-----------------+\n    //      3  |  4  |  5  \n    //   +-----------------+\n    //      6  |  7  |  8  \n    // \n    // The binary representation for a single mark is 2**(8-index).\n    //\n    // e.g. noughts = 000000001\n    //      crosses = 010000000\n    // \n    // corresponds to \n    //\n    //         |  X  |     \n    //   +-----------------+\n    //         |     |     \n    //   +-----------------+\n    //         |      |  0  \n    // \n    //\n    uint16 constant topRow = 448; /*  0b111000000 = 448 mask for win @ row 1 */\n    uint16 constant midRow =  56; /*  0b000111000 =  56 mask for win @ row 2 */\n    uint16 constant botRow =   7; /*  0b000000111 =   7 mask for win @ row 3 */\n    uint16 constant lefCol = 292; /*  0b100100100 = 292 mask for win @ col 1 */\n    uint16 constant midCol = 146; /*  0b010010010 = 146 mask for win @ col 2 */\n    uint16 constant rigCol =  73; /*  0b001001001 =  73 mask for win @ col 3 */\n    uint16 constant dhDiag = 273; /*  0b100010001 = 273 mask for win @ downhill diag */\n    uint16 constant uhDiag =  84; /*  0b001010100 =  84 mask for win @ uphill diag */\n    //\n    uint16 constant fullBd = 511; /* 0b111111111 = 511 full board */\n\n    function hasWon(uint16 _marks) public pure returns (bool) {\n        return (\n            ((_marks & topRow) == topRow) ||\n            ((_marks & midRow) == midRow) ||\n            ((_marks & botRow) == botRow) ||\n            ((_marks & lefCol) == lefCol) ||\n            ((_marks & midCol) == midCol) ||\n            ((_marks & rigCol) == rigCol) ||\n            ((_marks & dhDiag) == dhDiag) ||\n            ((_marks & uhDiag) == uhDiag) \n            );\n    }\n\n    function isDraw(uint16 _noughts, uint16 _crosses) public pure returns (bool) {\n        if((_noughts ^ _crosses) == fullBd) { \n            return true; // using XOR. Note that a draw could include a winning position that is unnoticed / unclaimed\n        }\n        else return false;\n    }\n\n    function madeStrictlyOneMark(uint16 _new_marks, uint16 _old_marks) public pure returns (bool){\n        uint16 i;\n        bool already_marked = false;\n        for (i = 0; i < 9; i++){\n            if ((_new_marks >> i)%2 == 0 && (_old_marks >> i)%2 == 1){\n                return false; // erased a mark\n            } \n            else if ((_new_marks >> i)%2 == 1 && (_old_marks >> i)%2 == 0){\n                if (already_marked == true){\n                    return false; // made two or more marks\n                }\n                already_marked = true; // made at least one mark\n            }\n        }\n        if (_new_marks == _old_marks) {return false;} // do not allow a non-move\n        return true;\n    }\n\n    function areDisjoint(uint16 _noughts, uint16 _crosses) public pure returns (bool) {\n        if((_noughts & _crosses) == 0){\n            return true;\n        }\n        else return false;\n    }\n\n    function popCount(uint16 _marks) public pure returns (uint8) {\n        uint16 i;\n        uint8  count;\n        for (i = 0; i < 9; i++){\n            if ((_marks >> i)%2 == 1 ){\n                count++; // erased a mark\n            } \n        }\n        return count;\n    }\n}\n",
  "sourcePath": "/Users/georgeknee/magmo/TTT/contracts/TicTacToeGame.sol",
  "compiler": {
    "name": "solc",
    "version": "0.4.24+commit.e67f0147.Emscripten.clang"
  },
  "schemaVersion": "2.0.1",
  "updatedAt": "2018-12-13T17:46:01.222Z"
}