{
  "contractName": "RockPaperScissorsState",
  "abi": [
    {
      "constant": true,
      "inputs": [
        {
          "name": "_state",
          "type": "bytes"
        }
      ],
      "name": "positionType",
      "outputs": [
        {
          "name": "_positionType",
          "type": "RockPaperScissorsState.PositionType"
        }
      ],
      "payable": false,
      "stateMutability": "pure",
      "type": "function",
      "signature": "0x8a0cc0ed"
    },
    {
      "constant": true,
      "inputs": [
        {
          "name": "_state",
          "type": "bytes"
        }
      ],
      "name": "stake",
      "outputs": [
        {
          "name": "_stake",
          "type": "uint256"
        }
      ],
      "payable": false,
      "stateMutability": "pure",
      "type": "function",
      "signature": "0x2d1e0c02"
    },
    {
      "constant": true,
      "inputs": [
        {
          "name": "_state",
          "type": "bytes"
        }
      ],
      "name": "preCommit",
      "outputs": [
        {
          "name": "_preCommit",
          "type": "bytes32"
        }
      ],
      "payable": false,
      "stateMutability": "pure",
      "type": "function",
      "signature": "0x8b5b5b32"
    },
    {
      "constant": true,
      "inputs": [
        {
          "name": "_state",
          "type": "bytes"
        }
      ],
      "name": "bPlay",
      "outputs": [
        {
          "name": "_aPlay",
          "type": "RockPaperScissorsState.Play"
        }
      ],
      "payable": false,
      "stateMutability": "pure",
      "type": "function",
      "signature": "0x16666c70"
    },
    {
      "constant": true,
      "inputs": [
        {
          "name": "_state",
          "type": "bytes"
        }
      ],
      "name": "aPlay",
      "outputs": [
        {
          "name": "_bPlay",
          "type": "RockPaperScissorsState.Play"
        }
      ],
      "payable": false,
      "stateMutability": "pure",
      "type": "function",
      "signature": "0x259b0d33"
    },
    {
      "constant": true,
      "inputs": [
        {
          "name": "_state",
          "type": "bytes"
        }
      ],
      "name": "salt",
      "outputs": [
        {
          "name": "_salt",
          "type": "bytes32"
        }
      ],
      "payable": false,
      "stateMutability": "pure",
      "type": "function",
      "signature": "0xf7487e06"
    },
    {
      "constant": true,
      "inputs": [
        {
          "name": "_state",
          "type": "bytes"
        }
      ],
      "name": "roundNum",
      "outputs": [
        {
          "name": "_roundNum",
          "type": "uint256"
        }
      ],
      "payable": false,
      "stateMutability": "pure",
      "type": "function",
      "signature": "0x373ab314"
    },
    {
      "constant": true,
      "inputs": [
        {
          "name": "_state",
          "type": "bytes"
        }
      ],
      "name": "aResolution",
      "outputs": [
        {
          "name": "",
          "type": "uint256"
        }
      ],
      "payable": false,
      "stateMutability": "pure",
      "type": "function",
      "signature": "0x4c291ecd"
    },
    {
      "constant": true,
      "inputs": [
        {
          "name": "_state",
          "type": "bytes"
        }
      ],
      "name": "bResolution",
      "outputs": [
        {
          "name": "_bBal",
          "type": "uint256"
        }
      ],
      "payable": false,
      "stateMutability": "pure",
      "type": "function",
      "signature": "0x4e77b063"
    }
  ],
  "bytecode": "0x610cfe610030600b82828239805160001a6073146000811461002057610022565bfe5b5030600052607381538281f30073000000000000000000000000000000000000000030146080604052600436106100965763ffffffff60e060020a60003504166316666c70811461009b578063259b0d331461010b5780632d1e0c0214610157578063373ab314146101b55780634c291ecd146102015780634e77b0631461024d5780638a0cc0ed146102995780638b5b5b32146102f5578063f7487e0614610341575b600080fd5b6040805160206004803580820135601f81018490048402850184019095528484526100e794369492936024939284019190819084018382808284375094975061038d9650505050505050565b604051808260028111156100f757fe5b60ff16815260200191505060405180910390f35b6040805160206004803580820135601f81018490048402850184019095528484526100e794369492936024939284019190819084018382808284375094975061047e9650505050505050565b6040805160206004803580820135601f81018490048402850184019095528484526101a394369492936024939284019190819084018382808284375094975061056f9650505050505050565b60408051918252519081900360200190f35b6040805160206004803580820135601f81018490048402850184019095528484526101a39436949293602493928401919081908401838280828437509497506106609650505050505050565b6040805160206004803580820135601f81018490048402850184019095528484526101a39436949293602493928401919081908401838280828437509497506107519650505050505050565b6040805160206004803580820135601f81018490048402850184019095528484526101a39436949293602493928401919081908401838280828437509497506108b29650505050505050565b6040805160206004803580820135601f81018490048402850184019095528484526102e5943694929360249392840191908190840183828082843750949750610a029650505050505050565b604051808260048111156100f757fe5b6040805160206004803580820135601f81018490048402850184019095528484526101a3943694929360249392840191908190840183828082843750949750610af09650505050505050565b6040805160206004803580820135601f81018490048402850184019095528484526101a3943694929360249392840191908190840183828082843750949750610be19650505050505050565b60008073__State_________________________________63c586f63b846040518263ffffffff1660e060020a0281526004018080602001828103825283818151815260200191508051906020019080838360005b838110156103fa5781810151838201526020016103e2565b50505050905090810190601f1680156104275780820380516001836020036101000a031916815260200191505b509250505060206040518083038186803b15801561044457600080fd5b505af4158015610458573d6000803e3d6000fd5b505050506040513d602081101561046e57600080fd5b5051929092016060015192915050565b60008073__State_________________________________63c586f63b846040518263ffffffff1660e060020a0281526004018080602001828103825283818151815260200191508051906020019080838360005b838110156104eb5781810151838201526020016104d3565b50505050905090810190601f1680156105185780820380516001836020036101000a031916815260200191505b509250505060206040518083038186803b15801561053557600080fd5b505af4158015610549573d6000803e3d6000fd5b505050506040513d602081101561055f57600080fd5b5051929092016080015192915050565b60008073__State_________________________________63c586f63b846040518263ffffffff1660e060020a0281526004018080602001828103825283818151815260200191508051906020019080838360005b838110156105dc5781810151838201526020016105c4565b50505050905090810190601f1680156106095780820380516001836020036101000a031916815260200191505b509250505060206040518083038186803b15801561062657600080fd5b505af415801561063a573d6000803e3d6000fd5b505050506040513d602081101561065057600080fd5b5051929092016020015192915050565b60008073__State_________________________________63c586f63b846040518263ffffffff1660e060020a0281526004018080602001828103825283818151815260200191508051906020019080838360005b838110156106cd5781810151838201526020016106b5565b50505050905090810190601f1680156106fa5780820380516001836020036101000a031916815260200191505b509250505060206040518083038186803b15801561071757600080fd5b505af415801561072b573d6000803e3d6000fd5b505050506040513d602081101561074157600080fd5b50519290920160c0015192915050565b600073__State_________________________________632e6f220c836040518263ffffffff1660e060020a0281526004018080602001828103825283818151815260200191508051906020019080838360005b838110156107bd5781810151838201526020016107a5565b50505050905090810190601f1680156107ea5780820380516001836020036101000a031916815260200191505b509250505060006040518083038186803b15801561080757600080fd5b505af415801561081b573d6000803e3d6000fd5b505050506040513d6000823e601f3d908101601f19168201604052602081101561084457600080fd5b81019080805164010000000081111561085c57600080fd5b8201602081018481111561086f57600080fd5b815185602082028301116401000000008211171561088c57600080fd5b5050805190935060009250821090506108a157fe5b906020019060200201519050919050565b600073__State_________________________________632e6f220c836040518263ffffffff1660e060020a0281526004018080602001828103825283818151815260200191508051906020019080838360005b8381101561091e578181015183820152602001610906565b50505050905090810190601f16801561094b5780820380516001836020036101000a031916815260200191505b509250505060006040518083038186803b15801561096857600080fd5b505af415801561097c573d6000803e3d6000fd5b505050506040513d6000823e601f3d908101601f1916820160405260208110156109a557600080fd5b8101908080516401000000008111156109bd57600080fd5b820160208101848111156109d057600080fd5b81518560208202830111640100000000821117156109ed57600080fd5b5050805190935060019250821090506108a157fe5b60008073__State_________________________________63c586f63b846040518263ffffffff1660e060020a0281526004018080602001828103825283818151815260200191508051906020019080838360005b83811015610a6f578181015183820152602001610a57565b50505050905090810190601f168015610a9c5780820380516001836020036101000a031916815260200191505b509250505060206040518083038186803b158015610ab957600080fd5b505af4158015610acd573d6000803e3d6000fd5b505050506040513d6020811015610ae357600080fd5b5051929092015192915050565b60008073__State_________________________________63c586f63b846040518263ffffffff1660e060020a0281526004018080602001828103825283818151815260200191508051906020019080838360005b83811015610b5d578181015183820152602001610b45565b50505050905090810190601f168015610b8a5780820380516001836020036101000a031916815260200191505b509250505060206040518083038186803b158015610ba757600080fd5b505af4158015610bbb573d6000803e3d6000fd5b505050506040513d6020811015610bd157600080fd5b5051929092016040015192915050565b60008073__State_________________________________63c586f63b846040518263ffffffff1660e060020a0281526004018080602001828103825283818151815260200191508051906020019080838360005b83811015610c4e578181015183820152602001610c36565b50505050905090810190601f168015610c7b5780820380516001836020036101000a031916815260200191505b509250505060206040518083038186803b158015610c9857600080fd5b505af4158015610cac573d6000803e3d6000fd5b505050506040513d6020811015610cc257600080fd5b50519290920160a00151929150505600a165627a7a7230582043b62bf521c67337f956311043f20b6c6304360a171432ea66b74e8159d3ba7a0029",
  "source": "pragma solidity ^0.4.18;\r\n\r\nimport \"fmg-core/contracts/State.sol\";\r\n\r\nlibrary RockPaperScissorsState {\r\n    enum PositionType { Start, RoundProposed, RoundAccepted, Reveal, Concluded }\r\n    enum Play { Rock, Paper, Scissors }\r\n\r\n    // RockPaperScissors State Fields\r\n    // (relative to gamestate offset)\r\n    // ==============================\r\n    // [  0 -  31] enum positionType\r\n    // [ 32 -  63] uint256 stake\r\n    // [ 64 -  95] bytes32 preCommit\r\n    // [ 96 - 127] enum bPlay\r\n    // [128 - 159] enum aPlay\r\n    // [160 - 191] bytes32 salt\r\n    // [192 - 223] uint256 roundNum\r\n\r\n    function positionType(bytes _state) public pure returns (PositionType _positionType) {\r\n        uint offset = State.gameStateOffset(_state);\r\n        assembly {\r\n            _positionType := mload(add(_state, offset))\r\n        }\r\n    }\r\n\r\n    function stake(bytes _state) public pure returns (uint256 _stake) {\r\n        uint offset = State.gameStateOffset(_state) + 32;\r\n        assembly {\r\n            _stake := mload(add(_state, offset))\r\n        }\r\n    }\r\n\r\n    function preCommit(bytes _state) public pure returns (bytes32 _preCommit) {\r\n        uint offset = State.gameStateOffset(_state) + 64;\r\n        assembly {\r\n            _preCommit := mload(add(_state, offset))\r\n        }\r\n    }\r\n\r\n    function bPlay(bytes _state) public pure returns (Play _aPlay) {\r\n        uint offset = State.gameStateOffset(_state) + 96;\r\n        assembly {\r\n            _aPlay := mload(add(_state, offset))\r\n        }\r\n    }\r\n\r\n    function aPlay(bytes _state) public pure returns (Play _bPlay) {\r\n        uint offset = State.gameStateOffset(_state) + 128;\r\n        assembly {\r\n            _bPlay := mload(add(_state, offset))\r\n        }\r\n    }\r\n\r\n    function salt(bytes _state) public pure returns (bytes32 _salt) {\r\n        uint offset = State.gameStateOffset(_state) + 160;\r\n        assembly {\r\n            _salt := mload(add(_state, offset))\r\n        }\r\n    }\r\n\r\n    function roundNum(bytes _state) public pure returns (uint256 _roundNum) {\r\n        uint offset = State.gameStateOffset(_state) + 192;\r\n        assembly {\r\n            _roundNum := mload(add(_state, offset))\r\n        }\r\n    }\r\n\r\n    // utility functions\r\n    function aResolution(bytes _state) public pure returns (uint256) {\r\n        return State.resolution(_state)[0];\r\n    }\r\n\r\n    function bResolution(bytes _state) public pure returns (uint256 _bBal) {\r\n        return State.resolution(_state)[1];\r\n    }\r\n}\r\n",
  "sourcePath": "C:\\Users\\alexg\\code\\rps-poc\\contracts\\RockPaperScissorsState.sol",
  "compiler": {
    "name": "solc",
    "version": "0.4.24+commit.e67f0147.Emscripten.clang"
  },
  "schemaVersion": "3.0.0-beta.0",
  "updatedAt": "2018-09-06T19:20:42.220Z"
}