{
  "contractName": "RockPaperScissorsGame",
  "abi": [
    {
      "constant": true,
      "inputs": [
        {
          "name": "_old",
          "type": "bytes"
        },
        {
          "name": "_new",
          "type": "bytes"
        }
      ],
      "name": "validTransition",
      "outputs": [
        {
          "name": "",
          "type": "bool"
        }
      ],
      "payable": false,
      "stateMutability": "pure",
      "type": "function",
      "signature": "0x9207bf96"
    }
  ],
  "bytecode": "0x608060405234801561001057600080fd5b506147ea806100206000396000f300608060405260043610610041576000357c0100000000000000000000000000000000000000000000000000000000900463ffffffff1680639207bf9614610046575b600080fd5b34801561005257600080fd5b506100f3600480360381019080803590602001908201803590602001908080601f0160208091040260200160405190810160405280939291908181526020018383808284378201915050505050509192919290803590602001908201803590602001908080601f016020809104026020016040519081016040528093929190818152602001838380828437820191505050505050919291929050505061010d565b604051808215151515815260200191505060405180910390f35b600080600481111561011b57fe5b8373__RockPaperScissorsState________________638a0cc0ed90916040518263ffffffff167c01000000000000000000000000000000000000000000000000000000000281526004018080602001828103825283818151815260200191508051906020019080838360005b838110156101a3578082015181840152602081019050610188565b50505050905090810190601f1680156101d05780820380516001836020036101000a031916815260200191505b509250505060206040518083038186803b1580156101ed57600080fd5b505af4158015610201573d6000803e3d6000fd5b505050506040513d602081101561021757600080fd5b8101908080519060200190929190505050600481111561023357fe5b14156104b9576001600481111561024657fe5b8273__RockPaperScissorsState________________638a0cc0ed90916040518263ffffffff167c01000000000000000000000000000000000000000000000000000000000281526004018080602001828103825283818151815260200191508051906020019080838360005b838110156102ce5780820151818401526020810190506102b3565b50505050905090810190601f1680156102fb5780820380516001836020036101000a031916815260200191505b509250505060206040518083038186803b15801561031857600080fd5b505af415801561032c573d6000803e3d6000fd5b505050506040513d602081101561034257600080fd5b8101908080519060200190929190505050600481111561035e57fe5b14156103775761036e8383610d4b565b60019050610d45565b60048081111561038357fe5b8273__RockPaperScissorsState________________638a0cc0ed90916040518263ffffffff167c01000000000000000000000000000000000000000000000000000000000281526004018080602001828103825283818151815260200191508051906020019080838360005b8381101561040b5780820151818401526020810190506103f0565b50505050905090810190601f1680156104385780820380516001836020036101000a031916815260200191505b509250505060206040518083038186803b15801561045557600080fd5b505af4158015610469573d6000803e3d6000fd5b505050506040513d602081101561047f57600080fd5b8101908080519060200190929190505050600481111561049b57fe5b14156104b4576104ab838361180f565b60019050610d45565b610d40565b600160048111156104c657fe5b8373__RockPaperScissorsState________________638a0cc0ed90916040518263ffffffff167c01000000000000000000000000000000000000000000000000000000000281526004018080602001828103825283818151815260200191508051906020019080838360005b8381101561054e578082015181840152602081019050610533565b50505050905090810190601f16801561057b5780820380516001836020036101000a031916815260200191505b509250505060206040518083038186803b15801561059857600080fd5b505af41580156105ac573d6000803e3d6000fd5b505050506040513d60208110156105c257600080fd5b810190808051906020019092919050505060048111156105de57fe5b141561086557600060048111156105f157fe5b8273__RockPaperScissorsState________________638a0cc0ed90916040518263ffffffff167c01000000000000000000000000000000000000000000000000000000000281526004018080602001828103825283818151815260200191508051906020019080838360005b8381101561067957808201518184015260208101905061065e565b50505050905090810190601f1680156106a65780820380516001836020036101000a031916815260200191505b509250505060206040518083038186803b1580156106c357600080fd5b505af41580156106d7573d6000803e3d6000fd5b505050506040513d60208110156106ed57600080fd5b8101908080519060200190929190505050600481111561070957fe5b1415610722576107198383611e85565b60019050610d45565b6002600481111561072f57fe5b8273__RockPaperScissorsState________________638a0cc0ed90916040518263ffffffff167c01000000000000000000000000000000000000000000000000000000000281526004018080602001828103825283818151815260200191508051906020019080838360005b838110156107b757808201518184015260208101905061079c565b50505050905090810190601f1680156107e45780820380516001836020036101000a031916815260200191505b509250505060206040518083038186803b15801561080157600080fd5b505af4158015610815573d6000803e3d6000fd5b505050506040513d602081101561082b57600080fd5b8101908080519060200190929190505050600481111561084757fe5b14156108605761085783836124fb565b60019050610d45565b610d3f565b6002600481111561087257fe5b8373__RockPaperScissorsState________________638a0cc0ed90916040518263ffffffff167c01000000000000000000000000000000000000000000000000000000000281526004018080602001828103825283818151815260200191508051906020019080838360005b838110156108fa5780820151818401526020810190506108df565b50505050905090810190601f1680156109275780820380516001836020036101000a031916815260200191505b509250505060206040518083038186803b15801561094457600080fd5b505af4158015610958573d6000803e3d6000fd5b505050506040513d602081101561096e57600080fd5b8101908080519060200190929190505050600481111561098a57fe5b1415610ad3576003600481111561099d57fe5b8273__RockPaperScissorsState________________638a0cc0ed90916040518263ffffffff167c01000000000000000000000000000000000000000000000000000000000281526004018080602001828103825283818151815260200191508051906020019080838360005b83811015610a25578082015181840152602081019050610a0a565b50505050905090810190601f168015610a525780820380516001836020036101000a031916815260200191505b509250505060206040518083038186803b158015610a6f57600080fd5b505af4158015610a83573d6000803e3d6000fd5b505050506040513d6020811015610a9957600080fd5b81019080805190602001909291905050506004811115610ab557fe5b1415610ace57610ac58383612fbb565b60019050610d45565b610d3e565b60036004811115610ae057fe5b8373__RockPaperScissorsState________________638a0cc0ed90916040518263ffffffff167c01000000000000000000000000000000000000000000000000000000000281526004018080602001828103825283818151815260200191508051906020019080838360005b83811015610b68578082015181840152602081019050610b4d565b50505050905090810190601f168015610b955780820380516001836020036101000a031916815260200191505b509250505060206040518083038186803b158015610bb257600080fd5b505af4158015610bc6573d6000803e3d6000fd5b505050506040513d6020811015610bdc57600080fd5b81019080805190602001909291905050506004811115610bf857fe5b1415610d3d5760006004811115610c0b57fe5b8273__RockPaperScissorsState________________638a0cc0ed90916040518263ffffffff167c01000000000000000000000000000000000000000000000000000000000281526004018080602001828103825283818151815260200191508051906020019080838360005b83811015610c93578082015181840152602081019050610c78565b50505050905090810190601f168015610cc05780820380516001836020036101000a031916815260200191505b509250505060206040518083038186803b158015610cdd57600080fd5b505af4158015610cf1573d6000803e3d6000fd5b505050506040513d6020811015610d0757600080fd5b81019080805190602001909291905050506004811115610d2357fe5b1415610d3c57610d33838361409a565b60019050610d45565b5b5b5b5b600080fd5b92915050565b8173__RockPaperScissorsState________________632d1e0c0290916040518263ffffffff167c01000000000000000000000000000000000000000000000000000000000281526004018080602001828103825283818151815260200191508051906020019080838360005b83811015610dd3578082015181840152602081019050610db8565b50505050905090810190601f168015610e005780820380516001836020036101000a031916815260200191505b509250505060206040518083038186803b158015610e1d57600080fd5b505af4158015610e31573d6000803e3d6000fd5b505050506040513d6020811015610e4757600080fd5b81019080805190602001909291905050508173__RockPaperScissorsState________________632d1e0c0290916040518263ffffffff167c01000000000000000000000000000000000000000000000000000000000281526004018080602001828103825283818151815260200191508051906020019080838360005b83811015610ee0578082015181840152602081019050610ec5565b50505050905090810190601f168015610f0d5780820380516001836020036101000a031916815260200191505b509250505060206040518083038186803b158015610f2a57600080fd5b505af4158015610f3e573d6000803e3d6000fd5b505050506040513d6020811015610f5457600080fd5b8101908080519060200190929190505050141515610f7157600080fd5b8073__RockPaperScissorsState________________632d1e0c0290916040518263ffffffff167c01000000000000000000000000000000000000000000000000000000000281526004018080602001828103825283818151815260200191508051906020019080838360005b83811015610ff9578082015181840152602081019050610fde565b50505050905090810190601f1680156110265780820380516001836020036101000a031916815260200191505b509250505060206040518083038186803b15801561104357600080fd5b505af4158015611057573d6000803e3d6000fd5b505050506040513d602081101561106d57600080fd5b81019080805190602001909291905050508273__RockPaperScissorsState________________634c291ecd90916040518263ffffffff167c01000000000000000000000000000000000000000000000000000000000281526004018080602001828103825283818151815260200191508051906020019080838360005b838110156111065780820151818401526020810190506110eb565b50505050905090810190601f1680156111335780820380516001836020036101000a031916815260200191505b509250505060206040518083038186803b15801561115057600080fd5b505af4158015611164573d6000803e3d6000fd5b505050506040513d602081101561117a57600080fd5b81019080805190602001909291905050501015151561119857600080fd5b8073__RockPaperScissorsState________________632d1e0c0290916040518263ffffffff167c01000000000000000000000000000000000000000000000000000000000281526004018080602001828103825283818151815260200191508051906020019080838360005b83811015611220578082015181840152602081019050611205565b50505050905090810190601f16801561124d5780820380516001836020036101000a031916815260200191505b509250505060206040518083038186803b15801561126a57600080fd5b505af415801561127e573d6000803e3d6000fd5b505050506040513d602081101561129457600080fd5b81019080805190602001909291905050508273__RockPaperScissorsState________________634e77b06390916040518263ffffffff167c01000000000000000000000000000000000000000000000000000000000281526004018080602001828103825283818151815260200191508051906020019080838360005b8381101561132d578082015181840152602081019050611312565b50505050905090810190601f16801561135a5780820380516001836020036101000a031916815260200191505b509250505060206040518083038186803b15801561137757600080fd5b505af415801561138b573d6000803e3d6000fd5b505050506040513d60208110156113a157600080fd5b8101908080519060200190929190505050101515156113bf57600080fd5b8173__RockPaperScissorsState________________634c291ecd90916040518263ffffffff167c01000000000000000000000000000000000000000000000000000000000281526004018080602001828103825283818151815260200191508051906020019080838360005b8381101561144757808201518184015260208101905061142c565b50505050905090810190601f1680156114745780820380516001836020036101000a031916815260200191505b509250505060206040518083038186803b15801561149157600080fd5b505af41580156114a5573d6000803e3d6000fd5b505050506040513d60208110156114bb57600080fd5b81019080805190602001909291905050508173__RockPaperScissorsState________________634c291ecd90916040518263ffffffff167c01000000000000000000000000000000000000000000000000000000000281526004018080602001828103825283818151815260200191508051906020019080838360005b83811015611554578082015181840152602081019050611539565b50505050905090810190601f1680156115815780820380516001836020036101000a031916815260200191505b509250505060206040518083038186803b15801561159e57600080fd5b505af41580156115b2573d6000803e3d6000fd5b505050506040513d60208110156115c857600080fd5b81019080805190602001909291905050501415156115e557600080fd5b8173__RockPaperScissorsState________________634e77b06390916040518263ffffffff167c01000000000000000000000000000000000000000000000000000000000281526004018080602001828103825283818151815260200191508051906020019080838360005b8381101561166d578082015181840152602081019050611652565b50505050905090810190601f16801561169a5780820380516001836020036101000a031916815260200191505b509250505060206040518083038186803b1580156116b757600080fd5b505af41580156116cb573d6000803e3d6000fd5b505050506040513d60208110156116e157600080fd5b81019080805190602001909291905050508173__RockPaperScissorsState________________634e77b06390916040518263ffffffff167c01000000000000000000000000000000000000000000000000000000000281526004018080602001828103825283818151815260200191508051906020019080838360005b8381101561177a57808201518184015260208101905061175f565b50505050905090810190601f1680156117a75780820380516001836020036101000a031916815260200191505b509250505060206040518083038186803b1580156117c457600080fd5b505af41580156117d8573d6000803e3d6000fd5b505050506040513d60208110156117ee57600080fd5b810190808051906020019092919050505014151561180b57600080fd5b5050565b8173__RockPaperScissorsState________________632d1e0c0290916040518263ffffffff167c01000000000000000000000000000000000000000000000000000000000281526004018080602001828103825283818151815260200191508051906020019080838360005b8381101561189757808201518184015260208101905061187c565b50505050905090810190601f1680156118c45780820380516001836020036101000a031916815260200191505b509250505060206040518083038186803b1580156118e157600080fd5b505af41580156118f5573d6000803e3d6000fd5b505050506040513d602081101561190b57600080fd5b81019080805190602001909291905050508173__RockPaperScissorsState________________632d1e0c0290916040518263ffffffff167c01000000000000000000000000000000000000000000000000000000000281526004018080602001828103825283818151815260200191508051906020019080838360005b838110156119a4578082015181840152602081019050611989565b50505050905090810190601f1680156119d15780820380516001836020036101000a031916815260200191505b509250505060206040518083038186803b1580156119ee57600080fd5b505af4158015611a02573d6000803e3d6000fd5b505050506040513d6020811015611a1857600080fd5b8101908080519060200190929190505050141515611a3557600080fd5b8173__RockPaperScissorsState________________634c291ecd90916040518263ffffffff167c01000000000000000000000000000000000000000000000000000000000281526004018080602001828103825283818151815260200191508051906020019080838360005b83811015611abd578082015181840152602081019050611aa2565b50505050905090810190601f168015611aea5780820380516001836020036101000a031916815260200191505b509250505060206040518083038186803b158015611b0757600080fd5b505af4158015611b1b573d6000803e3d6000fd5b505050506040513d6020811015611b3157600080fd5b81019080805190602001909291905050508173__RockPaperScissorsState________________634c291ecd90916040518263ffffffff167c01000000000000000000000000000000000000000000000000000000000281526004018080602001828103825283818151815260200191508051906020019080838360005b83811015611bca578082015181840152602081019050611baf565b50505050905090810190601f168015611bf75780820380516001836020036101000a031916815260200191505b509250505060206040518083038186803b158015611c1457600080fd5b505af4158015611c28573d6000803e3d6000fd5b505050506040513d6020811015611c3e57600080fd5b8101908080519060200190929190505050141515611c5b57600080fd5b8173__RockPaperScissorsState________________634e77b06390916040518263ffffffff167c01000000000000000000000000000000000000000000000000000000000281526004018080602001828103825283818151815260200191508051906020019080838360005b83811015611ce3578082015181840152602081019050611cc8565b50505050905090810190601f168015611d105780820380516001836020036101000a031916815260200191505b509250505060206040518083038186803b158015611d2d57600080fd5b505af4158015611d41573d6000803e3d6000fd5b505050506040513d6020811015611d5757600080fd5b81019080805190602001909291905050508173__RockPaperScissorsState________________634e77b06390916040518263ffffffff167c01000000000000000000000000000000000000000000000000000000000281526004018080602001828103825283818151815260200191508051906020019080838360005b83811015611df0578082015181840152602081019050611dd5565b50505050905090810190601f168015611e1d5780820380516001836020036101000a031916815260200191505b509250505060206040518083038186803b158015611e3a57600080fd5b505af4158015611e4e573d6000803e3d6000fd5b505050506040513d6020811015611e6457600080fd5b8101908080519060200190929190505050141515611e8157600080fd5b5050565b8173__RockPaperScissorsState________________632d1e0c0290916040518263ffffffff167c01000000000000000000000000000000000000000000000000000000000281526004018080602001828103825283818151815260200191508051906020019080838360005b83811015611f0d578082015181840152602081019050611ef2565b50505050905090810190601f168015611f3a5780820380516001836020036101000a031916815260200191505b509250505060206040518083038186803b158015611f5757600080fd5b505af4158015611f6b573d6000803e3d6000fd5b505050506040513d6020811015611f8157600080fd5b81019080805190602001909291905050508173__RockPaperScissorsState________________632d1e0c0290916040518263ffffffff167c01000000000000000000000000000000000000000000000000000000000281526004018080602001828103825283818151815260200191508051906020019080838360005b8381101561201a578082015181840152602081019050611fff565b50505050905090810190601f1680156120475780820380516001836020036101000a031916815260200191505b509250505060206040518083038186803b15801561206457600080fd5b505af4158015612078573d6000803e3d6000fd5b505050506040513d602081101561208e57600080fd5b81019080805190602001909291905050501415156120ab57600080fd5b8173__RockPaperScissorsState________________634c291ecd90916040518263ffffffff167c01000000000000000000000000000000000000000000000000000000000281526004018080602001828103825283818151815260200191508051906020019080838360005b83811015612133578082015181840152602081019050612118565b50505050905090810190601f1680156121605780820380516001836020036101000a031916815260200191505b509250505060206040518083038186803b15801561217d57600080fd5b505af4158015612191573d6000803e3d6000fd5b505050506040513d60208110156121a757600080fd5b81019080805190602001909291905050508173__RockPaperScissorsState________________634c291ecd90916040518263ffffffff167c01000000000000000000000000000000000000000000000000000000000281526004018080602001828103825283818151815260200191508051906020019080838360005b83811015612240578082015181840152602081019050612225565b50505050905090810190601f16801561226d5780820380516001836020036101000a031916815260200191505b509250505060206040518083038186803b15801561228a57600080fd5b505af415801561229e573d6000803e3d6000fd5b505050506040513d60208110156122b457600080fd5b81019080805190602001909291905050501415156122d157600080fd5b8173__RockPaperScissorsState________________634e77b06390916040518263ffffffff167c01000000000000000000000000000000000000000000000000000000000281526004018080602001828103825283818151815260200191508051906020019080838360005b8381101561235957808201518184015260208101905061233e565b50505050905090810190601f1680156123865780820380516001836020036101000a031916815260200191505b509250505060206040518083038186803b1580156123a357600080fd5b505af41580156123b7573d6000803e3d6000fd5b505050506040513d60208110156123cd57600080fd5b81019080805190602001909291905050508173__RockPaperScissorsState________________634e77b06390916040518263ffffffff167c01000000000000000000000000000000000000000000000000000000000281526004018080602001828103825283818151815260200191508051906020019080838360005b8381101561246657808201518184015260208101905061244b565b50505050905090810190601f1680156124935780820380516001836020036101000a031916815260200191505b509250505060206040518083038186803b1580156124b057600080fd5b505af41580156124c4573d6000803e3d6000fd5b505050506040513d60208110156124da57600080fd5b81019080805190602001909291905050501415156124f757600080fd5b5050565b8173__RockPaperScissorsState________________632d1e0c0290916040518263ffffffff167c01000000000000000000000000000000000000000000000000000000000281526004018080602001828103825283818151815260200191508051906020019080838360005b83811015612583578082015181840152602081019050612568565b50505050905090810190601f1680156125b05780820380516001836020036101000a031916815260200191505b509250505060206040518083038186803b1580156125cd57600080fd5b505af41580156125e1573d6000803e3d6000fd5b505050506040513d60208110156125f757600080fd5b81019080805190602001909291905050508273__RockPaperScissorsState________________634c291ecd90916040518263ffffffff167c01000000000000000000000000000000000000000000000000000000000281526004018080602001828103825283818151815260200191508051906020019080838360005b83811015612690578082015181840152602081019050612675565b50505050905090810190601f1680156126bd5780820380516001836020036101000a031916815260200191505b509250505060206040518083038186803b1580156126da57600080fd5b505af41580156126ee573d6000803e3d6000fd5b505050506040513d602081101561270457600080fd5b8101908080519060200190929190505050038173__RockPaperScissorsState________________634c291ecd90916040518263ffffffff167c01000000000000000000000000000000000000000000000000000000000281526004018080602001828103825283818151815260200191508051906020019080838360005b8381101561279e578082015181840152602081019050612783565b50505050905090810190601f1680156127cb5780820380516001836020036101000a031916815260200191505b509250505060206040518083038186803b1580156127e857600080fd5b505af41580156127fc573d6000803e3d6000fd5b505050506040513d602081101561281257600080fd5b810190808051906020019092919050505014151561282f57600080fd5b8173__RockPaperScissorsState________________632d1e0c0290916040518263ffffffff167c01000000000000000000000000000000000000000000000000000000000281526004018080602001828103825283818151815260200191508051906020019080838360005b838110156128b757808201518184015260208101905061289c565b50505050905090810190601f1680156128e45780820380516001836020036101000a031916815260200191505b509250505060206040518083038186803b15801561290157600080fd5b505af4158015612915573d6000803e3d6000fd5b505050506040513d602081101561292b57600080fd5b81019080805190602001909291905050508273__RockPaperScissorsState________________634e77b06390916040518263ffffffff167c01000000000000000000000000000000000000000000000000000000000281526004018080602001828103825283818151815260200191508051906020019080838360005b838110156129c45780820151818401526020810190506129a9565b50505050905090810190601f1680156129f15780820380516001836020036101000a031916815260200191505b509250505060206040518083038186803b158015612a0e57600080fd5b505af4158015612a22573d6000803e3d6000fd5b505050506040513d6020811015612a3857600080fd5b8101908080519060200190929190505050018173__RockPaperScissorsState________________634e77b06390916040518263ffffffff167c01000000000000000000000000000000000000000000000000000000000281526004018080602001828103825283818151815260200191508051906020019080838360005b83811015612ad2578082015181840152602081019050612ab7565b50505050905090810190601f168015612aff5780820380516001836020036101000a031916815260200191505b509250505060206040518083038186803b158015612b1c57600080fd5b505af4158015612b30573d6000803e3d6000fd5b505050506040513d6020811015612b4657600080fd5b8101908080519060200190929190505050141515612b6357600080fd5b8173__RockPaperScissorsState________________632d1e0c0290916040518263ffffffff167c01000000000000000000000000000000000000000000000000000000000281526004018080602001828103825283818151815260200191508051906020019080838360005b83811015612beb578082015181840152602081019050612bd0565b50505050905090810190601f168015612c185780820380516001836020036101000a031916815260200191505b509250505060206040518083038186803b158015612c3557600080fd5b505af4158015612c49573d6000803e3d6000fd5b505050506040513d6020811015612c5f57600080fd5b81019080805190602001909291905050508173__RockPaperScissorsState________________632d1e0c0290916040518263ffffffff167c01000000000000000000000000000000000000000000000000000000000281526004018080602001828103825283818151815260200191508051906020019080838360005b83811015612cf8578082015181840152602081019050612cdd565b50505050905090810190601f168015612d255780820380516001836020036101000a031916815260200191505b509250505060206040518083038186803b158015612d4257600080fd5b505af4158015612d56573d6000803e3d6000fd5b505050506040513d6020811015612d6c57600080fd5b8101908080519060200190929190505050141515612d8957600080fd5b8173__RockPaperScissorsState________________638b5b5b3290916040518263ffffffff167c01000000000000000000000000000000000000000000000000000000000281526004018080602001828103825283818151815260200191508051906020019080838360005b83811015612e11578082015181840152602081019050612df6565b50505050905090810190601f168015612e3e5780820380516001836020036101000a031916815260200191505b509250505060206040518083038186803b158015612e5b57600080fd5b505af4158015612e6f573d6000803e3d6000fd5b505050506040513d6020811015612e8557600080fd5b8101908080519060200190929190505050600019168173__RockPaperScissorsState________________638b5b5b3290916040518263ffffffff167c01000000000000000000000000000000000000000000000000000000000281526004018080602001828103825283818151815260200191508051906020019080838360005b83811015612f22578082015181840152602081019050612f07565b50505050905090810190601f168015612f4f5780820380516001836020036101000a031916815260200191505b509250505060206040518083038186803b158015612f6c57600080fd5b505af4158015612f80573d6000803e3d6000fd5b505050506040513d6020811015612f9657600080fd5b810190808051906020019092919050505060001916141515612fb757600080fd5b5050565b60008060008473__RockPaperScissorsState________________632d1e0c0290916040518263ffffffff167c01000000000000000000000000000000000000000000000000000000000281526004018080602001828103825283818151815260200191508051906020019080838360005b8381101561304857808201518184015260208101905061302d565b50505050905090810190601f1680156130755780820380516001836020036101000a031916815260200191505b509250505060206040518083038186803b15801561309257600080fd5b505af41580156130a6573d6000803e3d6000fd5b505050506040513d60208110156130bc57600080fd5b81019080805190602001909291905050508473__RockPaperScissorsState________________632d1e0c0290916040518263ffffffff167c01000000000000000000000000000000000000000000000000000000000281526004018080602001828103825283818151815260200191508051906020019080838360005b8381101561315557808201518184015260208101905061313a565b50505050905090810190601f1680156131825780820380516001836020036101000a031916815260200191505b509250505060206040518083038186803b15801561319f57600080fd5b505af41580156131b3573d6000803e3d6000fd5b505050506040513d60208110156131c957600080fd5b81019080805190602001909291905050501415156131e657600080fd5b8473__RockPaperScissorsState________________6316666c7090916040518263ffffffff167c01000000000000000000000000000000000000000000000000000000000281526004018080602001828103825283818151815260200191508051906020019080838360005b8381101561326e578082015181840152602081019050613253565b50505050905090810190601f16801561329b5780820380516001836020036101000a031916815260200191505b509250505060206040518083038186803b1580156132b857600080fd5b505af41580156132cc573d6000803e3d6000fd5b505050506040513d60208110156132e257600080fd5b810190808051906020019092919050505060028111156132fe57fe5b8473__RockPaperScissorsState________________6316666c7090916040518263ffffffff167c01000000000000000000000000000000000000000000000000000000000281526004018080602001828103825283818151815260200191508051906020019080838360005b8381101561338657808201518184015260208101905061336b565b50505050905090810190601f1680156133b35780820380516001836020036101000a031916815260200191505b509250505060206040518083038186803b1580156133d057600080fd5b505af41580156133e4573d6000803e3d6000fd5b505050506040513d60208110156133fa57600080fd5b8101908080519060200190929190505050600281111561341657fe5b14151561342257600080fd5b8373__RockPaperScissorsState________________63259b0d3390916040518263ffffffff167c01000000000000000000000000000000000000000000000000000000000281526004018080602001828103825283818151815260200191508051906020019080838360005b838110156134aa57808201518184015260208101905061348f565b50505050905090810190601f1680156134d75780820380516001836020036101000a031916815260200191505b509250505060206040518083038186803b1580156134f457600080fd5b505af4158015613508573d6000803e3d6000fd5b505050506040513d602081101561351e57600080fd5b8101908080519060200190929190505050600281111561353a57fe5b8473__RockPaperScissorsState________________63f7487e0690916040518263ffffffff167c01000000000000000000000000000000000000000000000000000000000281526004018080602001828103825283818151815260200191508051906020019080838360005b838110156135c25780820151818401526020810190506135a7565b50505050905090810190601f1680156135ef5780820380516001836020036101000a031916815260200191505b509250505060206040518083038186803b15801561360c57600080fd5b505af4158015613620573d6000803e3d6000fd5b505050506040513d602081101561363657600080fd5b8101908080519060200190929190505050604051602001808381526020018260001916600019168152602001925050506040516020818303038152906040526040518082805190602001908083835b6020831015156136aa5780518252602082019150602081019050602083039250613685565b6001836020036101000a038019825116818451168082178552505050505050905001915050604051809103902090508473__RockPaperScissorsState________________638b5b5b3290916040518263ffffffff167c01000000000000000000000000000000000000000000000000000000000281526004018080602001828103825283818151815260200191508051906020019080838360005b83811015613761578082015181840152602081019050613746565b50505050905090810190601f16801561378e5780820380516001836020036101000a031916815260200191505b509250505060206040518083038186803b1580156137ab57600080fd5b505af41580156137bf573d6000803e3d6000fd5b505050506040513d60208110156137d557600080fd5b81019080805190602001909291905050506000191681600019161415156137fb57600080fd5b613b2a8473__RockPaperScissorsState________________63259b0d3390916040518263ffffffff167c01000000000000000000000000000000000000000000000000000000000281526004018080602001828103825283818151815260200191508051906020019080838360005b8381101561388657808201518184015260208101905061386b565b50505050905090810190601f1680156138b35780820380516001836020036101000a031916815260200191505b509250505060206040518083038186803b1580156138d057600080fd5b505af41580156138e4573d6000803e3d6000fd5b505050506040513d60208110156138fa57600080fd5b81019080805190602001909291905050508573__RockPaperScissorsState________________6316666c7090916040518263ffffffff167c01000000000000000000000000000000000000000000000000000000000281526004018080602001828103825283818151815260200191508051906020019080838360005b83811015613993578082015181840152602081019050613978565b50505050905090810190601f1680156139c05780820380516001836020036101000a031916815260200191505b509250505060206040518083038186803b1580156139dd57600080fd5b505af41580156139f1573d6000803e3d6000fd5b505050506040513d6020811015613a0757600080fd5b81019080805190602001909291905050508673__RockPaperScissorsState________________632d1e0c0290916040518263ffffffff167c01000000000000000000000000000000000000000000000000000000000281526004018080602001828103825283818151815260200191508051906020019080838360005b83811015613aa0578082015181840152602081019050613a85565b50505050905090810190601f168015613acd5780820380516001836020036101000a031916815260200191505b509250505060206040518083038186803b158015613aea57600080fd5b505af4158015613afe573d6000803e3d6000fd5b505050506040513d6020811015613b1457600080fd5b810190808051906020019092919050505061470a565b8093508194505050828573__RockPaperScissorsState________________634c291ecd90916040518263ffffffff167c01000000000000000000000000000000000000000000000000000000000281526004018080602001828103825283818151815260200191508051906020019080838360005b83811015613bbb578082015181840152602081019050613ba0565b50505050905090810190601f168015613be85780820380516001836020036101000a031916815260200191505b509250505060206040518083038186803b158015613c0557600080fd5b505af4158015613c19573d6000803e3d6000fd5b505050506040513d6020811015613c2f57600080fd5b8101908080519060200190929190505050018473__RockPaperScissorsState________________634c291ecd90916040518263ffffffff167c01000000000000000000000000000000000000000000000000000000000281526004018080602001828103825283818151815260200191508051906020019080838360005b83811015613cc9578082015181840152602081019050613cae565b50505050905090810190601f168015613cf65780820380516001836020036101000a031916815260200191505b509250505060206040518083038186803b158015613d1357600080fd5b505af4158015613d27573d6000803e3d6000fd5b505050506040513d6020811015613d3d57600080fd5b8101908080519060200190929190505050141515613d5a57600080fd5b818573__RockPaperScissorsState________________632d1e0c0290916040518263ffffffff167c01000000000000000000000000000000000000000000000000000000000281526004018080602001828103825283818151815260200191508051906020019080838360005b83811015613de3578082015181840152602081019050613dc8565b50505050905090810190601f168015613e105780820380516001836020036101000a031916815260200191505b509250505060206040518083038186803b158015613e2d57600080fd5b505af4158015613e41573d6000803e3d6000fd5b505050506040513d6020811015613e5757600080fd5b81019080805190602001909291905050506002028673__RockPaperScissorsState________________634e77b06390916040518263ffffffff167c01000000000000000000000000000000000000000000000000000000000281526004018080602001828103825283818151815260200191508051906020019080838360005b83811015613ef3578082015181840152602081019050613ed8565b50505050905090810190601f168015613f205780820380516001836020036101000a031916815260200191505b509250505060206040518083038186803b158015613f3d57600080fd5b505af4158015613f51573d6000803e3d6000fd5b505050506040513d6020811015613f6757600080fd5b810190808051906020019092919050505003018473__RockPaperScissorsState________________634e77b06390916040518263ffffffff167c01000000000000000000000000000000000000000000000000000000000281526004018080602001828103825283818151815260200191508051906020019080838360005b83811015614002578082015181840152602081019050613fe7565b50505050905090810190601f16801561402f5780820380516001836020036101000a031916815260200191505b509250505060206040518083038186803b15801561404c57600080fd5b505af4158015614060573d6000803e3d6000fd5b505050506040513d602081101561407657600080fd5b810190808051906020019092919050505014151561409357600080fd5b5050505050565b8173__RockPaperScissorsState________________632d1e0c0290916040518263ffffffff167c01000000000000000000000000000000000000000000000000000000000281526004018080602001828103825283818151815260200191508051906020019080838360005b83811015614122578082015181840152602081019050614107565b50505050905090810190601f16801561414f5780820380516001836020036101000a031916815260200191505b509250505060206040518083038186803b15801561416c57600080fd5b505af4158015614180573d6000803e3d6000fd5b505050506040513d602081101561419657600080fd5b81019080805190602001909291905050508173__RockPaperScissorsState________________632d1e0c0290916040518263ffffffff167c01000000000000000000000000000000000000000000000000000000000281526004018080602001828103825283818151815260200191508051906020019080838360005b8381101561422f578082015181840152602081019050614214565b50505050905090810190601f16801561425c5780820380516001836020036101000a031916815260200191505b509250505060206040518083038186803b15801561427957600080fd5b505af415801561428d573d6000803e3d6000fd5b505050506040513d60208110156142a357600080fd5b81019080805190602001909291905050501415156142c057600080fd5b8173__RockPaperScissorsState________________634c291ecd90916040518263ffffffff167c01000000000000000000000000000000000000000000000000000000000281526004018080602001828103825283818151815260200191508051906020019080838360005b8381101561434857808201518184015260208101905061432d565b50505050905090810190601f1680156143755780820380516001836020036101000a031916815260200191505b509250505060206040518083038186803b15801561439257600080fd5b505af41580156143a6573d6000803e3d6000fd5b505050506040513d60208110156143bc57600080fd5b81019080805190602001909291905050508173__RockPaperScissorsState________________634c291ecd90916040518263ffffffff167c01000000000000000000000000000000000000000000000000000000000281526004018080602001828103825283818151815260200191508051906020019080838360005b8381101561445557808201518184015260208101905061443a565b50505050905090810190601f1680156144825780820380516001836020036101000a031916815260200191505b509250505060206040518083038186803b15801561449f57600080fd5b505af41580156144b3573d6000803e3d6000fd5b505050506040513d60208110156144c957600080fd5b81019080805190602001909291905050501415156144e357fe5b8173__RockPaperScissorsState________________634e77b06390916040518263ffffffff167c01000000000000000000000000000000000000000000000000000000000281526004018080602001828103825283818151815260200191508051906020019080838360005b8381101561456b578082015181840152602081019050614550565b50505050905090810190601f1680156145985780820380516001836020036101000a031916815260200191505b509250505060206040518083038186803b1580156145b557600080fd5b505af41580156145c9573d6000803e3d6000fd5b505050506040513d60208110156145df57600080fd5b81019080805190602001909291905050508173__RockPaperScissorsState________________634e77b06390916040518263ffffffff167c01000000000000000000000000000000000000000000000000000000000281526004018080602001828103825283818151815260200191508051906020019080838360005b8381101561467857808201518184015260208101905061465d565b50505050905090810190601f1680156146a55780820380516001836020036101000a031916815260200191505b509250505060206040518083038186803b1580156146c257600080fd5b505af41580156146d6573d6000803e3d6000fd5b505050506040513d60208110156146ec57600080fd5b810190808051906020019092919050505014151561470657fe5b5050565b60008083600281111561471957fe5b85600281111561472557fe5b1415614736578283915091506147b6565b6000600281111561474357fe5b85600281111561474f57fe5b148015614771575060028081111561476357fe5b84600281111561476f57fe5b145b80614791575083600281111561478357fe5b85600281111561478f57fe5b115b156147a857826002026000809050915091506147b6565b600083600202819150915091505b9350939150505600a165627a7a72305820f84f20a9c9a152788bdd40ea4a0bb04071d422c4e09d529fe4a4f66aa4778e110029",
  "source": "pragma solidity ^0.4.18;\n\nimport \"fmg-core/contracts/State.sol\";\nimport \"./RockPaperScissorsState.sol\";\n\ncontract RockPaperScissorsGame {\n    using RockPaperScissorsState for bytes;\n\n    // The following transitions are allowed:\n    //\n    // Start -> RoundProposed\n    // RoundProposed -> Start // reject game\n    // RoundProposed -> RoundAccepted\n    // RoundAccepted -> Reveal\n    // Reveal -> Start\n    // Start -> Concluded\n    //\n    function validTransition(bytes _old, bytes _new) public pure returns (bool) {\n        if (_old.positionType() == RockPaperScissorsState.PositionType.Start) {\n            if (_new.positionType() == RockPaperScissorsState.PositionType.RoundProposed) {\n                validateStartToRoundProposed(_old, _new);\n\n                return true;\n            } else if (_new.positionType() == RockPaperScissorsState.PositionType.Concluded) {\n                validateStartToConcluded(_old, _new);\n\n                return true;\n            }\n        } else if (_old.positionType() == RockPaperScissorsState.PositionType.RoundProposed) {\n            if (_new.positionType() == RockPaperScissorsState.PositionType.Start) { // game rejected\n                validateRoundProposedToRejected(_old, _new);\n\n                return true;\n            } else if (_new.positionType() == RockPaperScissorsState.PositionType.RoundAccepted) {\n                validateRoundProposedToRoundAccepted(_old, _new);\n\n                return true;\n            }\n        } else if (_old.positionType() == RockPaperScissorsState.PositionType.RoundAccepted) {\n            if (_new.positionType() == RockPaperScissorsState.PositionType.Reveal) {\n                validateRoundAcceptedToReveal(_old, _new);\n\n                return true;\n            }\n        } else if (_old.positionType() == RockPaperScissorsState.PositionType.Reveal) {\n            if (_new.positionType() == RockPaperScissorsState.PositionType.Start) {\n                validateRevealToStart(_old, _new);\n\n                return true;\n            }\n        }\n\n        revert();\n    }\n\n    function winnings(RockPaperScissorsState.Play firstPlay, RockPaperScissorsState.Play secondPlay, uint256 stake)\n    private pure returns (uint256, uint256) {\n        if (firstPlay == secondPlay) { // no-one won\n            return (stake, stake);\n        } else if ((firstPlay == RockPaperScissorsState.Play.Rock && secondPlay == RockPaperScissorsState.Play.Scissors) ||\n                  (firstPlay > secondPlay)) { // first player won\n            return (2 * stake, 0);\n        } else { // second player won\n            return (0, 2 * stake);\n        }\n    }\n\n    // transition validations\n    function validateStartToRoundProposed(bytes _old, bytes _new) private pure {\n        require(_new.stake() == _old.stake());\n        require(_old.aResolution() >= _new.stake()); // avoid integer overflow attacks\n        require(_old.bResolution() >= _new.stake()); // avoid integer overflow attacks\n        require(_new.aResolution() == _old.aResolution()); // resolution unchanged\n        require(_new.bResolution() == _old.bResolution()); // resolution unchanged\n\n        // we should maybe require that aPreCommit isn't empty, but then it will only hurt a later if it is\n    }\n\n    function validateStartToConcluded(bytes _old, bytes _new) private pure {\n        require(_new.stake() == _old.stake());\n        require(_new.aResolution() == _old.aResolution());\n        require(_new.bResolution() == _old.bResolution());\n    }\n\n    function validateRoundProposedToRejected(bytes _old, bytes _new) private pure {\n        require(_new.stake() == _old.stake());\n        require(_new.aResolution() == _old.aResolution()); // resolution unchanged\n        require(_new.bResolution() == _old.bResolution()); // resolution unchanged\n    }\n\n    function validateRoundProposedToRoundAccepted(bytes _old, bytes _new) private pure {\n        // a will have to reveal, so remove the stake beforehand\n        require(_new.aResolution() == _old.aResolution() - _old.stake());\n        require(_new.bResolution() == _old.bResolution() + _old.stake());\n        require(_new.stake() == _old.stake());\n        require(_new.preCommit() == _old.preCommit());\n    }\n\n    function validateRoundAcceptedToReveal(bytes _old, bytes _new) private pure {\n        uint256 aWinnings;\n        uint256 bWinnings;\n\n        require(_new.stake() == _old.stake());\n        require(_new.bPlay() == _old.bPlay());\n\n        // check hash matches\n        // need to convert Play -> uint256 to get hash to work\n        bytes32 hashed = keccak256(abi.encodePacked(uint256(_new.aPlay()), _new.salt()));\n        require(hashed == _old.preCommit());\n\n        // calculate winnings\n        (aWinnings, bWinnings) = winnings(_new.aPlay(), _new.bPlay(), _new.stake());\n\n        require(_new.aResolution() == _old.aResolution() + aWinnings);\n        require(_new.bResolution() == _old.bResolution() - 2 * _old.stake() + bWinnings);\n    }\n\n    function validateRevealToStart(bytes _old, bytes _new) private pure {\n        require(_new.stake() == _old.stake());\n        assert(_new.aResolution() == _old.aResolution());\n        assert(_new.bResolution() == _old.bResolution());\n    }\n}\n",
  "sourcePath": "/Users/alexgap/code/rps-poc/contracts/RockPaperScissorsGame.sol",
  "compiler": {
    "name": "solc",
    "version": "0.4.24+commit.e67f0147.Emscripten.clang"
  },
  "schemaVersion": "3.0.0-beta.0",
  "updatedAt": "2018-10-08T20:25:31.360Z"
}